:100000000C945D000C9485000C9485000C94850084
:100010000C9485000C9485000C9485000C9485004C
:100020000C9485000C9485000C9485000C9485003C
:100030000C9485000C9485000C9485000C9485002C
:100040000C94BF020C9485000C9488020C944D0211
:100050000C9485000C9485000C9485000C9485000C
:100060000C9485000C94850000000007000201003C
:100070000003040600000000000000000000000073
:10008000250028002B0000000000240027002A0083
:10009000040404040404040402020202020203032E
:1000A0000303030301020408102040800102040836
:1000B0001020010204081020970411241FBECFEF66
:1000C000D8E0DEBFCDBF11E0A0E0B1E0EEEFF9E097
:1000D00002C005900D92A032B107D9F721E0A0E24D
:1000E000B1E001C01D92AF3DB207E1F710E0CDE5F0
:1000F000D0E004C02197FE010E94F704CC35D1075F
:10010000C9F70E9409030C94D2040C9400008E30AD
:1001100008F08E508770806480937C0080917A0014
:10012000806480937A0080917A0086FDFCCF809174
:1001300078002091790090E0922B089590E0FC01E6
:10014000EC55FF4F2491FC01E057FF4F8491882329
:1001500099F090E0880F991FFC01EA57FF4FA59195
:10016000B491FC01E458FF4F859194918FB7F894B6
:10017000EC91E22BEC938FBF0895CF92DF92EF9238
:10018000FF920F931F93CF93DF936C01EB017B01E1
:10019000E40EF51E00E010E0CE15DF0561F0699178
:1001A000D601ED91FC910190F081E02DC6010995F9
:1001B000080F191FF1CFC801DF91CF911F910F9147
:1001C000FF90EF90DF90CF90089508950F931F93C5
:1001D000CF93DF93FC01A685B7858D01005C1F4F8F
:1001E000E8018881998101968F739927AD014E5B53
:1001F0005F4FEA012881398182179307D1F3E80123
:1002000028813981A20FB31F6C93A685B785A05CA6
:10021000BF4F11969C938E93A689B7892C9181E04C
:1002200090E0078C02C0880F991F0A94E2F7822B96
:100230008C9381E081A30488F589E02D808180641E
:10024000808381E090E0DF91CF911F910F9108951D
:10025000CF93DF936DE08DEB91E00E94E600EC011F
:100260006AE08DEB91E00E94E6008C0F9D1FDF910C
:10027000CF910895FC0181A1882329F0A489B58933
:100280008C9186FFFBCF11A20895FC01A485B58552
:10029000FD01E05CFF4F20813181329680819181A8
:1002A0002817390779F080819181A80FB91F8C91A7
:1002B000208131812F5F3F4F2F733327318320837C
:1002C00090E008958FEF9FEF0895DC011C96ED916B
:1002D000FC911D97DF01A05CBF4F2D913C911197C0
:1002E00012968D919C9111972817390739F08D91AD
:1002F0009C91E80FF91F808190E008958FEF9FEFA8
:100300000895FC0124853585F901E05CFF4F80816B
:100310009181329620813181821B930B8F739927B3
:1003200008958DEB91E00C94810190E0FC01E85977
:10033000FF4F2491FC01EC55FF4F3491FC01E05735
:10034000FF4FE491EE2309F43CC0222339F123301E
:1003500091F038F42130A9F0223001F584B58F7D79
:1003600012C0263091F02730A1F02430B9F48091EA
:1003700080008F7D03C0809180008F778093800004
:100380000DC084B58F7784BD09C08091B0008F7790
:1003900003C08091B0008F7D8093B000F0E0EE0F3D
:1003A000FF1FE458FF4FA591B4919FB7F8946111D6
:1003B00004C08C913095382302C0EC913E2B3C93C5
:1003C0009FBF08952FB7F894609125017091260181
:1003D00080912701909128012FBF0895009769F01F
:1003E000FC0101900020E9F73197AF01481B590B40
:1003F000BC018DEB91E00C94BD0080E090E008958D
:100400008F929F92AF92BF92EF92FF920F931F93A2
:10041000CF93DF93CDB7DEB7A1970FB6F894DEBFC9
:100420000FBECDBF162F042F19A2423008F40AE0E8
:100430007E0121E2E20EF11C802E912CA12CB12C28
:10044000612FA50194010E94D504029F1019112467
:1004500081E0E81AF1081A3014F4105D01C0195C4B
:10046000F7011083122F732FCA01232B242B252B66
:1004700039F7C7010E94EE01A1960FB6F894DEBFCE
:100480000FBECDBFDF91CF911F910F91FF90EF90E5
:10049000BF90AF909F908F9008951F920F920FB6CC
:1004A0000F9211242F933F938F939F93EF93FF937A
:1004B0002091690130916A0180916B0190916C01EA
:1004C0002817390731F48091C1008F7D8093C100D6
:1004D00014C0E0916B01F0916C01E75DFE4F20814B
:1004E00080916B0190916C0101968F739927909385
:1004F0006C0180936B012093C600FF91EF919F9157
:100500008F913F912F910F900FBE0F901F901895D4
:100510001F920F920FB60F9211242F934F935F9358
:100520008F939F93EF93FF938091C00082FD1BC038
:100530002091C6008091AD019091AE0101968F731C
:1005400099274091AF015091B0018417950759F058
:10055000E091AD01F091AE01E359FE4F20839093FD
:10056000AE018093AD01FF91EF919F918F915F91CB
:100570004F912F910F900FBE0F901F9018951F92C3
:100580000F920FB60F9211242F933F938F939F9347
:10059000AF93BF938091250190912601A0912701EF
:1005A000B09128013091240123E0230F2D3720F44E
:1005B0000196A11DB11D05C026E8230F0296A11DBD
:1005C000B11D209324018093250190932601A093CF
:1005D0002701B09328018091200190912101A091E1
:1005E0002201B09123010196A11DB11D809320012C
:1005F00090932101A0932201B0932301BF91AF9169
:100600009F918F913F912F910F900FBE0F901F9050
:100610001895789484B5826084BD84B5816084BD6A
:1006200085B5826085BD85B5816085BD80916E0090
:10063000816080936E0010928100809181008260C1
:1006400080938100809181008160809381008091FE
:1006500080008160809380008091B10084608093ED
:10066000B1008091B00081608093B00080917A00E9
:10067000846080937A0080917A00826080937A000F
:1006800080917A00816080937A0080917A008068FE
:1006900080937A001092C100E091D101F091D201D3
:1006A00081E090E09C010090DD0102C0220F331F29
:1006B0000A94E2F72083E091CD01F091CE011082FF
:1006C000E091CF01F091D0012FEC20831092DE0158
:1006D000E091D301F091D40140819C010090D901B7
:1006E00002C0220F331F0A94E2F7242B2083E091EB
:1006F000D301F091D40140819C010090DA0102C045
:10070000220F331F0A94E2F7242B2083E091D301B8
:10071000F091D40140819C010090DB0102C0220FC6
:10072000331F0A94E2F7242B2083E091D301F09148
:10073000D40120810090DC0102C0880F991F0A9427
:10074000E2F780958223808386E00E949E008BE002
:100750000E949E008AE00E949E0089E00E949E0006
:100760000E94E2016093B1017093B2018093B301E2
:100770009093B40180E191E00E94EE016091B1019B
:100780007091B2018091B3019091B4014AE00E944E
:1007900000020E9428011092B9011092BA01109231
:1007A000BB011092BC0161E086E00E9495010E94AD
:1007B000E2016B017C0122E3C20ED11CE11CF11CA1
:1007C0000E94E2016C157D058E059F05C8F360E06F
:1007D00086E00E94950161E08BE00E9495010E94F5
:1007E000E2016B017C0122E3C20ED11CE11CF11C71
:1007F0000E94E2016C157D058E059F05C8F360E03F
:100800008BE00E94950161E08AE00E9495010E94C0
:10081000E2016B017C0122E3C20ED11CE11CF11C40
:100820000E94E2016C157D058E059F05C8F360E00E
:100830008AE00E94950161E089E00E9495010E9492
:10084000E2016093B5017093B6018093B701909374
:10085000B8016B017C0122E3C20ED11CE11CF11C2A
:100860000E94E2016C157D058E059F05C8F360E0CE
:1008700089E00E9495010E94E201C090B901D090E8
:10088000BA01E090BB01F090BC012AEFC20ED11C6E
:10089000E11CF11C6C157D058E059F0508F444C014
:1008A00080E00E94870096958795BC0180E090E0EB
:1008B0004AE00E9400028DE191E00E94EE0181E099
:1008C0000E94870096958795BC0180E090E04AE001
:1008D0000E9400028DE191E00E94EE0182E00E9400
:1008E000870096958795BC0180E090E04AE00E94E1
:1008F00000028DE191E00E94EE0183E00E948700FA
:1009000096958795BC0180E090E04AE00E94000245
:100910000E9428010E94E2016093B9017093BA011C
:100920008093BB019093BC010E9491013CCFEDEB01
:10093000F1E01382128288EE93E0A0E0B0E08483BD
:100940009583A683B78384E091E0918380838DE6CD
:1009500091E09587848789E291E09787868785EC87
:1009600090E0918B808B84EC90E0938B828B80EC79
:1009700090E0958B848B81EC90E0978B868B82EC5A
:1009800090E0918F808F86EC90E0938F828F84E04F
:10099000848F83E0858F87E0868F85E0878F81E075
:1009A00080A30895F8940C94FD04A1E21A2EAA1BCA
:1009B000BB1BFD010DC0AA1FBB1FEE1FFF1FA2170F
:1009C000B307E407F50720F0A21BB30BE40BF50B0C
:1009D000661F771F881F991F1A9469F76095709595
:1009E000809590959B01AC01BD01CF010895EE0F5C
:0E09F000FF1F0590F491E02D0994F894FFCFBD
:1009FE0000000000E600BD008101450165013A01DD
:100A0E00737461727454696D6569733A002C2000B9
:00000001FF
