:100000000C94BD040C94C0440C948F440C945E4436
:100010000C942D440C94FC430C94CB430C949A43C5
:100020000C9469430C943C230C94ED230C94C5234D
:100030000C94EE040C94EE040C94EE040C94EE0478
:100040000C94EE040C94EE040C94EE040C94EE0468
:100050000C94EE040C94EE040C94EE040C941F43E8
:100060000C94EE040C9408420C9439410C94EE0468
:100070000C94EE040C94EE040C94EE040C94EE0438
:100080000C94EE040C94EE040C94EE040C94EE0428
:100090000C94D8410C94FA400C94EE040C94EE04A9
:1000A0000C94EE040C94EE040C94EE040C94EE0408
:1000B0000C94EE040C94EE040C94EE040C94EE04F8
:1000C0000C94EE040C94EE040C94EE040C94A841F1
:1000D0000C94BB400C94EE040C9478410C947C403E
:1000E0000C94EE04A105A9053D0640064A064D06FE
:1000F000540657065E06610668066B0672067506AC
:100100007C067F0686068906900693069A069D065B
:10011000A406A7062B076607C2079407E607590837
:10012000CC086709020A9D0AAE06F8061A059D0565
:10013000A4153F16380B3F16940E3F16B90F3F1605
:10014000BC0FBF0F910EE410A505E710EA10ED10EB
:10015000F010F31018123D1340136514A0159E15EE
:10016000850BCB0B260C9C0CEE0C6C0DFF24042590
:10017000092513258C251D2525252D2537254125C8
:100180004B255A2564258C256E2578258225773BBD
:10019000793B7B3B7D3B7F3B813B833B853B873B87
:1001A000893B6342664259425D429D426A426E42C9
:1001B000744278427C42824286428A429D42904208
:1001C0009442984218551A551455165518551A55F3
:1001D00018551A5518551A55084AD73B3BCE016E8B
:1001E00084BCBFFDC12F3D6C74319ABD56833DDA8E
:1001F0003D00C77F11BED9E4BB4C3E916BAAAABE9D
:10020000000000803F05A84CCDB2D44EB93836A9C5
:10021000020C50B9918688083CA6AAAA2ABE000002
:1002200000803F000C94ED100C9461060C949D0A24
:100230000C9425250C9490060C944A060C94FB3FD4
:100240000C948A420C94481D0C942E640C948906DC
:100250000C94481F0C942B070C9474420C94BF0F01
:100260000C945A250C94853B0C949C0C0C94601DAA
:100270000C94E4100C948C250C94DC630C943F16C5
:100280000C94A9050C9494070C945D420C947C0684
:100290000C947F3B0C941D250C946C0D0C949D428A
:1002A0000C9416550C94A0150C9441250C947506CD
:1002B0000C9440060C9459080C9464250C94C207C5
:1002C0000C94F8060C94C7220C9414550C944240DC
:1002D0000C944E1D0C9454060C94F0100C94615523
:1002E0000C9465140C949D060C949E150C94EA10C5
:1002F0000C94601F0C9494420C9466070C944B254C
:100300000C94A4060C946E250C946A420C94773BD2
:100310000C9426400C94A4150C94CB0B0C9498428E
:100320000C947F060C942D250C9486420C945E064A
:100330000C94BC0F0C9493060C9478250C947C427E
:100340000C9457060C94793B0C9472060C94FF2481
:100350000C94F3100C94850B0C949D050C94260CB6
:100360000C94910E0C94E7100C94B93F0C94372523
:100370000C94EE0C0C9486060C94380B0C94824270
:100380000C9468060C94813B0C94B90F0C94893B37
:100390000C94020A0C9418120C94A1050C941325C9
:1003A0000C94E6070C94940E0C94CC080C946342C5
:1003B0000C94541D0C9459420C941F1F0C946642CB
:1003C0000C94391F0C9418550C941A050C94064083
:1003D0000C9490420C9440130C94A7060C945A1D54
:1003E0000C944D060C941A550C94A5050C947B3B6B
:1003F0000C94661D0C9482250C9404250C943D13DA
:100400000C94833B0C946B060C94873B0C9467090B
:100410000C949A060C9478420C943D060C94AE060B
:100420000C947D3B0C946E420C9409254E414E4930
:100430004E495459494E46CDCCCC3D0AD7233C17A2
:10044000B7D13877CC2B329595E6241FB14F0A00EF
:100450000020410000C84200401C4620BCBE4CCADF
:100460001B0E5AAEC59D7400C2010001001100119F
:10047000000C0000E100000A00250025002100001A
:100480009600001900390039003600127A00001F6A
:10049000004600460044008070000022004D004DE0
:1004A000004A00004B0000360075007500720040E5
:1004B0003800004A009C009C0099008025000072D2
:1004C00000EC00EC00E900C0120000E900DA01DAFB
:1004D00001D70160090000D701B603B603B303B02A
:1004E000040000B3036E076E076B07580200006E2E
:1004F00007DC0EDC0ED80E2C010000DC0EC11DC185
:100500001DBE1D3C4D656761206973207265616485
:10051000793E003C49276D206F6E206D7920627214
:1005200065616B3E003C49276D2073746F70706588
:10053000643E003E003C49276D207265736574007F
:100540003E003C43757272656E7420766F6C746108
:10055000676520706F77657220697320003C66695B
:100560006E69736865643E003C66696E69736865B0
:10057000643E003C66696E69736865643E003C6673
:10058000696E69736865643E003C66696E6973688C
:1005900065643E003C66696E69736865643E003C54
:1005A00066696E69736865643E003C66696E69736E
:1005B0006865643E003C66696E69736865643E0008
:1005C0003C66696E69736865643E003C66696E6589
:1005D0005341443E00474F494E4720515549434BF4
:1005E00052494748542033302100474F494E472055
:1005F000515549434B4C45465420333021003C6211
:1006000061636B6D6F763E003E00207375636365BA
:10061000737366756C6C792073776974636865644D
:10062000003C4D6F64616C69747920000000090A18
:1006300002080B0C0D070603040100000000000077
:1006400000000000000000000000000000000000AA
:10065000000000000000000011100F00000000006A
:10066000000000000000000000000000000000008A
:1006700000003C736F6E617273206F66663E003CD3
:1006800073696D706C6520707265646566696E690A
:10069000746520656E61626C65643E003C73696ED2
:1006A000676C65207061747465726E20656E61623E
:1006B0006C65643E003C436F6E74726F6C6C656475
:1006C00020656E61626C65643E003C466F6C6C6FC9
:1006D00077696E6720656E61626C65643E003C20E0
:1006E0004175746F6E6F6D6F757320656E61626CAE
:1006F00065643E003E00416E67756C617220537008
:1007000065656420697320002000466F727761720E
:1007100064205370656564206973200020003C5399
:10072000747261666520537065656420697320008A
:100730003C66696E69736865643E003C66696E6913
:10074000736865643E003C66696E69736865643E03
:10075000003C66696E69736865643E003C66696E5C
:1007600069736865643E003C66696E6973686564B8
:100770003E003C66696E69736865643E003C66696C
:100780006E69736865643E003C66696E697368658E
:10079000643E003C66696E69736865643E003C6E49
:1007A0006F7061743E003E002C20616C6C6F776549
:1007B000645F64697374616E636520002C207661E8
:1007C0006C756520676574706F7320002C206469F8
:1007D0007374616E63655F696E6368657320003C66
:1007E0004D494E5F44495354414E43452020003CFF
:1007F00066696E69736865643E003C7475726E6DFF
:100800006F763E0000002100240027002A002D0002
:100810003000330001010000040107010A0100005B
:1008200020002300260029002C002F0032000001A8
:100830000000030106010901000022002500280034
:100840002B002E00310034000201000005010801D8
:100850000B01050505050705080808080202020244
:100860000A0A08080404040401010101010101014C
:100870000303030303030303040707070C0C0C0C17
:100880000C0C0C0C02020202060606060606060600
:100890000B0B0B0B0B0B0B0B01021020200808108D
:1008A00020401020408002010201080402010102E0
:1008B00004081020408080402010080402018004B9
:1008C0000201804020100804020108040201010214
:1008D00004081020408001020408102040803C667B
:1008E000696E69736865643E003C66696E69736829
:1008F00065643E003C66696E69736865643E003CF1
:1009000066696E69736865643E003C66696E69730A
:100910006865643E003C66696E69736865643E00A4
:100920003C616C7061743E003C616C7061743E00AF
:100930003C616C62617061743E003C626C6F70611E
:10094000743E003C6E6F7061743E003C66726F6E68
:10095000746D6F763E00676F737472616967687457
:10096000206E6F20706172616D003C66726F6E74F4
:100970006D6F763E00002E64DC6311241FBECFEF46
:10098000D1E2DEBFCDBF00E00CBF14E0A0E0B2E0DA
:10099000ECE2F1EE00E00BBF02C007900D92A2372F
:1009A000B107D9F72EE0A2E7B4E001C01D92A43848
:1009B000B207E1F714E0CCEBD4E000E006C02197E9
:1009C0000109802FFE010E947C70CB3BD10780E0A3
:1009D0000807A9F70E94FC550C94B7690C94000015
:1009E0004F925F926F927F928F929F92AF92BF923F
:1009F000CF92DF92EF92FF920F931F93CF93DF93EB
:100A0000CDB7DEB7C558D1090FB6F894DEBF0FBE1B
:100A1000CDBFE091D50B8E2F90E0FC013197E434EF
:100A2000F10510F00C943F168827EE58FF4F8F4FBA
:100A30000C947C7081E08093230C80932C0C0E949A
:100A40005C6924E030E040E050E00E94896C8091D5
:100A5000B20C9091B30C8230910521F118F40197FA
:100A600041F02AC08330910581F084309105D1F0A6
:100A700023C080913C0C882319F083E090E00BC0E8
:100A80001092B10C1092B00C17C080913C0C8823CE
:100A9000B9F381E090E09093B10C8093B00C109288
:100AA0003C0C0AC02091290C222351F39093B10CE5
:100AB0008093B00C1092290C6115710559F077FFE5
:100AC00002C00C943F166430710514F40C94A71501
:100AD0000C943F168091F70D9091F80D039714F444
:100AE0000C94A7158091340C81110C94A7150E94C9
:100AF00013430091780C1091790C20917A0C30916D
:100B00007B0CDC01CB01801B910BA20BB30B813161
:100B10009742A105B10510F40C94A71581E08093CC
:100B20003A0C0E9413436093780C7093790C809375
:100B30007A0C90937B0C0C94A4150E94DB4D0C94C2
:100B40003F160E940F530C943F160E941C510C94A8
:100B50003F168091280C882351F08091230C882324
:100B600031F08EEF95E00E9410461092230C109207
:100B7000360CE091960CF091970C16860E945C69F9
:100B800024E030E040E050E00E94896C7093490C12
:100B90006093480C77FD0CC0623071053CF0643006
:100BA000710534F481E08093330C02C01092330C51
:100BB00080911F0E9091200EC090F60BD090F70BF5
:100BC000E090F80BF090F90B892B91F18091170EC2
:100BD0009091180E089764F120E030E04CE852E460
:100BE000C701B6010E94147087FD33C08091330C99
:100BF000882379F1E091940CF091950CEE5BFF4F16
:100C000080809180A280B380B7FAB094B7F8B09496
:100C100020E030E040E05FE3C701B6010E94C86B0E
:100C20009B01AC01C501B4010E94147087FD11C085
:100C300020E030E04CE852E4C701B6010E94147095
:100C400087FD05C08091330C81110C94AA150E9478
:100C50004828E090940CF090950C8091D60B9091E0
:100C6000D70BA091D80BB091D90BBC01CD019058F6
:100C700021ED3FE54DE75EE3A3C040E050E002C058
:100C800041E050E060E070E080EF91E40E94EF3CD2
:100C90000C943F1640E050E002C041E050E060E0BC
:100CA00070E08CE092E4F2CF40E050E002C041E01E
:100CB00050E060E070E084E392E4E8CF40E050E090
:100CC00002C041E050E060E070E080E792E4DECFF7
:100CD00040E050E002C041E050E060E070E084EBB2
:100CE00092E4D4CF40E050E002C041E050E060E048
:100CF00070E080EF92E4CACF40E050E002C041E0F3
:100D000050E060E070E086E193E4C0CF40E050E066
:100D100002C041E050E060E070E084E393E4B6CFCD
:100D200040E050E002C041E050E060E070E084EB61
:100D300093E4ACCF40E050E002C041E050E060E01E
:100D400070E080E090E4A2CF40E050E002C041E0DB
:100D500050E060E070E080E490E498CFE090940C84
:100D6000F090950C87010E5B1F4F2091040C309181
:100D7000050C4091060C5091070C6091A80C7091E5
:100D8000A90C8091AA0C9091AB0C0E94236E9B0140
:100D9000AC01F80160817181828193810E94626B54
:100DA00087FD02C00C94171621ED3FE54DE75EE389
:100DB0006091F20B7091F30B8091F40B9091F50B15
:100DC0000E94C86BF701608371838283938300E084
:100DD00010E020E030E80483158326833783DC01AC
:100DE000CB01B05880879187A287B3870C943F16B8
:100DF000E090940CF090950C87010E5B1F4F2091B2
:100E0000A80C3091A90C4091AA0C5091AB0C6091A8
:100E1000040C7091050C8091060C9091070C0E94B7
:100E2000226E9B01AC01F801608171818281938106
:100E30000E941470181614F00C94171621ED3FE55B
:100E40004DE75EE36091A40C7091A50C8091A60C17
:100E50009091A70CB5CFA090460CB090470C81E0C4
:100E600090E09093B50C8093B40C1092B70C109254
:100E7000B60C8091280C882351F08091230C882394
:100E800031F084EE93E00E94B72A1092230C8AEE90
:100E900095E00E941046C12CD12CE12CF12C870149
:100EA00020E030E040E45FEB6CE779ED80E29FEB1F
:100EB0000E94C62A8091400C9091410C813091058E
:100EC00009F07EC081E08093230C57C0A090460CAF
:100ED000B090470C83E090E09093B50C8093B40CF5
:100EE0001092B70C1092B60C8091280C882351F008
:100EF0008091230C882331F08EEE93E00E94B72A74
:100F00001092230C85ED95E00E941046C12CD12C47
:100F1000E12CF12C870120E030E040E45FE36CE756
:100F200079ED80E29FE3C4CF8091100C9091110C79
:100F3000A091120CB091130C1092B50C1092B40C3D
:100F400021E030E03093B70C2093B60CBC01CD010A
:100F50009058A12CB12CC12CD12CE12CF12C870163
:100F600020E030E040E45FEB0E94C62A8091400C14
:100F70009091410C8130910519F583E38093D50B55
:100F80000C943F166091100C7091110C8091120C12
:100F90009091130C1092B50C1092B40C23E030E039
:100FA0003093B70C2093B60CA12CB12CC12CD12CB2
:100FB000E12CF12C870120E030E040E45FE3D4CF66
:100FC000029711F00C943F160C9417160091F90D2E
:100FD0001091FA0D2091FB0D3091FC0D4091FD0D0B
:100FE0005091FE0D6091FF0D7091000E8091010EE9
:100FF0009091020E0E94092D6093FA0B7093FB0BE7
:101000008093FC0B9093FD0B00E010E020EA31E4AC
:101010000093D60B1093D70B2093D80B3093D90B9A
:1010200027ED33EB4DE55FE30E94C86B4B015C019C
:101030006093F60B7093F70B8093F80B9093F90B7A
:101040008091F90D9091FA0D079714F40C94C7153F
:101050004090080C5090090C60900A0C70900B0C9A
:10106000E091940CF091950CEA5BFF4FC080D18029
:10107000E280F38020E030E0A901C701B6010E94C0
:101080001470181624F0F7FAF094F7F8F094A7010A
:101090009601C301B2010E94236E9B01AC01C50100
:1010A000B4010E94147087FD02C00C94C7150C9403
:1010B000141600910D0E10910E0E20910F0E30910E
:1010C000100E4091110E5091120E6091130E7091FE
:1010D000140E8091150E9091160E0E94092D6093AA
:1010E000FA0B7093FB0B8093FC0B9093FD0B00E0CD
:1010F00010E020EA31E40093D60B1093D70B209335
:10110000D80B3093D90B27ED33EB4DE55FE30E940D
:10111000C86B4B015C016093F60B7093F70B8093E7
:10112000F80B9093F90B8091F90D9091FA0D0797B8
:1011300014F40C94D3154090080C5090090C609056
:101140000A0C70900B0CE091940CF091950CEA5BFA
:10115000FF4FC080D180E280F38020E030E0A90121
:10116000C701B6010E941470181624F0F7FAF09423
:10117000F7F8F094A7019601C301B2010E94236E13
:101180009B01AC01C501B4010E94147087FD02C02F
:101190000C94D3150C9414160091F90D1091FA0DBE
:1011A0002091FB0D3091FC0D4091FD0D5091FE0DF5
:1011B0006091FF0D7091000E8091010E9091020ED2
:1011C0000E94092D6B017C010091030E1091040E09
:1011D0002091050E3091060E4091070E5091080E99
:1011E0006091090E70910A0E80910B0E90910C0E79
:1011F0000E94092D4B015C01C701B6010E94786F66
:101200006B017C01C501B4010E94786F6C157D05EE
:101210000CF46B01B601DD0C880B990B0E94696B15
:101220004B015C016093F60B7093F70B8093F80B06
:101230009093F90B80E090E0A0EAB1E48093D60BA4
:101240009093D70BA093D80BB093D90B8091F90D45
:101250009091FA0D079714F40C94E3158091030E06
:101260009091040E079714F40C94E3154090080C29
:101270005090090C60900A0C70900B0CE091940C4B
:10128000F091950CEA5BFF4FC080D180E280F38043
:1012900020E030E0A901C701B6010E9414701816C1
:1012A00024F0F7FAF094F7F8F094A7019601C3013F
:1012B000B2010E94236E9B01AC01C501B4010E94E2
:1012C000147087FD02C00C94E3150C941416009161
:1012D000F90D1091FA0D2091FB0D3091FC0D40910C
:1012E000FD0D5091FE0D6091FF0D7091000E8091EB
:1012F000010E9091020E0E94092D6B017C0100915C
:101300000D0E10910E0E20910F0E3091100E409187
:10131000110E5091120E6091130E7091140E809167
:10132000150E9091160E0E94092D4B015C01C7010C
:10133000B6010E94786F6B017C01C501B4010E9467
:10134000786F6C157D050CF46B01B601DD0C880B14
:10135000990B0E94696B4B015C016093F60B7093D3
:10136000F70B8093F80B9093F90B80E090E0A0EAE4
:10137000B1E48093D60B9093D70BA093D80BB09386
:10138000D90B8091030E9091040E079714F40C94DE
:101390001A1680910D0E90910E0E079714F40C946E
:1013A0001A164090080C5090090C60900A0C70902E
:1013B0000B0CE091940CF091950CEA5BFF4FC08010
:1013C000D180E280F38020E030E0A901C701B601BE
:1013D0000E941470181624F0F7FAF094F7F8F094BD
:1013E000A7019601C301B2010E94236E9B01AC01CB
:1013F000C501B4010E94147087FD02C00C941A1636
:101400000C9414160091210E1091220E2091230E9F
:101410003091240E4091250E5091260E6091270E9A
:101420007091280E8091290E90912A0E0E94092D0C
:101430006B017C010091F90D1091FA0D2091FB0DCB
:101440003091FC0D4091FD0D5091FE0D6091FF0D0E
:101450007091000E8091010E9091020E0E94092D54
:101460004B015C01C701B6010E94786F6B017C01E2
:10147000C501B4010E94786F6C157D050CF46B01F9
:10148000B601DD0C880B990B0E94696B4B015C0166
:101490006093F60B7093F70B8093F80B9093F90B16
:1014A00080E090E0A0EAB1E48093D60B9093D70B54
:1014B000A093D80BB093D90B8091F90D9091FA0DB0
:1014C000079714F40C9425168091170E9091180E1E
:1014D000079714F40C9425164090080C5090090CB2
:1014E00060900A0C70900B0CE091940CF091950CAC
:1014F000EA5BFF4FC080D180E280F38020E030E0E3
:10150000A901C701B6010E941470181624F0F7FA59
:10151000F094F7F8F094A7019601C301B2010E947C
:10152000236E9B01AC01C501B4010E94147087FDBC
:1015300002C00C9425160C9414160091210E1091E3
:10154000220E2091230E3091240E4091250E5091B1
:10155000260E6091270E7091280E8091290E909191
:101560002A0E0E94092D6B017C0100910D0E109135
:101570000E0E20910F0E3091100E4091110E5091D1
:10158000120E6091130E7091140E8091150E9091B1
:10159000160E0E94092D4B015C01C701B6010E9485
:1015A000786F6B017C01C501B4010E94786F6C15E6
:1015B0007D050CF46B01B601DD0C880B990B0E94C4
:1015C000696B2B013C016093F60B7093F70B8093D2
:1015D000F80B9093F90B80E090E0A0EAB1E48093DF
:1015E000D60B9093D70BA093D80BB093D90B8091C7
:1015F0000D0E90910E0E079714F40C9430168091F6
:10160000170E9091180E079714F40C9430168090D2
:10161000080C9090090CA0900A0CB0900B0CE09173
:10162000940CF091950CEA5BFF4FC080D180E28072
:10163000F38020E030E0A901C701B6010E941470D8
:10164000181624F0F7FAF094F7F8F094A701960131
:10165000C501B4010E94236E9B01AC01C301B2011C
:101660000E94147087FD02C00C9430160C9414165E
:10167000A12CB12CC12CD12CE12CF12C870120E024
:1016800030E040E85FE366EA72E98BE29DE30E94A6
:10169000C62ACC24C394D12C20E030E040E85FEB94
:1016A00066EA72E98BE29DEB0E94C62A92E0C92E9F
:1016B000D12C20E030E040E85FE366EA72E98BE29B
:1016C0009DE30E94C62A23E0C22ED12C20E030E008
:1016D00040E85FEB66EA72E98BE29DEB0E94C62A66
:1016E00034E0C32ED12C20E030E040E85FE3C801B5
:1016F000B7010E94C62A8091400C9091410C059739
:1017000011F00C943F160C9417168091300C88231E
:1017100049F04090AC0C5090AD0C6090AE0C7090C5
:10172000AF0C06C0412C512C10E4612E1FE3712E2A
:101730009924939490922A0C90922B0CA12CB12C6A
:10174000C12CD12CE12CF12C8701A30192016BED6E
:101750007FE089E49FE30E94C62AA30192015058CA
:10176000CC24C394D12C6BED7FE089E49FE30E94ED
:10177000C62A8091400C9091410C029711F00C9474
:101780003F169092270C6BEC75E089E897E00E9479
:10179000F2450C9417160E9413436093880C7093C3
:1017A000890C80938A0C90938B0C81E080932A0C97
:1017B0008091560C9091570C01969093570C809302
:1017C000560C8091140C9091150C892B19F100E0A6
:1017D00010E020E030E0A90160E070E080EA91E4F0
:1017E0000E947D3A01E010E02DEC3CEC4CE45EE31D
:1017F00060E070E080E791E40E947D3A02E010E052
:1018000020E030E040E05FE360E070E080E291E4FF
:101810000E947D3A8091400C9091410C039711F009
:101820000C943F1680EC95E00E9410461092570CE5
:101830001092560C1092150C1092140C0E9448280D
:101840001092410C1092400C0C943F168091220C87
:10185000811105C081E08093220C0C943F16FF2477
:10186000F394F0922F0CCE0101960E94A02D09A1B5
:101870001AA12BA13CA14DA15EA16FA178A589A5BC
:101880009AA50E94092D6093FA0B7093FB0B80932D
:10189000FC0B9093FD0B812C912CA0EAAA2EA1E4C5
:1018A000BA2E8092D60B9092D70BA092D80BB09202
:1018B000D90B27ED33EB4DE55FE30E94C86B6093D6
:1018C000F60B7093F70B8093F80B9093F90BF09253
:1018D0002A0C8091140C9091150C892B09F100E0D1
:1018E00010E020E030E0A901C501B4010E94DD391B
:1018F00001E010E02DEC3CEC4CE45EE360E070E0D5
:1019000080E791E40E94DD3902E010E020E030E061
:1019100040E05FE360E070E080E291E40E94DD3946
:101920008091400C9091410C039711F00C94981504
:1019300085EB95E00C94881581E080932A0C20912A
:10194000AC0C3091AD0C4091AE0C5091AF0CA12C71
:10195000B12CC12CD12C1AE9E12E19E9F12E09ED97
:101960001FE362E97AE086E89FE30E94C62A80913D
:10197000AC0C9091AD0CA091AE0CB091AF0C9C0151
:10198000AD015058CC24C394D12C16E6E12EFE2C88
:1019900006EE1FE362E97AE086E89FE30E94C62A2A
:1019A0002091AC0C3091AD0C4091AE0C5091AF0C2D
:1019B000F2E0CF2ED12CE12CF12C87016BED7FE0F2
:1019C00089EC90E40E94C62A8091400C9091410CD1
:1019D000039711F00C943F160C941716FF24F39400
:1019E000F0922F0CCE0101960E94A02D09A11AA100
:1019F0002BA13CA14DA15EA16FA178A589A59AA5B7
:101A00000E94092D6093FA0B7093FB0B8093FC0BE3
:101A10009093FD0B812C912C30EAA32E31E4B32E50
:101A20008092D60B9092D70BA092D80BB092D90B84
:101A300027ED33EB4DE55FE30E94C86B6093F60B37
:101A40007093F70B8093F80B9093F90BF0922A0C9C
:101A50008091140C9091150C892B91F1F0922B0C24
:101A6000812C912CB3E3AB2EBA2CCA2CBFE3DB2E16
:101A7000E12CF12C00E01FEB2DEC3CEC4CEC5EE398
:101A800060E070E080E292E40E94092A8824839456
:101A9000912C2DEC3CEC4CEC5EE360E070E080E2DD
:101AA00092E40E94092A22E0822E912C2DEC3CEC3B
:101AB0004CEC5EE360E070E080E292E40E94092A70
:101AC0008091400C9091410C039711F00C94981563
:101AD0008AEA95E00C94881581E080932F0CCE0162
:101AE00001960E94A02D09A11AA12BA13CA14DA1F4
:101AF0005EA16FA178A589A59AA50E94092D609382
:101B0000FA0B7093FB0B8093FC0B9093FD0BC12C95
:101B1000D12CA0EAEA2EA1E4FA2EC092D60BD092E4
:101B2000D70BE092D80BF092D90B27ED33EB4DE5B4
:101B30005FE30E94C86B6093F60B7093F70B809382
:101B4000F80B9093F90B8091300C882349F0809129
:101B5000AC0C9091AD0CA091AE0CB091AF0C04C048
:101B600080E090E0A0E4BFE38093E60B9093E70B66
:101B7000A093E80BB093E90B81E080932A0C2091AD
:101B8000140C3091150C232B09F4C1C080932B0C3D
:101B90008091160C9091170C892B09F045C020916B
:101BA000E60B3091E70B4091E80B5091E90BA12C2B
:101BB000B12CC12CD12C1AE9E12E19E9F12E09ED35
:101BC0001FE362E97AE086E89FE30E94C62A8091DB
:101BD000E60B9091E70BA091E80BB091E90B9C010B
:101BE000AD015058CC24C394D12C16E6E12EFE2C26
:101BF00006EE1FE362E97AE086E89FE30E94C62AC8
:101C00008091E60B9091E70BA091E80BB091E90B66
:101C10009C01AD015058F2E0CF2ED12C62E97AE060
:101C200086E89FE30E94C62A8091160C9091170CBB
:101C30000197C1F5812C912C13E3A12EBA2CCA2C4B
:101C40001FE3D12EE12CF12C00E01FEB2DEC3CEC3E
:101C50004CEC5EE360E070E080E292E40E94092ACE
:101C600088248394912CE12CF12C00E01FE32DECCF
:101C70003CEC4CEC5EE360E070E080E292E40E94B9
:101C8000092A32E0832E912CE12CF12C00E81FE38D
:101C90002DEC3CEC4CEC5EE360E070E080E292E422
:101CA0000E94092A8091160C9091170C029779F5E1
:101CB000812C912CA12CB12C65011DECE12E1CEC8A
:101CC000F12E0CE41FE32DEC3CEC4CEC5EE360E009
:101CD00070E08CE892E40E94092A88248394912C75
:101CE0002DEC3CEC4CEC5EE360E070E08CE892E4C0
:101CF0000E94092AB2E08B2E912C2DEC3CEC4CEC8E
:101D00005EE360E070E08CE892E40E94092A809132
:101D1000400C9091410C039709F00AC78FE995E0B8
:101D2000F7C60E94903BABC781E080932F0CCE0199
:101D300001960E94A02D09A11AA12BA13CA14DA1A1
:101D40005EA16FA178A589A59AA50E94092D60932F
:101D5000FA0B7093FB0B8093FC0B9093FD0BC12C43
:101D6000D12CE0EAEE2EE1E4FE2EC092D60BD0920A
:101D7000D70BE092D80BF092D90B27ED33EB4DE562
:101D80005FE30E94C86B6093F60B7093F70B809330
:101D9000F80B9093F90B8091300C882349F08091D7
:101DA000AC0C9091AD0CA091AE0CB091AF0C04C0F6
:101DB00080E090E0A0E4BFE38093E60B9093E70B14
:101DC000A093E80BB093E90B81E080932A0C20915B
:101DD000140C3091150C232B09F4C1C080932B0CEB
:101DE0008091180C9091190C019709F045C0209131
:101DF000E60B3091E70B4091E80B5091E90BA12CD9
:101E0000B12CC12CD12C1AE9E12E19E9F12E09EDE2
:101E10001FE362E97AE086E89FE30E94C62A809188
:101E2000E60B9091E70BA091E80BB091E90B9C01B8
:101E3000AD015058CC24C394D12C16E6E12EFE2CD3
:101E400006EE1FE362E97AE086E89FE30E94C62A75
:101E50008091E60B9091E70BA091E80BB091E90B14
:101E60009C01AD01505872E0C72ED12C62E97AE096
:101E700086E89FE30E94C62A8091180C9091190C65
:101E80000297C1F5812C912C63E3A62EBA2CCA2CA3
:101E90006FE3D62EE12CF12C00E01FEB2DEC3CEC97
:101EA0004CEC5EE360E070E080E292E40E94092A7C
:101EB00088248394912CE12CF12C00E01FE32DEC7D
:101EC0003CEC4CEC5EE360E070E080E292E40E9467
:101ED000092AA2E08A2E912CE12CF12C00E81FE3C4
:101EE0002DEC3CEC4CEC5EE360E070E080E292E4D0
:101EF0000E94092A8091180C9091190C039779F58A
:101F0000812C912CA12CB12C65011DECE12E1CEC37
:101F1000F12E0CE41FE32DEC3CEC4CEC5EE360E0B6
:101F200070E08CE892E40E94092A88248394912C22
:101F30002DEC3CEC4CEC5EE360E070E08CE892E46D
:101F40000E94092A52E0852E912C2DEC3CEC4CECA1
:101F50005EE360E070E08CE892E40E94092A8091E0
:101F6000400C9091410C039709F0E2C584E995E09B
:101F7000CFC50E947E3883C60E941F3780C681E08D
:101F800080932F0CCE0101960E94A02D09A11AA1C9
:101F90002BA13CA14DA15EA16FA178A589A59AA511
:101FA0000E94092D6093FA0B7093FB0B8093FC0B3E
:101FB0009093FD0BC12CD12C20EAE22E21E4F22ECD
:101FC000C092D60BD092D70BE092D80BF092D90BDF
:101FD00027ED33EB4DE55FE30E94C86B6093F60B92
:101FE0007093F70B8093F80B9093F90B8091300C62
:101FF000882349F08091AC0C9091AD0CA091AE0C6F
:10200000B091AF0C04C080E090E0A0E4BFE3809307
:10201000E60B9093E70BA093E80BB093E90B81E0FC
:1020200080932A0C2091140C3091150C232B09F469
:10203000C1C080932B0C8091180C9091190C0197C2
:1020400009F045C02091E60B3091E70B4091E80B79
:102050005091E90BA12CB12CC12CD12C1AE9E12E05
:1020600019E9F12E09ED1FE362E97AE086E89FE3C2
:102070000E94C62A8091E60B9091E70BA091E80B95
:10208000B091E90B9C01AD015058CC24C394D12CE4
:1020900016E6E12EFE2C06EE1FE362E97AE086E802
:1020A0009FE30E94C62A8091E60B9091E70BA091D6
:1020B000E80BB091E90B9C01AD01505882E0C82EAD
:1020C000D12C62E97AE086E89FE30E94C62A8091DB
:1020D000180C9091190C0297C1F5812C912C33E3C7
:1020E000A32EBA2CCA2C3FE3D32EE12CF12C00E016
:1020F0001FEB2DEC3CEC4CEC5EE360E070E080E22A
:1021000092E40E94092A88248394912CE12CF12CDA
:1021100000E01FE32DEC3CEC4CEC5EE360E070E093
:1021200080E292E40E94092A72E0872E912CE12C31
:10213000F12C00E81FE32DEC3CEC4CEC5EE360E09E
:1021400070E080E292E40E94092A8091180C90913C
:10215000190C039779F5812C912CA12CB12C6501D8
:102160001DECE12E1CECF12E0CE41FE32DEC3CECFD
:102170004CEC5EE360E070E08CE892E40E94092A97
:1021800088248394912C2DEC3CEC4CEC5EE360E0D5
:1021900070E08CE892E40E94092A22E0822E912CC1
:1021A0002DEC3CEC4CEC5EE360E070E08CE892E4FB
:1021B0000E94092A8091400C9091410C039709F0EC
:1021C000B7C489E895E0A4C40E94C03558C50E94F0
:1021D0006E3355C50E94CB4952C50E946D484FC50C
:1021E0000E940F474CC581E080932F0CCE010196D1
:1021F0000E94A02D09A11AA12BA13CA14DA15EA175
:102200006FA178A589A59AA50E94092D6093FA0B64
:102210007093FB0B8093FC0B9093FD0BC12CD12C86
:1022200010EAE12E11E4F12EC092D60BD092D70B1A
:10223000E092D80BF092D90B27ED33EB4DE55FE33D
:102240000E94C86B6093F60B7093F70B8093F80BAA
:102250009093F90B8091300C882349F08091AC0C5D
:102260009091AD0CA091AE0CB091AF0C04C080E089
:1022700090E0A0E4BFE38093E60B9093E70BA0937C
:10228000E80BB093E90B81E080932A0C2091140CA9
:102290003091150C232B09F4C1C080932B0C809135
:1022A0001C0C90911D0C019709F045C02091E60B84
:1022B0003091E70B4091E80B5091E90BA12CB12C28
:1022C000C12CD12C1AE9E12E19E9F12E09ED1FE3F9
:1022D00062E97AE086E89FE30E94C62A8091E60BD5
:1022E0009091E70BA091E80BB091E90B9C01AD0137
:1022F0005058CC24C394D12C16E6E12EFE2C06EEC9
:102300001FE362E97AE086E89FE30E94C62A809193
:10231000E60B9091E70BA091E80BB091E90B9C01C3
:10232000AD015058B2E0CB2ED12C62E97AE086E8BC
:102330009FE30E94C62A80911C0C90911D0C02976D
:10234000C1F5812C912C23E3A22EBA2CCA2C2FE3A9
:10235000D22EE12CF12C00E01FEB2DEC3CEC4CECF0
:102360005EE360E070E080E292E40E94092A882443
:102370008394912CE12CF12C00E01FE32DEC3CEC3C
:102380004CEC5EE360E070E080E292E40E94092A97
:1023900062E0862E912CE12CF12C00E81FE32DEC5D
:1023A0003CEC4CEC5EE360E070E080E292E40E9482
:1023B000092A80911C0C90911D0C039779F5812CB2
:1023C000912CA12CB12C65011DECE12E1CECF12E01
:1023D0000CE41FE32DEC3CEC4CEC5EE360E070E0C1
:1023E0008CE892E40E94092A88248394912C2DEC95
:1023F0003CEC4CEC5EE360E070E08CE892E40E9420
:10240000092A92E0892E912C2DEC3CEC4CEC5EE3F9
:1024100060E070E08CE892E40E94092A8091400C10
:102420009091410C039709F083C38EE795E070C348
:1024300081E080932F0CCE0101960E94A02D09A16E
:102440001AA12BA13CA14DA15EA16FA178A589A5E0
:102450009AA50E94092D6093FA0B7093FB0B809351
:10246000FC0B9093FD0BC12CD12CA0EAEA2EA1E429
:10247000FA2EC092D60BD092D70BE092D80BF092E6
:10248000D90B27ED33EB4DE55FE30E94C86B6093FA
:10249000F60B7093F70B8093F80B9093F90B8091E8
:1024A000300C882349F08091AC0C9091AD0CA09138
:1024B000AE0CB091AF0C04C080E090E0A0E4BFE3AC
:1024C0008093E60B9093E70BA093E80BB093E90B96
:1024D00081E080932A0C2091140C3091150C232B51
:1024E00009F4C1C080932B0C80911C0C90911D0CA1
:1024F000019709F045C02091E60B3091E70B409120
:10250000E80B5091E90BA12CB12CC12CD12C1AE96C
:10251000E12E19E9F12E09ED1FE362E97AE086E880
:102520009FE30E94C62A8091E60B9091E70BA09151
:10253000E80BB091E90B9C01AD015058CC24C39439
:10254000D12C16E6E12EFE2C06EE1FE362E97AE0BE
:1025500086E89FE30E94C62A8091E60B9091E70BE4
:10256000A091E80BB091E90B9C01AD015058F2E04D
:10257000CF2ED12C62E97AE086E89FE30E94C62A3A
:1025800080911C0C90911D0C0297C1F5812C912C0F
:1025900013E3A12EBA2CCA2C1FE3D12EE12CF12C6F
:1025A00000E01FEB2DEC3CEC4CEC5EE360E070E0F7
:1025B00080E292E40E94092A88248394912CE12CE1
:1025C000F12C00E01FE32DEC3CEC4CEC5EE360E012
:1025D00070E080E292E40E94092A32E0832E912C7E
:1025E000E12CF12C00E81FE32DEC3CEC4CEC5EE31D
:1025F00060E070E080E292E40E94092A80911C0C65
:1026000090911D0C039779F5812C912CA12CB12C64
:1026100065011DECE12E1CECF12E0CE41FE32DEC0A
:102620003CEC4CEC5EE360E070E08CE892E40E94ED
:10263000092A88248394912C2DEC3CEC4CEC5EE32D
:1026400060E070E08CE892E40E94092AB2E08B2EF0
:10265000912C2DEC3CEC4CEC5EE360E070E08CE8FF
:1026600092E40E94092A8091400C9091410C0397BA
:1026700009F05EC283E795E04BC20E940F32FFC2B1
:1026800081E080932F0CCE0101960E94A02D09A11C
:102690001AA12BA13CA14DA15EA16FA178A589A58E
:1026A0009AA50E94092D6093FA0B7093FB0B8093FF
:1026B000FC0B9093FD0BC12CD12CE0EAEE2EE1E453
:1026C000FE2EC092D60BD092D70BE092D80BF09290
:1026D000D90B27ED33EB4DE55FE30E94C86B6093A8
:1026E000F60B7093F70B8093F80B9093F90B809196
:1026F000300C882349F08091AC0C9091AD0CA091E6
:10270000AE0CB091AF0C04C080E090E0A0E4BFE359
:102710008093E60B9093E70BA093E80BB093E90B43
:1027200081E080932A0C2091140C3091150C232BFE
:1027300009F4C1C080932B0C80911C0C90911D0C4E
:10274000019709F045C02091E60B3091E70B4091CD
:10275000E80B5091E90BA12CB12CC12CD12C1AE91A
:10276000E12E19E9F12E09ED1FE362E97AE086E82E
:102770009FE30E94C62A8091E60B9091E70BA091FF
:10278000E80BB091E90B9C01AD015058CC24C394E7
:10279000D12C16E6E12EFE2C06EE1FE362E97AE06C
:1027A00086E89FE30E94C62A8091E60B9091E70B92
:1027B000A091E80BB091E90B9C01AD01505872E07B
:1027C000C72ED12C62E97AE086E89FE30E94C62AF0
:1027D00080911C0C90911D0C0297C1F5812C912CBD
:1027E00063E3A62EBA2CCA2C6FE3D62EE12CF12C73
:1027F00000E01FEB2DEC3CEC4CEC5EE360E070E0A5
:1028000080E292E40E94092A88248394912CE12C8E
:10281000F12C00E01FE32DEC3CEC4CEC5EE360E0BF
:1028200070E080E292E40E94092AA2E08A2E912CB4
:10283000E12CF12C00E81FE32DEC3CEC4CEC5EE3CA
:1028400060E070E080E292E40E94092A80911C0C12
:1028500090911D0C039779F5812C912CA12CB12C12
:1028600065011DECE12E1CECF12E0CE41FE32DECB8
:102870003CEC4CEC5EE360E070E08CE892E40E949B
:10288000092A88248394912C2DEC3CEC4CEC5EE3DB
:1028900060E070E08CE892E40E94092A52E0852E04
:1028A000912C2DEC3CEC4CEC5EE360E070E08CE8AD
:1028B00092E40E94092A8091400C9091410C039768
:1028C00009F036C188E695E023C181E080932F0CA2
:1028D000CE0101960E94A02D09A11AA12BA13CA115
:1028E0004DA15EA16FA178A589A59AA50E94092D89
:1028F0006093FA0B7093FB0B8093FC0B9093FD0B92
:10290000C12CD12C20EAE22E21E4F22EC092D60B6B
:10291000D092D70BE092D80BF092D90B27ED33EB86
:102920004DE55FE30E94C86B6093F60B7093F70B65
:102930008093F80B9093F90B8091300C882349F029
:102940008091AC0C9091AD0CA091AE0CB091AF0CFD
:1029500004C080E090E0A0E4BFE38093E60B909396
:10296000E70BA093E80BB093E90B81E080932A0C6E
:102970002091140C3091150C232B09F4C1C08093C5
:102980002B0C80911C0C90911D0C019709F045C0F7
:102990002091E60B3091E70B4091E80B5091E90B49
:1029A000A12CB12CC12CD12C1AE9E12E19E9F12E60
:1029B00009ED1FE362E97AE086E89FE30E94C62AF8
:1029C0008091E60B9091E70BA091E80BB091E90B99
:1029D0009C01AD015058CC24C394D12C16E6E12EB5
:1029E000FE2C06EE1FE362E97AE086E89FE30E9490
:1029F000C62A8091E60B9091E70BA091E80BB0916D
:102A0000E90B9C01AD01505882E0C82ED12C62E93F
:102A10007AE086E89FE30E94C62A80911C0C909180
:102A20001D0C0297C1F5812C912C33E3A32EBA2CF7
:102A3000CA2C3FE3D32EE12CF12C00E01FEB2DEC50
:102A40003CEC4CEC5EE360E070E080E292E40E94DB
:102A5000092A88248394912CE12CF12C00E01FE3B7
:102A60002DEC3CEC4CEC5EE360E070E080E292E444
:102A70000E94092A72E0872E912CE12CF12C00E8AB
:102A80001FE32DEC3CEC4CEC5EE360E070E080E298
:102A900092E40E94092A80911C0C90911D0C0397CE
:102AA00079F5812C912CA12CB12C65011DECE12E26
:102AB0001CECF12E0CE41FE32DEC3CEC4CEC5EE343
:102AC00060E070E08CE892E40E94092A88248394F4
:102AD000912C2DEC3CEC4CEC5EE360E070E08CE87B
:102AE00092E40E94092A22E0822E912C2DEC3CECEB
:102AF0004CEC5EE360E070E08CE892E40E94092A0E
:102B00008091400C9091410C039791F48DE595E0F4
:102B10000E9410461092570C1092560C1092150CF1
:102B20001092140C0E9448281092410C1092400CF4
:102B3000CE0183589F4F0E94F144A1C080E001C0A4
:102B400081E00E94182E9BC00E94033B98C00E9407
:102B5000294B95C020E030E040EC5FE3C701B601AF
:102B60000E94066FE091940CF091950CEE5BFF4F84
:102B700020813181428153810E94626B181614F4C6
:102B80000C94270681E08093290C0C9427068091F1
:102B90002F0C882351F1E12CF12C870120E030E04B
:102BA00040E85FEB0BC080912F0C8823F1F0E12C03
:102BB000F12C870120E030E040E85FE360E070E066
:102BC00080E09FE30EC080912F0C882371F0E12CF0
:102BD000F12C00E01FE320E030E040E05FEBC801B3
:102BE000B7010E94042910922F0CC090E60BD090E0
:102BF000E70BE090E80BF090E90B0091E20B1091ED
:102C0000E30B2091E40B3091E50B4091DE0B5091EA
:102C1000DF0B6091E00B7091E10B8091940C90912F
:102C2000950C0E9423242BC081E080932F0C0E94DE
:102C3000482825C080912F0C8823B9F2E12CF12C73
:102C400000E01FE3A8019701CACF80912F0C8823D1
:102C500061F2E12CF12C00E01FEBA8019701AECF4F
:102C600080912F0C882309F2E12CF12C00E01FEB5E
:102C700020E030E040E05FE3CA01B901B2CFCB57BA
:102C8000DF4F0FB6F894DEBF0FBECDBFDF91CF91FF
:102C90001F910F91FF90EF90DF90CF90BF90AF907A
:102CA0009F908F907F906F905F904F9008954F927C
:102CB0005F926F927F928F929F92AF92BF92CF92CC
:102CC000DF92EF92FF920F931F93CF93DF93CDB7D5
:102CD000DEB764970FB6F894DEBF0FBECDBF0E947B
:102CE0001343C090910DD090920DE090930DF09011
:102CF000940DDC01CB018C199D09AE09BF098093AD
:102D0000A10D9093A20DA093A30DB093A40D49978C
:102D1000A105B10508F486C20E9413436093910D8A
:102D20007093920D8093930D9093940D8091AB0DC1
:102D30009091AC0D0E94AE244B015C010E941343A4
:102D4000C090950DD090960DE090970DF090980D55
:102D50009B01AC012C193D094E095F0988EEC82E74
:102D600083E0D82EE12CF12CC701B6010E94896CBA
:102D700080919E0490919F04D401A81BB90B0E94DE
:102D8000B36C0E94696B9B01AC010E94236E2BED1A
:102D90003FE049E450E40E94C86B20E030E040EF9F
:102DA00054E40E94066F6093430D7093440D80932A
:102DB000450D9093460D90929F0480929E040E9430
:102DC00013436093950D7093960D8093970D909398
:102DD000980D2091430D3091440D4091450D509137
:102DE000460D6091370D7091380D8091390D90919D
:102DF0003A0D00E010E00E94AA279093500D8093B6
:102E00004F0DBC018091A50D9091A60D0E94C2248A
:102E10008091AD0D9091AE0D0E94AE244B015C01EE
:102E20000E9413434090990D50909A0D60909B0D15
:102E300070909C0D9B01AC01241935094609570976
:102E4000C701B6010E94896C8091A0049091A104F1
:102E5000D401A81BB90B0E94B36C0E94696B9B0143
:102E6000AC010E94236E2BED3FE049E450E40E9448
:102E7000C86B20E030E040EF54E40E94066F60939E
:102E8000470D7093480D8093490D90934A0D909291
:102E9000A1048092A0040E9413436093990D709343
:102EA0009A0D80939B0D90939C0D2091470D30912E
:102EB000480D4091490D50914A0D60913B0D709124
:102EC0003C0D80913D0D90913E0D01E010E00E947F
:102ED000AA279093520D8093510DBC018091A70DAC
:102EE0009091A80D0E94C2248091AF0D9091B00DD9
:102EF0000E94AE244B015C010E94134340909D0D43
:102F000050909E0D60909F0D7090A00D9B01AC01A4
:102F10002419350946095709C701B6010E94896C71
:102F20008091A2049091A304D401A81BB90B0E9424
:102F3000B36C0E94696B9B01AC010E94236E2BED68
:102F40003FE049E450E40E94C86B20E030E040EFED
:102F500054E40E94066F60934B0D70934C0D809368
:102F60004D0D90934E0D9092A3048092A2040E9466
:102F7000134360939D0D70939E0D80939F0D9093CE
:102F8000A00D20914B0D30914C0D40914D0D509165
:102F90004E0D60913F0D7091400D8091410D9091CB
:102FA000420D02E010E00E94AA279093540D8093F6
:102FB000530DBC018091A90D9091AA0D0E94C224CD
:102FC000C090430DD090440DE090450DF090460D1B
:102FD00080904B0D90904C0DA0904D0DB0904E0DEB
:102FE000A5019401C701B6010E94226E20E030E0E5
:102FF00040EE5FE30E94C86B27ED33EB4DE55FE3E6
:103000000E94066F69837A838B839C836093850D0E
:103010007093860D8093870D9093880DA501940180
:10302000C701B6010E94236E4B015C01C090470DA1
:10303000D090480DE090490DF0904A0DA7019601FF
:10304000C701B6010E94236E9B01AC01C501B4010A
:103050000E94226E20E030E040E650E40E94C86BFF
:1030600020E030E040E450E40E94066F6D837E83F0
:103070008F8398876093890D70938A0D80938B0D51
:1030800090938C0DA7019601C501B4010E94236E97
:1030900020E030E040E650E40E94C86B20E030E0E1
:1030A00040E450E40E94066F20E030E040E85DE339
:1030B0000E94C86B6D877E878F87988B60938D0D7C
:1030C00070938E0D80938F0D9093900D4090810D95
:1030D0005090820D6090830D7090840DC301B201F9
:1030E0000E94016F69877A878B879C87C301B20131
:1030F0000E9421704B015C016091A10D7091A20DA5
:103100008091A30D9091A40D0E94676B6B017C01CF
:1031100029813A814B815C8169857A858B859C8583
:103120000E94C86B698B7A8B8B8B9C8B2D813E8127
:103130004F815885C501B4010E94C86B9B01AC0149
:1031400069897A898B899C890E94226EA7019601E0
:103150000E94C86B20E030E04AE754E40E94066F0A
:103160002091790D30917A0D40917B0D50917C0D1D
:103170000E94236E6093790D70937A0D80937B0D7E
:1031800090937C0D29813A814B815C81C501B4010A
:103190000E94C86B4B015C012D813E814F81588597
:1031A00069857A858B859C850E94C86B9B01AC01E3
:1031B000C501B4010E94236EA70196010E94C86B4D
:1031C00020E030E04AE754E40E94066F20917D0D34
:1031D00030917E0D40917F0D5091800D0E94236EA5
:1031E00060937D0D70937E0D80937F0D9093800D85
:1031F0002D853E854F855889C701B6010E94C86B51
:1032000020E030E04AE754E40E94066FA3019201F7
:103210000E94236E6093810D7093820D8093830DC5
:103220009093840D64960FB6F894DEBF0FBECDBFA9
:10323000DF91CF911F910F91FF90EF90DF90CF9092
:10324000BF90AF909F908F907F906F905F904F90C6
:103250000895CF93DF932091E50A222349F1EC01F1
:103260001092E50A9093B0078093AF0761E276E091
:1032700089E897E00E94F245AE01DD0F660B770BFF
:1032800077FF05C089E897E00E94EC2605C02AE098
:1032900089E897E00E94A6556AE076E089E897E021
:1032A0000E94F24588E096E0DF91CF910C941046A1
:1032B000DF91CF9108954F925F926F927F928F929C
:1032C0009F92AF92BF92CF92DF92EF92FF92CF93F5
:1032D000DF93CDB7DEB72E970FB6F894DEBF0FBEE3
:1032E000CDBF8BED9DE00E94481F892B09F479C367
:1032F0000E94EE1F2B013C010E94EE1F4B015C015E
:103300000E94EE1F6B017C010E94EE1F6B877C8781
:103310008D879E878BED9DE00E94601F0A9709F0C4
:1033200060C35092FA0D4092F90D9092040E809273
:10333000030ED0920E0EC0920D0E8B859C8590933D
:10334000180E8093170E8091E8049091E904892B60
:1033500009F45AC10E944D208091770E9091780E09
:10336000892B21F01092780E1092770E81E00E9446
:103370008E208091C80C9091C90C8230910509F47F
:10338000CCC00CF055C0009709F45EC0019709F05D
:1033900038C183E090E09093F80D8093F70D809111
:1033A000490E90914A0E9A8389831B821C821D824A
:1033B0001E8280914F0E9091500E98878F8380913E
:1033C000510E9091520E9A878987CE0101960E94E4
:1033D00074228091530E9091540E9A8389831B829C
:1033E0001C821D821E828091590E90915A0E9887E0
:1033F0008F8380915B0E90915C0E9A878987CE01B6
:1034000001960E94742280915D0E90915E0E9A83C7
:1034100089831B821C821D821E828091630E909183
:10342000640E98878F838091650E9091660EC2C05E
:103430008330910509F4A4C0049709F0E2C010920A
:10344000F80D1092F70DDDC084E090E09093F80D38
:103450008093F70D8091490E90914A0E9A8389834B
:103460001B821C821D821E8280914F0E9091500EF5
:1034700098878F838091510E9091520E9A878987F9
:10348000CE0101960E9474228091530E9091540EA9
:103490009A8389831B821C821D821E828091590E11
:1034A00090915A0E98878F8380915B0E90915C0E5D
:1034B0009A878987CE0101960E94742280915D0EC1
:1034C00090915E0E9A8389831B821C821D821E82CC
:1034D0008091630E9091640E98878F838091650E22
:1034E0009091660E9A878987CE0101960E94742278
:1034F0008091670E9091680E9A8389831B821C824B
:103500001D821E8280916D0E90916E0E98878F8322
:1035100080916F0E9091700E4DC09093F80D809336
:10352000F70D8091490E90914A0E9A8389831B82F0
:103530001C821D821E8280914F0E9091500E9887A2
:103540008F838091510E9091520E9A878987CE0178
:1035500001960E9474228091530E9091540E9A838A
:1035600089831B821C821D821E828091590E90913C
:103570005A0E98878F8380915B0E90915C0E1AC0D3
:1035800081E090E09093F80D8093F70D8091490EC3
:1035900090914A0E9A8389831B821C821D821E820F
:1035A00080914F0E9091500E98878F838091510E8D
:1035B0009091520E9A878987CE0101960E947422BB
:1035C00020C0F90132974330510509F46FC032979A
:1035D00008F089C0E091450EF091460E349709F04D
:1035E00095C083E090E09093720E8093710E0E94DC
:1035F00013436093EB0C7093EC0C8093ED0C909361
:10360000EE0C0E947F21EDC10E944D2080E00E94BF
:103610008E208091290E90912A0E6091330E709128
:10362000340E20913D0E30913E0E8617970731F4EF
:103630008217930719F022E030E017C08217930732
:1036400031F48617970761F023E030E00EC086174B
:10365000970779F06217730731F424E030E005C072
:1036600025E030E002C021E030E030937B0E209373
:103670007A0E4091710E5091720E5093F40C40935B
:10368000F30C2091F90D3091FA0D263031051CF420
:1036900081E090E08BC12091C80C3091C90C24309E
:1036A000310509F08ECF82E090E080C1329790F032
:1036B000E091010EF091020E32975CF5E0910B0E55
:1036C000F0910C0E32972CF5E091150EF091160E3C
:1036D0003297FCF4E091450EF091460E3497C9F410
:1036E00083E090E063C1E091010EF091020E339708
:1036F0006CF4E0910B0EF0910C0E33973CF4E091DA
:10370000150EF091160E33970CF464CF443051052A
:10371000A9F121303105E1F0E091010EF091020EA6
:1037200033970CF454C0E0910B0EF0910C0E3397CC
:103730000CF44DC0E091150EF091160E33970CF479
:1037400046C0E0911F0EF091200E33970CF03FC061
:10375000E091270EF091280EE430F105C1F5F093C9
:10376000720EE093710E0E9413436093EF0C7093FE
:10377000F00C8093F10C9093F20C43CF2130310583
:10378000D1F0E091010EF091020E33970CF44AC093
:10379000E0910B0EF0910C0E33970CF443C0E091C6
:1037A000150EF091160E3397ECF1E0911F0EF0918B
:1037B000200E3397BCF5E091270EF091280EE430EF
:1037C000F10581F5F093720EE093710E1ACF41303E
:1037D0005105C9F4121613063CF02115310511F5F7
:1037E000FC0132973497F0F021E030E03093720E14
:1037F0002093710E029724F481E08093CD0C01CFC9
:103800001092CD0CFECE4330510561F41216130612
:103810000CF466CF2115310529F4FC013297369757
:1038200008F05ECFE091CE0CEE2389F0121613065D
:10383000DCF2232B79F59C01225031092930310526
:1038400098F6625071096930710508F1CDCF4130A9
:10385000510501F1121613062CF0232BD9F402970F
:103860000497C0F081E090E09093720E8093710E07
:103870000E9413436093E70C7093E80C8093E90C6B
:103880009093EA0C8091290E90912A0EB3CF41308B
:10389000510529F78091270E9091280E81309105CE
:1038A000B9F46091310E7091320E6230710561F59C
:1038B00020912B0E30912C0EE091210EF091220ED2
:1038C0002E1B3F0B2A303105FCF486E090E06EC0E1
:1038D00082309105D1F38330910509F07FC060916A
:1038E000310E7091320E6230710591F420912B0EE1
:1038F00030912C0EE091210EF091220E2E1B3F0BE9
:103900002A3031052CF4E1CF63307105A1F403C0F6
:103910006130710559F520912B0E30912C0E60917C
:10392000210E7091220E261B370B2A3031056CF2C6
:1039300081309105C1F48091310E9091320E039740
:1039400051F580912B0E90912C0E2091210E3091EB
:10395000220E821B930B4097F4F44A305105D9F4A0
:103960008AE090E023C083309105C1F48091310E4C
:103970009091320E0197A1F780912B0E90912C0E11
:103980002091210E3091220E821B930B409744F719
:103990004730510529F787E090E008C08430910551
:1039A000C9F44130510539F485E090E09093720EEE
:1039B0008093710E26CE8091310E9091320E81301F
:1039C000910549F38230910509F47FCF039709F0FF
:1039D00018CEC6CF029709F014CE77CF049709F31B
:1039E00010CE2E960FB6F894DEBF0FBECDBFDF917E
:1039F000CF91FF90EF90DF90CF90BF90AF909F90CE
:103A00008F907F906F905F904F900895DC01ED91C3
:103A1000FD918081ED91FD919081ED91FD916C91F1
:103A200063708E2309F064609F2309F06860E3E20D
:103A3000FDE1E60FF11D659565956D936D917D91A5
:103A40008D919D91099423C01AC012C016C010C058
:103A50001EC009C014C013C006C019C009C00DC0E3
:103A600007C00DC014C062507040804090400BC031
:103A7000615070408040904006C06E5F01C06F5F33
:103A80007F4F8F4F9F4F9E938E937E936E9308959B
:103A900080919C0490919D040C94061D80919A0441
:103AA00090919B040C94061D809198049091990428
:103AB0000C94061D80919604909197040C94061D19
:103AC00080919404909195040C94061D8091920429
:103AD000909193040C94061D4AE0489FF001499F81
:103AE000F00D1124E950F24F2281338101962830E4
:103AF000310554F4489FF001499FF00D1124E9501D
:103B0000F24F118210820895B90168507109653031
:103B1000710550F4489FF001499FF00D1124E950C0
:103B2000F24F81E090E0CEC0B9016D50710968306C
:103B3000710550F4489FF001499FF00D1124E950A0
:103B4000F24F82E090E0BEC0B90165517109653065
:103B5000710550F4489FF001499FF00D1124E95080
:103B6000F24F83E090E0AEC0B9016A5171096A304A
:103B7000710550F4489FF001499FF00D1124E95060
:103B8000F24F84E090E09EC0B901645271096B313C
:103B9000710550F4489FF001499FF00D1124E95040
:103BA000F24F85E090E08EC0B9016F537109623128
:103BB000710550F4489FF001499FF00D1124E95020
:103BC000F24F86E090E07EC0B901615571096A301C
:103BD000710550F4489FF001499FF00D1124E95000
:103BE000F24F87E090E06EC0B9016B557109643106
:103BF000710550F4489FF001499FF00D1124E950E0
:103C0000F24F88E090E05EC0A9014F56510944315F
:103C1000510558F42AE0289FF001299FF00D112446
:103C2000E950F24F89E090E04DC0A9014358510995
:103C30004E31510558F42AE0289FF001299FF00DDC
:103C40001124E950F24F8AE090E03CC0A901415AAA
:103C500051094931510558F42AE0289FF001299F64
:103C6000F00D1124E950F24F8BE090E02BC0A90138
:103C70004A5B51094F30510558F42AE0289FF00162
:103C8000299FF00D1124E950F24F8CE090E01AC00A
:103C9000295C31092233310558F42AE0289FF001CC
:103CA000299FF00D1124E950F24F8DE090E00AC0F9
:103CB0002AE0289FF001299FF00D1124E950F24FCE
:103CC0008EE090E09183808308952F923F924F92EF
:103CD0005F926F927F928F929F92AF92BF92CF929C
:103CE000DF92EF92FF920F931F93CF93DF9300D059
:103CF0001F921F92CDB7DEB78B014B836B019C01E6
:103D0000285F3F4FFB01DC014D915D91CD01419357
:103D10005193A217B307B9F7F8013296FA83E983F2
:103D2000E12CF12CA981BA812D903D90BA83A98311
:103D3000B2E0CB0ED11CB101032C000C880B990B07
:103D40000E94696B2B013C01EB81FD82EC825601E4
:103D5000E1112CC0D5019E908E905D01B401092C1B
:103D6000000C880B990B0E94696B9B01AC01C3018D
:103D7000B2010E94626B87FF2CC0F50193828282A0
:103D80008C819D8101979D838C83019619F7EFEFBC
:103D9000FFEFFD83EC831DC0F501938282828C814D
:103DA0009D8101979D838C83019689F3D5019E9017
:103DB0008E905D01B401092C000C880B990B0E94B8
:103DC000696B9B01AC01C301B2010E94147018160B
:103DD0001CF3EC81FD813196EE0FFF1FE00FF11F08
:103DE00031822082FFEFEF1AFF0A23E0E216F1048E
:103DF00009F098CFC8010F900F900F900F900F907F
:103E0000DF91CF911F910F91FF90EF90DF90CF90B6
:103E1000BF90AF909F908F907F906F905F904F90EA
:103E20003F902F900895DC015196ED91FC915297AF
:103E3000908150968C91809589238083089520915C
:103E4000A6043091A7042817390781F49091A5049E
:103E50008091A404981751F0E091A504F0E0E85592
:103E6000FB4F8081082E000C990B08958FEF9FEF78
:103E700008952091A6043091A7042817390739F432
:103E80008FB7F8941092A4041092A5048FBF0895E0
:103E90002091A6043091A7042817390771F4809166
:103EA000A4042091A50490E0805C9F4F821B91099F
:103EB00060E470E00E946870089580E090E00895EA
:103EC0002091A6043091A70428173907B9F49091DE
:103ED000A5048091A404981789F0E091A504F0E06E
:103EE000E855FB4F80812091A50430E02F5F3F4FC4
:103EF0002F7333272093A50490E008958FEF9FEF51
:103F000008950F931F930E9413436093E30D7093E2
:103F1000E40D8093E50D9093E60D8BED9DE00E94FE
:103F20001F1F97FF1FC00E9413430091E30D1091C4
:103F3000E40D2091E50D3091E60DDC01CB01801BF5
:103F4000910BA20BB30B0091DF0D1091E00D2091AE
:103F5000E10D3091E20D80179107A207B307E8F257
:103F60008FEF9FEF1F910F910895CF93DF93D09123
:103F7000730EC091740E9093760E8093750E2AE0A6
:103F8000AC01249FC001259F900D11240E94EC6C70
:103F90008093730E9093740E4D2F5C2F9C0180E0E4
:103FA00090E06091770E7091780E8617970780F4F5
:103FB0002115310539F06AE0FA01D90101900D921D
:103FC0006A95E1F70196465F5F4F265F3F4FE9CF65
:103FD0008D2F9C2FDF91CF910C94846DCF92DF9227
:103FE000EF92FF92CF930E94811FFC0197FD0BC0BF
:103FF0008D32910561F0C0970A9748F08BED9DE0F6
:104000000E94601FF0CF60E070E0CB0140C0C12C87
:10401000D12C7601C0E0E130F10501F1ED32F1057E
:10402000E1F0CF01C0970A97C8F4AAE0B0E0A70179
:1040300096010E94A86C6F01FF0FEE08FF08DC01DB
:10404000CB018C0D9D1DAE1DBF1D6C017D0120E3BC
:10405000C21AD108E108F10801C0C1E08BED9DE072
:104060000E94601F0E94811FFC01C0970A9798F26E
:10407000E130F10581F2CC2341F066277727CB01AF
:104080006C197D098E099F0902C0C701B601CF9145
:10409000FF90EF90DF90CF9008951092C90C10928E
:1040A000C80C81E090E09093000E8093FF0D82E0B9
:1040B00090E090930A0E8093090E83E090E0909335
:1040C000140E8093130E84E090E090931E0E809364
:1040D0001D0E80E090E00E946C1D81E090E00E9447
:1040E0006C1D82E090E00E946C1D83E090E00E94D5
:1040F0006C1D8091C80C9091C90CE7EFFDE0228502
:104100003385232B09F401963A962EE0EF31F2071E
:10411000B1F79093C90C8093C80C08958F929F9229
:10412000AF92BF92DF92EF92FF920F931F93CF93C4
:10413000DF93CDB7DEB760970FB6F894DEBF0FBE42
:10414000CDBFD82E8091F90D9091FA0D9A8789876D
:104150008091030E9091040E9C878B8780910D0EA9
:1041600090910E0E9E878D878091170E9091180E5C
:10417000988B8F87D1100FC040E0BE016F5F7F4FDB
:10418000CE0109960E94651ECE010196E1E2FEE095
:1041900020E03AE002C041E0F0CFDC016D917D917A
:1041A000CD01A7EFBDE040E050E01296AD90BC908D
:1041B00013978A010F5F1F4F78016A157B0509F07D
:1041C00080C0D1103EC071836083211117C0149646
:1041D0008D909D90AD90BC90179782829382A4821F
:1041E000B58218964D915C911997578346831A961C
:1041F0004D915C911B97518740873DC0349FD00102
:10420000359FB00D1124A950B24F14964D915D9178
:104210006D917C91179742835383648375831896BD
:104220004D915C91199757834683309FD001319F00
:10423000B00D1124A950B24F4D915C915187408728
:104240003EC071A760A7211118C014968D909D9053
:10425000AD90BC90179782A693A6A4A6B5A6189673
:104260004D915C91199757A746A71A964D915C916D
:104270001B9751AB40AB21E024C0349FD001359F48
:10428000B00D1124A950B24F14964D915D916D91CE
:104290007C91179742A753A764A775A718964D91CD
:1042A0005C91199757A746A7309FD001319FB00D59
:1042B0001124A950B24F4D915C9151AB40AB20E01D
:1042C00006C0A7011A964430510509F06ECF3A9600
:1042D0001EE0E934F10709F060CF60960FB6F8945C
:1042E000DEBF0FBECDBFDF91CF911F910F91FF9029
:1042F000EF90DF90BF90AF909F908F900895CF93F5
:10430000DF938091F90D9091FA0DC091030ED09139
:10431000040E863091054CF41092FB0D1092FC0DAA
:104320001092FD0D1092FE0D2CC08630910529F4DF
:1043300080E090E0A0E0BFE306C0079769F480E06A
:1043400090E0A0E0B0E48093FB0D9093FC0DA0936F
:10435000FD0DB093FE0D15C0BE010D2E000C880B97
:10436000990B0E94696B2CE53FE842E250E40E9401
:10437000C86B6093FB0D7093FC0D8093FD0D9093C3
:10438000FE0DC630D1054CF41092050E1092060EAB
:104390001092070E1092080E2CC0C630D10529F4D9
:1043A00080E090E0A0E0BFE307C0C730D10569F42A
:1043B00080E090E0A0E0B0E48093050E9093060EBC
:1043C000A093070EB093080E14C0BE01DD0F880B3A
:1043D000990B0E94696B2CE53FE842E250E40E9491
:1043E000C86B6093050E7093060E8093070E909332
:1043F000080E60910D0E70910E0E663071054CF432
:1044000010920F0E1092100E1092110E1092120EAA
:104410002CC06630710529F480E090E0A0E0BFE395
:1044200007C06730710569F480E090E0A0E0B0E477
:1044300080930F0E9093100EA093110EB093120E56
:1044400014C0072E000C880B990B0E94696B2CE599
:104450003FE842E250E40E94C86B60930F0E7093F5
:10446000100E8093110E9093120E6091170E7091A2
:10447000180E663071054CF41092190E10921A0E37
:1044800010921B0E10921C0E2CC06630710529F480
:1044900080E090E0A0E0BFE307C06730710569F4F9
:1044A00080E090E0A0E0B0E48093190E90931A0EA3
:1044B000A0931B0EB0931C0E14C0072E000C880B8B
:1044C000990B0E94696B2CE53FE842E250E40E94A0
:1044D000C86B6093190E70931A0E80931B0E909305
:1044E0001C0EDF91CF9108950F931F93CF93DF930D
:1044F0002091770E3091780EE90121962C173D0717
:1045000098F58C014091750E5091760E4C175D0711
:1045100038F4C90109964817590710F40E94B51FCD
:104520008091770E9091780E2AE0289FB001299F04
:10453000700D112440E050E08C179D07C0F4A0914D
:10454000730EB091740E9B01240F351FA20FB31F81
:10455000109731F02AE0F80101900D922A95E1F7C9
:104560000196465F5F4FE8CFC217D30720F4D09380
:10457000780EC093770EDF91CF911F910F91089520
:1045800020E001972FEF8F3F9207D9F70895DF9230
:10459000EF92FF920F931F93CF93DF93EC01298D3E
:1045A0003A8D2115310529F481E090E09B838A83BF
:1045B0005AC0162FDFB6F8948B8D81FD4DC0CE0109
:1045C0000E94131F898D9A8D05960E94C0228B8DA3
:1045D00098E0E92EF12C01E081FF1AC0812F8023A1
:1045E00021F0CE010E94131F06C0E989FA8990814B
:1045F0008889892B8083898D9A8D0E94C022000F23
:1046000081E0E81AF10851F7CE010E94131F1CC087
:10461000812F802339F0E989FA8990818889892B53
:10462000808303C0CE010E94131F898D9A8D0E9442
:10463000C022000F81E0E81AF10851F7E989FA89F0
:1046400090818889892B8083DFBE898D9A8D0E9415
:10465000C02221E030E007C0E989FA899081888989
:10466000892B8083AFCFC901DF91CF911F910F912B
:10467000FF90EF90DF9008951F920F920FB60F9268
:1046800011240BB60F92EF92FF920F931F932F936B
:104690003F934F935F936F937F938F939F93AF93CA
:1046A000BF93CF93DF93EF93FF93C091A604D09174
:1046B000A704209709F450C09B8DEE85FF858D855A
:1046C00091FF04C09081892329F446C090818923F9
:1046D00009F042C08B899C890E94C02288E0E82EA4
:1046E000F12C10E001E08D899E890E94C022EE85A8
:1046F000FF8590818D85892311F0102B03C0802FB9
:1047000080951823000F81E0E81AF10861F78F897E
:10471000988D0E94C0228B8D81FD10958091A404FC
:104720002091A50490E001968F73992730E08217BD
:10473000930779F0E091A404F0E0E855FB4F108373
:104740008091A40490E001968F7399278093A4042C
:1047500003C08B8D81608B8FFF91EF91DF91CF91A3
:10476000BF91AF919F918F917F916F915F914F9189
:104770003F912F911F910F91FF90EF900F900BBEE3
:104780000F900FBE0F901F9018951F920F920FB6AB
:104790000F9211240BB60F922F933F934F935F9379
:1047A0006F937F938F939F93AF93BF93EF93FF93F9
:1047B0000E943C23FF91EF91BF91AF919F918F9108
:1047C0007F916F915F914F913F912F910F900BBE11
:1047D0000F900FBE0F901F9018951F920F920FB65B
:1047E0000F9211240BB60F922F933F934F935F9329
:1047F0006F937F938F939F93AF93BF93EF93FF93A9
:104800000E943C23FF91EF91BF91AF919F918F91B7
:104810007F916F915F914F913F912F910F900BBEC0
:104820000F900FBE0F901F901895FC0112A613A6B3
:1048300014A615A616A617A610AA11AA12AA13AA9C
:1048400014AA15AA08954F925F926F927F928F9249
:104850009F92AF92BF92CF92DF92EF92FF920F930F
:104860001F93CF93DF9300D000D0CDB7DEB79E83E8
:104870008D834A015B0109831A832B833C8325E2E4
:1048800039E442E15EE3C501B4010E94C86B2B012B
:104890003C0121ED3FE54DE75EE369817A818B8143
:1048A0009C810E94C86B69837A838B839C8325E2F9
:1048B00039E442E950ECC701B6010E94C86B6B01B4
:1048C0007C0129813A814B815C81C301B2010E9444
:1048D000236EA70196010E94236EED81FE81608305
:1048E00071838283938325E239E442E95EEBC5015B
:1048F000B4010E94C86BA70196010E94236EED814E
:10490000FE81648375838683978329813A814B81F5
:104910005C81C301B2010E94226EA70196010E9430
:10492000236EED81FE81608771878287938726964B
:104930000FB6F894DEBF0FBECDBFDF91CF911F91B0
:104940000F91FF90EF90DF90CF90BF90AF909F902E
:104950008F907F906F905F904F900895CF93DF93EB
:10496000EC018B85823028F4F894CE010E94061D5C
:1049700001C0F8946F81788589859A857894DF9154
:10498000CF9108950F931F93CF93DF938C0177FFFF
:1049900005C071956195710981E001C080E0EB016E
:1049A0006F3F710519F014F0CFEFD0E0811102C014
:1049B00060E001C061E0F80180810E943842F801A6
:1049C000118161E0812F0E94B242209709F4A7C0B3
:1049D000CF3FD10509F4A5C0E12FF0E0E45DF94F28
:1049E000E4918E2F90E0FC013197E131F10508F060
:1049F00093C08827EA54FF4F8F4F0C947C7084B586
:104A0000806884BDC7BD95C084B5806284BDC8BDC3
:104A100090C080918000806880938000D09389004E
:104A2000C093880086C0809180008062809380005F
:104A3000D0938B00C0938A007CC08091B0008068C6
:104A40008093B000C093B30074C08091B0008062C6
:104A50008093B000C093B4006CC0809190008068D7
:104A600080939000D0939900C093980062C0809189
:104A70009000806280939000D0939B00C0939A0036
:104A800058C080919000886080939000D0939D00E2
:104A9000C0939C004EC08091A00080688093A000CD
:104AA0008091A0008F7B8093A000D093A900C09339
:104AB000A8003FC08091A00080628093A000D093A6
:104AC000AB00C093AA0035C08091A000886080939D
:104AD000A000D093AD00C093AC002BC0809120010A
:104AE000806880932001D0932901C093280121C0C0
:104AF00080912001806280932001D0932B01C0938C
:104B00002A0117C080912001886080932001D093F2
:104B10002D01C0932C010DC0C038D10514F460E004
:104B200001C061E0812FDF91CF911F910F910C9413
:104B30003842DF91CF911F910F910895CF93DF936A
:104B4000EC01FC01E259FF4F60E070E0808191814F
:104B50000E94C224FE01E059FF4F60E070E08081B6
:104B600091810E94C224FE01EE58FF4F60E070E088
:104B7000808191810E94C224FE01CE010C96148690
:104B80001586168617861192119211921192E817C6
:104B9000F907A9F7DF91CF910895CF93DF93EC0147
:104BA000FC01E259FF4F60E070E0808191810E943A
:104BB000C224FE01E059FF4F60E070E080819181E6
:104BC0000E94C224FE01EE58FF4F60E070E0808139
:104BD00091810E94C224FE01CE010C961486158696
:104BE00016861786119211921192119216A217A28F
:104BF00010A611A6E817F90789F7FE01EE5BFF4F33
:104C000010821182128213823496108211821282D3
:104C1000138234961082118212821382349610828B
:104C200011821282138234961082118212821382B0
:104C3000CA5ADF4F188219821A821B82DF91CF91E4
:104C40000895CF92DF92EF92FF920F931F93CF932D
:104C5000DF93CDB7DEB729970FB6F894DEBF0FBE4E
:104C6000CDBF8C01DC0151968D919C915297892B7F
:104C700009F4A3C00E94EE42F801C788D08CE18CF1
:104C8000F28CDC01CB018C199D09AE09BF098C3275
:104C90009140A105B10570F3F894D8011C968D914F
:104CA0009C911D979A8389835196ED91FC9152971F
:104CB0007F01BFEFEB1AFB0A80818987F80194819D
:104CC000038CF48DE02DD8015D968C91992309F425
:104CD00030C09081982B98879081809589238F830D
:104CE0008F818C8388E08B8358856F8149853B81D8
:104CF0002C8189819A81D701508347FD252F3A95D0
:104D00002083262F39F0441F00C00000608300007C
:104D100000C0F2CF38E04D9160830000019761F749
:104D2000D8015C96FC93EE935B9749873B832C8379
:104D30003AC09081982B98879081809589238F83A2
:104D40008F818E8388E08D8358856F8149853D8171
:104D50002E8189819A81D701508347FD252F00C07C
:104D600000C0208300C000C000C000C000C060833D
:104D70000000262F3A9541F0441F000000C000C0FB
:104D800000C000C000C0E8CF38E04D9100C0608393
:104D900000C0019709F7D8015C96FC93EE935B97EE
:104DA00049873D832E839A83898378940E94EE42BB
:104DB000F801678B708F818F928F29960FB6F894C8
:104DC000DEBF0FBECDBFDF91CF911F910F91FF903E
:104DD000EF90DF90CF900895CF92DF92EF92FF9205
:104DE0000F931F93CF93DF93EC016A017B016DE278
:104DF0000E948A558C0144275527BA014C195D0938
:104E00006E097F092AE0CE010E94A655800F911FEE
:104E1000DF91CF911F910F91FF90EF90DF90CF9096
:104E200008954F925F926F927F928F929F92AF926E
:104E3000BF92CF92DF92EF92FF920F931F932B01BD
:104E40003C0149015A01670178016EE177E089E888
:104E500097E00E94F24542E0C301B2010E94294658
:104E60006CE177E089E897E00E94F2456AE077E03C
:104E700089E897E00E94F24542E0C501B4010E9432
:104E8000294668E077E089E897E00E94F24566EFFE
:104E900076E089E897E00E94F24542E0C701B6015A
:104EA0000E94294684EF96E01F910F91FF90EF90AA
:104EB000DF90CF90BF90AF909F908F907F906F903A
:104EC0005F904F900C941046CF93DF93EC0164ED0C
:104ED00073E00E94126E892B19F46EED76E031C0FA
:104EE0006CE772E0CE010E94126E892B19F46AEC15
:104EF00076E027C064E772E0CE010E94126E892B33
:104F000019F465EB76E01DC062E872E0CE010E9404
:104F1000126E892B19F46CE976E013C067E173E037
:104F2000CE010E94126E892B19F46FE776E009C05A
:104F300069ED73E0CE010E94126E892B41F462E7A5
:104F400076E089E897E0DF91CF910C94F245DF910C
:104F5000CF9108958F929F92AF92BF92CF92DF929E
:104F6000EF92FF920F931F93CF93DF930E94226ED5
:104F70006B017C012091710D3091720D4091730D88
:104F80005091740D0E94C86BE801CC0FDD1FCC0F4F
:104F9000DD1F8E01095C124FF80122A533A544A53F
:104FA00055A50E94236E4B015C0120E030E04FE7E5
:104FB00053E40E94147018162CF480E090E0AFE7E0
:104FC000B3E414C020E030E04FE753ECC501B40176
:104FD0000E94626B87FD06C0F80182A693A6A4A674
:104FE000B5A609C080E090E0AFE7B3ECF80182A776
:104FF00093A7A4A7B5A720916D0D30916E0D409198
:105000006F0D5091700DC701B6010E94C86BC95C4D
:10501000D24F2AA53BA54CA55DA50E94236E4B014E
:105020005C012E8D3F8D48A159A1C701B6010E9498
:10503000226E2091750D3091760D4091770D509133
:10504000780D0E94C86B9B01AC01C501B4010E94A0
:10505000236ECE8EDF8EE8A2F9A20E94786F6F3F9A
:10506000710519F014F06FEF70E0CB0161307F4FE4
:1050700014F481E09FEFDF91CF911F910F91FF908A
:10508000EF90DF90CF90BF90AF909F908F9008955A
:1050900020912D0C8091940C9091950C211129C098
:1050A00020912C0C21114BC00E94CD2510922B0C6D
:1050B0008091270C882371F01092410C1092400CC3
:1050C00010922A0C81E08093320C1092D50B109232
:1050D000270C08958091260C882309F494C08091B0
:1050E000400C9091410C01969093410C8093400CA0
:1050F00008952091310C1092410C1092400C222303
:1051000089F00E94CD251092360C1092310C10922D
:10511000350C86E28093D50BE091960CF091970CBC
:10512000168608950E949E251092360CE091960CEA
:10513000F091970C168610923D0C86E262C0109298
:10514000410C1092400C2091380C21110DC020917F
:10515000D50B322F3F7E3550323018F02951223096
:1051600018F40E949E2502C00E94CD258091940CC7
:105170009091950C0E9415248091940C9091950C1F
:10518000FC01E65BFF4F1082118212821382389776
:10519000108211821282138234961082118212823E
:1051A00013828091380C882319F01092380C28C093
:1051B0008091390C882319F01092390C21C080910C
:1051C0003A0C882369F00E9413436093580C709343
:1051D000590C80935A0C90935B0C10923A0C04C0BB
:1051E00080913B0C882311F087E20BC08091370C33
:1051F000882331F081E08093D50B1092370C08950D
:1052000085E28093D50B08954F925F926F927F92C3
:105210008F929F92AF92BF92CF92DF92EF92FF92C6
:105220000F931F932B013C0149015A01670178013B
:1052300020E030E0A901C501B4010E94626B811138
:1052400022C020E030E0A901C701B6010E94626BD4
:10525000811119C01092DE0B1092DF0B1092E00B3F
:105260001092E10B1092E20B1092E30B1092E40B00
:105270001092E50B1092E60B1092E70B1092E80BE0
:105280001092E90B6CC0A5019401C701B6010E9400
:10529000A26E6B017C010E94016FA30192010E942A
:1052A000C86B4B015C016093DE0B7093DF0B809346
:1052B000E00B9093E10BC701B6010E9421709B01A6
:1052C000AC01C301B2010E94C86B6B017C01609309
:1052D000E20B7093E30B8093E40B9093E50B109239
:1052E000E60B1092E70B1092E80B1092E90B2AE004
:1052F00037ED43E25CE3C501B4010E94626B87FFB6
:1053000012C02AE037ED43E25CEBC501B4010E9414
:105310001470181644F41092DE0B1092DF0B1092EA
:10532000E00B1092E10B2AE037ED43E25CE3C701AA
:10533000B6010E94626B87FF12C02AE037ED43E29C
:105340005CEBC701B6010E941470181644F4109269
:10535000E20B1092E30B1092E40B1092E50B80919C
:105360002C0C8823D9F020E030E040E752E4609133
:10537000DE0B7091DF0B8091E00B9091E10B0E94AE
:10538000C86B6093DE0B7093DF0B8093E00B909300
:10539000E10B20E030E040E752E41AC020E030E0CA
:1053A0004CE552E46091DE0B7091DF0B8091E00BD5
:1053B0009091E10B0E94C86B6093DE0B7093DF0B42
:1053C0008093E00B9093E10B20E030E04CE552E459
:1053D0006091E20B7091E30B8091E40B9091E50BEF
:1053E0000E94C86B6093E20B7093E30B8093E40B15
:1053F0009093E50B1F910F91FF90EF90DF90CF906E
:10540000BF90AF909F908F907F906F905F904F90E4
:1054100008954F925F926F927F928F929F92AF9278
:10542000BF92CF92DF92EF92FF920F931F93CF9391
:10543000DF93CDB7DEB72C970FB6F894DEBF0FBE63
:10544000CDBF29833A834B835C83270138010E94B7
:1054500013432091900C3091910C4091920C5091FB
:10546000930CE090800CF090810C0091820C1091D4
:10547000830CE20EF31E041F151F2091400C309187
:10548000410C6E157F058007910718F4821693066C
:1054900069F18216930609F053C03FEF831A930A0D
:1054A0009092410C8092400C0E9448284091900CB0
:1054B0005091910C6091920C7091930C8091800CA2
:1054C0009091810CA091820CB091830C840F951F58
:1054D000A61FB71F8093900C9093910CA093920CF1
:1054E000B093930C81E080932F0C2AC08601750144
:1054F000A301920169817A818B819C810E94042998
:1055000010922F0CC090E60BD090E70BE090E80BC8
:10551000F090E90B0091E20B1091E30B2091E40B6A
:105520003091E50B4091DE0B5091DF0B6091E00B69
:105530007091E10B8091940C9091950C0E94232422
:105540002C960FB6F894DEBF0FBECDBFDF91CF9182
:105550001F910F91FF90EF90DF90CF90BF90AF9091
:105560009F908F907F906F905F904F900895CF9312
:10557000DF93BC0189E897E00E949155EC010E94FD
:10558000E0458C0F9D1FDF91CF9108953F924F9280
:105590005F926F927F928F929F92AF92BF92CF92C3
:1055A000DF92EF92FF920F931F93CF93DF93CDB7CC
:1055B000DEB72A970FB6F894DEBF0FBECDBF6D835E
:1055C0007E838F83988729013A01E982FA820B83CF
:1055D0001C83860189EF93E00E94B72AA114B104CD
:1055E00009F0F5C030902D0C311005C080912C0CC5
:1055F000882309F486C020E030E0A901C301B2018C
:105600000E9414701816ECF48091940C9091950CF3
:105610009A878987FC01E65BFF4F208131814281B7
:1056200053816D817E818F8198850E941470181638
:105630002CF58091400C9091410C80179107F1F46A
:105640002BC020E030E0A901C301B2010E94626BCF
:1056500087FF55C0E091940CF091950CFA87E9878B
:10566000E65BFF4F20813181428153816D817E81D4
:105670008F8198850E94626B87FD0EC08091400CDF
:105680009091410C08171907D1F5C8010196909324
:10569000410C8093400C33C021ED3FE54DE75EE3C4
:1056A00069817A818B819C810E94C86B4B015C016E
:1056B00025E239E442E950ECC301B20190580E945E
:1056C000C86B6B017C019B01AC01C501B4010E9458
:1056D000236EE985FA856083718382839383C48214
:1056E000D582E682F782A5019401C701B6010E9426
:1056F000226EE985FA8560877187828793873110EA
:1057000070C180912C0C81116CC120E030E0A901A6
:10571000C301B2010E94147018163CF58091940CDC
:105720009091950C9A878987FC01E65BFF4F8080FA
:105730009180A280B3802091BC0C3091BD0C40912F
:10574000BE0C5091BF0C6D817E818F8198850E9427
:10575000236EA50194010E9414702091400C309199
:10576000410C18160CF0EDC02DC020E030E0A9016E
:10577000C301B2010E94626B87FF33C1E091940CB8
:10578000F091950CFA87E987E65BFF4F8080918066
:10579000A280B3802091BC0C3091BD0C4091BE0C16
:1057A0005091BF0C6D817E818F8198850E94226E01
:1057B000A50194010E94626B2091400C3091410C34
:1057C00087FFBFC00217130709F0BBC0CDC0F1E0CF
:1057D000AF16B10409F056C00E941343C0907C0C70
:1057E000D0907D0CE0907E0CF0907F0C8090800C2F
:1057F0009090810CA090820CB090830CC80CD91CA6
:10580000EA1CFB1C2091400C3091410C6C157D056D
:105810008E059F0508F0E1C00217130709F0DDC0EF
:105820008091940C9091950C9E838D8321ED3FE5A2
:105830004DE75EE369817A818B819C810E94C86B10
:105840006B017C01C301B201905825E239E442E9C1
:1058500050EC0E94C86B4B015C019B01AC01C7017D
:10586000B6010E94236EED81FE8160837183828385
:10587000938384829582A682B782A7019601C5018F
:10588000B401A2C0F2E0AF16B10409F0AAC02091A1
:10589000010E3091020E8091400C9091410C22300B
:1058A00031050CF043C020910B0E30910C0E2230CC
:1058B0003105E4F52091150E3091160E2230310598
:1058C000ACF50817190791F58091940C9091950CFF
:1058D0009E838D8321ED3FE54DE75EE369817A810B
:1058E0008B819C810E94C86B4B015C01C301B2019A
:1058F000905825E239E442E950EC0E94C86B6B01F4
:105900007C019B01AC01C501B4010E94236EED81B5
:10591000FE816083718382839383C482D582E68211
:10592000F782A5019401C701B6014EC008171907F7
:1059300009F057C00F5F1F4F1093410C0093400CAC
:1059400050C00217130709F04CC00F5F1F4F109390
:10595000410C0093400C8092BC0C9092BD0CA09224
:10596000BE0CB092BF0C3DC021ED3FE54DE75EE3BC
:1059700069817A818B819C810E94C86B4B015C019B
:10598000C301B201905825E239E442E950EC0E948B
:10599000C86B6B017C019B01AC01C501B4010E9485
:1059A000236EE985FA856083718382839383C48241
:1059B000D582E682F782A5019401C701B6010E9453
:1059C000226EE985FA8504C00E94226EED81FE8177
:1059D000608771878287938704C00217130709F4D1
:1059E000A9CF2A960FB6F894DEBF0FBECDBFDF91C8
:1059F000CF911F910F91FF90EF90DF90CF90BF90CC
:105A0000AF909F908F907F906F905F904F903F905E
:105A10000895CF92DF92EF92FF920F931F93CF934F
:105A2000DF93CDB7DEB72A970FB6F894DEBF0FBE6F
:105A3000CDBF09831A8389879A870E945C696B01AD
:105A40007C010E945C69C701B60126E030E040E0BD
:105A500050E00E94896C62307105C9F03CF4611518
:105A6000710581F06130710591F022C064307105DB
:105A700099F094F065307105D9F480E090E0A0E6EB
:105A8000BFE30EC080E090E0A0E7BFE309C080E084
:105A900090E0A0EABFE304C080E090E0A0E4BFE3B0
:105AA0008093DA0B9093DB0BA093DC0BB093DD0BB0
:105AB00089859A858530910561F048F40497A9F4A9
:105AC0000E945C6924E030E040E050E008C00D979F
:105AD00060F40E945C6926E030E040E050E00E9403
:105AE000896C70934B0C60934A0C69817A81072E04
:105AF000000C880B990B0E94696B6093F60B7093F6
:105B0000F70B8093F80B9093F90B00E010E020EA7C
:105B100031E40093D60B1093D70B2093D80B30931E
:105B2000D90B2A960FB6F894DEBF0FBECDBFDF911A
:105B3000CF911F910F91FF90EF90DF90CF9008953C
:105B4000EF92FF920F931F93CF93DF93EC0180911D
:105B5000F70D9091F80DDE018D939D9388E2E9EFAA
:105B6000FDE001900D928A95E1F788E2E1E2FEE026
:105B7000DE019A9601900D928A95E1F7DE01AE5A08
:105B8000BF4F88E2E9E4FEE001900D928A95E1F7CB
:105B90008091710E9091720EFE01E658FF4F918335
:105BA00080830091770E1091780E7E014CE7E40E11
:105BB000F11CF70115830483C8010896938382833F
:105BC0002AE0AC01249FC001259F900D11240E9462
:105BD000EC6CF701918380839C0160E070E0061714
:105BE0001707B9F0E091730EF091740EA901481BEC
:105BF000590BE40FF51F2115310531F04AE0D901A9
:105C000001900D924A95E1F76F5F7F4F265F3F4FFE
:105C1000E6CF80917A0E90917B0ECD57DF4F99831E
:105C20008883DF91CF911F910F91FF90EF9008959E
:105C30008F929F92AF92BF92CF92DF92EF92FF929C
:105C40000F931F93CF93DF93CDB7DEB7C558D1091C
:105C50000FB6F894DEBF0FBECDBF8111F7C181E052
:105C600080932F0CCE0101960E94A02D09A11AA1AC
:105C70002BA13CA14DA15EA16FA178A589A59AA5F4
:105C80000E94092D6093FA0B7093FB0B8093FC0B21
:105C90009093FD0B00E010E020EA31E40093D60B76
:105CA0001093D70B2093D80B3093D90B27ED33EB00
:105CB0004DE55FE30E94C86B6093F60B7093F70BA2
:105CC0008093F80B9093F90B8091300C882349F066
:105CD0008091AC0C9091AD0CA091AE0CB091AF0C3A
:105CE00004C080E090E0A0E4BFE38093E60B9093D3
:105CF000E70BA093E80BB093E90B81E080932A0CAB
:105D00002091140C3091150C232B09F495C180932C
:105D10002B0C8091200C9091210C019709F045C02B
:105D20002091E60B3091E70B4091E80B5091E90B85
:105D3000A12CB12CC12CD12C1AE9E12E19E9F12E9C
:105D400009ED1FE362E97AE086E89FE30E94C62A34
:105D50008091E60B9091E70BA091E80BB091E90BD5
:105D60009C01AD015058CC24C394D12C16E6E12EF1
:105D7000FE2C06EE1FE362E97AE086E89FE30E94CC
:105D8000C62A8091E60B9091E70BA091E80BB091A9
:105D9000E90B9C01AD015058A2E0CA2ED12C62E95A
:105DA0007AE086E89FE30E94C62A8091200C9091B9
:105DB000210C0297C1F5812C912C93E3A92EBA2CCA
:105DC000CA2C9FE3D92EE12CF12C00E01FEB2DEC27
:105DD0003CEC4CEC5EE360E070E080E292E40E9418
:105DE000092A88248394912CE12CF12C00E01FE3F4
:105DF0002DEC3CEC4CEC5EE360E070E080E292E481
:105E00000E94092A52E0852E912CE12CF12C00E809
:105E10001FE32DEC3CEC4CEC5EE360E070E080E2D4
:105E200092E40E94092A8091200C9091210C039702
:105E300079F5812C912CA12CB12C65011DECE12E62
:105E40001CECF12E0CE41FE32DEC3CEC4CEC5EE37F
:105E500060E070E08CE892E40E94092A8824839430
:105E6000912C2DEC3CEC4CEC5EE360E070E08CE8B7
:105E700092E40E94092A82E0882E912C2DEC3CECC1
:105E80004CEC5EE360E070E08CE892E40E94092A4A
:105E90008091200C9091210C039779F5812C912C05
:105EA000A12CB12C65011DECE12E1CECF12E0CE4B3
:105EB0001FE32DEC3CEC4CEC5EE360E070E08CE822
:105EC00092E40E94092A88248394912C2DEC3CECC6
:105ED0004CEC5EE360E070E08CE892E40E94092AFA
:105EE000F2E08F2E912C2DEC3CEC4CEC5EE360E06C
:105EF00070E08CE892E40E94092A8091200C909135
:105F0000210C049779F5812C912CA12CB12C6501E1
:105F10001DECE12E1CECF12E0CE41FE32DEC3CEC0F
:105F20004CEC5EE360E070E08CE892E40E94092AA9
:105F300088248394912C2DEC3CEC4CEC5EE360E0E7
:105F400070E08CE892E40E94092A62E0862E912C8F
:105F50002DEC3CEC4CEC5EE360E070E08CE892E40D
:105F60000E94092A8091200C9091210C059779F5C7
:105F7000812C912CA12CB12C65011DECE12E1CEC87
:105F8000F12E0CE41FE32DEC3CEC4CEC5EE360E006
:105F900070E08CE892E40E94092A88248394912C72
:105FA0002DEC3CEC4CEC5EE360E070E08CE892E4BD
:105FB0000E94092A32E0832E912C2DEC3CEC4CEC13
:105FC0005EE360E070E08CE892E40E94092A809130
:105FD000200C9091210C069779F5812C912CA12C05
:105FE000B12C65011DECE12E1CECF12E0CE41FE33D
:105FF0002DEC3CEC4CEC5EE360E070E08CE892E46D
:106000000E94092A88248394912C2DEC3CEC4CECC2
:106010005EE360E070E08CE892E40E94092A82E08E
:10602000882E912C2DEC3CEC4CEC5EE360E070E0B3
:106030008CE892E40E94092A8091400C9091410CD6
:10604000039709F0D3C186E497E0C0C181E0809353
:106050002F0CCE0101960E94A02D09A11AA12BA1FF
:106060003CA14DA15EA16FA178A589A59AA50E942A
:10607000092D6093FA0B7093FB0B8093FC0B9093AC
:10608000FD0B00E010E020EA31E40093D60B109302
:10609000D70B2093D80B3093D90B27ED33EB4DE57D
:1060A0005FE30E94C86B6093F60B7093F70B8093CD
:1060B000F80B9093F90B8091300C882349F0809174
:1060C000AC0C9091AD0CA091AE0CB091AF0C04C093
:1060D00080E090E0A0E4BFE38093E60B9093E70BB1
:1060E000A093E80BB093E90B81E080932A0C2091F8
:1060F000140C3091150C232B09F460C180932B0CE8
:1061000080911E0C90911F0C019709F045C02091C1
:10611000E60B3091E70B4091E80B5091E90BA12C75
:10612000B12CC12CD12C1AE9E12E19E9F12E09ED7F
:106130001FE362E97AE086E89FE30E94C62A809125
:10614000E60B9091E70BA091E80BB091E90B9C0155
:10615000AD015058CC24C394D12C16E6E12EFE2C70
:1061600006EE1FE362E97AE086E89FE30E94C62A12
:106170008091E60B9091E70BA091E80BB091E90BB1
:106180009C01AD015058F2E0CF2ED12C62E97AE0AB
:1061900086E89FE30E94C62A80911E0C90911F0CF6
:1061A0000297C1F5812C912C13E3A12EBA2CCA2C95
:1061B0001FE3D12EE12CF12C00E01FEB2DEC3CEC89
:1061C0004CEC5EE360E070E080E292E40E94092A19
:1061D00088248394912CE12CF12C00E01FE32DEC1A
:1061E0003CEC4CEC5EE360E070E080E292E40E9404
:1061F000092A32E0832E912CE12CF12C00E81FE3D8
:106200002DEC3CEC4CEC5EE360E070E080E292E46C
:106210000E94092A80911E0C90911F0C039779F51A
:10622000812C912CA12CB12C65011DECE12E1CECD4
:10623000F12E0CE41FE32DEC3CEC4CEC5EE360E053
:1062400070E08CE892E40E94092A88248394912CBF
:106250002DEC3CEC4CEC5EE360E070E08CE892E40A
:106260000E94092AB2E08B2E912C2DEC3CEC4CECD8
:106270005EE360E070E08CE892E40E94092A80917D
:10628000200C9091210C049779F5812C912CA12C54
:10629000B12C65011DECE12E1CECF12E0CE41FE38A
:1062A0002DEC3CEC4CEC5EE360E070E08CE892E4BA
:1062B0000E94092A88248394912C2DEC3CEC4CEC10
:1062C0005EE360E070E08CE892E40E94092AE2E07C
:1062D0008E2E912C2DEC3CEC4CEC5EE360E070E0FB
:1062E0008CE892E40E94092A8091200C9091210C64
:1062F000059779F5812C912CA12CB12C65011DEC11
:10630000E12E1CECF12E0CE41FE32DEC3CEC4CECEC
:106310005EE360E070E08CE892E40E94092A882441
:106320008394912C2DEC3CEC4CEC5EE360E070E04F
:106330008CE892E40E94092A52E0852E912C2DECE3
:106340003CEC4CEC5EE360E070E08CE892E40E9490
:10635000092A8091200C9091210C069779F5812CC7
:10636000912CA12CB12C65011DECE12E1CECF12E21
:106370000CE41FE32DEC3CEC4CEC5EE360E070E0E1
:106380008CE892E40E94092A88248394912C2DECB5
:106390003CEC4CEC5EE360E070E08CE892E40E9440
:1063A000092A22E0822E912C2DEC3CEC4CEC5EE391
:1063B00060E070E08CE892E40E94092A8091400C31
:1063C0009091410C039791F48BE397E00E94104663
:1063D0001092570C1092560C1092150C1092140C2F
:1063E0000E9448281092410C1092400CCE01835814
:1063F0009F4F0E94F144CB57DF4F0FB6F894DEBF9A
:106400000FBECDBFDF91CF911F910F91FF90EF9005
:10641000DF90CF90BF90AF909F908F9008958F9214
:106420009F92AF92BF92CF92DF92EF92FF920F9323
:106430001F93CF93DF93CDB7DEB7C558D1090FB601
:10644000F894DEBF0FBECDBF81E080932F0CCE014C
:1064500001960E94A02D09A11AA12BA13CA14DA13A
:106460005EA16FA178A589A59AA50E94092D6093C8
:10647000FA0B7093FB0B8093FC0B9093FD0B00E0E9
:1064800010E020EA31E40093D60B1093D70B209351
:10649000D80B3093D90B27ED33EB4DE55FE30E942A
:1064A000C86B6093F60B7093F70B8093F80B909387
:1064B000F90B8091300C882349F08091AC0C9091BD
:1064C000AD0CA091AE0CB091AF0C04C080E090E098
:1064D000A0E4BFE38093E60B9093E70BA093E80B57
:1064E000B093E90B81E080932A0C2091140C309139
:1064F000150C232B09F4C1C080932B0C8091180C30
:106500009091190C019709F045C02091E60B30914C
:10651000E70B4091E80B5091E90BA12CB12CC12C59
:10652000D12C1AE9E12E19E9F12E09ED1FE362E9F8
:106530007AE086E89FE30E94C62A8091E60B90915C
:10654000E70BA091E80BB091E90B9C01AD0150580D
:10655000CC24C394D12C16E6E12EFE2C06EE1FE3CC
:1065600062E97AE086E89FE30E94C62A8091E60B02
:106570009091E70BA091E80BB091E90B9C01AD0164
:10658000505882E0C82ED12C62E97AE086E89FE379
:106590000E94C62A8091180C9091190C0297C1F59F
:1065A000812C912C33E3A32EBA2CCA2C3FE3D32E9B
:1065B000E12CF12C00E01FEB2DEC3CEC4CEC5EE30D
:1065C00060E070E080E292E40E94092A88248394CB
:1065D000912CE12CF12C00E01FE32DEC3CEC4CEC79
:1065E0005EE360E070E080E292E40E94092A72E0DB
:1065F000872E912CE12CF12C00E81FE32DEC3CECD4
:106600004CEC5EE360E070E080E292E40E94092AD4
:106610008091180C9091190C039779F5812C912C8D
:10662000A12CB12C65011DECE12E1CECF12E0CE42B
:106630001FE32DEC3CEC4CEC5EE360E070E08CE89A
:1066400092E40E94092A88248394912C2DEC3CEC3E
:106650004CEC5EE360E070E08CE892E40E94092A72
:1066600022E0822E912C2DEC3CEC4CEC5EE360E0C1
:1066700070E08CE892E40E94092A8091400C90918D
:10668000410C039791F480E397E00E94104610922A
:10669000570C1092560C1092150C1092140C0E946C
:1066A00048281092410C1092400CCE0183589F4F05
:1066B0000E94F144CB57DF4F0FB6F894DEBF0FBEF8
:1066C000CDBFDF91CF911F910F91FF90EF90DF90A1
:1066D000CF90BF90AF909F908F9008958F929F9290
:1066E000AF92BF92CF92DF92EF92FF920F931F93E0
:1066F000CF93DF93CDB7DEB7C558D1090FB6F89465
:10670000DEBF0FBECDBF81E080932F0CCE0101967E
:106710000E94A02D09A11AA12BA13CA14DA15EA10F
:106720006FA178A589A59AA50E94092D6093FA0BFF
:106730007093FB0B8093FC0B9093FD0B00E010E03B
:1067400020EA31E40093D60B1093D70B2093D80B9B
:106750003093D90B27ED33EB4DE55FE30E94C86B17
:106760006093F60B7093F70B8093F80B9093F90BF3
:106770008091300C882349F08091AC0C9091AD0C45
:10678000A091AE0CB091AF0C04C080E090E0A0E40A
:10679000BFE38093E60B9093E70BA093E80BB093D5
:1067A000E90B81E080932A0C2091140C3091150C98
:1067B000232B09F48AC180932B0C80911A0C9091A1
:1067C0001B0C8130910509F057C02091E60B3091E8
:1067D000E70B4091E80B5091E90BA12CB12CC12C97
:1067E000D12C1AE9E12E19E9F12E09ED1FE362E936
:1067F0007AE086E89FE30E94C62A8091E60B90919A
:10680000E70BA091E80BB091E90B9C01AD0150584A
:10681000CC24C394D12C16E6E12EFE2C06EE1FE309
:1068200062E97AE086E89FE30E94C62A2091E60B9F
:106830003091E70B4091E80B5091E90BF2E0CF2E3D
:10684000D12C62E97AE086E89FE30E94C62A809113
:10685000E60B9091E70BA091E80BB091E90B9C013E
:10686000AD015058A3E0CA2ED12C62E97AE086E847
:106870009FE30E94C62A29C18230910509F077C0A2
:10688000812C912C43E3A42EBA2CCA2C4FE3D42E96
:10689000E12CF12C00E01FEB2AE939E949E95EE33C
:1068A00060E070E080E292E40E94092A88248394E8
:1068B000912C7AE9A72E79E9B72E79EDC72E7FE3DF
:1068C000D72EE12CF12C00E01FE32AE939E949E950
:1068D0005EE360E070E080E292E40E94092AF2E068
:1068E0008F2E912CE12CF12C00E81FEB2AE939E9DD
:1068F00049E95EE360E070E080E292E40E94092AE8
:10690000E12CF12C00E81FE32AE939E949E95EE3CB
:1069100060E070E080E292E40E94092AE12CF12C10
:1069200000E81FEB2AE939E949E95EE360E070E03D
:1069300080E292E40E94092A9DECA92E9CECB92EDB
:106940009CE2C92E90E4D92EE12CF12C00E81FE343
:106950002AE939E949E95EE360E070E080E292E427
:106960000E94092A2AE939E949E95EE3A8C083308F
:10697000910509F081C0812C912C43E3A42EBA2CFF
:10698000CA2C4FE3D42EE12CF12C00E81FE32DECB0
:106990003CEC4CEC5EE360E070E080E292E40E944C
:1069A000092AE12CF12C00E81FEB2DEC3CEC4CEC1F
:1069B0005EE360E070E080E292E40E94092A73E303
:1069C000A72EBA2CCA2C7FEBD72EE12CF12C00E895
:1069D0001FE32DEC3CEC4CEC5EE360E070E080E209
:1069E00092E40E94092AE12CF12C00E81FEB2DEC27
:1069F0003CEC4CEC5EE360E070E080E292E40E94EC
:106A0000092AA3E3AA2EBA2CCA2CAFE3DA2EE12C72
:106A1000F12C00E81FE32DEC3CEC4CEC5EE360E075
:106A200070E080E292E40E94092AE12CF12C00E857
:106A30001FEB2DEC3CEC4CEC5EE360E070E080E2A0
:106A400092E40E94092A93E3A92EBA2CCA2C9FEB48
:106A5000D92EE12CF12C00E81FE32DEC3CEC4CECA2
:106A60005EE360E070E080E292E40E94092AE12C9B
:106A7000F12C00E81FEB1FC0049739F5812C912CF5
:106A800083E3A82EBA2CCA2C8FE3D82EE12CF12C4C
:106A900000E01FEB2DEC3CEC4CEC5EE360E070E0C2
:106AA00080E292E40E94092A88248394912CE12CAC
:106AB000F12C00E01FE32DEC3CEC4CEC5EE360E0DD
:106AC00070E080E292E40E94092A8091400C90914B
:106AD000410C8830910549F480911A0C90911B0C5F
:106AE0000397A9F583E997E022C08730910549F41F
:106AF00080911A0C90911B0C029749F588E897E059
:106B000016C08430910549F480911A0C90911B0CA9
:106B10000197E9F48DE797E00AC00297C1F48091EC
:106B20001A0C90911B0C049791F482E797E00E9455
:106B300010461092570C1092560C1092150C109291
:106B4000140C0E9448281092410C1092400CCE0167
:106B500083589F4F0E94F144CB57DF4F0FB6F894F4
:106B6000DEBF0FBECDBFDF91CF911F910F91FF9080
:106B7000EF90DF90CF90BF90AF909F908F9008954F
:106B80008F929F92AF92BF92CF92DF92EF92FF923D
:106B90000F931F93CF93DF93CDB7DEB7C558D109BD
:106BA0000FB6F894DEBF0FBECDBF81E080932F0CEF
:106BB000CE0101960E94A02D09A11AA12BA13CA1F2
:106BC0004DA15EA16FA178A589A59AA50E94092D66
:106BD0006093FA0B7093FB0B8093FC0B9093FD0B6F
:106BE00000E010E020EA31E40093D60B1093D70BBD
:106BF0002093D80B3093D90B27ED33EB4DE55FE3B2
:106C00000E94C86B6093F60B7093F70B8093F80BA0
:106C10009093F90B8091300C882349F08091AC0C53
:106C20009091AD0CA091AE0CB091AF0C04C080E07F
:106C300090E0A0E4BFE38093E60B9093E70BA09372
:106C4000E80BB093E90B81E080932A0C2091140C9F
:106C50003091150C232B09F4C1C080932B0C80912B
:106C6000180C9091190C019709F045C02091E60B82
:106C70003091E70B4091E80B5091E90BA12CB12C1E
:106C8000C12CD12C1AE9E12E19E9F12E09ED1FE3EF
:106C900062E97AE086E89FE30E94C62A8091E60BCB
:106CA0009091E70BA091E80BB091E90B9C01AD012D
:106CB0005058CC24C394D12C16E6E12EFE2C06EEBF
:106CC0001FE362E97AE086E89FE30E94C62A80918A
:106CD000E60B9091E70BA091E80BB091E90B9C01BA
:106CE000AD01505882E0C82ED12C62E97AE086E8E6
:106CF0009FE30E94C62A8091180C9091190C02976C
:106D0000C1F5812C912C33E3A32EBA2CCA2C3FE37E
:106D1000D32EE12CF12C00E01FEB2DEC3CEC4CECE5
:106D20005EE360E070E080E292E40E94092A882439
:106D30008394912CE12CF12C00E01FE32DEC3CEC32
:106D40004CEC5EE360E070E080E292E40E94092A8D
:106D500072E0872E912CE12CF12C00E81FE32DEC42
:106D60003CEC4CEC5EE360E070E080E292E40E9478
:106D7000092A8091180C9091190C039779F5812CB0
:106D8000912CA12CB12C65011DECE12E1CECF12EF7
:106D90000CE41FE32DEC3CEC4CEC5EE360E070E0B7
:106DA0008CE892E40E94092A88248394912C2DEC8B
:106DB0003CEC4CEC5EE360E070E08CE892E40E9416
:106DC000092A22E0822E912C2DEC3CEC4CEC5EE367
:106DD00060E070E08CE892E40E94092A8091400C07
:106DE0009091410C039791F487E697E00E9410463A
:106DF0001092570C1092560C1092150C1092140C05
:106E00000E9448281092410C1092400CCE018358E9
:106E10009F4F0E94F144CB57DF4F0FB6F894DEBF6F
:106E20000FBECDBFDF91CF911F910F91FF90EF90DB
:106E3000DF90CF90BF90AF909F908F9008958F92EA
:106E40009F92AF92BF92CF92DF92EF92FF920F93F9
:106E50001F93CF93DF93CDB7DEB7C558D1090FB6D7
:106E6000F894DEBF0FBECDBF81E080932F0CCE0122
:106E700001960E94A02D09A11AA12BA13CA14DA110
:106E80005EA16FA178A589A59AA50E94092D60939E
:106E9000FA0B7093FB0B8093FC0B9093FD0B00E0BF
:106EA00010E020EA31E40093D60B1093D70B209327
:106EB000D80B3093D90B27ED33EB4DE55FE30E9400
:106EC000C86B6093F60B7093F70B8093F80B90935D
:106ED000F90B8091300C882349F08091AC0C909193
:106EE000AD0CA091AE0CB091AF0C04C080E090E06E
:106EF000A0E4BFE38093E60B9093E70BA093E80B2D
:106F0000B093E90B81E080932A0C2091140C30910E
:106F1000150C232B09F4C1C080932B0C8091180C05
:106F20009091190C019709F045C02091E60B309122
:106F3000E70B4091E80B5091E90BA12CB12CC12C2F
:106F4000D12C1AE9E12E19E9F12E09ED1FE362E9CE
:106F50007AE086E89FE30E94C62A8091E60B909132
:106F6000E70BA091E80BB091E90B9C01AD015058E3
:106F7000CC24C394D12C16E6E12EFE2C06EE1FE3A2
:106F800062E97AE086E89FE30E94C62A8091E60BD8
:106F90009091E70BA091E80BB091E90B9C01AD013A
:106FA000505882E0C82ED12C62E97AE086E89FE34F
:106FB0000E94C62A8091180C9091190C0297C1F575
:106FC000812C912C33E3A32EBA2CCA2C3FE3D32E71
:106FD000E12CF12C00E01FEB2DEC3CEC4CEC5EE3E3
:106FE00060E070E080E292E40E94092A88248394A1
:106FF000912CE12CF12C00E01FE32DEC3CEC4CEC4F
:107000005EE360E070E080E292E40E94092A72E0B0
:10701000872E912CE12CF12C00E81FE32DEC3CECA9
:107020004CEC5EE360E070E080E292E40E94092AAA
:107030008091180C9091190C039779F5812C912C63
:10704000A12CB12C65011DECE12E1CECF12E0CE401
:107050001FE32DEC3CEC4CEC5EE360E070E08CE870
:1070600092E40E94092A88248394912C2DEC3CEC14
:107070004CEC5EE360E070E08CE892E40E94092A48
:1070800022E0822E912C2DEC3CEC4CEC5EE360E097
:1070900070E08CE892E40E94092A8091400C909163
:1070A000410C039791F48CE597E00E9410461092F2
:1070B000570C1092560C1092150C1092140C0E9442
:1070C00048281092410C1092400CCE0183589F4FDB
:1070D0000E94F144CB57DF4F0FB6F894DEBF0FBECE
:1070E000CDBFDF91CF911F910F91FF90EF90DF9077
:1070F000CF90BF90AF909F908F9008958F929F9266
:10710000AF92BF92CF92DF92EF92FF920F931F93B5
:10711000CF93DF93CDB7DEB7C558D1090FB6F8943A
:10712000DEBF0FBECDBF81E080932F0CCE01019654
:107130000E94A02D09A11AA12BA13CA14DA15EA1E5
:107140006FA178A589A59AA50E94092D6093FA0BD5
:107150007093FB0B8093FC0B9093FD0B00E010E011
:1071600020EA31E40093D60B1093D70B2093D80B71
:107170003093D90B27ED33EB4DE55FE30E94C86BED
:107180006093F60B7093F70B8093F80B9093F90BC9
:107190008091300C882349F08091AC0C9091AD0C1B
:1071A000A091AE0CB091AF0C04C080E090E0A0E4E0
:1071B000BFE38093E60B9093E70BA093E80BB093AB
:1071C000E90B81E080932A0C2091140C3091150C6E
:1071D000232B09F4C1C080932B0C8091180C909143
:1071E000190C019709F045C02091E60B3091E70B8F
:1071F0004091E80B5091E90BA12CB12CC12CD12C62
:107200001AE9E12E19E9F12E09ED1FE362E97AE0AE
:1072100086E89FE30E94C62A8091E60B9091E70BD7
:10722000A091E80BB091E90B9C01AD015058CC2422
:10723000C394D12C16E6E12EFE2C06EE1FE362E984
:107240007AE086E89FE30E94C62A8091E60B90913F
:10725000E70BA091E80BB091E90B9C01AD015058F0
:1072600082E0C82ED12C62E97AE086E89FE30E9492
:10727000C62A8091180C9091190C0297C1F5812CA7
:10728000912C33E3A32EBA2CCA2C3FE3D32EE12C4E
:10729000F12C00E01FEB2DEC3CEC4CEC5EE360E0ED
:1072A00070E080E292E40E94092A88248394912C61
:1072B000E12CF12C00E01FE32DEC3CEC4CEC5EE308
:1072C00060E070E080E292E40E94092A72E0872E7A
:1072D000912CE12CF12C00E81FE32DEC3CEC4CEC64
:1072E0005EE360E070E080E292E40E94092A80910F
:1072F000180C9091190C039779F5812C912CA12CE5
:10730000B12C65011DECE12E1CECF12E0CE41FE309
:107310002DEC3CEC4CEC5EE360E070E08CE892E439
:107320000E94092A88248394912C2DEC3CEC4CEC8F
:107330005EE360E070E08CE892E40E94092A22E0BB
:10734000822E912C2DEC3CEC4CEC5EE360E070E086
:107350008CE892E40E94092A8091400C9091410CA3
:10736000039791F481E597E00E9410461092570C24
:107370001092560C1092150C1092140C0E94482872
:107380001092410C1092400CCE0183589F4F0E94E6
:10739000F144CB57DF4F0FB6F894DEBF0FBECDBF21
:1073A000DF91CF911F910F91FF90EF90DF90CF90E1
:1073B000BF90AF909F908F900895CF92DF92EF9201
:1073C000FF920F931F938091400C9091410C0817EE
:1073D000190709F08BC08091170E9091180E883014
:1073E000910574F4892B61F00F5F1F4F1093410CCE
:1073F0000093400C0E94482881E080932F0C76C0B7
:1074000080912F0C882379F0E12CF12C870120E06A
:1074100030E040E85FEB60E070E080E09FE30E94D6
:10742000042910922F0CE091940CF091950CDF013F
:10743000AA5BBF4FCD90DD90ED90FC9083EE9BE575
:10744000AEE9B0E480839183A283B38380E090E0CF
:10745000A0E0B0E884839583A683B78383EE9BE5A1
:10746000AEE9B0EC80879187A287B3876FED77E0B4
:1074700089E897E00E94F24567E070E089E897E0CC
:107480000E941F466CEC77E089E897E00E94F24585
:107490006091F90D7091FA0D89E897E00E941F46FE
:1074A0006CEB77E089E897E00E94F24542E0C70183
:1074B000B6010E94294668EA77E089E897E00E94D1
:1074C000F2456091F60B7091F70B8091F80B90915B
:1074D000F90B42E00E94294686EA97E01F910F913E
:1074E000FF90EF90DF90CF900C9410461F910F917A
:1074F000FF90EF90DF90CF9008954F925F926F9240
:107500007F928F929F92AF92BF92CF92DF92EF9233
:10751000FF920F931F934B015C0129013A010E94D6
:107520001343C090900CD090910CE090920CF0908E
:10753000930C2091800C3091810C4091820C5091E1
:10754000830CC20ED31EE41EF51E2091400C309118
:10755000410C6C157D058E059F0518F40217130765
:1075600049F10217130709F03FC00F5F1F4F109337
:10757000410C0093400C0E9448284091900C50917F
:10758000910C6091920C7091930C8091800C909171
:10759000810CA091820CB091830C840F951FA61FC3
:1075A000B71F8093900C9093910CA093920CB09382
:1075B000930C1AC0E12CF12C00E81FE320E030E02E
:1075C000A90160E070E080E09FE30E94042973015C
:1075D00062019501840140E050E0BA018091940C71
:1075E0009091950C0E9423241F910F91FF90EF9092
:1075F000DF90CF90BF90AF909F908F907F906F90D3
:107600005F904F9008950F931F93CF938091280C14
:10761000882351F08091230C882331F06EE977E0C4
:1076200089E897E00E94F245C1E0C093240C809164
:107630003A0C811115C00E9413430091580C10910F
:10764000590C20915A0C30915B0C0C53164F2F4F54
:107650003F4F601771078207930738F4C0933B0CC4
:10766000CF911F910F910C94482880913A0C811171
:1076700053C00E9413430091580C1091590C209153
:107680005A0C30915B0C0C53164F2F4F3F4F06177F
:1076900017072807390708F03FC00E94134360937B
:1076A000580C7093590C80935A0C90935B0C109269
:1076B0003A0C10923B0CC093390C0E945C691092FA
:1076C000B10C1092B00C2AE030E040E050E00E9493
:1076D000896CCB01770FAA0BBB0B8A309105E0F4C4
:1076E000FC018827E953FF4F8F4F0C947C7089E091
:1076F00011C08AE00FC08BE00DC08CE00BC08DE0A4
:1077000009C08EE007C08FE005C080E103C081E1C1
:1077100001C082E18093D50BCF911F910F91089505
:107720008F929F92AF92BF92CF92DF92EF92FF9291
:107730000F931F93CF93DF93CDB7DEB7C558D10911
:107740000FB6F894DEBF0FBECDBF81E080932F0C43
:10775000CE0101960E94A02D09A11AA12BA13CA146
:107760004DA15EA16FA178A589A59AA50E94092DBA
:107770006093FA0B7093FB0B8093FC0B9093FD0BC3
:1077800000E010E020EA31E40093D60B1093D70B11
:107790002093D80B3093D90B27ED33EB4DE55FE306
:1077A0000E94C86B6093F60B7093F70B8093F80BF5
:1077B0009093F90B8091300C882349F08091AC0CA8
:1077C0009091AD0CA091AE0CB091AF0C04C080E0D4
:1077D00090E0A0E4BFE38093E60B9093E70BA093C7
:1077E000E80BB093E90B81E080932A0C2091140CF4
:1077F0003091150C232B09F4C1C080932B0C809180
:10780000180C9091190C019709F045C02091E60BD6
:107810003091E70B4091E80B5091E90BA12CB12C72
:10782000C12CD12C1AE9E12E19E9F12E09ED1FE343
:1078300062E97AE086E89FE30E94C62A8091E60B1F
:107840009091E70BA091E80BB091E90B9C01AD0181
:107850005058CC24C394D12C16E6E12EFE2C06EE13
:107860001FE362E97AE086E89FE30E94C62A8091DE
:10787000E60B9091E70BA091E80BB091E90B9C010E
:10788000AD01505882E0C82ED12C62E97AE086E83A
:107890009FE30E94C62A8091180C9091190C0297C0
:1078A000C1F5812C912C33E3A32EBA2CCA2C3FE3D3
:1078B000D32EE12CF12C00E01FEB2DEC3CEC4CEC3A
:1078C0005EE360E070E080E292E40E94092A88248E
:1078D0008394912CE12CF12C00E01FE32DEC3CEC87
:1078E0004CEC5EE360E070E080E292E40E94092AE2
:1078F00072E0872E912CE12CF12C00E81FE32DEC97
:107900003CEC4CEC5EE360E070E080E292E40E94CC
:10791000092A8091180C9091190C039779F5812C04
:10792000912CA12CB12C65011DECE12E1CECF12E4B
:107930000CE41FE32DEC3CEC4CEC5EE360E070E00B
:107940008CE892E40E94092A88248394912C2DECDF
:107950003CEC4CEC5EE360E070E08CE892E40E946A
:10796000092A22E0822E912C2DEC3CEC4CEC5EE3BB
:1079700060E070E08CE892E40E94092A8091400C5B
:107980009091410C039791F48FEE97E00E9410467E
:107990001092570C1092560C1092150C1092140C59
:1079A0000E9448281092410C1092400CCE0183583E
:1079B0009F4F0E94F144CB57DF4F0FB6F894DEBFC4
:1079C0000FBECDBFDF91CF911F910F91FF90EF9030
:1079D000DF90CF90BF90AF909F908F9008958F923F
:1079E0009F92AF92BF92CF92DF92EF92FF92CF938E
:1079F000DF936B017C01EA018091280C882399F0C8
:107A00000E9413438090840C9090850CA090860C6B
:107A1000B090870C681579058A059B0520F0809148
:107A2000230C811194C281E08093370C20E030E078
:107A300040EF51E4C701B6010E94626B81111DC085
:107A4000E090940CF090950CF701E65BFF4F80807E
:107A50009180A280B38020E030E0A901C501B4018B
:107A60000E941470181624F0B7FAB094B7F8B094C6
:107A700022E93AE046E05FE352C120E030E04CE02A
:107A800052E4C701B6010E94626B81111DC0E090F3
:107A9000940CF090950CF701E65BFF4F808091808D
:107AA000A280B38020E030E0A901C501B4010E94AA
:107AB0001470181624F0B7FAB094B7F8B0942CE705
:107AC00039ED40E25FE32BC120E030E044E352E4D3
:107AD000C701B6010E94626B81111DC0E090940C39
:107AE000F090950CF701E65BFF4F80809180A280BB
:107AF000B38020E030E0A901C501B4010E941470F8
:107B0000181624F0B7FAB094B7F8B0942BED3FE014
:107B100049E45FE304C120E030E040E752E4C701FC
:107B2000B6010E94626B81111DC0E090940CF09030
:107B3000950CF701E65BFF4F80809180A280B380B7
:107B400020E030E0A901C501B4010E9414701816AC
:107B500024F0B7FAB094B7F8B09422E93AE046E8D6
:107B60005FE3DDC020E030E044EB52E4C701B60142
:107B70000E94626B81111DC0E090940CF090950CF6
:107B8000F701E65BFF4F80809180A280B38020E008
:107B900030E0A901C501B4010E941470181624F048
:107BA000B7FAB094B7F8B0942BED3FE049EC5FE33F
:107BB00074C020E030E040EF52E4C701B6010E94FB
:107BC000626B81111DC0E090940CF090950CF70150
:107BD000E65BFF4F80809180A280B38020E030E0A0
:107BE000A901C501B4010E941470181624F0B7FA57
:107BF000B094B7F8B09422E93AE046E050E48FC080
:107C000020E030E046E153E4C701B6010E94626B18
:107C100081111DC0E090940CF090950CF701E65B8B
:107C2000FF4F80809180A280B38020E030E0A901E6
:107C3000C501B4010E941470181624F0B7FAB0946C
:107C4000B7F8B09427E33DE847E250E468C020E08D
:107C500030E044E353E4C701B6010E94626B811136
:107C600038C0E090940CF090950CF701E65BFF4F64
:107C700080809180A280B38020E030E0A901C5011E
:107C8000B4010E941470181624F0B7FAB094B7F833
:107C9000B0942BED3FE049E450E460910C0C7091FE
:107CA0000D0C80910E0C90910F0C0E94236EA5017B
:107CB00094010E94147087FF43C0DF91CF91FF9021
:107CC000EF90DF90CF90BF90AF909F908F900C94EB
:107CD000482820E030E044EB53E4C701B6010E949D
:107CE000626B811164C0E090940CF090950CF701E8
:107CF000E65BFF4F80809180A280B38020E030E07F
:107D0000A901C501B4010E941470181624F0B7FA35
:107D1000B094B7F8B0942BED3FE049EC50E460919B
:107D20000C0C70910D0C80910E0C90910F0C0E9418
:107D3000236EA50194010E94147018160CF0BDCF9B
:107D4000CD2B41F18091DA0B9091DB0BA091DC0BF4
:107D5000B091DD0BBC01CD01905825E239E442E938
:107D600050EC0E94C86B4B015C0120E030E0A9019F
:107D70000E94236EF70160837183828393838482E0
:107D80009582A682B78280869186A286B38610925B
:107D9000240CE4C025E239E442E950EC6091DA0BAE
:107DA0007091DB0B8091DC0B9091DD0BDACF20E042
:107DB00030E040E050E4C701B6010E94626B8111DF
:107DC00061C08091F90D9091FA0DCD2B51F51816E7
:107DD00019060CF0C3C0C091940CD091950C25E20B
:107DE00039E442E950EC6091DA0B7091DB0B809141
:107DF000DC0B9091DD0B0E94C86B6B017C0120E0D5
:107E000030E0A9010E94236E688379838A839B8373
:107E1000CC82DD82EE82FF82C886D986EA86FB8626
:107E20008EC0181619060CF099C0C091940CD09110
:107E3000950C8091DA0B9091DB0BA091DC0BB0914B
:107E4000DD0BBC01CD01905825E239E442E950EC4C
:107E50000E94C86B6B017C0120E030E0A9010E9408
:107E6000236E688379838A839B83CC82DD82EE8252
:107E7000FF82C886D986EA86FB868091010E9091A2
:107E8000020E61C020E030E040E450E4C701B601DA
:107E90000E94626B811162C08091F90D9091FA0D80
:107EA000CD2BA9F4181619060CF058C0C091940CEB
:107EB000D091950C25E239E442E950EC6091DA0B5F
:107EC0007091DB0B8091DC0B9091DD0B17C01816C5
:107ED00019060CF043C0C091940CD091950C809180
:107EE000DA0B9091DB0BA091DC0BB091DD0BBC01A8
:107EF000CD01905825E239E442E950EC0E94C86B6C
:107F00006B017C0120E030E0A9010E94236E6883B0
:107F100079838A839B83CC82DD82EE82FF82C8864E
:107F2000D986EA86FB868091010E9091020E029717
:107F3000ACF080910B0E90910C0E02977CF080912A
:107F4000150E9091160E02970CF0B7CE07C08AEF6F
:107F500097E00E9410461092230C65CDDF91CF91DF
:107F6000FF90EF90DF90CF90BF90AF909F908F9059
:107F700008950F931F93CF93DF93FC01A685B785D8
:107F80008D01005C1F4FE8018881998101968F73F4
:107F90009927AD014E5B5F4FEA0128813981821735
:107FA0009307D1F3E80128813981A20FB31F6C93A5
:107FB000A685B785A05CBF4F11969C938E93A6892A
:107FC000B7892C9181E090E0078C02C0880F991F3F
:107FD0000A94E2F7822B8C9381E081A30488F589CF
:107FE000E02D80818064808381E090E0DF91CF91FB
:107FF0001F910F910895FC0181A1882329F0A48984
:10800000B5898C9186FFFBCF11A20895FC01A48550
:10801000B585FD01E05CFF4F208131813296808182
:1080200091812817390779F080819181A80FB91FB4
:108030008C91208131812F5F3F4F2F733327318304
:10804000208390E008958FEF9FEF0895DC011C9648
:10805000ED91FC911D97DF01A05CBF4F2D913C91EC
:10806000119712968D919C9111972817390739F025
:108070008D919C91E80FF91F808190E008958FEF1A
:108080009FEF0895FC0124853585F901E05CFF4FE1
:1080900080819181329620813181821B930B8F7375
:1080A0009927089589E897E00E9442408FED96E075
:1080B0000E94424085E396E00E9442408BE895E0B2
:1080C0000C944240FB01E05CFF4F208131812F5F27
:1080D0003F4F2F733327DB01AE5BBF4F4D915C9158
:1080E0002417350741F040815181DB01A40FB51FF2
:1080F0008C933183208308951F920F920FB60F92B5
:1081000011240BB60F922F933F938F939F93EF936E
:10811000FF9320914305309144058091450590914E
:1081200046052817390731F4809131018F7D8093FE
:10813000310114C0E0914505F0914605ED5FFA4F1D
:108140002081809145059091460501968F7399276E
:10815000909346058093450520933601FF91EF915A
:108160009F918F913F912F910F900BBE0F900FBE5B
:108170000F901F9018951F920F920FB60F92112417
:108180000BB60F922F933F938F939F93EF93FF9391
:108190002091ED053091EE058091EF059091F0056D
:1081A0002817390731F48091D1008F7D8093D10059
:1081B00014C0E091EF05F091F005E355FA4F2081EE
:1081C0008091EF059091F00501968F739927909318
:1081D000F0058093EF052093D600FF91EF919F91DA
:1081E0008F913F912F910F900BBE0F900FBE0F906C
:1081F0001F9018951F920F920FB60F9211240BB675
:108200000F922F933F938F939F93EF93FF93209120
:108210009706309198068091990690919A062817B2
:10822000390731F48091C9008F7D8093C90014C053
:10823000E0919906F0919A06E95AF94F20818091D0
:10824000990690919A0601968F73992790939A06B2
:10825000809399062093CE00FF91EF919F918F918B
:108260003F912F910F900BBE0F900FBE0F901F905C
:1082700018951F920F920FB60F9211240BB60F9202
:108280002F933F938F939F93EF93FF9320914107F9
:10829000309142078091430790914407281739078E
:1082A00031F48091C1008F7D8093C10014C0E091B2
:1082B0004307F0914407EF5FF84F20818091430717
:1082C0009091440701968F73992790934407809368
:1082D00043072093C600FF91EF919F918F913F91AB
:1082E0002F910F900BBE0F900FBE0F901F901895FF
:1082F0001F920F920FB60F9211240BB60F922F936D
:108300003F934F935F936F937F938F939F93AF931D
:10831000BF93EF93FF938091300182FD06C080915F
:10832000360167E475E00E946240FF91EF91BF91D2
:10833000AF919F918F917F916F915F914F913F91FD
:108340002F910F900BBE0F900FBE0F901F9018959E
:108350001F920F920FB60F9211240BB60F922F930C
:108360003F934F935F936F937F938F939F93AF93BD
:10837000BF93EF93FF938091D00082FD06C0809160
:10838000D60061EF75E00E946240FF91EF91BF91CE
:10839000AF919F918F917F916F915F914F913F919D
:1083A0002F910F900BBE0F900FBE0F901F9018953E
:1083B0001F920F920FB60F9211240BB60F922F93AC
:1083C0003F934F935F936F937F938F939F93AF935D
:1083D000BF93EF93FF938091C80082FD06C0809108
:1083E000CE006BE976E00E946240FF91EF91BF9171
:1083F000AF919F918F917F916F915F914F913F913D
:108400002F910F900BBE0F900FBE0F901F901895DD
:108410001F920F920FB60F9211240BB60F922F934B
:108420003F934F935F936F937F938F939F93AF93FC
:10843000BF93EF93FF938091C00082FD06C08091AF
:10844000C60065E477E00E946240FF91EF91BF9122
:10845000AF919F918F917F916F915F914F913F91DC
:108460002F910F900BBE0F900FBE0F901F9018957D
:10847000362F90E0FC01E45DF94F4491FC01E85691
:10848000F74F2491FC01EE5AF74F9491992309F488
:1084900068C0442309F451C050E0FA013197E1313A
:1084A000F10508F04AC08827EF52FF4F8F4F0C9418
:1084B0007C70809180008F7703C0809180008F7DD9
:1084C000809380003AC084B58F7702C084B58F7DD9
:1084D00084BD33C08091B0008F7703C08091B0001D
:1084E0008F7D8093B00029C0809190008F7707C066
:1084F000809190008F7D03C080919000877F809352
:1085000090001BC08091A0008F7707C08091A000D1
:108510008F7D03C08091A000877F8093A0000DC055
:10852000809120018F7707C0809120018F7D03C04B
:1085300080912001877F80932001E92FF0E0EE0FEA
:10854000FF1FE85CF74FA591B4919FB7F8943111E4
:1085500004C08C912095282302C0EC912E2B2C93E3
:108560009FBF0895CF93DF9390E0FC01E856F74F4B
:108570002491FC01EE5AF74F8491882361F190E039
:10858000880F991FFC01EC5FF74FC591D491FC0156
:10859000E85CF74FA591B491611109C09FB7F894B9
:1085A0008881209582238883EC912E230BC0623032
:1085B00061F49FB7F8948881322F309583238883A4
:1085C000EC912E2B2C939FBF06C08FB7F894E881B7
:1085D0002E2B28838FBFDF91CF9108953FB7F8945A
:1085E0008091FF0490910005A0910105B0910205D2
:1085F00026B5A89B05C02F3F19F00196A11DB11DFE
:108600003FBFBA2FA92F982F8827820F911DA11D38
:10861000B11DBC01CD0142E0660F771F881F991F75
:108620004A95D1F708952FB7F8946091FB047091A3
:10863000FC048091FD049091FE042FBF08951F92C9
:108640000F920FB60F9211242F933F938F939F9306
:10865000AF93BF938091FB049091FC04A091FD0423
:10866000B091FE043091FA0423E0230F2D3720F45B
:108670000196A11DB11D05C026E8230F0296A11D7C
:10868000B11D2093FA048093FB049093FC04A09303
:10869000FD04B093FE048091FF0490910005A09129
:1086A0000105B09102050196A11DB11D8093FF0443
:1086B00090930005A0930105B0930205BF91AF917F
:1086C0009F918F913F912F910F900FBE0F901F9010
:1086D00018951F920F920FB60F9211240BB60F929E
:1086E0002F933F934F935F936F937F938F939F93BA
:1086F000AF93BF93EF93FF938091F8049091F904A7
:10870000892B29F0E091F804F091F9041995FF9173
:10871000EF91BF91AF919F918F917F916F915F91F9
:108720004F913F912F910F900BBE0F900FBE0F9066
:108730001F9018951F920F920FB60F9211240BB62F
:108740000F922F933F934F935F936F937F938F93EA
:108750009F93AF93BF93EF93FF938091F604909113
:10876000F704892B29F0E091F604F091F7041995AC
:10877000FF91EF91BF91AF919F918F917F916F91F9
:108780005F914F913F912F910F900BBE0F900FBEB5
:108790000F901F9018951F920F920FB60F921124F1
:1087A0000BB60F922F933F934F935F936F937F93EB
:1087B0008F939F93AF93BF93EF93FF938091EC04BC
:1087C0009091ED04892B29F0E091EC04F091ED04F7
:1087D0001995FF91EF91BF91AF919F918F917F91EB
:1087E0006F915F914F913F912F910F900BBE0F9022
:1087F0000FBE0F901F9018951F920F920FB60F92F9
:1088000011240BB60F922F933F934F935F936F9367
:108810007F938F939F93AF93BF93EF93FF93809139
:10882000EA049091EB04892B29F0E091EA04F0919D
:10883000EB041995FF91EF91BF91AF919F918F91AB
:108840007F916F915F914F913F912F910F900BBE50
:108850000F900FBE0F901F9018951F920F920FB69A
:108860000F9211240BB60F922F933F934F935F9368
:108870006F937F938F939F93AF93BF93EF93FF93E8
:108880008091F4049091F504892B29F0E091F4048F
:10889000F091F5041995FF91EF91BF91AF919F91E0
:1088A0008F917F916F915F914F913F912F910F9099
:1088B0000BBE0F900FBE0F901F9018951F920F9236
:1088C0000FB60F9211240BB60F922F933F934F9335
:1088D0005F936F937F938F939F93AF93BF93EF9328
:1088E000FF938091F2049091F304892B29F0E09199
:1088F000F204F091F3041995FF91EF91BF91AF91BC
:108900009F918F917F916F915F914F913F912F91A7
:108910000F900BBE0F900FBE0F901F9018951F92D7
:108920000F920FB60F9211240BB60F922F933F9315
:108930004F935F936F937F938F939F93AF93BF9367
:10894000EF93FF938091F0049091F104892B29F02B
:10895000E091F004F091F1041995FF91EF91BF912E
:10896000AF919F918F917F916F915F914F913F91C7
:108970002F910F900BBE0F900FBE0F901F90189568
:108980001F920F920FB60F9211240BB60F922F93D6
:108990003F934F935F936F937F938F939F93AF9387
:1089A000BF93EF93FF938091EE049091EF04892B96
:1089B00029F0E091EE04F091EF041995FF91EF9109
:1089C000BF91AF919F918F917F916F915F914F91E7
:1089D0003F912F910F900BBE0F900FBE0F901F90E5
:1089E0001895FC01808191810C94846DCF93DF9365
:1089F0002091E50A222309F491C0EC011092E50AC6
:108A000064ED73E00E94126E892B89F481E08093FB
:108A1000740421E030E030937304209372043093A7
:108A2000E9042093E80480933E0C85E215C06CE7CE
:108A300072E0CE010E94126E892B89F481E080934E
:108A4000740410927304109272041092E90410924C
:108A5000E80480933E0C86E28093D50B5AC064E70D
:108A600072E0CE010E94126E892BB9F481E08093EE
:108A7000740483E090E0909373048093720481E027
:108A800090E09093E9048093E8046BE074E089E857
:108A900097E0DF91CF910C94915562E872E0CE019E
:108AA0000E94126E892B31F481E08093740483E07C
:108AB00090E00CC067E173E0CE010E94126E892B3A
:108AC00091F481E08093740484E090E090937304C7
:108AD0008093720481E090E09093E9048093E8042D
:108AE00010923E0C16C069ED73E0CE010E94126E2A
:108AF000892BA1F481E08093740485E090E0909349
:108B000073048093720481E090E09093E904809371
:108B1000E804CE01DF91CF910C946427DF91CF91CF
:108B200008958F929F92AF92BF92CF92DF92EF9271
:108B3000FF920F931F938091E50A8823B1F1109261
:108B4000E50A20E030E040EC5FE36091E60B7091D5
:108B5000E70B8091E80B9091E90B0E94C86B6B01C9
:108B60007C0120E030E04CE552E46091E20B709132
:108B7000E30B8091E40B9091E50B0E94C86B4B01D5
:108B80005C0120E030E04CE552E46091DE0B709136
:108B9000DF0B8091E00B9091E10B0E94C86B870185
:108BA0007601A50194010E9411271F910F91FF905A
:108BB000EF90DF90CF90BF90AF909F908F900895EF
:108BC000CF93DF936DE089E897E00E948A55EC012E
:108BD0006AE089E897E00E948A558C0F9D1FDF911B
:108BE000CF910895EF92FF920F931F93CF93DF934E
:108BF0007C01FB0100E010E06491EF012196662307
:108C000039F0C7010E94B93F080F191FFE01F4CFC8
:108C1000C801DF91CF911F910F91FF90EF900895C0
:108C2000CF93DF93BC0189E897E00E94F245EC0105
:108C30000E94E0458C0F9D1FDF91CF910895AB01FD
:108C4000770F660B770B77FD0C94EC262AE00C94DB
:108C5000A6558F929F92AF92BF92CF92DF92EF92E2
:108C6000FF920F931F93CF93DF936B017C01142F1F
:108C70009B01AC010E942D70882319F06DE174E016
:108C800027C046015701E894B7F82FEF3FEF4FE7B1
:108C90005FE7C501B4010E942D7081110DC02FEF57
:108CA0003FEF4FE75FE7C501B4010E94626B181602
:108CB0001CF461E274E00CC02FEF3FEF4FE75FE47C
:108CC000C701B6010E941470181694F465E274E0AE
:108CD00089E897E0DF91CF911F910F91FF90EF907E
:108CE000DF90CF90BF90AF909F908F900C94915554
:108CF0002FEF3FEF4FE75FECC701B6010E94626BB9
:108D000087FDE4CF20E030E0A901C701B6010E9451
:108D1000626B87FF0BC06DE289E897E00E948A557D
:108D2000EC01F7FAF094F7F8F09402C0C0E0D0E05C
:108D300000E060E070E080E09FE3101741F020E089
:108D400030E040E251E40E94066F0F5FF6CFA701CA
:108D500096010E94236E6B017C010E947F6F4B0184
:108D60005C012AE0AB01BC0189E897E00E94A655AE
:108D7000C80FD91F112309F444C0C501B4010E94D2
:108D8000676B9B01AC01C701B6010E94226E6B01AB
:108D90007C0169E274E089E897E00E949155C80F70
:108DA000D91F20E030E040E251E4C701B6010E9443
:108DB000C86B4B015C010E94786F6B01770FEE0866
:108DC000FF08F7FE07C0B701A60189E897E00E94F7
:108DD000EC2607C02AE0B701A60189E897E00E94C7
:108DE000A655C80FD91FC701B6010E94696B9B0128
:108DF000AC01C501B4010E94226E6B017C011150CF
:108E000081F6CE01DF91CF911F910F91FF90EF90EE
:108E1000DF90CF90BF90AF909F908F9008958F92EA
:108E20009F92AF92BF92CF92DF92EF92FF920F93F9
:108E30001F93CF93DF93CDB7DEB7C558D1090FB6D7
:108E4000F894DEBF0FBECDBF81E080932F0CCE0122
:108E500001960E94A02D09A11AA12BA13CA14DA110
:108E60005EA16FA178A589A59AA50E94092D60939E
:108E7000FA0B7093FB0B8093FC0B9093FD0B00E0BF
:108E800010E020EA31E40093D60B1093D70B209327
:108E9000D80B3093D90B27ED33EB4DE55FE30E9400
:108EA000C86B6093F60B7093F70B8093F80B90935D
:108EB000F90B8091300C882349F08091AC0C909193
:108EC000AD0CA091AE0CB091AF0C04C080E090E06E
:108ED000A0E4BFE38093E60B9093E70BA093E80B2D
:108EE000B093E90B81E080932A0C2091140C30910F
:108EF000150C232B09F4AEC080932B0C80911A0C17
:108F000090911B0C8130910509F046C02091E60B31
:108F10003091E70B4091E80B5091E90BA12CB12C5B
:108F2000C12CD12C1AE9E12E19E9F12E09ED1FE32C
:108F300062E97AE086E89FE30E94C62A8091E60B08
:108F40009091E70BA091E80BB091E90B9C01AD016A
:108F50005058CC24C394D12C16E6E12EFE2C06EEFC
:108F60001FE362E97AE086E89FE30E94C62A8091C7
:108F7000E60B9091E70BA091E80BB091E90B9C01F7
:108F8000AD01505892E0C92ED12C62E97AE086E812
:108F90009FE30E94C62A5EC09C0122503109223004
:108FA000310578F5812C912C43E3A42EBA2CCA2CE0
:108FB0004FE3D42EE12CF12C00E01FEB2DEC3CEC28
:108FC0004CEC5EE360E070E080E292E40E94092AEB
:108FD00088248394912CE12CF12C00E01FE32DECEC
:108FE0003CEC4CEC5EE360E070E080E292E40E94D6
:108FF000092AE2E08E2E912CE12CF12C00E81FE3EF
:109000001FC0049739F5812C912C83E3A82EBA2C2C
:10901000CA2C8FE3D82EE12CF12C00E01FEB2DECB5
:109020003CEC4CEC5EE360E070E080E292E40E9495
:10903000092A88248394912CE12CF12C00E01FE371
:109040002DEC3CEC4CEC5EE360E070E080E292E4FE
:109050000E94092A8091400C9091410C8330910527
:1090600049F480911A0C90911B0C0497E9F085E16A
:1090700099E00AC00297C1F480911A0C90911B0CE0
:10908000049791F48AE099E00E9410461092570CE0
:109090001092560C1092150C1092140C0E94482835
:1090A0001092410C1092400CCE0183589F4F0E94A9
:1090B000F144CB57DF4F0FB6F894DEBF0FBECDBFE4
:1090C000DF91CF911F910F91FF90EF90DF90CF90A4
:1090D000BF90AF909F908F9008958F929F92AF9284
:1090E000BF92CF92DF92EF92FF920F931F93CF9395
:1090F000DF93CDB7DEB7C558D1090FB6F894DEBF00
:109100000FBECDBF81E080932F0CCE0101960E944F
:10911000A02D09A11AA12BA13CA14DA15EA16FA177
:1091200078A589A59AA50E94092D6093FA0B7093E2
:10913000FB0B8093FC0B9093FD0B00E010E020EA0A
:1091400031E40093D60B1093D70B2093D80B3093B8
:10915000D90B27ED33EB4DE55FE30E94C86B6093BD
:10916000F60B7093F70B8093F80B9093F90B8091AB
:10917000300C882349F08091AC0C9091AD0CA091FB
:10918000AE0CB091AF0C04C080E090E0A0E4BFE36F
:109190008093E60B9093E70BA093E80BB093E90B59
:1091A00081E080932A0C2091140C3091150C232B14
:1091B00009F4AEC080932B0C80911A0C90911B0C7B
:1091C0008130910509F046C02091E60B3091E70B04
:1091D0004091E80B5091E90BA12CB12CC12CD12C62
:1091E0001AE9E12E19E9F12E09ED1FE362E97AE0AF
:1091F00086E89FE30E94C62A8091E60B9091E70BD8
:10920000A091E80BB091E90B9C01AD015058CC2422
:10921000C394D12C16E6E12EFE2C06EE1FE362E984
:109220007AE086E89FE30E94C62A8091E60B90913F
:10923000E70BA091E80BB091E90B9C01AD015058F0
:1092400092E0C92ED12C62E97AE086E89FE30E9481
:10925000C62A5EC09C01225031092230310578F5C2
:10926000812C912C43E3A42EBA2CCA2C4FE3D42E8C
:10927000E12CF12C00E01FEB2DEC3CEC4CEC5EE320
:1092800060E070E080E292E40E94092A88248394DE
:10929000912CE12CF12C00E01FE32DEC3CEC4CEC8C
:1092A0005EE360E070E080E292E40E94092AE2E07E
:1092B0008E2E912CE12CF12C00E81FE31FC00497A7
:1092C00039F5812C912C83E3A82EBA2CCA2C8FE37C
:1092D000D82EE12CF12C00E01FEB2DEC3CEC4CECFB
:1092E0005EE360E070E080E292E40E94092A882454
:1092F0008394912CE12CF12C00E01FE32DEC3CEC4D
:109300004CEC5EE360E070E080E292E40E94092AA7
:109310008091400C9091410C8330910549F48091EB
:109320001A0C90911B0C0497E9F08FEF98E00AC09B
:109330000297C1F480911A0C90911B0C049791F440
:1093400084EF98E00E9410461092570C1092560C31
:109350001092150C1092140C0E9448281092410C87
:109360001092400CCE0183589F4F0E94F144CB577E
:10937000DF4F0FB6F894DEBF0FBECDBFDF91CF91A8
:109380001F910F91FF90EF90DF90CF90BF90AF9023
:109390009F908F9008958F929F92AF92BF92CF929D
:1093A000DF92EF92FF920F931F93CF93DF93CDB78E
:1093B000DEB7C558D1090FB6F894DEBF0FBECDBFDA
:1093C00081E080932F0CCE0101960E94A02D09A16F
:1093D0001AA12BA13CA14DA15EA16FA178A589A5E1
:1093E0009AA50E94092D6093FA0B7093FB0B809352
:1093F000FC0B9093FD0B00E010E020EA31E40093B9
:10940000D60B1093D70B2093D80B3093D90B27EDA5
:1094100033EB4DE55FE30E94C86B6093F60B7093EE
:10942000F70B8093F80B9093F90B8091300C882305
:1094300049F08091AC0C9091AD0CA091AE0CB09124
:10944000AF0C04C080E090E0A0E4BFE38093E60BA3
:109450009093E70BA093E80BB093E90B81E0809326
:109460002A0C2091140C3091150C232B09F4AEC05A
:1094700080932B0C80911A0C90911B0C81309105DC
:1094800009F046C02091E60B3091E70B4091E80BC4
:109490005091E90BA12CB12CC12CD12C1AE9E12E51
:1094A00019E9F12E09ED1FE362E97AE086E89FE30E
:1094B0000E94C62A8091E60B9091E70BA091E80BE1
:1094C000B091E90B9C01AD015058CC24C394D12C30
:1094D00016E6E12EFE2C06EE1FE362E97AE086E84E
:1094E0009FE30E94C62A8091E60B9091E70BA09122
:1094F000E80BB091E90B9C01AD01505892E0C92EE8
:10950000D12C62E97AE086E89FE30E94C62A5EC019
:109510009C01225031092230310578F5812C912CA3
:1095200043E3A42EBA2CCA2C4FE3D42EE12CF12C09
:1095300000E01FEB2DEC3CEC4CEC5EE360E070E0F7
:1095400080E292E40E94092A88248394912CE12CE1
:10955000F12C00E01FE32DEC3CEC4CEC5EE360E012
:1095600070E080E292E40E94092AE2E08E2E912CC3
:10957000E12CF12C00E81FE31FC0049739F5812C82
:10958000912C83E3A82EBA2CCA2C8FE3D82EE12C81
:10959000F12C00E01FEB2DEC3CEC4CEC5EE360E0CA
:1095A00070E080E292E40E94092A88248394912C3E
:1095B000E12CF12C00E01FE32DEC3CEC4CEC5EE3E5
:1095C00060E070E080E292E40E94092A8091400C01
:1095D0009091410C8330910549F480911A0C90913F
:1095E0001B0C0497E9F089EE98E00AC00297C1F4D9
:1095F00080911A0C90911B0C049791F48EED98E0D9
:109600000E9410461092570C1092560C1092150C96
:109610001092140C0E9448281092410C1092400C99
:10962000CE0183589F4F0E94F144CB57DF4F0FB6B6
:10963000F894DEBF0FBECDBFDF91CF911F910F9188
:10964000FF90EF90DF90CF90BF90AF909F908F9062
:109650000895CF92DF92EF92FF920F931F93CF93D3
:10966000DF938091F70D9091F80D8230910591F084
:1096700034F4009761F0019709F470C17BC1833025
:10968000910509F44AC0049709F4BCC073C10E9453
:10969000CB5470C10E945C6925E030E040E050E0AE
:1096A0000E94896C77FD66C16330710524F06530D6
:1096B0007105D4F05FC180E090E00E940651FC018A
:1096C0009AE0AAE9BCE001900D929A95E1F7209109
:1096D000A00C3091A10C8091B00C9091B10C281786
:1096E000390709F047C137C181E090E00E94065177
:1096F000FC019AE0AAE9BCE001900D929A95E1F78D
:109700002091A00C3091A10C8091B00C9091B10CE3
:109710002817390709F02EC121C10E945C6922E097
:1097200030E040E050E00E94896CEB010E945C69EF
:1097300024E030E040E050E00E94896C6230710526
:1097400039F11CF477FF05C015C163307105D9F1FB
:1097500011C180E090E00E940651FC019AE0AAE964
:10976000BCE001900D929A95E1F72091A00C309108
:10977000A10C8091B00C9091B10C2817390709F019
:10978000F9C0209709F4E7C0219709F4E1C0F2C0BD
:1097900081E090E00E940651FC019AE0AAE9BCE059
:1097A00001900D929A95E1F72091A00C3091A10CB7
:1097B0008091B00C9091B10C2817390709F0DAC0EC
:1097C0002097E1F4C5C082E090E00E940651FC01C0
:1097D0009AE0AAE9BCE001900D929A95E1F72091F8
:1097E000A00C3091A10C8091B00C9091B10C281775
:1097F000390709F0BFC0209709F4ADC0219709F4DB
:10980000ADC0B8C00E945C696B017C010E945C69BC
:1098100023E030E040E050E00E94896CEB01C7019A
:10982000B60125E030E040E050E00E94896C6230F3
:10983000710589F11CF477FF0AC09CC06330710583
:1098400009F445C06430710509F463C093C080E039
:1098500090E00E940651FC019AE0AAE9BCE0019068
:109860000D929A95E1F72091A00C3091A10C809176
:10987000B00C9091B10C2817390709F07BC0C130AA
:10988000D10509F465C0C230D10509F43FC0CD2B24
:1098900009F070C060C081E090E00E940651FC01B8
:1098A0009AE0AAE9BCE001900D929A95E1F7209127
:1098B000A00C3091A10C8091B00C9091B10C2817A4
:1098C000390709F057C0C130D105E9F51FC082E062
:1098D00090E00E940651FC019AE0AAE9BCE00190E8
:1098E0000D929A95E1F72091A00C3091A10C8091F6
:1098F000B00C9091B10C28173907E1F5C130D105B2
:1099000051F1C230D10551F1CD2BA1F583E090E0AA
:1099100027C083E090E00E940651FC019AE0AAE98A
:10992000BCE001900D929A95E1F72091A00C309146
:10993000A10C8091B00C9091B10C28173907D1F48B
:10994000C130D10541F0C230D10541F0CD2B91F4A9
:1099500082E090E005C081E090E002C080E090E00D
:109960000E940651FC019AE0AAE9BCE001900D9228
:109970009A95E1F78091F70D9091F80D1816190658
:109980000CF010C1C091A00CD091A10CC230D10537
:1099900009F44DC020F4C130D10551F003C1C330EA
:1099A000D10509F46AC0C430D10509F49EC0FAC0DB
:1099B000D093B30CC093B20C0091F90D1091FA0D35
:1099C0002091FB0D3091FC0D4091FD0D5091FE0D4D
:1099D0006091FF0D7091000E8091010E9091020E2A
:1099E0000E94092D6093F60B7093F70B8093F80B90
:1099F0009093F90B0E945C692AE030E040E050E06F
:109A00000E94896C70934B0C60934A0C77FDCAC01E
:109A10006530710534F0665071096430710508F0E5
:109A2000C1C01092470C1092460C89E1B9C0D09386
:109A3000B30CC093B20C0091030E1091040E209150
:109A4000050E3091060E4091070E5091080E609160
:109A5000090E70910A0E80910B0E90910C0E0E94CF
:109A6000092D6093F60B7093F70B8093F80B90938E
:109A7000F90B1092370C81E093C0D093B30CC093D4
:109A8000B20C00910D0E10910E0E20910F0E309120
:109A9000100E4091110E5091120E6091130E7091A4
:109AA000140E8091150E9091160E0E94092D609350
:109AB000F60B7093F70B8093F80B9093F90B0E94C1
:109AC0005C692AE030E040E050E00E94896C7093CD
:109AD0004B0C60934A0C6A30710508F063C0109219
:109AE000470C1092460C8AE15BC00091170E109152
:109AF000180E2091190E30911A0E40911B0E5091A4
:109B00001C0E60911D0E70911E0E80911F0E909183
:109B1000200E0E94092D6093F60B7093F70B809333
:109B2000F80B9093F90B0E945C6925E030E040E06F
:109B300050E00E94896C70934F0C60934E0C0E9411
:109B40005C6922E030E040E050E00E94896C709354
:109B5000530C6093520C0E945C6926E030E040E0B8
:109B600050E00E94896C7093510C6093500C80916E
:109B70004E0C90914F0C97FD15C08330910544F029
:109B8000059784F4D093B30CC093B20C82E008C064
:109B90001092B30C1092B20C81E08093370C02C08B
:109BA0008093D50BDF91CF911F910F91FF90EF9094
:109BB000DF90CF900895CF92DF92EF92FF920F93B4
:109BC0001F93CF93DF9381E080932D0C8091710ED2
:109BD0009091720E0197D9F40E941343E091960C74
:109BE000F091970C07A110A521A532A5C0906C0C8F
:109BF000D0906D0CE0906E0CF0906F0C0C0D1D1D54
:109C00002E1D3F1D601771078207930720F1C09139
:109C1000710ED091720EC130D10509F0B4C10E940D
:109C20001343E091960CF091970C07A110A521A584
:109C300032A5C0906C0CD0906D0CE0906E0CF09042
:109C40006F0C0C0D1D1D2E1D3F1D06171707280735
:109C50003907D8F098C183E499E00E9410460E9429
:109C60005C6923E030E040E050E00E94896CDC0158
:109C7000CB010296A11DB11D9093550C8093540CFD
:109C80001092430C1092420C19C265E574E089E809
:109C900097E00E9491558091940C9091950C0E94B0
:109CA00015248091940C9091950CFC01EE5BFF4F74
:109CB00010821182128213823496108211821282D3
:109CC000138234961082118212821382D093430C35
:109CD000C093420C1092470C1092460C0E945C6993
:109CE00032E0C32ED12CE12CF12CA70196010E9469
:109CF000896CEB010E945C690E945C6902E91AE0D0
:109D000026E030E40093100C1093110C2093120CF9
:109D10003093130C11E01093310CA70196010E94AF
:109D2000896C672B11F41093350CE091960CF0912F
:109D3000970C858581110FC02091420C3091430C06
:109D40008091540C9091550C2817390771F410929A
:109D5000430C1092420C0E941343E091960CF09138
:109D6000970C67A370A781A792A7CD2B09F007C115
:109D7000C2C0049709F421C18091710E9091720EB6
:109D8000049709F449C18091710E9091720E039766
:109D900009F474C18091710E9091720E039709F0CD
:109DA00097C10E941343E091960CF091970C03A584
:109DB00014A525A536A5C090700CD090710CE0902C
:109DC000720CF090730C0C0D1D1D2E1D3F1D0617FF
:109DD00017072807390708F07BC165E574E089E8B3
:109DE00097E00E9491558091940C9091950C0E945F
:109DF00015248091940C9091950CFC01EE5BFF4F23
:109E00001082118212821382349610821182128281
:109E100013823496108211821282138280E299E0BA
:109E20000E9410466FE574E089E897E00E94915522
:109E3000E091960CF091970C43A554A565A576A5E5
:109E40002AE089E897E00E94A6551092470C1092EC
:109E5000460C0E945C6922E0C22ED12CE12CF12C30
:109E6000A70196010E94896C8B010E945C6923E026
:109E700030E040E050E00E94896CEB010E945C6998
:109E8000A70196010E94896C672B19F081E08093ED
:109E9000350C42E9C42E4AE0D42E46E0E42E40E4DC
:109EA000F42EC092100CD092110CE092120CF09291
:109EB000130C0E941343E091960CF091970C63A74A
:109EC00074A785A796A7C130D10509F484C1C23013
:109ED000D10509F485C1CD2B41F4C092100CD0926C
:109EE000110CE092120CF092130C81E08093310C73
:109EF000012B09F044C08CE143C08530910509F085
:109F0000F9C08091940C9091950C0E941524809139
:109F1000940C9091950CFC01E65BFF4F108211822E
:109F20001282138238971082118212821382349621
:109F300010821182128213821092430C1092420CF2
:109F400086E394E00E94B72A0E945C690BED1FE053
:109F500029E430E40093100C1093110C2093120CA0
:109F60003093130C1092470C1092460C22E030E014
:109F700040E050E00E94896C672B09F4BCCF8BE174
:109F80008093D50B3AC18091710E9091720E823000
:109F9000910509F0EECE1092430C1092420C8AE328
:109FA00099E00E941046DF91CF911F910F91FF9091
:109FB000EF90DF90CF900C94CB540E941343E0912C
:109FC000960CF091970C07A510A921A932A9C09071
:109FD000740CD090750CE090760CF090770C0C0D12
:109FE0001D1D2E1D3F1D601771078207930708F086
:109FF000C3CE80E399E00E9410460E94482881E089
:10A000008093310CDF91CF911F910F91FF90EF90D2
:10A01000DF90CF900C940F530E941343E091960C65
:10A02000F091970C07A510A921A932A9C090740C32
:10A03000D090750CE090760CF090770C0C0D1D1DF7
:10A040002E1D3F1D061717072807390708F09BCE5E
:10A0500065E574E089E897E00E94915581E080937E
:10A06000310C0E940F530E941343E091960CF09123
:10A07000970C67A770AB81AB92ABBFC00E94134334
:10A08000E091960CF091970C03A514A525A536A593
:10A09000C090700CD090710CE090720CF090730C2A
:10A0A0000C0D1D1D2E1D3F1D6017710782079307A4
:10A0B00008F070CE88E299E00E941046DF91CF91BF
:10A0C0001F910F91FF90EF90DF90CF900C94482854
:10A0D0008091710E9091720E8630910509F00DCF2E
:10A0E0001092430C1092420C8BE294E00E94B72A2B
:10A0F00081E046CF87309105D1F41092430C109245
:10A10000420C80E494E00E94B72A81E090E09093B2
:10A11000470C8093460C0E94134360937C0C709311
:10A120007D0C80937E0C90937F0C89E129CF883041
:10A13000910589F41092430C1092420C8AEF98EC2E
:10A14000A5EEBEE38093100C9093110CA093120C1B
:10A15000B093130CD0CE8930910549F41092430C82
:10A160001092420C8BED9FE0A9ECBEE328C08A3030
:10A170009105D1F41092430C1092420C8AE494E0C1
:10A180000E94B72A81E090E09093470C8093460CA0
:10A190000E94134360937C0C70937D0C80937E0C23
:10A1A00090937F0C8AE1ECCE8B30910589F410926C
:10A1B000430C1092420C8AEF98ECA5EEBEE380931C
:10A1C000100C9093110CA093120CB093130CD7CEDB
:10A1D0000C9799F4C3CF87E39DE8A7E2B0E404C0ED
:10A1E0008BED9FE0A9E4B0E48093100C9093110CE8
:10A1F000A093120CB093130C78CEDF91CF911F91E6
:10A200000F91FF90EF90DF90CF9008952091770EFF
:10A210003091780E8217930710F00E940D6E4AE07D
:10A22000489F9001499F300D11248091730E9091A9
:10A23000740E820F931F08958F929F92AF92BF92D8
:10A24000CF92DF92EF92FF920F931F93CF93DF9302
:10A250008091280C882351F08091230C882331F0C1
:10A260008AE699E00E9410461092230CC1E0C09348
:10A27000360CE091960CF091970CC68780912D0CCE
:10A28000811128C080912C0C811104C14091F90DDD
:10A290005091FA0D141615060CF06FC12091030EA3
:10A2A0003091040E121613060CF067C180910D0E4A
:10A2B00090910E0E181619060CF05FC14930510529
:10A2C00034F0283031051CF009970CF056C10E947B
:10A2D000482853C18091310C882309F480C0009133
:10A2E000030E1091040E2091050E3091060E409140
:10A2F000070E5091080E6091090E70910A0E809120
:10A300000B0E90910C0E0E94092D80E090E0A0EAC7
:10A31000B1E48093D60B9093D70BA093D80BB09356
:10A32000D90B4091F90D5091FA0D141615060CF049
:10A3300024C12091030E3091040E121613060CF066
:10A340001CC180910D0E90910E0E181619060CF07E
:10A3500014C1493051050CF46BC0283031050CF4A0
:10A3600067C009970CF464C0E091940CF091950CCF
:10A37000EE5BFF4FC080D180E280F3808090F60BCF
:10A380009090F70BA090F80BB090F90B20E030E024
:10A3900040E751E4C501B4010E94066FA701960190
:10A3A0000E94626B87FF06C080910B0E90910C0E8D
:10A3B0000897F4F520E030E040E351E4C501B40132
:10A3C0000E94066FA70196010E94626B87FFD5C0AD
:10A3D00080910B0E90910C0E079754F1CEC080E047
:10A3E00090E0A0EAB1E48093D60B9093D70BA093B2
:10A3F000D80BB093D90B8091F90D9091FA0D1816E6
:10A4000019060CF0BAC009979CF08091030E909148
:10A41000040E08976CF080910D0E90910E0E099726
:10A420003CF08091710E9091720E069709F4A5C0D0
:10A4300082E090E09093410C8093400C8091B40CAA
:10A440009091B50C2091B60C3091B70C81309105EC
:10A45000E1F08330910531F42115310519F44AE119
:10A460004093D50B2130310529F4892B09F085C0A3
:10A470008CE108C02330310509F07FC0892B09F039
:10A480007CC08BE18093D50B78C02115310551F745
:10A4900089E1F8CF0E945C6924E030E040E050E0C0
:10A4A0000E94896C7093490C6093480C77FD0BC037
:10A4B0006230710534F0643071052CF4C093330CB4
:10A4C00002C01092330C8091F90D9091FA0DC09159
:10A4D000940CD091950CC090F60BD090F70BE090B7
:10A4E000F80BF090F90B09976CF18091030E9091A5
:10A4F000040E08973CF180910D0E90910E0E099775
:10A500000CF120E030E04CE852E4C701B6010E94B3
:10A51000147087FD32C08091330C882371F120E0E4
:10A5200030E040EC5FE3C701B6010E94066FFE0118
:10A53000EE5BFF4F20813181428153810E94626B2B
:10A540001816DCF082E090E09093410C8093400C70
:10A550008091B20C9091B30C8130910509F040C00C
:10A5600089E18093D50B20E030E04CE852E4C7014C
:10A57000B6010E94147087FF37C0C091940CD0912F
:10A58000950C21ED3FE54DE75EE36091D60B7091B0
:10A59000D70B8091D80B9091D90B0E94C86B688320
:10A5A00079838A839B83C12CD12CE12C20E8F22E65
:10A5B000CC82DD82EE82FF82DC01CB01B05888873D
:10A5C0009987AA87BB87DF91CF911F910F91FF9049
:10A5D000EF90DF90CF90BF90AF909F908F900895B5
:10A5E000039709F68AE1BDCF8091330C882329F2C5
:10A5F00020E030E040EC5FE3C701B6010E94066F47
:10A60000CE5BDF4F288139814A815B810E94626B7A
:10A6100018160CF4B2CF81E08093290CAECF8F9244
:10A620009F92AF92BF92CF92DF92EF92FF920F93E1
:10A630001F93CF93DF9386E599E00E9410468091A7
:10A64000280C882351F08091230C882331F08BE46F
:10A6500099E00E9410461092230CC1E0C093360C82
:10A66000E091960CF091970CC68780912D0C81118A
:10A6700028C080912C0C8111D4C04091F90D5091CB
:10A68000FA0D141615060CF036C12091030E309108
:10A69000040E121613060CF02EC180910D0E90912F
:10A6A0000E0E181619060CF026C1493051050CF48F
:10A6B00020C1283031050CF41CC109970CF419C1D4
:10A6C0001AC18091310C882309F482C00091030ED5
:10A6D0001091040E2091050E3091060E4091070E48
:10A6E0005091080E6091090E70910A0E80910B0E28
:10A6F00090910C0E0E94092D80E090E0A0EAB1E458
:10A700008093D60B9093D70BA093D80BB093D90B13
:10A710004091F90D5091FA0D141615060CF0EBC08E
:10A720002091030E3091040E121613060CF0E3C0B4
:10A7300080910D0E90910E0E181619060CF0DBC0CC
:10A74000493051050CF4D5C0283031050CF4D1C086
:10A7500009970CF4CEC0E091940CF091950CEE5B4F
:10A76000FF4FC080D180E280F3808090F60B909004
:10A77000F70BA090F80BB090F90B20E030E040E729
:10A7800051E4C501B4010E94066FA70196010E9421
:10A79000626B87FF07C080910B0E90910C0E08979B
:10A7A0000CF0A7C020E030E040E351E4C501B40163
:10A7B0000E94066FA70196010E94626B87FF9BC0F3
:10A7C00080910B0E90910C0E07970CF492C093C0E1
:10A7D00080E090E0A0EAB1E48093D60B9093D70B91
:10A7E000A093D80BB093D90B8091F90D9091FA0DED
:10A7F00009970CF47EC08091030E9091040E089787
:10A800000CF477C080910D0E90910E0E09970CF408
:10A8100070C08091710E9091720E069709F069C018
:10A820006AC00E945C6924E030E040E050E00E9491
:10A83000896C7093490C6093480C77FD0BC06230B3
:10A84000710534F0643071052CF4C093330C02C0F0
:10A850001092330C8091F90D9091FA0DC090F60B87
:10A86000D090F70BE090F80BF090F90B099784F17A
:10A870008091030E9091040E089754F180910D0E73
:10A8800090910E0E099724F120E030E04CE852E45C
:10A89000C701B6010E94147087FD2DC08091330C52
:10A8A000882349F120E030E040EC5FE3C701B601C6
:10A8B0000E94066FE091940CF091950CEE5BFF4FB7
:10A8C00020813181428153810E94626B18169CF075
:10A8D00020E030E04CE852E4C701B6010E94147059
:10A8E00087FD04C08091330C81113AC081E08093D0
:10A8F0003E0C0E94482810923E0CC091940CD091BE
:10A90000950C21ED3FE54DE75EE36091D60B70912C
:10A91000D70B8091D80B9091D90B0E94C86B68839C
:10A9200079838A839B83C12CD12CE12C20E8F22EE1
:10A93000CC82DD82EE82FF82DC01CB01B0588887B9
:10A940009987AA87BB87DF91CF911F910F91FF90C5
:10A95000EF90DF90CF90BF90AF909F908F90089531
:10A9600020E030E040EC5FE3C701B6010E94066FD3
:10A97000E091940CF091950CEE5BFF4F20813181BA
:10A98000428153810E94626B18160CF4AFCF81E0B4
:10A990008093290CABCF8F929F92AF92BF92CF92B0
:10A9A000DF92EF92FF9280912C0C882319F081E0C6
:10A9B0008093380C80912D0C882319F081E08093CE
:10A9C0003D0C0E945C694B015C010E945C696B015B
:10A9D0007C010E945C6941E04093240C4093230C6D
:10A9E0002091F90D3091FA0D121613060CF060C08B
:10A9F0002091340C211129C04093340CC501B401BD
:10AA00002AE030E040E050E00E94896CCB01770FF3
:10AA1000AA0BBB0B8A30910580F4FC018827EE510C
:10AA2000FF4F8F4F0C947C708FE005C080E103C016
:10AA30008BE001C08CE08093D50B8091D50B90E02A
:10AA400090934D0C80934C0C33C01092340C209199
:10AA50004C0C20FD17C0C701B60125E030E040E0F6
:10AA600050E00E94896C6130710541F01CF4672B45
:10AA700039F01EC0653071051CF01AC08FE016C099
:10AA80008BE014C025E030E040E050E00E94896C8B
:10AA90006130710541F01CF4672B39F009C0653055
:10AAA00071051CF005C080E101C08CE08093D50BDE
:10AAB000FF90EF90DF90CF90BF90AF909F908F90DE
:10AAC0000895CF92DF92EF92FF920F931F93CF934F
:10AAD000DF936C01EB017B01E40EF51E00E010E05A
:10AAE000CE15DF0561F06991D601ED91FC910190E1
:10AAF000F081E02DC6011995080F191FF1CFC8018B
:10AB0000DF91CF911F910F91FF90EF90DF90CF9049
:10AB100008950895DC01ED91FC910190F081E02D04
:10AB200019946115710579F0FB0101900020E9F796
:10AB30003197AF01461B570BDC01ED91FC91028070
:10AB4000F381E02D199480E090E008958F929F9218
:10AB5000AF92BF92CF92DF92EF92FF920F931F932B
:10AB6000CF93DF93CDB7DEB7A1970FB6F894DEBFD2
:10AB70000FBECDBF6C01142FE52FCB01022F19A200
:10AB8000223008F40AE07E0121E2E20EF11C802E60
:10AB9000912CA12CB12C612F7E2FA50194010E9434
:10ABA000BB6C029F1019112481E0E81AF1081A30D9
:10ABB00014F4105D01C0195CF7011083122FE32F0C
:10ABC000CA01232B242B252B31F7B701C6010E9484
:10ABD0009155A1960FB6F894DEBF0FBECDBFDF91A1
:10ABE000CF911F910F91FF90EF90DF90CF90BF908A
:10ABF000AF909F908F900895789484B5826084BDC3
:10AC000084B5816084BD85B5826085BD85B5816070
:10AC100085BD80916E00816080936E0010928100EE
:10AC200080918100826080938100809181008160A9
:10AC3000809381008091800081608093800080916A
:10AC4000B10084608093B1008091B00081608093F6
:10AC5000B00080919100826080939100809191007A
:10AC6000816080939100809190008160809390003A
:10AC70008091A10082608093A1008091A1008160F9
:10AC80008093A1008091A00081608093A0008091BA
:10AC90002101826080932101809121018160809354
:10ACA00021018091200181608093200180917A00B0
:10ACB000846080937A0080917A00826080937A0029
:10ACC00080917A00816080937A0080917A00806818
:10ACD00080937A001092C100E0919D07F0919E0749
:10ACE00081E090E09C010090A90702C0220F331F71
:10ACF0000A94E2F72083E0919907F0919A07108275
:10AD0000E0919B07F0919C0720E120831092AA0715
:10AD1000E0919F07F091A00740819C010090A5075A
:10AD200002C0220F331F0A94E2F7242B2083E09104
:10AD30009F07F091A00740819C010090A60702C0E8
:10AD4000220F331F0A94E2F7242B2083E0919F0700
:10AD5000F091A00740819C010090A70702C0220F3C
:10AD6000331F0A94E2F7242B2083E0919F07F09190
:10AD7000A00720810090A80702C0880F991F0A949D
:10AD8000E2F780958223808363E075E089E897E0AD
:10AD90000E94F24589E897E00E94FB3F1092F50D72
:10ADA0001092F40D1092F30D1092F20D1092F10D1D
:10ADB0001092F00D1092EF0D1092EE0D87E694E0D8
:10ADC00020E030E0FC014591559165917491403847
:10ADD00055426105710559F54CE0429FC001439F02
:10ADE000900D1124FC01E559FB4F259134913093CE
:10ADF000EF0D2093EE0DFC01E359FB4F25913491AB
:10AE00003093F10D2093F00DFC01E159FB4F25919A
:10AE100034913093F30D2093F20DFC01EF58FB4F6A
:10AE2000859194919093F50D8093F40D07C02F5F59
:10AE30003F4F0C962D30310509F0C4CF8091F20DB3
:10AE40009091F30D892B09F463C08091E70D26EFF3
:10AE5000280F243048F09EEC980F943028F092ECA4
:10AE6000980F983008F04EC030916800243050F0B0
:10AE70009EEC980F943030F092EC980F983010F4CC
:10AE800094E001C091E0932B9093680096EF980FA7
:10AE9000943058F02EEC280F243038F022EC280F94
:10AEA000283040F4ADE6B0E007C0ABE6B0E0EBE63A
:10AEB000F0E008C0A0E0B0E0283010F40C9472621A
:10AEC000E0E0F0E02081943010F486500BC0823333
:10AED00081F0833381F0843381F092EC980F9830C5
:10AEE00070F4892F91E001C0990F8A95EAF7892FB4
:10AEF00007C088E005C084E003C082E001C081E0B3
:10AF0000822B8C938091F40D9091F50D0E94C022BC
:10AF10008091A6049091A7048B5D9D4091F0809153
:10AF2000F60D8E7F8093F60D8FB7F8941092A404DF
:10AF30001092A5042BED3DE03093A7042093A604C6
:10AF40008FBF8091270D9091280D97FD08C061E07B
:10AF50000E94B24260E08091270D0E94384281E059
:10AF60008093220D89E19DE00E9421266091290DA8
:10AF7000693C21F120912A0D30912B0D615031F067
:10AF800070E08FEF98EC0E94547002C060E070E0B7
:10AF9000F9014091250D5091260DCF01821B930B95
:10AFA0008417950740F44081469FC001479F900D4C
:10AFB00011249193EECF89EC8093290D10927504A2
:10AFC0001092760410927704109278040E94134332
:10AFD00010928304109284041092850410928604C7
:10AFE00010928704109288041092890410928A04A7
:10AFF00010927F04109280041092810410928204B7
:10B000008091940C9091950C0E9415248091940C41
:10B010009091950CFC01EE5BFF4F10821182128221
:10B020001382349610821182128213823496108217
:10B030001182128213820E94134360935C0C7093FE
:10B040005D0C80935E0C90935F0C8091940C9091BA
:10B05000950CFC01EE5BFF4F408151816281738151
:10B060004093040C5093050C6093060C7093070CEE
:10B07000349640815181628173814093080C5093D2
:10B08000090C60930A0C70930B0C349680819181AB
:10B09000A281B38180930C0C90930D0CA0930E0CA5
:10B0A000B0930F0C1092D50B10922A0C10922B0C0F
:10B0B00010928C0410928B04C1E0AA24A394B12CAA
:10B0C00063E0862E912C0E94134389E897E00E944A
:10B0D0004240181619060CF0D4C089E897E00E9487
:10B0E0000640D82F8091AD07D813AFC01092E40A64
:10B0F000C093E50AE091AE07F0E0E455F84F158201
:10B100008091AF079091B00781309105B9F17CF43F
:10B11000892B09F09AC06AE272E081EB97E00E9405
:10B12000BA69BC0189E798E00E941B6E8EC082302C
:10B13000910509F45FC0039709F087C06AE272E0E5
:10B1400081EB97E00E94BA69BC0189E798E00E9410
:10B150001B6E6AE272E080E090E00E94BA69BC0176
:10B1600081E499E00E941B6E6AE272E080E090E068
:10B170000E94BA69BC0189E09AE045C06AE272E0C7
:10B1800081EB97E00E94BA69BC0189E798E00E94D0
:10B190001B6E6AE272E080E090E00E94BA690E9451
:10B1A000B3696093D30A7093D40A8093D50A9093BD
:10B1B000D60A6AE272E080E090E00E94BA690E94DA
:10B1C000B3696093D70A7093D80A8093D90A909391
:10B1D000DA0A6AE272E080E090E00E94BA690E94B6
:10B1E000B3696093DB0A7093DC0A8093DD0A909365
:10B1F000DE0A2BC06AE272E081EB97E00E94BA6936
:10B20000BC0189E798E00E941B6E6AE272E080E070
:10B2100090E00E94BA690E94B3696093D30A709368
:10B22000D40A8093D50A9093D60A6AE272E080E04D
:10B2300090E00E94BA690E94B3696093D70A709344
:10B24000D80A8093D90A9093DA0A8091E40A882375
:10B2500081F08091AE07E82FF0E0E455F84FD583F8
:10B260008F5F883C19F08093AE0703C027EC2093D2
:10B27000AE078091AC07D81304C01092AE07C093FC
:10B28000E40AC093E30A89E798E090938E048093E0
:10B290008D046CE272E00E94126E892B29F41092E8
:10B2A0008C0410928B0401C161E372E089E798E09D
:10B2B0000E94126E892B39F41092B0071092AF07DA
:10B2C00080E090E02CC06CE372E089E798E00E9497
:10B2D000126E892B39F4B092B007A092AF0781E0CB
:10B2E00090E01DC067E472E089E798E00E94126E6A
:10B2F000892B39F482E090E09093B0078093AF07F8
:10B300000EC062E572E089E798E00E94126E892B18
:10B3100049F49092B0078092AF0783E090E00E94DA
:10B320002919C3C06DE572E089E798E00E94126EAA
:10B33000892B91F48091E50A882309F4B6C0109214
:10B34000E50A63E175E089E897E00E94F245C09361
:10B35000AB07C093320CA9C066E672E089E798E0BB
:10B360000E94126E892BD1F410923E0C0E94482844
:10B370001092D50B10922B0C10922E0CC093320C05
:10B380008091E50A882309F490C01092E50A65E2ED
:10B3900075E089E897E00E94F24587C063E672E0B5
:10B3A00089E798E00E94126E892B59F410922E0CB6
:10B3B0000E9491451092E30A10922A0C10922B0CD5
:10B3C00074C06BE672E089E798E00E94126E892BE8
:10B3D00009F093C00091D30A1091D40A2091D50AA4
:10B3E0003091D60A0093870410938804209389042F
:10B3F00030938A044091D70A5091D80A6091D90AB3
:10B400007091DA0A40938304509384046093850416
:10B41000709386048091DB0A9091DC0AA091DD0A8A
:10B42000B091DE0A80937F0490938004A0938104FE
:10B43000B0938204C0932E0C0093DE0B1093DF0BAD
:10B440002093E00B3093E10B4093E20B5093E30B1E
:10B450006093E40B7093E50B8093E60B9093E70BFE
:10B46000A093E80BB093E90B83C064ED73E089E728
:10B4700098E00E94126E892B09F481C064E772E0A3
:10B4800089E798E00E94126E892B09F47DC06CE771
:10B4900072E089E798E00E94126E892B09F083C060
:10B4A00080918F04882309F46AC0809174048823F2
:10B4B00099F060917204709173048BED9DE00E948D
:10B4C0001F466AE08BED9DE00E948A558BED9DE062
:10B4D0000E94391F1092740480912A0C882309F469
:10B4E0009AC780912B0C882309F47DC7C0939104DF
:10B4F0000E945B190E9457167AC76AEC73E089E7CD
:10B5000098E00E94126E892B09F0AFCF4091D30AC8
:10B510005091D40A6091D50A7091D60A409387045D
:10B52000509388046093890470938A048091D70AA9
:10B530009091D80AA091D90AB091DA0A8093830435
:10B5400090938404A0938504B0938604C0932E0C3A
:10B550004093DE0B5093DF0B6093E00B7093E10B95
:10B560008093E20B9093E30BA093E40BB093E50B75
:10B5700010922A0C10922B0C0E94914531C7C09357
:10B580002A0CC0932B0C0AC080918F0481118DCF9F
:10B5900010922A0C10922B0CC0932E0C89E798E085
:10B5A0000E94F6449BC262E872E089E798E00E943C
:10B5B000126E892B09F474CF6AE872E089E798E08B
:10B5C0000E94126E892B51F480918F0481116DCFEE
:10B5D000C0932A0CC0932B0C8FE37EC266E972E005
:10B5E00089E798E00E94126E892BD9F480918B0430
:10B5F00090918C04892B09F058CFB0928C04A092C2
:10B600008B0487E193E00E94F6440E944F63B0925E
:10B61000150CA092140CC0932A0CC0932B0C80E440
:10B62000DDC660EA72E089E798E00E94126E892B1D
:10B63000C9F480918B0490918C04892B09F035CF4B
:10B64000B0928C04A0928B0487E193E00E94F644B0
:10B650000E944F63B092150CA092140CC0932A0C58
:10B6600081E4BCC66AEA72E089E798E00E94126E43
:10B67000892BD9F480918B0490918C04892B09F04B
:10B6800014CFB0928C04A0928B0487E193E00E94C7
:10B69000F6440E944F63B092150CA092140CC09314
:10B6A0002A0CC0932B0C83E499C664EB72E089E703
:10B6B00098E00E94126E892B09F05FC080918F0480
:10B6C0008111F3CE6091D30A7091D40A8091D50A8A
:10B6D0009091D60A609387047093880480938904BC
:10B6E00090938A042091D70A3091D80A4091D90AC0
:10B6F0005091DA0A209383043093840440938504A4
:10B7000050938604E090DB0AF090DC0A0091DD0A99
:10B710001091DE0AE0927F04F0928004009381048D
:10B7200010938204C0932E0CC09390046093DE0BA0
:10B730007093DF0B8093E00B9093E10B2093E20B6F
:10B740003093E30B4093E40B5093E50BE092E60B50
:10B75000F092E70B0093E80B1093E90B10922A0C80
:10B7600010922B0CE091E50AEE2321F01092E50AED
:10B770000E9411271092E30AB1C16EEB72E089E7D3
:10B7800098E00E94126E892B09F0ABC180918F0462
:10B7900081118BCEE090D30AF090D40A0091D50AA3
:10B7A0001091D60AE0928304F092840400938504F9
:10B7B000109386046091D70A7091D80A8091D90AB3
:10B7C0009091DA0A60937F047093800480938104DF
:10B7D0009093820441E459E050937E0440937D04A9
:10B7E00029E03AE030937C0420937B04E092A40C9F
:10B7F000F092A50C0093A60C1093A70C6093AC0CD0
:10B800007093AD0C8093AE0C9093AF0C3093B90C49
:10B810002093B80C5093BB0C4093BA0C2091E50ACE
:10B82000222331F01092E50A9B01AC010E941127FE
:10B83000E0907B04F0907C0400917D0410917E04E4
:10B8400069EC72E0C8010E94126E892B29F0412C2C
:10B85000512C32016A9404C0412C512C32015A946B
:10B860006FEC72E0C8010E94126E892B21F4412C0A
:10B87000512C32014A9464ED72E0C8010E94126EAC
:10B88000892B29F4412C55245A94652C712C6BED8D
:10B8900072E0C7010E94126E892B09F0E1C000918D
:10B8A000980C1091990CA301920160E070E0C8011E
:10B8B0000E945A63A301920162E070E0C8010E94F5
:10B8C0005A63A301920164E070E0C8010E945A63C8
:10B8D000A301920166E070E0C8010E945A63A301CF
:10B8E000920168E070E0C8010E945A63A3019201CE
:10B8F0006AE070E0C8010E945A63A30192016CE003
:10B9000070E0C8010E945A63A30192016EE070E0EA
:10B91000C8010E945A63A301920160E170E0C8016E
:10B920000E945A63A301920162E170E0C8010E9483
:10B930005A63A301920164E170E0C8010E945A6356
:10B94000A301920166E170E0C8010E945A63A3015D
:10B95000920168E170E0C8010E945A63A30192015C
:10B960006AE170E0C8010E945A63A30192016CE190
:10B9700070E0C8010E945A63A30192016EE170E079
:10B98000C8010E945A63A301920160E270E0C801FD
:10B990000E945A63A301920162E270E0C8010E9412
:10B9A0005A63A301920164E270E0C8010E945A63E5
:10B9B000A301920166E270E0C8010E945A63A301EC
:10B9C000920168E270E0C8010E945A63A3019201EB
:10B9D0006AE270E0C8010E945A63A30192016CE21E
:10B9E00070E0C8010E945A63A30192016EE270E008
:10B9F000C8010E945A63A301920160E370E0C8018C
:10BA00000E945A63A301920162E370E0C8010E94A0
:10BA10005A63A301920164E370E0C8010E945A6373
:10BA2000A301920166E370E0C8010E945A63A3017A
:10BA3000920168E370E0C8010E945A63A301920179
:10BA40006AE370E0C8010E945A63A30192016CE3AB
:10BA500070E0C8010E945A63C8010E9421263BC0C1
:10BA600062EE72E0C7010E94126E892BA1F500916F
:10BA7000980C1091990CD0E06D2F70E0F801828540
:10BA800093856817790738F5A3019201C8010E94D0
:10BA90005A63C8010E9421260E94EE421B0188E2DF
:10BAA000C82ED12CE12CF12C0E94EE4262197309B0
:10BAB000683E7340C8F321E0C21AD108E108F108DA
:10BAC00088E1281A8CEF380AC114D104E104F1048A
:10BAD00059F7DD5FD1CF8EE28093D50BC0938F04F1
:10BAE000E4CC67EE72E089E798E00E94126E892B41
:10BAF00021F580918B0490918C04892B09F0D5CC91
:10BB0000B0928C04A0928B048091790490917A0475
:10BB100090931B0C80931A0C87E193E00E94F644EB
:10BB20000E945C6922E030E040E050E00E94896CB5
:10BB30007093170C6093160C48C465EF72E089E7A8
:10BB400098E00E94126E892B49F580918B049091A8
:10BB50008C04892B09F0A9CCB0928C04A0928B04A0
:10BB60006091D30A7091D40A8091D50A9091D60A37
:10BB70000E94786F7093190C6093180C87E193E022
:10BB80000E94F6440E944F63B092150CA092140CD0
:10BB9000C0932A0CC0932B0C82E320C46BEF72E09D
:10BBA00089E798E00E94126E892B49F580918B04F9
:10BBB00090918C04892B09F078CCB0928C04A092DF
:10BBC0008B046091D30A7091D40A8091D50A909128
:10BBD000D60A0E94786F7093190C6093180C87E155
:10BBE00093E00E94F6440E944F63B092150CA0921D
:10BBF000140CC0932A0CC0932B0C8DE2EFC36FEF93
:10BC000072E089E798E00E94126E892B49F58091D5
:10BC10008B0490918C04892B09F047CCB0928C0452
:10BC2000A0928B046091D30A7091D40A8091D50AB6
:10BC30009091D60A0E94786F7093190C6093180C3B
:10BC400087E193E00E94F6440E944F63B092150C86
:10BC5000A092140CC0932A0CC0932B0C8FE2BEC38D
:10BC600065E073E089E798E00E94126E892B49F540
:10BC700080918B0490918C04892B09F016CCB092A2
:10BC80008C04A0928B046091D30A7091D40A8091A5
:10BC9000D50A9091D60A0E94786F7093190C609320
:10BCA000180C87E193E00E94F6440E944F63B09223
:10BCB000150CA092140CC0932A0CC0932B0C8BE291
:10BCC0008DC36BE073E089E798E00E94126E892BC8
:10BCD00049F580918B0490918C04892B09F0E5CB78
:10BCE000B0928C04A0928B046091D30A7091D40A14
:10BCF0008091D50A9091D60A0E94786F7093190CA2
:10BD00006093180C87E193E00E94F6440E944F6311
:10BD1000B092150CA092140CC0932A0CC0932B0C5B
:10BD200081E35CC361E173E089E798E00E94126EF1
:10BD3000892B19F5B0928C04A0928B046091D30AE0
:10BD40007091D40A8091D50A9091D60A0E94786F9A
:10BD50007093190C6093180C87E193E00E94F644ED
:10BD60000E944F63B092150CA092140CC0932A0C41
:10BD7000C0932B0C1092D50B33C363E273E089E7B9
:10BD800098E00E94126E892B49F580918B04909166
:10BD90008C04892B09F089CBB0928C04A0928B047F
:10BDA0006091D30A7091D40A8091D50A9091D60AF5
:10BDB0000E94786F70931F0C60931E0C87E193E0D4
:10BDC0000E94F6440E944F63B092150CA092140C8E
:10BDD000C0932A0CC0932B0C8DE300C36FE273E079
:10BDE00089E798E00E94126E892B49F580918B04B7
:10BDF00090918C04892B09F058CBB0928C04A092BE
:10BE00008B046091D30A7091D40A8091D50A9091E5
:10BE1000D60A0E94786F7093210C6093200C87E102
:10BE200093E00E94F6440E944F63B092150CA092DA
:10BE3000140CC0932A0CC0932B0C8EE3CFC26BE37F
:10BE400073E089E798E00E94126E892B21F58091BA
:10BE50008B0490918C04892B09F027CBB0928C0431
:10BE6000A0928B046091D30A7091D40A8091D50A74
:10BE70009091D60A0E94786F70937A046093790447
:10BE800070931B0C60931A0C87E193E00E94F644B8
:10BE90000E944F639AC26CE473E089E798E00E94C5
:10BEA000126E892B69F580918B0490918C04892BFB
:10BEB00009F0FBCAB0928C04A0928B046091D30A63
:10BEC0007091D40A8091D50A9091D60A0E94786F19
:10BED00070937A046093790470931B0C60931A0C2E
:10BEE00087E193E00E94F6440E944F63B092150CE4
:10BEF000A092140CC0932A0CC0932B0C85E36EC245
:10BF00006DE573E089E798E00E94126E892B69F570
:10BF100080918B0490918C04892B09F0C6CAB09251
:10BF20008C04A0928B046091D30A7091D40A809102
:10BF3000D50A9091D60A0E94786F70937A04609324
:10BF4000790470931B0C60931A0C87E193E00E94B4
:10BF5000F6440E944F63B092150CA092140CC0934B
:10BF60002A0CC0932B0C86E339C26EE673E089E796
:10BF700098E00E94126E892B69F580918B04909154
:10BF80008C04892B09F091CAB0928C04A0928B0486
:10BF90006091D30A7091D40A8091D50A9091D60A03
:10BFA0000E94786F70937A046093790470931B0CED
:10BFB00060931A0C87E193E00E94F6440E944F635D
:10BFC000B092150CA092140CC0932A0CC0932B0CA9
:10BFD00087E304C26DE773E089E798E00E94126E80
:10BFE000892B49F580918B0490918C04892B09F061
:10BFF0005CCAB0928C04A0928B046091D30A7091B9
:10C00000D40A8091D50A9091D60A0E94786F7093D5
:10C010001D0C60931C0C87E193E00E94F6440E9483
:10C020004F63B092150CA092140CC0932A0CC093CD
:10C030002B0C88E3D3C16AE873E089E798E00E949B
:10C04000126E892B49F580918B0490918C04892B79
:10C0500009F02BCAB0928C04A0928B046091D30A91
:10C060007091D40A8091D50A9091D60A0E94786F77
:10C0700070931D0C60931C0C87E193E00E94F644C2
:10C080000E944F63B092150CA092140CC0932A0C1E
:10C09000C0932B0C89E3A2C167E973E089E798E0BC
:10C0A0000E94126E892B59F580918B0490918C041B
:10C0B000892B09F0FAC9B0928C04A0928B0460918C
:10C0C000D30A7091D40A8091D50A9091D60A0E9421
:10C0D000786F70931D0C60931C0C87E193E00E94B5
:10C0E000F6440E944F63B092150CA092140CC093BA
:10C0F0002A0CC0932B0CFAE3F093D50B71C163EAC1
:10C1000073E089E798E00E94126E892B59F58091BF
:10C110008B0490918C04892B09F0C7C9B0928C04D0
:10C12000A0928B046091D30A7091D40A8091D50AB1
:10C130009091D60A0E94786F70931D0C60931C0C2E
:10C1400087E193E00E94F6440E944F63B092150C81
:10C15000A092140CC0932A0CC0932B0C2BE32093B9
:10C16000D50B3EC160EB73E089E798E00E94126E48
:10C17000892B49F580918B0490918C04892B09F0CF
:10C1800094C9B0928C04A0928B046091D30A7091F0
:10C19000D40A8091D50A9091D60A0E94786F709344
:10C1A0001D0C60931C0C87E193E00E94F6440E94F2
:10C1B0004F63B092150CA092140CC0932A0CC0933C
:10C1C0002B0C8CE30BC16FEB73E089E798E00E94C6
:10C1D000126E892B81F58091E50A882309F465C9DF
:10C1E0001092E50A65E375E089E897E00E94F24560
:10C1F00083E395E00E9410460E9413436093750408
:10C200007093760480937704909378046B017C019B
:10C21000E4EFCE0EE1E0DE1EE11CF11C0E941343B0
:10C220006C157D058E059F05C8F3C093320CE0E0C8
:10C23000F0E019953AC965EC73E089E798E00E944F
:10C24000126E8C01892B09F030C98091E50A882390
:10C2500009F42BC91092E50A8091E60A8A3080F52C
:10C260008091FD0A863308F0865390917B00282F39
:10C270002870977F922B90937B00877080648093C7
:10C280007C0080917A00806480937A0080917A00AB
:10C2900086FDFCCF809178002091790090E0922B70
:10C2A0002091E70A3091E80A820F931F9093E80AE1
:10C2B0008093E70A8091E60A8F5F8093E60ACCCFED
:10C2C0006091E70A7091E80A072E000C880B990B21
:10C2D0000E94696B20E030E040E251E40E94066F6A
:10C2E00026EF38E240EA50E40E94C86B20E030E0DC
:10C2F00040E85AE30E94C86B2AE939E941E850E472
:10C300000E94C86B6B017C016093EB0A7093EC0A8E
:10C310008093ED0A9093EE0A20E030E048E351E488
:10C320000E94226E20E030E040EA50E40E94C86B98
:10C3300020E030E0A9010E94236E2B013C016093B4
:10C34000EF0A7093F00A8093F10A9093F20A20E0CA
:10C3500030E0A9010E94626B87FD12C020E030E04E
:10C3600040EA50E4C301B2010E941470181634F080
:10C37000C301B2010E94786F8B0102C005E010E09A
:10C380001093F40A0093F30A1092E60A1092E80A56
:10C390001092E70A8091E90A9091EA0A0196909337
:10C3A000EA0A8093E90A62E475E089E897E00E946E
:10C3B000F24542E0C701B6010E9429460E94E045CD
:10C3C00080E495E00E94104670C8B092150CA092CF
:10C3D000140CC0932A0CC0932B0C84E38093D50BD0
:10C3E0001092E30A62C8C09391040E945B190E94F4
:10C3F000F00410928F048091320C882341F08091D8
:10C400002A0C811104C080919104811164C00E94A2
:10C4100052400C94635880912E0C882309F456C026
:10C42000809190048823C9F0C090E60BD090E70B70
:10C43000E090E80BF090E90B0091E20B1091E30B18
:10C440002091E40B3091E50B4091DE0B5091DF0B16
:10C450006091E00B7091E10B32C020E030E040ECE5
:10C460005FE36091E60B7091E70B8091E80B909190
:10C47000E90B0E94C86B6B017C0120E030E04CE5C9
:10C4800052E46091E20B7091E30B8091E40B909188
:10C49000E50B0E94C86B2B013C0120E030E04CE52D
:10C4A00052E46091DE0B7091DF0B8091E00B909174
:10C4B000E10B0E94C86BAB01BC019301820187E3D1
:10C4C0009DE00E9423240E94571693CF87E39DE0AE
:10C4D0000E949E258ECF89ED93E00E94F644109233
:10C4E000910495CFEDE6F0E00C946257823109F4A7
:10C4F00066C0B8F4823069F1833009F073C070937C
:10C5000095046093940480E69DE19093ED048093FC
:10C51000EC0480916A00837F846080936A00ED9AC6
:10C520005FC0843141F1C8F1853109F05BC070937F
:10C530009704609396048AE59DE19093EF048093BD
:10C54000EE04809169008C7F816080936900E89A95
:10C5500047C0709393046093920486E69DE19093A4
:10C56000EB048093EA0480916A008C7F8160809361
:10C570006A00EC9A35C0709399046093980484E53E
:10C580009DE19093F1048093F00480916900837F92
:10C59000846080936900E99A23C070939B04609340
:10C5A0009A048EE49DE19093F3048093F2048091C9
:10C5B00069008F7C806180936900EA9A11C0709352
:10C5C0009D0460939C0488E49DE19093F50480931E
:10C5D000F404809169008F73806480936900EB9A02
:10C5E00081E0089580E008950F931F93CF93DF9328
:10C5F000EC01062F142F62E0802F0E94B24262E00D
:10C60000812F0E94B242802F90E0FC01EE5AF74F3A
:10C61000E491F0E0EE0FFF1FE25EF74FA591B491B9
:10C62000B983A883FC01E856F74F24912C83812F0E
:10C6300090E0FC01EE5AF74FE491F0E0EE0FFF1F9F
:10C64000E25EF74F459154915B834A83FC01E856C3
:10C65000F74F94919D831F82188619861A86EAE304
:10C66000FFE13197F1F7EC91E22331E009F430E09A
:10C67000DA01EC91E92309F032603E83BE01802F9C
:10C680000E9476628B87BE01812F0E9476629B8515
:10C69000890F8B87DF91CF911F910F9108950E9491
:10C6A00013436093900C7093910C8093920C909331
:10C6B000930C08957F928F929F92AF92BF92CF92E8
:10C6C000DF92EF92FF920F931F93CF93DF93FC01C2
:10C6D000828593856817790708F053C04A01AA2418
:10C6E000BB24782CC32ED42EE52EFF24BC2DA22FE4
:10C6F0008089882361F0889E40011124792C8C9DCB
:10C7000060011124BD2D829F70011124AF2D9689E7
:10C71000D389E188F2889D1308C0CB01880F991F47
:10C72000680F791F6E0D7F1D1CC0660F771F660F87
:10C73000771F6E0D7F1D052F1127222733277B01C1
:10C74000E90EF11C811102C0202F09C090E0809FEA
:10C750006001819FD00C909FD00C11242D2DE701FA
:10C76000288383899B01280F311DE9017882848900
:10C77000EB01C80FD11DB8838589FB01E80FF11DBE
:10C78000A083DF91CF911F910F91FF90EF90DF90E9
:10C79000CF90BF90AF909F908F907F900895CF9350
:10C7A000DF93EC0161E088810E94B24261E08981FF
:10C7B000DF91CF910C94B24280912A0D90912B0D74
:10C7C0000E94846D8091270D9091280D97FD03C0E4
:10C7D00060E00E94B2428EE192E09093DC0D809383
:10C7E000DB0D9091E70D26EF290F243068F08EECD9
:10C7F000890F843048F082EC890F883058F5EDE6D7
:10C80000F0E0ADE6B0E004C0EBE6F0E0ABE6B0E0AF
:10C810003C91243018F42AEF290F0BC0923389F091
:10C82000933389F0943389F082EC890F883078F45F
:10C83000282F81E090E001C0880F2A95EAF78095C3
:10C8400007C087EF05C08BEF03C08DEF01C08EEFEF
:10C850008323808383E79EE00C94F144CF92DF92A0
:10C86000EF92FF9210928C0710928B0728EEC22E47
:10C8700023E0D22EE12CF12CC0928D07D0928E07AE
:10C88000E0928F07F09290076EE072E070938A0753
:10C890006093890785E497E09093960780939507C6
:10C8A00081E097E0909398078093970785EC90E05C
:10C8B00090939A078093990784EC90E090939C075B
:10C8C00080939B0780EC90E090939E0780939D0758
:10C8D00081EC90E09093A00780939F0782EC90E01A
:10C8E0009093A2078093A10786EC90E09093A40711
:10C8F0008093A30744E04093A50733E03093A60755
:10C9000027E02093A70795E09093A80781E0809304
:10C91000A9071092E2061092E106C092E306D092B7
:10C92000E406E092E506F092E6067093E006609376
:10C93000DF06EBE9F6E0F093EC06E093EB06E7E5C3
:10C94000F6E0F093EE06E093ED06EDECF0E0F09308
:10C95000F006E093EF06ECECF0E0F093F206E093E3
:10C96000F106E8ECF0E0F093F406E093F306E9EC6E
:10C97000F0E0F093F606E093F506EAECF0E0F093D1
:10C98000F806E093F706EEECF0E0F093FA06E09399
:10C99000F9064093FB063093FC062093FD06909326
:10C9A000FE068093FF061092380610923706C0925A
:10C9B0003906D0923A06E0923B06F0923C0670931C
:10C9C000360660933506E1EFF5E0F0934206E0931A
:10C9D0004106EDEAF5E0F0934406E0934306E5ED09
:10C9E000F0E0F0934606E0934506E4EDF0E0F093C6
:10C9F0004806E0934706E0EDF0E0F0934A06E09346
:10CA00004906E1EDF0E0F0934C06E0934B06E2EDD1
:10CA1000F0E0F0934E06E0934D06E6EDF0E0F09383
:10CA20005006E0934F0640935106309352062093F0
:10CA30005306909354068093550610928E051092DB
:10CA40008D05C0928F05D0929005E0929105F092ED
:10CA5000920570938C0560938B0567E475E0709385
:10CA600098056093970563E075E070939A0560936D
:10CA7000990565E371E070939C0560939B0564E301
:10CA800071E070939E0560939D0560E371E0709383
:10CA9000A00560939F0561E371E07093A205609328
:10CAA000A10562E371E07093A4056093A30566E3BA
:10CAB00071E07093A6056093A5054093A705309398
:10CAC000A8052093A9059093AA058093AB05109221
:10CAD000720E1092710E88E090E09093760E809323
:10CAE000750E1092780E1092770E80E590E00E94FD
:10CAF000EC6C9093740E8093730E10927B0E1092D8
:10CB00007A0E1092DE0D1092DD0DC092DF0DD092E4
:10CB1000E00DE092E10DF092E20D8EE192E0909353
:10CB2000DC0D8093DB0D1092EF0D1092EE0D109244
:10CB3000F10D1092F00D1092F30D1092F20D109273
:10CB4000F50D1092F40D8091F60D8E7F8D7F809300
:10CB5000F60D61E088E00E94B24261E088E00E9448
:10CB60003842E0EAF8E0E491E093EB0DEAE5F8E022
:10CB7000E491F0E0EE0FFF1FE85CF74F8591949190
:10CB80009093ED0D8093EC0D60E08CE00E94B2423A
:10CB90008091F60D81FD04C061E08CE00E94384276
:10CBA0008CE08093E70DE4EAF8E0E491E093E80D8F
:10CBB000EEE5F8E0E491F0E0EE0FFF1FE25EF74FE4
:10CBC000859194919093EA0D8093E90D89E080938B
:10CBD000D90D86E08093DA0D8BE08093D70D85E048
:10CBE0008093D80D8AE08093D50D84E08093D60D94
:10CBF00045E164E189EC9DE00E94F46243E162E179
:10CC00008DEB9DE00E94F46242E063E081EB9DE0E9
:10CC10000E94F46289ED9DE09093A60D8093A50D8E
:10CC200087ED9DE09093A80D8093A70D85ED9DE085
:10CC30009093AA0D8093A90D89EC9DE09093AC0D83
:10CC40008093AB0D8DEB9DE09093AE0D8093AD0D79
:10CC500081EB9DE09093B00D8093AF0D89ED9DE049
:10CC60000E94CF6360E070E08091A50D9091A60DC9
:10CC70000E94C2248091A70D9091A80D0E94CF63BD
:10CC800060E070E08091A70D9091A80D0E94C224F1
:10CC90008091A90D9091AA0D0E94CF6360E070E091
:10CCA0008091A90D9091AA0D0E94C2241092790D35
:10CCB00010927A0D10927B0D10927C0D10927D0DCA
:10CCC00010927E0D10927F0D1092800D1092810DAA
:10CCD0001092820D1092830D1092840D1092850D8A
:10CCE0001092860D1092870D1092880D1092890D6A
:10CCF00010928A0D10928B0D10928C0D10928D0D4A
:10CD000010928E0D10928F0D1092900D1092370D83
:10CD10001092380D1092390D10923A0D10923B0D71
:10CD200010923C0D10923D0D10923E0D10923F0D51
:10CD30001092400D1092410D1092420D1092430D31
:10CD40001092440D1092450D1092460D1092470D11
:10CD50001092480D1092490D10924A0D10924B0DF1
:10CD600010924C0D10924D0D10924E0D1092500DD0
:10CD700010924F0D1092520D1092510D1092540DB1
:10CD80001092530D1092550D1092560D1092570D92
:10CD90001092580D1092590D10925A0D10925B0D71
:10CDA00010925C0D10925D0D10925E0D10925F0D51
:10CDB0001092600D1092610D1092620D1092630D31
:10CDC0001092640D1092650D1092660D1092670D11
:10CDD0001092680D1092690D10926A0D10926B0DF1
:10CDE00010926C0D83E393E3A3E3BFE380936D0D97
:10CDF00090936E0DA0936F0DB093700D86E696E63E
:10CE0000A6E6BFE38093710D9093720DA093730D0E
:10CE1000B093740D1092750D1092760D1092770DDF
:10CE20001092780D1092910D1092920D1092930D18
:10CE30001092940D1092950D1092960D1092970DE0
:10CE40001092980D1092990D10929A0D10929B0DC0
:10CE500010929C0D10929D0D10929E0D10929F0DA0
:10CE60001092A00D1092A10D1092A20D1092A30D80
:10CE70001092A40D1092220D1092290D1092300DD7
:10CE80001092310D1092320D1092330D81E080938B
:10CE90002F0D80932C0D10922D0D92E090932E0D5E
:10CEA00080931D0D84EB90E09093260D8093250DCB
:10CEB0000E94EC6C90932B0D80932A0D009761F0EB
:10CEC00024EBFC0111922A95E9F78CE390E0909312
:10CED000240D8093230D08C01092260D1092250D6D
:10CEE0001092240D1092230D85E390E09093280D6D
:10CEF0008093270D8091220D882341F061E085E326
:10CF00000E94B24260E085E30E943842E7E8F8E020
:10CF1000E491F0E0EE0FFF1FE85CF74F85919491EC
:10CF20009093350D8093340DEDECF8E0E491E093AF
:10CF3000360D1092C90C1092C80C8091750E90910C
:10CF4000760E049720F484E090E00E94B51F87E3FA
:10CF50009DE09093950C8093940C80EC9CE09093D2
:10CF6000970C8093960C89E19DE09093990C8093A7
:10CF7000980C1092DE0B1092DF0B1092E00B1092C7
:10CF8000E10B1092E20B1092E30B1092E40B109263
:10CF9000E50B1092E60B1092E70B1092E80B109243
:10CFA000E90B80E090E0A4E0B2E48093D60B90938C
:10CFB000D70BA093D80BB093D90B80E090E0A0E3FF
:10CFC000BFE38093DA0B9093DB0BA093DC0BB09361
:10CFD000DD0B1092F60B1092F70B1092F80B1092DB
:10CFE000F90B1092040C1092050C1092060C109282
:10CFF000070C1092080C1092090C10920A0C109257
:10D000000B0C10920C0C10920D0C10920E0C109236
:10D010000F0C1092100C1092110C1092120C109216
:10D02000130C81E08093250C1092A40C1092A50C97
:10D030001092A60C1092A70C1092A80C1092A90C9A
:10D040001092AA0C1092AB0C1092AC0C1092AD0C7A
:10D050001092AE0C1092AF0C28E134E03093B90C72
:10D060002093B80C3093BB0C2093BA0C1092780C20
:10D070001092790C10927A0C10927B0C40EB54E0D9
:10D0800060E070E04093800C5093810C6093820CC0
:10D090007093830C40EE5EE260E070E040936C0CB5
:10D0A00050936D0C60936E0C70936F0C44EF51E0D5
:10D0B00060E070E04093700C5093710C6093720CC0
:10D0C0007093730C40E951E060E070E04093740CA1
:10D0D0005093750C6093760C7093770C1092410C02
:10D0E0001092400C1092430C1092420C1092B30C10
:10D0F0001092B20C1092B10C1092B00C1092BC0CA9
:10D100001092BD0C1092BE0C1092BF0C40E25EE477
:10D1100060E070E04093840C5093850C6093860C23
:10D120007093870C80933E0C8093280C1092900C87
:10D130001092910C1092920C1092930C86E38093B3
:10D14000FE0A87E38093FF0A88E38093000B89E35C
:10D150008093010B8AE38093020B8BE38093FD0A9B
:10D160001092E60A1092E80A1092E70A1092EA0A70
:10D170001092E90A1092EB0A1092EC0A1092ED0A52
:10D180001092EE0A1092F40A1092F30A1092F90A21
:10D190001092FA0A1092FB0A1092FC0A1092EF0AFF
:10D1A0001092F00A1092F10A1092F20A8CE3809326
:10D1B000AC078EE38093AD071092AE071092B007D4
:10D1C0001092AF0710927908109241091092090A43
:10D1D0001092D30A1092D40A1092D50A1092D60A4D
:10D1E0001092D70A1092D80A1092D90A1092DA0A2D
:10D1F0001092DB0A1092DC0A1092DD0A1092DE0A0D
:10D2000082E390E0A0E0B0E08093DF0A9093E00A30
:10D21000A093E10AB093E20AFF90EF90DF90CF90E5
:10D2200008958F929F92AF92BF92CF92DF92EF922A
:10D23000FF92CF93DF93EC01688179818A819B8192
:10D24000611571058105910521F464E279ED8BE5A5
:10D2500097E02DE133EF41E050E00E94896C4901F5
:10D260005A019B01AC01A7EAB1E40E94A86C6B01D2
:10D270007C01ACEEB4EFA50194010E94B66CDC0118
:10D28000CB018C0D9D1DAE1DBF1DB7FF03C00197C7
:10D29000A109B04888839983AA83BB83BC01CD01CF
:10D2A0009F77DF91CF91FF90EF90DF90CF90BF906D
:10D2B000AF909F908F9008958F929F92AF92BF9260
:10D2C000CF92DF92EF92FF92609100027091010283
:10D2D000809102029091030261157105810591050B
:10D2E00021F464E279ED8BE597E02DE133EF41E045
:10D2F00050E00E94896C49015A019B01AC01A7EAE8
:10D30000B1E40E94A86C6B017C01ACEEB4EFA50106
:10D3100094010E94B66CDC01CB018C0D9D1DAE1DED
:10D32000BF1DB7FF03C00197A109B0488093000259
:10D3300090930102A0930202B0930302BC01CD01BD
:10D340009F77FF90EF90DF90CF90BF90AF909F902E
:10D350008F900895609300027093010280930202FF
:10D36000909303020895662777270C94E569F89453
:10D370000C9484704CE75EE00C94BE69FA01A191B4
:10D38000B081009719F41097E1F0CD01DC01CD01D7
:10D390000D90002011F4C00113C0FB012191222344
:10D3A00019F02015D9F7F3CFFB012191201519F4BD
:10D3B0001E92119606C02223C1F70D900020A1F7FE
:10D3C000D001FA01A193B08308958F929F92AF92FA
:10D3D000BF92CF92DF92EF92FF920F931F93CF9362
:10D3E000DF93EC016B016115710519F0FB0191836D
:10D3F00080837E01FFEFEF1AFF0A0881802F90E003
:10D400000E94416B892B11F0E701F3CF0D3239F403
:10D410007E0182E0E80EF11C098111E008C00B32A8
:10D4200029F47E0192E0E90EF11C098110E0E70188
:10D43000219743E050E064E374E0CE010E944A6B20
:10D44000892BC1F4239645E050E06FE274E0CE01F1
:10D450000E944A6B892B09F42596C114D10419F056
:10D46000F601D183C0831111F6C060E070E080E85E
:10D470009FE7FAC043E050E06CE274E0CE010E9406
:10D480004A6B892B59F4C114D10409F4E9C0F2E0C4
:10D49000EF0EF11CF601F182E082E2C020E030E004
:10D4A000A901C0E0D0E0F70160EDA62EA00E89E052
:10D4B0008A1530F1912F9260B92E812F887012FF5A
:10D4C00004C0811124C0219622C081112197A5E0BA
:10D4D000B0E00E94A86CDC01CB01880F991FAA1F45
:10D4E000BB1F9C01AD012A0D311D411D511D283965
:10D4F00089E93807480789E1580748F0166006C0EF
:10D500009EEFA9120AC013FD40C01860B12E8FEF24
:10D51000E81AF80A00811B2DC6CF802F8F7D853435
:10D52000A1F580818D3211F4106106C08B3221F09B
:10D53000319661E070E004C08181329662E070E073
:10D5400080538A3018F0E61BF70B1FC060E070E0D4
:10D5500060389CE079075CF4DB01AA0FBB1FAA0FBF
:10D56000BB1F6A0F7B1F660F771F680F711D3196F7
:10D57000DF0111978C9180538A3050F314FF03C060
:10D58000719561957109C60FD71F11FF08C0C114AD
:10D59000D10429F0CF010197F60191838083CA015C
:10D5A000B9010E94676B212F2370233019F04B01C2
:10D5B0005C0106C04B015C01B7FAB094B7F8B094B7
:10D5C00020E030E0A901C501B4010E94626B88230C
:10D5D00009F43EC0D7FF06C0D195C195D1090BE42F
:10D5E00014E002C003E614E06801F8E1CF1AD108A4
:10D5F00090E2E92EF12CCE15DF0574F0F8012591AB
:10D60000359145915491C501B4010E94C86B4B01FD
:10D610005C01CE19DF09EFCF04501109F594E794AE
:10D620000C151D0541F78A2D880F8B2D881F8F3F04
:10D6300049F020E030E0A901C501B4010E94626B0D
:10D64000811106C082E290E090937F0E80937E0E5F
:10D65000C501B40109C060E070E080E89FEF04C03C
:10D6600060E070E080EC9FE7DF91CF911F910F9118
:10D67000FF90EF90DF90CF90BF90AF909F908F90F2
:10D68000089591110C94356C803219F089508550B1
:10D69000C8F70895FB01DC014150504088F08D919E
:10D6A00081341CF08B350CF4805E659161341CF084
:10D6B0006B350CF4605E861B611171F3990B089554
:10D6C000881BFCCF0E94A46B08F481E00895E894C5
:10D6D00009C097FB3EF490958095709561957F4FBA
:10D6E0008F4F9F4F9923A9F0F92F96E9BB27939568
:10D6F000F695879577956795B795F111F8CFFAF478
:10D70000BB0F11F460FF1BC06F5F7F4F8F4F9F4FA8
:10D7100016C0882311F096E911C0772321F09EE806
:10D72000872F762F05C0662371F096E8862F70E06C
:10D7300060E02AF09A95660F771F881FDAF7880F46
:10D740009695879597F90895990F0008550FAA0B9C
:10D75000E0E8FEEF16161706E807F907C0F0121604
:10D760001306E407F50798F0621B730B840B950B07
:10D7700039F40A2661F0232B242B252B21F408955C
:10D780000A2609F4A140A6958FEF811D811D0895F9
:10D790000E94DB6B0C944F6C0E94416C38F00E942D
:10D7A000486C20F0952311F00C94386C0C943E6C6E
:10D7B00011240C94836C0E94606C70F3959FC1F3EC
:10D7C000950F50E0551F629FF001729FBB27F00D2F
:10D7D000B11D639FAA27F00DB11DAA1F649F662784
:10D7E000B00DA11D661F829F2227B00DA11D621FD3
:10D7F000739FB00DA11D621F839FA00D611D221F8D
:10D80000749F3327A00D611D231F849F600D211D70
:10D81000822F762F6A2F11249F5750409AF0F1F0F3
:10D8200088234AF0EE0FFF1FBB1F661F771F881F5C
:10D8300091505040A9F79E3F510580F00C94386CF0
:10D840000C94836C5F3FE4F3983ED4F38695779510
:10D850006795B795F795E7959F5FC1F7FE2B880F02
:10D86000911D9695879597F908959927882708958A
:10D8700097F99F6780E870E060E008959FEF80EC83
:10D88000089500240A941616170618060906089526
:10D8900000240A9412161306140605060895092E8C
:10D8A0000394000C11F4882352F0BB0F40F4BF2BFB
:10D8B00011F460FF04C06F5F7F4F8F4F9F4F08953B
:10D8C00057FD9058440F551F59F05F3F71F0479531
:10D8D000880F97FB991F61F09F3F79F08795089516
:10D8E000121613061406551FF2CF4695F1DF08C035
:10D8F000161617061806991FF1CF86957105610552
:10D9000008940895E894BB2766277727CB0197F9F9
:10D910000895052E97FB1EF400940E94A06C57FDFD
:10D9200007D00E94BB6C07FC03D04EF40C94A06C93
:10D9300050954095309521953F4F4F4F5F4F08953B
:10D9400090958095709561957F4F8F4F9F4F08956B
:10D950000E94DD6CA59F900DB49F900DA49F800D3B
:10D96000911D11240895B7FF0C94A86C0E94A86C17
:10D97000821B930B0895A1E21A2EAA1BBB1BFD016B
:10D980000DC0AA1FBB1FEE1FFF1FA217B307E4079E
:10D99000F50720F0A21BB30BE40BF50B661F771FF6
:10D9A000881F991F1A9469F76095709580959095D6
:10D9B0009B01AC01BD01CF010895A29FB001B39FAF
:10D9C000C001A39F700D811D1124911DB29F700D88
:10D9D000811D1124911D08950F931F93CF93DF9301
:10D9E0008230910510F482E090E0E091820EF09197
:10D9F000830E20E030E0A0E0B0E0309719F14081E4
:10DA000051810281138148175907C8F0841795077F
:10DA100069F4109731F012960C93129713961C9399
:10DA200027C00093820E1093830E22C0211531056A
:10DA300019F04217530718F49A01BD01EF01DF01F5
:10DA4000F801DBCF21153105F9F0281B390B243003
:10DA5000310580F48A819B816115710521F0FB01FC
:10DA60009383828304C09093830E8093820EFE0181
:10DA7000329644C0FE01E20FF31F8193919322502E
:10DA80003109398328833AC02091800E3091810E6C
:10DA9000232B41F420910602309107023093810E2E
:10DAA0002093800E2091040230910502211531054A
:10DAB00041F42DB73EB74091080250910902241B52
:10DAC000350BE091800EF091810EE217F307A0F480
:10DAD0002E1B3F0B2817390778F0AC014E5F5F4FC4
:10DAE0002417350748F04E0F5F1F5093810E409367
:10DAF000800E8193919302C0E0E0F0E0CF01DF91CE
:10DB0000CF911F910F910895CF93DF93009709F460
:10DB100081C0FC01329713821282A091820EB091D3
:10DB2000830E109781F420813181820F931F209101
:10DB3000800E3091810E2817390751F5F093810E30
:10DB4000E093800E67C0ED0120E030E0CE17DF07E4
:10DB500040F44A815B819E0141155105F1F0EA01D3
:10DB6000F5CFD383C28340815181840F951FC8179D
:10DB7000D90759F488819981840F951F0296918362
:10DB800080838A819B81938382832115310529F4C7
:10DB9000F093830EE093820E3DC0E901FB83EA839C
:10DBA00049915991C40FD51FEC17FD0761F480818D
:10DBB0009181840F951F0296E90199838883828160
:10DBC00093819B838A83E0E0F0E012968D919C9193
:10DBD0001397009719F0FD01DC01F7CF8D919C910F
:10DBE00011979D012E5F3F4F820F931F2091800E52
:10DBF0003091810E2817390769F4309729F4109273
:10DC0000830E1092820E02C013821282B093810E94
:10DC1000A093800EDF91CF91089581E090E0F89479
:10DC20000C948470FB01DC018D910190801901102E
:10DC3000D9F3990B0895FB01DC0101900D920020AE
:10DC4000E1F708955058BB27AA270E943A6E0C941A
:10DC50004F6C0E94416C38F00E94486C20F039F4FF
:10DC60009F3F19F426F40C943E6C0EF4E095E7FB0C
:10DC70000C94386CE92F0E94606C58F3BA17620755
:10DC800073078407950720F079F4A6F50C94826C4D
:10DC90000EF4E0950B2EBA2FA02D0B01B9019001C7
:10DCA0000C01CA01A0011124FF27591B99F0593F0B
:10DCB00050F4503E68F11A16F040A22F232F342F53
:10DCC0004427585FF3CF469537952795A795F040A1
:10DCD0005395C9F77EF41F16BA0B620B730B840BB6
:10DCE000BAF09150A1F0FF0FBB1F661F771F881F6E
:10DCF000C2F70EC0BA0F621F731F841F48F48795C6
:10DD000077956795B795F7959E3F08F0B0CF9395B7
:10DD1000880F08F09927EE0F9795879508950E9430
:10DD2000416C60F080E891E009F49EEF0E94486C3D
:10DD300028F040E851E071F45EEF0CC00C943E6CAA
:10DD40000C94826CE92FE0780E94606C40F3092EFD
:10DD5000052AB1F3261737074807590738F00E2E62
:10DD600007F8E02569F0E025E0640AC0EF6307F8F2
:10DD7000009407FADB01B9019D01DC01CA01AD0184
:10DD8000EF930E941D6F0E944F6C0E94D26E5F91B4
:10DD9000552339F02BED3FE049E450FD49EC0C945C
:10DDA000236E0895DF93DD27B92FBF7740E85FE347
:10DDB0001616170648075B0718F4D92F0E9419702A
:10DDC0009F938F937F936F930E942970E8EDF1E00A
:10DDD0000E94AE6F0E944F6C2F913F914F915F91C7
:10DDE0000E94DB6BDD2351F09058A2EA2AED3FE060
:10DDF00049EC5FE3D0785D270E943A6EDF910C9486
:10DE00004F6C0E94D76FE3950C9400700E941A6FBC
:10DE10000C944F6C0E94486C58F00E94416C40F08A
:10DE200029F45F3F29F00C94386C51110C94836CE9
:10DE30000C943E6C0E94606C68F39923B1F35523F7
:10DE400091F3951B550BBB27AA276217730784070D
:10DE500038F09F5F5F4F220F331F441FAA1FA9F3A3
:10DE600035D00E2E3AF0E0E832D091505040E69591
:10DE7000001CCAF72BD0FE2F29D0660F771F881FF2
:10DE8000BB1F261737074807AB07B0E809F0BB0BE5
:10DE9000802DBF01FF2793585F4F3AF09E3F5105F9
:10DEA00078F00C94386C0C94836C5F3FE4F3983EEC
:10DEB000D4F3869577956795B795F7959F5FC9F7E2
:10DEC000880F911D9695879597F90895E1E0660F63
:10DED000771F881FBB1F621773078407BA0720F0DC
:10DEE000621B730B840BBA0BEE1F88F7E095089545
:10DEF0000E947F6F6894B1110C94836C08950E9406
:10DF0000686C88F09F5798F0B92F9927B751B0F0F7
:10DF1000E1F0660F771F881F991F1AF0BA95C9F7AD
:10DF200014C0B13091F00E94826CB1E008950C945D
:10DF3000826C672F782F8827B85F39F0B93FCCF310
:10DF4000869577956795B395D9F73EF4909580952A
:10DF5000709561957F4F8F4F9F4F0895DF93CF93BB
:10DF60001F930F93FF92EF92DF927B018C016894D5
:10DF700006C0DA2EEF010E94DB6BFE01E894A5914A
:10DF80002591359145915591A6F3EF010E943A6E86
:10DF9000FE019701A801DA9469F7DF90EF90FF90F6
:10DFA0000F911F91CF91DF9108950C943E6C0E94C8
:10DFB000686CD8F3E894E0E0BB279F57F0F02AEDB7
:10DFC0003FE049EC06C0EE0FBB0F661F771F881FAE
:10DFD00028F0B23A62077307840728F0B25A620B3E
:10DFE000730B840BE3959A9572F7803830F49A9509
:10DFF000BB0F661F771F881FD2F790480C943470B0
:10E00000EF93E0FF07C0A2EA2AED3FE049EC5FEBA7
:10E010000E943A6E0E944F6C0F90039401FC90583E
:10E02000E5E0F2E00C9440700E94A46B08F48FEFDE
:10E0300008959B01AC0160E070E080E89FE30C94E0
:10E04000066F9F930E94D76F0F9007FCEE5F0C94B2
:10E0500000709B01AC010C94C86B0E94A46B880BF0
:10E06000990B08959F3F31F0915020F48795779553
:10E070006795B795880F911D9695879597F908959F
:10E080009F938F937F936F93FF93EF939B01AC01CB
:10E090000E94C86BEF91FF910E94AE6F2F913F914C
:10E0A0004F915F910C94C86BAA1BBB1B51E107C039
:10E0B000AA1FBB1FA617B70710F0A61BB70B881F18
:10E0C000991F5A95A9F780959095BC01CD010895A7
:10E0D00097FB072E16F4009407D077FD09D00E9415
:10E0E000547007FC05D03EF4909581959F4F08959C
:10E0F000709561957F4F0895EE0FFF1F881F8BBFAE
:10E100000790F691E02D199414E0CCEBD4E000E0F8
:10E1100006C0802FFE010E947C702196011DCD3B20
:0CE12000D10780E00807A9F7F894FFCFB2
:10E12C00010000000000840E200000000000B93F38
:10E13C006155424006402640FB3F00000000C722CC
:10E14C006155481F601F1F1F391F2C0069646C65C7
:10E15C00007377697463684D6F643000737769740A
:10E16C0063684D6F6431007377697463684D6F64D5
:10E17C0032007377697463684D6F64330070617536
:10E18C007365006A6F7973746F700073696D706C6E
:10E19C0079676F00636F6E74726F6C00666F6C6C76
:10E1AC006F007061747465726E007361646E657378
:10E1BC00735F6F6C6400616E6765725F6F6C640097
:10E1CC0073636172655F6F6C6400656E7468755F14
:10E1DC006F6C640068617070795F6F6C64006E6F57
:10E1EC00726D616C5F6F6C6400677265656E006266
:10E1FC006C75650079656C6C6F7700737461626C1B
:10E20C006500776970650071756965745F6E6F7410
:10E21C0068696E6700737572707200736164006870
:10E22C006170707900736361726500616E6765720D
:10E23C0000656E74687500707265646566696E69F8
:10E24C00746500726561637473745F706F730072D0
:10E25C006561637473745F6E65670070726F6D7067
:10E26C00745F617474656E74696F6E0070726F6D3B
:10E27C0070745F656E636F75726167650070726F45
:10E28C006D70745F737461727467616D6500707228
:10E29C006F6D70745F656E6467616D650072657734
:10E2AC006172645F72696768740072657761726429
:10E2BC005F77726F6E67007265776172645F67611A
:10E2CC006D65007265776172645F6D61746368007F
:10E2DC007265776172645F73657373696F6E0072D8
:10E2EC006573657400766F6C740073696D706C790E
:10E2FC00676F32006175746F00636C6F7365736F59
:10E30C006E6172003C6C6566746D6F763E003C729B
:10E31C00696768746D6F763E00656E74657220690E
:10E32C006E20524F544154452121003C636F6E7452
:10E33C00726F6C5F6F6B3E004E6F6E65006E616E40
:10E34C0000696E66006F7666002E003C66726F6E1A
:10E35C00747061743E003C6261636B7061743E006A
:10E36C003C6C6566747061743E003C7269676874DD
:10E37C007061743E0043414D42494F4F4F4F006511
:10E38C0063636F2074656D706F207374616C6C3A8D
:02E39C0000007F
:00000001FF
