:100000000C9481000C94B2000C94B2000C94B200D9
:100010000C94B2000C94B2000C94B2000C94B20098
:100020000C94B2000C94B2000C94B2000C94B20088
:100030000C94B2000C94B2000C94B2000C94B20078
:100040000C94B2000C94B2000C94B2000C94B20068
:100050000C94B2000C94B2000C94B2000C94E40422
:100060000C94B2000C94B4040C94E5030C94B2000C
:100070000C94B2000C94B2000C94B2000C94B20038
:100080000C94B2000C94B2000C94B2000C94B20028
:100090000C9484040C94A6030C94B2000C94B2004B
:1000A0000C94B2000C94B2000C94B2000C94B20008
:1000B0000C94B2000C94B2000C94B2000C94B200F8
:1000C0000C94B2000C94B2000C94B2000C94540442
:1000D0000C9467030C94B2000C9424040C94280331
:1000E0000C94B2000C9431010C943C010C947801F6
:1000F0000C945C010C94B4000C94DD000C94A306E9
:10010000A30611241FBECFEFD1E2DEBFCDBF00E0BA
:100110000CBF12E0A0E0B2E0EEECF3E100E00BBFB8
:1001200002C007900D92A835B107D9F725E0A8E5E0
:10013000B2E001C01D92A231B207E1F710E0C1E8C0
:10014000D0E000E006C021970109802FFE010E9447
:10015000DD09C038D10780E00807A9F70E942E0505
:100160000C9475070C940000CF92DF92EF92FF92EF
:100170000F931F93CF93DF936C01EB017B01E40E90
:10018000F51E00E010E0CE15DF0561F06991D601A3
:10019000ED91FC910190F081E02DC6011995080FB9
:1001A000191FF1CFC801DF91CF911F910F91FF90DF
:1001B000EF90DF90CF90089508950F931F93CF9302
:1001C000DF93FC01A685B7858D01005C1F4FE80118
:1001D0008881998101968F739927AD014E5B5F4F9E
:1001E000EA012881398182179307D1F3E801288138
:1001F0003981A20FB31F6C93A685B785A05CBF4F52
:1002000011969C938E93A689B7892C9181E090E0FA
:10021000078C02C0880F991F0A94E2F7822B8C93F7
:1002200081E081A30488F589E02D8081806480834A
:1002300081E090E0DF91CF911F910F910895CF93CE
:10024000DF936DE080EF94E00E94DD00EC016AE056
:1002500080EF94E00E94DD008C0F9D1FDF91CF9115
:100260000895FC0181A1882329F0A489B5898C9186
:1002700086FFFBCF11A20895FC01A485B585FD0181
:10028000E05CFF4F20813181329680819181281777
:10029000390779F080819181A80FB91F8C91208155
:1002A00031812F5F3F4F2F7333273183208390E0BD
:1002B00008958FEF9FEF0895DC011C96ED91FC915E
:1002C0001D97DF01A05CBF4F2D913C9111971296B5
:1002D0008D919C9111972817390739F08D919C9138
:1002E000E80FF91F808190E008958FEF9FEF089548
:1002F000FC0124853585F901E05CFF4F8081918107
:10030000329620813181821B930B8F739927089538
:1003100080EF94E00E9478018DE394E00E947801E0
:1003200083E993E00E94780189EE92E00C947801D1
:10033000FB01E05CFF4F208131812F5F3F4F2F7326
:100340003327DB01AE5BBF4F4D915C91241735071E
:1003500041F040815181DB01A40FB51F8C933183A3
:10036000208308953FB7F89480915D0290915E02DA
:10037000A0915F02B091600226B5A89B05C02F3FF7
:1003800019F00196A11DB11D3FBFBA2FA92F982FBB
:100390008827820F911DA11DB11DBC01CD0142E036
:1003A000660F771F881F991F4A95D1F70895009708
:1003B00069F0FC0101900020E9F73197AF01481B7B
:1003C000590BBC0180EF94E00C94B40080E090E005
:1003D00008958F929F92AF92BF92EF92FF920F93E8
:1003E0001F93CF93DF93CDB7DEB7A1970FB6F894E5
:1003F000DEBF0FBECDBF162F042F19A2423008F466
:100400000AE07E0121E2E20EF11C802E912CA12C4B
:10041000B12C612FA50194010E94BB09029F101904
:10042000112481E0E81AF1081A3014F4105D01C0BB
:10043000195CF7011083122F732FCA01232B242B71
:10044000252B39F7C7010E94D701A1960FB6F89462
:10045000DEBF0FBECDBFDF91CF911F910F91FF90F7
:10046000EF90BF90AF909F908F9008954F925F92C2
:100470006F927F928F929F92AF92BF92CF92DF92B4
:10048000EF92FF92CF93DF936B017C01B42E9B011F
:10049000AC010E94B609882319F080E192E027C0E0
:1004A00026013701E89477F82FEF3FEF4FE75FE73A
:1004B000C301B2010E94B60981110DC02FEF3FEFB9
:1004C0004FE75FE7C301B2010E94E50718161CF46D
:1004D00084E192E00CC02FEF3FEF4FE75FE4C701EC
:1004E000B6010E944409181694F488E192E0DF9165
:1004F000CF91FF90EF90DF90CF90BF90AF909F9003
:100500008F907F906F905F904F900C94D7012FEF5A
:100510003FEF4FE75FECC701B6010E94E50787FD9B
:10052000E4CF20E030E0A901C701B6010E94E50751
:1005300087FF0BC06DE280EF94E00E94DD00EC01CC
:10054000F7FAF094F7F8F09402C0C0E0D0E0A12CE4
:1005500060E070E080E09FE3BA1441F020E030E01A
:1005600040E251E40E94EA07A394F6CFA701960166
:100570000E9479076B017C010E9463082B013C01FA
:100580004AE00E94E901C80FD91FBB2009F450C0FE
:10059000C301B2010E9492089B01AC01C701B601E0
:1005A0000E9478072B013C018CE192E00E94D70168
:1005B000C80FD91FFB2C20E030E040E251E4C3011A
:1005C000B2010E9449092B013C010E945C084B01C9
:1005D000770FAA08BB08B7FE15C06DE280EF94E064
:1005E0000E94DD006C0188279927DC018819990990
:1005F000AA09BB094AE0BC01CD010E94E9018C0DAA
:100600009D1D05C04AE0C501B4010E94E901C80F63
:10061000D91FC501B4010E9494089B01AC01C3011C
:10062000B2010E9478072B013C01FA94F110C3CF6C
:10063000CE01DF91CF91FF90EF90DF90CF90BF90F0
:10064000AF909F908F907F906F905F904F900895A4
:100650001F920F920FB60F9211240BB60F922F9389
:100660003F938F939F93EF93FF932091A10230913B
:10067000A2028091A3029091A4022817390731F4B5
:10068000809131018F7D8093310114C0E091A302EC
:10069000F091A402EF59FD4F20818091A302909127
:1006A000A40201968F7399279093A4028093A302CA
:1006B00020933601FF91EF919F918F913F912F9160
:1006C0000F900BBE0F900FBE0F901F9018951F92AA
:1006D0000F920FB60F9211240BB60F922F933F93E8
:1006E0008F939F93EF93FF9320914B0330914C0393
:1006F00080914D0390914E032817390731F4809172
:10070000D1008F7D8093D10014C0E0914D03F09112
:100710004E03E55FFC4F208180914D0390914E0385
:1007200001968F73992790934E0380934D032093E6
:10073000D600FF91EF919F918F913F912F910F9054
:100740000BBE0F900FBE0F901F9018951F920F9227
:100750000FB60F9211240BB60F922F933F938F93E6
:100760009F93EF93FF932091F5033091F6038091CF
:10077000F7039091F8032817390731F48091C900E5
:100780008F7D8093C90014C0E091F703F091F803C6
:10079000EB54FC4F20818091F7039091F803019670
:1007A0008F7399279093F8038093F7032093CE00DB
:1007B000FF91EF919F918F913F912F910F900BBEE1
:1007C0000F900FBE0F901F9018951F920F920FB6AB
:1007D0000F9211240BB60F922F933F938F939F93F9
:1007E000EF93FF9320919F043091A0048091A10486
:1007F0009091A2042817390731F48091C1008F7DB0
:100800008093C10014C0E091A104F091A204E15AC8
:10081000FB4F20818091A1049091A20401968F73D7
:1008200099279093A2048093A1042093C600FF917E
:10083000EF919F918F913F912F910F900BBE0F9051
:100840000FBE0F901F9018951F920F920FB60F9228
:1008500011240BB60F922F933F934F935F936F9397
:100860007F938F939F93AF93BF93EF93FF93809169
:10087000300182FD06C08091360165EA72E00E9477
:100880009801FF91EF91BF91AF919F918F917F91CF
:100890006F915F914F913F912F910F900BBE0F90F1
:1008A0000FBE0F901F9018951F920F920FB60F92C8
:1008B00011240BB60F922F933F934F935F936F9337
:1008C0007F938F939F93AF93BF93EF93FF93809109
:1008D000D00082FD06C08091D6006FE473E00E94D4
:1008E0009801FF91EF91BF91AF919F918F917F916F
:1008F0006F915F914F913F912F910F900BBE0F9091
:100900000FBE0F901F9018951F920F920FB60F9267
:1009100011240BB60F922F933F934F935F936F93D6
:100920007F938F939F93AF93BF93EF93FF938091A8
:10093000C80082FD06C08091CE0069EF73E00E947E
:100940009801FF91EF91BF91AF919F918F917F910E
:100950006F915F914F913F912F910F900BBE0F9030
:100960000FBE0F901F9018951F920F920FB60F9207
:1009700011240BB60F922F933F934F935F936F9376
:100980007F938F939F93AF93BF93EF93FF93809148
:10099000C00082FD06C08091C60063EA74E00E9438
:1009A0009801FF91EF91BF91AF919F918F917F91AE
:1009B0006F915F914F913F912F910F900BBE0F90D0
:1009C0000FBE0F901F9018951F920F920FB60F92A7
:1009D00011242F933F938F939F93AF93BF93809155
:1009E000590290915A02A0915B02B0915C02309141
:1009F000580223E0230F2D3720F40196A11DB11DCD
:100A000005C026E8230F0296A11DB11D20935802B0
:100A10008093590290935A02A0935B02B0935C02B8
:100A200080915D0290915E02A0915F02B0916002A0
:100A30000196A11DB11D80935D0290935E02A0936B
:100A40005F02B0936002BF91AF919F918F913F91F0
:100A50002F910F900FBE0F901F901895789484B52A
:100A6000826084BD84B5816084BD85B5826085BDAA
:100A700085B5816085BD80916E00816080936E0038
:100A8000109281008091810082608093810080912A
:100A900081008160809381008091800081608093DB
:100AA00080008091B10084608093B1008091B0009B
:100AB00081608093B000809191008260809391006A
:100AC000809191008160809391008091900081607D
:100AD000809390008091A10082608093A10080911A
:100AE000A10081608093A1008091A000816080932B
:100AF000A0008091210182608093210180912101D9
:100B00008160809321018091200181608093200188
:100B100080917A00846080937A0080917A0082606C
:100B200080937A0080917A00816080937A0080912E
:100B30007A00806880937A001092C100E0910405E9
:100B4000F091050581E090E09C010090100502C045
:100B5000220F331F0A94E2F72083E0910005F09101
:100B600001051082E0910205F091030520E1208348
:100B700010921105E0910605F091070540819C0156
:100B800000900C0502C0220F331F0A94E2F7242BB9
:100B90002083E0910605F091070540819C010090BB
:100BA0000D0502C0220F331F0A94E2F7242B208385
:100BB000E0910605F091070540819C0100900E052B
:100BC00002C0220F331F0A94E2F7242B2083E09106
:100BD0000605F0910705208100900F0502C0880FDF
:100BE000991F0A94E2F78095822380831092EF0484
:100BF0001092EE0415E48091EE049091EF04843499
:100C000096410CF09DC08091ED048A3030F58091C2
:100C10007B00877F80937B0010937C0080917A001B
:100C2000806480937A0080917A0086FDFCCF809169
:100C300078002091790090E0922B2091EB04309184
:100C4000EC04820F931F9093EC048093EB0480914B
:100C5000ED048F5F8093ED04D6CF6091EB0470912B
:100C6000EC04072E000C880B990B0E94940820E0DE
:100C700030E040E251E40E94EA0726EF38E240EA21
:100C800050E40E94490920E030E040E85AE30E9425
:100C900049092EEA37E441E850E40E94490960938B
:100CA000E7047093E8048093E9049093EA041092B7
:100CB000ED041092EC041092EB042091EE043091BC
:100CC000EF042F5F3F4F3093EF042093EE0420E0BA
:100CD00030E048E351E40E94E50718161CF08EE16D
:100CE00092E002C089E392E00E94D7016091E7049C
:100CF0007091E8048091E9049091EA0442E00E9436
:100D000036020E941F010E94B201EB0188EEC82E3C
:100D100083E0D82EE12CF12C0E94B2016C1B7D0BDC
:100D2000683E7340C8F321E0C21AD108E108F10817
:100D3000C851DC4FC114D104E104F10469F75BCF61
:100D40000E94880158CFCF92DF92EF92FF92E0EF9E
:100D5000F4E01382128288EEC82E83E0D82EE12CB4
:100D6000F12CC482D582E682F78264E072E071835E
:100D7000608383EA94E0958784878FE594E0978782
:100D8000868785EC90E0918B808B84EC90E0938B50
:100D9000828B80EC90E0958B848B81EC90E0978B3C
:100DA000868B82EC90E0918F808F86EC90E0938F21
:100DB000828F44E0448F33E0358F27E0268F95E023
:100DC000978F81E080A3EDE3F4E013821282C48266
:100DD000D582E682F78271836083A9EFB3E0B5879D
:100DE000A487A5EBB3E0B787A687ADECB0E0B18BE5
:100DF000A08BACECB0E0B38BA28BA8ECB0E0B58BD1
:100E0000A48BA9ECB0E0B78BA68BAAECB0E0B18FB5
:100E1000A08FAEECB0E0B38FA28F448F358F268FBA
:100E2000978F80A3E3E9F3E013821282C482D58214
:100E3000E682F78271836083AFE4B3E0B587A4876D
:100E4000ABE0B3E0B787A687A5EDB0E0B18BA08B90
:100E5000A4EDB0E0B38BA28BA0EDB0E0B58BA48B7A
:100E6000A1EDB0E0B78BA68BA2EDB0E0B18FA08F63
:100E7000A6EDB0E0B38FA28F448F358F268F978F6A
:100E800080A3E9EEF2E013821282C482D582E68268
:100E9000F7827183608365EA72E07587648761E633
:100EA00072E07787668765E371E0718B608B64E33E
:100EB00071E0738B628B60E371E0758B648B61E32F
:100EC00071E0778B668B62E371E0718F608F66E310
:100ED00071E0738F628F448F358F268F978F80A339
:100EE000FF90EF90DF90CF900895F8940C94E5096F
:100EF0005058BB27AA270E9490070C940A090E9409
:100F0000FC0838F00E94030920F039F49F3F19F4DF
:100F100026F40C94F9080EF4E095E7FB0C94F30822
:100F2000E92F0E941B0958F3BA1762077307840759
:100F3000950720F079F4A6F50C943D090EF4E095A0
:100F40000B2EBA2FA02D0B01B90190010C01CA0183
:100F5000A0011124FF27591B99F0593F50F4503E2E
:100F600068F11A16F040A22F232F342F4427585F20
:100F7000F3CF469537952795A795F0405395C9F738
:100F80007EF41F16BA0B620B730B840BBAF09150F0
:100F9000A1F0FF0FBB1F661F771F881FC2F70EC08F
:100FA000BA0F621F731F841F48F487957795679562
:100FB000B795F7959E3F08F0B0CF9395880F08F04E
:100FC0009927EE0F9795879508950E94CF0808F40A
:100FD00081E008950E94FE070C940A090E9403090B
:100FE00058F00E94FC0840F029F45F3F29F00C946F
:100FF000F30851110C943E090C94F9080E941B0946
:1010000068F39923B1F3552391F3951B550BBB2737
:10101000AA2762177307840738F09F5F5F4F220F7C
:10102000331F441FAA1FA9F335D00E2E3AF0E0E873
:1010300032D091505040E695001CCAF72BD0FE2FBD
:1010400029D0660F771F881FBB1F26173707480751
:10105000AB07B0E809F0BB0B802DBF01FF27935809
:101060005F4F3AF09E3F510578F00C94F3080C94D2
:101070003E095F3FE4F3983ED4F3869577956795F4
:10108000B795F7959F5FC9F7880F911D969587953E
:1010900097F90895E1E0660F771F881FBB1F62175D
:1010A00073078407BA0720F0621B730B840BBA0B1B
:1010B000EE1F88F7E09508950E9463086894B111C7
:1010C0000C943E0908950E94230988F09F5798F0D8
:1010D000B92F9927B751B0F0E1F0660F771F881F3D
:1010E000991F1AF0BA95C9F714C0B13091F00E9457
:1010F0003D09B1E008950C943D09672F782F8827AA
:10110000B85F39F0B93FCCF3869577956795B3957D
:10111000D9F73EF490958095709561957F4F8F4FEC
:101120009F4F0895E89409C097FB3EF490958095F1
:10113000709561957F4F8F4F9F4F9923A9F0F92F9D
:1011400096E9BB279395F695879577956795B7951B
:10115000F111F8CFFAF4BB0F11F460FF1BC06F5F01
:101160007F4F8F4F9F4F16C0882311F096E911C013
:10117000772321F09EE8872F762F05C0662371F034
:1011800096E8862F70E060E02AF09A95660F771F48
:10119000881FDAF7880F9695879597F90895990F24
:1011A0000008550FAA0BE0E8FEEF16161706E80731
:1011B000F907C0F012161306E407F50798F0621B52
:1011C000730B840B950B39F40A2661F0232B242B27
:1011D000252B21F408950A2609F4A140A6958FEF46
:1011E000811D811D089597F99F6780E870E060E098
:1011F00008959FEF80EC089500240A9416161706B0
:1012000018060906089500240A94121613061406F7
:1012100005060895092E0394000C11F4882352F05A
:10122000BB0F40F4BF2B11F460FF04C06F5F7F4F12
:101230008F4F9F4F089557FD9058440F551F59F0F9
:101240005F3F71F04795880F97FB991F61F09F3FB3
:1012500079F087950895121613061406551FF2CFDC
:101260004695F1DF08C0161617061806991FF1CF2C
:1012700086957105610508940895E894BB27662753
:101280007727CB0197F908950E94CF0808F48FEFD4
:1012900008950E945C090C940A090E94FC0838F029
:1012A0000E94030920F0952311F00C94F3080C948C
:1012B000F90811240C943E090E941B0970F3959FB4
:1012C000C1F3950F50E0551F629FF001729FBB273D
:1012D000F00DB11D639FAA27F00DB11DAA1F649FD9
:1012E0006627B00DA11D661F829F2227B00DA11D8C
:1012F000621F739FB00DA11D621F839FA00D611D12
:10130000221F749F3327A00D611D231F849F600D32
:10131000211D822F762F6A2F11249F5750409AF05B
:10132000F1F088234AF0EE0FFF1FBB1F661F771FE7
:10133000881F91505040A9F79E3F510580F00C94B2
:10134000F3080C943E095F3FE4F3983ED4F386958E
:1013500077956795B795F795E7959F5FC1F7FE2B52
:10136000880F911D9695879597F908950E94CF084B
:10137000880B990B0895A1E21A2EAA1BBB1BFD0135
:101380000DC0AA1FBB1FEE1FFF1FA217B307E40764
:10139000F50720F0A21BB30BE40BF50B661F771FBC
:1013A000881F991F1A9469F760957095809590959C
:1013B0009B01AC01BD01CF010895EE0FFF1F881FF7
:0E13C0008BBF0790F691E02D1994F894FFCFA3
:1013CE0000000000DD00B40078013C015C01310139
:1013DE006E616E00696E66006F7666002E00706537
:1013EE007269636F6C6F2120737461746F20626118
:1013FE007474657269613A20006E6F20C3A8206311
:10140E0061726963612C20707265636973616D65C9
:08141E006E746520C3A82000D4
:00000001FF
