:100000000C9433010C9447010C9447010C94470164
:100010000C9447010C9447010C9447010C94470140
:100020000C9447010C9447010C9447010C94470130
:100030000C9447010C9447010C9447010C94470120
:100040000C9447010C9447010C9447010C94470110
:100050000C9447010C9447010C9447010C94E60161
:100060000C9447010C9447010C9447010C944701F0
:100070000C9447010C9447010C9447010C944701E0
:100080000C9447010C9447010C9447010C944701D0
:100090000C9447010C9447010C9447010C944701C0
:1000A0000C9447010C9447010C9447010C944701B0
:1000B0000C9447010C9447010C9447010C944701A0
:1000C0000C9447010C9447010C9447010C94470190
:1000D0000C9447010C9447010C9447010C94470180
:1000E0000C9447016001630156015A019A016701AE
:1000F0006B017101750179017F01830187019A010B
:100100008D01910195010C9479010C9460010C947E
:1001100087010C9463010C9471010C9456010C94AA
:1001200075010C949A010C9495010C945A010C944D
:1001300067010C946B010C948D010C9483010C9459
:1001400091010C947F0100002100240027002A0067
:100150002D003000330001010000040107010A01F5
:10016000000020002300260029002C002F00320070
:100170000001000003010601090100002200250022
:1001800028002B002E003100340002010000050180
:1001900008010B0105050505070508080808020206
:1001A00002020A0A08080404040401010101010111
:1001B00001010303030303030303040707070C0CF4
:1001C0000C0C0C0C0C0C02020202060606060606BB
:1001D00006060B0B0B0B0B0B0B0B01021020200860
:1001E0000810204010204080020102010804020192
:1001F0000102040810204080804020100804020101
:100200008004020180402010080402010804020159
:1002100001020408102040800102040810204080E0
:100220000000090A02080B0C0D0706030401000078
:1002300000000000000000000000000000000000BE
:1002400000000000000000000000000011100F007E
:10025000000000000000000000000000000000009E
:1002600000000000000011241FBECFEFD1E2DEBF6E
:10027000CDBF00E00CBF22E0A0E0B2E001C01D92C3
:10028000A930B207E1F70E9430020C9427030C94C6
:10029000000090E0FC013197E131F10508F04AC01F
:1002A0008827EE58FF4F8F4F0C942A0380918000CF
:1002B0008F7703C0809180008F7D809380000895A8
:1002C00084B58F7702C084B58F7D84BD08958091F9
:1002D000B0008F7703C08091B0008F7D8093B00015
:1002E0000895809190008F7707C0809190008F7D56
:1002F00003C080919000877F809390000895809143
:10030000A0008F7707C08091A0008F7D03C08091EF
:10031000A000877F8093A0000895809120018F77AF
:1003200007C0809120018F7D03C080912001877FCD
:100330008093200108953FB7F89480910502909131
:100340000602A0910702B091080226B5A89B05C03D
:100350002F3F19F00196A11DB11D3FBFBA2FA92F44
:10036000982F8827820F911DA11DB11DBC01CD01C1
:1003700042E0660F771F881F991F4A95D1F70895AD
:10038000CF92DF92EF92FF92CF93DF936B017C01CC
:100390000E949B01EB01C114D104E104F10479F046
:1003A0000E949B016C1B7D0B683E7340A0F381E0B3
:1003B000C81AD108E108F108C851DC4FECCFDF9131
:1003C000CF91FF90EF90DF90CF9008951F920F9202
:1003D0000FB60F9211242F933F938F939F93AF9358
:1003E000BF938091010290910202A0910302B0910B
:1003F00004023091000223E0230F2D3720F40196F0
:10040000A11DB11D05C026E8230F0296A11DB11D37
:10041000209300028093010290930202A0930302B2
:10042000B09304028091050290910602A091070208
:10043000B09108020196A11DB11D80930502909311
:100440000602A0930702B0930802BF91AF919F915B
:100450008F913F912F910F900FBE0F901F90189585
:10046000789484B5826084BD84B5816084BD85B58F
:10047000826085BD85B5816085BD80916E0081609B
:1004800080936E0010928100809181008260809341
:100490008100809181008160809381008091800043
:1004A0008160809380008091B10084608093B1006E
:1004B0008091B00081608093B00080919100826053
:1004C0008093910080919100816080939100809150
:1004D00090008160809390008091A1008260809361
:1004E000A1008091A10081608093A1008091A00073
:1004F00081608093A000809121018260809321011E
:10050000809121018160809321018091200181608F
:100510008093200180917A00846080937A0080919A
:100520007A00826080937A0080917A008160809363
:100530007A0080917A00806880937A001092C100DE
:10054000C7EED1E0FE01249101EA11E0F8018491A7
:10055000882399F090E0880F991FFC01EA5BFE4F19
:10056000A591B491FC01E658FE4F859194919FB7F7
:10057000F8948C91822B8C939FBF2AE0C22ED12CB1
:100580003DE2A32E32E0B32EF5018491FE01E4900A
:10059000F801F490FF20A1F081110E944901EF2D94
:1005A000F0E0EE0FFF1FE05AFE4FA591B4918C9141
:1005B0008E2121E090E009F420E0E22EF92E02C025
:1005C000E12CF12CF5018491FE019490F8018490C6
:1005D0008820B1F081110E944901E82DF0E0EE0F72
:1005E000FF1FE658FE4FA591B4919FB7F8948C91E8
:1005F000EF2819F09094982201C0982A9C929FBFEE
:1006000064EF71E080E090E00E94C001F1E0CF1A59
:10061000D10809F0B9CF68EE73E080E090E00E9465
:10062000C0010FB6F894A89580916000886180930E
:100630006000109260000FBE98E088E10FB6F89459
:10064000A895809360000FBE90936000FFCFF89450
:100650000C943203EE0FFF1F881F8BBF0790F6919B
:08066000E02D1994F894FFCF7E
:00000001FF
