:100000000C9438010C9469010C9469010C946901F9
:100010000C9469010C9469010C9469010C946901B8
:100020000C9469010C9469010C9469010C946901A8
:100030000C9469010C9469010C9469010C94690198
:100040000C9469010C9469010C9469010C94690188
:100050000C9469010C9469010C9469010C94760666
:100060000C9469010C9443060C946B050C94690183
:100070000C9469010C9469010C9469010C94690158
:100080000C9469010C9469010C9469010C94690148
:100090000C9410060C942C050C9469010C946901C5
:1000A0000C9469010C9469010C9469010C94690128
:1000B0000C9469010C9469010C9469010C94690118
:1000C0000C9469010C9469010C9469010C94DD0590
:1000D0000C94ED040C9469010C94AA050C94AE04E4
:1000E0000C946901950198018B018F01CF019C014E
:1000F000A001A601AA01AE01B401B801BC01CF0163
:10010000C201C601CA010C94AA010C94CA010C9444
:10011000B4010C94A5020C94AE010C9489020C94C9
:10012000A0010C948B010C949C010C94CF010C94B5
:10013000B8010C94C0060C94C6010C941C020C94DB
:10014000DF020C945E020C9469020C9425090C9455
:100150008F010C9495010C94C2010C94BC010C9479
:1001600098010C94A60100002100240027002A0019
:100170002D003000330001010000040107010A01D5
:100180000000090A02080B0C0D0706030401000019
:10019000000000000000000000000000000000005F
:1001A00000000000000000000000000011100F001F
:1001B000000000000000000000000000000000003F
:1001C000000000000000010210202008081020405C
:1001D000102040800201020108040201010204080B
:1001E0001020408080402010080402018004020199
:1001F00080402010080402010804020101020408E2
:1002000010204080010204081020408000002200DD
:10021000250028002B002E003100340002010000D0
:10022000050108010B010505050507050808080873
:10023000020202020A0A080804040404010101017E
:100240000101010103030303030303030407070779
:100250000C0C0C0C0C0C0C0C02020202060606061E
:10026000060606060B0B0B0B0B0B0B0BC00625092A
:1002700011241FBECFEFD1E2DEBFCDBF00E00CBF27
:1002800012E0A0E0B2E0EEE0F5E100E00BBF02C05A
:1002900007900D92AC31B107D9F724E0ACE1B2E0A0
:1002A00001C01D92A73EB207E1F711E0C7E3D1E01C
:1002B00000E006C021970109802FFE010E946D0A0F
:1002C000C633D10780E00807A9F70E945B080C94A9
:1002D00035090C94000090E0FC01E058FE4F449179
:1002E000FC01EA53FE4F2491FC01EA5DFD4F94911D
:1002F000992309F463C0442309F451C050E0FA0182
:100300003197E131F10508F04AC08827EE58FF4FD8
:100310008F4F0C946D0A809180008F7703C080917D
:1003200080008F7D809380003AC084B58F7702C0B3
:1003300084B58F7D84BD33C08091B0008F7703C0BA
:100340008091B0008F7D8093B00029C08091900093
:100350008F7707C0809190008F7D03C080919000BF
:10036000877F809390001BC08091A0008F7707C08B
:100370008091A0008F7D03C08091A000877F809333
:10038000A0000DC0809120018F7707C080912001CF
:100390008F7D03C080912001877F80932001E92F0A
:1003A000F0E0EE0FFF1FE45FFD4FA591B4919FB702
:1003B000F8948C91209528232C939FBF089508953D
:1003C000CF93DF9390E0FC01EA53FE4F2491FC01B0
:1003D000EA5DFD4F8491882361F190E0880F991FB9
:1003E000FC01EA59FE4FC591D491FC01E45FFD4F39
:1003F000A591B491611109C09FB7F89488812095A7
:1004000082238883EC912E230BC0623061F49FB766
:10041000F8948881322F309583238883EC912E2B9A
:100420002C939FBF06C08FB7F894E8812E2B2883AA
:100430008FBFDF91CF9108950F931F93CF93DF93D9
:10044000FC01A685B7858D01005C1F4FE8018881FE
:10045000998101968F739927AD014E5B5F4FEA0139
:100460002881398128173907D1F3E801288139819A
:10047000A20FB31F6C93A685B785A05CBF4F1196E2
:100480009C938E93A689B7892C9181E090E0078C8C
:1004900002C0880F991F0A94E2F7822B8C9381E0A7
:1004A00081A30488F589E02D80818064808381E0C8
:1004B00090E0DF91CF911F910F910895FC0181A1F0
:1004C000882329F0A489B5898C9186FFFBCF11A2DE
:1004D0000895FC01A485B585FD01E05CFF4F2081F6
:1004E00031813296808191812817390779F0808196
:1004F0009181A80FB91F8C91208131812F5F3F4FCF
:100500002F7333273183208390E008958FEF9FEF7F
:100510000895DC011C96ED91FC911D97DF01A05C14
:10052000BF4F2D913C91119712968D919C911197EF
:100530002817390739F08D919C91E80FF91F8081B8
:1005400090E008958FEF9FEF0895FC012485358595
:10055000F901E05CFF4F80819181329620813181E9
:10056000821B930B8F73992708958BEA94E00E9466
:10057000A50281E094E00E94A50287E593E00E9435
:10058000A5028DEA92E00C94A502FB01E05CFF4F0E
:1005900020813181DB01AE5BBF4F4D915C912F5FBC
:1005A0003F4F2F7333274217530741F0408151814A
:1005B000DB01A40FB51F8C93318320830895CF9264
:1005C000DF92EF92FF920F931F93CF93DF936C0113
:1005D000EB017B01E40EF51E00E010E0CE15DF0517
:1005E00061F06991D601ED91FC910190F081E02DCF
:1005F000C6011995080F191FF1CFC801DF91CF91DE
:100600001F910F91FF90EF90DF90CF9008953FB72B
:10061000F8948091210290912202A0912302B0913E
:10062000240226B5A89B05C02F3F19F00196A11DF5
:10063000B11D3FBFBA2FA92F982F8827820F911D78
:10064000A11DB11DBC01CD0142E0660F771F881FBF
:10065000991F4A95D1F708950F931F93CF93DF9376
:10066000CDB7DEB729970FB6F894DEBF0FBECDBF6A
:100670000E9407030091DC041091DD042091DE0448
:100680003091DF04DC01CB01801B910BA20BB30B7B
:100690008C329140A105B10558F3F8948091D104B2
:1006A0009091D2049A838983E091D604F091D70483
:1006B000DF011196808189879091CD04E091E0045B
:1006C000F091E1048091E204992309F42EC0908115
:1006D000982B98879081809589238F838F818C8335
:1006E00088E08B8358856F8149853B812C81898186
:1006F0009A81508347FD252F3A952083262F39F084
:10070000441F00C000006083000000C0F2CF38E04A
:100710004D9160830000019761F7F093E104E0934D
:10072000E00449873B832C8338C09081982B9887BD
:100730009081809589238F838F818E8388E08D833C
:1007400058856F8149853D812E8189819A815083A9
:1007500047FD252F00C000C0208300C000C000C09E
:1007600000C000C060830000262F3A9541F0441F6E
:10077000000000C000C000C000C000C0E8CF38E0EA
:100780004D9100C0608300C0019709F7F093E10428
:10079000E093E00449873D832E839A83898378948C
:1007A0000E9407036093DC047093DD048093DE04F1
:1007B0009093DF0429960FB6F894DEBF0FBECDBF2D
:1007C000DF91CF911F910F9108952F923F924F92F9
:1007D0005F926F927F928F929F92AF92BF92CF92D1
:1007E000DF92EF92FF920F931F93CF93DF93CDB7DA
:1007F000DEB728970FB6F894DEBF0FBECDBF2B0132
:100800003C011A0169825A82872D9927AA27BB27A2
:100810008B839D838C83C12CD12C00E010E0E12CD4
:10082000F12C4E828091CF049091D004E816F90605
:1008300008F07BC05E814091D504442379F0298182
:10084000249FC0011124792F3A81439FC0011124B4
:10085000692F449DC0011124592F02C06A817981FA
:100860002091DB043091D8048091D6049091D70474
:10087000231303C0800F911F12C08C0D9D1DFC011E
:10088000E20FF11D442349F0AC81BD814A9F9001E4
:100890004B9F300D1124232F01C02B8120832091E9
:1008A000D804FC01E20FF11D70832091D904FC01F2
:1008B000E20FF11D60832091DA04FC01E20FF11DCB
:1008C00050838091D6049091D704892B11F00E9417
:1008D0002C034101032C000CAA08BB080E9407034B
:1008E00078876F8381149104A104B104A9F00E9458
:1008F00007032F813885621B730B683E734090F3AA
:1009000081E0881A9108A108B108AF81B885A85183
:10091000BC4FB887AF83E6CFBFEFEB1AFB0A0D5F82
:100920001F4F24E0C20ED11C7DCF28960FB6F8943D
:10093000DEBF0FBECDBFDF91CF911F910F91FF9012
:10094000EF90DF90CF90BF90AF909F908F907F906F
:100950006F905F904F903F902F9008951F920F924D
:100960000FB60F9211240BB60F922F933F938F93D4
:100970009F93EF93FF9320916502309166028091DF
:100980006702909168022817390731F4809131018C
:100990008F7D8093310114C0E0916702F09168026D
:1009A000EB5DFD4F20818091670290916802019676
:1009B0008F73992790936802809367022093360182
:1009C000FF91EF919F918F913F912F910F900BBECF
:1009D0000F900FBE0F901F9018951F920F920FB699
:1009E0000F9211240BB60F922F933F938F939F93E7
:1009F000EF93FF9320910F03309110038091110327
:100A0000909112032817390731F48091D1008F7D1E
:100A10008093D10014C0E0911103F0911203E153CF
:100A2000FD4F2081809111039091120301968F73E5
:100A3000992790931203809311032093D600FF917E
:100A4000EF919F918F913F912F910F900BBE0F903F
:100A50000FBE0F901F9018951F920F920FB60F9216
:100A600011240BB60F922F933F938F939F93EF9385
:100A7000FF932091B9033091BA038091BB03909109
:100A8000BC032817390731F48091C9008F7D80930A
:100A9000C90014C0E091BB03F091BC03E758FC4FC0
:100AA00020818091BB039091BC0301968F7399279D
:100AB0009093BC038093BB032093CE00FF91EF91F2
:100AC0009F918F913F912F910F900BBE0F900FBE72
:100AD0000F901F9018951F920F920FB60F9211242E
:100AE0000BB60F922F933F938F939F93EF93FF93A8
:100AF00020916304309164048091650490916604B0
:100B00002817390731F48091C1008F7D8093C1008F
:100B100014C0E0916504F0916604ED5DFB4F208107
:100B2000809165049091660401968F739927909344
:100B30006604809365042093C600FF91EF919F9116
:100B40008F913F912F910F900BBE0F900FBE0F9082
:100B50001F9018951F920F920FB60F9211240BB68B
:100B60000F922F933F934F935F936F937F938F9346
:100B70009F93AF93BF93EF93FF938091300182FDDA
:100B800007C08091360169E672E00E94C50202C08A
:100B900080913601FF91EF91BF91AF919F918F911D
:100BA0007F916F915F914F913F912F910F900BBE6D
:100BB0000F900FBE0F901F9018951F920F920FB6B7
:100BC0000F9211240BB60F922F933F934F935F9385
:100BD0006F937F938F939F93AF93BF93EF93FF9305
:100BE0008091D00082FD07C08091D60063E173E060
:100BF0000E94C50202C08091D600FF91EF91BF9183
:100C0000AF919F918F917F916F915F914F913F91A4
:100C10002F910F900BBE0F900FBE0F901F90189545
:100C20001F920F920FB60F9211240BB60F922F93B3
:100C30003F934F935F936F937F938F939F93AF9364
:100C4000BF93EF93FF938091C80082FD07C080910E
:100C5000CE006DEB73E00E94C50202C08091CE0011
:100C6000FF91EF91BF91AF919F918F917F916F9184
:100C70005F914F913F912F910F900BBE0F900FBE40
:100C80000F901F9018951F920F920FB60F9211247C
:100C90000BB60F922F933F934F935F936F937F9376
:100CA0008F939F93AF93BF93EF93FF938091C00077
:100CB00082FD07C08091C60067E674E00E94C5020D
:100CC00002C08091C600FF91EF91BF91AF919F91BB
:100CD0008F917F916F915F914F913F912F910F90E5
:100CE0000BBE0F900FBE0F901F9018951F920F9282
:100CF0000FB60F9211242F933F938F939F93AF932F
:100D0000BF9380911D0290911E02A0911F02B0918D
:100D1000200230911C0223E0230F2D3720F401968E
:100D2000A11DB11D05C026E8230F0296A11DB11D0E
:100D300020931C0280931D0290931E02A0931F0219
:100D4000B09320028091210290912202A09123026F
:100D5000B09124020196A11DB11D809321029093B0
:100D60002202A0932302B0932402BF91AF919F91DE
:100D70008F913F912F910F900FBE0F901F9018955C
:100D8000CF92DF92EF92FF921092AE041092AD04D8
:100D900098EEC92E93E0D92EE12CF12CC092AF042D
:100DA000D092B004E092B104F092B2046AE072E032
:100DB0007093AC046093AB0487E694E09093B8041E
:100DC0008093B70483E294E09093BA048093B904CB
:100DD00085EC90E09093BC048093BB0484EC90E09D
:100DE0009093BE048093BD0480EC90E09093C00487
:100DF0008093BF0481EC90E09093C2048093C1047F
:100E000082EC90E09093C4048093C30486EC90E05D
:100E10009093C6048093C50444E04093C70433E034
:100E20003093C80427E02093C90495E09093CA0446
:100E300081E08093CB041092040410920304C092CA
:100E40000504D0920604E0920704F092080470931F
:100E5000020460930104EDEBF3E0F0930E04E093E1
:100E60000D04E9E7F3E0F0931004E0930F04EDECD8
:100E7000F0E0F0931204E0931104ECECF0E0F09356
:100E80001404E0931304E8ECF0E0F0931604E0930C
:100E90001504E9ECF0E0F0931804E0931704EAEC91
:100EA000F0E0F0931A04E0931904EEECF0E0F09314
:100EB0001C04E0931B0440931D0430931E042093F4
:100EC0001F04909320048093210410925A031092DF
:100ED0005903C0925B03D0925C03E0925D03F092F1
:100EE0005E037093580360935703E3E1F3E0F093DC
:100EF0006403E0936303EFECF2E0F0936603E093A6
:100F00006503E5EDF0E0F0936803E0936703E4ED3B
:100F1000F0E0F0936A03E0936903E0EDF0E0F09312
:100F20006C03E0936B03E1EDF0E0F0936E03E0936C
:100F30006D03E2EDF0E0F0937003E0936F03E6EDF4
:100F4000F0E0F0937203E0937103409373033093E6
:100F50007403209375039093760380937703109224
:100F6000B0021092AF02C092B102D092B202E092EF
:100F7000B302F092B4027093AE026093AD0269E6E0
:100F800072E07093BA026093B90265E272E0709306
:100F9000BC026093BB0265E371E07093BE02609394
:100FA000BD0264E371E07093C0026093BF0260E32E
:100FB00071E07093C2026093C10261E371E07093CB
:100FC000C4026093C30262E371E07093C60260934F
:100FD000C50266E371E07093C8026093C702409354
:100FE000C9023093CA022093CB029093CC02809323
:100FF000CD021092CE041092D5041092DC0410920F
:10100000DD041092DE041092DF048093DB048093F1
:10101000D8041092D90492E09093DA048093CD041E
:1010200084EB90E09093D2048093D1040E9438091D
:101030009093D7048093D604009761F024EBFC01D1
:1010400011922A95E9F78CE390E09093D004809375
:10105000CF0408C01092D2041092D1041092D00490
:101060001092CF0487E090E09093D4048093D3044F
:101070008091CE04882339F061E087E00E94E0018E
:1010800087E00E946B01EDE2F2E0E491F0E0EE0F08
:10109000FF1FE45FFD4F859194919093E10480934D
:1010A000E004EDECF1E0E491E093E204FF90EF90D6
:1010B000DF90CF900895789484B5826084BD84B524
:1010C000816084BD85B5826085BD85B5816085BD43
:1010D00080916E00816080936E00109281008091FB
:1010E0008100826080938100809181008160809383
:1010F0008100809180008160809380008091B100A8
:1011000084608093B1008091B00081608093B000D2
:101110008091910082608093910080919100816024
:1011200080939100809190008160809390008091E5
:10113000A10082608093A1008091A10081608093D2
:10114000A1008091A00081608093A0008091210186
:10115000826080932101809121018160809321012F
:101160008091200181608093200180917A008460C9
:1011700080937A0080917A00826080937A008091D7
:101180007A00816080937A0080917A0080688093F1
:101190007A001092C1008091D3049091D40497FDFD
:1011A00007C061E00E94E0018091D3040E946B01BE
:1011B00081E08093CE048091D6049091D704892B4E
:1011C00011F00E942C036091D504633321F120912A
:1011D000D6043091D704615031F070E08FEF92E384
:1011E0000E94590A02C060E070E0F9014091D10408
:1011F0005091D204CF01821B930B8417950740F4C2
:101200004081469FC001479F900D11249193EECFDE
:1012100083E38093D50442E350E060E070E08FEF19
:1012200090E00E94E50340E050E060E070E0CB0118
:101230000E94E50344E050E066E172E08BEA94E04E
:101240000E94DF020E94B502E6CF8091D604909101
:10125000D7040E94D0098091D3049091D40497FDC3
:1012600003C060E00C94E0010895F8940C94750AB2
:101270000F931F93CF93DF938230910510F482E098
:1012800090E0E091E504F091E60420E030E0A0E099
:10129000B0E0309719F140815181028113814817E4
:1012A0005907C8F08417950769F4109731F0129622
:1012B0000C93129713961C9327C00093E504109388
:1012C000E60422C02115310519F04217530718F41E
:1012D0009A01BD01EF01DF01F801DBCF21153105D6
:1012E000F9F0281B390B2430310580F48A819B8169
:1012F0006115710521F0FB019383828304C09093F3
:10130000E6048093E504FE01329644C0FE01E20F3C
:10131000F31F8193919322503109398328833AC076
:101320002091E3043091E404232B41F42091020244
:10133000309103023093E4042093E30420910002EF
:10134000309101022115310541F42DB73EB740918E
:10135000040250910502241B350BE091E304F09147
:10136000E404E217F307A0F42E1B3F0B28173907FC
:1013700078F0AC014E5F5F4F2417350748F04E0FF1
:101380005F1F5093E4044093E3048193919302C060
:10139000E0E0F0E0CF01DF91CF911F910F91089530
:1013A000CF93DF93009709F481C0FC013297138239
:1013B0001282A091E504B091E604109781F4208197
:1013C0003181820F931F2091E3043091E4042817A8
:1013D000390751F5F093E404E093E30467C0ED01AD
:1013E00020E030E0CE17DF0740F44A815B819E01A8
:1013F00041155105F1F0EA01F5CFD383C283408155
:101400005181840F951FC817D90759F48881998194
:10141000840F951F0296918380838A819B81938399
:1014200082832115310529F4F093E604E093E50465
:101430003DC0E901FB83EA8349915991C40FD51F4F
:10144000EC17FD0761F480819181840F951F02964E
:10145000E90199838883828193819B838A83E0E079
:10146000F0E012968D919C911397009719F0FD0171
:10147000DC01F7CF8D919C9111979D012E5F3F4F1D
:10148000820F931F2091E3043091E4042817390759
:1014900069F4309729F41092E6041092E50402C032
:1014A00013821282B093E404A093E304DF91CF91FE
:1014B0000895AA1BBB1B51E107C0AA1FBB1FA6179B
:1014C000B70710F0A61BB70B881F991F5A95A9F7ED
:1014D00080959095BC01CD010895EE0FFF1F881FE8
:1014E0008BBF0790F691E02D199411E0C7E3D1E08E
:1014F00000E006C0802FFE010E946D0A2196011DAA
:0E150000C833D10780E00807A9F7F894FFCFA1
:10150E000000E7042000000000001C02DF02A5021C
:0C151E00690289025E0246696E650000E9
:00000001FF
