:100000000C9427050C9402320C94D1310C94A0313D
:100010000C946F310C943E310C940D310C94DC3007
:100020000C94AB300C94EE290C949F2A0C94772AF4
:100030000C9458050C9458050C9458050C945805CC
:100040000C9458050C9458050C9458050C945805BC
:100050000C9458050C9458050C9458050C94643273
:100060000C9458050C942A2F0C945B2E0C94580574
:100070000C9458050C9458050C9458050C9458058C
:100080000C9458050C9458050C9458050C9458057C
:100090000C94FA2E0C941C2E0C9458050C945805B4
:1000A0000C9458050C9458050C9458050C9458055C
:1000B0000C9458050C9458050C9458050C9458054C
:1000C0000C9458050C9458050C9458050C94CA2EA1
:1000D0000C94DD2D0C9458050C949A2E0C949E2DA6
:1000E0000C9458053339E53A793B7C3B833B863B9E
:1000F0008D3B903B973B9A3BA13BA43BAB3BAE3B3C
:10010000B53BBE3BC13BC43BCB3BCE3BD53BD83BD9
:10011000DF3BE63B633CA53CF43CD33C203D933DB8
:10012000063EA13E3C3FD73FE93B193C3B38BE3839
:10013000B3457240C0408A431942EC4091418A4322
:100140007442F4423739B524B724B124B324B5241A
:10015000B724B524B724B524B724B12BB62BBB2BB9
:10016000C52B3E2CCF2BD72BDF2BE92BF32BFD2BD5
:100170000C2C162C3E2C202C2A2C342C20302330F6
:1001800016301A305A3027302B3031303530393074
:100190003F30433047305A304D30513055302333A3
:1001A0002533273329332B332D332F333133333357
:1001B0003533084AD73B3BCE016E84BCBFFDC12F0F
:1001C0003D6C74319ABD56833DDA3D00C77F11BE48
:1001D000D9E4BB4C3E916BAAAABE000000803F054B
:1001E000A84CCDB2D44EB93836A9020C50B991867C
:1001F00088083CA6AAAA2ABE000000803F000C94F2
:100200002F330C941D290C9474420C94A53C0C942F
:10021000CE200C943E290C94E63B0C9472400C9436
:1002200035330C948D3B0C94D53B0C94903B0C9443
:10023000CE3B0C94DF2B0C9416300C9437390C9475
:10024000B62B0C9480290C94BE380C9420300C945E
:1002500029330C94A13B0C94C7510C94F7100C94C7
:10026000B1240C94EC400C94633C0C9423330C9418
:10027000193C0C94B3450C944E590C943E2C0C94A0
:1002800059200C94CF2B0C94D33C0C94A13E0C948D
:1002900023300C94C0400C945A300C94BB2B0C941B
:1002A000C7290C94C43B0C9433330C9439300C9410
:1002B00073200C948A430C94B3240C94342C0C9427
:1002C000202C0C944D300C94CB3B0C949A3B0C940A
:1002D000E53A0C940C2C0C94063E0C94203D0C94A6
:1002E000F32B0C94C52B0C94EB100C94A43B0C94A6
:1002F0002B300C9482200C9427300C9431300C94C9
:10030000BE3B0C943B380C94E5100C94FD100C94FF
:10031000C13B0C948B290C94B53B0C9431330C9459
:1003200047300C94B5240C94E93B0C94B12B0C94FD
:10033000793B0C94AE3B0C9403110C94DF3B0C9472
:100340003F300C9427330C943C3F0C94973B0C9417
:10035000F43C0C9433390C94933D0C9425330C9459
:100360002A2C0C94AB3B0C94162C0C9491410C94BD
:10037000AB290C942B330C94FD2B0C94E92B0C948F
:1003800051300C9443300C94863B0C947C3B0C9481
:1003900055300C9419420C942D330C94B7240C94C2
:1003A000D72B0C94F1100C9435300C94F4420C942F
:1003B000833B0C94D83B0C941A300C94D73F0C948C
:1003C0005B2F4E414E494E495459494E46CDCCCCF7
:1003D0003D0AD7233C17B7D13877CC2B329595E619
:1003E000241FB14F0A000020410000C84200401CF9
:1003F0004620BCBE4CCA1B0E5AAEC59D7400C2013D
:10040000000100110011000C0000E100000A0025AD
:10041000002500210000960000190039003900363F
:1004200000127A00001F0046004600440080700061
:100430000022004D004D004A00004B0000360075C0
:100440000075007200403800004A009C009C009932
:1004500000802500007200EC00EC00E900C01200F2
:1004600000E900DA01DA01D70160090000D701B61E
:1004700003B603B303B0040000B3036E076E076B4B
:1004800007580200006E07DC0EDC0ED80E2C0100AF
:1004900000DC0EC11DC11DBE1D3C4D65676120699C
:1004A000732072656164793E003C6261636B6D6FBD
:1004B000763E003C66726F6E746D6F763E003C61F6
:1004C0006C7061743E003C6E6F7061743E003C6104
:1004D0006C62617061743E003C6E6F7061743E00CE
:1004E0003C6368616E67657061743E003C6E6F705E
:1004F00061743E003E003C536F6E6F20696E205069
:1005000041555341003E003C49276D2073746F7084
:10051000706564003E003C636F72726563742061B5
:100520006E7320666F756E64003E003C77726F6E6E
:100530006720616E7320666F756E64003E003C63D9
:10054000656C656272617465003E003C636F6E733A
:100550006F6C65003E003C656C6170736564003EC5
:10056000003C416E7377657220616C7265616479DD
:1005700020676976656E21003E003C49276D207238
:1005800065736574003E003C43757272656E74203D
:10059000766F6C7461676520706F77657220697320
:1005A00020003E003C68756720666F756E64003EF3
:1005B000003C70617420666F756E64003E003C7391
:1005C00068616B6520666F756E64003E003C736801
:1005D0006F766520666F756E64003E003C737175C2
:1005E00065657A6520666F756E64003E003C746FC9
:1005F00075636820666F756E64003E003C636172CF
:1006000065737320666F756E64003E003C636F6EA9
:100610007461637420666F756E64003E003C717592
:1006200069657420666F756E64003E0020737563A3
:100630006365737366756C6C79207377697463682E
:100640006564003C4D6F64616C69747920003E0004
:100650003C4E6F20707573682C2072657475726ED5
:1006600020003E003C4F6B20707573682C20726533
:100670007475726E20003E003C686974206C65667B
:100680007420666F756E64003E003C686974206279
:1006900061636B20666F756E64003E003C68697430
:1006A00020726967687420666F756E64003E003C56
:1006B0006869742066726F6E7420666F756E640070
:1006C0003E003C67616D655F726564003E003C679B
:1006D000616D655F626C7565003E003C67616D65CC
:1006E0005F79656C6C6F77003E003C67616D655F9C
:1006F000677265656E003E00416E67756C617220C1
:10070000537065656420697320002000466F72771E
:100710006172642053706565642069732000200055
:100720003C5374726166652053706565642069731B
:1007300020003E00616E696D6174696F6E2069739F
:1007400020002000636F6C6F72206973200020000E
:10075000416E67756C6172205370656564206973C2
:10076000200020003C466F727761726420537065F0
:100770006564206973200020003C44697374616ED5
:10078000636520697320003E003C73696D706C6581
:100790002073696E676C65207061747465726E2079
:1007A0006D6F76656D656E7420656E61626C6564F3
:1007B000003E003C436F6E74726F6C20206D6F764C
:1007C000656D656E7420656E61626C6564003E00E7
:1007D0003C466F6C6C6F77696E67206D6F76656DE8
:1007E000656E7420656E61626C6564003E003C203D
:1007F0004175746F6E6F6D6F7573206D6F76656D7B
:10080000656E7420656E61626C6564003C66726F33
:100810006E746D6F763E003C7475726E6D6F763ED1
:1008200000000000000000000000000000000000C8
:1008300000000000000000000001010101010101B1
:10084000010101010102020202020202020303038A
:10085000030303040404040505050505060606064E
:100860000707070808080909090A0A0A0B0B0B0CF5
:100870000C0D0D0D0E0E0F0F10101111121213137F
:1008800014141515161617181819191A1B1B1C1DE8
:100890001D1E1F1F2021222223242526262728292A
:1008A0002A2A2B2C2D2E2F3031323334353637383F
:1008B000393A3B3C3D3E3F4041424445464748492A
:1008C0004B4C4D4E50515254555658595A5C5D5EE2
:1008D000606163646667696A6C6D6F707273757767
:1008E000787A7C7D7F8182848688898B8D8F9192B6
:1008F0009496989A9C9EA0A2A4A6A8AAACAEB0B2C8
:10090000B4B6B8BABCBFC1C3C5C7CACCCED1D3D5A3
:10091000D7DADCDFE1E3E6E8EBEDF0F2F5F7FAFC3D
:10092000FF000020002300260029002C002F0032A9
:10093000000001000003010601090100002200255A
:100940000028002B002E00310034000201000005B9
:100950000108010B0105050505070508080808023F
:100960000202020A0A080804040404010101010148
:100970000101010303030303030303040707070C37
:100980000C0C0C0C0C0C0C020202020606060606ED
:100990000606060B0B0B0B0B0B0B0B01021020209A
:1009A00008081020401020408002010201080402C3
:1009B0000101020408102040808040201008040239
:1009C0000180040201804020100804020108040292
:1009D0000101020408102040800102040810204098
:1009E000800000090A02080B0C0D07060304010031
:1009F00000000000000000000000000000000000F7
:100A00000000000000000000000000000011100FB6
:100A100000000000000000000000000000000000D6
:100A20000000000000000000002100240027002A30
:100A3000002D003000330001010000040107010A0D
:100A4000013C6E6F7061743E0000C7514E59112415
:100A50001FBECFEFD1E2DEBFCDBF00E00CBF13E081
:100A6000A0E0B2E0ECE5F2EC00E00BBF02C00790C2
:100A70000D92A43CB107D9F72DE0A4ECB3E001C07E
:100A80001D92AE37B207E1F715E0C6E2D5E000E00F
:100A900006C021970109802FFE010E941461C53212
:100AA000D10780E00807A9F70E94ED330C94485A5B
:100AB0000C9400008F929F92AF92BF92CF92DF92E0
:100AC000EF92FF92CF93DF938AED96E00E94C729C1
:100AD000181619060CF0D3C08AED96E00E948B29F7
:100AE000C82F8091FE06C813B0C01092350A81E06D
:100AF0008093360AE091FF06F0E0E350F94F15824B
:100B0000809100079091010781309105B9F17CF443
:100B1000892B09F09AC062E572E082E097E00E94BA
:100B20004B5ABC018AEC97E00E94B35E8EC08230C3
:100B3000910509F45FC0039709F087C062E572E090
:100B400082E097E00E944B5ABC018AEC97E00E9439
:100B5000B35E62E572E080E090E00E944B5ABC0117
:100B600082E998E00E94B35E62E572E080E090E086
:100B70000E944B5ABC018AE599E045C062E572E0EB
:100B800082E097E00E944B5ABC018AEC97E00E94F9
:100B9000B35E62E572E080E090E00E944B5A0E94F2
:100BA000445A6093240A7093250A8093260A9093EE
:100BB000270A62E572E080E090E00E944B5A0E94B2
:100BC000445A6093280A7093290A80932A0A9093C2
:100BD0002B0A62E572E080E090E00E944B5A0E948E
:100BE000445A60932C0A70932D0A80932E0A909396
:100BF0002F0A2BC062E572E082E097E00E944B5A18
:100C0000BC018AEC97E00E94B35E62E572E080E08E
:100C100090E00E944B5A0E94445A6093240A7093B9
:100C2000250A8093260A9093270A62E572E080E005
:100C300090E00E944B5A0E94445A6093280A709395
:100C4000290A80932A0A90932B0A8091350A8823D7
:100C500069F08091FF06E82FF0E0E350F94FC5837B
:100C60008F5F883C09F487EC8093FF068091FD0636
:100C7000C81305C01092FF0681E08093350AC1E0D9
:100C8000C093340A8AEC97E09093FD038093FC03B1
:100C900064E572E00E94AA5E892B39F41092010784
:100CA0001092000780E090E00EC06FE572E08AECE1
:100CB00097E00E94AA5E892B91F481E090E09093E6
:100CC000010780930007DF91CF91FF90EF90DF90B5
:100CD000CF90BF90AF909F908F900C9479106AE660
:100CE00072E08AEC97E00E94AA5E892B19F482E0F8
:100CF00090E0E5CF65E772E08AEC97E00E94AA5E9B
:100D0000892B19F483E090E0DACF60E872E08AEC96
:100D100097E00E94AA5E892BC1F48091360A88234D
:100D200011F40C94800F1092360A66EF74E08AED8D
:100D300096E00E94C22784EF94E00E94E027C093CF
:100D4000FC06C0931F0B0C94800F69E872E08AECDC
:100D500097E00E94AA5E892BE9F410922B0B0E9467
:100D6000C1141092D60A1092180B10921B0BC0934C
:100D70001F0B8091360A882311F40C94800F109277
:100D8000360A67E075E08AED96E00E94C22785E0AA
:100D900095E0E5C066E872E08AEC97E00E94AA5E02
:100DA000892B51F410921B0B0E94EC0F1092340A05
:100DB0001092180B0C94800F6EE872E08AEC97E0AA
:100DC0000E94AA5E892B09F0D6C0C090240AD09058
:100DD000250AE090260AF090270AC092C803D09214
:100DE000C903E092CA03F092CB034091280A5091C4
:100DF000290A60912A0A70912B0A4093CC035093E0
:100E0000CD036093CE037093CF0380912C0A909111
:100E10002D0AA0912E0AB0912F0A8093C4039093BB
:100E2000C503A093C603B093C703C0931B0BC09226
:100E3000DF0AD092E00AE092E10AF092E20A4093DF
:100E4000E30A5093E40A6093E50A7093E60A8093FC
:100E5000E70A9093E80AA093E90AB093EA0AC6C0A9
:100E60006FE973E08AEC97E00E94AA5E892B09F48F
:100E7000C8C067E972E08AEC97E00E94AA5E892BFD
:100E800009F4C3C06FE972E08AEC97E00E94AA5EA1
:100E9000892B09F4B2C065EA72E08AEC97E00E94FF
:100EA000AA5E892B09F4C1C06DEA72E08AEC97E072
:100EB0000E94AA5E892B09F4C8C065EB72E08AEC37
:100EC00097E00E94AA5E892B09F4CEC06BEB72E01A
:100ED0008AEC97E00E94AA5E892B09F41BC162ECA0
:100EE00072E08AEC97E00E94AA5E892B09F468C13F
:100EF0006DEC72E08AEC97E00E94AA5E892B09F4FF
:100F0000BAC162ED72E08AEC97E00E94AA5E892B7A
:100F100009F4DDC26AED72E08AEC97E00E94AA5EF5
:100F2000892B09F4E4C260EE72E08AEC97E00E943B
:100F3000AA5E892B09F0F9C28091360A882309F448
:100F4000DFC71092360A0E94C0560E94A6566EE372
:100F500075E08AED96E00E94C2278CE395E0DF9170
:100F6000CF91FF90EF90DF90CF90BF90AF909F9088
:100F70008F900C94E02765E973E08AEC97E00E947B
:100F8000AA5E892B09F06CCF4091240A5091250A62
:100F90006091260A7091270A4093C8035093C903B1
:100FA0006093CA037093CB038091280A9091290A19
:100FB000A0912A0AB0912B0A8093CC039093CD0381
:100FC000A093CE03B093CF03C0931B0B4093DF0AD3
:100FD0005093E00A6093E10A7093E20A8093E30A77
:100FE0009093E40AA093E50AB093E60A1092180BD6
:100FF0000E94EC0F1092340A83C78091FB03811189
:101000007FC7C1E0C093180B09C08091FB03811119
:1010100077C71092180BC1E0C0931B0B8AEC97E0C6
:101020000E948B0FC093FB036BC78091FB03811160
:1010300067C7C1E0C093180B8AEC97E00E948B0F42
:10104000C093FB031092E6035BC78091FB03811101
:1010500057C7C1E0C093180B85EA92E00E948B0F3E
:101060008DE28093D60ADECF8091FB03811148C7C1
:10107000C090240AD090250AE090260AF090270A12
:10108000C092CC03D092CD03E092CE03F092CF0376
:101090004091280A5091290A60912A0A70912B0ADE
:1010A0004093C4035093C5036093C6037093C70372
:1010B00082E998E09093FA038093F9032AE539E0F6
:1010C0003093F8032093F703C092830BD092840BE4
:1010D000E092850BF092860B40938B0B50938C0B18
:1010E00060938D0B70938E0B3093980B2093970B1E
:1010F00090939A0B8093990B0E948E4A6091F7030C
:101100007091F8038091F9039091FA030E94CB4FFC
:101110008FE2ABC08091FB038111F2C6C090240A1C
:10112000D090250AE090260AF090270AC092CC03BE
:10113000D092CD03E092CE03F092CF034091280AE3
:101140005091290A60912A0A70912B0A4093C40396
:101150005093C5036093C6037093C70382E998E078
:101160009093FA038093F9032AE539E03093F8036A
:101170002093F703C092830BD092840BE092850BEF
:10118000F092860B40938B0B50938C0B60938D0BDE
:1011900070938E0B3093980B2093970B90939A0B30
:1011A0008093990B0E948E4A6091F7037091F80327
:1011B0008091F9039091FA030E94CB4F8EE255C0C3
:1011C0008091FB0381119CC6C090240AD090250A0F
:1011D000E090260AF090270AC092CC03D092CD036B
:1011E000E092CE03F092CF034091280A5091290A51
:1011F00060912A0A70912B0A4093C4035093C5034F
:101200006093C6037093C70382E998E09093FA0352
:101210008093F9032AE539E03093F8032093F7032C
:10122000C092830BD092840BE092850BF092860BD8
:1012300040938B0B50938C0B60938D0B70938E0BA4
:101240003093980B2093970B90939A0B8093990B64
:101250000E948E4A6091F7037091F8038091F90320
:101260009091FA030E94CB4F80E38093D60A81E0ED
:101270008093FB0345C68091E7039091E803A0911A
:10128000E903B091EA034091D0035091D1036091FA
:10129000D2037091D303841B950BA60BB70B81313E
:1012A0009742A105B10508F0F5C080914F0A0E9450
:1012B00034509093550A8093540A8091500A0E94AA
:1012C00034509093570A8093560A8091510A0E9495
:1012D00034509093590A8093580A8091520A0E9480
:1012E000345090935B0A80935A0A8091530A0E946B
:1012F0003450EC0190935D0A80935C0A6091540A2B
:101300007091550A072E000C880B990B0E94FA5B0E
:1013100020E030E040EA50E40E94595C20E030ECEC
:101320004FE754E40E949E5F60935E0A70935F0AE9
:101330008093600A9093610A6091560A7091570AEF
:10134000072E000C880B990B0E94FA5B20E030E01E
:1013500040EA50E40E94595C20E030EC4FE754E44E
:101360000E949E5F6093620A7093630A8093640A8E
:101370009093650A6091580A7091590A072E000CE3
:10138000880B990B0E94FA5B4B015C0120E030E076
:1013900040EA50E40E94595C20E030EC4FE754E40E
:1013A0000E949E5F6093660A7093670A8093680A42
:1013B0009093690A60915A0A70915B0A072E000C9B
:1013C000880B990B0E94FA5B20E030E040EA50E481
:1013D0000E94595C20E030EC4FE754E40E949E5F8D
:1013E00060936A0A70936B0A80936C0A90936D0AFB
:1013F000BE01DD0F880B990B0E94FA5B6B017C012B
:1014000020E030E040EA50E40E94595C20E030ECFB
:101410004FE754E40E949E5F60936E0A70936F0AD8
:101420008093700A9093710A8092F3039092F40370
:10143000A092F503B092F603C092EF03D092F003AE
:10144000E092F103F092F2038091DE039091DF03CA
:1014500001969093DF038093DE032BE734E14EEA9D
:101460005EE3C501B4010E94AC6018165CF028EB85
:101470003EE145E85EE3C701B6010E94AC60181684
:101480000CF03EC589EE93E09093DF038093DE037A
:1014900081E011C00E9458326093D0037093D10351
:1014A0008093D2039093D30389EE93E09093DF036C
:1014B0008093DE0380E0DF91CF91FF90EF90DF908B
:1014C000CF90BF90AF909F908F900C94294C8091BB
:1014D000360A882309F414C51092360A66E175E0CD
:1014E0008AED96E00E94C22784E195E00FC08091CA
:1014F000360A882309F404C51092360A6BE275E0B7
:101500008AED96E00E94C22789E295E00E94E027DA
:1015100022E330E040E05FEF60E070E08CEF9BE0C2
:101520000E94F35822E330E058C265EE72E08AEC84
:1015300097E00E94AA5E892BA1F48091360A882345
:1015400009F4DEC41092360A0E94C0560E94A656C4
:101550006BE475E08AED96E00E94C22789E495E08D
:10156000FECC6AEE72E08AEC97E00E94AA5E892BBC
:10157000A9F58091360A882309F4C2C41092360A6C
:1015800066E575E08AED96E00E94C22784E595E065
:101590000E94E02728E230E049E950E0BA018CEFF0
:1015A0009BE00E94F3580E94A65628E230E049E9E9
:1015B00050E0BA018CEF9BE00E94F3580E94A656BF
:1015C00028E230E049E950E0BA018CEF9BE00E944C
:1015D000F3580E94A65628E230E063C360EF72E041
:1015E0008AEC97E00E94AA5E892B61F48091360A0A
:1015F000882309F485C41092360A0E94F8560E9486
:10160000F8563BC46CEF72E08AEC97E00E94AA5E49
:10161000892B19F480E090E020C065E073E08AEC4B
:1016200097E00E94AA5E892B19F481E090E015C032
:1016300060E173E08AEC97E00E94AA5E892B19F4BE
:1016400082E090E00AC06CE173E08AEC97E00E94CF
:10165000AA5E892B71F483E090E0DF91CF91FF9037
:10166000EF90DF90CF90BF90AF909F908F900C94B1
:10167000394B66E273E08AEC97E00E94AA5E892B00
:1016800061F58091360A882309F43AC41092360A2B
:1016900061E675E08AED96E00E94C2278FE595E04D
:1016A0000E94E02722E330E040E056E66FEF70E072
:1016B0008CEF9BE00E94F3580E94A65622E330E094
:1016C00040E056E66FEF70E08CEF9BE00E94F3582D
:1016D0000E94A65622E330E04CC36EE273E08AEC2F
:1016E00097E00E94AA5E019609F040C08091360AF8
:1016F000882309F405C41092360A6AE775E08AED7A
:1017000096E00E94C22788E795E00E94E0270E94A9
:1017100058326093D4037093D5038093D60390938B
:10172000D7030E945832C090D403D090D503E090E4
:10173000D603F090D703F4EFCF0EF1E0DF1EE11CEB
:10174000F11C6C157D058E059F0558F381E0809393
:101750001F0BE0E0F0E0DF91CF91FF90EF90DF9082
:10176000CF90BF90AF909F908F90199464E373E0F7
:101770008AEC97E00E94AA5E892B09F06AC08091EA
:10178000360A882309F4BCC31092360A8091370ABE
:101790008A30A0F480914E0A0E9434502091380A79
:1017A0003091390A820F931F9093390A8093380A37
:1017B0008091370A8F5F8093370AE8CF6091380AAB
:1017C0007091390A072E000C880B990B0E94FA5B66
:1017D00020E030E040E251E40E949E5F26EF38E2D4
:1017E00040EA50E40E94595C20E030E040E85AE3CF
:1017F0000E94595C2AE939E949E650E40E94595CA3
:101800006B017C0160933C0A70933D0A80933E0A11
:1018100090933F0A1092370A1092390A1092380AB0
:1018200080913A0A90913B0A019690933B0A8093EB
:101830003A0A67E875E08AED96E00E94C22742E026
:10184000C701B6010E9421280E94B02785E895E0D3
:1018500086CB6CE373E08AEC97E00E94AA5E892B4A
:1018600009F465C062E473E08AEC97E00E94AA5E26
:10187000892B09F45CC069E473E08AEC97E00E946C
:10188000AA5E892B09F453C061E573E08AEC97E006
:101890000E94AA5E892B09F44AC067E573E08AECCE
:1018A00097E00E94AA5E892B09F441C06BE573E0C2
:1018B0008AEC97E00E94AA5E892BC9F163E673E087
:1018C0008AEC97E00E94AA5E892B89F169E673E0B1
:1018D0008AEC97E00E94AA5E892B49F16FE673E0DB
:1018E0008AEC97E00E94AA5E892B09F163E773E016
:1018F0008AEC97E00E94AA5E892BC9F06BE773E03F
:101900008AEC97E00E94AA5E892B89F064E873E074
:101910008AEC97E00E94AA5E892B49F06DE873E09B
:101920008AEC97E00E94AA5E892B09F0E9C28091B7
:10193000360A882309F4E4C21092360A6CE373E095
:101940008AEC97E00E94AA5E892B21F56DE176E092
:101950008AED96E00E94C2278BE196E00E94E02784
:101960000E94ED5922E030E040E050E00E941A5D14
:101970007093020C6093010C672B29F46FEF7FEFDB
:101980008FEF90E004C066E676E686E690E00E947F
:10199000604C73C269E473E08AEC97E00E94AA5E2F
:1019A000892B09F06DC06CE076E08AED96E00E942C
:1019B000C2278AE096E00E94E0270E94ED5922E0CB
:1019C00030E040E050E00E941A5D7093020C60939A
:1019D000010C22E330E0672B19F540E05FEF60E097
:1019E00070E08CEF9BE00E94F35822E330E040E08F
:1019F0005FEF60E070E08CEF9BE00E94F35822E321
:101A000030E040E05FEF60E070E08CEF9BE00E9430
:101A1000F35822E330E040E05FEF60E070E0D6C1D1
:101A200040E053E360E070E08CEF9BE00E94F358ED
:101A300022E330E040E053E360E070E08CEF9BE0B5
:101A40000E94F35822E330E040E053E360E070E0AE
:101A50008CEF9BE00E94F35822E330E040E053E338
:101A600060E070E08CEF9BE0DF91CF91FF90EF9012
:101A7000DF90CF90BF90AF909F908F900C94F358D1
:101A800062E473E08AEC97E00E94AA5E892B09F079
:101A900060C06CEF75E08AED96E00E94C2278AEF85
:101AA00095E00E94E0270E94ED5922E030E040E0FE
:101AB00050E00E941A5D7093020C6093010C22E3C7
:101AC00030E0672B19F540E05FEF6FEF70E08CEFCF
:101AD0009BE00E94F35822E330E040E05FEF6FEFBD
:101AE00070E08CEF9BE00E94F35822E330E040E08E
:101AF0005FEF6FEF70E08CEF9BE00E94F35822E302
:101B000030E040E05FEF6FEF70E060C140E059E926
:101B10006FEF70E08CEF9BE00E94F35822E330E01F
:101B200040E059E96FEF70E08CEF9BE00E94F358C2
:101B300022E330E040E059E96FEF70E08CEF9BE08A
:101B40000E94F35822E330E040E059E96FEF70E083
:101B50003DC161E573E08AEC97E00E94AA5E892BA3
:101B600009F066C06DEE75E08AED96E00E94C2272E
:101B70008BEE95E00E94E0270E94ED5922E030E0D4
:101B800040E050E00E941A5D7093020C6093010CDB
:101B900022E330E0672B19F54FEF50E060E070E092
:101BA0008CEF9BE00E94F35822E330E04FEF50E0CF
:101BB00060E070E08CEF9BE00E94F35822E330E09D
:101BC0004FEF50E060E070E08CEF9BE00E94F35834
:101BD00022E330E04FEF50E060E070E0F7C04FEFFD
:101BE0005CEC60E070E08CEF9BE00E94F3580E9498
:101BF000A65622E330E04FEF5CEC60E070E08CEF43
:101C00009BE00E94F3580E94A65622E330E04FEF7B
:101C10005CEC60E070E08CEF9BE00E94F3580E9467
:101C2000A65622E330E04FEF5CEC60E070E0CEC0FF
:101C30006BE573E08AEC97E00E94AA5E892B09F0BD
:101C40005DC06CED75E08AED96E00E94C2278AEDDA
:101C500095E00E94E0270E94ED5922E030E040E04C
:101C600050E00E941A5D7093020C6093010C22E315
:101C700030E0672BD1F449E950E0BA018CEF9BE0EA
:101C80000E94F3580E94A65622E330E049E950E052
:101C9000BA018CEF9BE00E94F3580E94A65622E303
:101CA00030E049E950E0BA0191C04FEF56E66FEFDE
:101CB00070E08CEF9BE00E94F3580E94A65622E34E
:101CC00030E04FEF56E66FEF70E08CEF9BE00E9444
:101CD000F3580E94A65622E330E04FEF56E66FEF2E
:101CE00070E08CEF9BE00E94F3580E94A65622E31E
:101CF00030E04FEF56E66FEF70E068C069E673E0E2
:101D00008AEC97E00E94AA5E892B09F064C06DEC12
:101D100075E08AED96E00E94C2278BEC95E00E9468
:101D2000E0270E94ED5922E030E040E050E00E94C0
:101D30001A5D7093020C6093010C2AE030E0672B6F
:101D4000E9F440E056E66FEF70E08CEF9BE00E9414
:101D5000F3580E94A6562AE030E040E056E66FEFC6
:101D600070E08CEF9BE00E94F3580E94A6562AE098
:101D700030E040E056E66FEF70E028C046E656E6F9
:101D80006FEF70E08CEF9BE00E94F3580E94A65624
:101D90002AE030E046E656E66FEF70E08CEF9BE01D
:101DA0000E94F3580E94A6562AE030E046E656E626
:101DB0006FEF70E08CEF9BE00E94F3580E94A656F4
:101DC0002AE030E046E656E66FEF70E08CEF9BE0ED
:101DD0000E94F35852C063E673E08AEC97E00E94D9
:101DE000AA5E892B81F46EEB75E08AED96E00E9485
:101DF000C2278CEB95E00E94E0274AE060E070E0AB
:101E00008FEF90E017C067E573E08AEC97E00E94DF
:101E1000AA5E892B91F461EB75E08AED96E00E9451
:101E2000C2278FEA95E00E94E02742E360E07FEF5F
:101E30008FEF90E00E94535020C06FE673E08AEC71
:101E400097E00E94AA5E892B21F564EA75E08AED8D
:101E500096E00E94C22782EA95E00E94E0270E9455
:101E6000ED5922E030E040E050E00E941A5D7093AE
:101E7000020C6093010C0E94D750DF91CF91FF902C
:101E8000EF90DF90CF90BF90AF909F908F900C9489
:101E9000A65663E773E08AEC97E00E94AA5E892B5E
:101EA00019F480E090E020C06BE773E08AEC97E0E3
:101EB0000E94AA5E892B19F481E090E015C064E8C5
:101EC00073E08AEC97E00E94AA5E892B19F482E005
:101ED00090E00AC06DE873E08AEC97E00E94AA5E89
:101EE000892B71F483E090E0DF91CF91FF90EF9028
:101EF000DF90CF90BF90AF909F908F900C94C94B84
:101F0000DF91CF91FF90EF90DF90CF90BF90AF9097
:101F10009F908F900895CF93DF932091360A2223CC
:101F200009F457C0EC011092360A6FE973E00E9481
:101F3000AA5E892B89F481E08093E60321E030E0FA
:101F40003093E5032093E4033093E3032093E2030B
:101F500080932B0B85E215C06FE972E0CE010E94E1
:101F6000AA5E892B89F481E08093E6031092E50351
:101F70001092E4031092E3031092E20380932B0B80
:101F800086E28093D60A20C067E972E0CE010E9403
:101F9000AA5E892B81F481E08093E60383E090E0E0
:101FA0009093E5038093E40381E090E09093E30352
:101FB0008093E20307C065EA72E0CE010E94AA5E48
:101FC000892B39F410922B0BCE01DF91CF910C9419
:101FD000A711DF91CF9108954F925F926F927F92F8
:101FE0008F929F92AF92BF92CF92DF92EF92FF9229
:101FF0008091360A882309F46FC01092360A20E0D7
:1020000030E040EC5FE36091E70A7091E80A80916C
:10201000E90A9091EA0A0E94595C6B017C0120E078
:1020200030E04CE552E46091E30A7091E40A80915B
:10203000E50A9091E60A0E94595C4B015C0120E0A0
:1020400030E04CE552E46091DF0A7091E00A809143
:10205000E10A9091E20A0E94595C2B013C0160E286
:1020600077E08AED96E00E94C22742E0C301B20108
:102070000E9421286EE177E08AED96E00E94C22757
:102080006CE077E08AED96E00E94C22742E0C5014D
:10209000B4010E9421286AE077E08AED96E00E9470
:1020A000C22768EF76E08AED96E00E94C22742E000
:1020B000C701B6010E94212886EF96E0FF90EF90BD
:1020C000DF90CF90BF90AF909F908F907F906F9058
:1020D0005F904F900C94E027FF90EF90DF90CF90AF
:1020E000BF90AF909F908F907F906F905F904F9038
:1020F0000895CF93DF932091360A222309F1EC0152
:102100001092360A909301078093000763E476E00B
:102110008AED96E00E94C227AE01DD0F660B770BB9
:102120008AED96E00E94EF276CE276E08AED96E079
:102130000E94C2278AE296E0DF91CF910C94E027BB
:10214000DF91CF910895DC01ED91FD918081ED91BA
:10215000FD919081ED91FD916C9163708E2309F05A
:1021600064609F2309F06860E0ECF0E1E60FF11D88
:10217000659565956D936D917D918D919D91099476
:1021800023C01AC012C016C010C01EC009C014C09F
:1021900013C006C019C009C00DC007C00DC014C0CF
:1021A00062507040804090400BC061507040804051
:1021B000904006C06E5F01C06F5F7F4F8F4F9F4F93
:1021C0009E938E937E936E930895809108049091D0
:1021D00009040C94A31080910604909107040C94B8
:1021E000A31080910404909105040C94A310809195
:1021F0000204909103040C94A31080910004909128
:1022000001040C94A3108091FE039091FF030C94A1
:10221000A3108F929F92AF92BF92CF92DF92EF92D4
:10222000FF920F931F93CF93DF930E94BA5E6B01CF
:102230007C012091520C3091530C4091540C5091E0
:10224000550C0E94595CE801CC0FDD1FCC0FDD1F3F
:102250008E01085E134FF80122A533A544A555A5AC
:102260000E94BB5E4B015C0120E030E04FE753E48D
:102270000E94AC6018162CF480E090E0AFE7B3E465
:1022800014C020E030E04FE753ECC501B4010E94D8
:10229000F35B87FD06C0F80182A693A6A4A6B5A6A7
:1022A00009C080E090E0AFE7B3ECF80182A793A704
:1022B000A4A7B5A720914E0C30914F0C4091500C23
:1022C0005091510CC701B6010E94595CC85ED34FB2
:1022D0002AA53BA54CA55DA50E94BB5E4B015C01F8
:1022E0002E8D3F8D48A159A1C701B6010E94BA5E4B
:1022F0002091560C3091570C4091580C5091590C2C
:102300000E94595C9B01AC01C501B4010E94BB5EF7
:10231000CE8EDF8EE8A2F9A20E9410606F3F710599
:1023200019F014F06FEF70E0CB0161307F4F14F4BF
:1023300081E09FEFDF91CF911F910F91FF90EF9080
:10234000DF90CF90BF90AF909F908F900895CF93E4
:10235000DF93EC016FE973E00E94AA5E892B49F4D8
:102360006EEE77E08AED96E00E94C2278CEE97E051
:102370002FC06FE972E0CE010E94AA5E892B49F45A
:1023800060ED77E08AED96E00E94C2278EEC97E040
:102390001FC067E972E0CE010E94AA5E892B49F452
:1023A00063EB77E08AED96E00E94C22781EB97E02D
:1023B0000FC065EA72E0CE010E94AA5E892B61F42B
:1023C00069E877E08AED96E00E94C22787E897E007
:1023D000DF91CF910C94E027DF91CF9108954F9238
:1023E0005F926F927F928F929F92AF92BF92CF92A5
:1023F000DF92EF92FF920F931F93CF93DF93CDB7AE
:10240000DEB764970FB6F894DEBF0FBECDBF0E9453
:102410005832C090720CD090730CE090740CF09015
:10242000750CDC01CB018C199D09AE09BF098093A5
:10243000820C9093830CA093840CB093850C4997E5
:10244000A105B10508F486C20E9458326093720C4F
:102450007093730C8093740C9093750C80918C0C1A
:1024600090918D0C0E94602B4B015C010E945832B0
:10247000C090760CD090770CE090780CF090790CAE
:102480009B01AC012C193D094E095F0988EEC82E4D
:1024900083E0D82EE12CF12CC701B6010E941A5D11
:1024A00080910A0490910B04D401A81BB90B0E94DF
:1024B000445D0E94FA5B9B01AC010E94BB5E2BED68
:1024C0003FE049E450E40E94595C20E030E040EFF6
:1024D00054E40E949E5F6093240C7093250C8093BB
:1024E000260C9093270C90920B0480920A040E9471
:1024F00058326093760C7093770C8093780C90939D
:10250000790C2091240C3091250C4091260C50918F
:10251000270C6091180C7091190C80911A0C9091F5
:102520001B0C00E010E00E9409119093310C809385
:10253000300CBC018091860C9091870C0E94742B0A
:1025400080918E0C90918F0C0E94602B4B015C014E
:102550000E94583240907A0C50907B0C60907C0C1A
:1025600070907D0C9B01AC0124193509460957096F
:10257000C701B6010E941A5D80910C0490910D0470
:10258000D401A81BB90B0E94445D0E94FA5B9B0119
:10259000AC010E94BB5E2BED3FE049E450E40E9499
:1025A000595C20E030E040EF54E40E949E5F60936D
:1025B000280C7093290C80932A0C90932B0C9092EA
:1025C0000D0480920C040E94583260937A0C709330
:1025D0007B0C80937C0C90937D0C2091280C309187
:1025E000290C40912A0C50912B0C60911C0C70917D
:1025F0001D0C80911E0C90911F0C01E010E00E94B8
:1026000009119093330C8093320CBC018091880C9B
:102610009091890C0E94742B8091900C9091910C58
:102620000E94602B4B015C010E94583240907E0C4E
:1026300050907F0C6090800C7090810C9B01AC01DD
:102640002419350946095709C701B6010E941A5DC8
:1026500080910E0490910F04D401A81BB90B0E9425
:10266000445D0E94FA5B9B01AC010E94BB5E2BEDB6
:102670003FE049E450E40E94595C20E030E040EF44
:1026800054E40E949E5F60932C0C70932D0C8093F9
:102690002E0C90932F0C90920F0480920E040E94A7
:1026A000583260937E0C70937F0C8093800C9093D3
:1026B000810C20912C0C30912D0C40912E0C5091BE
:1026C0002F0C6091200C7091210C8091220C909124
:1026D000230C02E010E00E9409119093350C8093C6
:1026E000340CBC0180918A0C90918B0C0E94742B4D
:1026F000C090240CD090250CE090260CF090270C74
:1027000080902C0C90902D0CA0902E0CB0902F0C43
:10271000A5019401C701B6010E94BA5E20E030E035
:1027200040EE5FE30E94595C27ED33EB4DE55FE33C
:102730000E949E5F69837A838B839C836093660C7F
:102740007093670C8093680C9093690CA5019401B9
:10275000C701B6010E94BB5E4B015C01C090280C12
:10276000D090290CE0902A0CF0902B0CA701960138
:10277000C701B6010E94BB5E9B01AC01C501B4015B
:102780000E94BA5E20E030E040E650E40E94595CCE
:1027900020E030E040E450E40E949E5F6D837E8341
:1027A0008F83988760936A0C70936B0C80936C0C8A
:1027B00090936D0CA7019601C501B4010E94BB5E08
:1027C00020E030E040E650E40E94595C20E030E038
:1027D00040E450E40E949E5F20E030E040E85DE38A
:1027E0000E94595C6D877E878F87988B60936E0CF3
:1027F00070936F0C8093700C9093710C4090620CEE
:102800005090630C6090640C7090650CC301B20131
:102810000E94995F69877A878B879C87C301B20181
:102820000E94B9604B015C016091820C7091830C35
:102830008091840C9091850C0E94F85B6B017C0167
:1028400029813A814B815C8169857A858B859C855C
:102850000E94595C698B7A8B8B8B9C8B2D813E817E
:102860004F815885C501B4010E94595C9B01AC01A0
:1028700069897A898B899C890E94BA5EA701960131
:102880000E94595C20E030E04AE754E40E949E5FD9
:1028900020915A0C30915B0C40915C0C50915D0C76
:1028A0000E94BB5E60935A0C70935B0C80935C0C2F
:1028B00090935D0C29813A814B815C81C501B40103
:1028C0000E94595C4B015C012D813E814F815885EE
:1028D00069857A858B859C850E94595C9B01AC013A
:1028E000C501B4010E94BB5EA70196010E94595C1C
:1028F00020E030E04AE754E40E949E5F20915E0CA5
:1029000030915F0C4091600C5091610C0E94BB5E55
:1029100060935E0C70935F0C8093600C9093610CDD
:102920002D853E854F855889C701B6010E94595CA7
:1029300020E030E04AE754E40E949E5FA301920148
:102940000E94BB5E6093620C7093630C8093640C76
:102950009093650C64960FB6F894DEBF0FBECDBFA2
:10296000DF91CF911F910F91FF90EF90DF90CF906B
:10297000BF90AF909F908F907F906F905F904F909F
:10298000089520911A0B8091730B9091740B211173
:1029900024C02091190B211146C00E947F2C8091E8
:1029A000150B882359F010922E0B10922D0B1092BC
:1029B000180B1092D60A1092150B08958091140BE3
:1029C000882309F496C080912D0B90912E0B0196CF
:1029D00090932E0B80932D0B089520911E0B109237
:1029E0002E0B10922D0B222389F00E947F2C109227
:1029F000230B10921E0B1092220B86E28093D60AB4
:102A0000E091750BF091760B168608950E94502C7C
:102A10001092230BE091750BF091760B16861092B5
:102A20002A0B86E264C010922E0B10922D0B20917F
:102A3000250B21110DC02091D60A322F3F7E355033
:102A4000323018F02951223018F40E94502C02C064
:102A50000E947F2C8091730B9091740B0E94C72A67
:102A60008091730B9091740BFC01E65BFF4F108219
:102A7000118212821382389710821182128213827D
:102A8000349610821182128213828091250B882342
:102A900019F01092250B2AC08091260B882319F07B
:102AA0001092260B23C08091270B882369F00E9487
:102AB00058326093430B7093440B8093450B909373
:102AC000460B1092270B04C08091280B882311F02D
:102AD00087E20DC08091240B882341F081E0809330
:102AE000D60A8093110B1092240B089585E28093EF
:102AF000D60A08953F924F925F926F927F928F9283
:102B00009F92AF92BF92CF92DF92EF92FF920F937C
:102B10001F93CF93DF93CDB7DEB72A970FB6F89404
:102B2000DEBF0FBECDBF6D837E838F839887290163
:102B30003A01E982FA820B831C838601A114B10455
:102B400009F0F5C030901A0B311005C08091190BB7
:102B5000882309F486C020E030E0A901C301B20156
:102B60000E94AC601816ECF48091730B9091740B7A
:102B70009A878987FC01E65BFF4F20813181428182
:102B800053816D817E818F8198850E94AC6018167B
:102B90002CF580912D0B90912E0B80179107F1F45D
:102BA0002BC020E030E0A901C301B2010E94F35B19
:102BB00087FF55C0E091730BF091740BFA87E9879A
:102BC000E65BFF4F20813181428153816D817E819F
:102BD0008F8198850E94F35B87FD0EC080912D0B3D
:102BE00090912E0B08171907D1F5C8010196909303
:102BF0002E0B80932D0B33C021ED3FE54DE75EE3B7
:102C000069817A818B819C810E94595C4B015C01B6
:102C100025E239E442E950ECC301B20190580E9428
:102C2000595C6B017C019B01AC01C501B4010E94A0
:102C3000BB5EE985FA856083718382839383C48256
:102C4000D582E682F782A5019401C701B6010E94F0
:102C5000BA5EE985FA85608771878287938731102C
:102C600070C18091190B81116CC120E030E0A90185
:102C7000C301B2010E94AC6018163CF58091730B41
:102C80009091740B9A878987FC01E65BFF4F8080E7
:102C90009180A280B38020919B0B30919C0B40913E
:102CA0009D0B50919E0B6D817E818F8198850E9436
:102CB000BB5EA50194010E94AC6020912D0B309168
:102CC0002E0B18160CF0EDC02DC020E030E0A9014D
:102CD000C301B2010E94F35B87FF33C1E091730B24
:102CE000F091740BFA87E987E65BFF4F8080918053
:102CF000A280B38020919B0B30919C0B40919D0B47
:102D000050919E0B6D817E818F8198850E94BA5E65
:102D1000A50194010E94F35B20912D0B30912E0BA5
:102D200087FFBFC00217130709F0BBC0CDC0F1E099
:102D3000AF16B10409F056C00E945832C090670B1C
:102D4000D090680BE090690BF0906A0B80906B0B51
:102D500090906C0BA0906D0BB0906E0BC80CD91CB2
:102D6000EA1CFB1C20912D0B30912E0B6C157D0560
:102D70008E059F0508F0E1C00217130709F0DDC0BA
:102D80008091730B9091740B9E838D8321ED3FE5B1
:102D90004DE75EE369817A818B819C810E94595C59
:102DA0006B017C01C301B201905825E239E442E98C
:102DB00050EC0E94595C4B015C019B01AC01C701C6
:102DC000B6010E94BB5EED81FE81608371838283C8
:102DD000938384829582A682B782A7019601C5015A
:102DE000B401A2C0F2E0AF16B10409F0AAC020916C
:102DF000E20C3091E30C80912D0B90912E0B223040
:102E000031050CF043C02091EC0C3091ED0C2230D8
:102E10003105E4F52091F60C3091F70C22303105A4
:102E2000ACF50817190791F58091730B9091740B0D
:102E30009E838D8321ED3FE54DE75EE369817A81D5
:102E40008B819C810E94595C4B015C01C301B201E2
:102E5000905825E239E442E950EC0E94595C6B013C
:102E60007C019B01AC01C501B4010E94BB5EED81F8
:102E7000FE816083718382839383C482D582E682DC
:102E8000F782A5019401C701B6014EC008171907C2
:102E900009F057C00F5F1F4F10932E0B00932D0B9F
:102EA00050C00217130709F04CC00F5F1F4F10935B
:102EB0002E0B00932D0B80929B0B90929C0BA0925B
:102EC0009D0BB0929E0B3DC021ED3FE54DE75EE3CB
:102ED00069817A818B819C810E94595C4B015C01E4
:102EE000C301B201905825E239E442E950EC0E9456
:102EF000595C6B017C019B01AC01C501B4010E94CE
:102F0000BB5EE985FA856083718382839383C48283
:102F1000D582E682F782A5019401C701B6010E941D
:102F2000BA5EE985FA8504C00E94BA5EED81FE8131
:102F3000608771878287938704C00217130709F49B
:102F4000A9CF2A960FB6F894DEBF0FBECDBFDF9192
:102F5000CF911F910F91FF90EF90DF90CF90BF9096
:102F6000AF909F908F907F906F905F904F903F9029
:102F700008958F929F92AF92BF92CF92DF92EF927D
:102F8000FF924B015C0169017A0120E030E0A90168
:102F90000E94F35B811122C020E030E0A901C7014B
:102FA000B6010E94F35B811119C01092DF0A1092E2
:102FB000E00A1092E10A1092E20A1092E30A1092DB
:102FC000E40A1092E50A1092E60A1092E70A1092BB
:102FD000E80A1092E90A1092EA0A6EC0A50194016B
:102FE000C701B6010E943A5F6B017C010E94995FA4
:102FF00020E030E040E05FE30E94595C4B015C015F
:103000006093DF0A7093E00A8093E10A9093E20AEA
:10301000C701B6010E94B96020E030E040E05FE304
:103020000E94595C6B017C016093E30A7093E40A8F
:103030008093E50A9093E60A1092E70A1092E80A54
:103040001092E90A1092EA0A2AE037ED43E25CE3C3
:10305000C501B4010E94F35B87FF12C02AE037ED7F
:1030600043E25CEBC501B4010E94AC60181644F465
:103070001092DF0A1092E00A1092E10A1092E20A1E
:103080002AE037ED43E25CE3C701B6010E94F35B3F
:1030900087FF12C02AE037ED43E25CEBC701B601BF
:1030A0000E94AC60181644F41092E30A1092E40AED
:1030B0001092E50A1092E60A8091190B8823D9F044
:1030C00020E030E040E752E46091DF0A7091E00ACE
:1030D0008091E10A9091E20A0E94595C6093DF0AB4
:1030E0007093E00A8093E10A9093E20A20E030E0D6
:1030F00040E752E41AC020E030E04CE552E4609131
:10310000DF0A7091E00A8091E10A9091E20A0E9440
:10311000595C6093DF0A7093E00A8093E10A909310
:10312000E20A20E030E04CE552E46091E30A70915D
:10313000E40A8091E50A9091E60A0E94595C609346
:10314000E30A7093E40A8093E50A9093E60AFF90FD
:10315000EF90DF90CF90BF90AF909F908F900895A9
:103160004F925F926F927F928F929F92AF92BF9297
:10317000CF92DF92EF92FF920F931F93CF93DF9343
:103180006B017C01E9014115510509F03DC04090FA
:10319000030B5090040B6090050B7090060B009190
:1031A000730B1091740B0A5B1F4FF80180809180A4
:1031B000A280B38020E030E0A901C501B4010E94E3
:1031C000AC60181624F0B7FAB094B7F8B094A50123
:1031D0009401C301B2010E94BB5EA70196010E9447
:1031E000F35B20912D0B30912E0B18160CF4CBC0F5
:1031F0002C173D0709F0C7C020E030E0A90160E0CE
:1032000070E080E89FEBD9C04130510509F03EC025
:103210004090030B5090040B6090050B7090060BD0
:103220000091730B1091740B0A5B1F4FF8018080A3
:103230009180A280B38020E030E0A901C501B401F3
:103240000E94AC60181624F0B7FAB094B7F8B094A6
:10325000A5019401C301B2010E94BB5E9B01AC01B8
:10326000C701B6010E94AC6020912D0B30912E0B4E
:1032700087FD89C0C217D30709F085C020E030E080
:10328000A90160E070E080E89FE397C042305105FB
:10329000D9F54090030B5090040B6090050B709093
:1032A000060B0091730B1091740B0E5B1F4FF8010E
:1032B00080809180A280B38020E030E0A901C50128
:1032C000B4010E94AC60181624F0B7FAB094B7F8B5
:1032D000B094A5019401C301B2010E94BB5E9B01A1
:1032E000AC01C701B6010E94AC6020912D0B30915A
:1032F0002E0B87FD83C0C217D30709F07FC020E0E3
:1033000030E040E85FE356C04330510509F08BC020
:103310004090030B5090040B6090050B7090060BCF
:103320000091730B1091740B0E5B1F4FF80180809E
:103330009180A280B38020E030E0A901C501B401F2
:103340000E94AC60181624F0B7FAB094B7F8B094A5
:10335000A5019401C301B2010E94BB5E9B01AC01B7
:10336000C701B6010E94AC6020912D0B30912E0B4D
:1033700087FD44C0C217D30709F040C020E030E009
:1033800040E85FEB17C0C217D30709F04CC0219685
:10339000D0932E0BC0932D0BF80110821182128254
:1033A00013821092030B1092040B1092050B1092D3
:1033B000060B39C060E070E0CB010E94B917C090E5
:1033C000E70AD090E80AE090E90AF090EA0A009152
:1033D000E30A1091E40A2091E50A3091E60A40914F
:1033E000DF0A5091E00A6091E10A7091E20A80914F
:1033F000730B9091740B0E94D52A15C0C217D30786
:1034000091F42196D0932E0BC0932D0BF8011082CE
:103410001182128213821092FF0A1092000B1092F6
:10342000010B1092020BDF91CF911F910F91FF9032
:10343000EF90DF90CF90BF90AF909F908F907F9054
:103440006F905F904F9008958F929F92AF92BF922E
:10345000CF92DF92EF92FF92CF93DF936B017C01CB
:10346000EA018091160B882399F00E9458328090CF
:103470006F0B9090700BA090710BB090720B681551
:1034800079058A059B0520F08091110B811194C26A
:1034900081E08093240B20E030E040EF51E4C7014D
:1034A000B6010E94F35B81111DC0E090730BF09098
:1034B000740BF701E65BFF4F80809180A280B380A0
:1034C00020E030E0A901C501B4010E94AC601816EB
:1034D00024F0B7FAB094B7F8B09422E93AE046E0A5
:1034E0005FE352C120E030E04CE052E4C701B60196
:1034F0000E94F35B81111DC0E090730BF090740B80
:10350000F701E65BFF4F80809180A280B38020E0CE
:1035100030E0A901C501B4010E94AC60181624F086
:10352000B7FAB094B7F8B0942CE739ED40E25FE316
:103530002BC120E030E044E352E4C701B6010E9411
:10354000F35B81111DC0E090730BF090740BF701D9
:10355000E65BFF4F80809180A280B38020E030E066
:10356000A901C501B4010E94AC60181624F0B7FA95
:10357000B094B7F8B0942BED3FE049E45FE304C1A9
:1035800020E030E040E752E4C701B6010E94F35B5F
:1035900081111DC0E090730BF090740BF701E65B96
:1035A000FF4F80809180A280B38020E030E0A901AD
:1035B000C501B4010E94AC60181624F0B7FAB094AB
:1035C000B7F8B09422E93AE046E85FE3DDC020E0D6
:1035D00030E044EB52E4C701B6010E94F35B811175
:1035E0001DC0E090730BF090740BF701E65BFF4F8A
:1035F00080809180A280B38020E030E0A901C501E5
:10360000B4010E94AC60181624F0B7FAB094B7F871
:10361000B0942BED3FE049EC5FE374C020E030E074
:1036200040EF52E4C701B6010E94F35B81111DC057
:10363000E090730BF090740BF701E65BFF4F808016
:103640009180A280B38020E030E0A901C501B401DF
:103650000E94AC60181624F0B7FAB094B7F8B09492
:1036600022E93AE046E050E48FC020E030E046E155
:1036700053E4C701B6010E94F35B81111DC0E090C5
:10368000730BF090740BF701E65BFF4F8080918025
:10369000A280B38020E030E0A901C501B4010E94FE
:1036A000AC60181624F0B7FAB094B7F8B09427E3DA
:1036B0003DE847E250E468C020E030E044E353E4F2
:1036C000C701B6010E94F35B811138C0E090730B13
:1036D000F090740BF701E65BFF4F80809180A28031
:1036E000B38020E030E0A901C501B4010E94AC60C4
:1036F000181624F0B7FAB094B7F8B0942BED3FE069
:1037000049E450E46091070B7091080B8091090B1C
:1037100090910A0B0E94BB5EA50194010E94AC60CF
:1037200087FF43C0DF91CF91FF90EF90DF90CF9064
:10373000BF90AF909F908F900C94C11420E030E028
:1037400044EB53E4C701B6010E94F35B811164C0EE
:10375000E090730BF090740BF701E65BFF4F8080F5
:103760009180A280B38020E030E0A901C501B401BE
:103770000E94AC60181624F0B7FAB094B7F8B09471
:103780002BED3FE049EC50E46091070B7091080B82
:103790008091090B90910A0B0E94BB5EA5019401D8
:1037A0000E94AC6018160CF0BDCFCD2B41F180917A
:1037B000DB0A9091DC0AA091DD0AB091DE0ABC011F
:1037C000CD01905825E239E442E950EC0E94595C61
:1037D0004B015C0120E030E0A9010E94BB5EF701D3
:1037E000608371838283938384829582A682B78269
:1037F00080869186A286B3861092120BE4C025E2E1
:1038000039E442E950EC6091DB0A7091DC0A809166
:10381000DD0A9091DE0ADACF20E030E040E050E4AB
:10382000C701B6010E94F35B811161C08091DA0C7F
:103830009091DB0CCD2B51F5181619060CF0C3C076
:10384000C091730BD091740B25E239E442E950EC3E
:103850006091DB0A7091DC0A8091DD0A9091DE0AAA
:103860000E94595C6B017C0120E030E0A9010E94BC
:10387000BB5E688379838A839B83CC82DD82EE8200
:10388000FF82C886D986EA86FB868EC0181619067E
:103890000CF099C0C091730BD091740B8091DB0A2E
:1038A0009091DC0AA091DD0AB091DE0ABC01CD0145
:1038B000905825E239E442E950EC0E94595C6B01D2
:1038C0007C0120E030E0A9010E94BB5E688379831F
:1038D0008A839B83CC82DD82EE82FF82C886D98672
:1038E000EA86FB868091E20C9091E30C61C020E0B7
:1038F00030E040E450E4C701B6010E94F35B81115F
:1039000062C08091DA0C9091DB0CCD2BA9F41816D3
:1039100019060CF058C0C091730BD091740B25E2BE
:1039200039E442E950EC6091DB0A7091DC0A809145
:10393000DD0A9091DE0A17C0181619060CF043C074
:10394000C091730BD091740B8091DB0A9091DC0ACB
:10395000A091DD0AB091DE0ABC01CD01905825E2AC
:1039600039E442E950EC0E94595C6B017C0120E093
:1039700030E0A9010E94BB5E688379838A839B83C0
:10398000CC82DD82EE82FF82C886D986EA86FB86FB
:103990008091E20C9091E30C0297ACF08091EC0CDA
:1039A0009091ED0C02977CF08091F60C9091F70CC1
:1039B00002970CF0B7CE07C087E198E00E94E0279D
:1039C0001092110B65CDDF91CF91FF90EF90DF90BA
:1039D000CF90BF90AF909F908F9008958F929F92BD
:1039E000AF92BF92CF92DF92EF92FF920F931F930D
:1039F000CF93DF938091160B882351F08091110BA8
:103A0000882331F08CE098E00E94E0271092110B9F
:103A1000C1E0C093230BE091750BF091760BC68744
:103A200080911A0B811128C08091190B8111D4C08B
:103A30004091DA0C5091DB0C141615060CF036C1CF
:103A40002091E40C3091E50C121613060CF02EC1F7
:103A50008091EE0C9091EF0C181619060CF026C10F
:103A6000493051050CF420C1283031050CF41CC13B
:103A700009970CF419C11AC180911E0B882309F40F
:103A800082C00091E40C1091E50C2091E60C30917D
:103A9000E70C4091E80C5091E90C6091EA0C7091B0
:103AA000EB0C8091EC0C9091ED0C0E943C3380E08B
:103AB00090E0A0EAB1E48093D70A9093D80AA0934B
:103AC000D90AB093DA0A4091DA0C5091DB0C141643
:103AD00015060CF0EBC02091E40C3091E50C1216A9
:103AE00013060CF0E3C08091EE0C9091EF0C1816C9
:103AF00019060CF0DBC0493051050CF4D5C0283054
:103B000031050CF4D1C009970CF4CEC0E091730BD1
:103B1000F091740BEE5BFF4FC080D180E280F380A8
:103B20008090F70A9090F80AA090F90AB090FA0AEB
:103B300020E030E040E751E4C501B4010E949E5FFF
:103B4000A70196010E94F35B87FF07C08091EC0CF0
:103B50009091ED0C08970CF0A7C020E030E040E316
:103B600051E4C501B4010E949E5FA70196010E9425
:103B7000F35B87FF9BC08091EC0C9091ED0C079755
:103B80000CF492C093C080E090E0A0EAB1E480938E
:103B9000D70A9093D80AA093D90AB093DA0A8091F1
:103BA000DA0C9091DB0C09970CF47EC08091E40C48
:103BB0009091E50C08970CF477C08091EE0C9091F1
:103BC000EF0C09970CF470C08091520D9091530D39
:103BD000069709F069C06AC00E94ED5924E030E000
:103BE00040E050E00E941A5D7093360B6093350BF5
:103BF00077FD0BC06230710534F0643071052CF430
:103C0000C093200B02C01092200B8091DA0C90918F
:103C1000DB0CC090F70AD090F80AE090F90AF09017
:103C2000FA0A099784F18091E40C9091E50C0897C9
:103C300054F18091EE0C9091EF0C099724F120E063
:103C400030E04CE852E4C701B6010E94AC6087FD49
:103C50002DC08091200B882349F120E030E040EC1A
:103C60005FE3C701B6010E949E5FE091730BF09184
:103C7000740BEE5BFF4F20813181428153810E94A2
:103C8000F35B18169CF020E030E04CE852E4C701EA
:103C9000B6010E94AC6087FD04C08091200B8111A9
:103CA0003AC081E080932B0B0E94C11410922B0B21
:103CB000C091730BD091740B21ED3FE54DE75EE3AE
:103CC0006091D70A7091D80A8091D90A9091DA0A46
:103CD0000E94595C688379838A839B83C12CD12C91
:103CE000E12C20E8F22ECC82DD82EE82FF82DC0124
:103CF000CB01B05888879987AA87BB87DF91CF917E
:103D00001F910F91FF90EF90DF90CF90BF90AF90F9
:103D10009F908F90089520E030E040EC5FE3C70172
:103D2000B6010E949E5FE091730BF091740BEE5B05
:103D3000FF4F20813181428153810E94F35B18162D
:103D40000CF4AFCF81E08093170BABCF4AE0489FD4
:103D5000F001499FF00D1124E852F34F2281338185
:103D600001962830310554F4489FF001499FF00D29
:103D70001124E852F34F118210820895B90168505E
:103D800071096530710550F4489FF001499FF00DAD
:103D90001124E852F34F81E090E0CEC0B9016D509C
:103DA00071096830710550F4489FF001499FF00D8A
:103DB0001124E852F34F82E090E0BEC0B901655192
:103DC00071096530710550F4489FF001499FF00D6D
:103DD0001124E852F34F83E090E0AEC0B9016A517C
:103DE00071096A30710550F4489FF001499FF00D48
:103DF0001124E852F34F84E090E09EC0B901645270
:103E000071096B31710550F4489FF001499FF00D25
:103E10001124E852F34F85E090E08EC0B9016F5352
:103E200071096231710550F4489FF001499FF00D0E
:103E30001124E852F34F86E090E07EC0B90161554D
:103E400071096A30710550F4489FF001499FF00DE7
:103E50001124E852F34F87E090E06EC0B9016B5532
:103E600071096431710550F4489FF001499FF00DCC
:103E70001124E852F34F88E090E05EC0A9014F564C
:103E800051094431510558F42AE0289FF001299F37
:103E9000F00D1124E852F34F89E090E04DC0A901E4
:103EA000435851094E31510558F42AE0289FF0013A
:103EB000299FF00D1124E852F34F8AE090E03CC0B6
:103EC000A901415A51094931510558F42AE0289F66
:103ED000F001299FF00D1124E852F34F8BE090E0A0
:103EE0002BC0A9014A5B51094F30510558F42AE013
:103EF000289FF001299FF00D1124E852F34F8CE028
:103F000090E01AC0295C31092233310558F42AE0C7
:103F1000289FF001299FF00D1124E852F34F8DE006
:103F200090E00AC02AE0289FF001299FF00D11249B
:103F3000E852F34F8EE090E09183808308952F92B2
:103F40003F924F925F926F927F928F929F92AF9229
:103F5000BF92CF92DF92EF92FF920F931F93CF9376
:103F6000DF9300D01F921F92CDB7DEB78B014B833A
:103F70006B019C01285F3F4FFB01DC014D915D917E
:103F8000CD0141935193A217B307B9F7F8013296C7
:103F9000FA83E983E12CF12CA981BA812D903D901F
:103FA000BA83A983B2E0CB0ED11CB101032C000C63
:103FB000880B990B0E94FA5B2B013C01EB81FD827F
:103FC000EC825601E1112CC0D5019E908E905D01CE
:103FD000B401092C000C880B990B0E94FA5B9B0121
:103FE000AC01C301B2010E94F35B87FF2CC0F50155
:103FF000938282828C819D8101979D838C8301961F
:1040000019F7EFEFFFEFFD83EC831DC0F5019382FD
:1040100082828C819D8101979D838C83019689F397
:10402000D5019E908E905D01B401092C000C880B87
:10403000990B0E94FA5B9B01AC01C301B2010E9483
:10404000AC6018161CF3EC81FD813196EE0FFF1F5A
:10405000E00FF11F31822082FFEFEF1AFF0A23E009
:10406000E216F10409F098CFC8010F900F900F905D
:104070000F900F90DF91CF911F910F91FF90EF90D4
:10408000DF90CF90BF90AF909F908F907F906F9078
:104090005F904F903F902F900895DC015196ED91E5
:1040A000FC915297908150968C91809589238083C2
:1040B000089520915204309153042817390781F450
:1040C0009091510480915004981751F0E09151045F
:1040D000F0E0E05FFB4F8081082E000C990B089503
:1040E0008FEF9FEF089520915204309153042817C9
:1040F000390739F48FB7F894109250041092510494
:104100008FBF089520915204309153042817390726
:1041100071F4809150042091510490E0805C9F4F95
:10412000821B910960E470E00E940061089580E0C4
:1041300090E008950F931F930E9458326093C40C2F
:104140007093C50C8093C60C9093C70C8CEB9CE0CD
:104150000E94592097FF1FC00E9458320091C40C42
:104160001091C50C2091C60C3091C70CDC01CB011D
:10417000801B910BA20BB30B0091C00C1091C10CD2
:104180002091C20C3091C30C80179107A207B3078E
:10419000E8F28FEF9FEF1F910F910895DF92EF925A
:1041A000FF920F931F93CF93DF93EC01298D3A8DEC
:1041B0002115310529F481E090E09B838A835AC060
:1041C000162FDFB6F8948B8D81FD4DC0CE010E9475
:1041D0004D20898D9A8D05960E94E7298B8D98E058
:1041E000E92EF12C01E081FF1AC0812F802321F0FC
:1041F000CE010E944D2006C0E989FA899081888904
:10420000892B8083898D9A8D0E94E729000F81E098
:10421000E81AF10851F7CE010E944D201CC0812FF1
:10422000802339F0E989FA8990818889892B8083F4
:1042300003C0CE010E944D20898D9A8D0E94E729EE
:10424000000F81E0E81AF10851F7E989FA899081B5
:104250008889892B8083DFBE898D9A8D0E94E7290A
:1042600021E030E007C0E989FA8990818889892BAB
:104270008083AFCFC901DF91CF911F910F91FF9044
:10428000EF90DF900895CF93DF93D091540DC091BC
:10429000550D9093570D8093560D2AE0AC01249F45
:1042A000C001259F900D11240E947D5D8093540DC7
:1042B0009093550D4D2F5C2F9C0180E090E0609114
:1042C000580D7091590D8617970780F42115310507
:1042D00039F06AE0FA01D90101900D926A95E1F78F
:1042E0000196465F5F4F265F3F4FE9CF8D2F9C2F92
:1042F000DF91CF910C94155ECF92DF92EF92FF92F7
:10430000CF930E949A20FC0197FD0BC08D3291053E
:1043100061F0C0970A9748F08CEB9CE00E941D2941
:10432000F0CF60E070E0CB0140C0C12CD12C760111
:10433000C0E0E130F10501F1ED32F105E1F0CF012E
:10434000C0970A97C8F4AAE0B0E0A70196010E94BE
:10435000395D6F01FF0FEE08FF08DC01CB018C0D0A
:104360009D1DAE1DBF1D6C017D0120E3C21AD10849
:10437000E108F10801C0C1E08CEB9CE00E941D291E
:104380000E949A20FC01C0970A9798F2E130F1054B
:1043900081F2CC2341F066277727CB016C197D0988
:1043A0008E099F0902C0C701B601CF91FF90EF901F
:1043B000DF90CF9008951092AC0B1092AB0B81E080
:1043C00090E09093E10C8093E00C82E090E0909379
:1043D000EB0C8093EA0C83E090E09093F50C8093D3
:1043E000F40C84E090E09093FF0C8093FE0C80E04E
:1043F00090E00E94A61E81E090E00E94A61E82E04E
:1044000090E00E94A61E83E090E00E94A61E80918C
:10441000AB0B9091AC0BE8EDFCE022853385232BB0
:1044200009F401963A962DE0E030F207B1F7909347
:10443000AC0B8093AB0B08958F929F92AF92BF927B
:10444000DF92EF92FF920F931F93CF93DF93CDB73D
:10445000DEB760970FB6F894DEBF0FBECDBFD82E83
:104460008091DA0C9091DB0C9A8789878091E40C1B
:104470009091E50C9C878B878091EE0C9091EF0CCE
:104480009E878D878091F80C9091F90C988B8F877F
:10449000D1100FC040E0BE016F5F7F4FCE01099683
:1044A0000E949F1FCE010196E2E0FDE020E03AE08D
:1044B00002C041E0F0CFDC016D917D91CD01A8ED0E
:1044C000BCE040E050E01296AD90BC9013978A019A
:1044D0000F5F1F4F78016A157B0509F080C0D1106E
:1044E0003EC071836083211117C014968D909D90FA
:1044F000AD90BC90179782829382A482B582189661
:104500004D915C911997578346831A964D915C9112
:104510001B97518740873DC0349FD001359FB00D18
:104520001124A852B34F14964D915D916D917C91D9
:104530001797428353836483758318964D915C91DA
:10454000199757834683309FD001319FB00D1124B6
:10455000A852B34F4D915C91518740873EC071A7DF
:1045600060A7211118C014968D909D90AD90BC90BD
:10457000179782A693A6A4A6B5A618964D915C910E
:10458000199757A746A71A964D915C911B9751AB67
:1045900040AB21E024C0349FD001359FB00D1124E1
:1045A000A852B34F14964D915D916D917C911797E0
:1045B00042A753A764A775A718964D915C911997C8
:1045C00057A746A7309FD001319FB00D1124A852A4
:1045D000B34F4D915C9151AB40AB20E006C0A701B9
:1045E0001A964430510509F06ECF3A961DE0EA3232
:1045F000F10709F060CF60960FB6F894DEBF0FBEEA
:10460000CDBFDF91CF911F910F91FF90EF90DF9081
:10461000BF90AF909F908F900895CF93DF9380913C
:10462000DA0C9091DB0CC091E40CD091E50C863053
:1046300091054CF41092DC0C1092DD0C1092DE0C03
:104640001092DF0C2CC08630910529F480E090E0B8
:10465000A0E0BFE306C0079769F480E090E0A0E027
:10466000B0E48093DC0C9093DD0CA093DE0CB0934F
:10467000DF0C15C0BE010D2E000C880B990B0E949B
:10468000FA5B2CE53FE842E250E40E94595C6093FB
:10469000DC0C7093DD0C8093DE0C9093DF0CC63045
:1046A000D1054CF41092E60C1092E70C1092E80C35
:1046B0001092E90C2CC0C630D10529F480E090E0BE
:1046C000A0E0BFE307C0C730D10569F480E090E007
:1046D000A0E0B0E48093E60C9093E70CA093E80C84
:1046E000B093E90C14C0BE01DD0F880B990B0E943A
:1046F000FA5B2CE53FE842E250E40E94595C60938B
:10470000E60C7093E70C8093E80C9093E90C6091B1
:10471000EE0C7091EF0C663071054CF41092F00CB9
:104720001092F10C1092F20C1092F30C2CC0663027
:10473000710529F480E090E0A0E0BFE307C0673096
:10474000710569F480E090E0A0E0B0E48093F00CA3
:104750009093F10CA093F20CB093F30C14C0072EBD
:10476000000C880B990B0E94FA5B2CE53FE842E2B3
:1047700050E40E94595C6093F00C7093F10C8093AC
:10478000F20C9093F30C6091F80C7091F90C663078
:1047900071054CF41092FA0C1092FB0C1092FC0C68
:1047A0001092FD0C2CC06630710529F480E090E079
:1047B000A0E0BFE307C06730710569F480E090E0D6
:1047C000A0E0B0E48093FA0C9093FB0CA093FC0C57
:1047D000B093FD0C14C0072E000C880B990B0E949F
:1047E000FA5B2CE53FE842E250E40E94595C60939A
:1047F000FA0C7093FB0C8093FC0C9093FD0CDF91F2
:10480000CF9108950F931F93CF93DF932091580D6D
:104810003091590DE90121962C173D0798F58C012F
:104820004091560D5091570D4C175D0738F4C90152
:1048300009964817590710F40E9443218091580D9A
:104840009091590D2AE0289FB001299F700D1124E5
:1048500040E050E08C179D07C0F4A091540DB0913A
:10486000550D9B01240F351FA20FB31F109731F078
:104870002AE0F80101900D922A95E1F70196465F32
:104880005F4FE8CFC217D30720F4D093590DC093E0
:10489000580DDF91CF911F910F9108952091580DE0
:1048A0003091590D8217930710F00E949E5E4AE0E6
:1048B000489F9001499F300D11248091540D909193
:1048C000550D820F931F08958F929F92AF92BF92C2
:1048D000CF92DF92EF92FF928091190B882319F00B
:1048E00081E08093250B80911A0B882319F081E0D9
:1048F00080932A0B0E94ED594B015C010E94ED59F7
:104900006B017C010E94ED5921E02093120B309144
:10491000190B31112093110B2091DA0C3091DB0C23
:10492000121613060CF061C02091210B21112AC030
:1049300081E08093210BC501B4012AE030E040E022
:1049400050E00E941A5DCB01770FAA0BBB0B8A3097
:10495000910580F4FC018827ED55FF4F8F4F0C9493
:1049600014618FE005C080E103C08BE001C08CE0E2
:104970008093D60A8091D60A90E090933A0B809368
:10498000390B33C01092210B2091390B20FD17C039
:10499000C701B60125E030E040E050E00E941A5D1A
:1049A0006130710541F01CF4672B39F01EC0653091
:1049B00071051CF01AC08FE016C08BE014C025E012
:1049C00030E040E050E00E941A5D6130710541F036
:1049D0001CF4672B39F009C0653071051CF005C067
:1049E00080E101C08CE08093D60AFF90EF90DF90C9
:1049F000CF90BF90AF909F908F900895CF92DF920D
:104A0000EF92FF920F931F93CF93DF938091D80C77
:104A10009091D90C8230910591F034F4009761F0B7
:104A2000019709F470C17BC18330910509F44AC034
:104A3000049709F4BCC073C10E94642470C10E9431
:104A4000ED5925E030E040E050E00E941A5D77FD2E
:104A500066C16330710524F065307105D4F05FC123
:104A600080E090E00E944E24FC019AE0A9E7BBE0C0
:104A700001900D929A95E1F720917F0B3091800B78
:104A800080918F0B9091900B2817390709F047C13F
:104A900037C181E090E00E944E24FC019AE0A9E732
:104AA000BBE001900D929A95E1F720917F0B309138
:104AB000800B80918F0B9091900B2817390709F08C
:104AC0002EC121C10E94ED5922E030E040E050E0CB
:104AD0000E941A5DEB010E94ED5924E030E040E0B5
:104AE00050E00E941A5D6230710539F11CF477FFC5
:104AF00005C015C163307105D9F111C180E090E0A6
:104B00000E944E24FC019AE0A9E7BBE001900D92BF
:104B10009A95E1F720917F0B3091800B80918F0B5C
:104B20009091900B2817390709F0F9C0209709F4E4
:104B3000E7C0219709F4E1C0F2C081E090E00E9453
:104B40004E24FC019AE0A9E7BBE001900D929A95F2
:104B5000E1F720917F0B3091800B80918F0B90912A
:104B6000900B2817390709F0DAC02097E1F4C5C087
:104B700082E090E00E944E24FC019AE0A9E7BBE0AD
:104B800001900D929A95E1F720917F0B3091800B67
:104B900080918F0B9091900B2817390709F0BFC0B7
:104BA000209709F4ADC0219709F4ADC0B8C00E94A8
:104BB000ED596B017C010E94ED5923E030E040E0AB
:104BC00050E00E941A5DEB01C701B60125E030E01C
:104BD00040E050E00E941A5D6230710589F11CF4DA
:104BE00077FF0AC09CC06330710509F445C064308A
:104BF000710509F463C093C080E090E00E944E24E8
:104C0000FC019AE0A9E7BBE001900D929A95E1F7CB
:104C100020917F0B3091800B80918F0B9091900BA6
:104C20002817390709F07BC0C130D10509F465C0E8
:104C3000C230D10509F43FC0CD2B09F070C060C06F
:104C400081E090E00E944E24FC019AE0A9E7BBE0DD
:104C500001900D929A95E1F720917F0B3091800B96
:104C600080918F0B9091900B2817390709F057C04E
:104C7000C130D105E9F51FC082E090E00E944E24CA
:104C8000FC019AE0A9E7BBE001900D929A95E1F74B
:104C900020917F0B3091800B80918F0B9091900B26
:104CA00028173907E1F5C130D10551F1C230D105DE
:104CB00051F1CD2BA1F583E090E027C083E090E097
:104CC0000E944E24FC019AE0A9E7BBE001900D92FE
:104CD0009A95E1F720917F0B3091800B80918F0B9B
:104CE0009091900B28173907D1F4C130D10541F0CC
:104CF000C230D10541F0CD2B91F482E090E005C0A7
:104D000081E090E002C080E090E00E944E24FC012F
:104D10009AE0A9E7BBE001900D929A95E1F78091A6
:104D2000D80C9091D90C181619060CF010C1C0912E
:104D30007F0BD091800BC230D10509F44DC020F417
:104D4000C130D10551F003C1C330D10509F46AC0A7
:104D5000C430D10509F49EC0FAC0D093920BC09321
:104D6000910B0091DA0C1091DB0C2091DC0C30914E
:104D7000DD0C4091DE0C5091DF0C6091E00C7091E5
:104D8000E10C8091E20C9091E30C0E943C33609323
:104D9000F70A7093F80A8093F90A9093FA0A0E942E
:104DA000ED592AE030E040E050E00E941A5D709337
:104DB000380B6093370B77FDCAC06530710534F04E
:104DC000665071096430710508F0C1C01092340B4F
:104DD0001092330B89E1B9C0D093920BC093910B21
:104DE0000091E40C1091E50C2091E60C3091E70C59
:104DF0004091E80C5091E90C6091EA0C7091EB0C39
:104E00008091EC0C9091ED0C0E943C336093F70A7A
:104E10007093F80A8093F90A9093FA0A1092240B7F
:104E200081E093C0D093920BC093910B0091EE0C54
:104E30001091EF0C2091F00C3091F10C4091F20C9C
:104E40005091F30C6091F40C7091F50C8091F60C7C
:104E50009091F70C0E943C336093F70A7093F80A24
:104E60008093F90A9093FA0A0E94ED592AE030E003
:104E700040E050E00E941A5D7093380B6093370B4E
:104E80006A30710508F063C01092340B1092330B36
:104E90008AE15BC00091F80C1091F90C2091FA0C9A
:104EA0003091FB0C4091FC0C5091FD0C6091FE0C7C
:104EB0007091FF0C8091000D9091010D0E943C3388
:104EC0006093F70A7093F80A8093F90A9093FA0AAC
:104ED0000E94ED5925E030E040E050E00E941A5D6C
:104EE00070933C0B60933B0B0E94ED5922E030E045
:104EF00040E050E00E941A5D7093400B60933F0BBE
:104F00000E94ED5926E030E040E050E00E941A5D3A
:104F100070933E0B60933D0B80913B0B90913C0B4B
:104F200097FD15C08330910544F0059784F4D09324
:104F3000920BC093910B82E008C01092920B1092DA
:104F4000910B81E08093240B02C08093D60ADF91FD
:104F5000CF911F910F91FF90EF90DF90CF90089528
:104F6000CF93DF936DE08AED96E00E94832FEC01F2
:104F70006AE08AED96E00E94832F8C0F9D1FDF91DF
:104F8000CF910895EF92FF920F931F93CF93DF93EA
:104F90007C01FB0100E010E06491EF0121966623A3
:104FA00039F0C7010E943E29080F191FFE01F4CFF6
:104FB000C801DF91CF911F910F91FF90EF9008955D
:104FC000CF93DF93BC018AED96E00E94C227EC01EB
:104FD0000E94B0278C0F9D1FDF91CF910895CF9233
:104FE000DF92EF92FF920F931F93CF93DF9377FFA0
:104FF0001DC06A017B01EC016DE20E94832F8C01D0
:1050000044275527BA014C195D096E097F092AE02A
:10501000CE010E949F2F800F911FDF91CF911F9192
:105020000F91FF90EF90DF90CF9008952AE0DF91ED
:10503000CF911F910F91FF90EF90DF90CF900C9444
:105040009F2F4F925F926F927F928F929F92AF921B
:10505000BF92CF92DF92EF92FF92CF93DF936B01DB
:105060007C01B42E9B01AC010E94C560882319F01D
:1050700065EB73E027C026013701E89477F82FEF3E
:105080003FEF4FE75FE7C301B2010E94C5608111A6
:105090000DC02FEF3FEF4FE75FE7C301B2010E9462
:1050A000F35B18161CF469EB73E00CC02FEF3FEFB5
:1050B0004FE75FE4C701B6010E94AC601816A4F484
:1050C0006DEB73E08AED96E0DF91CF91FF90EF906A
:1050D000DF90CF90BF90AF909F908F907F906F9018
:1050E0005F904F900C948A2F2FEF3FEF4FE75FECCC
:1050F000C701B6010E94F35B87FDE2CF20E030E0FC
:10510000A901C701B6010E94F35B87FF0BC06DE2E6
:105110008AED96E00E94832FEC01F7FAF094F7F8FD
:10512000F09402C0C0E0D0E0A12C60E070E080E02C
:105130009FE3BA1441F020E030E040E251E40E94E5
:105140009E5FA394F6CFA70196010E94BB5E6B0100
:105150007C010E9417602B013C012AE0AB01BC01DD
:105160008AED96E00E949F2FC80FD91FBB2009F43B
:1051700054C0C301B2010E94F85B9B01AC01C7019E
:10518000B6010E94BA5E2B013C0161EC73E08AED2E
:1051900096E00E948A2FC80FD91FFB2C20E030E038
:1051A00040E251E4C301B2010E94595C2B013C0171
:1051B0000E9410604B01770FAA08BB08B7FE15C00C
:1051C0006DE28AED96E00E94832F6C0144275527FB
:1051D000BA01481959096A097B092AE08AED96E063
:1051E0000E949F2F8C0D9D1D07C02AE0B501A401D0
:1051F0008AED96E00E949F2FC80FD91FC501B40108
:105200000E94FA5B9B01AC01C301B2010E94BA5E2D
:105210002B013C01FA94F110C1CFCE01DF91CF9167
:10522000FF90EF90DF90CF90BF90AF909F908F90C6
:105230007F906F905F904F9008952091520430912D
:10524000530428173907B9F4909151048091500400
:10525000981789F0E0915104F0E0E05FFB4F808106
:105260002091510430E02F5F3F4F2F73332720935D
:10527000510490E008958FEF9FEF08950F931F93CF
:10528000CF93DF93FC01A685B7858D01005C1F4F8E
:10529000E8018881998101968F739927AD014E5B52
:1052A0005F4FEA012881398182179307D1F3E80122
:1052B00028813981A20FB31F6C93A685B785A05CA6
:1052C000BF4F11969C938E93A689B7892C9181E04C
:1052D00090E0078C02C0880F991F0A94E2F7822B96
:1052E0008C9381E081A30488F589E02D808180641E
:1052F000808381E090E0DF91CF911F910F9108951D
:10530000FC0181A1882329F0A489B5898C9186FFAD
:10531000FBCF11A20895FC01A485B585FD01E05CD9
:10532000FF4F208131813296808191812817390782
:1053300079F080819181A80FB91F8C9120813181F2
:105340002F5F3F4F2F7333273183208390E00895E1
:105350008FEF9FEF0895DC011C96ED91FC911D9756
:10536000DF01A05CBF4F2D913C91119712968D915A
:105370009C9111972817390739F08D919C91E80F6E
:10538000F91F808190E008958FEF9FEF0895FC0151
:1053900024853585F901E05CFF4F8081918132964B
:1053A00020813181821B930B8F73992708958AED99
:1053B00096E00E94C72980E396E00E94C72986E80C
:1053C00095E00E94C7298CED94E00C94C72920E059
:1053D00001972FEF8F3F9207D9F708951F920F92F1
:1053E0000FB60F9211240BB60F92EF92FF920F930C
:1053F0001F932F933F934F935F936F937F938F935D
:105400009F93AF93BF93CF93DF93EF93FF93C0919D
:105410005204D0915304209709F450C09B8DEE851F
:10542000FF858D8591FF04C09081892329F446C0B2
:105430009081892309F042C08B899C890E94E729C9
:1054400088E0E82EF12C10E001E08D899E890E9411
:10545000E729EE85FF8590818D85892311F0102B3A
:1054600003C0802F80951823000F81E0E81AF1080F
:1054700061F78F89988D0E94E7298B8D81FD1095AA
:10548000809150042091510490E001968F739927E8
:1054900030E08217930779F0E0915004F0E0E05F8C
:1054A000FB4F10838091500490E001968F739927F1
:1054B0008093500403C08B8D81608B8FFF91EF919F
:1054C000DF91CF91BF91AF919F918F917F916F911C
:1054D0005F914F913F912F911F910F91FF90EF900E
:1054E0000F900BBE0F900FBE0F901F9018951F923C
:1054F0000F920FB60F9211240BB60F922F933F937A
:105500004F935F936F937F938F939F93AF93BF93CB
:10551000EF93FF930E94EE29FF91EF91BF91AF911E
:105520009F918F917F916F915F914F913F912F91BB
:105530000F900BBE0F900FBE0F901F9018951F92EB
:105540000F920FB60F9211240BB60F922F933F9329
:105550004F935F936F937F938F939F93AF93BF937B
:10556000EF93FF930E94EE29FF91EF91BF91AF91CE
:105570009F918F917F916F915F914F913F912F916B
:105580000F900BBE0F900FBE0F901F901895FC014F
:1055900012A613A614A615A616A617A610AA11AA37
:1055A00012AA13AA14AA15AA08954F925F926F9295
:1055B0007F928F929F92AF92BF92CF92DF92EF92A3
:1055C000FF920F931F93CF93DF9300D000D0CDB7FE
:1055D000DEB79E838D834A015B0109831A832B8387
:1055E0003C8325E239E442E15EE3C501B4010E9457
:1055F000595C2B013C0121ED3FE54DE75EE36981FC
:105600007A818B819C810E94595C69837A838B8328
:105610009C8325E239E442E950ECC701B6010E94BF
:10562000595C6B017C0129813A814B815C81C3010A
:10563000B2010E94BB5EA70196010E94BB5EED8194
:10564000FE81608371838283938325E239E442E99A
:105650005EEBC501B4010E94595CA70196010E944E
:10566000BB5EED81FE816483758386839783298188
:105670003A814B815C81C301B2010E94BA5EA701ED
:1056800096010E94BB5EED81FE81608771878287F3
:10569000938726960FB6F894DEBF0FBECDBFDF917D
:1056A000CF911F910F91FF90EF90DF90CF90BF901F
:1056B000AF909F908F907F906F905F904F900895E4
:1056C000CF93DF93EC018B85823028F4F894CE01E0
:1056D0000E94A31001C0F8946F81788589859A850E
:1056E0007894DF91CF9108950F931F93CF93DF9319
:1056F0008C0177FF05C071956195710981E001C04A
:1057000080E0EB016F3F710519F014F0CFEFD0E0AE
:10571000811102C060E001C061E0F80180810E9457
:10572000F52FF801118161E0812F0E946F302097E1
:1057300009F4A7C0CF3FD10509F4A5C0E12FF0E0DF
:10574000EF51F64FE4918E2F90E0FC013197E1315B
:10575000F10508F093C08827E355FF4F8F4F0C9455
:10576000146184B5806884BDC7BD95C084B580626E
:1057700084BDC8BD90C08091800080688093800007
:10578000D0938900C093880086C080918000806299
:1057900080938000D0938B00C0938A007CC080915E
:1057A000B00080688093B000C093B30074C0809153
:1057B000B00080628093B000C093B4006CC0809150
:1057C0009000806880939000D0939900C0939800D7
:1057D00062C080919000806280939000D0939B0083
:1057E000C0939A0058C08091900088608093900088
:1057F000D0939D00C0939C004EC08091A000806813
:105800008093A0008091A0008F7B8093A000D09314
:10581000A900C093A8003FC08091A000806280933F
:10582000A000D093AB00C093AA0035C08091A00027
:1058300088608093A000D093AD00C093AC002BC0D3
:1058400080912001806880932001D0932901C0932A
:10585000280121C080912001806280932001D09393
:105860002B01C0932A0117C080912001886080938A
:105870002001D0932D01C0932C010DC0C038D1055B
:1058800014F460E001C061E0812FDF91CF911F919E
:105890000F910C94F52FDF91CF911F910F910895E7
:1058A000CF93DF93EC01FC01E259FF4F60E070E021
:1058B000808191810E94742BFE01E059FF4F60E0CE
:1058C00070E0808191810E94742BFE01EE58FF4FA1
:1058D00060E070E0808191810E94742BFE01CE0116
:1058E0000C961486158616861786119211921192BF
:1058F0001192E817F907A9F7DF91CF910895CF9397
:10590000DF93EC01FC01E259FF4F60E070E0808121
:1059100091810E94742BFE01E059FF4F60E070E01E
:10592000808191810E94742BFE01EE58FF4F60E050
:1059300070E0808191810E94742BFE01CE010C9653
:10594000148615861686178611921192119211925D
:1059500016A217A210A611A6E817F90789F7FE01EB
:10596000EE5BFF4F108211821282138234961082F6
:105970001182128213823496108211821282138253
:105980003496108211821282138234961082118210
:1059900012821382CA5ADF4F188219821A821B821E
:1059A000DF91CF910895CF92DF92EF92FF920F9304
:1059B0001F93CF93DF93CDB7DEB729970FB6F89437
:1059C000DEBF0FBECDBF8C01DC011F968D919C9177
:1059D0005097892B09F4A3C00E943332F801C5887F
:1059E000D688E788F08CDC01CB018C199D09AE09C3
:1059F000BF098C329140A105B10570F3F894D8012C
:105A00001A968D919C911B979A8389831F96ED918D
:105A1000FC9150977F01BFEFEB1AFB0A80818987C9
:105A2000F8019481018CF28DE02DD8015B968C9168
:105A3000992309F430C09081982B988790818095A4
:105A400089238F838F818C8388E08B8358856F8136
:105A500049853B812C8189819A81D701508347FDFB
:105A6000252F3A952083262F39F0441F00C00000CF
:105A70006083000000C0F2CF38E04D9160830000E9
:105A8000019761F7D8015A96FC93EE93599749878D
:105A90003B832C833AC09081982B98879081809586
:105AA00089238F838F818E8388E08D8358856F81D2
:105AB00049853D812E8189819A81D701508347FD97
:105AC000252F00C000C0208300C000C000C000C05F
:105AD00000C060830000262F3A9541F0441F00006B
:105AE00000C000C000C000C000C0E8CF38E04D9149
:105AF00000C0608300C0019709F7D8015A96FC9353
:105B0000EE93599749873D832E839A8389837894AE
:105B10000E943332F801658B768B878B908F2996A4
:105B20000FB6F894DEBF0FBECDBFDF91CF911F91AE
:105B30000F91FF90EF90DF90CF9008951F920F92FA
:105B40000FB60F9211240BB60F922F933F938F93A2
:105B50009F93EF93FF93209194043091950480914B
:105B60009604909197042817390731F480913101F8
:105B70008F7D8093310114C0E0919604F0919704D9
:105B8000EC5AFB4F208180919604909197040196E6
:105B90008F739927909397048093960420933601EE
:105BA000FF91EF919F918F913F912F910F900BBE9D
:105BB0000F900FBE0F901F9018951F920F920FB667
:105BC0000F9211240BB60F922F933F938F939F93B5
:105BD000EF93FF9320913E0530913F058091400562
:105BE000909141052817390731F48091D1008F7DBC
:105BF0008093D10014C0E0914005F0914105E2503E
:105C0000FB4F2081809140059091410501968F7353
:105C1000992790934105809340052093D600FF91EA
:105C2000EF919F918F913F912F910F900BBE0F900D
:105C30000FBE0F901F9018951F920F920FB60F92E4
:105C400011240BB60F922F933F938F939F93EF9353
:105C5000FF932091E8053091E9058091EA05909144
:105C6000EB052817390731F48091C9008F7D8093A7
:105C7000C90014C0E091EA05F091EB05E855FA4F30
:105C800020818091EA059091EB0501968F73992709
:105C90009093EB058093EA052093CE00FF91EF915E
:105CA0009F918F913F912F910F900BBE0F900FBE40
:105CB0000F901F9018951F920F920FB60F921124FC
:105CC0000BB60F922F933F938F939F93EF93FF9376
:105CD00020919206309193068091940690919506BA
:105CE0002817390731F48091C1008F7D8093C1005E
:105CF00014C0E0919406F0919506EE5AF94F208178
:105D0000809194069091950601968F7399279093B0
:105D10009506809394062093C600FF91EF919F9182
:105D20008F913F912F910F900BBE0F900FBE0F9050
:105D30001F9018951F920F920FB60F9211240BB659
:105D40000F922F933F934F935F936F937F938F9314
:105D50009F93AF93BF93EF93FF938091300182FDA8
:105D600006C08091360168E974E00E94D333FF9148
:105D7000EF91BF91AF919F918F917F916F915F91C3
:105D80004F913F912F910F900BBE0F900FBE0F9030
:105D90001F9018951F920F920FB60F9211240BB6F9
:105DA0000F922F933F934F935F936F937F938F93B4
:105DB0009F93AF93BF93EF93FF938091D00082FDA9
:105DC00006C08091D60062E475E00E94D333FF9153
:105DD000EF91BF91AF919F918F917F916F915F9163
:105DE0004F913F912F910F900BBE0F900FBE0F90D0
:105DF0001F9018951F920F920FB60F9211240BB699
:105E00000F922F933F934F935F936F937F938F9353
:105E10009F93AF93BF93EF93FF938091C80082FD50
:105E200006C08091CE006CEE75E00E94D333FF91E6
:105E3000EF91BF91AF919F918F917F916F915F9102
:105E40004F913F912F910F900BBE0F900FBE0F906F
:105E50001F9018951F920F920FB60F9211240BB638
:105E60000F922F933F934F935F936F937F938F93F3
:105E70009F93AF93BF93EF93FF938091C00082FDF8
:105E800006C08091C60066E976E00E94D333FF9198
:105E9000EF91BF91AF919F918F917F916F915F91A2
:105EA0004F913F912F910F900BBE0F900FBE0F900F
:105EB0001F9018950895CF92DF92EF92FF920F9363
:105EC0001F93CF93DF936C01EB017B01E40EF51E72
:105ED00000E010E0CE15DF0561F06991D601ED918B
:105EE000FC910190F081E02DC6011995080F191F52
:105EF000F1CFC801DF91CF911F910F91FF90EF90EB
:105F0000DF90CF900895DC01ED91FC910190F0813C
:105F1000E02D19946115710579F0FB0101900020C5
:105F2000E9F73197AF01461B570BDC01ED91FC916E
:105F30000280F381E02D199480E090E008958F9223
:105F40009F92AF92BF92CF92DF92EF92FF920F9308
:105F50001F93CF93DF93CDB7DEB7A1970FB6F89419
:105F6000DEBF0FBECDBF6C01142FE52FCB01022F7A
:105F700019A2223008F40AE07E0121E2E20EF11CAF
:105F8000802E912CA12CB12C612F7E2FA501940184
:105F90000E944C5D029F1019112481E0E81AF1085B
:105FA0001A3014F4105D01C0195CF7011083122F30
:105FB000E32FCA01232B242B252B31F7B701C60170
:105FC0000E948A2FA1960FB6F894DEBF0FBECDBFF8
:105FD000DF91CF911F910F91FF90EF90DF90CF90C5
:105FE000BF90AF909F908F900895362F90E0FC0166
:105FF000EF51F64F4491FC01E556F64F2491FC0118
:10600000EB5AF64F9491992309F468C0442309F49C
:1060100051C050E0FA013197E131F10508F04AC072
:106020008827E254FF4F8F4F0C94146180918000B9
:106030008F7703C0809180008F7D809380003AC06D
:1060400084B58F7702C084B58F7D84BD33C08091C5
:10605000B0008F7703C08091B0008F7D8093B00037
:1060600029C0809190008F7707C0809190008F7D2C
:1060700003C080919000877F809390001BC0809127
:10608000A0008F7707C08091A0008F7D03C0809112
:10609000A000877F8093A0000DC0809120018F77A2
:1060A00007C0809120018F7D03C080912001877FF0
:1060B00080932001E92FF0E0EE0FFF1FE55CF64F23
:1060C000A591B4919FB7F894311104C08C9120959B
:1060D000282302C0EC912E2B2C939FBF0895CF93C1
:1060E000DF9390E0FC01E556F64F2491FC01EB5A5A
:1060F000F64F8491882361F190E0880F991FFC018D
:10610000E95DF54FC591D491FC01E55CF64FA59191
:10611000B491611109C09FB7F894888120958223BA
:106120008883EC912E230BC0623061F49FB7F89402
:106130008881322F309583238883EC912E2B2C93EA
:106140009FBF06C08FB7F894E8812E2B28838FBF9E
:10615000DF91CF9108951F920F920FB60F921124E5
:106160000BB60F922F933F934F935F936F937F9351
:106170008F939F93AF93BF93EF93FF9380916B0D9A
:1061800090916C0D892B29F0E0916B0DF0916C0DC5
:106190001995FF91EF91BF91AF919F918F917F9151
:1061A0006F915F914F913F912F910F900BBE0F9088
:1061B0000FBE0F901F9018951F920F920FB60F925F
:1061C00011240BB60F922F933F934F935F936F93CE
:1061D0007F938F939F93AF93BF93EF93FF938091A0
:1061E000690D90916A0D892B29F0E091690DF0916C
:1061F0006A0D1995FF91EF91BF91AF919F918F918A
:106200007F916F915F914F913F912F910F900BBEB6
:106210000F900FBE0F901F9018951F920F920FB600
:106220000F9211240BB60F922F933F934F935F93CE
:106230006F937F938F939F93AF93BF93EF93FF934E
:1062400080915F0D9091600D892B29F0E0915F0D99
:10625000F091600D1995FF91EF91BF91AF919F91D2
:106260008F917F916F915F914F913F912F910F90FF
:106270000BBE0F900FBE0F901F9018951F920F929C
:106280000FB60F9211240BB60F922F933F934F939B
:106290005F936F937F938F939F93AF93BF93EF938E
:1062A000FF9380915D0D90915E0D892B29F0E09117
:1062B0005D0DF0915E0D1995FF91EF91BF91AF913A
:1062C0009F918F917F916F915F914F913F912F910E
:1062D0000F900BBE0F900FBE0F901F9018951F923E
:1062E0000F920FB60F9211240BB60F922F933F937C
:1062F0004F935F936F937F938F939F93AF93BF93CE
:10630000EF93FF938091670D9091680D892B29F091
:10631000E091670DF091680D1995FF91EF91BF9194
:10632000AF919F918F917F916F915F914F913F912D
:106330002F910F900BBE0F900FBE0F901F901895CE
:106340001F920F920FB60F9211240BB60F922F933C
:106350003F934F935F936F937F938F939F93AF93ED
:10636000BF93EF93FF938091650D9091660D892BFC
:1063700029F0E091650DF091660D1995FF91EF916F
:10638000BF91AF919F918F917F916F915F914F914D
:106390003F912F910F900BBE0F900FBE0F901F904B
:1063A00018951F920F920FB60F9211240BB60F92F1
:1063B0002F933F934F935F936F937F938F939F930D
:1063C000AF93BF93EF93FF938091630D9091640D12
:1063D000892B29F0E091630DF091640D1995FF91DF
:1063E000EF91BF91AF919F918F917F916F915F914D
:1063F0004F913F912F910F900BBE0F900FBE0F90BA
:106400001F9018951F920F920FB60F9211240BB682
:106410000F922F933F934F935F936F937F938F933D
:106420009F93AF93BF93EF93FF938091610D9091F2
:10643000620D892B29F0E091610DF091620D1995A3
:10644000FF91EF91BF91AF919F918F917F916F914C
:106450005F914F913F912F910F900BBE0F900FBE08
:106460000F901F9018953FB7F8948091720D9091FE
:10647000730DA091740DB091750D26B5A89B05C044
:106480002F3F19F00196A11DB11D3FBFBA2FA92FB3
:10649000982F8827820F911DA11DB11DBC01CD0130
:1064A00042E0660F771F881F991F4A95D1F708951C
:1064B0002FB7F89460916E0D70916F0D8091700DF3
:1064C0009091710D2FBF08951F920F920FB60F92EA
:1064D00011242F933F938F939F93AF93BF938091FA
:1064E0006E0D90916F0DA091700DB091710D309166
:1064F0006D0D23E0230F2D3720F40196A11DB11D52
:1065000005C026E8230F0296A11DB11D20936D0D35
:1065100080936E0D90936F0DA093700DB093710DDD
:106520008091720D9091730DA091740DB091750DC5
:106530000196A11DB11D8093720D9093730DA093D0
:10654000740DB093750DBF91AF919F918F913F9155
:106550002F910F900FBE0F901F9018950F931F93C0
:10656000CF938091160B882351F08091110B8823D3
:1065700031F081E49AE00E94E0271092110B8091A3
:10658000270B811116C00E9458320091430B1091C5
:10659000440B2091450B3091460B0C53164F2F4F57
:1065A0003F4F061717072807390740F081E080930F
:1065B000280BCF911F910F910C94C1148091270B40
:1065C000811156C00E9458320091430B1091440B28
:1065D0002091450B3091460B0C53164F2F4F3F4FD8
:1065E000061717072807390708F042C0C1E0C09313
:1065F000110B0E9458326093430B7093440B8093AD
:10660000450B9093460B1092270B1092280BC093CA
:10661000260B0E94ED591092900B10928F0B2AE0DE
:1066200030E040E050E00E941A5DCB01770FAA0BEA
:10663000BB0B8A309105E0F4FC018827E153FF4F42
:106640008F4F0C94146189E011C08AE00FC08BE079
:106650000DC08CE00BC08DE009C08EE007C08FE05C
:1066600005C080E103C081E101C082E18093D60AC8
:10667000CF911F910F910895CF92DF92EF92FF92E9
:106680000F931F93CF93DF93CDB7DEB72A970FB643
:10669000F894DEBF0FBECDBF09831A8389879A871E
:1066A0000E94ED596B017C010E94ED59C701B601B2
:1066B00026E030E040E050E00E941A5D6230710553
:1066C000C9F03CF46115710581F06130710591F0FC
:1066D00022C06430710599F094F065307105D9F4E9
:1066E00080E090E0A0E6BFE30EC080E090E0A0E78D
:1066F000BFE309C080E090E0A0EABFE304C080E00F
:1067000090E0A0E4BFE38093DB0A9093DC0AA093BF
:10671000DD0AB093DE0A89859A858530910561F09E
:1067200048F40497A9F40E94ED5924E030E040E0D9
:1067300050E008C00D9760F40E94ED5926E030E06B
:1067400040E050E00E941A5D7093380B6093370B65
:1067500069817A81072E000C880B990B0E94FA5BE5
:106760006093F70A7093F80A8093F90A9093FA0AF3
:1067700000E010E020EA31E40093D70A1093D80A31
:106780002093D90A3093DA0A2A960FB6F894DEBF1E
:106790000FBECDBFDF91CF911F910F91FF90EF9072
:1067A000DF90CF900895FB01E05CFF4F20813181A5
:1067B0002F5F3F4F2F733327DB01AE5BBF4F4D91F0
:1067C0005C912417350741F040815181DB01A40F12
:1067D000B51F8C93318320830895CF93DF93CDB77A
:1067E000DEB72E970FB6F894DEBF0FBECDBF7894FC
:1067F00084B5826084BD84B5816084BD85B58260C6
:1068000085BD85B5816085BD80916E008160809376
:106810006E001092810080918100826080938100DF
:1068200080918100816080938100809180008160EF
:10683000809380008091B10084608093B10080914A
:10684000B00081608093B00080919100826080935D
:1068500091008091910081608093910080919000DF
:106860008160809390008091A10082608093A1005C
:106870008091A10081608093A1008091A00081603F
:106880008093A000809121018260809321018091FA
:10689000210181608093210180912001816080939A
:1068A000200180917A00846080937A0080917A0040
:1068B000826080937A0080917A00816080937A0070
:1068C00080917A00806880937A001092C100E091F4
:1068D000EE06F091EF0681E090E09C010090FA0650
:1068E00002C0220F331F0A94E2F72083E091EA06E8
:1068F000F091EB061082E091EC06F091ED0620E1BC
:1069000020831092FB06E091F006F091F1064081A1
:106910009C010090F60602C0220F331F0A94E2F792
:10692000242B2083E091F006F091F10640819C0138
:106930000090F70602C0220F331F0A94E2F7242BBF
:106940002083E091F006F091F10640819C010090D7
:10695000F80602C0220F331F0A94E2F7242B20838B
:10696000E091F006F091F10620810090F90602C056
:10697000880F991F0A94E2F780958223808369E942
:1069800074E08AED96E00E94C2278AED96E00E94AC
:1069900080291092D60C1092D50C1092D40C109223
:1069A000D30C1092D20C1092D10C8DEF93E020E01A
:1069B00030E0FC0145915591659174914038554204
:1069C0006105710559F54CE0429FC001439F900D50
:1069D0001124FC01EF5FFB4F259134913093D00CD3
:1069E0002093CF0CFC01ED5FFB4F25913491309348
:1069F000D20C2093D10CFC01EB5FFB4F259134911D
:106A00003093D40C2093D30CFC01E95FFB4F8591AC
:106A100094919093D60C8093D50C0BC02F5F3F4F71
:106A20000C962D30310509F0C4CF1092D00C109285
:106A3000CF0C8091D30C9091D40C892B09F463C0B6
:106A40008091C80C26EF280F243048F09EEC980F58
:106A5000943028F092EC980F983008F04EC03091A6
:106A60006800243050F09EEC980F943030F092EC97
:106A7000980F983010F494E001C091E0932B90931C
:106A8000680096EF980F943058F02EEC280F2430C1
:106A900038F022EC280F283040F4ADE6B0E007C013
:106AA000ABE6B0E0EBE6F0E008C0A0E0B0E02830F4
:106AB00010F40C94B149E0E0F0E02081943010F43F
:106AC00086500BC0823381F0833381F0843381F0B0
:106AD00092EC980F983070F4892F91E001C0990FD3
:106AE0008A95EAF7892F07C088E005C084E003C0D3
:106AF00082E001C081E0822B8C938091D50C909133
:106B0000D60C0E94E72980915204909153048C5B2B
:106B10009C4091F08091D70C8E7F8093D70C8FB7DB
:106B2000F89410925004109251042CEB3CE03093F6
:106B30005304209352048FBF8091080C9091090C4C
:106B400097FD08C061E00E946F3060E08091080C02
:106B50000E94F52F81E08093030C8CEF9BE00E9454
:106B6000D32C60910A0C693C21F120910B0C3091DF
:106B70000C0C615031F070E08FEF98EC0E94EC60EB
:106B800002C060E070E0F9014091060C5091070CE2
:106B9000CF01821B930B8417950740F44081469FD9
:106BA000C001479F900D11249193EECF89EC809303
:106BB0000A0C1092DF031092DE031092D803109299
:106BC000D9031092DA031092DB031092D4031092CF
:106BD000D5031092D6031092D7030E9458326093C7
:106BE000D0037093D1038093D2039093D303109278
:106BF000CC031092CD031092CE031092CF031092CB
:106C0000C8031092C9031092CA031092CB031092CA
:106C1000C4031092C5031092C6031092C70380915B
:106C2000730B9091740B0E94C72A8091730B909103
:106C3000740BFC01EE5BFF4F1082118212821382F3
:106C4000349610821182128213823496108211823D
:106C5000128213820E9458326093470B7093480B44
:106C60008093490B90934A0B8091730B9091740B16
:106C7000FC01EE5BFF4F4081518162817381409343
:106C8000FF0A5093000B6093010B7093020B349634
:106C900040815181628173814093030B5093040BB7
:106CA0006093050B7093060B349680819181A281CD
:106CB000B3818093070B9093080BA093090BB093BB
:106CC0000A0B1092D60A1092180B0E945832609349
:106CD000E7037093E8038093E9039093EA030E942B
:106CE0005A058091E6038823B9F04091E40350915E
:106CF000E503052E000C660B770B8CEB9CE00E94E5
:106D0000EF276AE08CEB9CE00E94832F8CEB9CE0E9
:106D10000E9473201092E6038091180B882311F4CF
:106D20000C9449438CEB9CE00E948220892B09F44F
:106D30008FC10E947C216B877C878D879E870E94F4
:106D40007C212B013C010E947C214B015C010E94B3
:106D50007C216B017C018CEB9CE00E941D290A9731
:106D600009F076C1EB85FC85F093DB0CE093DA0C3F
:106D70005092E50C4092E40C9092EF0C8092EE0C55
:106D8000D092F90CC092F80C8091E2039091E30349
:106D9000892B11F40C94BF430E94DB218091580D84
:106DA0009091590D892B21F01092590D1092580D88
:106DB00081E00E941C228091AB0B9091AC0B823041
:106DC000910509F4CCC00CF055C0009709F45EC0E1
:106DD000019709F03BC183E090E09093D90C809338
:106DE000D80C80912A0D90912B0D9A8389831B8258
:106DF0001C821D821E828091300D9091310D9887EA
:106E00008F838091320D9091330D9A878987CE01BF
:106E100001960E9402248091340D9091350D9A8341
:106E200089831B821C821D821E8280913A0D909163
:106E30003B0D98878F8380913C0D90913D0D9A87F3
:106E40008987CE0101960E94022480913E0D909187
:106E50003F0D9A8389831B821C821D821E82809132
:106E6000440D9091450D98878F838091460D9091A8
:106E7000470DC2C08330910509F4A4C0049709F0FE
:106E8000E5C01092D90C1092D80CE0C084E090E0DC
:106E90009093D90C8093D80C80912A0D90912B0D52
:106EA0009A8389831B821C821D821E828091300DF1
:106EB0009091310D98878F838091320D9091330D91
:106EC0009A878987CE0101960E9402248091340D11
:106ED0009091350D9A8389831B821C821D821E82AC
:106EE00080913A0D90913B0D98878F8380913C0D56
:106EF00090913D0D9A878987CE0101960E940224C8
:106F000080913E0D90913F0D9A8389831B821C8254
:106F10001D821E828091440D9091450D98878F832C
:106F20008091460D9091470D9A878987CE010196F1
:106F30000E9402248091480D9091490D9A83898383
:106F40001B821C821D821E8280914E0D90914F0DDE
:106F500098878F838091500D9091510D4DC09093E3
:106F6000D90C8093D80C80912A0D90912B0D9A8387
:106F700089831B821C821D821E828091300D90911C
:106F8000310D98878F838091320D9091330D9A87C0
:106F90008987CE0101960E9402248091340D909140
:106FA000350D9A8389831B821C821D821E828091EB
:106FB0003A0D90913B0D98878F8380913C0D909175
:106FC0003D0D1AC081E090E09093D90C8093D80CCD
:106FD00080912A0D90912B0D9A8389831B821C82AC
:106FE0001D821E828091300D9091310D98878F8384
:106FF0008091320D9091330D9A878987CE01019649
:107000000E94022423C0F90132974330510511F444
:107010000C941244329710F00C942F44E091260DFA
:10702000F091270D349711F00C94434483E090E0E5
:107030009093530D8093520D0E9458326093CE0B63
:107040007093CF0B8093D00B9093D10B0E940D23A4
:107050000E94EF11E091D60A8E2F90E0FC0131974B
:10706000E133F10510F00C948A438827EE58FF4F66
:107070008F4F0C94146181E08093110B8093190B56
:107080000E94ED5924E030E040E050E00E941A5D9B
:107090008091910B9091920B8230910521F118F41F
:1070A000019741F02AC08330910581F08430910529
:1070B000D1F023C08091290B882319F083E090E060
:1070C0000BC01092900B10928F0B17C08091290B60
:1070D0008823B9F381E090E09093900B80938F0B1D
:1070E0001092290B0AC02091170B222351F3909381
:1070F000900B80938F0B1092170B6115710559F04F
:1071000077FF02C00C948A436430710514F40C9428
:10711000B6450C948A438091D80C9091D90C039772
:1071200014F40C94B6458091210B81110C94B64552
:107130000E9458320091630B1091640B2091650BF3
:107140003091660BDC01CB01801B910BA20BB30BC2
:1071500081319742A105B10510F40C94B64581E048
:107160008093270B0E9458326093630B7093640BDB
:107170008093650B9093660B0C94B34511E01093CC
:10718000110B10931A0B8091A10B9091A20B90936D
:10719000A00B80939F0BE090520DF090530D21E0D7
:1071A000E216F10411F00C94B9450E945832E091B6
:1071B000750BF091760B87A090A4A1A4B2A4409087
:1071C000570B5090580B6090590B70905A0B840CD1
:1071D000951CA61CB71C681579058A059B0510F43B
:1071E0000C94DC450C94B945049711F00C94AE4610
:1071F0000E945832E091750BF091760B07A510A90B
:1072000021A932A9C0905F0BD090600BE090610B78
:10721000F090620B0C0D1D1D2E1D3F1D6017710798
:107220008207930710F00C94AE4683E090E09093B1
:10723000A20B8093A10B80919F0B9091A00B0397C1
:1072400019F081E08093100B8091100B882331F0AE
:1072500088ED94E00E94E0271092100B0E94C11468
:1072600081E080931E0B0E94EE1C0C948A43809157
:10727000160B882351F08091110B882331F083EB9A
:1072800094E00E94E0271092110B11E01093230B61
:10729000E091750BF091760B168780911A0B811196
:1072A00028C08091190B811109C14091DA0C5091CD
:1072B000DB0C141615060CF077C12091E40C30910C
:1072C000E50C121613060CF06FC18091EE0C909134
:1072D000EF0C181619060CF067C14930510534F04F
:1072E000283031051CF009970CF05EC10E94C114D2
:1072F0005BC180911E0B882309F481C00091E40CCE
:107300001091E50C2091E60C3091E70C4091E80CCF
:107310005091E90C6091EA0C7091EB0C8091EC0CAF
:107320009091ED0C0E943C3320E030E040EA51E4C3
:107330002093D70A3093D80A4093D90A5093DA0A97
:107340004091DA0C5091DB0C141615060CF02CC190
:107350002091E40C3091E50C121613060CF024C1B8
:107360008091EE0C9091EF0C181619060CF01CC1D0
:10737000493051050CF470C0283031050CF46CC054
:1073800009970CF469C0E091730BF091740BEE5BFC
:10739000FF4FC080D180E280F3808090F70A909008
:1073A000F80AA090F90AB090FA0A20E030E040E72D
:1073B00051E4C501B4010E949E5FA70196010E949D
:1073C000F35B87FF07C08091EC0C9091ED0C089760
:1073D0000CF042C020E030E040E351E4C501B401CC
:1073E0000E949E5FA70196010E94F35B87FF2FC05A
:1073F0008091EC0C9091ED0C079774F128C080E01F
:1074000090E0A0EAB1E48093D70A9093D80AA093C1
:10741000D90AB093DA0A8091DA0C9091DB0C181635
:1074200019060CF0C1C00997BCF08091E40C909152
:10743000E50C08978CF08091EE0C9091EF0C099779
:107440005CF08091520D9091530D069729F4809134
:107450000F0B882309F4A8C082E090E090932E0BD4
:1074600080932D0B8091930B9091940B2091950B11
:107470003091960B81309105E1F08330910531F424
:107480002115310519F44AE14093D60A213031051E
:1074900029F4892B09F088C08CE108C0233031051C
:1074A00009F082C0892B09F07FC08BE18093D60A56
:1074B0007BC02115310551F789E1F8CF0E94ED59C4
:1074C00024E030E040E050E00E941A5D7093360BFB
:1074D0006093350B77FD0BC06230710534F064307A
:1074E00071052CF41093200B02C01092200B809198
:1074F000DA0C9091DB0CE090730BF090740B8090A1
:10750000F70A9090F80AA090F90AB090FA0A099741
:107510006CF18091E40C9091E50C08973CF180911E
:10752000EE0C9091EF0C09970CF120E030E04CE864
:1075300052E4C501B4010E94AC6087FD35C0809162
:10754000200B882389F120E030E040EC5FE3C501A7
:10755000B4010E949E5FF701EE5BFF4F20813181F5
:10756000428153810E94F35B1816F4F082E090E0B0
:1075700090932E0B80932D0B8091910B9091920BF9
:107580008130910511F00C94F94889E18093D60A75
:1075900020E030E04CE852E4C501B4010E94AC6048
:1075A00087FD02C00C940049E090730BF090740BBF
:1075B00021ED3FE54DE75EE36091D70A7091D80A6F
:1075C0008091D90A9091DA0A63C18091160B8823C1
:1075D00051F08091110B882331F089EA94E00E94E8
:1075E000E0271092110B1092230BE091750BF09194
:1075F000760B16860E94ED5924E030E040E050E022
:107600000E941A5D7093360B6093350B77FD0CC0AA
:10761000623071053CF06430710534F481E0809390
:10762000200B02C01092200B8091000D9091010D53
:10763000C090F70AD090F80AE090F90AF090FA0AA0
:10764000892B91F18091F80C9091F90C089764F1D5
:1076500020E030E04CE852E4C701B6010E94AC6083
:1076600087FD33C08091200B882379F1E091730B63
:10767000F091740BEE5BFF4F80809180A280B3800D
:10768000B7FAB094B7F8B09420E030E040E05FE3A0
:10769000C701B6010E94595C9B01AC01C501B40150
:1076A0000E94AC6087FD11C020E030E04CE852E45D
:1076B000C701B6010E94AC6087FD05C08091200B18
:1076C00081110C9420490E94C114E090730BF0903A
:1076D000740B8091D70A9091D80AA091D90AB091E1
:1076E000DA0ABC01CD01905821ED3FE54DE75EE39C
:1076F000CFC040E050E002C041E050E060E070E008
:1077000080EF91E438C040E050E002C041E050E03A
:1077100060E070E08CE092E42EC040E050E002C0F7
:1077200041E050E060E070E084E392E424C040E097
:1077300050E002C041E050E060E070E080E792E499
:107740001AC040E050E002C041E050E060E070E06C
:1077500084EB92E410C040E050E002C041E050E011
:1077600060E070E080EF92E406C040E050E060E04E
:1077700070E086E193E40E94241ACCC741E050E017
:10778000F6CF40E050E002C041E050E060E070E041
:1077900084E393E4F0CF40E050E002C041E050E0E9
:1077A00060E070E084EB93E4E6CF40E050E002C09C
:1077B00041E050E060E070E080E090E4DCCF40E049
:1077C00050E060E070E080E490E4D5CF41E050E02C
:1077D000F8CFE090730BF090740B2091FF0A30917A
:1077E000000B4091010B5091020B6091870B70913F
:1077F000880B8091890B90918A0B0E94BB5EF701E8
:10780000EE5BFF4F20813181428153810E94AC6049
:10781000181614F00C94404921ED3FE54DE75EE366
:107820006091F30A7091F40A8091F50A9091F60A3A
:107830002FC0E090730BF090740B2091870B309168
:10784000880B4091890B50918A0B6091FF0A7091CF
:10785000000B8091010B9091020B0E94BA5EF70120
:10786000EE5BFF4F20813181428153810E94F35BA7
:1078700087FD02C00C94404921ED3FE54DE75EE3F2
:107880006091830B7091840B8091850B9091860B96
:107890000E94595CD7016D937D938D939C931397B0
:1078A00020E030E040E050E814962D933D934D9356
:1078B0005C931797DC01CB01B058F7018087918763
:1078C000A287B38727C7A090330BB090340B81E019
:1078D00090E09093940B8093930B1092960B1092E0
:1078E000950B8091160B882371F08091110B8823E2
:1078F00051F06DE372E08AED96E00E948A2F0E94BB
:10790000B0271092110BC12CD12CE12CF12C870146
:1079100020E030E040E45FEB6CE779ED80E29FEB44
:107920000E947A1580912D0B90912E0B813091053C
:1079300009F081C08091190B882319F081E08093B0
:10794000110B81E38093D60AE5C6A090330BB0906B
:10795000340B83E090E09093940B8093930B109200
:10796000960B1092950B8091160B882371F08091E5
:10797000110B882351F067E472E08AED96E00E94D3
:107980008A2F0E94B0271092110BC12CD12CE12C10
:10799000F12C870120E030E040E45FE36CE779ED13
:1079A00080E29FE3BDCF80910B0B90910C0BA091D7
:1079B0000D0BB0910E0B1092940B1092930B21E0D3
:1079C00030E03093960B2093950BBC01CD0190587D
:1079D000A12CB12CC12CD12CE12CF12C870120E061
:1079E00030E040E45FEB1DC060910B0B70910C0B1D
:1079F00080910D0B90910E0B1092940B1092930BA3
:107A000023E030E03093960B2093950BA12CB12C02
:107A1000C12CD12CE12CF12C870120E030E040E496
:107A20005FE30E947A1580912D0B90912E0B81308F
:107A3000910509F486CF029709F06CC60C94404971
:107A40000091DA0C1091DB0C2091DC0C3091DD0CF4
:107A50004091DE0C5091DF0C6091E00C7091E10CD4
:107A60008091E20C9091E30C0E943C336093FB0AFE
:107A70007093FC0A8093FD0A9093FE0A20E030E0A8
:107A800040EA51E42093D70A3093D80A4093D90AA8
:107A90005093DA0A27ED33EB4DE55FE30E94595C22
:107AA0004B015C016093F70A7093F80A8093F90A1E
:107AB0009093FA0A8091DA0C9091DB0C079714F4FA
:107AC0000C9443494090030B5090040B6090050BBD
:107AD0007090060BE091730BF091740BEA5BFF4F13
:107AE000C080D180E280F38020E030E0A901C701AE
:107AF000B6010E94AC60181624F0F7FAF094F7F87B
:107B0000F094A7019601C301B2010E94BB5E9B01E4
:107B1000AC01C501B4010E94AC6087FD02C00C94A9
:107B200043490C943D490091EE0C1091EF0C2091CB
:107B3000F00C3091F10C4091F20C5091F30C6091EB
:107B4000F40C7091F50C8091F60C9091F70C0E945A
:107B50003C336093FB0A7093FC0A8093FD0A909378
:107B6000FE0A20E030E040EA51E42093D70A309347
:107B7000D80A4093D90A5093DA0A27ED33EB4DE542
:107B80005FE30E94595C4B015C016093F70A7093BC
:107B9000F80A8093F90A9093FA0A8091DA0C90918E
:107BA000DB0C079714F40C944F494090030B509052
:107BB000040B6090050B7090060BE091730BF09135
:107BC000740BEA5BFF4FC080D180E280F38020E03D
:107BD00030E0A901C701B6010E94AC60181624F07C
:107BE000F7FAF094F7F8F094A7019601C301B201F7
:107BF0000E94BB5E9B01AC01C501B4010E94AC6058
:107C000087FD02C00C944F490C943D490091DA0C59
:107C10001091DB0C2091DC0C3091DD0C4091DE0CDE
:107C20005091DF0C6091E00C7091E10C8091E20CBE
:107C30009091E30C0E943C336B017C010091E40CB9
:107C40001091E50C2091E60C3091E70C4091E80C86
:107C50005091E90C6091EA0C7091EB0C8091EC0C66
:107C60009091ED0C0E943C334B015C01C701B601C1
:107C70000E9410606B017C01C501B4010E9410607C
:107C80006C157D050CF46B01B601DD0C880B990BAE
:107C90000E94FA5B4B015C016093F70A7093F80A4B
:107CA0008093F90A9093FA0A80E090E0A0EAB1E4A8
:107CB0008093D70A9093D80AA093D90AB093DA0A8E
:107CC0008091DA0C9091DB0C079714F40C947D49A9
:107CD0008091E40C9091E50C079714F40C947D4985
:107CE0004090030B5090040B6090050B7090060BB6
:107CF000E091730BF091740BEA5BFF4FC080D18071
:107D0000E280F38020E030E0A901C701B6010E94C3
:107D1000AC60181624F0F7FAF094F7F8F094A70185
:107D20009601C301B2010E94BB5E9B01AC01C5017B
:107D3000B4010E94AC6087FD02C00C947D490C9494
:107D40003D490091DA0C1091DB0C2091DC0C309154
:107D5000DD0C4091DE0C5091DF0C6091E00C7091D5
:107D6000E10C8091E20C9091E30C0E943C336B019A
:107D70007C010091EE0C1091EF0C2091F00C3091F1
:107D8000F10C4091F20C5091F30C6091F40C709155
:107D9000F50C8091F60C9091F70C0E943C334B014E
:107DA0005C01C701B6010E9410606B017C01C50136
:107DB000B4010E9410606C157D050CF46B01B601D6
:107DC000DD0C880B990B0E94FA5B4B015C01609300
:107DD000F70A7093F80A8093F90A9093FA0A20E060
:107DE00030E040EA51E42093D70A3093D80A409318
:107DF000D90A5093DA0A8091E40C9091E50C079728
:107E000014F40C948A498091EE0C9091EF0C079732
:107E100014F40C948A494090030B5090040B60902A
:107E2000050B7090060BE091730BF091740BEA5BFD
:107E3000FF4FC080D180E280F38020E030E0A901D4
:107E4000C701B6010E94AC60181624F0F7FAF0944E
:107E5000F7F8F094A7019601C301B2010E94BB5E3E
:107E60009B01AC01C501B4010E94AC6087FD02C05A
:107E70000C948A490C943D490091020D1091030D18
:107E80002091040D3091050D4091060D5091070D84
:107E90006091080D7091090D80910A0D90910B0D64
:107EA0000E943C336B017C010091DA0C1091DB0CD9
:107EB0002091DC0C3091DD0C4091DE0C5091DF0CF8
:107EC0006091E00C7091E10C8091E20C9091E30CD8
:107ED0000E943C334B015C01C701B6010E94106057
:107EE0006B017C01C501B4010E9410606C157D0519
:107EF0000CF46B01B601DD0C880B990B0E94FA5B48
:107F00004B015C016093F70A7093F80A8093F90AB9
:107F10009093FA0A80E090E0A0EAB1E48093D70A57
:107F20009093D80AA093D90AB093DA0A8091DA0C18
:107F30009091DB0C079714F40C9493498091F80C02
:107F40009091F90C079714F40C9493494090030B0B
:107F50005090040B6090050B7090060BE091730B32
:107F6000F091740BEA5BFF4FC080D180E280F38018
:107F700020E030E0A901C701B6010E94AC601816EC
:107F800024F0F7FAF094F7F8F094A7019601C301F2
:107F9000B2010E94BB5E9B01AC01C501B4010E940D
:107FA000AC6087FD02C00C9493490C943D4900914C
:107FB000020D1091030D2091040D3091050D40919B
:107FC000060D5091070D6091080D7091090D80917B
:107FD0000A0D90910B0D0E943C336B017C010091C6
:107FE000EE0C1091EF0C2091F00C3091F10C4091BF
:107FF000F20C5091F30C6091F40C7091F50C80919F
:10800000F60C9091F70C0E943C334B015C01C701C8
:10801000B6010E9410606B017C01C501B4010E9491
:1080200010606C157D050CF46B01B601DD0C880B3E
:10803000990B0E94FA5B4B015C016093F70A709305
:10804000F80A8093F90A9093FA0A20E030E040EAB7
:1080500051E42093D70A3093D80A4093D90A509319
:10806000DA0A8091EE0C9091EF0C079714F40C94BF
:108070009E498091F80C9091F90C079714F40C9498
:108080009E494090030B5090040B6090050B70903C
:10809000060BE091730BF091740BEA5BFF4FC0800D
:1080A000D180E280F38020E030E0A901C701B60171
:1080B0000E94AC60181624F0F7FAF094F7F8F094E8
:1080C000A7019601C301B2010E94BB5E9B01AC01F6
:1080D000C501B4010E94AC6087FD02C00C949E49AA
:1080E0000C943D4980911D0B882349F040908B0BE7
:1080F00050908C0B60908D0B70908E0B06C0412CB5
:10810000512C50E4652E5FE3752E81E08093180BAF
:10811000A12CB12CC12CD12CE12CF12C8701A30175
:10812000920166EA72E98BE29DE30E947A15D3011F
:10813000C201B0588B879C87AD87BE87CC24C3947F
:10814000D12C9C01AD0166EA72E98BE29DE30E94AD
:108150007A1532E0C32ED12CA301920166EA72E9AE
:108160008BE29DE30E947A1543E0C42ED12C2B852F
:108170003C854D855E8566EA72E98BE29DE3AAC186
:1081800081E08093180B20E030E042E050E060E0B6
:1081900070E080E090E40E94B01821E030E043E01D
:1081A00050E060E070E080E090E40E94B01822E0CF
:1081B00030E042E050E060E070E080E090E40E9457
:1081C000B01823E030E043E050E060E070E080E091
:1081D00090E40E94B01880C180911D0B882389F023
:1081E00080918B0B90918C0BA0918D0BB0918E0B8D
:1081F0008093E70A9093E80AA093E90AB093EA0A09
:108200000CC020E030E040E050E42093E70A3093D7
:10821000E80A4093E90A5093EA0A80912D0B909165
:108220002E0B892BA1F4E091730BF091740B80E07D
:1082300090E0A0E0B0E482AF93AFA4AFB5AF80E030
:1082400090E0A0ECBFE386AB97ABA0AFB1AF2091BD
:10825000E70A3091E80A4091E90A5091EA0AA12C14
:10826000B12CC12CD12CE12CF12C870167E37DE8E6
:1082700087EA90E40E947A158091E70A9091E80AD3
:10828000A091E90AB091EA0A9C01AD015058CC24B2
:10829000C394D12C6CE779ED80E290E40E947A15CA
:1082A0002091E70A3091E80A4091E90A5091EA0AE0
:1082B000A2E0CA2ED12C6CE779ED80EA9FE30E9400
:1082C0007A158091E70A9091E80AA091E90AB091A5
:1082D000EA0A9C01AD015058B3E0CB2ED12C6CE7DB
:1082E00079ED80E29FE30E947A1580912D0B9091A9
:1082F0002E0B049709F00EC2E091730BF091740BF2
:1083000026E636E646E65FE322AF33AF44AF55AF2D
:1083100083E393E3A3E3BFE386AB97ABA0AFB1AF37
:10832000AFC780911D0B882389F080918B0B9091B2
:108330008C0BA0918D0BB0918E0B8093E70A9093DC
:10834000E80AA093E90AB093EA0A0CC020E030E002
:1083500040E45FE32093E70A3093E80A4093E90A98
:108360005093EA0A81E08093180B20E030E040E06F
:1083700050E060E070E080E591E40E94B01821E0F8
:1083800030E041E050E060E070E080E591E40E9480
:10839000B01822E030E040E050E060E070E080E5BE
:1083A00091E40E94B01823E030E041E050E060E04A
:1083B00070E080E591E40E94B01824E030E040E0F5
:1083C00050E060E070E080E591E40E94B01825E0A4
:1083D00030E041E050E060E070E080E591E40E9430
:1083E000B0182091E70A3091E80A4091E90A5091CB
:1083F000EA0AA12CB12CE6E0CE2ED12CE12CF12CF6
:1084000087016BED7FE089E490E40E947A1527E014
:1084100030E042E050E060E070E080E890E40E94EC
:10842000B01880912D0B90912E0B089709F072C116
:1084300027C780911D0B882349F080918B0B909169
:108440008C0BA0918D0BB0918E0B04C080E090E05E
:10845000A0E8BFE38093E70A9093E80AA093E90AB3
:10846000B093EA0A81E08093180B2091E70A3091DB
:10847000E80A4091E90A5091EA0AA12CB12CC12CDA
:10848000D12CE12CF12C870162E97AE086E09EE3B1
:108490000E947A152091E70A3091E80A4091E90A92
:1084A0005091EA0AAA24A394B12C62E97AE086E00A
:1084B0009EE30E947A152091E70A3091E80A4091E4
:1084C000E90A5091EA0A72E0A72EB12C62E97AE03B
:1084D00086E09EE30E947A1580912D0B90912E0BE1
:1084E000049709F017C1CCC680911D0B882349F071
:1084F00040908B0B50908C0B60908D0B70908E0B7E
:1085000006C0412C512C30EC632E3FE3732E81E0EA
:108510008093180BA12CB12CC12CD12C1AE9E12E7F
:1085200019E9F12E09ED1FE3A301920162E97AE056
:1085300086E89FE30E947A15CC24C394D12C16E6DA
:10854000E12EFE2C06EE1FE3A301920162E97AE020
:1085500086E89FE30E947A1572E0C72ED12C13E3C0
:10856000E12EFE2C03E110E4A30192016BED7FE00C
:1085700089E49FE30E947A15F3E0CF2ED12C1DEC05
:10858000E12E1CECF12E0CEC1EE3A30192016BED2D
:108590007FE089E49FE30E947A15B4E0CB2ED12CD2
:1085A00013E3E12EFE2C03EF1FE3A30192016CE71E
:1085B00079ED80E29FE30E947A1595E0C92ED12CD7
:1085C000E12CF12C00EC1FE3A30192016CE779EDA3
:1085D00080E29FE30E947A1580912D0B90912E0BE3
:1085E000069709F097C04CC680911D0B882349F06F
:1085F00040908B0B50908C0B60908D0B70908E0B7D
:1086000006C0412C512C30EC632E3FE3732E81E0E9
:108610008093180BA12CB12CC12CD12CE12CF12C66
:108620008701A30192016BED7FE089EC9FE30E943B
:108630007A15A301920150582B873C874D875E879E
:10864000CC24C394D12C6BED7FE089EC9FE30E9496
:108650007A1592E0C92ED12CA30192016BED7FE037
:1086600089EC9FE30E947A1523E0C22ED12C2B8542
:108670003C854D855E856BED7FE089EC9FE30E9434
:108680007A1580912D0B90912E0B059709F042C021
:10869000F7C580911B0B8823C9F120E030E040EC46
:1086A0005FE36091E70A7091E80A8091E90A90918E
:1086B000EA0A0E94595C6B017C0120E030E04CE545
:1086C00052E46091E30A7091E40A8091E50A909186
:1086D000E60A0E94595C4B015C0120E030E04CE569
:1086E00052E46091DF0A7091E00A8091E10A909172
:1086F000E20A0E94595CAB01BC019501840188E14A
:108700009CE00E94D52A0E94EF1104C088E19CE001
:108710000E94502C80911F0B882369F18091180BC7
:10872000811129C08091FC06882329F10E945832CA
:108730006093EB037093EC038093ED039093EE034F
:108740006B017C0138EEC30E33E0D31EE11CF11C3B
:108750000E9458326C157D058E059F05C8F383B7BE
:10876000817F846083BFF89483B7816083BF8895DD
:1087700083B78E7F83BF0E94D7290C9465360E94F1
:10878000DB2180E00E941C2280910A0D90910B0D4C
:108790006091140D7091150D20911E0D30911F0DDB
:1087A0008617970731F48217930719F022E030E01B
:1087B00017C08217930731F48617970761F023E0FB
:1087C00030E00EC08617970779F06217730731F40F
:1087D00024E030E005C025E030E002C021E030E0D8
:1087E00030935C0D20935B0D4091520D5091530DD1
:1087F0005093D70B4093D60B2091DA0C3091DB0CC1
:10880000263031051CF481E090E092C12091AB0B41
:108810003091AC0B2430310511F00C94033882E018
:1088200090E086C1329790F0E091E20CF091E30C79
:10883000329764F5E091EC0CF091ED0C329734F541
:10884000E091F60CF091F70C329704F5E091260DCB
:10885000F091270D3497D1F483E090E069C1E09165
:10886000E20CF091E30C339774F4E091EC0CF0918E
:10887000ED0C339744F4E091F60CF091F70C33973C
:1088800014F40C940E3844305105B1F12130310507
:10889000E1F0E091E20CF091E30C33970CF457C057
:1088A000E091EC0CF091ED0C33970CF450C0E0919A
:1088B000F60CF091F70C33970CF449C0E091000DE1
:1088C000F091010D33970CF042C0E091080DF0914A
:1088D000090DE430F105D9F5F093530DE093520DF5
:1088E0000E9458326093D20B7093D30B8093D40BB9
:1088F0009093D50B0C94263821303105D9F0E091B6
:10890000E20CF091E30C33970CF44EC0E091EC0CC8
:10891000F091ED0C33970CF447C0E091F60CF09118
:10892000F70C33970CF440C0E091000DF091010D6D
:108930003397D4F5E091080DF091090DE430F1057D
:1089400099F5F093530DE093520D0C942638413075
:108950005105D9F4121613063CF02115310521F505
:10896000FC013297349700F121E030E03093530D51
:108970002093520D02972CF481E08093B00B0C945D
:1089800026381092B00B0C9426384330510561F410
:10899000121613060CF460CF2115310529F4FC01E1
:1089A0003297369708F058CFE091B10BEE2389F05B
:1089B00012161306CCF2232B79F59C0122503109B3
:1089C0002930310588F6625071096930710508F166
:1089D000CBCF4130510501F1121613062CF0232B99
:1089E000D9F402970497C0F081E090E09093530D82
:1089F0008093520D0E9458326093CA0B7093CB0B38
:108A00008093CC0B9093CD0B80910A0D90910B0D20
:108A1000B1CF4130510529F78091080D9091090D92
:108A200081309105B9F46091120D7091130D62308F
:108A3000710561F520910C0D30910D0DE091020D45
:108A4000F091030D2E1B3F0B2A303105FCF486E01C
:108A500090E06EC082309105D1F38330910509F02A
:108A60007BC46091120D7091130D6230710591F409
:108A700020910C0D30910D0DE091020DF091030D40
:108A80002E1B3F0B2A3031052CF4E1CF63307105EA
:108A9000A1F403C06130710559F520910C0D30919E
:108AA0000D0D6091020D7091030D261B370B2A30BE
:108AB00031056CF281309105C1F48091120D9091D5
:108AC000130D039751F580910C0D90910D0D209190
:108AD000020D3091030D821B930B4097F4F44A3042
:108AE0005105D9F48AE090E023C083309105C1F4A8
:108AF0008091120D9091130D0197A1F780910C0DAB
:108B000090910D0D2091020D3091030D821B930B5E
:108B1000409744F74730510529F787E090E008C0B7
:108B200084309105D9F44130510541F485E090E05D
:108B30009093530D8093520D0C9426388091120D12
:108B40009091130D8130910541F38230910509F424
:108B50007ECF039711F00C942638C4CF029711F002
:108B60000C94263874CF0E94AE32D4CD0E94FE24DD
:108B7000D1CD8091520D9091530D019709F031C2E2
:108B80000E945832E091750BF091760B07A110A569
:108B900021A532A5C090570BD090580BE090590BEF
:108BA000F0905A0B0C0D1D1D2E1D3F1D60177107F7
:108BB0008207930788F515C2F092A20BE092A10BF1
:108BC00080919F0B9091A00B019711F01093100BC7
:108BD0008091160B8823D9F08091100B8823B9F06F
:108BE0008CEE94E00E94E0270E94ED5923E030E0F3
:108BF00040E050E00E941A5DDC01CB010296A11D0D
:108C0000B11D9093420B8093410B1092100B109268
:108C1000300B10922F0B34C311E010930F0B82E036
:108C200090E09093A20B8093A10B8091730B909195
:108C3000740B0E94C72A8091730B9091740BFC01F6
:108C4000EE5BFF4F108211821282138234961082E3
:108C50001182128213823496108211821282138240
:108C600080EE94E00E94E02780912F0B9091300BD2
:108C700001969093300B80932F0B1092340B10922F
:108C8000330B0E94ED5922E030E040E050E00E94BA
:108C90001A5D7B010E94ED590E94ED5922E93AE0EC
:108CA00046E050E420930B0B30930C0B40930D0BDC
:108CB00050930E0B10931E0B22E030E040E050E08A
:108CC0000E941A5D672B11F41093220BE091750B33
:108CD000F091760B8585882369F00E945832E091E7
:108CE000750BF091760B67A370A781A792A71092DE
:108CF0000F0B30C020912F0B3091300B8091410B26
:108D00009091420B2817390729F510920F0B1092FA
:108D1000300B10922F0B0E945832E091750BF0919E
:108D2000760B67A370A781A792A76AE272E08AED2B
:108D300096E00E948A2FE091750BF091760B47A187
:108D400050A561A572A52AE08AED96E00E949F2FAA
:108D50000E94B027EF2809F041C1F9C0E090520D00
:108D6000F090530D34E0E316F104E1F40E94583220
:108D7000E091750BF091760B07A510A921A932A9F6
:108D800080905F0B9090600BA090610BB090620B95
:108D9000080D191D2A1D3B1D06171707280739073F
:108DA00008F435C18091520D9091530D0397E1F471
:108DB0000E945832E091750BF091760B03A514A533
:108DC00025A536A5C0905B0BD0905C0BE0905D0BA9
:108DD000F0905E0B0C0D1D1D2E1D3F1D60177107C1
:108DE0008207930708F43AC18091520D9091530D78
:108DF000039709F04EC10E945832E091750BF09133
:108E0000760B03A514A525A536A5C0905B0BD090C5
:108E10005C0BE0905D0BF0905E0B0C0D1D1D2E1D8C
:108E20003F1D061717072807390708F032C186E0EB
:108E300090E09093A20B8093A10B8091730B909183
:108E4000740B0E94C72A8091730B9091740BFC01E4
:108E5000EE5BFF4F108211821282138234961082D1
:108E6000118212821382349610821182128213822E
:108E70002091A10B3091A20B80919F0B9091A00BA0
:108E80002817390719F081E08093100B8091100B9F
:108E9000882331F08EEB94E00E94E0271092100BB3
:108EA0001092340B1092330B0E94ED5922E030E007
:108EB00040E050E00E941A5D6B010E94ED5923E0F2
:108EC00030E040E050E00E941A5D7B010E94ED59C5
:108ED00022E030E040E050E00E941A5D672B19F07C
:108EE00081E08093220B82E99AE0A6E0B0E48093CF
:108EF0000B0B90930C0BA0930D0BB0930E0B0E94D9
:108F00005832E091750BF091760B63A774A785A793
:108F100096A791E0E916F10409F459C1A2E0EA1616
:108F2000F10409F459C1EF2861F422E93AE046E07E
:108F300050E420930B0B30930C0B40930D0B50938C
:108F40000E0B81E080931E0BCD2809F047C08CE109
:108F50000C94A23C8530910509F0B0C08BE090E004
:108F60009093A20B8093A10B8091730B9091740B43
:108F70000E94C72A8091730B9091740BFC01E65BF1
:108F8000FF4F108211821282138238971082118251
:108F900012821382349610821182128213821092EE
:108FA000300B10922F0B0E94ED590BED1FE029E4BE
:108FB00030E400930B0B10930C0B20930D0B3093AC
:108FC0000E0B1092340B1092330B22E030E040E095
:108FD00050E00E941A5D672B09F4B9CF8BE10C9425
:108FE000A23C8091520D9091530D8230910511F069
:108FF0000C94F43887E090E09093A20B8093A10B3F
:109000001092300B10922F0B0E94642483CBF092AD
:10901000A20BE092A10B80919F0B9091A00B049763
:1090200019F081E08093100B8091100B882331F0B0
:109030008EEC94E00E94E0271092100B81E0809368
:109040001E0B0E94EE1C0E945832E091750BF091AD
:10905000760B67A770AB81AB92AB5CCB86E090E000
:109060009093A20B8093A10B80919F0B9091A00BEA
:10907000069719F081E08093100B8091100B8823E4
:1090800009F4FEC086EC94E00E94E0271092100BD9
:10909000F7C08091520D9091530D8630910509F0E3
:1090A00059CF89E090E09093A20B8093A10B10928E
:1090B000300B10922F0B81E00C94A23C873091056D
:1090C000E9F48AE090E09093A20B8093A10B1092B8
:1090D000300B10922F0B81E090E09093340B809333
:1090E000330B0E9458326093670B7093680B809328
:1090F000690B90936A0B89E10C94A23C8A3091052C
:1091000031F588E090E09093A20B8093A10B109230
:10911000300B10922F0B80919F0B9091A00B089712
:1091200019F081E08093100B81E090E09093340B74
:109130008093330B0E9458326093670B7093680BD7
:109140008093690B90936A0B8AE10C94A23C88305F
:10915000910589F41092300B10922F0B8AEF98EC46
:10916000A5EEBEE380930B0B90930C0BA0930D0B1D
:10917000B0930E0BECCE8930910589F41092300B30
:1091800010922F0B2BED3FE049EC5EE320930B0B8D
:1091900030930C0B40930D0B50930E0B1FCF8B3065
:1091A000910589F41092300B10922F0B8AEF98ECF6
:1091B000A5EEBEE380930B0B90930C0BA0930D0BCD
:1091C000B0930E0B0BCF0C9709F0A4CAD7CF87E34F
:1091D0009DE8A7E2B0E404C08BED9FE0A9E4B0E411
:1091E00080930B0B90930C0BA0930D0BB0930E0B75
:1091F000A8CE039711F00C94C83A8AE10C94C63AB1
:109200008091200B882311F40C94D43A20E030E0B4
:1092100040EC5FE3C501B4010E949E5FF701EE5B85
:10922000FF4F20813181428153810E94F35B1816E8
:1092300014F40C94D43A81E08093170B0C94D43A34
:1092400020E030E040EC5FE3C701B6010E949E5F82
:10925000E091730BF091740BEE5BFF4F2081318135
:10926000428153810E94F35B181614F40C94633B03
:1092700081E08093170B0C94633B81E080931C0B7F
:109280000E94C11447CA80911C0B8823B9F020E0CA
:1092900030E0A90160E070E080E89FEB0BC08091B6
:1092A0001C0B882359F020E030E0A90160E070E059
:1092B00080E89FE30E94B91710921C0BC090E70A48
:1092C000D090E80AE090E90AF090EA0A0091E30AF7
:1092D0001091E40A2091E50A3091E60A4091DF0AF4
:1092E0005091E00A6091E10A7091E20A8091730B5B
:1092F0009091740B0E94D52A0DCA80911C0B882373
:10930000E9F220E030E040E05FE360E070E080E020
:109310009FEBD0CF80911C0B882381F220E030E0BE
:1093200040E05FE308C080911C0B882339F220E005
:1093300030E040E05FEBCA01B901BCCF80911C0B6B
:10934000882309F4BBCF20E030E040E05FEB60E031
:1093500070E080E09FE3AECF049709F4E4CB0C9477
:109360002638EDE6F0E00C945D35823109F466C0F4
:10937000B8F4823069F1833009F073C0709301044E
:10938000609300048DEF90E19093600D80935F0DEA
:1093900080916A00837F846080936A00ED9A5FC049
:1093A000843141F1C8F1853109F05BC07093030449
:1093B0006093020487EF90E19093620D8093610DBA
:1093C000809169008C7F816080936900E89A47C032
:1093D0007093FF036093FE0383E091E190935E0D31
:1093E00080935D0D80916A008C7F816080936A001C
:1093F000EC9A35C0709305046093040481EF90E10A
:109400009093640D8093630D80916900837F8460E5
:1094100080936900E99A23C070930704609306045F
:109420008BEE90E19093660D8093650D80916900BD
:109430008F7C806180936900EA9A11C0709309045F
:109440006093080485EE90E19093680D8093670D1A
:10945000809169008F73806480936900EB9A81E04A
:10946000089580E008950F931F93CF93DF93EC014D
:10947000062F142F62E0802F0E946F3062E0812F50
:109480000E946F30802F90E0FC01EB5AF64FE49180
:10949000F0E0EE0FFF1FEF5DF64FA591B491B98399
:1094A000A883FC01E556F64F24912C83812F90E090
:1094B000FC01EB5AF64FE491F0E0EE0FFF1FEF5D79
:1094C000F64F459154915B834A83FC01E556F64F74
:1094D00094919D831F82188619861A86EAE3FFE11C
:1094E0003197F1F7EC91E22331E009F430E0DA0151
:1094F000EC91E92309F032603E83BE01802F0E9487
:10950000B5498B87BE01812F0E94B5499B85890F84
:109510008B87DF91CF911F910F9108954F925F92AA
:109520006F927F928F929F92AF92BF92CF92DF9273
:10953000EF92FF920F931F93CF93DF938091360AA0
:10954000882309F485C01092360A0091970B109178
:10955000980BC091990BD0919A0BC090830BD0902F
:10956000840BE090850BF090860B80908B0B909095
:109570008C0BA0908D0BB0908E0B4090870B509071
:10958000880B6090890B70908A0B69E777E08AED11
:1095900096E00E94C22742E0C301B2010E94212846
:1095A00067E777E08AED96E00E94C22764E677E0FD
:1095B0008AED96E00E94C22742E0C501B4010E94F4
:1095C000212862E677E08AED96E00E94C22760E5F6
:1095D00077E08AED96E00E94C22742E0C701B6011B
:1095E0000E9421286EE477E08AED96E00E94C2276F
:1095F00064E477E08AED96E00E94C227BE018AED1E
:1096000096E00E948A2F62E477E08AED96E00E945D
:10961000C22764E377E08AED96E00E94C227B80192
:109620008AED96E00E948A2F82E397E0DF91CF9146
:109630001F910F91FF90EF90DF90CF90BF90AF9070
:109640009F908F907F906F905F904F900C94E02749
:10965000DF91CF911F910F91FF90EF90DF90CF900E
:10966000BF90AF909F908F907F906F905F904F9042
:1096700008950F931F93CF93DF932091360A2223EF
:1096800009F482C0EC011092360A0E9458326093AD
:10969000D8037093D9038093DA039093DB03C1302E
:1096A000D105F9F06CF4209791F562EC76E08AED43
:1096B00096E00E94C22780EC96E00E94E02734C02A
:1096C000C230D105C9F0C330D10509F56EEC76E0A2
:1096D0008AED96E00E94C2278CEC96E00E94E0277B
:1096E00032C06AEE76E08AED96E00E94C22788EEEC
:1096F00096E00E94E0271DC06BED76E08AED96E0D3
:109700000E94C22789ED96E00E94E02717C0C13071
:10971000D10579F01CF4CD2BF1F406C0C230D1058F
:1097200069F02397C1F40FC040E050E06FEF70E0A4
:109730000EC040E05FEF60E070E009C040E05FEF26
:109740006FEF70E004C04FEF50E060E070E08CEF2E
:109750009BE00E9409580E9458320091D803109152
:10976000D9032091DA033091DB030450174F2F4FB8
:109770003F4F601771078207930768F3DF91CF911E
:109780001F910F910C94A656DF91CF911F910F91CD
:10979000089581309105D1F05CF4892B51F568E78B
:1097A00076E08AED96E00E94C22786E796E01FC029
:1097B00082309105A1F00397E1F46AE876E08AED42
:1097C00096E00E94C22788E896E011C06FEA76E032
:1097D0008AED96E00E94C2278DEA96E008C06CE907
:1097E00076E08AED96E00E94C2278AE996E00E9420
:1097F000E0270E94ED5922E030E040E050E00E9476
:109800001A5D7093020C6093010C22E330E040E09B
:1098100050E06FEF70E08CEF9BE00E94F3580E94E5
:10982000A65622E330E040E050E06FEF70E08CEFAE
:109830009BE00E94F3580E94A65622E330E040E0ED
:1098400050E06FEF70E08CEF9BE00E94F3580C94B7
:10985000A6569091360A992391F11092360A8111F9
:1098600016C060E576E08AED96E00E94C2276BE3C1
:1098700072E08AED96E00E948A2F40E050E0BA0143
:109880008AED96E00E94EF278EE496E016C064E62B
:1098900076E08AED96E00E94C2276BE372E08AEDE3
:1098A00096E00E948A2F41E050E060E070E08AED8F
:1098B00096E00E94EF2782E696E00C94E027089558
:1098C000CF92DF92EF92FF920F931F936B017C0177
:1098D0000E9458326093FC0B7093FD0B8093FE0B3B
:1098E0009093FF0B0E9458320091FC0B1091FD0BDE
:1098F0002091FE0B3091FF0B0E5C1F4F2F4F3F4FFF
:10990000601771078207930768F3A701960160E06B
:1099100070E08CEF9BE00E9494578CEF9BE00E94DC
:10992000D32C0E9458326093FC0B7093FD0B8093F4
:10993000FE0B9093FF0B0E9458320091FC0B10918C
:10994000FD0B2091FE0B3091FF0B0E5C1F4F2F4F34
:109950003F4F601771078207930768F3A7019601CD
:1099600063E070E08CEF9BE00E9494578CEF9BE0EB
:109970000E94D32C0E9458326093FC0B7093FD0B15
:109980008093FE0B9093FF0B0E9458320091FC0BCA
:109990001091FD0B2091FE0B3091FF0B0E5C1F4FC1
:1099A0002F4F3F4F601771078207930768F3A70196
:1099B000960166E070E08CEF9BE00E9494578CEF7C
:1099C0009BE00E94D32C0E9458326093FC0B709352
:1099D000FD0B8093FE0B9093FF0B0E945832009179
:1099E000FC0B1091FD0B2091FE0B3091FF0B0E5CD8
:1099F0001F4F2F4F3F4F601771078207930768F380
:109A0000A701960169E070E08CEF9BE00E949457FB
:109A10008CEF9BE00E94D32C0E9458326093FC0B89
:109A20007093FD0B8093FE0B9093FF0B0E945832B6
:109A30000091FC0B1091FD0B2091FE0B3091FF0B60
:109A40000E5C1F4F2F4F3F4F601771078207930720
:109A500068F3A70196016CE070E08CEF9BE00E9438
:109A600094578CEF9BE00E94D32C0E945832609355
:109A7000FC0B7093FD0B8093FE0B9093FF0B0E94E9
:109A800058320091FC0B1091FD0B2091FE0B309190
:109A9000FF0B0E5C1F4F2F4F3F4F60177107820760
:109AA000930768F3A70196016FE070E08CEF9BE0ED
:109AB0000E9494578CEF9BE00E94D32C0E94583256
:109AC0006093FC0B7093FD0B8093FE0B9093FF0B48
:109AD0000E9458320091FC0B1091FD0B2091FE0B5F
:109AE0003091FF0B0E5C1F4F2F4F3F4F60177107D8
:109AF0008207930768F3A701960162E170E08CEF9B
:109B00009BE00E9494578CEF9BE00E94D32C0E9414
:109B100058326093FC0B7093FD0B8093FE0B909377
:109B2000FF0B0E9458320091FC0B1091FD0B20910D
:109B3000FE0B3091FF0B0E5C1F4F2F4F3F4F6017F6
:109B400071078207930768F3A701960165E170E04A
:109B50008CEF9BE00E9494578CEF9BE00E94D32CEB
:109B60000E9458326093FC0B7093FD0B8093FE0BA8
:109B70009093FF0B0E9458320091FC0B1091FD0B4B
:109B80002091FE0B3091FF0B0E5C1F4F2F4F3F4F6C
:109B9000601771078207930768F3A701960168E1D0
:109BA00070E08CEF9BE00E9494578CEF9BE00E944A
:109BB000D32C0E9458326093FC0B7093FD0B809362
:109BC000FE0B9093FF0B0E9458320091FC0B1091FA
:109BD000FD0B2091FE0B3091FF0B0E5C1F4F2F4FA2
:109BE0003F4F601771078207930768F3A70196013B
:109BF0006BE170E08CEF9BE00E9494578CEF9BE050
:109C00000E94D32C0E9458326093FC0B7093FD0B82
:109C10008093FE0B9093FF0B0E9458320091FC0B37
:109C20001091FD0B2091FE0B3091FF0B0E5C1F4F2E
:109C30002F4F3F4F601771078207930768F3A70103
:109C400096016EE170E08CEF9BE00E9494578CEFE0
:109C50009BE00E94D32C0E9458326093FC0B7093BF
:109C6000FD0B8093FE0B9093FF0B0E9458320091E6
:109C7000FC0B1091FD0B2091FE0B3091FF0B0E5C45
:109C80001F4F2F4F3F4F601771078207930768F3ED
:109C9000A701960161E270E08CEF9BE00E9494576F
:109CA0008CEF9BE00E94D32C0E9458326093FC0BF7
:109CB0007093FD0B8093FE0B9093FF0B0E94583224
:109CC0000091FC0B1091FD0B2091FE0B3091FF0BCE
:109CD0000E5C1F4F2F4F3F4F60177107820793078E
:109CE00068F3A701960164E270E08CEF9BE00E94AC
:109CF00094578CEF9BE00E94D32C0E9458326093C3
:109D0000FC0B7093FD0B8093FE0B9093FF0B0E9456
:109D100058320091FC0B1091FD0B2091FE0B3091FD
:109D2000FF0B0E5C1F4F2F4F3F4F601771078207CD
:109D3000930768F3A701960167E270E08CEF9BE060
:109D40000E9494578CEF9BE00E94D32C0E945832C3
:109D50006093FC0B7093FD0B8093FE0B9093FF0BB5
:109D60000E9458320091FC0B1091FD0B2091FE0BCC
:109D70003091FF0B0E5C1F4F2F4F3F4F6017710745
:109D80008207930768F3A70196016AE270E08CEFFF
:109D90009BE00E9494578CEF9BE00E94D32C0E9482
:109DA00058326093FC0B7093FD0B8093FE0B9093E5
:109DB000FF0B0E9458320091FC0B1091FD0B20917B
:109DC000FE0B3091FF0B0E5C1F4F2F4F3F4F601764
:109DD00071078207930768F3A70196016DE270E0AF
:109DE0008CEF9BE00E9494578CEF9BE00E94D32C59
:109DF0000E9458326093FC0B7093FD0B8093FE0B16
:109E00009093FF0B0E9458320091FC0B1091FD0BB8
:109E10002091FE0B3091FF0B0E5C1F4F2F4F3F4FD9
:109E2000601771078207930768F3A701960160E343
:109E300070E08CEF9BE00E9494578CEF9BE00E94B7
:109E4000D32C0E9458326093FC0B7093FD0B8093CF
:109E5000FE0B9093FF0B0E9458320091FC0B109167
:109E6000FD0B2091FE0B3091FF0B0E5C1F4F2F4F0F
:109E70003F4F601771078207930768F3A7019601A8
:109E800063E370E08CEF9BE00E9494578CEF9BE0C3
:109E90000E94D32C0E9458326093FC0B7093FD0BF0
:109EA0008093FE0B9093FF0B0E9458320091FC0BA5
:109EB0001091FD0B2091FE0B3091FF0B0E5C1F4F9C
:109EC0002F4F3F4F601771078207930768F3A70171
:109ED000960166E370E08CEF9BE00E9494578CEF54
:109EE0009BE00E94D32C0E9458326093FC0B70932D
:109EF000FD0B8093FE0B9093FF0B0E945832009154
:109F0000FC0B1091FD0B2091FE0B3091FF0B0E5CB2
:109F10001F4F2F4F3F4F601771078207930768F35A
:109F2000A701960169E370E08CEF9BE00E949457D3
:109F30008CEF9BE00E94D32C0E9458326093FC0B64
:109F40007093FD0B8093FE0B9093FF0B0E94583291
:109F50000091FC0B1091FD0B2091FE0B3091FF0B3B
:109F60000E5C1F4F2F4F3F4F6017710782079307FB
:109F700068F3A70196016CE370E08CEF9BE00E9410
:109F800094578CEF9BE01F910F91FF90EF90DF9023
:109F9000CF900C94D32CCF92DF92EF92FF920F933D
:109FA0001F93CF93DF93EC018B016AE073E00E9473
:109FB000AA5E892B29F4C12CD12C7601DA9404C035
:109FC000C12CD12C7601EA9461E273E0CE010E94AB
:109FD000AA5E892B21F4C12CD12C7601CA9465E1AB
:109FE00073E0CE010E94AA5E892B29F4C12CDD24E6
:109FF000DA94ED2CF12C64EA73E0C8010E94AA5EA9
:10A00000892B81F4B701A6018091770B9091780B91
:10A01000DF91CF911F910F91FF90EF90DF90CF9044
:10A020000C9409586BEA73E0C8010E94AA5E892B60
:10A0300091F428E230E0B701A6018091770B90916E
:10A04000780BDF91CF911F910F91FF90EF90DF90F0
:10A05000CF900C94F358DF91CF911F910F91FF9007
:10A06000EF90DF90CF900895863308F0865390915B
:10A070007B00282F2870977F922B90937B0087700E
:10A08000806480937C0080917A00806480937A0061
:10A0900080917A0086FDFCCF809178002091790034
:10A0A00090E0922B08958F929F92AF92BF92CF92A1
:10A0B000DF92EF92FF921F93CF93DF936B017C01AE
:10A0C000142F4091060C5091070C60E070E08091D5
:10A0D0000B0C90910C0C0E94A35EC0E0D0E0812E8E
:10A0E000912CA12CB12C6091040C7091050C7695EB
:10A0F0006795C617D70738F0C0E0D0E0C12ED12C45
:10A10000E12CF12C20C06C0F7D1FA70196018CEF74
:10A110009BE00E9494576091040C7091050C769519
:10A1200067956C1B7D0BA70196018CEF9BE00E944D
:10A1300094578CEF9BE00E94D32CC501B4010E9480
:10A1400028592196D0CF8091040C9091050C9695BA
:10A150008795C817D907F8F420E030E0A901BE01BF
:10A160008CEF9BE00E9494576091040C7091050C59
:10A170006C1B7D0B20E030E0A9018CEF9BE00E947E
:10A1800094578CEF9BE00E94D32CC701B6010E942C
:10A1900028592196D8CFDF91CF911F91FF90EF9052
:10A1A000DF90CF90BF90AF909F908F9008952F92A7
:10A1B0003F924F925F926F927F928F929F92AF9257
:10A1C000BF92CF92DF92EF92FF920F931F93CF93A4
:10A1D000DF9300D000D0CDB7DEB7412C512C320137
:10A1E0007AEF872E5E0125E0A20EB11C912CE92C9E
:10A1F000F12C2091040C3091050CC9016EE170E046
:10A200000E94EC60E616F70608F093C0892D90E0F6
:10A21000A0E0B0E07727662740E050E00E941A5D9A
:10A22000240D351DAAEFB5E00E946E5DDC01CB0167
:10A230009058AF4FBF4FCD01BB2797FDB095AB2FC7
:10A240008E3F41E0940758F48F3F910518F4682F32
:10A2500080E028C09EEF981B80E06FEF24C08C3F09
:10A2600043E0940760F48D3F42E0940718F48E5F5A
:10A270006FEF03C06CEF681B8FEF90E014C08A3F54
:10A2800045E0940769F08B3F44E0940728F494E09C
:10A29000980F8FEF60E007C0282D281B822F01C088
:10A2A00080E060E09FEF292E312CC62ED12C8D83CB
:10A2B0001E82C601A0E0B0E0BA2FA92F982F8827F0
:10A2C0008827AA27BB272D813E81A90160E070E085
:10A2D0008C019D01042B152B262B372BC101A0E0EF
:10A2E000B0E0DC0199278827AC01BD014427552740
:10A2F0007727D901C801842B952BA62BB72B8983EF
:10A300009A83AB83BC83DE011196EC91F0E0EF5DA4
:10A31000F74FE491ED93AA16BB06B9F729813A816C
:10A320004B815C81B7018CEF9BE00E949457939422
:10A330005ECF8CEF9BE00E94D32C6EE170E080E05A
:10A3400090E00E9428593FEF531A630A730A4114A0
:10A35000510445E06406710409F048CF26960FB613
:10A36000F894DEBF0FBECDBFDF91CF911F910F914B
:10A37000FF90EF90DF90CF90BF90AF909F908F9025
:10A380007F906F905F904F903F902F900895CF9265
:10A39000DF92EF92FF921092DD061092DC0628EE1B
:10A3A000C22E23E0D22EE12CF12CC092DE06D092F8
:10A3B000DF06E092E006F092E1066EE072E0709354
:10A3C000DB066093DA0686E996E09093E7068093D1
:10A3D000E60682E596E09093E9068093E80685EC30
:10A3E00090E09093EB068093EA0684EC90E09093E3
:10A3F000ED068093EC0680EC90E09093EF0680935E
:10A40000EE0681EC90E09093F1068093F00682ECEA
:10A4100090E09093F3068093F20686EC90E09093A0
:10A42000F5068093F40644E04093F60633E030935B
:10A43000F70627E02093F80695E09093F90681E06F
:10A440008093FA061092330610923206C0923406B8
:10A45000D0923506E0923606F092370670933106B8
:10A4600060933006ECEEF5E0F0933D06E0933C0699
:10A47000E8EAF5E0F0933F06E0933E06EDECF0E00D
:10A48000F0934106E0934006ECECF0E0F0934306D5
:10A49000E0934206E8ECF0E0F0934506E0934406D2
:10A4A000E9ECF0E0F0934706E0934606EAECF0E0D2
:10A4B000F0934906E0934806EEECF0E0F0934B068B
:10A4C000E0934A0640934C0630934D0620934E0687
:10A4D00090934F068093500610928905109288053C
:10A4E000C0928A05D0928B05E0928C05F0928D0582
:10A4F0007093870560938605E2E4F5E0F093930599
:10A50000E0939205EEEFF4E0F0939505E093940567
:10A51000E5EDF0E0F0939705E0939605E4EDF0E0CB
:10A52000F0939905E0939805E0EDF0E0F0939B053A
:10A53000E0939A05E1EDF0E0F0939D05E0939C0532
:10A54000E2EDF0E0F0939F05E0939E05E6EDF0E08C
:10A55000F093A105E093A0054093A2053093A305D5
:10A560002093A4059093A5058093A6051092DF047F
:10A570001092DE04C092E004D092E104E092E20482
:10A58000F092E3047093DD046093DC0468E974E006
:10A590007093E9046093E80464E574E07093EB045D
:10A5A0006093EA0465E371E07093ED046093EC045A
:10A5B00064E371E07093EF046093EE0460E371E094
:10A5C0007093F1046093F00461E371E07093F3041D
:10A5D0006093F20462E371E07093F5046093F40415
:10A5E00066E371E07093F7046093F6044093F80417
:10A5F0003093F9042093FA049093FB048093FC04B5
:10A600001092530D1092520D88E090E09093570DE8
:10A610008093560D1092590D1092580D80E590E0E0
:10A620000E947D5D9093550D8093540D10925C0DAA
:10A6300010925B0D1092BF0C1092BE0CC092C00C19
:10A64000D092C10CE092C20CF092C30C8EE192E069
:10A650009093BD0C8093BC0C1092D00C1092CF0C38
:10A660001092D20C1092D10C1092D40C1092D30CE8
:10A670001092D60C1092D50C8091D70C8E7F8D7FC6
:10A680008093D70C61E088E00E946F3061E088E041
:10A690000E94F52FE3EAF9E0E491E093CC0CEDE5BC
:10A6A000F9E0E491F0E0EE0FFF1FE55CF64F8591D5
:10A6B00094919093CE0C8093CD0C60E08CE00E943E
:10A6C0006F308091D70C81FD04C061E08CE00E9466
:10A6D000F52F8CE08093C80CE7EAF9E0E491E09371
:10A6E000C90CE1E6F9E0E491F0E0EE0FFF1FEF5D49
:10A6F000F64F859194919093CB0C8093CA0C89E08E
:10A700008093BA0C86E08093BB0C8BE08093B80CEE
:10A7100085E08093B90C8AE08093B60C84E0809346
:10A72000B70C45E164E18AEA9CE00E94334A43E1C8
:10A7300062E18EE99CE00E94334A42E063E082E9F4
:10A740009CE00E94334A8AEB9CE09093870C8093B4
:10A75000860C88EB9CE09093890C8093880C86EBA8
:10A760009CE090938B0C80938A0C8AEA9CE09093F7
:10A770008D0C80938C0C8EE99CE090938F0C8093D1
:10A780008E0C82E99CE09093910C8093900C8AEB64
:10A790009CE00E94875760E070E08091860C909169
:10A7A000870C0E94742B8091880C9091890C0E94D8
:10A7B000875760E070E08091880C9091890C0E942E
:10A7C000742B80918A0C90918B0C0E94875760E0CB
:10A7D00070E080918A0C90918B0C0E94742B1092E7
:10A7E0005A0C10925B0C10925C0C10925D0C109243
:10A7F0005E0C10925F0C1092600C1092610C109223
:10A80000620C1092630C1092640C1092650C109202
:10A81000660C1092670C1092680C1092690C1092E2
:10A820006A0C10926B0C10926C0C10926D0C1092C2
:10A830006E0C10926F0C1092700C1092710C1092A2
:10A84000180C1092190C10921A0C10921B0C1092EA
:10A850001C0C10921D0C10921E0C10921F0C1092CA
:10A86000200C1092210C1092220C1092230C1092AA
:10A87000240C1092250C1092260C1092270C10928A
:10A88000280C1092290C10922A0C10922B0C10926A
:10A890002C0C10922D0C10922E0C10922F0C10924A
:10A8A000310C1092300C1092330C1092320C10922A
:10A8B000350C1092340C1092360C1092370C10920A
:10A8C000380C1092390C10923A0C10923B0C1092EA
:10A8D0003C0C10923D0C10923E0C10923F0C1092CA
:10A8E000400C1092410C1092420C1092430C1092AA
:10A8F000440C1092450C1092460C1092470C10928A
:10A90000480C1092490C10924A0C10924B0C109269
:10A910004C0C10924D0C83E393E3A3E3BFE38093CD
:10A920004E0C90934F0CA093500CB093510C86E6B4
:10A9300096E6A6E6BFE38093520C9093530CA09347
:10A94000540CB093550C1092560C1092570C109258
:10A95000580C1092590C1092720C1092730C1092A9
:10A96000740C1092750C1092760C1092770C109259
:10A97000780C1092790C10927A0C10927B0C109239
:10A980007C0C10927D0C10927E0C10927F0C109219
:10A99000800C1092810C1092820C1092830C1092F9
:10A9A000840C1092850C1092030C10920A0C1092D9
:10A9B000110C1092120C1092130C1092140C81E0D6
:10A9C0008093100C80930D0C10920E0C92E09093DB
:10A9D0000F0C8093000C84EB90E09093070C809315
:10A9E000060C0E947D5D90930C0C80930B0C0097DD
:10A9F00061F024EBFC0111922A95E9F78CE390E0D9
:10AA00009093050C8093040C08C01092070C1092D0
:10AA1000060C1092050C1092040C85E390E09093C4
:10AA2000090C8093080C8091030C882341F061E0AD
:10AA300085E30E946F3060E085E30E94F52FEAE82D
:10AA4000F9E0E491F0E0EE0FFF1FE55CF64F859131
:10AA500094919093160C8093150CE0EDF9E0E4913D
:10AA6000E093170C1092AC0B1092AB0B8091560D2B
:10AA70009091570D049720F484E090E00E944321C8
:10AA800088E19CE09093740B8093730B83EA9BE0C6
:10AA90009093760B8093750B8CEF9BE09093780BE3
:10AAA0008093770B1092A20B1092A10B1092DF0AE9
:10AAB0001092E00A1092E10A1092E20A1092E30A60
:10AAC0001092E40A1092E50A1092E60A1092E70A40
:10AAD0001092E80A1092E90A1092EA0A80E090E0E7
:10AAE000A0EAB1E48093D70A9093D80AA093D90A38
:10AAF000B093DA0A80E090E0A0EABFE38093DB0A3B
:10AB00009093DC0AA093DD0AB093DE0A1092F70A54
:10AB10001092F80A1092F90A1092FA0A1092FF0A9B
:10AB20001092000B1092010B1092020B1092030B6B
:10AB30001092040B1092050B1092060B1092070B4B
:10AB40001092080B1092090B10920A0B10920B0B2B
:10AB500010920C0B10920D0B10920E0B81E0809353
:10AB6000130B1092830B1092840B1092850B109292
:10AB7000860B1092870B1092880B1092890B109203
:10AB80008A0B10928B0B10928C0B10928D0B1092E3
:10AB90008E0B20EB33E03093980B2093970B309380
:10ABA0009A0B2093990B1092630B1092640B1092E6
:10ABB000650B1092660B40ED52E060E070E0409350
:10ABC0006B0B50936C0B60936D0B70936E0B40EEA0
:10ABD0005EE260E070E04093570B5093580B609337
:10ABE000590B70935A0B44EF51E060E070E04093D2
:10ABF0005B0B50935C0B60935D0B70935E0B40E9B5
:10AC000051E060E070E040935F0B5093600B609305
:10AC1000610B7093620B10922E0B10922D0B109201
:10AC2000300B10922F0B1092920B1092910B1092EE
:10AC3000900B10928F0B10929B0B10929C0B10920A
:10AC40009D0B10929E0B40E25EE460E070E040934A
:10AC50006F0B5093700B6093710B7093720B80931A
:10AC60002B0B8093160B86E380934F0A87E3809328
:10AC7000500A88E38093510A89E38093520A8AE359
:10AC80008093530A8BE380934E0A1092370A1092F6
:10AC9000390A1092380A10923B0A10923A0A10921E
:10ACA0003C0A10923D0A10923E0A10923F0A1092FE
:10ACB000450A1092440A10924A0A10924B0A1092C6
:10ACC0004C0A10924D0A1092400A1092410A1092BA
:10ACD000420A1092430A8CE38093FD068EE3809330
:10ACE000FE061092FF0610920107109200071092C4
:10ACF000CA071092920810925A091092240A1092D0
:10AD0000250A1092260A1092270A1092280A1092F9
:10AD1000290A10922A0A10922B0A10922C0A1092D9
:10AD20002D0A10922E0A10922F0A82E390E0A0E0E2
:10AD3000B0E08093300A9093310AA093320AB09326
:10AD4000330AFF90EF90DF90CF900895CF93C0E04B
:10AD50006C2F70E08091040C9091050C68177907B6
:10AD600068F420E030E0A9018CEF9BE00E9494574A
:10AD70008CEF9BE00E94D32CCF5FEACFCF91089558
:10AD80001F93CF93DF93DAE0C0E04091060C50911F
:10AD9000070C60E070E080910B0C90910C0C0E940D
:10ADA000A35E1C2F612F70E08091040C9091050C24
:10ADB0006817790750F426E630E043E350E08CEF63
:10ADC0009BE00E9494571D5FEDCF8CEF9BE00E94AB
:10ADD000D32C62E370E080E090E00E942859CF5FBE
:10ADE000C33099F6D15081F6DF91CF911F9108952C
:10ADF0007F928F929F92AF92BF92CF92DF92EF920B
:10AE0000FF920F931F93CF93DF93CDB7DEB7EDB6CD
:10AE1000FEB64091060C5091070C60E070E0809106
:10AE20000B0C90910C0C0E94A35E4091040C50916D
:10AE3000050CCA01880F991F2DB73EB7281B390B87
:10AE40000FB6F8943EBF0FBE2DBF0DB71EB70F5FF4
:10AE50001F4F20E0822F90E08417950728F0712C77
:10AE6000CC24C394D12C3DC0880F991FF801E80F62
:10AE7000F91F118210822E5FEDCF2091040C3091CA
:10AE8000050C490181E0881A9108A814B90460F5FD
:10AE90000E94ED59940140E050E00E941A5D4B0180
:10AEA000880C991C800E911EF40120813181213083
:10AEB000310519F320E033E340E050E08CEF9BE0F4
:10AEC0000E949457F401D182C082739473948CEFE2
:10AED0009BE00E94D32C6EE170E080E090E00E9445
:10AEE0002859A72CB12CC9CF0FB6F894FEBE0FBEBF
:10AEF000EDBEDF91CF911F910F91FF90EF90DF900A
:10AF0000CF90BF90AF909F908F907F900895CF93F8
:10AF1000DF93EC0161E088810E946F3061E08981FC
:10AF2000DF91CF910C946F307F928F929F92AF926E
:10AF3000BF92CF92DF92EF92FF920F931F93CF9326
:10AF4000DF93FC01808591856817790708F053C06D
:10AF50004A01AA24BB24782CC32ED42EE52EFF242C
:10AF6000BC2DA22F8685882361F0889E4001112484
:10AF7000792C8C9D60011124BD2D829F70011124BC
:10AF8000AF2D9489D189E784F0889D1308C0CB0147
:10AF9000880F991F680F791F6E0D7F1D1CC0660FEB
:10AFA000771F660F771F6E0D7F1D052F1127222734
:10AFB00033277B01E90EF11C811102C0202F09C04B
:10AFC00090E0809F6001819FD00C909FD00C112455
:10AFD0002D2DE701288381899B01280F311DE9016F
:10AFE00078828289EB01C80FD11DB8838389FB0168
:10AFF000E80FF11DA083DF91CF911F910F91FF907A
:10B00000EF90DF90CF90BF90AF909F908F907F9008
:10B010000895CF92DF92EF92FF92CF93DF93EC01EE
:10B020006A017B019A01AB0160E070E00E949457D5
:10B03000A701960162E070E0CE010E949457A7013B
:10B04000960164E070E0CE010E949457A70196013A
:10B0500066E070E0CE010E949457A701960168E077
:10B0600070E0CE010E949457A70196016AE070E05B
:10B07000CE010E949457A70196016CE070E0CE01CA
:10B080000E949457A70196016EE070E0CE010E94E5
:10B090009457A701960160E170E0CE010E94945799
:10B0A000A701960162E170E0CE010E949457A701CA
:10B0B000960164E170E0CE010E949457A7019601C9
:10B0C00066E170E0CE010E949457A701960168E105
:10B0D00070E0CE010E949457A70196016AE170E0EA
:10B0E000CE010E949457A70196016CE170E0CE0159
:10B0F0000E949457A70196016EE170E0CE010E9474
:10B100009457A701960160E270E0CE010E94945727
:10B11000A701960162E270E0CE010E949457A70158
:10B12000960164E270E0CE010E949457A701960157
:10B1300066E270E0CE010E949457A701960168E292
:10B1400070E0CE010E949457A70196016AE270E078
:10B15000CE010E949457A70196016CE270E0CE01E7
:10B160000E949457A70196016EE270E0CE010E9402
:10B170009457A701960160E370E0CE010E949457B6
:10B18000A701960162E370E0CE010E949457A701E7
:10B19000960164E370E0CE010E949457A7019601E6
:10B1A00066E370E0CE010E949457A701960168E320
:10B1B00070E0CE010E949457A70196016AE370E007
:10B1C000CE010E949457A70196016CE370E0CE0176
:10B1D0000E949457CE01DF91CF91FF90EF90DF90C6
:10B1E000CF900C94D32C8F929F92AF92BF92CF921C
:10B1F000DF92EF92FF920F931F93CF938C014A013E
:10B200005B01C0E06901330FEE08FF086C2F70E0AE
:10B21000F801808591856817790770F4A50194017C
:10B22000C8010E949457C8010E94D32CC701B601DF
:10B230000E942859CD5FEACFCF911F910F91FF90C7
:10B24000EF90DF90CF90BF90AF909F908F90089538
:10B25000CF92DF92EF92FF92CF93DF936B017C014D
:10B260000E943332EB01C114D104E104F10479F0FE
:10B270000E9433326C1B7D0B683E7340A0F381E06B
:10B28000C81AD108E108F108C851DC4FECCFDF91B2
:10B29000CF91FF90EF90DF90CF90089580910B0CAD
:10B2A00090910C0C0E94155E8091080C9091090CF5
:10B2B00097FD03C060E00E946F308EE192E09093B2
:10B2C000BD0C8093BC0C9091C80C26EF290F243044
:10B2D00068F08EEC890F843048F082EC890F88305A
:10B2E00058F5EDE6F0E0ADE6B0E004C0EBE6F0E0E6
:10B2F000ABE6B0E03C91243018F42AEF290F0BC0E4
:10B30000923389F0933389F0943389F082EC890F7A
:10B31000883078F4282F81E090E001C0880F2A95CA
:10B32000EAF7809507C087EF05C08BEF03C08DEF6C
:10B3300001C08EEF832380838091540D9091550D31
:10B340000C94155E8F929F92AF92BF92CF92DF9234
:10B35000EF92FF92CF93DF93EC01688179818A812C
:10B360009B81611571058105910521F464E279EDF8
:10B370008BE597E02DE133EF41E050E00E941A5D4C
:10B3800049015A019B01AC01A7EAB1E40E94395D71
:10B390006B017C01ACEEB4EFA50194010E94475D06
:10B3A000DC01CB018C0D9D1DAE1DBF1DB7FF03C081
:10B3B0000197A109B04888839983AA83BB83BC0104
:10B3C000CD019F77DF91CF91FF90EF90DF90CF90ED
:10B3D000BF90AF909F908F9008958F929F92AF9261
:10B3E000BF92CF92DF92EF92FF9260910002709134
:10B3F000010280910202909103026115710581059D
:10B40000910521F464E279ED8BE597E02DE133EFCE
:10B4100041E050E00E941A5D49015A019B01AC01D4
:10B42000A7EAB1E40E94395D6B017C01ACEEB4EF98
:10B43000A50194010E94475DDC01CB018C0D9D1D8F
:10B44000AE1DBF1DB7FF03C00197A109B04880938F
:10B45000000290930102A0930202B0930302BC0188
:10B46000CD019F77FF90EF90DF90CF90BF90AF908E
:10B470009F908F90089560930002709301028093D3
:10B480000202909303020895662777270C94765A58
:10B49000F8940C941C6146E75DE00C944F5AFA0155
:10B4A000A191B081009719F41097E1F0CD01DC0172
:10B4B000CD010D90002011F4C00113C0FB012191BA
:10B4C000222319F02015D9F7F3CFFB012191201584
:10B4D00019F41E92119606C02223C1F70D90002088
:10B4E000A1F7D001FA01A193B08308958F929F92A2
:10B4F000AF92BF92CF92DF92EF92FF920F931F9382
:10B50000CF93DF93EC016B016115710519F0FB011D
:10B51000918380837E01FFEFEF1AFF0A0881802F5D
:10B5200090E00E94D25B892B11F0E701F3CF0D323E
:10B5300039F47E0182E0E80EF11C098111E008C0B7
:10B540000B3229F47E0192E0E90EF11C098110E032
:10B55000E701219743E050E06AEC73E0CE010E94DE
:10B56000DB5B892BC1F4239645E050E065EC73E08A
:10B57000CE010E94DB5B892B09F42596C114D1040E
:10B5800019F0F601D183C0831111F6C060E070E0BC
:10B5900080E89FE7FAC043E050E062EC73E0CE0140
:10B5A0000E94DB5B892B59F4C114D10409F4E9C072
:10B5B000F2E0EF0EF11CF601F182E082E2C020E041
:10B5C00030E0A901C0E0D0E0F70160EDA62EA00EAA
:10B5D00089E08A1530F1912F9260B92E812F887001
:10B5E00012FF04C0811124C0219622C0811121972D
:10B5F000A5E0B0E00E94395DDC01CB01880F991F06
:10B60000AA1FBB1F9C01AD012A0D311D411D511DFB
:10B61000283989E93807480789E1580748F0166052
:10B6200006C09EEFA9120AC013FD40C01860B12EDB
:10B630008FEFE81AF80A00811B2DC6CF802F8F7D6F
:10B640008534A1F580818D3211F4106106C08B32F2
:10B6500021F0319661E070E004C08181329662E0B1
:10B6600070E080538A3018F0E61BF70B1FC060E0D3
:10B6700070E060389CE079075CF4DB01AA0FBB1F27
:10B68000AA0FBB1F6A0F7B1F660F771F680F711D04
:10B690003196DF0111978C9180538A3050F314FF5B
:10B6A00003C0719561957109C60FD71F11FF08C0BE
:10B6B000C114D10429F0CF010197F6019183808351
:10B6C000CA01B9010E94F85B212F2370233019F0C1
:10B6D0004B015C0106C04B015C01B7FAB094B7F8AE
:10B6E000B09420E030E0A901C501B4010E94F35BF1
:10B6F000882309F43EC0D7FF06C0D195C195D10972
:10B7000001EE13E002C009EF13E06801F8E1CF1A7F
:10B71000D10890E2E92EF12CCE15DF0574F0F80186
:10B720002591359145915491C501B4010E94595C10
:10B730004B015C01CE19DF09EFCF04501109F594DC
:10B74000E7940C151D0541F78A2D880F8B2D881F56
:10B750008F3F49F020E030E0A901C501B4010E940B
:10B76000F35B811106C082E290E09093790D8093A3
:10B77000780DC501B40109C060E070E080E89FEF7A
:10B7800004C060E070E080EC9FE7DF91CF911F91F3
:10B790000F91FF90EF90DF90CF90BF90AF909F9070
:10B7A0008F90089591110C94C65C803219F08950E5
:10B7B0008550C8F70895FB01DC014150504088F0E6
:10B7C0008D9181341CF08B350CF4805E6591613471
:10B7D0001CF06B350CF4605E861B611171F3990BE4
:10B7E0000895881BFCCF0E94355C08F481E0089521
:10B7F000E89409C097FB3EF490958095709561950B
:10B800007F4F8F4F9F4F9923A9F0F92F96E9BB27C0
:10B810009395F695879577956795B795F111F8CF3C
:10B82000FAF4BB0F11F460FF1BC06F5F7F4F8F4FA7
:10B830009F4F16C0882311F096E911C0772321F09D
:10B840009EE8872F762F05C0662371F096E8862F35
:10B8500070E060E02AF09A95660F771F881FDAF78C
:10B86000880F9695879597F90895990F0008550FB9
:10B87000AA0BE0E8FEEF16161706E807F907C0F076
:10B8800012161306E407F50798F0621B730B840B7E
:10B89000950B39F40A2661F0232B242B252B21F458
:10B8A00008950A2609F4A140A6958FEF811D811DF8
:10B8B00008950E946C5C0C94E05C0E94D25C38F0AD
:10B8C0000E94D95C20F0952311F00C94C95C0C9473
:10B8D000CF5C11240C94145D0E94F15C70F3959F71
:10B8E000C1F3950F50E0551F629FF001729FBB2777
:10B8F000F00DB11D639FAA27F00DB11DAA1F649F13
:10B900006627B00DA11D661F829F2227B00DA11DC5
:10B91000621F739FB00DA11D621F839FA00D611D4B
:10B92000221F749F3327A00D611D231F849F600D6C
:10B93000211D822F762F6A2F11249F5750409AF095
:10B94000F1F088234AF0EE0FFF1FBB1F661F771F21
:10B95000881F91505040A9F79E3F510580F00C94EC
:10B96000C95C0C94145D5F3FE4F3983ED4F3869574
:10B9700077956795B795F795E7959F5FC1F7FE2B8C
:10B98000880F911D9695879597F90895992788278F
:10B99000089597F99F6780E870E060E008959FEF51
:10B9A00080EC089500240A94161617061806090656
:10B9B000089500240A941216130614060506089525
:10B9C000092E0394000C11F4882352F0BB0F40F4AD
:10B9D000BF2B11F460FF04C06F5F7F4F8F4F9F4FED
:10B9E000089557FD9058440F551F59F05F3F71F06F
:10B9F0004795880F97FB991F61F09F3F79F08795D6
:10BA00000895121613061406551FF2CF4695F1DF5E
:10BA100008C0161617061806991FF1CF86957105EE
:10BA2000610508940895E894BB2766277727CB0122
:10BA300097F90895052E97FB1EF400940E94315D3E
:10BA400057FD07D00E944C5D07FC03D04EF40C94C8
:10BA5000315D50954095309521953F4F4F4F5F4F49
:10BA6000089590958095709561957F4F8F4F9F4F6A
:10BA700008950E946E5DA59F900DB49F900DA49FA8
:10BA8000800D911D11240895B7FF0C94395D0E941B
:10BA9000395D821B930B0895A1E21A2EAA1BBB1BD2
:10BAA000FD010DC0AA1FBB1FEE1FFF1FA217B3078A
:10BAB000E407F50720F0A21BB30BE40BF50B661FA0
:10BAC000771F881F991F1A9469F760957095809564
:10BAD00090959B01AC01BD01CF010895A29FB001DB
:10BAE000B39FC001A39F700D811D1124911DB29FB2
:10BAF000700D811D1124911D08950F931F93CF93F5
:10BB0000DF938230910510F482E090E0E0917C0DAB
:10BB1000F0917D0D20E030E0A0E0B0E0309719F129
:10BB2000408151810281138148175907C8F0841759
:10BB3000950769F4109731F012960C9312971396AB
:10BB40001C9327C000937C0D10937D0D22C02115FE
:10BB5000310519F04217530718F49A01BD01EF019E
:10BB6000DF01F801DBCF21153105F9F0281B390B76
:10BB70002430310580F48A819B816115710521F0A3
:10BB8000FB019383828304C090937D0D80937C0D91
:10BB9000FE01329644C0FE01E20FF31F81939193A0
:10BBA00022503109398328833AC020917A0D30918F
:10BBB0007B0D232B41F42091060230910702309334
:10BBC0007B0D20937A0D20910402309105022115FE
:10BBD000310541F42DB73EB740910802509109025A
:10BBE000241B350BE0917A0DF0917B0DE217F307E2
:10BBF000A0F42E1B3F0B2817390778F0AC014E5FDD
:10BC00005F4F2417350748F04E0F5F1F50937B0D91
:10BC100040937A0D8193919302C0E0E0F0E0CF0170
:10BC2000DF91CF911F910F910895CF93DF930097EC
:10BC300009F481C0FC01329713821282A0917C0D1D
:10BC4000B0917D0D109781F420813181820F931F77
:10BC500020917A0D30917B0D2817390751F5F0931B
:10BC60007B0DE0937A0D67C0ED0120E030E0CE1748
:10BC7000DF0740F44A815B819E0141155105F1F0D7
:10BC8000EA01F5CFD383C28340815181840F951F90
:10BC9000C817D90759F488819981840F951F029696
:10BCA000918380838A819B819383828321153105CF
:10BCB00029F4F0937D0DE0937C0D3DC0E901FB83F9
:10BCC000EA8349915991C40FD51FEC17FD0761F420
:10BCD00080819181840F951F0296E9019983888361
:10BCE000828193819B838A83E0E0F0E012968D91BC
:10BCF0009C911397009719F0FD01DC01F7CF8D910E
:10BD00009C9111979D012E5F3F4F820F931F2091B1
:10BD10007A0D30917B0D2817390769F4309729F493
:10BD200010927D0D10927C0D02C013821282B0938E
:10BD30007B0DA0937A0DDF91CF91089581E090E083
:10BD4000F8940C941C61DC0101C06D93415050408B
:10BD5000E0F70895FB01DC018D910190801901103D
:10BD6000D9F3990B0895FB01DC0101900D9200209D
:10BD7000E1F708955058BB27AA270E94D25E0C9481
:10BD8000E05C0E94D25C38F00E94D95C20F039F46B
:10BD90009F3F19F426F40C94CF5C0EF4E095E7FB7A
:10BDA0000C94C95CE92F0E94F15C58F3BA17620742
:10BDB00073078407950720F079F4A6F50C94135DBA
:10BDC0000EF4E0950B2EBA2FA02D0B01B9019001B6
:10BDD0000C01CA01A0011124FF27591B99F0593FFA
:10BDE00050F4503E68F11A16F040A22F232F342F42
:10BDF0004427585FF3CF469537952795A795F04090
:10BE00005395C9F77EF41F16BA0B620B730B840BA4
:10BE1000BAF09150A1F0FF0FBB1F661F771F881F5C
:10BE2000C2F70EC0BA0F621F731F841F48F48795B4
:10BE300077956795B795F7959E3F08F0B0CF9395A6
:10BE4000880F08F09927EE0F9795879508950E941F
:10BE5000D25C60F080E891E009F49EEF0E94D95C2A
:10BE600028F040E851E071F45EEF0CC00C94CF5C18
:10BE70000C94135DE92FE0780E94F15C40F3092EE9
:10BE8000052AB1F3261737074807590738F00E2E51
:10BE900007F8E02569F0E025E0640AC0EF6307F8E1
:10BEA000009407FADB01B9019D01DC01CA01AD0173
:10BEB000EF930E94B55F0E94E05C0E946A5F5F9111
:10BEC000552339F02BED3FE049E450FD49EC0C944B
:10BED000BB5E0895DF93DD27B92FBF7740E85FE3AE
:10BEE0001616170648075B0718F4D92F0E94B16091
:10BEF0009F938F937F936F930E94C160E2EBF1E079
:10BF00000E9446600E94E05C2F913F914F915F91AB
:10BF10000E946C5CDD2351F09058A2EA2AED3FE0CC
:10BF200049EC5FE3D0785D270E94D25EDF910C94EC
:10BF3000E05C0E946F60E3950C9498600E94B25F91
:10BF40000C94E05C0E94D95C58F00E94D25C40F0F6
:10BF500029F45F3F29F00C94C95C51110C94145DD5
:10BF60000C94CF5C0E94F15C68F39923B1F35523E4
:10BF700091F3951B550BBB27AA27621773078407FC
:10BF800038F09F5F5F4F220F331F441FAA1FA9F392
:10BF900035D00E2E3AF0E0E832D091505040E69580
:10BFA000001CCAF72BD0FE2F29D0660F771F881FE1
:10BFB000BB1F261737074807AB07B0E809F0BB0BD4
:10BFC000802DBF01FF2793585F4F3AF09E3F5105E8
:10BFD00078F00C94C95C0C94145D5F3FE4F3983ED8
:10BFE000D4F3869577956795B795F7959F5FC9F7D1
:10BFF000880F911D9695879597F90895E1E0660F52
:10C00000771F881FBB1F621773078407BA0720F0CA
:10C01000621B730B840BBA0BEE1F88F7E095089533
:10C020000E9417606894B1110C94145D08950E94E9
:10C03000F95C88F09F5798F0B92F9927B751B0F065
:10C04000E1F0660F771F881F991F1AF0BA95C9F79C
:10C0500014C0B13091F00E94135DB1E008950C94CA
:10C06000135D672F782F8827B85F39F0B93FCCF37D
:10C07000869577956795B395D9F73EF49095809519
:10C08000709561957F4F8F4F9F4F0895DF93CF93AA
:10C090001F930F93FF92EF92DF927B018C016894C4
:10C0A00006C0DA2EEF010E946C5CFE01E894A591B7
:10C0B0002591359145915591A6F3EF010E94D25EED
:10C0C000FE019701A801DA9469F7DF90EF90FF90E5
:10C0D0000F911F91CF91DF9108950C94CF5C0E9436
:10C0E000F95CD8F3E894E0E0BB279F57F0F02AED25
:10C0F0003FE049EC06C0EE0FBB0F661F771F881F9D
:10C1000028F0B23A62077307840728F0B25A620B2C
:10C11000730B840BE3959A9572F7803830F49A95F7
:10C12000BB0F661F771F881FD2F790480C94CC6016
:10C13000EF93E0FF07C0A2EA2AED3FE049EC5FEB96
:10C140000E94D25E0E94E05C0F90039401FC905824
:10C15000EFEDF1E00C94D8600E94355C08F48FEFAD
:10C1600008959B01AC0160E070E080E89FE30C94CF
:10C170009E5F9F930E946F600F9007FCEE5F0C9490
:10C1800098609B01AC010C94595C0E94355C880B53
:10C19000990B08959F3F31F0915020F48795779542
:10C1A0006795B795880F911D9695879597F908958E
:10C1B0009F938F937F936F93FF93EF939B01AC01BA
:10C1C0000E94595CEF91FF910E9446602F913F9130
:10C1D0004F915F910C94595CAA1BBB1B51E107C0A6
:10C1E000AA1FBB1FA617B70710F0A61BB70B881F07
:10C1F000991F5A95A9F780959095BC01CD01089596
:10C2000097FB072E16F4009407D077FD09D00E9403
:10C21000EC6007FC05D03EF4909581959F4F089502
:10C22000709561957F4F0895EE0FFF1F881F8BBF9C
:10C230000790F691E02D199415E0C6E2D5E000E0F4
:10C2400006C0802FFE010E9414612196011DC73295
:0CC25000D10780E00807A9F7F894FFCFA1
:10C25C000100000000007E0D2000000000003E29BF
:10C26C005B2FC7298B29AB29802900000000CE2029
:10C27C005B2F82201D2959207320736F6C69747594
:10C28C0064696E652032206973203A20003C6C652D
:10C29C0066746D6F763E003C72696768746D6F767C
:10C2AC003E002C007377697463684D6F64300073C3
:10C2BC0077697463684D6F64310073776974636870
:10C2CC004D6F6432007377697463684D6F6433002B
:10C2DC007061757365006A6F7973746F7000736940
:10C2EC006D706C79676F00636F6E74726F6C006643
:10C2FC006F6C6C6F007061747465726E0073616446
:10C30C006E657373006861707079006E6F726D6129
:10C31C006C00656E74687573696173740070757305
:10C32C006800636F72726563740077726F6E67007A
:10C33C0063656C6500636F6E7300656C6170730090
:10C34C0073746172745F6D617463680067616D65AD
:10C35C005F7265640067616D655F677265656E002D
:10C36C0067616D655F79656C6C6F770067616D6592
:10C37C005F626C756500616C7265616479007265F1
:10C38C0073657400766F6C746167650071756965AF
:10C39C00740063617265737300636F6E74616374B0
:10C3AC0000746F75636800706174007371756565F6
:10C3BC007A65007368616B650073686F76650068F9
:10C3CC007567006869746C65667400686974667278
:10C3DC006F6E740068697472696768740068697458
:10C3EC006261636B0073696D706C79676F320061A9
:10C3FC0075746F00737461626C65007769706500A9
:10C40C004E6F6E65006E616E00696E66006F7666CB
:04C41C00002E0000EE
:00000001FF
