:100000000C9435000C945D000C945D000C945D0024
:100010000C945D000C945D000C945D000C945D00EC
:100020000C945D000C945D000C945D000C945D00DC
:100030000C945D000C945D000C945D000C945D00CC
:100040000C9462030C945D000C942B030C94F0024E
:100050000C945D000C945D000C945D000C945D00AC
:100060000C945D000C945D00AC0311241FBECFEF17
:10007000D8E0DEBFCDBF11E0A0E0B1E0EEE6FAE1EE
:1000800002C005900D92A63FB107D9F723E0A6EF75
:10009000B1E001C01D92A038B207E1F710E0C5E35E
:1000A000D0E004C02197FE010E942F0DC433D10778
:1000B000C9F70E94F3030C94C70A0C9400008E3019
:1000C00008F08E508770806480937C0080917A0065
:1000D000806480937A0080917A0086FDFCCF8091C5
:1000E00078002091790090E0922B0895CF92DF92D2
:1000F000EF92FF920F931F93CF93DF936C01EB016D
:100100007B01E40EF51E00E010E0CE15DF0561F086
:100110006991D601ED91FC910190F081E02DC6012D
:100120000995080F191FF1CFC801DF91CF911F91D9
:100130000F91FF90EF90DF90CF90089508950F9367
:100140001F93CF93DF93FC01A685B7858D01005CDB
:100150001F4FE8018881998101968F739927AD011E
:100160004E5B5F4FEA012881398182179307D1F3F3
:10017000E80128813981A20FB31F6C93A685B7854A
:10018000A05CBF4F11969C938E93A689B7892C9142
:1001900081E090E0078C02C0880F991F0A94E2F773
:1001A000822B8C9381E081A30488F589E02D8081E6
:1001B0008064808381E090E0DF91CF911F910F9167
:1001C0000895CF93DF936DE087E892E00E949F004F
:1001D000EC016AE087E892E00E949F008C0F9D1F6F
:1001E000DF91CF910895FC0181A1882329F0A48992
:1001F000B5898C9186FFFBCF11A20895FC01A485DF
:10020000B585FD01E05CFF4F208131813296808110
:1002100091812817390779F080819181A80FB91F42
:100220008C91208131812F5F3F4F2F733327318392
:10023000208390E008958FEF9FEF0895DC011C96D6
:10024000ED91FC911D97DF01A05CBF4F2D913C917A
:10025000119712968D919C9111972817390739F0B3
:100260008D919C91E80FF91F808190E008958FEFA8
:100270009FEF0895FC0124853585F901E05CFF4F6F
:1002800080819181329620813181821B930B8F7303
:100290009927089587E892E00C943A013FB7F894C3
:1002A0008091FB019091FC01A091FD01B091FE01B4
:1002B00026B5A89B05C02F3F19F00196A11DB11DC1
:1002C0003FBFBA2FA92F982F8827820F911DA11DFC
:1002D000B11DBC01CD0142E0660F771F881F991F39
:1002E0004A95D1F70895009769F0FC01019000202C
:1002F000E9F73197AF01481B590BBC0187E892E041
:100300000C94760080E090E008950C9473018F9235
:100310009F92AF92BF92EF92FF920F931F93CF9352
:10032000DF93CDB7DEB7A1970FB6F894DEBF0FBE4F
:10033000CDBF162F042F19A2423008F40AE07E0127
:1003400021E2E20EF11C802E912CA12CB12C612F08
:10035000A50194010E940D0D029F1019112481E046
:10036000E81AF1081A3014F4105D01C0195CF701A5
:100370001083122F732FCA01232B242B252B39F71F
:10038000C7010E947301A1960FB6F894DEBF0FBE9D
:10039000CDBFDF91CF911F910F91FF90EF90BF9054
:1003A000AF909F908F900895CF93DF930E94730139
:1003B000EC010E94E1008C0F9D1FDF91CF91089509
:1003C000CF92DF92EF92FF92CF93DF936C01990F60
:1003D000EE08FF08F7FE19C06DE287E892E00E9480
:1003E0009F00EC0166277727CB016C197D098E09E8
:1003F0009F094AE00E9487018C0F9D1FDF91CF91DA
:10040000FF90EF90DF90CF9008954AE0C701B601CA
:10041000DF91CF91FF90EF90DF90CF900C94870108
:100420008F929F92AF92BF92CF92DF92EF92FF9204
:100430000F931F93CF93DF936B017C01142F9B01CC
:10044000AC010E94080D882319F080E191E027C0DB
:1004500046015701E894B7F82FEF3FEF4FE75FE70A
:10046000C501B4010E94080D81110DC02FEF3FEFAF
:100470004FE75FE7C501B4010E94370B18161CF463
:1004800084E191E00CC02FEF3FEF4FE75FE4C7013D
:10049000B6010E94960C181684F488E191E0DF9171
:1004A000CF911F910F91FF90EF90DF90CF90BF9071
:1004B000AF909F908F900C9473012FEF3FEF4FE719
:1004C0005FECC701B6010E94370B87FDE6CF20E045
:1004D00030E0A901C701B6010E94370B87FF0BC0AE
:1004E0006DE287E892E00E949F00EC01F7FAF09439
:1004F000F7F8F09402C0C0E0D0E000E060E070E007
:1005000080E09FE3101741F020E030E040E251E44A
:100510000E943C0B0F5FF6CFA70196010E94CB0A09
:100520006B017C010E94B50B4B015C014AE00E940B
:100530008701C80FD91F1123A9F1C501B4010E9479
:10054000E40B9B01AC01C701B6010E94CA0A6B0112
:100550007C018CE191E00E947301C80FD91F20E05B
:1005600030E040E251E4C701B6010E949B0C4B0110
:100570005C010E94AE0B6B017C01CB010E94E0018B
:10058000C80FD91FB601DD0C880B990B0E94E60B32
:100590009B01AC01C501B4010E94CA0A6B017C0138
:1005A0001150E9F6CE01DF91CF911F910F91FF908D
:1005B000EF90DF90CF90BF90AF909F908F90089575
:1005C000CF93DF9342E00E941002EC010E94E10011
:1005D0008C0F9D1FDF91CF91089542E00C94100283
:1005E0001F920F920FB60F9211242F933F938F9368
:1005F0009F93EF93FF9320913F02309140028091AF
:100600004102909142022817390731F48091C100CC
:100610008F7D8093C10014C0E0914102F0914202AD
:10062000E150FE4F2081809141029091420201965B
:100630008F73992790934202809341022093C600C2
:10064000FF91EF919F918F913F912F910F900FBE4E
:100650000F901F9018951F920F920FB60F921124B2
:100660002F934F935F938F939F93EF93FF9380917B
:10067000C00082FD1BC02091C60080918302909132
:10068000840201968F7399274091850250918602CA
:100690008417950759F0E0918302F0918402ED5B95
:1006A000FD4F20839093840280938302FF91EF910A
:1006B0009F918F915F914F912F910F900FBE0F904F
:1006C0001F9018951F920F920FB60F9211242F931F
:1006D0003F938F939F93AF93BF938091F701909136
:1006E000F801A091F901B091FA013091F60123E0EF
:1006F000230F2D3720F40196A11DB11D05C026E85A
:10070000230F0296A11DB11D2093F6018093F701DE
:100710009093F801A093F901B093FA018091FB0145
:100720009091FC01A091FD01B091FE010196A11DE7
:10073000B11D8093FB019093FC01A093FD01B09348
:10074000FE01BF91AF919F918F913F912F910F909B
:100750000FBE0F901F901895E7E8F2E01382128207
:1007600088EE93E0A0E0B0E084839583A683B7830E
:1007700084E091E09183808383E492E0958784878D
:100780008FEF91E09787868785EC90E0918B808B47
:1007900084EC90E0938B828B80EC90E0958B848B43
:1007A00081EC90E0978B868B82EC90E0918F808F2C
:1007B00086EC90E0938F828F84E0848F83E0858F36
:1007C00087E0868F85E0878F81E080A3E9EAF2E009
:1007D0008EE080838FE0818380E1828381E1838367
:1007E00082E184830895CF93DF93CDB7DEB76C9712
:1007F0000FB6F894DEBF0FBECDBF789484B582608B
:1008000084BD84B5816084BD85B5826085BD85B5B4
:10081000816085BD80916E00816080936E00109232
:1008200081008091810082608093810080918100AD
:10083000816080938100809180008160809380003E
:100840008091B10084608093B1008091B00081609C
:100850008093B00080917A00846080937A008091C8
:100860007A00826080937A0080917A008160809320
:100870007A0080917A00806880937A001092C1009B
:10088000E0919B02F0919C0281E090E09C0100903D
:10089000A70202C0220F331F0A94E2F72083E091DF
:1008A0009702F09198021082E0919902F0919A02D9
:1008B00020E120831092A802E0919D02F0919E0217
:1008C00040819C010090A30202C0220F331F0A94B2
:1008D000E2F7242B2083E0919D02F0919E0240815B
:1008E0009C010090A40202C0220F331F0A94E2F779
:1008F000242B2083E0919D02F0919E0240819C0177
:100900000090A50202C0220F331F0A94E2F7242BA5
:100910002083E0919D02F0919E0220810090A6022A
:1009200002C0880F991F0A94E2F780958223808382
:100930008091AA020E945F009093AF028093AE0262
:100940008091A9020E945F009093B1028093B0024F
:100950008091AB020E945F009093B3028093B20239
:100960008091AC020E945F009093B5028093B40224
:100970008091AD020E945F007C019093B70280934A
:10098000B6026091AE027091AF02072E000C880B88
:10099000990B0E94E60B20E030E040EA50E40E9410
:1009A0009B0C20E030EC4FE754E40E943C0B69873D
:1009B0007A878B879C876093B8027093B902809383
:1009C000BA029093BB026091B0027091B102072EFF
:1009D000000C880B990B0E94E60B20E030E040EA07
:1009E00050E40E949B0C20E030EC4FE754E40E945E
:1009F0003C0B6D877E878F87988B6093BC027093CA
:100A0000BD028093BE029093BF026091B2027091CA
:100A1000B302072E000C880B990B0E94E60B20E016
:100A200030E040EA50E40E949B0C20E030EC4FE7BD
:100A300054E40E943C0B698B7A8B8B8B9C8B60936C
:100A4000C0027093C1028093C2029093C30260916E
:100A5000B4027091B502072E000C880B990B0E940E
:100A6000E60B20E030E040EA50E40E949B0C20E0DE
:100A700030EC4FE754E40E943C0B6D8B7E8B8F8BE8
:100A8000988F6093C4027093C5028093C6029093BE
:100A9000C702B701FF0C880B990B0E94E60B20E000
:100AA00030E040EA50E40E949B0C20E030EC4FE73D
:100AB00054E40E943C0B698F7A8F8B8F9C8F6093DC
:100AC000C8027093C9028093CA029093CB022DECA6
:100AD0003CEC4CE45EE369857A858B859C850E94BD
:100AE000CA0A26E636E646EE5EE30E943C0B2B0180
:100AF0003C016093CC027093CD028093CE02909320
:100B0000CF022DEC3CEC4CE45EE36D857E858F8559
:100B100098890E94CA0A26E636E646EE5EE30E94FF
:100B20003C0B69837A838B839C836093D0027093A0
:100B3000D1028093D2029093D3022DEC3CEC4CE492
:100B40005EE369897A898B899C890E94CA0A26E6B4
:100B500036E646EE5EE30E943C0B6D837E838F8318
:100B600098876093D4027093D5028093D6029093B5
:100B7000D7022DEC3CEC4CE45EE36D897E898F89D5
:100B8000988D0E94CA0A26E636E646EE5EE30E948B
:100B90003C0B4B015C016093D8027093D9028093A7
:100BA000DA029093DB022DEC3CEC4CE45EE3698DC1
:100BB0007A8D8B8D9C8D0E94CA0A26E636E646EE1B
:100BC0005EE30E943C0B6B017C016093DC0270933E
:100BD000DD028093DE029093DF0220E030E048ECFB
:100BE00052E4C301B2010E943C0B6093E002709397
:100BF000E1028093E2029093E30220E030E048ECCF
:100C000052E469817A818B819C810E943C0B6093C4
:100C1000E4027093E5028093E6029093E70220E0FD
:100C200030E048EC52E46D817E818F8198850E948E
:100C30003C0B6093E8027093E9028093EA02909380
:100C4000EB0220E030E048EC52E4C501B4010E9420
:100C50003C0B6093EC027093ED028093EE02909354
:100C6000EF0220E030E048EC52E4C701B6010E94F8
:100C70003C0B6093F0027093F1028093F202909328
:100C8000F30220EE31EA4CED50E4C301B2010E94C0
:100C90003C0B6093F4027093F5028093F6029093FC
:100CA000F70220EE31EA4CED50E469817A818B81C4
:100CB0009C810E943C0B6093F8027093F902809330
:100CC000FA029093FB0220EE31EA4CED50E46D8184
:100CD0007E818F8198850E943C0B6093FC0270930B
:100CE000FD028093FE029093FF0220EE31EA4CED6C
:100CF00050E4C501B4010E943C0B60930003709363
:100D00000103809302039093030320EE31EA4CED3C
:100D100050E4C701B6010E943C0B6093040370933A
:100D2000050380930603909307032BEA35E848E018
:100D30005EE3C301B2010E943C0B60930803709311
:100D4000090380930A0390930B032BEA35E848E0EC
:100D50005EE369817A818B819C810E943C0B609368
:100D60000C0370930D0380930E0390930F032BEAF3
:100D700035E848E05EE36D817E818F8198850E9431
:100D80003C0B6093100370931103809312039093B4
:100D900013032BEA35E848E05EE3C501B4010E9485
:100DA0003C0B609314037093150380931603909388
:100DB00017032BEA35E848E05EE3C701B6010E945D
:100DC0003C0B609318037093190380931A0390935C
:100DD0001B0320E030E040E055E469857A858B858F
:100DE0009C850E949B0C20E030EC4FE754E40E946D
:100DF0003C0B20E030E0A9010E94CB0A60931C0369
:100E000070931D0380931E0390931F0320E030E036
:100E100040E055E46D857E858F8598890E949B0C06
:100E200020E030EC4FE754E40E943C0B20E030E03F
:100E3000A9010E94CB0A6093200370932103809341
:100E400022039093230320E030E040E055E46989D9
:100E50007A898B899C890E949B0C20E030EC4FE7BB
:100E600054E40E943C0B20E030E0A9010E94CB0A30
:100E700060932403709325038093260390932703A4
:100E800020E030E040E055E46D897E898F89988DBF
:100E90000E949B0C20E030EC4FE754E40E943C0B96
:100EA00020E030E0A9010E94CB0A609328037093F0
:100EB000290380932A0390932B0320E030E040E045
:100EC00055E4698D7A8D8B8D9C8D0E949B0C20E062
:100ED00030EC4FE754E40E943C0B20E030E0A901E5
:100EE0000E94CB0A60932C0370932D0380932E03F2
:100EF00090932F038EE191E00E94D40184E391E06E
:100F00000E94D4018DE791E00E94850186E791E07F
:100F10000E9485018091AE029091AF020E94E00193
:100F20008CE791E00E9485018091B0029091B1021E
:100F30000E94E0018CE791E00E9485018091B2025D
:100F40009091B3020E94E0018CE791E00E9485013C
:100F50008091B4029091B5020E94E0018CE791E08B
:100F60000E9485018091B6029091B7020E94E00133
:100F70000E94E1008DE791E00E9485018FE791E0FA
:100F80000E9485016091B8027091B9028091BA0205
:100F90009091BB020E94ED028CE791E00E948501D6
:100FA0006091BC027091BD028091BE029091BF021F
:100FB0000E94ED028CE791E00E9485016091C002E1
:100FC0007091C1028091C2029091C3020E94ED0211
:100FD0008CE791E00E9485016091C4027091C50286
:100FE0008091C6029091C7020E94ED028CE791E0C9
:100FF0000E9485016091C8027091C9028091CA0265
:101000009091CB020E94E0028DE791E00E94850161
:1010100086E891E00E9485016091CC027091CD023A
:101020008091CE029091CF020E94ED028CE791E078
:101030000E9485016091D0027091D1028091D2020C
:101040009091D3020E94ED028CE791E00E9485010D
:101050006091D4027091D5028091D6029091D7020E
:101060000E94ED028CE791E00E9485016091D80218
:101070007091D9028091DA029091DB020E94ED0218
:101080008CE791E00E9485016091DC027091DD02A5
:101090008091DE029091DF020E94E0028DE791E0F4
:1010A0000E9485018CE891E00E9485016091E00238
:1010B0007091E1028091E2029091E3020E94ED02C0
:1010C0008CE791E00E9485016091E4027091E50255
:1010D0008091E6029091E7020E94ED028CE791E098
:1010E0000E9485016091E8027091E9028091EA0214
:1010F0009091EB020E94ED028CE791E00E94850145
:101100006091EC027091ED028091EE029091EF02FD
:101110000E94ED028CE791E00E9485016091F0024F
:101120007091F1028091F2029091F3020E94E0022C
:101130008DE791E00E94850182E991E00E9485019E
:101140006091F4027091F5028091F6029091F7029D
:101150000E94ED028CE791E00E9485016091F80207
:101160007091F9028091FA029091FB020E94ED02C7
:101170008CE791E00E9485016091FC027091FD0274
:101180008091FE029091FF020E94ED028CE791E0B7
:101190000E94850160910003709101038091020318
:1011A000909103030E94ED028CE791E00E9485017B
:1011B00060910403709105038091060390910703E9
:1011C0000E94E0028DE791E00E94850188E991E0AC
:1011D0000E948501609108037091090380910A03C0
:1011E00090910B030E94ED028CE791E00E94850133
:1011F00060910C0370910D0380910E0390910F0389
:101200000E94ED028CE791E00E948501609110033D
:101210007091110380911203909113030E94ED02CB
:101220008CE791E00E948501609114037091150391
:1012300080911603909117030E94ED028CE791E0D4
:101240000E948501609118037091190380911A031F
:1012500090911B030E94E0028DE791E00E948501BE
:101260008FE991E00E94850160911C0370911D033C
:1012700080911E0390911F030E94ED028CE791E084
:101280000E948501609120037091210380912203C7
:10129000909123030E94ED028CE791E00E9485016A
:1012A0006091240370912503809126039091270378
:1012B0000E94ED028CE791E00E9485016091280375
:1012C0007091290380912A0390912B030E94ED02D3
:1012D0008CE791E00E94850160912C0370912D03B1
:1012E00080912E0390912F030E94E00288EA91E002
:1012F0000E94D4018CE791E00E94850188ED91E085
:101300000E94850160913003709131038091320316
:10131000909133030E94ED028CE791E00E948501D9
:1013200060913403709135038091360390913703B7
:101330000E94ED028CE791E00E94850160913803E4
:101340007091390380913A0390913B030E94ED0222
:101350008CE791E00E94850160913C0370913D0310
:1013600080913E0390913F030E94ED028CE791E053
:101370000E94850160914003709141038091420376
:10138000909143030E94E0028DE791E00E94850165
:101390008FED91E00E9485016091440370914503B7
:1013A00080914603909147030E94ED028CE791E003
:1013B0000E948501609148037091490380914A031E
:1013C00090914B030E94ED028CE791E00E94850111
:1013D00060914C0370914D0380914E0390914F03A7
:1013E0000E94ED028CE791E00E948501609150031C
:1013F0007091510380915203909153030E94ED022A
:101400008CE791E00E94850160915403709155032F
:1014100080915603909157030E94E0028DE791E07E
:101420000E94850186EE91E00E948501609158033B
:101430007091590380915A0390915B030E94ED02D1
:101440008CE791E00E94850160915C0370915D03DF
:1014500080915E0390915F030E94ED028CE791E022
:101460000E94850160916003709161038091620325
:10147000909163030E94ED028CE791E00E94850148
:101480006091640370916503809166039091670396
:101490000E94ED028CE791E00E9485016091680353
:1014A0007091690380916A0390916B030E94E0023E
:1014B0008DE791E00E9485018DEE91E00E9485010B
:1014C00060916C0370916D0380916E0390916F0336
:1014D0000E94ED028CE791E00E948501609170030B
:1014E0007091710380917203909173030E94ED02D9
:1014F0008CE791E00E9485016091740370917503FF
:1015000080917603909177030E94ED028CE791E041
:101510000E948501609178037091790380917A032C
:1015200090917B030E94ED028CE791E00E9485017F
:1015300060917C0370917D0380917E0390917F0385
:101540000E94E0028DE791E00E9485010E944E0119
:101550007B0188EE882E83E0982EA12CB12C0E946E
:101560004E016E197F09683E7340C8F391E0891AF5
:101570009108A108B108A8E1EA1AACEFFA0A8114AF
:101580009104A104B10459F70E944A01D1C9F89409
:101590000C94350D5058BB27AA270E94E20A0C94E0
:1015A0005C0C0E944E0C38F00E94550C20F039F46F
:1015B0009F3F19F426F40C944B0C0EF4E095E7FBD6
:1015C0000C94450CE92F0E946D0C58F3BA17620772
:1015D00073078407950720F079F4A6F50C948F0C17
:1015E0000EF4E0950B2EBA2FA02D0B01B90190013E
:1015F0000C01CA01A0011124FF27591B99F0593F82
:1016000050F4503E68F11A16F040A22F232F342FC9
:101610004427585FF3CF469537952795A795F04017
:101620005395C9F77EF41F16BA0B620B730B840B2C
:10163000BAF09150A1F0FF0FBB1F661F771F881FE4
:10164000C2F70EC0BA0F621F731F841F48F487953C
:1016500077956795B795F7959E3F08F0B0CF93952E
:10166000880F08F09927EE0F9795879508950E94A7
:10167000210C08F481E008950E94500B0C945C0C3E
:101680000E94550C58F00E944E0C40F029F45F3F28
:1016900029F00C94450C51110C94900C0C944B0CAB
:1016A0000E946D0C68F39923B1F3552391F3951BB8
:1016B000550BBB27AA2762177307840738F09F5F73
:1016C0005F4F220F331F441FAA1FA9F335D00E2EE0
:1016D0003AF0E0E832D091505040E695001CCAF74D
:1016E0002BD0FE2F29D0660F771F881FBB1F261710
:1016F00037074807AB07B0E809F0BB0B802DBF01E7
:10170000FF2793585F4F3AF09E3F510578F00C94B5
:10171000450C0C94900C5F3FE4F3983ED4F386950F
:1017200077956795B795F7959F5FC9F7880F911DD6
:101730009695879597F90895E1E0660F771F881FC2
:10174000BB1F621773078407BA0720F0621B730B75
:10175000840BBA0BEE1F88F7E09508950E94B50B35
:101760006894B1110C94900C08950E94750C88F047
:101770009F5798F0B92F9927B751B0F0E1F0660F55
:10178000771F881F991F1AF0BA95C9F714C0B13096
:1017900091F00E948F0CB1E008950C948F0C672F8C
:1017A000782F8827B85F39F0B93FCCF386957795C5
:1017B0006795B395D9F73EF49095809570956195AE
:1017C0007F4F8F4F9F4F0895E89409C097FB3EF4D9
:1017D00090958095709561957F4F8F4F9F4F99237E
:1017E000A9F0F92F96E9BB279395F69587957795FC
:1017F0006795B795F111F8CFFAF4BB0F11F460FFBC
:101800001BC06F5F7F4F8F4F9F4F16C0882311F013
:1018100096E911C0772321F09EE8872F762F05C027
:10182000662371F096E8862F70E060E02AF09A95C2
:10183000660F771F881FDAF7880F9695879597F9B7
:101840000895990F0008550FAA0BE0E8FEEF161651
:101850001706E807F907C0F012161306E407F507A4
:1018600098F0621B730B840B950B39F40A2661F018
:10187000232B242B252B21F408950A2609F4A140BB
:10188000A6958FEF811D811D089597F99F6780E8C8
:1018900070E060E008959FEF80EC089500240A94C2
:1018A0001616170618060906089500240A9412163B
:1018B0001306140605060895092E0394000C11F46E
:1018C000882352F0BB0F40F4BF2B11F460FF04C01B
:1018D0006F5F7F4F8F4F9F4F089557FD9058440F74
:1018E000551F59F05F3F71F04795880F97FB991F7F
:1018F00061F09F3F79F0879508951216130614063C
:10190000551FF2CF4695F1DF08C0161617061806C8
:10191000991FF1CF86957105610508940895E894A3
:10192000BB2766277727CB0197F908950E94210CE2
:1019300008F48FEF08950E94AE0C0C945C0C0E948A
:101940004E0C38F00E94550C20F0952311F00C94A9
:10195000450C0C944B0C11240C94900C0E946D0CB3
:1019600070F3959FC1F3950F50E0551F629FF001F2
:10197000729FBB27F00DB11D639FAA27F00DB11D0B
:10198000AA1F649F6627B00DA11D661F829F222794
:10199000B00DA11D621F739FB00DA11D621F839F1B
:1019A000A00D611D221F749F3327A00D611D231FF1
:1019B000849F600D211D822F762F6A2F11249F573F
:1019C00050409AF0F1F088234AF0EE0FFF1FBB1F42
:1019D000661F771F881F91505040A9F79E3F510501
:1019E00080F00C94450C0C94900C5F3FE4F3983E0F
:1019F000D4F3869577956795B795F795E7959F5FAB
:101A0000C1F7FE2B880F911D9695879597F908953C
:101A10000E94210C880B990B0895A1E21A2EAA1B93
:101A2000BB1BFD010DC0AA1FBB1FEE1FFF1FA2178E
:101A3000B307E407F50720F0A21BB30BE40BF50B8B
:101A4000661F771F881F991F1A9469F76095709514
:101A5000809590959B01AC01BD01CF010895EE0FDB
:0E1A6000FF1F0590F491E02D0994F894FFCF3C
:101A6E00000000009F0076003A01FE001E01F30008
:101A7E006E616E00696E66006F7666002E00414CD8
:101A8E004C20505245535355524553207363616E4B
:101A9E00733A20002D2D2D2D2D2D2D2D2D2D2D2D4F
:101AAE002D2D2D2D2D2D2D2D2D2D2D2D2D2D2D2D58
:101ABE002D2D2D2D2D2D2D2D2D2D2D2D2D2D2D2D48
:101ACE002D2D2D2D2D2D2D2D2D2D2D2D2D2D2D2D38
:101ADE002D2D2D2D2D005241573A20002C20005631
:101AEE004F4C543A20004B50413A20004241523A5A
:101AFE0020005053493A20004D4D48473A20004DA2
:101B0E0041505045443A20002323232323232323EB
:101B1E002323232323232323232323232323232387
:101B2E002323232323232323232323232323232377
:101B3E0023232323232323004B5041323A200042F8
:101B4E004152323A2000505349323A20004D4D480E
:061B5E0047323A200000AE
:00000001FF
