:100000000C94D9020C9401030C9401030C947221FA
:100010000C941B220C94F7210C9401030C94010303
:100020000C9401030C9401030C9401030C94010340
:100030000C9401030C9401030C9401030C94010330
:100040000C942C1F0C9401030C949E1E0C94631EA4
:100050000C9401030C9401030C9401030C94010310
:100060000C9401030C9401037B18E918E918F318A8
:10007000B118F318F318F018E918E918F318F01884
:10008000F318F3183F194219451948194B194E191D
:100090005E195E195119541957195A19901F971F53
:1000A000A11FA91FB41FBC1FC41FCC1FD41FFD1F3D
:1000B0003B204D2055205D2005A84CCDB2D44EB933
:1000C0003836A9020C50B9918688083CA6AAAA2AFB
:1000D000BE000000803F4E414E494E495459494EA2
:1000E00046CDCCCC3D0AD7233C17B7D13877CC2BA3
:1000F000329595E6241FB14F0A000020410000C848
:100100004200401C4620BCBE4CCA1B0E5AAEC59DC8
:100110007400C201000100110011000C0000E10098
:10012000000A002500250021000096000019003972
:100130000039003600127A00001F004600460044D5
:10014000008070000022004D004D004A00004B006E
:10015000003600750075007200403800004A009CAF
:10016000009C009900802500007200EC00EC00E982
:1001700000C0120000E900DA01DA01D701600900CD
:1001800000D701B603B603B303B0040000B3036E97
:10019000076E076B07580200006E07DC0EDC0ED8F6
:1001A0000E2C010000DC0EC11DC11DBE1D3C4E61A8
:1001B0006E6F312069732072656164793E003C7214
:1001C00065616374696E675F6E65673E003C72656A
:1001D000616374696E675F706F733E003C70617439
:1001E0007465726E3E003C7472616E732D67616D52
:1001F000653E003C73746F702D67616D653E003C19
:100200006261636B5F6A6F79737469636B3E003C14
:1002100072696768742D6A6F79737469636B3E00E5
:100220003C66726F6E742D6A6F79737469636B3E8E
:10023000003C6C6566742D6A6F79737469636B3EFC
:10024000003C66726F6E747061743E003C72696748
:1002500068747061743E003C6C6566747061743ED5
:10026000003C666F6C6C6F77696E673E003C6E6F2A
:100270006C65643E003C7475726E313E003C626198
:10028000636B313E003C7269676874313E003C66C6
:10029000726F6E74313E003C6C656674313E003C9A
:1002A0006175746F6E6F6D6F75733E003B20003C1F
:1002B0006E616E6F313A20003E0020737563636596
:1002C000737366756C6C79207377697463686564A1
:1002D000003C4D6F64616C69747920003C686974FE
:1002E0005F6F6B3E003C6869745F6F6B3E003C68FB
:1002F00069745F6F6B3E003C6869745F6F6B3E00B2
:100300003C6869745F6F6B3E003C6875675F6F6B3C
:100310003E003C73686F76655F6F6B3E003C7371A7
:100320007565657A655F6F6B3E003C63686F6B65F2
:100330005F6F6B3E003C6361726573735F6F6B3E12
:10034000003C746F7563685F6F6B3E003C7175694C
:1003500065745F6F6B3E0000000000240027002AD8
:100360000000000007000201000003040600000076
:1003700000000000003E003C49276D207265736557
:1003800074000000000000000000000000000000F9
:100390000000000000000000000001010101010157
:1003A0000101010101010202020202020202030331
:1003B00003030303040404040505050505060606F6
:1003C000060707070808080909090A0A0A0B0B0BA0
:1003D0000C0C0D0D0D0E0E0F0F101011111212132B
:1003E0001314141515161617181819191A1B1B1C97
:1003F0001D1D1E1F1F2021222223242526262728DB
:10040000292A2A2B2C2D2E2F3031323334353637F2
:1004100038393A3B3C3D3E3F4041424445464748DF
:10042000494B4C4D4E50515254555658595A5C5D9B
:100430005E606163646667696A6C6D6F7072737524
:1004400077787A7C7D7F8182848688898B8D8F9175
:10045000929496989A9C9EA0A2A4A6A8AAACAEB08C
:10046000B2B4B6B8BABCBFC1C3C5C7CACCCED1D36B
:10047000D5D7DADCDFE1E3E6E8EBEDF0F2F5F7FA09
:10048000FCFF3C70726F6D70745F656E645F6F6BC4
:100490003E003C70726F6D70745F73746172745F54
:1004A0006F6B3E003C70726F6D70745F656E636F52
:1004B00075726167655F6F6B3E003C70726F6D7047
:1004C000745F617474655F6F6B3E003C7265776149
:1004D00072645F656E7465725F6F6B3E003C72653F
:1004E000776172645F67616D655F6F6B3E003C7240
:1004F00065776172645F6D617463685F6F6B3E0006
:100500003C7265776172645F736573735F6F6B3E96
:10051000003C7265776172645F6B6F5F6F6B3E006A
:100520003C7265776172645F6F6B5F6F6B3E003C1E
:10053000636F72726563745F616E735F6F6B3E00B1
:100540003C77726F6E675F616E735F6F6B3E00002A
:1005500000000023002600290000000000250028DC
:10056000002B000404040404040404020202020236
:100570000203030303030301020408102040800167
:1005800002040810200102040810203C656C617010
:100590007365643E003C416E7377657220616C72D6
:1005A0006561647920676976656E213E0000B02A36
:1005B0000A2D11241FBECFEFD8E0DEBFCDBF12E061
:1005C000A0E0B1E0E2EAFEE602C005900D92AA3A90
:1005D000B107D9F726E0AAEAB2E001C01D92A03A1D
:1005E000B207E1F712E0C8EDD2E004C02197FE01A6
:1005F0000E943E37C73DD107C9F70E94AC220C9438
:10060000F72D0C9400006091C6027091C70288EA31
:1006100095E00E94091C6AE271E088EA95E00E9478
:10062000AA226091C4027091C50288EA95E00E94F6
:10063000091C6AE271E088EA95E00E94AA226091B2
:10064000C2027091C30288EA95E00E94091C6AE226
:1006500071E088EA95E00E94AA226091C002709140
:10066000C10288EA95E00E94091C6AE088EA95E0E8
:100670000C94FD200F931F9361E0809153050E941D
:1006800066120E94201F6093620570936305809339
:100690006405909365050E94201F009162051091EA
:1006A00063052091640530916505085D1F4F2F4F4C
:1006B0003F4F601771078207930768F360E08091EE
:1006C00053050E94661261E0809154050E946612F3
:1006D0000E94201F609362057093630580936405F8
:1006E000909365050E94201F00916205109163059B
:1006F0002091640530916505085D1F4F2F4F3F4FD6
:10070000601771078207930768F360E080915405D2
:100710000E94661261E0809155050E9466120E9457
:10072000201F609362057093630580936405909326
:1007300065050E94201F00916205109163052091BC
:10074000640530916505085D1F4F2F4F3F4F6017BF
:1007500071078207930768F360E0809155050E9456
:10076000661261E0809156050E9466120E94201F69
:1007700060936205709363058093640590936505AB
:100780000E94201F0091620510916305209164056D
:1007900030916505085D1F4F2F4F3F4F6017710760
:1007A0008207930768F360E0809156050E94661205
:1007B00080914F050E94EF1297FD019695958795C0
:1007C0009093A1058093A005809150050E94EF129F
:1007D00097FD0196959587959093A3058093A20523
:1007E000809151050E94EF1297FD0196959587958E
:1007F0009093A5058093A405809152050E94EF1265
:1008000097FD0196959587959093A7058093A605EA
:100810002091A2053091A3053093C7022093C60210
:100820002091A4053091A5053093C5022093C40200
:100830009093C3028093C2028091A0059091A1057C
:100840009093C1028093C0021F910F9108950F935E
:10085000CF93DF9320913005222309F4BDC3EC012F
:100860001092300580912C0590912D059093CB022C
:100870008093CA020E943A030E94030368EF71E06A
:10088000CE010E949832892B09F04AC08CE493E093
:100890009F938F9384E593E09F938F930E94431CD3
:1008A0008091CA029091CB020F900F900F900F9001
:1008B000009781F4C5E0D0E008E220E03FEF4FEF81
:1008C00050E060E070E08FEF90E00E94DF0C219735
:1008D00099F782C38130910581F4C5E0D0E008E248
:1008E00020E03FEF4FEF50E060E070E08FEF90E0EE
:1008F0000E94DF0C219799F76FC3029709F06CC330
:10090000C5E0D0E008E220E03FEF4FEF50E060E0CC
:1009100070E08FEF90E00E94DF0C219799F75CC3A5
:1009200065E072E0CE010E949832892B09F077C011
:1009300081E493E09F938F9384E593E09F938F935B
:100940000E94431C0E949C2D22E030E040E050E0D9
:100950000E94CB307093C9026093C8020F900F9031
:100960000F900F90672B11F061E024C18091CA02B3
:100970009091CB02009791F4C4E8D3E06FEF70E060
:1009800080E090E00E945E092197C1F760E070E08E
:10099000CB01DF91CF910F910C945E0981309105CD
:1009A00059F440E06FEF85E10E94C71A40E06FEF15
:1009B00085E10E94C71A29C0029709F00DC342E3DE
:1009C00050E06FEF7CEC80E090E00E94360840E061
:1009D00050E060E070E0CB010E94360842E350E056
:1009E00069E07DE38DE090E00E94360840E050E051
:1009F00060E070E0CB010E94360842E350E06FEF08
:100A00007CEC80E090E00E94360840E050E060E03E
:100A100070E0CB01DF91CF910F910C9436086EEF0F
:100A200071E0CE010E949832892B09F076C085E3EF
:100A300093E09F938F9384E593E09F938F930E941D
:100A4000431C0E949C2D23E030E040E050E00E94D7
:100A5000CB307093C9026093C8020F900F900F9033
:100A60000F90672B29F461E082E090E00E94681803
:100A70008091C8029091C902019711F461E0A5C26A
:100A80008091CA029091CB02009779F442E360E032
:100A900073E380E090E00E94371A42E360E073E382
:100AA00080E090E00E94371AB0CF8130910589F440
:100AB00042E350E063E176E680E090E00E94F70BCD
:100AC00042E350E063E176E680E090E00E94F70BBD
:100AD0009CCF029709F080C265EE78EE8CE190E041
:100AE0000E945E0940E050E060E070E0CB010E94AF
:100AF000360868EE7CE18AED90E00E945E0940E0F5
:100B000050E060E070E0CB010E9436086EE278E0D1
:100B10008BE290E00E945E0978CF67E172E0CE013F
:100B20000E949832892B09F048C08AE293E09F9393
:100B30008F9384E593E09F938F930E94431C0E94C0
:100B40009C2D22E030E040E050E00E94CB307093DA
:100B5000C9026093C8020F900F900F900F90672BFF
:100B600041F18091CA029091CB02009779F442E35F
:100B700050E060E07FEF8FEF90E00E94360842E3A4
:100B800050E060E07FEF8FEF90E03DCF019702975C
:100B900008F022C242E360E07FEF8FEF90E00E9416
:100BA0000C0B42E360E070E08FEF90E00E940C0BD2
:100BB0002CCF60E081E090E00AC26BE072E0CE01F1
:100BC0000E949832892B09F0ADC08DE193E09F938C
:100BD0008F9384E593E09F938F930E94431C0E9420
:100BE0009C2D22E030E040E050E00E94CB3070933A
:100BF000C9026093C8020F900F900F900F90672B5F
:100C000009F48CC08091CA029091CB02009709F53B
:100C100069E073E18DE390E00E94170840E050E046
:100C200060E070E0CB010E94360860E078E88FEF6A
:100C300090E00E94170840E050E060E070E0CB01D7
:100C40000E94360869E073E18DE390E00E94170886
:100C5000DCCE8130910599F54FEF60E08FEF0E9477
:100C6000600A4FEF60E08FEF0E94C3090E94F20B11
:100C70004FEF60E08FEF0E94600A4FEF60E08FEF70
:100C80000E94C3090E94F20B4FEF60E08FEF0E94B9
:100C9000600A4FEF60E08FEF0E94C3090E94F20BE1
:100CA0004FEF60E08FEF0E94600A4FEF60E08FEF40
:100CB0000E94C309DF91CF910F910C94F20B029720
:100CC00009F08AC102E32BED39E04AE150E06FEB15
:100CD00070E08FEF90E00E94DF0C40E050E060E0B9
:100CE00070E0CB010E94360842E350E06FEF76E6F9
:100CF0008FEF90E00E94650840E050E060E070E017
:100D0000CB010E9436082BED39E04AE150E06FEB51
:100D100070E08FEF90E00E94DF0C77CE61E085E01D
:100D200090E055C16DE172E0CE010E949832892BAE
:100D300009F080C082E193E09F938F9384E593E074
:100D40009F938F930E94431C0E949C2D22E030E0D1
:100D500040E050E00E94CB307093C9026093C8021B
:100D60000F900F900F900F90672B09F491C0809116
:100D7000CA029091CB02009729F542E350E060E06F
:100D800076E68FEF90E00E94650840E050E060E07A
:100D900070E0CB010E94360842E350E060E076E666
:100DA0008FEF90E00E94650840E050E060E070E066
:100DB000CB010E94360842E350E060E076E68FEF18
:100DC00090E0CCC00197029708F006C142E350E0E2
:100DD00066E676E68FEF90E00E94650840E050E01E
:100DE00060E070E0CB010E94360842E350E066E626
:100DF00076E68FEF90E00E94650840E050E060E00A
:100E000070E0CB010E94360842E350E066E676E6E9
:100E10008FEF90E00E94650840E050E060E070E0F5
:100E2000CB010E94360842E350E066E676E68FEF9B
:100E300090E094C063E172E0CE010E949832892B69
:100E400059F589E093E09F938F9384E593E09F9316
:100E50008F930E94431C0E949C2D23E030E040E0D1
:100E600050E00E94CB307093C9026093C8020F908B
:100E70000F900F900F90672B29F461E084E090E0D1
:100E80000E9468188091C8029091C902019761F48C
:100E900060E082E090E09BC069EB71E0CE010E94CF
:100EA0009832892B59F4CDCF8091CA029091CB0210
:100EB000039708F091C00E943617A7CD63E272E055
:100EC000CE010E949832892B09F04BC080E093E05C
:100ED0009F938F9384E593E09F938F930E94431C8D
:100EE0000E949C2D22E030E040E050E00E94CB3098
:100EF0007093C9026093C8020F900F900F900F90EB
:100F0000672B09F461C08091CA029091CB020397CC
:100F100008F062C042E350E060E070E08FEF90E0E4
:100F20000E94650840E050E060E070E0CB010E9464
:100F3000360842E350E060E070E08FEF90E00E94FE
:100F4000650840E050E060E070E0CB010E943608A8
:100F500042E350E060E070E08FEF90E00E946508AF
:100F600054CD6FE672E0CE010E949832892B19F4BD
:100F700087EF92E01DC067E772E0CE010E949832D1
:100F8000892B19F48EEE92E013C060E872E0CE0176
:100F90000E949832892B19F485EE92E009C069E825
:100FA00072E0CE010E949832892BB1F48CED92E070
:100FB0009F938F9384E593E09F938F930E94431CAC
:100FC0000F900F900F900F9060E084E090E0DF9121
:100FD000CF910F910C946818DF91CF910F910895E4
:100FE000CF93DF93209130052223F1F0EC01109292
:100FF000300590939B0380939A0381ED92E00E94C9
:10100000EF1BBE0184E593E00E94091C8AEB92E08D
:101010000E94EF1B88EB92E00E94EF1B84E593E0B7
:10102000DF91CF910C94DB1BDF91CF910895CF928C
:10103000DF92EF92FF92CF936B017C01C0E08C2F87
:1010400090E020913B0530913C058217930740F4D6
:10105000B701A6010E94521D0E94921CCD5FEFCFE6
:10106000CF91FF90EF90DF90CF9008958F929F9255
:10107000AF92BF92CF92DF92EF92FF92CF934B014C
:101080005C01C0E06A01550FEE08FF088C2F90E06C
:1010900020913B0530913C058217930760F4B50120
:1010A000A4010E94521D0E94921CC701B6010E9419
:1010B000FA1ECF5FEBCFCF91FF90EF90DF90CF90F4
:1010C000BF90AF909F908F9008958F929F92AF9214
:1010D000BF92CF92DF92EF92FF92CF934B015C01D0
:1010E000C0E06A01550FEE08FF088C2F90E02091B8
:1010F0003B0530913C058217930760F4B501A401CC
:101100000E94521D0E94921CC701B6010E94FA1E45
:10111000CD5FEBCFCF91FF90EF90DF90CF90BF905E
:10112000AF909F908F9008952F923F924F925F9231
:101130006F927F928F929F92AF92BF92CF92DF92E7
:10114000EF92FF920F931F93CF93DF93CDB7DEB74C
:101150002E970FB6F894DEBF0FBECDBF1E861D863C
:10116000E82EF12C00E010E0E982FA820B831C8368
:10117000E62EF12C00E010E0ED82FE820F8318874E
:10118000E42EF12C00E010E0E986FA860B871C873C
:10119000822E912CA12CB12C80913B0590913C0585
:1011A0000D851E850817190708F06FC000E010E0D4
:1011B00018010F5F1F4F80913B0590913C05281649
:1011C000390608F055C06D857E85600F711F072EAA
:1011D000000C880B990B0E94AB2F0E94E93320E092
:1011E00030E04EEF52E40E940A3020E030E040E070
:1011F00053E40E94D53220E030E04FE753E40E94F0
:1012000041332B013C0169817A818B819C810E9451
:10121000AB2FA30192010E940A300E94BA33C62E5E
:10122000D12CE12CF12C7601DD24CC246D817E8142
:101230008F8198850E94AB2FA30192010E940A30F2
:101240000E94BA33D62A69857A858B859C850E944F
:10125000AB2FA30192010E940A300E94BA33D7013A
:10126000C601862BAC01BD01C1010E94521DA0CF59
:101270000E94921CC501B4010E94FA1E0D851E85B4
:101280000F5F1F4F1E870D8787CF2E960FB6F894DE
:10129000DEBF0FBECDBFDF91CF911F910F91FF90A9
:1012A000EF90DF90CF90BF90AF909F908F907F9006
:1012B0006F905F904F903F902F900895CF92DF9264
:1012C000EF92FF92CF936B017C01C0E08C2F90E0F6
:1012D00020913B0530913C058217930740F4B701FC
:1012E000A6010E94521D0E94921CCF5FEFCFCF91AA
:1012F000FF90EF90DF90CF900895E0913B05F09143
:101300003C058E179F07F0F530914105332361F0BE
:10131000639FB0011124672F349FA0011124452F32
:10132000329F90011124232F30914705509144059D
:10133000E0914205F0914305351308C0DC01AA0F86
:10134000BB1F8A0F9B1F8E0F9F1F0AC0880F991FFC
:10135000880F991F8E0F9F1FFC01E30FF11D108254
:1013600030914405FC01E30FF11D60833091450588
:10137000FC01E30FF11D408330914605FC01E30FB2
:10138000F11D20830895AF92BF92CF92DF92EF922A
:10139000FF920F931F93CF93DF93E82EB62EA42EC8
:1013A000C0913B05D0913C052997D695C7952AE079
:1013B000842F622F0E940A37F82E8B2D0E940A3745
:1013C000082F8E2D0E940A37182FC12CD12C809106
:1013D0003B0590913C05C816D90650F420E040E04A
:1013E00060E0C6010E947D098FEFC81AD80AEFCFCE
:1013F0002F2D402F612FCE010E947D09CC24C39454
:10140000D12C2A2D4B2D6E2DC6018C0F9D1F0E94B5
:101410007D098FEFC81AD80A8AE0C816D10489F767
:101420002F2D402F612FCE010A960E947D098091B9
:101430003B0590913C052F2D402F612F8C1B9D0B60
:101440000E947D09CC24C394D12C80913B059091BE
:101450003C058C1B9D0B2A2D4B2D6E2D8C199D0947
:101460000E947D098FEFC81AD80A8AE0C816D104F5
:1014700061F780913B0590913C050A972F2D402FF5
:10148000612F8C1B9D0B0E947D090E94921C64E1C0
:1014900070E080E090E00E94FA1E219708F095CF5E
:1014A0006EE170E080E090E0DF91CF911F910F91AD
:1014B000FF90EF90DF90CF90BF90AF900C94FA1E0A
:1014C000AF92BF92CF92DF92EF92FF920F931F9352
:1014D000CF93DF93E82EB62EA42E2AE0842F622F1E
:1014E0000E940A37F82E8B2D0E940A37082F8E2D66
:1014F0000E940A37182FC0E0D0E080913B05909100
:101500003C050997969587958C179D0708F46AC046
:10151000C12CD12C80913B0590913C05C816D90671
:1015200050F420E040E060E0C6010E947D098FEFAA
:10153000C81AD80AEFCF2F2D402F612FCE010E945D
:101540007D09CC24C394D12C2A2D4B2D6E2DC601A0
:101550008C0F9D1F0E947D098FEFC81AD80A8AE060
:10156000C816D10489F72F2D402F612FCE010A967E
:101570000E947D0980913B0590913C052F2D402FC5
:10158000612F8C1B9D0B0E947D09CC24C394D12C10
:1015900080913B0590913C058C1B9D0B2A2D4B2D7A
:1015A0006E2D8C199D090E947D098FEFC81AD80AEB
:1015B0008AE0C816D10461F780913B0590913C0503
:1015C0000A972F2D402F612F8C1B9D0B0E947D09A8
:1015D0000E94921C64E170E080E090E00E94FA1E9C
:1015E00021968BCF6EE170E080E090E0DF91CF91AB
:1015F0001F910F91FF90EF90DF90CF90BF90AF9031
:101600000C94FA1EE1E3F5E04485558560E070E056
:10161000818992890C9486324F925F926F927F9269
:101620008F929F92AF92BF92CF92DF92EF92FF92F2
:10163000CF93DF934B015C01C42E0E94020BC0E0EC
:10164000D0E04C2C512C612C712C80913B05909159
:101650003C0596958795C817D90730F0C0E0D0E0D3
:10166000D12CE12CF12C1AC0B501A4018C0F9D1FC7
:101670000E94521D80913B0590913C05969587955F
:10168000B501A4018C1B9D0B0E94521D0E94921C4F
:10169000C301B2010E94FA1E2196D7CF80913B056B
:1016A00090913C0596958795C817D907C8F440E0F6
:1016B00050E0BA01CE010E94521D80913B059091ED
:1016C0003C0540E050E0BA018C1B9D0B0E94521D6E
:1016D0000E94921CC701B6010E94FA1E2196DECF1D
:1016E000DF91CF91FF90EF90DF90CF90BF90AF90C0
:1016F0009F908F907F906F905F904F9008954F9242
:101700005F926F927F928F929F92AF92BF92CF9291
:10171000DF92EF92FF92CF93DF934B015C01C42ED7
:101720000E94020BC0E0D0E04C2C512C612C712C9B
:1017300080913B0590913C0596958795C817D907F0
:1017400030F0C0E0D0E0D12CE12CF12C17C0B50175
:10175000A401CE010E94521D80913B0590913C0551
:10176000B501A4018C1B9D0B0E94521D0E94921C6E
:10177000C301B2010E94FA1E2296DACF80913B0586
:1017800090913C0596958795C817D907E0F440E0FD
:1017900050E0BA018C0F9D1F0E94521D80913B05A5
:1017A00090913C059695879540E050E0BA018C1BDE
:1017B0009D0B0E94521D0E94921CC701B6010E94FF
:1017C000FA1E2196DBCFDF91CF91FF90EF90DF9053
:1017D000CF90BF90AF909F908F907F906F905F90D1
:1017E0004F90089560E070E0CB010C945E098F92F9
:1017F0009F92AF92BF92CF92DF92EF92FF921F9390
:10180000CF93DF934B015C01DDE06A01550FEE08D9
:10181000FF08C0E00E94020B1C2F812F90E0209156
:101820003B0530913C058217930730F4B501A401C4
:101830000E94521D1D5FF1CF0E94921CC701B6018C
:101840000E94FA1ECF5FC33029F7D15011F7DF9104
:10185000CF911F91FF90EF90DF90CF90BF90AF900E
:101860009F908F9008954F925F926F927F928F9288
:101870009F92AF92BF92CF92DF92EF92FF920F931F
:101880001F93CF93DF93CDB7DEB72A970FB6F894A7
:10189000DEBF0FBECDBF182F0E94020B1A8619861D
:1018A000C12CD12C7601CA94812F90E0A0E0B0E049
:1018B0008D839E83AF83B88780913B0590913C05D3
:1018C000A985BA85A817B90708F062C00E949C2DA7
:1018D0002B013C010E949C2D4B015C010E949C2D20
:1018E00069837A838B839C83C301B201A70196012C
:1018F0000E94CB302B013C01552466247724320111
:1019000055244424C501B401A70196010E94CB309F
:10191000DC01CB019927AA27BB27BA2FA92F982F23
:101920008827482A592A6A2A7B2A69817A818B81E9
:101930009C81A70196010E94CB30462A00E010E06E
:1019400080913B0590913C0529853A85821B930B3C
:1019500008171907B8F440E050E0BA01C801019730
:101960000E94521DB301A201C8010E94521D0E9493
:10197000921C6D817E818F8198850E94FA1E0C5F7A
:101980001F4FDECF89859A8504969A87898794CFE1
:101990002A960FB6F894DEBF0FBECDBFDF91CF9170
:1019A0001F910F91FF90EF90DF90CF90BF90AF907D
:1019B0009F908F907F906F905F904F9008954F927F
:1019C0005F926F927F928F929F92AF92BF92CF92CF
:1019D000DF92EF92FF920F934B015C0169017A0154
:1019E000AB01BC0180E090E00E94521DB701A6014E
:1019F00081E090E00E94521DB501A40182E090E0D8
:101A00000E94521DB701A60183E090E00E94521D82
:101A1000B501A40184E090E00E94521DB701A60127
:101A200085E090E00E94521DB501A40186E090E09F
:101A30000E94521DB701A60187E090E00E94521D4E
:101A4000B501A40188E090E00E94521DB701A601F3
:101A500089E090E00E94521DB501A4018AE090E067
:101A60000E94521DB701A6018BE090E00E94521D1A
:101A7000B501A4018CE090E00E94521DB701A601BF
:101A80008DE090E00E94521DB501A4018EE090E02F
:101A90000E94521DB701A6018FE090E00E94521DE6
:101AA000B501A40180E190E00E94521DB701A6019A
:101AB00081E190E00E94521DB501A40182E190E015
:101AC0000E94521DB701A60183E190E00E94521DC1
:101AD000B501A40184E190E00E94521DB701A60166
:101AE00085E190E00E94521DB501A40186E190E0DD
:101AF0000E94521DB701A60187E190E00E94521D8D
:101B0000B501A40188E190E00E94521DB701A60131
:101B100089E190E00E94521DB501A4018AE190E0A4
:101B20000E94521DB701A6018BE190E00E94521D58
:101B3000B501A4018CE190E00E94521DB701A601FD
:101B40008DE190E00E94521DB501A4018EE190E06C
:101B50000E94521DB701A6018FE190E00E94521D24
:101B6000B501A40180E290E00E94521DB701A601D8
:101B700081E290E00E94521DB501A40182E290E052
:101B80000E94521DB701A60183E290E00E94521DFF
:101B9000B501A40184E290E00E94521DB701A601A4
:101BA00085E290E00E94521DB501A40186E290E01A
:101BB0000E94521DB701A60187E290E00E94521DCB
:101BC000B501A40188E290E00E94521DB701A60170
:101BD00089E290E00E94521DB501A4018AE290E0E2
:101BE0000E94521DB701A6018BE290E00E94521D97
:101BF000B501A4018CE290E00E94521DB701A6013C
:101C00008DE290E00E94521DB501A4018EE290E0A9
:101C10000E94521DB701A6018FE290E00E94521D62
:101C2000B501A40180E390E00E94521DB701A60116
:101C300081E390E00E94521DB501A40182E390E08F
:101C40000E94521DB701A60183E390E00E94521D3D
:101C5000B501A40184E390E00E94521DB701A601E2
:101C600085E390E00E94521DB501A40186E390E057
:101C70000E94521DB701A60187E390E00E94521D09
:101C8000B501A40188E390E00E94521DB701A601AE
:101C900089E390E00E94521DB501A4018AE390E01F
:101CA0000E94521DB701A6018BE390E00E94521DD5
:101CB000B501A4018CE390E00E94521D0E94921C89
:101CC000402E512C612C712CC301B2010E94FA1ECE
:101CD00040E050E060E070E0CB010E943608B701C0
:101CE000A60180E090E00E94521DB501A40181E0B0
:101CF00090E00E94521DB701A60182E090E00E9490
:101D0000521DB501A40183E090E00E94521DB7016D
:101D1000A60184E090E00E94521DB501A40185E077
:101D200090E00E94521DB701A60186E090E00E945B
:101D3000521DB501A40187E090E00E94521DB70139
:101D4000A60188E090E00E94521DB501A40189E03F
:101D500090E00E94521DB701A6018AE090E00E9427
:101D6000521DB501A4018BE090E00E94521DB70105
:101D7000A6018CE090E00E94521DB501A4018DE007
:101D800090E00E94521DB701A6018EE090E00E94F3
:101D9000521DB501A4018FE090E00E94521DB701D1
:101DA000A60180E190E00E94521DB501A40181E1ED
:101DB00090E00E94521DB701A60182E190E00E94CE
:101DC000521DB501A40183E190E00E94521DB701AC
:101DD000A60184E190E00E94521DB501A40185E1B5
:101DE00090E00E94521DB701A60186E190E00E949A
:101DF000521DB501A40187E190E00E94521DB70178
:101E0000A60188E190E00E94521DB501A40189E17C
:101E100090E00E94521DB701A6018AE190E00E9465
:101E2000521DB501A4018BE190E00E94521DB70143
:101E3000A6018CE190E00E94521DB501A4018DE144
:101E400090E00E94521DB701A6018EE190E00E9431
:101E5000521DB501A4018FE190E00E94521DB7010F
:101E6000A60180E290E00E94521DB501A40181E22A
:101E700090E00E94521DB701A60182E290E00E940C
:101E8000521DB501A40183E290E00E94521DB701EA
:101E9000A60184E290E00E94521DB501A40185E2F2
:101EA00090E00E94521DB701A60186E290E00E94D8
:101EB000521DB501A40187E290E00E94521DB701B6
:101EC000A60188E290E00E94521DB501A40189E2BA
:101ED00090E00E94521DB701A6018AE290E00E94A4
:101EE000521DB501A4018BE290E00E94521DB70182
:101EF000A6018CE290E00E94521DB501A4018DE282
:101F000090E00E94521DB701A6018EE290E00E946F
:101F1000521DB501A4018FE290E00E94521DB7014D
:101F2000A60180E390E00E94521DB501A40181E367
:101F300090E00E94521DB701A60182E390E00E944A
:101F4000521DB501A40183E390E00E94521DB70128
:101F5000A60184E390E00E94521DB501A40185E32F
:101F600090E00E94521DB701A60186E390E00E9416
:101F7000521DB501A40187E390E00E94521DB701F4
:101F8000A60188E390E00E94521DB501A40189E3F7
:101F900090E00E94521DB701A6018AE390E00E94E2
:101FA000521DB501A4018BE390E00E94521DB701C0
:101FB000A6018CE390E00E94521D0E94921CC30176
:101FC000B2010E94FA1E40E050E060E070E0CB01F8
:101FD0000F91FF90EF90DF90CF90BF90AF909F90C8
:101FE0008F907F906F905F904F900C9436080F9376
:101FF0001F93CF93DF938C01EB010E949C2D22E075
:1020000030E040E050E00E94CB309B0170933905F6
:10201000609338050B30110509F4EDC024F40A3043
:10202000110551F002C20C30110509F47CC10D30CC
:10203000110509F4AEC1F9C1C130D10509F05DC087
:1020400061E972E084E593E00E94AA220E94201FC9
:10205000AB01BC012AE084E593E00E94542268E9C8
:1020600072E084E593E00E94AA22409131055091EC
:10207000320560913305709134052AE084E593E0E0
:102080000E9454228091380590913905892BD9F00E
:102090000E94201F009131051091320520913305D7
:1020A000309134050053184F2F4F3F4F6017710781
:1020B0008207930708F04CC060E073E38CEC90E07B
:1020C0000E941708E5CF0E94201F00913105109152
:1020D000320520913305309134050053184F2F4FAE
:1020E0003F4F601771078207930790F560E073E335
:1020F0008CEC90E00E941708E6CFC230D105B9F50C
:1021000065EF79E785E090E0232B41F10E94170805
:102110000E94F20B65EF79E785E090E00E941708D6
:102120000E94F20B65EF79E785E090E00E941708C6
:102130000E94F20B65EF79E785E090E00E941708B6
:102140000E94F20B65EF79E785E090E00E941708A6
:10215000DF91CF911F910F910C94F20B0E94170801
:102160000E94F20B65EF79E785E090E0CFCF2397EF
:1021700009F05BC1672B11F147E26BED79E083E178
:1021800090E00E947F0B47E26BED79E083E190E005
:102190000E947F0B4AE06EE87DE08DEB90E00E94AC
:1021A0001E184AE06EE87DE08DEB90E00E941E185C
:1021B0004AE06EE87DE08DEB90E01AC044E160E01B
:1021C00070E08FEF90E00E941E1844E160E070E044
:1021D0008FEF90E00E941E1844E160E070E08FEF06
:1021E00090E00E941E1844E160E070E08FEF90E004
:1021F0000E941E18ADCFC130D105B1F4C6E4D0E0C5
:10220000672B49F06FE078EA8BED90E00E941708A9
:102210002197C1F79DCF69E073E88DEE90E00E94B1
:102220005E092197C1F794CFC230D10509F044C0AF
:10223000672BE9F06BED7FE08EE690E00E941708D7
:102240000E94F20B6BED7FE08EE690E00E94170893
:102250000E94F20B6BED7FE08EE690E00E94170883
:102260000E94F20B6BED7FE08EE690E06FCF4EE1C7
:1022700050E060E072E785EF90E00E9436080E942F
:10228000F20B4EE150E060E072E785EF90E00E94D3
:1022900036080E94F20B4EE150E060E072E785EFF5
:1022A00090E00E9436080E94F20B4EE150E060E0A0
:1022B00072E785EF90E08BC0239709F0B6C0672BDB
:1022C000C9F04EE16EE47FEB89E190E00E940C0BD7
:1022D0004EE16EE47FEB89E190E00E940C0B4EE151
:1022E0006EE47FEB89E190E0DF91CF911F910F9138
:1022F0000C940C0B47E262E07BE38DE090E00E94DF
:102300007F0B47E262E07BE38DE090E00E947F0B71
:1023100047E262E07BE38DE090E0DF91CF911F9197
:102320000F910C947F0BC130D10579F442E350E05A
:102330006EE47FEB89E190E00E94360842E350E0D2
:102340006EE47FEB89E190E042C0C230D10549F4F0
:1023500044E650E06FE87CE287E290E00E94F70BF1
:10236000F7CE239709F061C0672B19F00E9436174A
:10237000EFCEC5E0D0E008E225EF39E745E050E0D8
:1023800060E070E08FEF90E00E94DF0C219799F7FA
:102390004CC0C130D105F1F4672B59F0C2E3D0E055
:1023A00060E072E785EF90E00E945E092197C1F737
:1023B000CFCE4EE150E069E676E084E490E00E9402
:1023C00036084EE150E069E676E084E490E00E9451
:1023D0003608BECEC230D105C1F446E065E189E6DB
:1023E0000E94CA194AE761E089E10E945F1946E04C
:1023F00065E189E60E94CA194AE761E089E1DF9157
:10240000CF911F910F910C945F19239771F440E0C5
:1024100069E98CEC0E94600A40E060E08CECDF919E
:10242000CF911F910F910C94C309DF91CF911F9110
:102430000F91089587E793E00E94EF1B85E793E0F3
:102440000E94EF1B84E593E00C94DB1B0F931F931A
:102450000E94201F6093B0057093B1058093B20570
:102460009093B30588EA95E00E946B2097FF1FC008
:102470000E94201F0091B0051091B1052091B20576
:102480003091B305DC01CB01801B910BA20BB30B88
:102490000091AC051091AD052091AE053091AF05CE
:1024A00080179107A207B307E8F28FEF9FEF1F9104
:1024B0000F910895DC015196ED91FC915297908116
:1024C00050968C91809589238083089590E0FC013B
:1024D000EF59FC4F2491FC01E958FA4F3491FC016B
:1024E000ED59FA4FE491EE2309F43CC0222339F16F
:1024F000233091F038F42130A9F0223001F584B571
:102500008F7D12C0263091F02730A1F02430B9F42D
:10251000809180008F7D03C0809180008F778093B1
:1025200080000DC084B58F7784BD09C08091B00054
:102530008F7703C08091B0008F7D8093B000F0E072
:10254000EE0FFF1FE75AFA4FA591B4919FB7F89489
:10255000611104C08C913095382302C0EC913E2B60
:102560003C939FBF0895CF93DF9390E0FC01E9581F
:10257000FA4F2491FC01ED59FA4F8491882361F1BF
:1025800090E0880F991FFC01E95AFC4FC591D49146
:10259000FC01E75AFA4FA591B491611109C09FB7A8
:1025A000F8948881209582238883EC912E230BC098
:1025B000623061F49FB7F8948881322F309583237D
:1025C0008883EC912E2B2C939FBF06C08FB7F89475
:1025D000E8812E2B28838FBFDF91CF9108958E3015
:1025E00008F08E508770806480937C0080917A0020
:1025F000806480937A0080917A0086FDFCCF809180
:1026000078002091790090E0922B08954F925F928C
:102610006F927F928F929F92AF92BF92CF92DF92F2
:10262000EF92FF920F931F93CF93DF9300D000D0D0
:1026300000D0CDB7DEB78C017A8369830E949C2DD0
:1026400022E030E040E050E00E94CB30AB01BC0122
:10265000CA0150933905409338050430110509F437
:102660008EC144F40230110581F00330110509F4E4
:10267000DFC0E5C30630110509F4A5C20CF4FEC1A4
:102680000730110509F417C3DAC329813A812130D3
:10269000310541F5892B09F047C24EE150E060E079
:1026A00072E785EF90E00E94360840E050E060E07D
:1026B00070E0CB010E9436084EE150E060E072E726
:1026C00085EF90E00E94360840E050E060E070E066
:1026D000CB010E9436084EE150E060E072E785EFE2
:1026E00090E0F7C029813A812230310509F08AC093
:1026F000892B09F098C00E94020B88E290E09E832B
:102700008D83812C912C54018A940E949C2D2B0145
:102710003C010E949C2D6B017C010E949C2D6983D1
:102720007A838B839C83C701B601A50194010E9423
:10273000CB306B017C01DD24EE24FF24FE2CED2C3C
:10274000DC2CCC2469817A818B819C81A501940148
:102750000E94CB30DC01CB019927AA27BB27DC01E3
:1027600099278827C82AD92AEA2AFB2AC301B20155
:10277000A50194010E94CB30C62A40903B055090A1
:102780003C05612C712C411451046104710441F029
:102790000E949C2DA30192010E94CB302B013C0191
:1027A000B701A601C2010E94521D0E94921C62E361
:1027B00070E080E090E00E94FA1E2D813E81215061
:1027C00031093E832D83232B09F09FCF62E370E014
:1027D00080E090E026960FB6F894DEBF0FBECDBF26
:1027E000DF91CF911F910F91FF90EF90DF90CF90ED
:1027F000BF90AF909F908F907F906F905F904F9021
:102800000C94FA1E29813A812330310509F017C34F
:10281000892B49F040E06FEF85E10E94C71A4EE432
:102820006FEB89E1A9C16AE77BED8DE490E00CC014
:1028300029813A8121303105F9F4892B09F074C1DD
:1028400060E072E785EF90E026960FB6F894DEBF61
:102850000FBECDBFDF91CF911F910F91FF90EF90F1
:10286000DF90CF90BF90AF909F908F907F906F90B0
:102870005F904F900C945E0929813A812230310596
:1028800009F04AC0892B09F443C04EE150E062E4EC
:102890007DE68EE990E00E94360840E050E060E07E
:1028A00070E0CB010E9436084EE150E062E47DE624
:1028B0008EE990E00E94360840E050E060E070E071
:1028C000CB010E9436084EE150E062E47DE68EE9DD
:1028D00090E00E94360840E050E060E070E0CB01FC
:1028E00026960FB6F894DEBF0FBECDBFDF91CF9115
:1028F0001F910F91FF90EF90DF90CF90BF90AF901E
:102900009F908F907F906F905F904F900C943608BF
:1029100046E36CE187EC65C029813A8123303105BB
:1029200009F08DC2892B31F04AE066E272E08BEE4D
:1029300090E0CDC14EE150E065E17FE283EA90E0B6
:102940000E94360840E050E060E070E0CB010E9459
:1029500036084EE150E066E272E08BEE90E00E94B5
:10296000360840E050E060E070E0CB010E9436089D
:102970004EE150E060E070E08FEF90E0AACF298157
:102980003A812130310519F5892B09F0CDC045E098
:102990006DE885EF0E94C30940E060E08CEC26966C
:1029A0000FB6F894DEBF0FBECDBFDF91CF911F9160
:1029B0000F91FF90EF90DF90CF90BF90AF909F90DE
:1029C0008F907F906F905F904F900C94C3092981F6
:1029D0003A8122303105F1F5892B01F145E06DE8AE
:1029E00085EF0E945F1946E36CE187EC26960FB6EF
:1029F000F894DEBF0FBECDBFDF91CF911F910F9135
:102A0000FF90EF90DF90CF90BF90AF909F908F900E
:102A10007F906F905F904F900C94CA1988E20E944B
:102A2000330C88E226960FB6F894DEBF0FBECDBFFA
:102A3000DF91CF911F910F91FF90EF90DF90CF909A
:102A4000BF90AF909F908F907F906F905F904F90CE
:102A50000C94330C29813A812330310509F0EFC100
:102A6000892B39F042E350E065E07DE885EF90E0A6
:102A7000CEC128E245E06DE885EF83C129813A8126
:102A80002130310539F5892B09F04EC048E260E06C
:102A90007FEF80E090E00E947F0B48E260E07FEFF4
:102AA00080E090E026960FB6F894DEBF0FBECDBF53
:102AB000DF91CF911F910F91FF90EF90DF90CF901A
:102AC000BF90AF909F908F907F906F905F904F904E
:102AD0000C947F0B29813A8122303105E9F5892B4D
:102AE00069F060E072E785EF90E00E945E0960E0C7
:102AF00072E785EF90E00E945E09A2CE6FE070E27F
:102B000086EA90E00E945E090E94F20B6FE078E88E
:102B100086EA90E00E945E090E94F20B69E073E28F
:102B20008BEE90E00E945E0926960FB6F894DEBF09
:102B30000FBECDBFDF91CF911F910F91FF90EF900E
:102B4000DF90CF90BF90AF909F908F907F906F90CD
:102B50005F904F900C94F20B29813A81233031051C
:102B600009F06DC1892B01F14BE269E080E80E9418
:102B7000C71A4DE76FE480EF26960FB6F894DEBFD4
:102B80000FBECDBFDF91CF911F910F91FF90EF90BE
:102B9000DF90CF90BF90AF909F908F907F906F907D
:102BA0005F904F900C94C71A4EE150E063E17DE6D0
:102BB00084E990E00E9436084EE150E063E17DE652
:102BC00084E990E08DCE29813A8121303105A1F44C
:102BD000892B09F0A9CF62EC7BE18EEA90E00E949C
:102BE0005E0962EC7BE18EEA90E00E945E0962EC95
:102BF0007BE18EEA90E028CE29813A8122303105AE
:102C0000E1F4892B89F068EE75E182EA90E00E9498
:102C10005E0968EE75E182EA90E00E945E0968EE66
:102C200075E182EA90E010CE48EB61EA81E20E9411
:102C3000C71A46E36EE282E09FCF29813A812330B2
:102C4000310509F0FCC0892B89F06CE072E887EF50
:102C500090E00E945E096CE073E387EF90E00E94D1
:102C60005E096AE07BEA84EC90E0EECD4EE150E054
:102C700069E079E88BEE90E00E94360840E050E091
:102C800060E070E0CB010E9436084EE150E069E060
:102C900079E88BEE90E00E94360840E050E060E07A
:102CA00070E0CB010E9436084EE150E069E079E81F
:102CB0008BEE90E00ECE29813A8121303105B1F5BD
:102CC000892BE9F04AE06BE073EE8CE690E0269603
:102CD0000FB6F894DEBF0FBECDBFDF91CF911F912D
:102CE0000F91FF90EF90DF90CF90BF90AF909F90AB
:102CF0008F907F906F905F904F900C941E184EE1D4
:102D000050E06EE87DE08DEB90E00E9436084EE1E9
:102D100050E06EE87DE08DEB90E00E9436084EE1D9
:102D200050E063EE7EE08AEA90E0DACD29813A81D4
:102D300022303105F1F5892B01F14BE061EB83EE97
:102D40000E94CA194AE761E089E126960FB6F89415
:102D5000DEBF0FBECDBFDF91CF911F910F91FF90CE
:102D6000EF90DF90CF90BF90AF909F908F907F902B
:102D70006F905F904F900C945F1926E449E063E8F0
:102D80008DEE26960FB6F894DEBF0FBECDBFDF9155
:102D9000CF911F910F91FF90EF90DF90CF90BF9058
:102DA000AF909F908F907F906F905F904F900C941A
:102DB000940829813A812330310509F040C0892BDC
:102DC000C1F085E090E09A83898308E223EE3EE03B
:102DD0004AEA50E063E071E683E190E00E94DF0C94
:102DE00029813A81215031093A832983232B69F7BC
:102DF00026C04AE050E06DEE7EE486E590E00E9459
:102E0000F70B4AE050E06FE87CE287E290E026961C
:102E10000FB6F894DEBF0FBECDBFDF91CF911F91EB
:102E20000F91FF90EF90DF90CF90BF90AF909F9069
:102E30008F907F906F905F904F900C94F70B269639
:102E40000FB6F894DEBF0FBECDBFDF91CF911F91BB
:102E50000F91FF90EF90DF90CF90BF90AF909F9039
:102E60008F907F906F905F904F9008952F923F9238
:102E70004F925F926F927F928F929F92AF92BF928A
:102E8000CF92DF92EF92FF920F931F93CF93DF9336
:102E900000D000D000D0CDB7DEB7412C512C32018C
:102EA0007EEF272E4E0125E0820E911C312CA32CA3
:102EB000B12C20913B0530913C05A216B30608F0D9
:102EC00091C0832D90E0A0E0B0E07727662740E036
:102ED00050E00E94CB30240D351DAAEFB5E00E94D2
:102EE0005631DC01CB019058AF4FBF4FCD01BB270E
:102EF00097FDB095AB2F8E3F41E0940758F48F3F7C
:102F0000910518F4682F80E028C0922D981B80E06E
:102F10006FEF24C08C3F53E0950760F48D3F42E093
:102F2000940718F48E5F6FEF03C06CEF681B8FEF90
:102F300090E014C08A3F55E0950769F08B3F44E06C
:102F4000940728F494E0980F8FEF60E007C05AEFE1
:102F5000581B852F01C080E060E09FEF9D831E829B
:102F6000E62EF12CC82ED12CC701A0E0B0E0BA2F7C
:102F7000A92F982F88278827AA27BB27A60160E0BA
:102F800070E08C019D01042B152B262B372B4D81D6
:102F90005E81CA01A0E0B0E0DC0199278827AC017E
:102FA000BD01442755277727D901C801842B952BCC
:102FB000A62BB72B89839A83AB83BC83DE01119642
:102FC000EC91F0E0EE57FC4FE491ED938A169B06EE
:102FD000B9F749815A816B817C81C5010E94521DDC
:102FE000339465CF0E94921C6AE070E080E090E02C
:102FF0000E94FA1E5FEF551A650A750A41145104C2
:1030000081E06806710409F051CF26960FB6F89456
:10301000DEBF0FBECDBFDF91CF911F910F91FF900B
:10302000EF90DF90CF90BF90AF909F908F907F9068
:103030006F905F904F903F902F9008954F925F92C6
:103040006F927F928F929F92AF92BF92CF92DF92B8
:10305000EF92FF92CF93DF932B013C01842E0E94CD
:10306000020BC2E3D0E0912CA12CB12CC0903B0507
:10307000D0903C05E12CF12CC114D104E104F10401
:1030800041F00E949C2DA70196010E94CB306B015C
:103090007C01B301A201C6010E94521D0E94921C34
:1030A000C501B4010E94FA1E219701F7C501B401C0
:1030B000DF91CF91FF90EF90DF90CF90BF90AF90D6
:1030C0009F908F907F906F905F904F900C94FA1E1E
:1030D0001F93CF93DF93EC01162F0E949C2D112399
:1030E00009F46FC0C730D10508F086C0FE01EC5C62
:1030F000FF4F0C943E376FEF76E68FEF90E00E9423
:103100005E0968EC70E080E090E00E94FA1E60E0EA
:1031100070E0CB010E945E096FEF76E68FEF90E0E2
:103120000E945E0968EC70E080E090E00E94FA1E68
:1031300060E070E0CB010E945E096FEF76E68FEFF2
:1031400090E00E945E0968EC70E080E090E00E94F0
:10315000FA1E60E070E0CB01DF91CF911F910C94DB
:103160005E0944E150E060E070E08FEF90E00E9483
:10317000650840E050E060E070E0CB010E94360856
:103180004EE150E060E070E08FEF90E00E94650853
:1031900040E050E060E070E0CB010E9436084EE174
:1031A00050E060E070E08FEF90E00E94650840E042
:1031B00050E060E070E0CB01DF91CF911F910C9463
:1031C0003608C730D105C0F4FE01E55CFF4F0C9412
:1031D0003E3726E440E060E08FEF0E949408E7CF9E
:1031E0004EE150E0C0CF6FEF70E080E090E0DF9103
:1031F000CF911F910C941708DF91CF911F910895E3
:10320000009719F0019721F008958FE295E002C030
:1032100080E495E00C94EF1B892B99F060E07FEF40
:1032200080E090E00E945E0960E07FEF80E090E047
:103230000E945E0960E07FEF80E090E00E945E09FE
:103240000EC044E160E070E08FEF90E00E940C0B54
:1032500044E160E070E08FEF90E00E940C0B40E0F2
:1032600050E060E070E0CB010C94360802978C309F
:10327000910520F58E5B9F4FFC010C943E3780E258
:1032800095E01AC081E195E017C080E095E014C098
:103290008EEE94E011C08DED94E00EC08BEC94E0C6
:1032A0000BC08AEB94E008C084EA94E005C082E990
:1032B00094E002C082E894E00C94EF1B0895AF9272
:1032C000BF92CF92DF92EF92FF920F931F93CF9313
:1032D000DF93C82EB62EA42EC0913B05D0913C059D
:1032E0002B972AE0842F622F0E940A37D82E8B2D2D
:1032F0000E940A37E82E8C2D0E940A37F82E1C16E1
:103300001D06C4F500E010E080913B0590913C055E
:103310000817190748F420E040E060E0C8010E9467
:103320007D090F5F1F4FF0CF2D2D4E2D6F2DCE013C
:103330000E947D0901E010E02A2D4B2D6C2DC80163
:103340008C0F9D1F0E947D090F5F1F4F0A301105D2
:1033500099F72D2D4E2D6F2DCE010A960E947D09D5
:103360000E94921C64E170E080E090E00E94FA1EEE
:103370002197C5CF6EE170E080E090E0DF91CF91C2
:103380001F910F91FF90EF90DF90CF90BF90AF9083
:103390000C94FA1EAF92BF92CF92DF92EF92FF92FF
:1033A0000F931F93CF93DF93C82EB62EA42E2AE03F
:1033B000842F622F0E940A37D82E8B2D0E940A3745
:1033C000E82E8C2D0E940A37F82EC0E0D0E08091C4
:1033D0003B0590913C050B97C817D907C0F500E055
:1033E00010E080913B0590913C050817190748F4BF
:1033F00020E040E060E0C8010E947D090F5F1F4FA0
:10340000F0CF2D2D4E2D6F2DCE010E947D0901E0B4
:1034100010E02A2D4B2D6C2DC8018C0F9D1F0E9492
:103420007D090F5F1F4F0A30110599F72D2D4E2D85
:103430006F2DCE010A960E947D090E94921C64E1C4
:1034400070E080E090E00E94FA1E2196C0CF6EE10D
:1034500070E080E090E0DF91CF911F910F91FF909D
:10346000EF90DF90CF90BF90AF900C94FA1E2F9208
:103470003F924F925F926F927F928F929F92AF9204
:10348000BF92CF92DF92EF92FF920F931F93CF9351
:10349000DF931F92CDB7DEB72B013C01C42E2DB6B2
:1034A0003EB60E94020B20913B0530913C05C901BC
:1034B000880F991F4DB75EB7481B590B0FB6F8948C
:1034C0005EBF0FBE4DBF8DB79EB701964C0140E069
:1034D000842F90E08217930728F01982D12CE12CD9
:1034E000F12C38C0880F991FF401E80FF91F1182E1
:1034F00010824E5FEDCF00913B0510913C050150CD
:103500001109A016B10650F50E949C2D980140E0CB
:1035100050E00E94CB30DC01CB018C01000F111F69
:10352000080D191DF801208131812130310519F371
:10353000B301A2010E94521D41E050E0F801518305
:10354000408359815E5F59830E94921CC701B60176
:103550000E94FA1E9981A92EB12CCDCF0FB6F894F6
:103560003EBE0FBE2DBE0F90DF91CF911F910F91E8
:10357000FF90EF90DF90CF90BF90AF909F908F9093
:103580007F906F905F904F903F902F9008952F9273
:103590003F924F925F926F927F928F929F92AF92E3
:1035A000BF92CF92DF92EF92FF920F931F93CF9330
:1035B000DF93CDB7DEB76A970FB6F894DEBF0FBEC4
:1035C000CDBF212C312C082F10E020E030E00D87FA
:1035D0001E872F87388B862F90E0A0E0B0E0898B84
:1035E0009A8BAB8BBC8B042F10E020E030E00D8B6E
:1035F0001E8B2F8B388FB101032C000C880B990B7D
:103600000E94AB2F20E030E040E85BE30E940A30EC
:103610006B017C016D857E858F8598890E94AB2F1B
:1036200069837A838B839C839B01AC01C701B601BC
:103630000E940A304B015C0169897A898B899C89D7
:103640000E94AB2F6D837E838F8398879B01AC0193
:10365000C701B6010E940A302B013C016D897E89A9
:103660008F89988D0E94AB2F69877A878B879C877B
:103670009B01AC01C701B6010E940A306B017C01BD
:1036800000E010E080913B0590913C050817190778
:10369000B0F4C701B6010E94BA336A8FC301B20108
:1036A0000E94BA33698FC501B4010E94BA332A8DD2
:1036B000498DC8010E947D090F5F1F4FE3CF0E9413
:1036C000921C1FEF211A310A211421E0320609F061
:1036D00092CF22242A94312CB101032C000C880BA8
:1036E000990B0E94AB2F20E030E040E85BE30E94A2
:1036F0000A306B017C019B01AC0169817A818B816D
:103700009C810E940A304B015C01A70196016D81EA
:103710007E818F8198850E940A302B013C01A70190
:10372000960169857A858B859C850E940A306B019C
:103730007C0100E010E080913B0590913C0508176A
:103740001907B0F4C701B6010E94BA33698BC301EF
:10375000B2010E94BA336D87C501B4010E94BA3329
:1037600029894D85C8010E947D090F5F1F4FE3CF56
:103770000E94921C32E0231A31088FEF2816380677
:1037800009F0AACF6A960FB6F894DEBF0FBECDBF80
:10379000DF91CF911F910F91FF90EF90DF90CF902D
:1037A000BF90AF909F908F907F906F905F904F9061
:1037B0003F902F9008950F931F93CF93DF93EC01C9
:1037C0006DE00E94C61D8C016AE0CE010E94C61DFC
:1037D000800F911FDF91CF911F910F9108950F934B
:1037E0001F93CF93DF9300E010E0FC016491EC01A4
:1037F0002196662341F084E593E00E94C61D080FE0
:10380000191FCE01F2CFC801DF91CF911F910F9107
:103810000895CF92DF92EF92FF920F931F93CF9371
:10382000DF936B01770FEE08FF08F7FE1FC0EC0176
:10383000E881F9810190F081E02D6DE209958C011C
:1038400044275527BA014C195D096E097F092AE002
:10385000CE010E945422800F911FDF91CF911F91C2
:103860000F91FF90EF90DF90CF9008952AE0B7017D
:10387000A601DF91CF911F910F91FF90EF90DF9004
:10388000CF900C945422EF92FF920F931F93CF93FB
:10389000DF93CDB7DEB7C058D1090FB6F894DEBFBD
:1038A0000FBECDBF40E850E0C557DF4F688179813A
:1038B000CB58D0408E010F5F1F4FC8010E94FA2DD8
:1038C000C158DF4F1882CF57D040F8010190002037
:1038D000E9F77F01F80101900020E9F7B8016E1BBC
:1038E0007F0B60587F4F9E0123573F4FA801C701B0
:1038F0000E94A832C058DF4F1882C058D040B7018C
:1039000084E593E00E94AA22C058DF4F0FB6F894D6
:10391000DEBF0FBECDBFDF91CF911F910F91FF9002
:10392000EF9008950F931F93CF93DF93CDB7DEB73A
:1039300029970FB6F894DEBF0FBECDBF8091420528
:1039400090914305892B09F4A2C00E94D51E0091D5
:1039500048051091490520914A0530914B05DC013D
:10396000CB01801B910BA20BB30B8C329140A105B4
:10397000B10558F3F89480913D0590913E059A83E6
:103980008983E0914205F0914305DF011196808122
:10399000898790913505E0914C05F0914D05809116
:1039A0004E05992309F42EC09081982B9887908119
:1039B000809589238F838F818C8388E08B835885C2
:1039C0006F8149853B812C8189819A81508347FD94
:1039D000252F3A952083262F39F0441F00C0000080
:1039E0006083000000C0F2CF38E04D91608300009A
:1039F000019761F7F0934D05E0934C0549873B83B0
:103A00002C8338C09081982B98879081809589234A
:103A10008F838F818E8388E08D8358856F81498560
:103A20003D812E8189819A81508347FD252F00C0D9
:103A300000C0208300C000C000C000C000C0608380
:103A40000000262F3A9541F0441F000000C000C03E
:103A500000C000C000C0E8CF38E04D9100C06083D6
:103A600000C0019709F7F0934D05E0934C05498795
:103A70003D832E839A83898378940E94D51E609318
:103A800048057093490580934A0590934B05299604
:103A90000FB6F894DEBF0FBECDBFDF91CF911F915F
:103AA0000F9108958F929F92AF92BF92CF92DF9223
:103AB000EF92FF92CF93DF9320913B0530913C052D
:103AC0008217930708F057C04B01AA24BB24F82D96
:103AD000C52ED62EE72EFF24AC2DE42F20914105D4
:103AE000222361F0829E40011124F92D2C9D60015A
:103AF0001124AD2D249FE0011124ED2F30914705B5
:103B0000B0914405E0904205F09043053B1308C096
:103B10009C01220F331F820F931F8E0D9F1D19C012
:103B2000880F991F880F991F8E0D9F1D472F5527AE
:103B300066277727EC01C30FD11D222349F030E01F
:103B4000249F7001259FF00C349FF00C11244F2D01
:103B5000488320914405EC01C20FD11DF8832091C8
:103B60004505EC01C20FD11DA88320914605DC015B
:103B7000A20FB11DEC93DF91CF91FF90EF90DF90FA
:103B8000CF90BF90AF909F908F9008950F931F9309
:103B9000CF93DF93FC01A685B7858D01005C1F4F95
:103BA000E8018881998101968F739927AD014E5B59
:103BB0005F4FEA012881398182179307D1F3E80129
:103BC00028813981A20FB31F6C93A685B785A05CAD
:103BD000BF4F11969C938E93A689B7892C9181E053
:103BE00090E0078C02C0880F991F0A94E2F7822B9D
:103BF0008C9381E081A30488F589E02D8081806425
:103C0000808381E090E0DF91CF911F910F91089523
:103C1000FC0181A1882329F0A489B5898C9186FFB4
:103C2000FBCF11A20895FC01A485B585FD01E05CE0
:103C3000FF4F208131813296808191812817390789
:103C400079F080819181A80FB91F8C9120813181F9
:103C50002F5F3F4F2F7333273183208390E00895E8
:103C60008FEF9FEF0895DC011C96ED91FC911D975D
:103C7000DF01A05CBF4F2D913C91119712968D9161
:103C80009C9111972817390739F08D919C91E80F75
:103C9000F91F808190E008958FEF9FEF0895FC0158
:103CA00024853585F901E05CFF4F80819181329652
:103CB00020813181821B930B8F739927089584E5AE
:103CC00093E00C944F1E1F920F920FB60F92112487
:103CD0002F933F938F939F93EF93FF9320910C0328
:103CE00030910D0380910E0390910F03281739072F
:103CF00031F48091C1008F7D8093C10014C0E091A8
:103D00000E03F0910F03E453FD4F208180910E03C9
:103D100090910F0301968F73992790930F038093CF
:103D20000E032093C600FF91EF919F918F913F91D9
:103D30002F910F900FBE0F901F9018951F920F920A
:103D40000FB60F9211242F934F935F938F939F93EE
:103D5000EF93FF938091C00082FD1BC02091C600AD
:103D6000809150039091510301968F739927409150
:103D70005203509153038417950759F0E091500373
:103D8000F0915103E05FFC4F2083909351038093A7
:103D90005003FF91EF919F918F915F914F912F91E0
:103DA0000F900FBE0F901F9018953FB7F894809119
:103DB000500690915106A0915206B091530626B537
:103DC000A89B05C02F3F19F00196A11DB11D3FBF53
:103DD000BA2FA92F982F8827820F911DA11DB11DE1
:103DE000BC01CD0142E0660F771F881F991F4A95DD
:103DF000D1F70895CF92DF92EF92FF92CF93DF93A6
:103E00006B017C010E94D51EEB01C114D104E104B9
:103E1000F10479F00E94D51E6C1B7D0B683E734047
:103E2000A0F381E0C81AD108E108F108C851DC4FBD
:103E3000ECCFDF91CF91FF90EF90DF90CF9008957E
:103E40002FB7F89460914C0670914D0680914E0604
:103E500090914F062FBF08951F920F920FB60F92A9
:103E600011242F933F938F939F93AF93BF93809190
:103E70004C0690914D06A0914E06B0914F063091A0
:103E80004B0623E0230F2D3720F40196A11DB11D11
:103E900005C026E8230F0296A11DB11D20934B06F5
:103EA00080934C0690934D06A0934E06B0934F0618
:103EB0008091500690915106A0915206B091530600
:103EC0000196A11DB11D8093500690935106A093B9
:103ED0005206B0935306BF91AF919F918F913F913E
:103EE0002F910F900FBE0F901F901895CF93DF93D7
:103EF00020913005222309F4EBC010923005C091C7
:103F00002C05D0912D05D0934A06C09349068E30DA
:103F1000910508F0DDC0FC01E25BFF4F0C943E37D9
:103F200080E090E00E94001980E090E006C081E00F
:103F300090E00E94001981E090E0DF91CF910C9415
:103F40000C1982E090E00E943619BE0182E090E0F8
:103F500007C083E090E00E943619BE0183E090E044
:103F6000DF91CF910C94061384E090E00E94361903
:103F7000BE0184E090E0F4CF85E090E00E94361925
:103F8000BE0185E090E0ECCF86E090E00E9436191B
:103F9000BE0186E090E0E4CF87E090E00E94361911
:103FA000BE0187E090E0DCCF85E995E00E94EF1B41
:103FB00042E350E060E076E68FEF90E00E94650813
:103FC00040E050E060E070E0CB010E94360842E340
:103FD00050E060E076E68FEF90E00E94650840E0F8
:103FE00050E060E070E0CB010E94360842E350E010
:103FF00060E076E68FEF90E033C08BE895E00E94BA
:10400000EF1B48E250E069E970E0CB010E946508CF
:1040100042E350E060E070E0CB010E94360848E2E5
:1040200050E069E970E0CB010E94650842E350E08E
:1040300060E070E0CB010E94360848E250E069E998
:1040400070E0CB010E94650840E050E060E070E065
:10405000CB010E94360848E250E069E970E0CB01EC
:104060000E94650840E050E060E070E0CB01DF9125
:10407000CF910C9436088AE090E00E9436190E9495
:10408000201F609331057093320580933305909320
:104090003405BE018AE090E017C08BE090E00E94FA
:1040A0003619BE018BE090E00FC08CE090E00E94DA
:1040B0003619BE018CE090E007C08DE090E00E94D0
:1040C0003619BE018DE090E0DF91CF910C94F70F8F
:1040D000DF91CF9108952091560630915706281709
:1040E000390781F49091550680915406981751F044
:1040F000E0915506F0E0E85AF94F8081082E000C57
:10410000990B08958FEF9FEF0895209156063091F7
:1041100057062817390739F48FB7F89410925406C8
:10412000109255068FBF089520915606309157067C
:104130002817390771F4809154062091550690E0B4
:10414000805C9F4F821B910960E470E00E942A37D7
:10415000089580E090E0089520915606309157062A
:1041600028173907B9F4909155068091540698178D
:1041700089F0E0915506F0E0E85AF94F80812091EE
:10418000550630E02F5F3F4F2F733327209355069E
:1041900090E008958FEF9FEF0895CF92DF92EF9216
:1041A000FF920F931F93CF93DF936C01EB017B0181
:1041B000E40EF51E00E010E0CE15DF0561F0699118
:1041C000D601ED91FC910190F081E02DC601099599
:1041D000080F191FF1CFC801DF91CF911F910F91E7
:1041E000FF90EF90DF90CF900895089520E0019721
:1041F0002FEF8F3F9207D9F70895DF92EF92FF924A
:104200000F931F93CF93DF93EC01298D3A8D2115E6
:10421000310529F481E090E09B838A835AC0162FF0
:10422000DFB6F8948B8D81FD4DC0CE010E945A12ED
:10423000898D9A8D05960E94F6208B8D98E0E92E47
:10424000F12C01E081FF1AC0812F802321F0CE01E3
:104250000E945A1206C0E989FA8990818889892BBF
:104260008083898D9A8D0E94F620000F81E0E81AE4
:10427000F10851F7CE010E945A121CC0812F8023F1
:1042800039F0E989FA8990818889892B808303C074
:10429000CE010E945A12898D9A8D0E94F620000F3D
:1042A00081E0E81AF10851F7E989FA899081888953
:1042B000892B8083DFBE898D9A8D0E94F62021E0B4
:1042C00030E007C0E989FA8990818889892B808349
:1042D000AFCFC901DF91CF911F910F91FF90EF9068
:1042E000DF9008951F920F920FB60F921124EF9254
:1042F000FF920F931F932F933F934F935F936F936F
:104300007F938F939F93AF93BF93CF93DF93EF935D
:10431000FF93C0915606D0915706209709F450C0DC
:104320009B8DEE85FF858D8591FF04C0908189234B
:1043300029F446C09081892309F042C08B899C8969
:104340000E94F62088E0E82EF12C10E001E08D8933
:104350009E890E94F620EE85FF8590818D858923B8
:1043600011F0102B03C0802F80951823000F81E0DF
:10437000E81AF10861F78F89988D0E94F6208B8DDD
:1043800081FD1095809154062091550690E001968C
:104390008F73992730E08217930779F0E0915406E4
:1043A000F0E0E85AF94F10838091540690E00196AE
:1043B0008F7399278093540603C08B8D81608B8FF8
:1043C000FF91EF91DF91CF91BF91AF919F918F912D
:1043D0007F916F915F914F913F912F911F910F911D
:1043E000FF90EF900F900FBE0F901F9018951F92A7
:1043F0000F920FB60F9211242F933F934F935F9319
:104400006F937F938F939F93AF93BF93EF93FF939C
:104410000E947221FF91EF91BF91AF919F918F9177
:104420007F916F915F914F913F912F910F900FBEB0
:104430000F901F9018951F920F920FB60F92112494
:104440002F933F934F935F936F937F938F939F939C
:10445000AF93BF93EF93FF930E947221FF91EF916F
:10446000BF91AF919F918F917F916F915F914F918C
:104470003F912F910F900FBE0F901F9018956115CF
:10448000710579F0FB0101900020E9F73197AF0148
:10449000461B570BDC01ED91FC910280F381E02D6E
:1044A000099480E090E008958F929F92AF92BF921E
:1044B000CF92DF92EF92FF920F931F93CF93DF93F0
:1044C000CDB7DEB7A1970FB6F894DEBF0FBECDBF54
:1044D0006C01142FE52FCB01022F19A2223008F412
:1044E0000AE07E0121E2E20EF11C802E912CA12C2B
:1044F000B12C612F7E2FA50194010E943431029FBF
:104500001019112481E0E81AF1081A3014F4105D32
:1045100001C0195CF7011083122FE32FCA01232B6E
:10452000242B252B31F7B701C6010E943F22A1960B
:104530000FB6F894DEBF0FBECDBFDF91CF911F91B4
:104540000F91FF90EF90DF90CF90BF90AF909F9032
:104550008F9008950C943F22789484B5826084BD36
:1045600084B5816084BD85B5826085BD85B5816077
:1045700085BD80916E00816080936E0010928100F5
:1045800080918100826080938100809181008160B0
:104590008093810080918000816080938000809171
:1045A000B10084608093B1008091B00081608093FD
:1045B000B00080917A00846080937A0080917A00C4
:1045C000826080937A0080917A00816080937A0083
:1045D00080917A00806880937A001092C1001092D6
:1045E000C2051092C1051092C0051092BF0510922D
:1045F000BE051092BD051092BC051092BB0581E16D
:1046000091E020E030E0FC01459155916591749175
:10461000403855426105710559F54CE0429FC00193
:10462000439F900D1124FC01EB5EFE4F25913491C8
:104630003093BC052093BB05FC01E95EFE4F25913C
:1046400034913093BE052093BD05FC01E75EFE4F1B
:10465000259134913093C0052093BF05FC01E55EA0
:10466000FE4F859194919093C2058093C10507C038
:104670002F5F3F4F0C962D30310509F0C4CF80914C
:10468000BF059091C005892B09F448C02091B4055D
:104690002631F0F540916800283058F031E02E3096
:1046A00008F430E091E0892F01C0880F3A95EAF7CD
:1046B00001C084E0842B80936800283038F02E30CD
:1046C00040F0263148F4ECE6F0E008C0EDE6F0E01A
:1046D00005C0EBE6F0E002C0E0E0F0E03081283019
:1046E00030F491E001C0990F2A95EAF70EC0422FED
:1046F00050E02E3018F44850510902C04E50510974
:1047000091E001C0990F4A95EAF7892F832B8083A6
:104710008091C1059091C2050E94F62080915606B5
:1047200090915706885A954091F08091C3058E7FED
:104730008093C3058FB7F8941092540610925506D3
:1047400028EA35E030935706209356068FBF88EA53
:1047500095E00E94852044E553E0E0916803F091E4
:10476000690381E090E09C010090740302C0220F75
:10477000331F0A94E2F72083E0916403F09165030C
:104780001082E0916603F091670320E1208310928C
:104790007503E0916A03F0916B0360819C010090C6
:1047A000700302C0220F331F0A94E2F7262B2083E6
:1047B000E0916A03F0916B0360819C0100907103AA
:1047C00002C0220F331F0A94E2F7262B2083E091C8
:1047D0006A03F0916B0360819C010090720302C038
:1047E000220F331F0A94E2F7262B2083E0916A03FD
:1047F000F0916B0320810090730302C0880F991F12
:104800000A94E2F78095822380838DEA91E09F935A
:104810008F935F934F930E94431C84E593E00E9423
:10482000081E80913F05909140050F900F900F90CA
:104830000F9097FD08C061E00E94B31260E0809184
:104840003F050E94661281E080933A050E94921C07
:1048500060914105693C21F1209142053091430569
:10486000615031F070E08FEF98EC0E94163702C073
:1048700060E070E0F90140913D0550913E05CF01A7
:10488000821B930B8417950740F44081469FC0011B
:10489000479F900D11249193EECF89EC80934105B1
:1048A0001092B4021092B5021092B6021092B702A2
:1048B0007724739481E4E82E82E0F82E9CE4C92EDC
:1048C00092E0D92E27E5A22E22E0B22E31E6832EE9
:1048D00032E0932E84E593E00E944F1E18161906CD
:1048E0000CF07EC084E593E00E94131EC82F8091D7
:1048F0009803C8135CC010922F0570923005E091A8
:104900009903F0E0E956FC4F158280919A0390914B
:104910009B038130910581F08230910579F1892BDB
:1049200009F045C06AE271E08CE993E00E94092E2B
:10493000BC0180E094E01FC06AE271E08CE993E082
:104940000E94092EBC0180E094E00E94A1326AE23C
:1049500071E080E090E00E94092EBC0184E694E0C2
:104960000E94A1326AE271E080E090E00E94092E8C
:10497000BC0188EC94E00E94A13219C06AE271E0A7
:104980008CE993E00E94092EBC0180E094E00E9433
:10499000A1326AE271E080E090E00E94092E0E945C
:1049A000F32D0E94B33370932D0560932C058091F5
:1049B0002F05882369F080919903E82FF0E0E956EC
:1049C000FC4FC5838F5F843609F483E68093990397
:1049D00080919703C81304C01092990370922F0519
:1049E00070922E0580E094E09093BA028093B90211
:1049F0007092B8026CE271E00E949832892B19F42F
:104A000080E090E00AC067E371E080E094E00E94FB
:104A10009832892B29F481E090E00E94F007BDC410
:104A200062E471E080E094E00E949832892B19F4EE
:104A300082E090E0F2CF6DE471E080E094E00E94CB
:104A40009832892B41F580913005882309F4A5C45B
:104A5000109230051092B8020E941A120E94201F74
:104A60006093B4027093B5028093B6029093B7023C
:104A70001B012C0124EF220E21E0321E411C511C8F
:104A80000E94201F6215730584059505C8F3E0E0B8
:104A9000F0E0099582C463E571E080E094E00E9453
:104AA0009832892B19F480E090E08EC069E571E0BE
:104AB00080E094E00E949832892B19F481E090E024
:104AC00083C061E671E080E094E00E949832892B17
:104AD00019F482E090E078C067E671E080E094E04D
:104AE0000E949832892B19F483E090E06DC06DE646
:104AF00071E080E094E00E949832892B19F484E000
:104B000090E062C064E771E080E094E00E94983237
:104B1000892B19F485E090E057C06AE771E080E0E6
:104B200094E00E949832892B19F486E090E04CC002
:104B300060E871E080E094E00E949832892B19F4DB
:104B400087E090E041C066E871E080E094E00E9478
:104B50009832892B19F488E090E036C06EE871E055
:104B600080E094E00E949832892B19F489E090E06B
:104B70002BC064E971E080E094E00E949832892BB8
:104B800019F48AE090E020C06BE971E080E094E0E5
:104B90000E949832892B19F48BE090E015C062EAEC
:104BA00071E080E094E00E949832892B19F48CE047
:104BB00090E00AC068EA71E080E094E00E949832D8
:104BC000892B29F48DE090E00E94761FE6C36EEAFF
:104BD00071E080E094E00E949832892B19F484E718
:104BE00099E620C069EB71E080E094E00E94983281
:104BF000892B19F480E094E015C063EC71E080E04B
:104C000094E00E949832892B19F483E793E70AC055
:104C10006DEC71E080E094E00E949832892B29F4D9
:104C200085E696E70E942704B8C365ED71E080E051
:104C300094E00E949832892B19F488E693E6F2CF2B
:104C40006EED71E080E094E00E949832892B19F4B7
:104C500085E69BE6E7CF68EE71E080E094E00E9495
:104C60009832892B99F480913005882309F495C3F3
:104C7000109230058EEB91E09F938F9384E593E043
:104C80009F938F930E94431C60E01AC060EF71E015
:104C900080E094E00E949832892BC9F4809130051D
:104CA000882309F47AC3109230058DEC91E09F932C
:104CB0008F9384E593E09F938F930E94431C61E060
:104CC00080912C0590912D050E94681862C368EFB1
:104CD00071E080E094E00E949832892B09F48ACF39
:104CE0006EEF71E080E094E00E949832892B09F425
:104CF00081CF65E072E080E094E00E949832892BD9
:104D000009F478CF6BE072E080E094E00E94983282
:104D1000892B09F46FCF63E172E080E094E00E9498
:104D20009832892B09F466CF67E172E080E094E065
:104D30000E949832892B09F45DCF6DE172E080E02A
:104D400094E00E949832892B09F454CF63E272E018
:104D500080E094E00E949832892B09F44BCF67E2FF
:104D600072E080E094E00E949832892B09F442CFEF
:104D70006CE272E080E094E00E949832892B09F4A2
:104D800039CF61E372E080E094E00E949832892B91
:104D900009F430CF66E372E080E094E00E9498323C
:104DA000892B09F427CF6BE372E080E094E00E9446
:104DB0009832892B09F09BC080913005882309F433
:104DC000ECC2109230058091BE029091BF02049710
:104DD00041F48091BB02882321F00E943A030E9493
:104DE00003038091B802882309F4D7C21092B80255
:104DF00084E694E09093B3028093B20288EC94E04E
:104E00009093B1028093B0028FEA92E09F938F93C8
:104E1000C4E5D3E0DF93CF930E94431C6091B202BC
:104E20007091B302CE010E94AA228CEA92E09F9375
:104E30008F93DF93CF930E94431C6091B0027091D7
:104E4000B102CE010E94AA2264E472E0CE010E9467
:104E50003F22CE010E94DB1B8091B2029091B302EF
:104E60000E948F2A9093AF028093AE028091B0028D
:104E70009091B1020E948F2AEC010091AE02109134
:104E8000AF0266E472E0C8010E949832EDB7FEB747
:104E900038960FB6F894FEBF0FBEEDBF892B39F4DC
:104EA000BE01DD0F880B990B0E945E0976C26DE48E
:104EB00072E0C8010E949832892B49F4BE01DD0FCF
:104EC000880B990B42E350E00E94650866C262E5D8
:104ED00072E0C8010E949832892B09F05EC2BE01BF
:104EE000DD0F880B990B42E30E940C0B56C26FE555
:104EF00072E080E094E00E949832892B01F5809165
:104F00003005882309F449C2109230051092B80286
:104F10008FE992E09F938F9384E593E09F938F9323
:104F20000E94431C609186037091870380918803DF
:104F30009091890342E350E00E9465082AC26AE426
:104F400072E080E094E00E949832892BA1F4809175
:104F50003005882309F421C2109230051092B8025E
:104F600087E992E09F938F9384E593E09F938F93DB
:104F70000E94431CE9C168E572E080E094E00E9471
:104F80009832892B71F480913005882309F405C289
:104F9000109230051092B8028EE892E09F938F93A2
:104FA000FCC06BE572E080E094E00E949832892BAF
:104FB00069F480913005882309F4EFC1109230051F
:104FC0001092B80285E892E09F9322C16EE572E0EC
:104FD00080E094E00E949832892BE1F480913005C2
:104FE000882309F4DAC1109230051092B8028DE7D7
:104FF00092E09F938F9384E593E09F938F930E9419
:10500000431C60918E0370918F0380919003909167
:105010009103A2C168E771E080E094E00E949832B9
:10502000892B71F480913005882309F4B6C1109260
:1050300030051092B80285E792E09F938F9331C0BC
:105040006EE771E080E094E00E949832892BB1F421
:1050500080913005882309F4A0C110923005109288
:10506000B8028DE692E09F938F9384E593E09F933F
:105070008F930E94431C0E94F20B8BC16AE272E084
:1050800080E094E00E949832892BD1F48091300521
:10509000882309F482C1109230051092B8029F92C1
:1050A0008F9284E593E09F938F930E94431C6091BD
:1050B00086037091870380918803909189034CC186
:1050C00061E672E080E094E00E949832892B61F4FE
:1050D00080913005882309F460C110923005109248
:1050E000B802BF92AF92B9C06BED71E080E094E07E
:1050F0000E949832892BD1F480913005882309F4DD
:105100004CC1109230051092B802DF92CF9284E524
:1051100093E09F938F930E94431C60917A03709158
:105120007B0380917C0390917D0316C164E672E05D
:1051300080E094E00E949832892BD1F48091300570
:10514000882309F42AC1109230051092B802FF9208
:10515000EF9284E593E09F938F930E94431C6091AC
:105160007603709177038091780390917903F4C06E
:1051700067E672E080E094E00E949832892BE1F4C7
:1051800080913005882309F408C1109230051092EF
:10519000B80221E332E03F932F9384E593E09F939D
:1051A0008F930E94431C60918A0370918B038091BE
:1051B0008C0390918D03D0C069E672E080E094E0AA
:1051C0000E949832892B71F480913005882309F46C
:1051D000E4C0109230051092B802E0E2F2E0FF93D2
:1051E000EF935FCF6CE871E080E094E00E9498322A
:1051F000892BF1F480913005882309F4CEC01092F8
:1052000030051092BD021092BC028FE092E09F9395
:105210008F9384E593E09F938F930E94431C60914A
:10522000820370918303809184039091850394C0DD
:105230006BE672E080E094E00E949832892BE1F402
:1052400080913005882309F4A8C01092300510928F
:10525000B8022FEF31E03F932F9384E593E09F93C3
:105260008F930E94431C60917E0370917F03809115
:1052700080039091810370C06DE672E080E094E05D
:105280000E949832892B09F043C080913005882311
:1052900009F483C0109230050E94201F6093AA0277
:1052A0007093AB028093AC029093AD021092B8025F
:1052B000E3EFF1E0FF93EF9384E593E09F938F9307
:1052C0000E94431C0E94F20B60918E0370918F0329
:1052D00080919003909191030E9417080F900F9076
:1052E0000F900F900E94201F0091AA021091AB0214
:1052F0002091AC023091AD020C501E4F2F4F3F4F0A
:10530000601771078207930768F30E94F20B45C08C
:105310006FE872E080E094E00E949832892BF9F403
:10532000809130058823C9F1109230051092B8029F
:1053300086EE91E09F938F9384E593E09F938F9304
:105340000E94431C0E94F20B6091920370919303A0
:1053500080919403909195030E9417081AC06EEEF5
:1053600071E080E094E00E949832892BB1F4809142
:105370003005882391F0109230051092B8022CED80
:1053800031E03F932F9384E593E09F938F930E94A6
:10539000431C0F900F900F900F9088EA95E00E94A9
:1053A0009420892B09F442C00E942612FC0197FD2B
:1053B0000DC08D32910509F472C0C0970A9708F4A8
:1053C0006EC088EA95E00E94AC20EECF212C312CF3
:1053D000210188EA95E00E94AC200A9739F5C101C5
:1053E0003092BF022092BE02009719F482E090E052
:1053F00008C08130910579F08230910539F483E05D
:1054000090E09093BD028093BC020EC08430910561
:1054100011F0059729F43092BD022092BC0204C01D
:105420001092BD021092BC027092BB028091BE022B
:105430009091BF020297029740F08091BB028823AF
:1054400021F00E943A030E9403038091BB0288234B
:1054500019F18091BC029091BD020097E9F001978B
:10546000039720F41092BD021092BC028091BC02FE
:105470009091BD02049721F41092BD021092BC02DB
:105480008091BC029091BD02059731F41092BB024D
:105490001092BD021092BC020E945F1E1BCA212CFA
:1054A000312C2101C0E0E130F10501F1ED32F105CF
:1054B000E1F0CF01C0970A97C8F4AAE0B0E0A201DA
:1054C00091010E94EA308F01FF0F220B330BDC01A8
:1054D000CB01800F911FA21FB31F1C012D01E0E320
:1054E0002E1A31084108510801C0C1E088EA95E050
:1054F0000E94AC200E942612FC01C0970A9798F2E5
:10550000E130F10581F2CC2309F463CF509440944B
:1055100030942094211C311C411C511C5ACF0F93F4
:105520001F93CF93DF9366E972E00E94092E8C01EE
:10553000C82FD12FCD2B71F066E972E080E090E0AA
:105540000E94092EEC010097A9F3BC01C8010E943A
:105550008D32F0CFC801DF91CF911F910F91089547
:10556000CF92DF92EF92FF92CF93DF931092570387
:105570001092560328EEC22E23E0D22EE12CF12CFD
:10558000C0925803D0925903E0925A03F0925B0301
:105590008EE091E0909355038093540380E193E073
:1055A00090936103809360038CEC92E0909363038B
:1055B0008093620385EC90E090936503809364038D
:1055C00084EC90E0909367038093660380EC90E016
:1055D000909369038093680381EC90E090936B0350
:1055E00080936A0382EC90E090936D0380936C0348
:1055F00086EC90E090936F0380936E0384E0809339
:10560000700383E08093710387E08093720385E0E9
:105610008093730381E08093740310923F0610928D
:105620003E0688E090E090934306809342061092F5
:1056300045061092440680E590E00E946531909303
:105640004106809340061092480610924706109239
:10565000AB051092AA05C092AC05D092AD05E092C0
:10566000AE05F092AF058EE191E09093A90580938D
:10567000A8051092BC051092BB051092BE051092B1
:10568000BD051092C0051092BF051092C205109280
:10569000C1058091C3058E7F8D7F8093C30561E036
:1056A00088E00E94B31261E088E00E946612EFE792
:1056B000F5E0E491E093B805EBE6F5E0E491F0E085
:1056C000EE0FFF1FE75AFA4F859194919093BA0518
:1056D0008093B90560E08CE00E94B3128091C3050D
:1056E00081FD04C061E08CE00E9466128CE0809332
:1056F000B405E3E8F5E0E491E093B505EFE6F5E005
:10570000E491F0E0EE0FFF1FE15BFA4F8591949179
:105710009093B7058093B6051092580510925705DF
:1057200010924F0581E08093500582E080935105EF
:1057300083E08093520586E0809353058BE080934D
:1057400054058AE08093550589E08093560561E011
:1057500086E00E94B31261E0809154050E94B3126A
:1057600061E0809155050E94B31261E08091560579
:105770000E94B31210927605109277051092780568
:105780001092790581E090E090933F0680933E0669
:105790008091420690914306049790F5D09140067F
:1057A000C091410684E090E09093430680934206C6
:1057B00088E290E00E946531809340069093410614
:1057C0004D2F5C2F9C0180E090E060914406709129
:1057D00045068617970780F42115310539F06AE0F0
:1057E000FA01D90101900D926A95E1F70196465FA1
:1057F0005F4F265F3F4FE9CF8D2F9C2F0E94FD31D9
:10580000109262051092630510926405109265056E
:10581000109266051092670510926805109269054E
:1058200010926A0510926B0510926C0510926D052E
:1058300010926E0510926F0510927005109271050E
:1058400010927205109273051092740510927505EE
:1058500010923A05109241051092480510924905A0
:1058600010924A0510924B0581E080934705809382
:1058700044051092450592E09093460580933505C6
:1058800084EB90E090933E0580933D050E94653146
:105890009093430580934205009761F024EBFC014F
:1058A00011922A95E9F78CE390E090933C05809360
:1058B0003B0508C010923E0510923D0510923C0534
:1058C00010923B0585E090E09093400580933F0562
:1058D00080913A05882341F061E085E00E94B3128F
:1058E00060E085E00E946612E8E6F5E0E491F0E011
:1058F000EE0FFF1FE75AFA4F8591949190934D0553
:1059000080934C05ECE7F5E0E491E0934E058CE3E1
:10591000809397038EE380939803109299031092DB
:105920009B0310929A031092000410926404109248
:10593000C80410922D0510922C0510922E0510927D
:105940002F051092300580E096E6AFEFB0E080932F
:10595000920390939303A0939403B093950380E0F4
:1059600090E0AFEFB0E080938E0390938F03A0930D
:105970009003B093910380E09FEFA0E0B0E08093AC
:105980008A0390938B03A0938C03B0938D038FEFC6
:1059900090E0A0E0B0E08093860390938703A0930B
:1059A0008803B093890380E09FEFAFEFB0E080936E
:1059B000820390938303A0938403B093850380E0D4
:1059C00096E6A6E6B0E080937E0390937F03A093D3
:1059D0008003B09381038FEF9FEFA6E6B0E0809342
:1059E0007A0390937B03A0937C03B0937D038FEFA6
:1059F00096E6AFEFB0E08093760390937703A093A1
:105A00007803B0937903DF91CF91FF90EF90DF900F
:105A1000CF90089580914205909143050E94FD31F9
:105A200080913F059091400597FD03C060E00E9482
:105A3000B3128EE191E09093A9058093A80520917F
:105A4000B405263140F5283028F02E3030F4EBE64E
:105A5000F0E005C0EDE6F0E002C0ECE6F0E03081F9
:105A6000283038F481E090E001C0880F2A95EAF7E9
:105A70000FC0422F50E02E3018F44850510902C098
:105A80004E50510981E090E001C0880F4A95EAF735
:105A900080958323808380914006909141060C94E9
:105AA000FD318F929F92AF92BF92CF92DF92EF9291
:105AB000FF92CF93DF93EC01688179818A819B818A
:105AC000611571058105910521F464E279ED8BE59D
:105AD00097E02DE133EF41E050E00E94CB304901E7
:105AE0005A019B01AC01A7EAB1E40E94EA306B01C4
:105AF0007C01ACEEB4EFA50194010E94F830DC010A
:105B0000CB018C0D9D1DAE1DBF1DB7FF03C00197BE
:105B1000A109B04888839983AA83BB83BC01CD01C6
:105B20009F77DF91CF91FF90EF90DF90CF90BF9064
:105B3000AF909F908F9008958F929F92AF92BF9257
:105B4000CF92DF92EF92FF9260910001709101017C
:105B50008091020190910301611571058105910504
:105B600021F464E279ED8BE597E02DE133EF41E03C
:105B700050E00E94CB3049015A019B01AC01A7EAD9
:105B8000B1E40E94EA306B017C01ACEEB4EFA501F8
:105B900094010E94F830DC01CB018C0D9D1DAE1DDF
:105BA000BF1DB7FF03C00197A109B0488093000152
:105BB00090930101A0930201B0930301BC01CD01B8
:105BC0009F77FF90EF90DF90CF90BF90AF909F9026
:105BD0008F900895609300017093010180930201FA
:105BE000909303010895662777270C94352EF89437
:105BF0000C944437FB01DC014150504048F00590C3
:105C00000D920020C9F701C01D9241505040E0F7AD
:105C1000089548E956E00E940E2E0895FA01A191D8
:105C2000B081009719F41097E1F0CD01DC01CD01AE
:105C30000D90002011F4C00113C0FB01219122231B
:105C400019F02015D9F7F3CFFB012191201519F494
:105C50001E92119606C02223C1F70D900020A1F7D5
:105C6000D001FA01A193B0830895A0E0B0E0EBE386
:105C7000FEE20C940331EC016B016115710519F022
:105C8000FB01918380837E01FFEFEF1AFF0A0881F9
:105C9000802F90E00E94832F892B11F0E701F3CF32
:105CA0000D3239F47E0182E0E80EF11C098111E029
:105CB00008C00B3229F47E0192E0E90EF11C098143
:105CC00010E0E701219743E050E06EED70E0CE0177
:105CD0000E948C2F892BC1F4239645E050E069ED9A
:105CE00070E0CE010E948C2F892B09F42596C114F7
:105CF000D10419F0F601D183C0831111F6C060E020
:105D000070E080E89FE7FAC043E050E066ED70E0A5
:105D1000CE010E948C2F892B59F4C114D10409F4AF
:105D2000E9C0F2E0EF0EF11CF601F182E082E2C080
:105D300020E030E0A901C0E0D0E0F70180EDA82E1E
:105D4000A00E89E08A1530F1912F9260B92E812F33
:105D5000887012FF04C0811124C0219622C08111D5
:105D60002197A5E0B0E00E94EA30DC01CB01880F6A
:105D7000991FAA1FBB1F9C01AD012A0D311D411D9A
:105D8000511D283989E93807480789E1580748F043
:105D9000166006C09EEFA9120AC013FD40C018602D
:105DA000B12E8FEFE81AF80A00811B2DC6CF802F85
:105DB0008F7D8534A1F580818D3211F4106106C08C
:105DC0008B3221F0319661E070E004C0818132961F
:105DD00062E070E080538A3018F0E61BF70B1FC0BA
:105DE00060E070E060389CE079075CF4DB01AA0FAA
:105DF000BB1FAA0FBB1F6A0F7B1F660F771F680FA1
:105E0000711D3196DF0111978C9180538A3050F3C8
:105E100014FF03C0719561957109C60FD71F11FF5B
:105E200008C0C114D10429F0CF010197F601918374
:105E30008083CA01B9010E94A92F212F237023302A
:105E400019F04B015C0106C04B015C01B7FAB0943C
:105E5000B7F8B09420E030E0A901C501B4010E9478
:105E6000A42F882309F43EC0D7FF06C0D195C19561
:105E7000D10905EF10E002C00DE011E06801F8E182
:105E8000CF1AD10890E2E92EF12CCE15DF0574F07F
:105E9000F8012591359145915491C501B4010E94B5
:105EA0000A304B015C01CE19DF09EFCF0450110914
:105EB000F594E7940C151D0541F78A2D880F8B2D5D
:105EC000881F8F3F49F020E030E0A901C501B401EF
:105ED0000E94A42F811106C082E290E090939B065D
:105EE00080939A06C501B40109C060E070E080E8C3
:105EF0009FEF04C060E070E080EC9FE7CDB7DEB7B5
:105F0000ECE00C941F3191110C947730803219F031
:105F100089508550C8F70895FB01DC01415050407D
:105F200088F08D9181341CF08B350CF4805E659186
:105F300061341CF06B350CF4605E861B611171F3EB
:105F4000990B0895881BFCCF0E94E62F08F481E08E
:105F50000895E89409C097FB3EF49095809570955C
:105F600061957F4F8F4F9F4F9923A9F0F92F96E9A5
:105F7000BB279395F695879577956795B795F1111A
:105F8000F8CFFAF4BB0F11F460FF1BC06F5F7F4FB7
:105F90008F4F9F4F16C0882311F096E911C07723C9
:105FA00021F09EE8872F762F05C0662371F096E8D2
:105FB000862F70E060E02AF09A95660F771F881FA1
:105FC000DAF7880F9695879597F90895990F000845
:105FD000550FAA0BE0E8FEEF16161706E807F907BB
:105FE000C0F012161306E407F50798F0621B730B56
:105FF000840B950B39F40A2661F0232B242B252BD7
:1060000021F408950A2609F4A140A6958FEF811D79
:10601000811D08950E941D300C9491300E948330A0
:1060200038F00E948A3020F0952311F00C947A30D9
:106030000C94803011240C94C5300E94A23070F36F
:10604000959FC1F3950F50E0551F629FF001729F1D
:10605000BB27F00DB11D639FAA27F00DB11DAA1F2C
:10606000649F6627B00DA11D661F829F2227B00D79
:10607000A11D621F739FB00DA11D621F839FA00D04
:10608000611D221F749F3327A00D611D231F849F54
:10609000600D211D822F762F6A2F11249F575040AB
:1060A0009AF0F1F088234AF0EE0FFF1FBB1F661F26
:1060B000771F881F91505040A9F79E3F510580F0EF
:1060C0000C947A300C94C5305F3FE4F3983ED4F3DF
:1060D000869577956795B795F795E7959F5FC1F793
:1060E000FE2B880F911D9695879597F9089599270E
:1060F0008827089597F99F6780E870E060E0089529
:106100009FEF80EC089500240A94161617061806CF
:106110000906089500240A941216130614060506AB
:106120000895092E0394000C11F4882352F0BB0F3C
:1061300040F4BF2B11F460FF04C06F5F7F4F8F4F9F
:106140009F4F089557FD9058440F551F59F05F3FDA
:1061500071F04795880F97FB991F61F09F3F79F089
:1061600087950895121613061406551FF2CF46950B
:10617000F1DF08C0161617061806991FF1CF86958D
:106180007105610508940895E894BB276627772771
:10619000CB0197F90895052E97FB1EF400940E94F9
:1061A000E23057FD07D00E94343107FC03D04EF493
:1061B0000C94E23050954095309521953F4F4F4FCC
:1061C0005F4F089590958095709561957F4F8F4FA3
:1061D0009F4F08950E945631A59F900DB49F900D3A
:1061E000A49F800D911D11240895B7FF0C94EA30EF
:1061F0000E94EA30821B930B08952F923F924F9298
:106200005F926F927F928F929F92AF92BF92CF9246
:10621000DF92EF92FF920F931F93CF93DF93CDB74F
:10622000DEB7CA1BDB0B0FB6F894DEBF0FBECDBFC7
:1062300009942A88398848885F846E847D848C8498
:106240009B84AA84B984C884DF80EE80FD800C81A1
:106250001B81AA81B981CE0FD11D0FB6F894DEBF84
:106260000FBECDBFED010895A1E21A2EAA1BBB1BE4
:10627000FD010DC0AA1FBB1FEE1FFF1FA217B30712
:10628000E407F50720F0A21BB30BE40BF50B661F28
:10629000771F881F991F1A9469F7609570958095EC
:1062A00090959B01AC01BD01CF010895A29FB00163
:1062B000B39FC001A39F700D811D1124911DB29F3A
:1062C000700D811D1124911D08950F931F93CF937D
:1062D000DF938230910510F482E090E0E0919E0619
:1062E000F0919F0620E030E0A0E0B0E0309719F197
:1062F000408151810281138148175907C8F08417E2
:10630000950769F4109731F012960C931297139633
:106310001C9327C000939E0610939F0622C0211550
:10632000310519F04217530718F49A01BD01EF0126
:10633000DF01F801DBCF21153105F9F0281B390BFE
:106340002430310580F48A819B816115710521F02B
:10635000FB019383828304C090939F0680939E06E3
:10636000FE01329644C0FE01E20FF31F8193919328
:1063700022503109398328833AC020919C063091FC
:106380009D06232B41F420910601309107013093A3
:106390009D0620939C062091040130910501211552
:1063A000310541F42DB73EB74091080150910901E4
:1063B000241B350BE0919C06F0919D06E217F30734
:1063C000A0F42E1B3F0B2817390778F0AC014E5F65
:1063D0005F4F2417350748F04E0F5F1F50939D06FF
:1063E00040939C068193919302C0E0E0F0E0CF01DE
:1063F000DF91CF911F910F910895CF93DF93009775
:1064000009F481C0FC01329713821282A0919E068A
:10641000B0919F06109781F420813181820F931FE4
:1064200020919C0630919D062817390751F5F0936D
:106430009D06E0939C0667C0ED0120E030E0CE179A
:10644000DF0740F44A815B819E0141155105F1F05F
:10645000EA01F5CFD383C28340815181840F951F18
:10646000C817D90759F488819981840F951F02961E
:10647000918380838A819B81938382832115310557
:1064800029F4F0939F06E0939E063DC0E901FB834B
:10649000EA8349915991C40FD51FEC17FD0761F4A8
:1064A00080819181840F951F0296E90199838883E9
:1064B000828193819B838A83E0E0F0E012968D9144
:1064C0009C911397009719F0FD01DC01F7CF8D9196
:1064D0009C9111979D012E5F3F4F820F931F20913A
:1064E0009C0630919D062817390769F4309729F4E6
:1064F00010929F0610929E0602C013821282B093E1
:106500009D06A0939C06DF91CF910895DC0101C008
:106510006D9341505040E0F70895FB01DC010D9070
:106520000020E9F7119701900D920020E1F70895FE
:10653000FB01DC018D91019080190110D9F3990BB9
:106540000895FB01DC0101900D920020E1F7089510
:10655000AEE0B0E0EEEAF2E30C940B318C01FA010C
:1065600086E08C831A83098377FF02C060E070E8BD
:10657000CB0101979E838D83A901BF01CE010196B6
:106580000E94F1334D815E8157FD0AC02F8138850D
:10659000421753070CF49A01F801E20FF31F10821F
:1065A0002E96E4E00C9427315058BB27AA270E946E
:1065B000EC320C9491300E94833038F00E948A3083
:1065C00020F039F49F3F19F426F40C9480300EF437
:1065D000E095E7FB0C947A30E92F0E94A23058F343
:1065E000BA17620773078407950720F079F4A6F5B8
:1065F0000C94C4300EF4E0950B2EBA2FA02D0B0195
:10660000B90190010C01CA01A0011124FF27591BF7
:1066100099F0593F50F4503E68F11A16F040A22FFD
:10662000232F342F4427585FF3CF4695379527956E
:10663000A795F0405395C9F77EF41F16BA0B620B6D
:10664000730B840BBAF09150A1F0FF0FBB1F661FB4
:10665000771F881FC2F70EC0BA0F621F731F841FF7
:1066600048F4879577956795B795F7959E3F08F01D
:10667000B0CF9395880F08F09927EE0F97958795DF
:1066800008950E9455330C9491300E948A3058F03E
:106690000E94833040F029F45F3F29F00C947A3057
:1066A00051110C94C5300C9480300E94A23068F3D4
:1066B0009923B1F3552391F3951B550BBB27AA27BB
:1066C00062177307840738F09F5F5F4F220F331FF5
:1066D000441FAA1FA9F335D00E2E3AF0E0E832D0BD
:1066E00091505040E695001CCAF72BD0FE2F29D0C0
:1066F000660F771F881FBB1F261737074807AB0792
:10670000B0E809F0BB0B802DBF01FF2793585F4F06
:106710003AF09E3F510578F00C947A300C94C530D5
:106720005F3FE4F3983ED4F3869577956795B795E8
:10673000F7959F5FC9F7880F911D9695879597F9F3
:106740000895E1E0660F771F881FBB1F621773076C
:106750008407BA0720F0621B730B840BBA0BEE1F81
:1067600088F7E09508950E94BA336894B1110C94AB
:10677000C53008950E94AA3088F09F5798F0B92F2D
:106780009927B751B0F0E1F0660F771F881F991F66
:106790001AF0BA95C9F714C0B13091F00E94C43014
:1067A000B1E008950C94C430672F782F8827B85F24
:1067B00039F0B93FCCF3869577956795B395D9F7BE
:1067C0003EF490958095709561957F4F8F4F9F4FC8
:1067D00008959F930E9484360F9007FCEE5F0C94FF
:1067E000AD36ABE0B0E0E7EFF3E30C94FD306C01C5
:1067F0007B018A01FC0117821682838181FFCCC153
:10680000CE0101963C01F6019381F70193FD85913C
:1068100093FF81917F01882309F4BAC1853239F44D
:1068200093FD859193FF81917F01853229F4B60113
:1068300090E00E94E835E7CF912C212C312CFFE12C
:10684000F315D8F08B3279F038F4803279F0833256
:10685000A1F4232D20611DC08D3261F0803369F4D5
:10686000232D216016C0832D8260382EE32DE46035
:106870003E2E2AC0F32DF8601DC037FC2DC020ED40
:10688000280F2A3040F08E32B9F436FC81C1232D16
:106890002064322E19C036FE06C08AE0989E200D74
:1068A0001124922E11C0EAE02E9E200D1124222EDA
:1068B000F32DF0623F2E08C08C3621F4832D8068C2
:1068C000382E02C0883641F4F70193FD859193FF7D
:1068D00081917F018111B3CF982F9F7D9554933083
:1068E00028F40C5F1F4F9FE399830DC0833631F06E
:1068F000833771F0833509F059C021C0F8018081D8
:1069000089830E5F1F4F88248394912C530113C0F9
:106910002801F2E04F0E511CF801A080B18036FE34
:1069200003C0692D70E002C06FEF7FEFC5010E94C8
:10693000DD354C018201F32DFF773F2E16C0280173
:1069400022E0420E511CF801A080B18036FE03C047
:10695000692D70E002C06FEF7FEFC5010E94D23554
:106960004C01F32DF0683F2E820133FC1BC0822DB9
:1069700090E088169906B0F4B60180E290E00E949B
:10698000E8352A94F4CFF50137FC859137FE8191E3
:106990005F01B60190E00E94E83521102A9421E0C1
:1069A000821A91088114910471F7E8C0843611F0BD
:1069B000893641F5F80137FE07C060817181828117
:1069C00093810C5F1F4F08C060817181072E000CFE
:1069D000880B990B0E5F1F4FF32DFF763F2E97FF0D
:1069E00009C090958095709561957F4F8F4F9F4F0F
:1069F000F0683F2E2AE030E0A3010E942436882E62
:106A0000861845C0853731F4232D2F7EB22E2AE01B
:106A100030E025C0932D997FB92E8F36C1F018F440
:106A2000883579F0B5C0803719F0883721F0B0C0CB
:106A3000E92FE061BE2EB4FE0DC0FB2DF460BF2E29
:106A400009C034FE0AC0292F2660B22E06C028E0F5
:106A500030E005C020E130E002C020E132E0F80182
:106A6000B7FE07C060817181828193810C5F1F4FE7
:106A700006C06081718180E090E00E5F1F4FA3012E
:106A80000E942436882E8618FB2DFF773F2E36FE77
:106A90000DC0232D2E7FA22E891458F434FE0BC076
:106AA00032FC09C0832D8E7EA82E05C0B82CA32CE5
:106AB00003C0B82C01C0B92CA4FE0FC0FE01E80D24
:106AC000F11D8081803321F49A2D997EA92E09C071
:106AD000A2FE06C0B394B39404C08A2D867809F050
:106AE000B394A3FC11C0A0FE06C0B21488F4280C15
:106AF000922C9B180EC0B21460F4B60180E290E0B4
:106B00000E94E835B394F7CFB21418F42B1802C0E2
:106B1000982C212CA4FE10C0B60180E390E00E94C6
:106B2000E835A2FE17C0A1FC03C088E790E002C0D0
:106B300088E590E0B6010CC08A2D867859F0A1FE58
:106B400002C08BE201C080E2A7FC8DE2B60190E0BA
:106B50000E94E835891438F4B60180E390E00E9481
:106B6000E8359A94F7CF8A94F301E80DF11D8081FE
:106B7000B60190E00E94E8358110F5CF222009F49B
:106B800042CEB60180E290E00E94E8352A94F6CF2A
:106B9000F6018681978102C08FEF9FEF2B96E2E18D
:106BA0000C941931FC010590615070400110D8F728
:106BB000809590958E0F9F1F0895FC016150704045
:106BC00001900110D8F7809590958E0F9F1F089522
:106BD0000F931F93CF93DF93FB01238121FD03C00C
:106BE0008FEF9FEF2CC022FF16C046815781248172
:106BF00035814217530744F4A081B1819D012F5F75
:106C00003F4F318320838C93268137812F5F3F4F05
:106C10003783268314C08B01EC01FB010084F185CE
:106C2000E02D0995892BE1F6D80116968D919C915E
:106C30001797019617969C938E931697CE01DF9126
:106C4000CF911F910F910895FA01AA27283051F191
:106C5000203181F1E8946F936E7F6E5F7F4F8F4F8D
:106C60009F4FAF4FB1E03ED0B4E03CD0670F781FEC
:106C7000891F9A1FA11D680F791F8A1F911DA11DD1
:106C80006A0F711D811D911DA11D20D009F468940A
:106C90003F912AE0269F11243019305D3193DEF6B2
:106CA000CF010895462F4770405D4193B3E00FD068
:106CB000C9F7F6CF462F4F70405D4A3318F0495D53
:106CC00031FD4052419302D0A9F7EACFB4E0A69536
:106CD0009795879577956795BA95C9F70097610558
:106CE000710508959B01AC010A2E069457954795AE
:106CF00037952795BA95C9F7620F731F841F951FA3
:106D0000A01D08950C9480300E94AA30D8F3E89416
:106D1000E0E0BB279F57F0F02AED3FE049EC06C0CA
:106D2000EE0FBB0F661F771F881F28F0B23A62076D
:106D30007307840728F0B25A620B730B840BE39538
:106D40009A9572F7803830F49A95BB0F661F771FBB
:106D5000881FD2F790480C94C336EF93E0FF07C02A
:106D6000A2EA2AED3FE049EC5FEB0E94EC320E9480
:106D700091300F90039401FC9058E8EBF0E00C94F4
:106D8000CF369F3F31F0915020F4879577956795E6
:106D9000B795880F911D9695879597F908959F93BC
:106DA0008F937F936F93FF93EF939B01AC010E94AE
:106DB0000A30EF91FF910E94E3362F913F914F915E
:106DC0005F910C940A30DF93CF931F930F93FF9240
:106DD000EF92DF927B018C01689406C0DA2EEF01FE
:106DE0000E941D30FE01E894A591259135914591B1
:106DF0005591A6F3EF010E94EC32FE019701A80124
:106E0000DA9469F7DF90EF90FF900F911F91CF9187
:106E1000DF910895991B79E004C0991F961708F037
:106E2000961B881F7A95C9F780950895AA1BBB1BEE
:106E300051E107C0AA1FBB1FA617B70710F0A61B7A
:106E4000B70B881F991F5A95A9F780959095BC019B
:106E5000CD01089597FB072E16F4009407D077FD17
:106E600009D00E94163707FC05D03EF49095819515
:106E70009F4F0895709561957F4F0895EE0FFF1F06
:106E80000590F491E02D099412E0C8EDD2E004C021
:106E9000FE010E943E372196C93DD107C9F7F894FB
:026EA000FFCF22
:106EA200010000000000A006200000000000C61D36
:106EB200CD204F1E131E331E081E00000000FD20B1
:106EC200CD209420AC206B2085202C007377697430
:106ED20063684D6F6430007377697463684D6F64E3
:106EE20031007377697463684D6F64320072657341
:106EF20065740077726F6E6700636F727265637498
:106F02000063656C656200636F6E736F0073747308
:106F12006573730073746D617400737467616D00DF
:106F22007374656E7400616C726561647900656C7E
:106F320061707300707261747465007072656E6363
:106F42006F007072737461007072656E64006D6FB1
:106F52006F64616E64677279006D6F6F64657863E8
:106F62006974006D6F6F646861707079006D6F6F26
:106F720064736164006D6F6F6473757270006D6F1E
:106F82006F647363617265006E6567726561630049
:106F9200706F737265616300717569657400636116
:106FA2007265737300746F756368007371756565DC
:106FB2007A65006875670063686F6B650073686F58
:106FC200766500686974006869746600686974723D
:106FD200006869746C006869746200726561637448
:106FE200686973003E00737461626C650077697052
:106FF2006500626C696E6B006672007269006261A4
:10700200006C7000667000770078007A007100688A
:1070120069746C6566740068697466726F6E740078
:107022006869747269676874006869746261636B25
:10703200006D696C6C692000696E736964654C450A
:0A704200446D696C6C697320000056
:00000001FF
