:100000000C945E000C9486000C9486000C94860080
:100010000C9486000C9486000C9486000C94860048
:100020000C9486000C9486000C9486000C94860038
:100030000C9486000C9486000C9486000C94860028
:100040000C946F040C9486000C9438040C94FD03FB
:100050000C9486000C9486000C9486000C94860008
:100060000C9486000C9486000000000024002700F9
:100070002A0000000007000201000003040600003F
:10008000000000000000010204081020408001026E
:1000900004081020010204081020000000002500C0
:1000A00028002B00040404040404040402020202D5
:1000B0000202030303030303B904FC0711241FBE58
:1000C000CFEFD8E0DEBFCDBF11E0A0E0B1E0E6ECBD
:1000D000F4E102C005900D92A432B107D9F721E0F6
:1000E000A4E2B1E001C01D92AF3FB207E1F710E01A
:1000F000CDE5D0E004C02197FE010E94500ACC3526
:10010000D107C9F70E9478050C94AE080C94000042
:1001100090E0FC01EE58FF4F2491FC01EA57FF4F9D
:100120003491FC01EC55FF4FE491EE23B9F1222309
:1001300039F1233091F038F42130A9F0223001F563
:1001400084B58F7D12C0263091F02730A1F0243085
:10015000B9F4809180008F7D03C0809180008F77FB
:10016000809380000DC084B58F7784BD09C08091D5
:10017000B0008F7703C08091B0008F7D8093B00076
:10018000F0E0EE0FFF1FE656FF4FA591B4919FB729
:10019000F8948C91309538233C939FBF08958F92AB
:1001A0009F92AF92BF92CF92DF92EF92FF92CF9346
:1001B000DF932091E7013091E8018217930708F05F
:1001C00057C04B01AA24BB24F82DC52ED62EE72EEE
:1001D000FF24AC2DE42F2091ED01222361F0829EBB
:1001E00040011124F92D2C9D60011124AD2D249F77
:1001F000E0011124ED2F3091F301B091F001E09076
:10020000EE01F090EF013B1308C09C01220F331F59
:10021000820F931F8E0D9F1D19C0880F991F880F85
:10022000991F8E0D9F1D472F552766277727EC01B5
:10023000C30FD11D222349F030E0249F7001259F78
:10024000F00C349FF00C11244F2D48832091F001C5
:10025000EC01C20FD11DF8832091F101EC01C20F16
:10026000D11DA8832091F201DC01A20FB11DEC93F6
:10027000DF91CF91FF90EF90DF90CF90BF90AF9044
:100280009F908F900895CF93DF9390E0FC01EA5701
:10029000FF4F2491FC01EC55FF4F8491882361F1BD
:1002A00090E0880F991FFC01E859FF4FC591D49148
:1002B000FC01E656FF4FA591B491611109C09FB7AB
:1002C000F8948881209582238883EC912E230BC09B
:1002D000623061F49FB7F8948881322F3095832380
:1002E0008883EC912E2B2C939FBF06C08FB7F89478
:1002F000E8812E2B28838FBFDF91CF910895CF9275
:10030000DF92EF92FF920F931F93CF93DF936C01D5
:10031000EB017B01E40EF51E00E010E0CE15DF05D9
:1003200061F06991D601ED91FC910190F081E02D91
:10033000C6010995080F191FF1CFC801DF91CF91B0
:100340001F910F91FF90EF90DF90CF900895089547
:100350000F931F93CF93DF93FC01A685B7858D0183
:10036000005C1F4FE8018881998101968F7399275E
:10037000AD014E5B5F4FEA012881398182179307F7
:10038000D1F3E80128813981A20FB31F6C93A685B0
:10039000B785A05CBF4F11969C938E93A689B789B1
:1003A0002C9181E090E0078C02C0880F991F0A947D
:1003B000E2F7822B8C9381E081A30488F589E02DFC
:1003C00080818064808381E090E0DF91CF911F91F4
:1003D0000F910895CF93DF936DE089EB91E00E9438
:1003E000A801EC016AE089EB91E00E94A8018C0F62
:1003F0009D1FDF91CF910895FC0181A1882329F0F1
:10040000A489B5898C9186FFFBCF11A20895FC01C8
:10041000A485B585FD01E05CFF4F208131813296D6
:10042000808191812817390779F080819181A80F07
:10043000B91F8C91208131812F5F3F4F2F7333275C
:100440003183208390E008958FEF9FEF0895DC01C2
:100450001C96ED91FC911D97DF01A05CBF4F2D9183
:100460003C91119712968D919C91119728173907FD
:1004700039F08D919C91E80FF91F808190E00895EB
:100480008FEF9FEF0895FC0124853585F901E05C2D
:10049000FF4F80819181329620813181821B930BA5
:1004A0008F739927089589EB91E00C9443023FB72D
:1004B000F8948091290190912A01A0912B01B0918B
:1004C0002C0126B5A89B05C02F3F19F00196A11D50
:1004D000B11D3FBFBA2FA92F982F8827820F911DDA
:1004E000A11DB11DBC01CD0142E0660F771F881F21
:1004F000991F4A95D1F708950F931F93CF93DF93D8
:10050000CDB7DEB729970FB6F894DEBF0FBECDBFCB
:100510008091EE019091EF01892B09F4A2C00E9415
:1005200057020091F4011091F5012091F6013091EC
:10053000F701DC01CB01801B910BA20BB30B8C32BA
:100540009140A105B10558F3F8948091E90190918B
:10055000EA019A838983E091EE01F091EF01DF01D6
:100560001196808189879091E301E091F801F091E3
:10057000F9018091FA01992309F42EC09081982BFA
:1005800098879081809589238F838F818C8388E0E1
:100590008B8358856F8149853B812C8189819A8124
:1005A000508347FD252F3A952083262F39F0441F8D
:1005B00000C000006083000000C0F2CF38E04D9121
:1005C00060830000019761F7F093F901E093F8016F
:1005D00049873B832C8338C09081982B98879081E2
:1005E000809589238F838F818E8388E08D835885C2
:1005F0006F8149853D812E8189819A81508347FD94
:10060000252F00C000C0208300C000C000C000C073
:1006100000C060830000262F3A9541F0441F00007F
:1006200000C000C000C000C000C0E8CF38E04D915D
:1006300000C0608300C0019709F7F093F901E093CF
:10064000F80149873D832E839A83898378940E9499
:1006500057026093F4017093F5018093F601909333
:10066000F70129960FB6F894DEBF0FBECDBFDF911C
:10067000CF911F910F910895CF92DF92EF92FF9249
:10068000CF93DF936B017C010E945702EB01C114F1
:10069000D104E104F10479F00E9457026C1B7D0B38
:1006A000683E7340A0F381E0C81AD108E108F10860
:1006B000C851DC4FECCFDF91CF91FF90EF90DF90EE
:1006C000CF900895CF93C0E08C2F90E02091E70168
:1006D0003091E8018217930770F440E050E0BA01CE
:1006E0000E94CF000E947C0260E070E0CB010E947B
:1006F0003C03CF5FE9CFCF910895009769F0FC01EB
:1007000001900020E9F73197AF01481B590BBC015C
:1007100089EB91E00C947F0180E090E008958F9246
:100720009F92AF92BF92EF92FF920F931F93CF933E
:10073000DF93CDB7DEB7A1970FB6F894DEBF0FBE3B
:10074000CDBF162F042F19A2423008F40AE07E0113
:1007500021E2E20EF11C802E912CA12CB12C612FF4
:10076000A50194010E94E308029F1019112481E061
:10077000E81AF1081A3014F4105D01C0195CF70191
:100780001083122F732FCA01232B242B252B39F70B
:10079000C7010E947D03A1960FB6F894DEBF0FBE7D
:1007A000CDBFDF91CF911F910F91FF90EF90BF9040
:1007B000AF909F908F900895CF92DF92EF92FF922B
:1007C000CF93DF936B017C016DE289EB91E00E9496
:1007D000A801EC0166277727CB016C197D098E09EA
:1007E0009F094AE00E948F038C0F9D1FDF91CF91DC
:1007F000FF90EF90DF90CF9008951F920F920FB669
:100800000F9211242F933F938F939F93EF93FF9316
:100810002091710130917201809173019091740166
:100820002817390731F48091C1008F7D8093C10072
:1008300014C0E0917301F0917401EF5CFE4F2081D0
:10084000809173019091740101968F739927909311
:100850007401809373012093C600FF91EF919F91E3
:100860008F913F912F910F900FBE0F901F90189571
:100870001F920F920FB60F9211242F934F935F93F5
:100880008F939F93EF93FF938091C00082FD1BC0D5
:100890002091C6008091B5019091B60101968F73A9
:1008A00099274091B7015091B8018417950759F0E5
:1008B000E091B501F091B601EB58FE4F2083909383
:1008C000B6018093B501FF91EF919F918F915F9158
:1008D0004F912F910F900FBE0F901F9018951F9260
:1008E0000F920FB60F9211242F933F938F939F93E4
:1008F000AF93BF938091250190912601A09127018C
:10090000B09128013091240123E0230F2D3720F4EA
:100910000196A11DB11D05C026E8230F0296A11D59
:10092000B11D209324018093250190932601A0936B
:100930002701B09328018091290190912A01A0916B
:100940002B01B0912C010196A11DB11D80932901AD
:1009500090932A01A0932B01B0932C01BF91AF91EA
:100960009F918F913F912F910F900FBE0F901F90ED
:1009700018951092BC011092BB0188EE93E0A0E0A4
:10098000B0E08093BD019093BE01A093BF01B093EE
:10099000C0018EE091E09093BA018093B90185E7A0
:1009A00091E09093C6018093C50181E391E090931B
:1009B000C8018093C70185EC90E09093CA018093B1
:1009C000C90184EC90E09093CC018093CB0180EC42
:1009D00090E09093CE018093CD0181EC90E09093D4
:1009E000D0018093CF0182EC90E09093D20180936C
:1009F000D10186EC90E09093D4018093D30184E000
:100A00008093D50183E08093D60187E08093D7015E
:100A100085E08093D80181E08093D9011092E601AE
:100A20001092ED011092F4011092F5011092F6016E
:100A30001092F7018093F3018093F0011092F1017D
:100A400092E09093F2018093E30184EB90E0909325
:100A5000EA018093E9010E9414099093EF018093C9
:100A6000EE01009761F024EBFC0111922A95E9F761
:100A70008CE390E09093E8018093E70108C0109226
:100A8000EA011092E9011092E8011092E70184E076
:100A900090E09093EC018093EB018091E601882334
:100AA00039F061E084E00E94430184E00E94880004
:100AB000E8EAF0E0E491F0E0EE0FFF1FE656FF4FAA
:100AC000859194919093F9018093F801EAE8F0E020
:100AD000E491E093FA018FEF90E0A0E0B0E0809322
:100AE000DB019093DC01A093DD01B093DE0108955A
:100AF000789484B5826084BD84B5816084BD85B5F9
:100B0000826085BD85B5816085BD80916E00816004
:100B100080936E00109281008091810082608093AA
:100B200081008091810081608093810080918000AC
:100B30008160809380008091B10084608093B100D7
:100B40008091B00081608093B00080917A008460D1
:100B500080937A0080917A00826080937A008091FD
:100B60007A00816080937A0080917A008068809317
:100B70007A001092C100E091CD01F091CE0181E0A8
:100B800090E09C010090D90102C0220F331F0A940B
:100B9000E2F72083E091C901F091CA011082E0914F
:100BA000CB01F091CC0120E120831092DA01E09199
:100BB000CF01F091D00140819C010090D50102C08D
:100BC000220F331F0A94E2F7242B2083E091CF01F8
:100BD000F091D00140819C010090D60102C0220F0B
:100BE000331F0A94E2F7242B2083E091CF01F09188
:100BF000D00140819C010090D70102C0220F331F19
:100C00000A94E2F7242B2083E091CF01F091D001E8
:100C100020810090D80102C0880F991F0A94E2F742
:100C20008095822380838091EB019091EC0197FD68
:100C300007C061E00E9443018091EB010E9488009F
:100C400081E08093E6010E947C026091ED016739AA
:100C500021F12091EE013091EF01615031F070E00F
:100C60008FEF96E90E943C0A02C060E070E0F90153
:100C70004091E9015091EA01CF01821B930B841747
:100C8000950740F44081469FC001479F900D112475
:100C90009193EECF87E98093ED01C090DB01D09076
:100CA000DC01E090DD01F090DE014091E90150911E
:100CB000EA0160E070E08091EE019091EF010E9406
:100CC000350AC0E0D0E08091E7019091E801969567
:100CD0008795C817D90718F0C0E0D0E019C0B70150
:100CE000A601CE010E94CF008091E7019091E8011A
:100CF000B701A6018C1B9D0B0E94CF000E947C02B5
:100D000062E370E080E090E00E943C032296DBCF3B
:100D10008091E7019091E80196958795C817D907CA
:100D2000F0F440E050E0BA018C0F9D1F0E94CF000C
:100D30008091E7019091E8019695879540E050E019
:100D4000BA018C1B9D0B0E94CF000E947C0262E3C3
:100D500070E080E090E00E943C032196D9CF0E9491
:100D6000620368EE73E080E090E00E943C038091B3
:100D70002F01909130018C3D25E092070CF011C1BC
:100D80009C012F5F3F4F3093300120932F01B90119
:100D9000032E000C880B990B37FF03C00E94DC0365
:100DA00003C04AE00E948F030E94EA0149E053E138
:100DB0006DE370E080E090E00E94CF0049E053E1F5
:100DC0006DE370E082E090E00E94CF0049E053E1E3
:100DD0006DE370E084E090E00E94CF0049E053E1D1
:100DE0006DE370E086E090E00E94CF0049E053E1BF
:100DF0006DE370E088E090E00E94CF0049E053E1AD
:100E00006DE370E08AE090E00E94CF0049E053E19A
:100E10006DE370E08CE090E00E94CF0049E053E188
:100E20006DE370E08EE090E00E94CF0049E053E176
:100E30006DE370E080E190E00E94CF0049E053E173
:100E40006DE370E082E190E00E94CF0049E053E161
:100E50006DE370E084E190E00E94CF0049E053E14F
:100E60006DE370E086E190E00E94CF0049E053E13D
:100E70006DE370E088E190E00E94CF0049E053E12B
:100E80006DE370E08AE190E00E94CF0049E053E119
:100E90006DE370E08CE190E00E94CF0049E053E107
:100EA0006DE370E08EE190E00E94CF0049E053E1F5
:100EB0006DE370E080E290E00E94CF0049E053E1F2
:100EC0006DE370E082E290E00E94CF0049E053E1E0
:100ED0006DE370E084E290E00E94CF0049E053E1CE
:100EE0006DE370E086E290E00E94CF0049E053E1BC
:100EF0006DE370E088E290E00E94CF0049E053E1AA
:100F00006DE370E08AE290E00E94CF0049E053E197
:100F10006DE370E08CE290E00E94CF0049E053E185
:100F20006DE370E08EE290E00E94CF0049E053E173
:100F30006DE370E080E390E00E94CF0049E053E170
:100F40006DE370E082E390E00E94CF0049E053E15E
:100F50006DE370E084E390E00E94CF0049E053E14C
:100F60006DE370E086E390E00E94CF0049E053E13A
:100F70006DE370E088E390E00E94CF0049E053E128
:100F80006DE370E08AE390E00E94CF0049E053E116
:100F90006DE370E08CE390E00E94CF000E947C0241
:100FA000E6CE0E9462030E94570823E030E040E052
:100FB00050E00E94B10870932E0160932D018AE1E8
:100FC00091E00E947D030E94EA0160912D017091E1
:100FD0002E01072E000C880B990B97FF03C00E946F
:100FE000DC0303C04AE00E948F030E94EA018EE105
:100FF00091E00E947D03FFCF8091EE019091EF017F
:101000000E94AC098091EB019091EC0197FD03C027
:1010100060E00C94430108958F929F92AF92BF922B
:10102000CF92DF92EF92FF92CF93DF93EC01688132
:1010300079818A819B81611571058105910521F472
:1010400064E279ED8BE597E02DE133EF41E050E08C
:101050000E94B10849015A019B01AC01A7EAB1E421
:101060000E94D0086B017C01ACEEB4EFA5019401A5
:101070000E94DE08DC01CB018C0D9D1DAE1DBF1D45
:10108000B7FF03C00197A109B04888839983AA8359
:10109000BB83BC01CD019F77DF91CF91FF90EF9093
:1010A000DF90CF90BF90AF909F908F9008958F92D8
:1010B0009F92AF92BF92CF92DF92EF92FF92609198
:1010C000000170910101809102019091030161156D
:1010D00071058105910521F464E279ED8BE597E0D6
:1010E0002DE133EF41E050E00E94B10849015A017F
:1010F0009B01AC01A7EAB1E40E94D0086B017C011E
:10110000ACEEB4EFA50194010E94DE08DC01CB0136
:101110008C0D9D1DAE1DBF1DB7FF03C00197A1091A
:10112000B0488093000190930101A0930201B09315
:101130000301BC01CD019F77FF90EF90DF90CF902E
:10114000BF90AF909F908F9008956093000170932F
:10115000010180930201909303010895F8940C9487
:10116000560A052E97FB1EF400940E94C80857FDEE
:1011700007D00E94E30807FC03D04EF40C94C80883
:1011800050954095309521953F4F4F4F5F4F0895B3
:1011900090958095709561957F4F8F4F9F4F0895E3
:1011A0000E940509A59F900DB49F900DA49F800DEE
:1011B000911D11240895B7FF0C94D0080E94D00807
:1011C000821B930B0895A1E21A2EAA1BBB1BFD01E3
:1011D0000DC0AA1FBB1FEE1FFF1FA217B307E40716
:1011E000F50720F0A21BB30BE40BF50B661F771F6E
:1011F000881F991F1A9469F760957095809590954E
:101200009B01AC01BD01CF010895A29FB001B39F26
:10121000C001A39F700D811D1124911DB29F700DFF
:10122000811D1124911D08950F931F93CF93DF9378
:101230008230910510F482E090E0E091FD01F091A0
:10124000FE0120E030E0A0E0B0E0309719F14081ED
:1012500051810281138148175907C8F084179507F7
:1012600069F4109731F012960C93129713961C9311
:1012700027C00093FD011093FE0122C02115310506
:1012800019F04217530718F49A01BD01EF01DF016D
:10129000F801DBCF21153105F9F0281B390B24307B
:1012A000310580F48A819B816115710521F0FB0174
:1012B0009383828304C09093FE018093FD01FE011D
:1012C000329644C0FE01E20FF31F819391932250A6
:1012D0003109398328833AC02091FB013091FC0108
:1012E000232B41F420910601309107013093FC013A
:1012F0002093FB0120910401309105012115310556
:1013000041F42DB73EB74091080150910901241BCB
:10131000350BE091FB01F091FC01E217F307A0F41B
:101320002E1B3F0B2817390778F0AC014E5F5F4F3B
:101330002417350748F04E0F5F1F5093FC01409370
:10134000FB018193919302C0E0E0F0E0CF01DF91D7
:10135000CF911F910F910895CF93DF93009709F4D8
:1013600081C0FC01329713821282A091FD01B091DD
:10137000FE01109781F420813181820F931F20910B
:10138000FB013091FC012817390751F5F093FC015E
:10139000E093FB0167C0ED0120E030E0CE17DF07EE
:1013A00040F44A815B819E0141155105F1F0EA014B
:1013B000F5CFD383C28340815181840F951FC81715
:1013C000D90759F488819981840F951F02969183DA
:1013D00080838A819B81938382832115310529F43F
:1013E000F093FE01E093FD013DC0E901FB83EA8338
:1013F00049915991C40FD51FEC17FD0761F4808105
:101400009181840F951F0296E901998388838281D7
:1014100093819B838A83E0E0F0E012968D919C910A
:101420001397009719F0FD01DC01F7CF8D919C9186
:1014300011979D012E5F3F4F820F931F2091FB015B
:101440003091FC012817390769F4309729F410927C
:10145000FE011092FD0102C013821282B093FC01C2
:10146000A093FB01DF91CF910895DC0101C06D9342
:1014700041505040E0F70895AA1BBB1B51E107C043
:10148000AA1FBB1FA617B70710F0A61BB70B881F14
:10149000991F5A95A9F780959095BC01CD010895A3
:1014A000EE0FFF1F0590F491E02D099410E0CDE5BB
:1014B000D0E004C0FE010E94500A2196CE35D1072B
:0614C000C9F7F894FFCF0C
:1014C600010000000000FF01200000000000A8014C
:1014D6007F01430207022702FC0172616E00466922
:0414E6006E6500002F
:00000001FF
