:100000000C949D010C94CE010C94CE010C94CE0165
:100010000C94CE010C94CE010C94CE010C94CE0124
:100020000C94CE010C9442050C94F3050C94CB0572
:100030000C94CE010C94CE010C94CE010C94CE0104
:100040000C94CE010C94CE010C94CE010C94CE01F4
:100050000C94CE010C94CE010C94CE010C94F804B7
:100060000C94CE010C94A7070C94D8060C94CE01E6
:100070000C94CE010C94CE010C94CE010C94CE01C4
:100080000C94CE010C94CE010C94CE010C94CE01B4
:100090000C9477070C9499060C94CE010C94CE0125
:1000A0000C94CE010C94CE010C94CE010C94CE0194
:1000B0000C94CE010C94CE010C94CE010C94CE0184
:1000C0000C94CE010C94CE010C94CE010C944707F5
:1000D0000C945A060C94CE010C9417070C941B0632
:1000E0000C94CE019C039F0392039603D603A303B3
:1000F000A703AD03B103B503BB03BF03C303D6031B
:10010000C903CD03D1030C94B5030C9496030C944E
:100110009C030C94C3030C94D1030C94C7020C945D
:100120000E030C94F2020C94A3030C94AD030C94F4
:10013000BF030C949F030C94A7030C94B1030C947D
:10014000D7070C94DC010C949D0B0C9427040C94A1
:10015000C9030C9449030C9492030C94D2020C949E
:1001600085020C94D6030C9436020C94CD030C94A7
:100170005D020C94BB030C94450200002100240096
:1001800027002A002D003000330001010000040187
:1001900007010A010000090A02080B0C0D070603FB
:1001A000040100000000000000000000000000004A
:1001B000000000000000000000000000000000003F
:1001C00011100F00000000000000000000000000FF
:1001D0000000000000000000000000C2010001005B
:1001E000110011000C0000E100000A0025002500AC
:1001F0002100009600001900390039003600127AFB
:1002000000001F00460046004400807000002200ED
:100210004D004D004A00004B00003600750075008F
:100220007200403800004A009C009C009900802524
:1002300000007200EC00EC00E900C0120000E900D0
:10024000DA01DA01D70160090000D701B603B6036D
:10025000B303B0040000B3036E076E076B075802C8
:1002600000006E07DC0EDC0ED80E2C010000DC0E48
:10027000C11DC11DBE1D0000200023002600290055
:100280002C002F00320000010000030106010901CB
:1002900000002200250028002B002E003100340031
:1002A00002010000050108010B0105050505070510
:1002B00008080808020202020A0A080804040404E2
:1002C000010101010101010103030303030303030E
:1002D000040707070C0C0C0C0C0C0C0C020202029D
:1002E00006060606060606060B0B0B0B0B0B0B0B86
:1002F0000102102020080810204010204080020138
:10030000020108040201010204081020408080401C
:10031000201008040201800402018040201008041B
:1003200002010804020101020408102040800102B9
:10033000040810204080D7079D0B11241FBECFEF6B
:10034000D1E2DEBFCDBF00E00CBF12E0A0E0B2E022
:10035000EEEBF8E100E00BBF02C007900D92A03277
:10036000B107D9F725E0A0E2B2E001C01D92A133A8
:10037000B207E1F711E0CCE9D1E000E006C0219737
:100380000109802FFE010E94170CCB39D10780E0B4
:100390000807A9F70E9474090C94DE0B0C94000066
:1003A000DC015196ED91FC915297908150968C9181
:1003B00080958923808308952091620230916302A1
:1003C0002817390781F49091610280916002981793
:1003D00051F0E0916102F0E0E05EFD4F8081082E77
:1003E000000C990B08958FEF9FEF08952FB7F894A5
:1003F0008091690290916A02A0916B02B0916C02A7
:100400002FBF80931D0590931E05A0931F05B093E9
:10041000200585E195E00E94DC0197FF26C02FB7FB
:10042000F8948091690290916A02A0916B02B09158
:100430006C022FBF40911D0550911E0560911F0554
:1004400070912005841B950BA60BB70B40911905E5
:1004500050911A0560911B0570911C058417950732
:10046000A607B707B0F28FEF9FEF089520916202C1
:10047000309163022817390739F48FB7F894109236
:100480006002109261028FBF089520916202309144
:1004900063022817390771F480916002209161028C
:1004A00090E0805C9F4F821B910960E470E00E94A5
:1004B000E10B089580E090E0089520916202309170
:1004C000630228173907B9F49091610280916002A4
:1004D000981789F0E0916102F0E0E05EFD4F8081C5
:1004E0002091610230E02F5F3F4F2F73332720931D
:1004F000610290E008958FEF9FEF089520E001974B
:100500002FEF8F3F9207D9F708950F931F93CF9343
:10051000DF93FC01A685B7858D01005C1F4FE801C4
:100520008881998101968F739927AD014E5B5F4F4A
:10053000EA012881398182179307D1F3E8012881E4
:100540003981A20FB31F6C93A685B785A05CBF4FFE
:1005500011969C938E93A689B7892C9181E090E0A7
:10056000078C02C0880F991F0A94E2F7822B8C93A4
:1005700081E081A30488F589E02D808180648083F7
:1005800081E090E0DF91CF911F910F910895FC01E0
:1005900081A1882329F0A489B5898C9186FFFBCF9E
:1005A00011A20895FC01A485B585FD01E05CFF4F13
:1005B000208131813296808191812817390779F025
:1005C00080819181A80FB91F8C91208131812F5F8B
:1005D0003F4F2F7333273183208390E008958FEFAF
:1005E0009FEF0895DC011C96ED91FC911D97DF01B2
:1005F000A05CBF4F2D913C91119712968D919C91CB
:1006000011972817390739F08D919C91E80FF91F40
:10061000808190E008958FEF9FEF0895FC0124857D
:100620003585F901E05CFF4F808191813296208110
:100630003181821B930B8F739927089583EF94E088
:100640000E940E0389E494E00E940E038FE993E078
:100650000E940E0385EF92E00C940E03FB01E05C18
:10066000FF4F208131812F5F3F4F2F733327DB01F5
:10067000AE5BBF4F4D915C912417350741F040812F
:100680005181DB01A40FB51F8C9331832083089522
:100690000895CF92DF92EF92FF920F931F93CF9323
:1006A000DF936C01EB017B01E40EF51E00E010E02E
:1006B000CE15DF0561F06991D601ED91FC910190B5
:1006C000F081E02DC6011995080F191FF1CFC8015F
:1006D000DF91CF911F910F91FF90EF90DF90CF901E
:1006E0000895362F90E0FC01EC56FE4F4491FC013A
:1006F000E051FD4F2491FC01E655FD4F9491992363
:1007000009F468C0442309F451C050E0FA0131975C
:10071000E131F10508F04AC08827EE58FF4F8F4FAE
:100720000C94170C809180008F7703C0809180001B
:100730008F7D809380003AC084B58F7702C084B5E6
:100740008F7D84BD33C08091B0008F7703C08091CE
:10075000B0008F7D8093B00029C0809190008F778A
:1007600007C0809190008F7D03C080919000877FAB
:10077000809390001BC08091A0008F7707C080916C
:10078000A0008F7D03C08091A000877F8093A00090
:100790000DC0809120018F7707C0809120018F7D4F
:1007A00003C080912001877F80932001E92FF0E032
:1007B000EE0FFF1FE057FD4FA591B4919FB7F8943E
:1007C000311104C08C912095282302C0EC912E2B6E
:1007D0002C939FBF0895CF93DF9390E0FC01E051ED
:1007E000FD4F2491FC01E655FD4F8491882361F172
:1007F00090E0880F991FFC01E658FE4FC591D491F7
:10080000FC01E057FD4FA591B491611109C09FB75C
:10081000F8948881209582238883EC912E230BC045
:10082000623061F49FB7F8948881322F309583232A
:100830008883EC912E2B2C939FBF06C08FB7F89422
:10084000E8812E2B28838FBFDF91CF910895DF920F
:10085000EF92FF920F931F93CF93DF93EC01298DBB
:100860003A8D2115310529F481E090E09B838A833C
:100870005AC0162FDFB6F8948B8D81FD4DC0CE0186
:100880000E94D001898D9A8D05960E947E028B8DE3
:1008900098E0E92EF12C01E081FF1AC0812F80231E
:1008A00021F0CE010E94D00106C0E989FA89908129
:1008B0008889892B8083898D9A8D0E947E02000F02
:1008C00081E0E81AF10851F7CE010E94D0011CC066
:1008D000812F802339F0E989FA8990818889892BD1
:1008E000808303C0CE010E94D001898D9A8D0E9421
:1008F0007E02000F81E0E81AF10851F7E989FA89D0
:1009000090818889892B8083DFBE898D9A8D0E9492
:100910007E0221E030E007C0E989FA899081888968
:10092000892B8083AFCFC901DF91CF911F910F91A8
:10093000FF90EF90DF9008958F929F92AF92BF92B9
:10094000EF92FF920F931F93CF93DF93CDB7DEB754
:10095000A1970FB6F894DEBF0FBECDBF162F042FA0
:1009600019A2423008F40AE07E0121E2E20EF11CF5
:10097000802E912CA12CB12C612FA50194010E94F5
:10098000F50B029F1019112481E0E81AF1081A30C2
:1009900014F4105D01C0195CF7011083122F732F3E
:1009A000CA01232B242B252B39F7E114F10469F01C
:1009B00001900020E9F73197AF014E195F09B701A7
:1009C00083EF94E00E94490302C080E090E0A1968A
:1009D0000FB6F894DEBF0FBECDBFDF91CF911F9150
:1009E0000F91FF90EF90BF90AF909F908F900895E0
:1009F0001F920F920FB60F9211242F933F938F9354
:100A00009F93AF93BF938091690290916A02A091E6
:100A10006B02B0916C023091680223E0230F2D37F6
:100A200020F40196A11DB11D05C026E8230F0296F2
:100A3000A11DB11D209368028093690290936A0200
:100A4000A0936B02B0936C02809164029091650256
:100A5000A0916602B09167020196A11DB11D80931D
:100A6000640290936502A0936602B0936702BF91FF
:100A7000AF919F918F913F912F910F900FBE0F904B
:100A80001F9018951F920F920FB60F9211240BB65C
:100A90000F92EF92FF920F931F932F933F934F93D9
:100AA0005F936F937F938F939F93AF93BF93CF93F6
:100AB000DF93EF93FF93C0916202D091630220977E
:100AC00009F450C09B8DEE85FF858D8591FF04C094
:100AD0009081892329F446C09081892309F042C07E
:100AE0008B899C890E947E0288E0E82EF12C10E020
:100AF00001E08D899E890E947E02EE85FF859081AE
:100B00008D85892311F0102B03C0802F8095182329
:100B1000000F81E0E81AF10861F78F89988D0E9433
:100B20007E028B8D81FD1095809160022091610283
:100B300090E001968F73992730E08217930779F040
:100B4000E0916002F0E0E05EFD4F10838091600272
:100B500090E001968F7399278093600203C08B8D7C
:100B600081608B8FFF91EF91DF91CF91BF91AF911A
:100B70009F918F917F916F915F914F913F912F91B5
:100B80001F910F91FF90EF900F900BBE0F900FBE33
:100B90000F901F9018951F920F920FB60F9211246D
:100BA0000BB60F922F933F934F935F936F937F9367
:100BB0008F939F93AF93BF93EF93FF930E94420550
:100BC000FF91EF91BF91AF919F918F917F916F9125
:100BD0005F914F913F912F910F900BBE0F900FBEE1
:100BE0000F901F9018951F920F920FB60F9211241D
:100BF0000BB60F922F933F934F935F936F937F9317
:100C00008F939F93AF93BF93EF93FF930E944205FF
:100C1000FF91EF91BF91AF919F918F917F916F91D4
:100C20005F914F913F912F910F900BBE0F900FBE90
:100C30000F901F9018951F920F920FB60F921124CC
:100C40000BB60F922F933F938F939F93EF93FF9346
:100C50002091AD023091AE028091AF029091B0022E
:100C60002817390731F4809131018F7D809331014C
:100C700014C0E091AF02F091B002E359FD4F208122
:100C80008091AF029091B00201968F739927909353
:100C9000B0028093AF0220933601FF91EF919F91B4
:100CA0008F913F912F910F900BBE0F900FBE0F9021
:100CB0001F9018951F920F920FB60F9211240BB62A
:100CC0000F922F933F938F939F93EF93FF932091D6
:100CD0005703309158038091590390915A03281774
:100CE000390731F48091D1008F7D8093D10014C0F9
:100CF000E0915903F0915A03E95EFC4F2081809105
:100D0000590390915A0301968F73992790935A0330
:100D1000809359032093D600FF91EF919F918F917B
:100D20003F912F910F900BBE0F900FBE0F901F9011
:100D300018951F920F920FB60F9211240BB60F92B7
:100D40002F933F938F939F93EF93FF9320910104F1
:100D5000309102048091030490910404281739070C
:100D600031F48091C9008F7D8093C90014C0E09157
:100D70000304F0910404EF53FC4F2081809103049D
:100D80009091040401968F739927909304048093A3
:100D900003042093CE00FF91EF919F918F913F919B
:100DA0002F910F900BBE0F900FBE0F901F901895B4
:100DB0001F920F920FB60F9211240BB60F922F9322
:100DC0003F938F939F93EF93FF932091AB043091C8
:100DD000AC048091AD049091AE042817390731F42A
:100DE0008091C1008F7D8093C10014C0E091AD045B
:100DF000F091AE04E559FB4F20818091AD049091B4
:100E0000AE0401968F7399279093AE048093AD043E
:100E10002093C600FF91EF919F918F913F912F9169
:100E20000F900BBE0F900FBE0F901F9018951F9242
:100E30000F920FB60F9211240BB60F922F933F9380
:100E40004F935F936F937F938F939F93AF93BF93D2
:100E5000EF93FF938091300182FD06C080913601AF
:100E600061EB72E00E942E03FF91EF91BF91AF9171
:100E70009F918F917F916F915F914F913F912F91B2
:100E80000F900BBE0F900FBE0F901F9018951F92E2
:100E90000F920FB60F9211240BB60F922F933F9320
:100EA0004F935F936F937F938F939F93AF93BF9372
:100EB000EF93FF938091D00082FD06C08091D60011
:100EC0006BE573E00E942E03FF91EF91BF91AF910C
:100ED0009F918F917F916F915F914F913F912F9152
:100EE0000F900BBE0F900FBE0F901F9018951F9282
:100EF0000F920FB60F9211240BB60F922F933F93C0
:100F00004F935F936F937F938F939F93AF93BF9311
:100F1000EF93FF938091C80082FD06C08091CE00C0
:100F200065E074E00E942E03FF91EF91BF91AF91B5
:100F30009F918F917F916F915F914F913F912F91F1
:100F40000F900BBE0F900FBE0F901F9018951F9221
:100F50000F920FB60F9211240BB60F922F933F935F
:100F60004F935F936F937F938F939F93AF93BF93B1
:100F7000EF93FF938091C00082FD06C08091C60070
:100F80006FEA74E00E942E03FF91EF91BF91AF9141
:100F90009F918F917F916F915F914F913F912F9191
:100FA0000F900BBE0F900FBE0F901F901895CF9310
:100FB000DF931092F6041092F50488EE93E0A0E01F
:100FC000B0E08093F7049093F804A093F904B093F1
:100FD000FA04E4E0F2E0F093F404E093F3042FEA7F
:100FE00034E0309300052093FF042BE634E0309387
:100FF00002052093010525EC30E030930405209391
:10100000030524EC30E0309306052093050520EC21
:1010100030E0309308052093070521EC30E0309351
:101020000A052093090522EC30E030930C0520934B
:101030000B0526EC30E030930E0520930D0564E09F
:1010400060930F0553E05093100547E0409311055E
:1010500035E03093120521E02093130510924C04E3
:1010600010924B0480934D0490934E04A0934F0430
:10107000B0935004F0934A04E0934904C5E0D4E0EF
:10108000D0935604C0935504C1ECD3E0D0935804D8
:10109000C0935704CDECD0E0D0935A04C0935904C8
:1010A000CCECD0E0D0935C04C0935B04C8ECD0E0FF
:1010B000D0935E04C0935D04C9ECD0E0D09360048B
:1010C000C0935F04CAECD0E0D0936204C093610483
:1010D000CEECD0E0D0936404C093630460936504C5
:1010E0005093660440936704309368042093690426
:1010F0001092A2031092A1038093A3039093A403E0
:10110000A093A503B093A603F093A003E0939F03DD
:10111000CBE5D3E0D093AC03C093AB03C7E1D3E0FE
:10112000D093AE03C093AD03C5EDD0E0D093B00330
:10113000C093AF03C4EDD0E0D093B203C093B1032A
:10114000C0EDD0E0D093B403C093B303C1EDD0E0C1
:10115000D093B603C093B503C2EDD0E0D093B803EB
:10116000C093B703C6EDD0E0D093BA03C093B903E0
:101170006093BB035093BC034093BD033093BE0305
:101180002093BF031092F8021092F7028093F902A5
:101190009093FA02A093FB02B093FC02F093F60244
:1011A000E093F502E1EBF2E0F0930203E093010338
:1011B000EDE6F2E0F0930403E0930303E5E3F1E0EE
:1011C000F0930603E0930503E4E3F1E0F0930803F2
:1011D000E0930703E0E3F1E0F0930A03E0930903EF
:1011E000E1E3F1E0F0930C03E0930B03E2E3F1E0C1
:1011F000F0930E03E0930D03E6E3F1E0F0931003A8
:10120000E0930F0360931103509312034093130371
:1012100030931403209315031092180510921705AC
:101220008093190590931A05A0931B05B0931C0594
:1012300084E192E09093160580931505109229059C
:101240001092280510922B0510922A0510922D0558
:1012500010922C0510922F0510922E0580913005CA
:101260008E7F8D7F8093300561E088E00E94EB03E4
:1012700061E088E00E947103E8EFF2E0E491E0931E
:101280002505E2EBF2E0E491F0E0EE0FFF1FE057FE
:10129000FD4F85919491909327058093260560E0FA
:1012A0008CE00E94EB038091300581FD04C061E079
:1012B0008CE00E9471038CE080932105ECEFF2E05A
:1012C000E491E0932205E6EBF2E0E491F0E0EE0F2A
:1012D000FF1FEA58FD4F85919491909324058093C8
:1012E0002305DF91CF910895789484B5826084BD01
:1012F00084B5816084BD85B5826085BD85B581601A
:1013000085BD80916E00816080936E001092810097
:101310008091810082608093810080918100816052
:101320008093810080918000816080938000809113
:10133000B10084608093B1008091B000816080939F
:10134000B000809191008260809391008091910023
:1013500081608093910080919000816080939000E3
:101360008091A10082608093A1008091A1008160A2
:101370008093A1008091A00081608093A000809163
:1013800021018260809321018091210181608093FD
:1013900021018091200181608093200180917A0059
:1013A000846080937A0080917A00826080937A00D2
:1013B00080917A00816080937A0080917A008068C1
:1013C00080937A001092C100E0910705F091080522
:1013D00081E090E09C010090130502C0220F331FB2
:1013E0000A94E2F72083E0910305F091040510824E
:1013F000E0910505F091060520E120831092140587
:10140000E0910905F0910A0540819C0100900F05CB
:1014100002C0220F331F0A94E2F7242B2083E091AD
:101420000905F0910A0540819C010090100502C059
:10143000220F331F0A94E2F7242B2083E091090541
:10144000F0910A0540819C010090110502C0220F15
:10145000331F0A94E2F7242B2083E0910905F091D1
:101460000A0520810090120502C0880F991F0A9476
:10147000E2F780958223808383EF94E00E94C70285
:1014800010922F0510922E0510922D0510922C050A
:1014900010922B0510922A0510922905109228050A
:1014A0008AED91E020E030E0FC0145915591659195
:1014B0007491403C52416105710559F54CE0429FE1
:1014C000C001439F900D1124FC01E252FE4F259173
:1014D00034913093290520932805FC01E052FE4FFA
:1014E0002591349130932B0520932A05FC01EE5170
:1014F000FE4F2591349130932D0520932C05FC014E
:10150000EC51FE4F8591949190932F0580932E0579
:1015100007C02F5F3F4F0C962D30310509F0C4CF27
:1015200080912C0590912D05892B09F462C0809142
:10153000210526EF280F243048F09EEC980F9430B8
:1015400028F092EC980F983008F04DC03091680068
:10155000243050F09EEC980F943030F092EC980FBD
:10156000983010F494E001C091E0932B90936800C0
:1015700096EF980F943058F02EEC280F243038F066
:1015800022EC280F283040F0A0E0B0E007C0ABE626
:10159000B0E0EBE6F0E007C0ADE6B0E0283008F0E0
:1015A000C9C0EDE6F0E02081943010F486500BC005
:1015B000823381F0833381F0843381F092EC980F91
:1015C000983070F4892F91E001C0990F8A95EAF75D
:1015D000892F07C088E005C084E003C082E001C015
:1015E00081E0822B8C9380912E0590912F050E9493
:1015F0007E0280916202909163028551954091F044
:10160000809130058E7F809330058FB7F8941092CB
:1016100060021092610225E135E03093630220936D
:1016200062028FBF85E195E00E94360261E08DE0A5
:101630000E94EB0385E195E00E944502892BD9F1D8
:101640000E94F601FC0197FD0BC08D329105B1F1AE
:10165000C0970A9798F185E195E00E945D02F0CF6E
:10166000C12CD12C760185E195E00E945D020A979C
:1016700011F5E6010D2C000CEE08FF08F7FE0EC078
:101680006DE283EF94E00E94850266277727CB0105
:101690006C197D098E099F094AE003C04AE0C70121
:1016A000B6010E949C04289714F461E001C060E038
:1016B0008DE00E9471030E941E03BCCFC12CD12C6F
:1016C0007601C0E0E130F105E1F0ED32F105C1F065
:1016D000CF01C0970A97A8F4AAE0B0E0A70196014D
:1016E0000E941F0C6F01FF0FEE08FF08C60ED71EE9
:1016F000E81EF91E80E3C81AD108E108F10801C00C
:10170000C1E085E195E00E945D020E94F601FC01C6
:10171000C0970A97B8F2E130F105A1F2CC2309F4A1
:10172000A2CFF094E094D094C094C11CD11CE11CD1
:10173000F11C99CFE0E0F0E036CF84E192E09093A5
:101740001605809315059091210526EF290F243069
:1017500048F08EEC890F843028F082EC890F8830B5
:1017600030F00895EBE6F0E0ABE6B0E004C0EDE663
:10177000F0E0ADE6B0E03C91243018F42AEF290FF8
:101780000BC0923389F0933389F0943389F082EC63
:10179000890F883078F4282F81E090E001C0880F0D
:1017A0002A95EAF7809507C087EF05C08BEF03C045
:1017B0008DEF01C08EEF832380830895F8940C94FD
:1017C0004D0C97FB072E16F4009407D077FD09D037
:1017D0000E942A0C07FC05D03EF4909581959F4FFE
:1017E0000895709561957F4F0895A1E21A2EAA1B66
:1017F000BB1BFD010DC0AA1FBB1FEE1FFF1FA217C1
:10180000B307E407F50720F0A21BB30BE40BF50BBD
:10181000661F771F881F991F1A9469F76095709546
:10182000809590959B01AC01BD01CF010895EE0F0D
:10183000FF1F881F8BBF0790F691E02D19940E941F
:101840003E0CA59F900DB49F900DA49F800D911DFF
:1018500011240895AA1BBB1B51E107C0AA1FBB1F7F
:10186000A617B70710F0A61BB70B881F991F5A952C
:10187000A9F780959095BC01CD010895A29FB00174
:10188000B39FC001A39F700D811D1124911DB29FB4
:10189000700D811D1124911D089511E0CCE9D1E056
:1018A00000E006C0802FFE010E94170C2196011D4A
:0E18B000CD39D10780E00807A9F7F894FFCFE3
:1018BE0000000000850249030E03D202F202C702A5
:1018CE00000000002704490345025D02DC013602D8
:00000001FF
