:100000000C945E000C9486000C9486000C94860080
:100010000C9486000C9486000C9486000C94860048
:100020000C9486000C9486000C9486000C94860038
:100030000C9486000C9486000C9486000C94860028
:100040000C94BA030C9486000C9483030C9448031C
:100050000C9486000C9486000C9486000C94860008
:100060000C9486000C9486000000000024002700F9
:100070002A0000000007000201000003040600003F
:10008000000000000000010204081020408001026E
:1000900004081020010204081020000000002500C0
:1000A00028002B00040404040404040402020202D5
:1000B00002020303030303030404EC0511241FBE1F
:1000C000CFEFD8E0DEBFCDBF11E0A0E0B1E0E6EABF
:1000D000F0E102C005900D92A032B107D9F721E0FE
:1000E000A0E2B1E001C01D92A33FB207E1F710E02A
:1000F000CDE5D0E004C02197FE010E944008CC3538
:10010000D107C9F70E94B7040C949E060C94000016
:1001100090E0FC01EE58FF4F2491FC01EA57FF4F9D
:100120003491FC01EC55FF4FE491EE23B9F1222309
:1001300039F1233091F038F42130A9F0223001F563
:1001400084B58F7D12C0263091F02730A1F0243085
:10015000B9F4809180008F7D03C0809180008F77FB
:10016000809380000DC084B58F7784BD09C08091D5
:10017000B0008F7703C08091B0008F7D8093B00076
:10018000F0E0EE0FFF1FE656FF4FA591B4919FB729
:10019000F8948C91309538233C939FBF08958F92AB
:1001A0009F92AF92BF92CF92DF92EF92FF92CF9346
:1001B000DF934B01AA24BB24F82DC52ED62EE72EA3
:1001C000FF24AC2DE42F2091E101222361F0829ED7
:1001D00040011124F92D2C9D60011124AD2D249F87
:1001E000E0011124ED2F3091E701B091E401E0909E
:1001F000E201F090E3013B1308C09C01220F331F82
:10020000820F931F8E0D9F1D19C0880F991F880F95
:10021000991F8E0D9F1D472F552766277727EC01C5
:10022000C30FD11D222349F030E0249F7001259F88
:10023000F00C349FF00C11244F2D48832091E401E1
:10024000EC01C20FD11DF8832091E501EC01C20F32
:10025000D11DA8832091E601DC01A20FB11DEC9312
:10026000DF91CF91FF90EF90DF90CF90BF90AF9054
:100270009F908F900895CF93DF9390E0FC01EA5711
:10028000FF4F2491FC01EC55FF4F8491882361F1CD
:1002900090E0880F991FFC01E859FF4FC591D49158
:1002A000FC01E656FF4FA591B491611109C09FB7BB
:1002B000F8948881209582238883EC912E230BC0AB
:1002C000623061F49FB7F8948881322F3095832390
:1002D0008883EC912E2B2C939FBF06C08FB7F89488
:1002E000E8812E2B28838FBFDF91CF910895CF9285
:1002F000DF92EF92FF920F931F93CF93DF936C01E6
:10030000EB017B01E40EF51E00E010E0CE15DF05E9
:1003100061F06991D601ED91FC910190F081E02DA1
:10032000C6010995080F191FF1CFC801DF91CF91C0
:100330001F910F91FF90EF90DF90CF900895089557
:100340000F931F93CF93DF93FC01A685B7858D0193
:10035000005C1F4FE8018881998101968F7399276E
:10036000AD014E5B5F4FEA01288139818217930707
:10037000D1F3E80128813981A20FB31F6C93A685C0
:10038000B785A05CBF4F11969C938E93A689B789C1
:100390002C9181E090E0078C02C0880F991F0A948D
:1003A000E2F7822B8C9381E081A30488F589E02D0C
:1003B00080818064808381E090E0DF91CF911F9104
:1003C0000F910895FC0181A1882329F0A489B589A2
:1003D0008C9186FFFBCF11A20895FC01A485B58501
:1003E000FD01E05CFF4F2081318132968081918157
:1003F0002817390779F080819181A80FB91F8C9156
:10040000208131812F5F3F4F2F733327318320832A
:1004100090E008958FEF9FEF0895DC011C96ED9119
:10042000FC911D97DF01A05CBF4F2D913C9111976E
:1004300012968D919C9111972817390739F08D915B
:100440009C91E80FF91F808190E008958FEF9FEF56
:100450000895FC0124853585F901E05CFF4F80811A
:100460009181329620813181821B930B8F73992762
:10047000089581EB91E00C9429023FB7F8948091A4
:10048000250190912601A0912701B091280126B560
:10049000A89B05C02F3F19F00196A11DB11D3FBFBC
:1004A000BA2FA92F982F8827820F911DA11DB11D4A
:1004B000BC01CD0142E0660F771F881F991F4A9546
:1004C000D1F708950F931F93CF93DF93CDB7DEB786
:1004D00029970FB6F894DEBF0FBECDBF8091E20121
:1004E0009091E301892B09F4A2C00E943D02009182
:1004F000E8011091E9012091EA013091EB01DC0162
:10050000CB01801B910BA20BB30B8C329140A10548
:10051000B10558F3F8948091DD019091DE019A8342
:100520008983E091E201F091E301DF01119680817E
:1005300089879091D701E091EC01F091ED018091D4
:10054000EE01992309F42EC09081982B9887908111
:10055000809589238F838F818C8388E08B83588556
:100560006F8149853B812C8189819A81508347FD28
:10057000252F3A952083262F39F0441F00C0000014
:100580006083000000C0F2CF38E04D91608300002E
:10059000019761F7F093ED01E093EC0149873B830C
:1005A0002C8338C09081982B9887908180958923DF
:1005B0008F838F818E8388E08D8358856F814985F5
:1005C0003D812E8189819A81508347FD252F00C06E
:1005D00000C0208300C000C000C000C000C0608315
:1005E0000000262F3A9541F0441F000000C000C0D3
:1005F00000C000C000C0E8CF38E04D9100C060836B
:1006000000C0019709F7F093ED01E093EC014987F1
:100610003D832E839A83898378940E943D02609360
:10062000E8017093E9018093EA019093EB01299628
:100630000FB6F894DEBF0FBECDBFDF91CF911F91F3
:100640000F910895CF92DF92EF92FF92CF93DF93B5
:100650006B017C010E943D02EB01C114D104E10455
:10066000F10479F00E943D026C1B7D0B683E7340E3
:10067000A0F381E0C81AD108E108F108C851DC4FA5
:10068000ECCFDF91CF91FF90EF90DF90CF90089566
:100690001F920F920FB60F9211242F933F938F93B7
:1006A0009F93EF93FF932091690130916A018091AC
:1006B0006B0190916C012817390731F48091C100CA
:1006C0008F7D8093C10014C0E0916B01F0916C01AB
:1006D000E75DFE4F208180916B0190916C01019646
:1006E0008F73992790936C0180936B012093C600C0
:1006F000FF91EF919F918F913F912F910F900FBE9E
:100700000F901F9018951F920F920FB60F92112401
:100710002F934F935F938F939F93EF93FF938091CA
:10072000C00082FD1BC02091C6008091AD01909158
:10073000AE0101968F7399274091AF015091B0019E
:100740008417950759F0E091AD01F091AE01E3599E
:10075000FE4F20839093AE018093AD01FF91EF9106
:100760009F918F915F914F912F910F900FBE0F909E
:100770001F9018951F920F920FB60F9211242F936E
:100780003F938F939F93AF93BF938091210190915B
:100790002201A0912301B09124013091200123E096
:1007A000230F2D3720F40196A11DB11D05C026E8A9
:1007B000230F0296A11DB11D2093200180932101DA
:1007C00090932201A0932301B093240180912501ED
:1007D00090912601A0912701B09128010196A11DB9
:1007E000B11D8093250190932601A0932701B0931A
:1007F0002801BF91AF919F918F913F912F910F90C1
:100800000FBE0F901F9018951092B4011092B30173
:1008100088EE93E0A0E0B0E08093B5019093B6013C
:10082000A093B701B093B8018EE091E09093B2012C
:100830008093B1018DE691E09093BE018093BD015C
:1008400089E291E09093C0018093BF0185EC90E034
:100850009093C2018093C10184EC90E09093C40115
:100860008093C30180EC90E09093C6018093C50112
:1008700081EC90E09093C8018093C70182EC90E0F6
:100880009093CA018093C90186EC90E09093CC01CB
:100890008093CB0184E08093CD0183E08093CE01EF
:1008A00087E08093CF0185E08093D00181E0809341
:1008B000D1011092DA011092E1011092E801109238
:1008C000E9011092EA011092EB018093E701809315
:1008D000E4011092E50192E09093E6018093D70144
:1008E00084EB90E09093DE018093DD010E94040789
:1008F0009093E3018093E201009761F024EBFC0107
:1009000011922A95E9F78CE390E09093DC018093B3
:10091000DB0108C01092DE011092DD011092DC01B3
:100920001092DB0184E090E09093E0018093DF017E
:100930008091DA01882339F061E084E00E943B0174
:1009400084E00E948800E8EAF0E0E491F0E0EE0F35
:10095000FF1FE656FF4F859194919093ED01809390
:10096000EC01EAE8F0E0E491E093EE010895CF9322
:10097000DF9300D000D000D0CDB7DEB7789484B537
:10098000826084BD84B5816084BD85B5826085BD8B
:1009900085B5816085BD80916E00816080936E0019
:1009A000109281008091810082608093810080910B
:1009B00081008160809381008091800081608093BC
:1009C00080008091B10084608093B1008091B0007C
:1009D00081608093B00080917A00846080937A0077
:1009E00080917A00826080937A0080917A008160A1
:1009F00080937A0080917A00806880937A001092C8
:100A0000C1008091DF019091E00197FD07C061E096
:100A10000E943B018091DF010E94880081E0809369
:100A2000DA010E9462026091E101633321F12091B9
:100A3000E2013091E301615031F070E08FEF92E319
:100A40000E942C0802C060E070E0F9014091DD01D5
:100A50005091DE01CF01821B930B8417950740F460
:100A60004081469FC001479F900D11249193EECF86
:100A700083E38093E101C12CD12C7601CA9440918B
:100A8000DD015091DE0160E070E08091E201909123
:100A9000E3010E9425081E821D828091DB01909156
:100AA000DC012D813E812817390708F06EC00E94B5
:100AB00047062B013C010E9447064B015C010E9446
:100AC000470669837A838B839C83C301B201A701A4
:100AD00096010E94A1062B013C015524662477242F
:100AE000320155244424C501B401A70196010E9496
:100AF000A106DC01CB019927AA27BB27BA2FA92F72
:100B0000982F8827482A592A6A2A7B2A69817A815C
:100B10008B819C81A70196010E94A106462AA12CE7
:100B2000B12C2091DB013091DC01C9014D815E8146
:100B3000841B950BA816B90610F5C50101978217FD
:100B4000930728F440E050E0BA010E94CF00809162
:100B5000DB019091DC01A816B90628F4B301A201CB
:100B6000C5010E94CF000E94620264E170E080E053
:100B700090E00E94220354E0A50EB11CD2CF8D81DB
:100B80009E8104969E838D8388CF68E873E180E020
:100B900090E00E94220319822981822F90E0209107
:100BA000DB013091DC018217930758F440E050E0FC
:100BB000BA010E94CF000E94620239813F5F3983EF
:100BC000EBCF44E050E06AE171E081EB91E00E94FC
:100BD00077010E94390253CF8091E2019091E301A5
:100BE0000E949C078091DF019091E00197FD03C076
:100BF00060E00C943B0108958F929F92AF92BF9258
:100C0000CF92DF92EF92FF92CF93DF93EC01688156
:100C100079818A819B81611571058105910521F496
:100C200064E279ED8BE597E02DE133EF41E050E0B0
:100C30000E94A10649015A019B01AC01A7EAB1E457
:100C40000E94C0066B017C01ACEEB4EFA5019401DB
:100C50000E94CE06DC01CB018C0D9D1DAE1DBF1D7B
:100C6000B7FF03C00197A109B04888839983AA837D
:100C7000BB83BC01CD019F77DF91CF91FF90EF90B7
:100C8000DF90CF90BF90AF909F908F9008958F92FC
:100C90009F92AF92BF92CF92DF92EF92FF926091BC
:100CA0000001709101018091020190910301611591
:100CB00071058105910521F464E279ED8BE597E0FA
:100CC0002DE133EF41E050E00E94A10649015A01B5
:100CD0009B01AC01A7EAB1E40E94C0066B017C0154
:100CE000ACEEB4EFA50194010E94CE06DC01CB016D
:100CF0008C0D9D1DAE1DBF1DB7FF03C00197A1093F
:100D0000B0488093000190930101A0930201B09339
:100D10000301BC01CD019F77FF90EF90DF90CF9052
:100D2000BF90AF909F908F90089560930001709353
:100D3000010180930201909303010895F8940C94AB
:100D40004608052E97FB1EF400940E94B80657FD36
:100D500007D00E94D30607FC03D04EF40C94B806CB
:100D600050954095309521953F4F4F4F5F4F0895D7
:100D700090958095709561957F4F8F4F9F4F089507
:100D80000E94F506A59F900DB49F900DA49F800D25
:100D9000911D11240895B7FF0C94C0060E94C0064F
:100DA000821B930B0895A1E21A2EAA1BBB1BFD0107
:100DB0000DC0AA1FBB1FEE1FFF1FA217B307E4073A
:100DC000F50720F0A21BB30BE40BF50B661F771F92
:100DD000881F991F1A9469F7609570958095909572
:100DE0009B01AC01BD01CF010895A29FB001B39F4B
:100DF000C001A39F700D811D1124911DB29F700D24
:100E0000811D1124911D08950F931F93CF93DF939C
:100E10008230910510F482E090E0E091F101F091D0
:100E2000F20120E030E0A0E0B0E0309719F140811D
:100E300051810281138148175907C8F0841795071B
:100E400069F4109731F012960C93129713961C9335
:100E500027C00093F1011093F20122C02115310542
:100E600019F04217530718F49A01BD01EF01DF0191
:100E7000F801DBCF21153105F9F0281B390B24309F
:100E8000310580F48A819B816115710521F0FB0198
:100E90009383828304C09093F2018093F101FE0159
:100EA000329644C0FE01E20FF31F819391932250CA
:100EB0003109398328833AC02091EF013091F00144
:100EC000232B41F420910601309107013093F0016A
:100ED0002093EF0120910401309105012115310586
:100EE00041F42DB73EB74091080150910901241BF0
:100EF000350BE091EF01F091F001E217F307A0F458
:100F00002E1B3F0B2817390778F0AC014E5F5F4F5F
:100F10002417350748F04E0F5F1F5093F0014093A0
:100F2000EF018193919302C0E0E0F0E0CF01DF9107
:100F3000CF911F910F910895CF93DF93009709F4FC
:100F400081C0FC01329713821282A091F101B0910D
:100F5000F201109781F420813181820F931F20913B
:100F6000EF013091F0012817390751F5F093F001A6
:100F7000E093EF0167C0ED0120E030E0CE17DF071E
:100F800040F44A815B819E0141155105F1F0EA016F
:100F9000F5CFD383C28340815181840F951FC81739
:100FA000D90759F488819981840F951F02969183FE
:100FB00080838A819B81938382832115310529F463
:100FC000F093F201E093F1013DC0E901FB83EA8374
:100FD00049915991C40FD51FEC17FD0761F4808129
:100FE0009181840F951F0296E901998388838281FC
:100FF00093819B838A83E0E0F0E012968D919C912F
:101000001397009719F0FD01DC01F7CF8D919C91AA
:1010100011979D012E5F3F4F820F931F2091EF018B
:101020003091F0012817390769F4309729F41092AC
:10103000F2011092F10102C013821282B093F0010A
:10104000A093EF01DF91CF910895DC0101C06D9372
:1010500041505040E0F70895AA1BBB1B51E107C067
:10106000AA1FBB1FA617B70710F0A61BB70B881F38
:10107000991F5A95A9F780959095BC01CD010895C7
:10108000EE0FFF1F0590F491E02D099410E0CDE5DF
:10109000D0E004C0FE010E9440082196CE35D10761
:0610A000C9F7F894FFCF30
:1010A600010000000000F301200000000000A00184
:1010B60077012902ED010D02E20146696E65000025
:00000001FF
