:100000000C9435010C9466010C9466010C94660105
:100010000C9466010C9466010C9466010C946601C4
:100020000C9466010C9466010C9466010C946601B4
:100030000C9466010C9466010C9466010C946601A4
:100040000C9466010C9466010C9466010C94660194
:100050000C9466010C9466010C9466010C945C058A
:100060000C9466010C942C050C945D040C946601B0
:100070000C9466010C9466010C9466010C94660164
:100080000C9466010C9466010C9466010C94660154
:100090000C94FC040C941E040C9466010C946601F0
:1000A0000C9466010C9466010C9466010C94660134
:1000B0000C9466010C9466010C9466010C94660124
:1000C0000C9466010C9466010C9466010C94CC04AB
:1000D0000C94DF030C9466010C949C040C94A00314
:1000E0000C946601A302A60299029D02DD02AA02F7
:1000F000AE02B402B802BC02C202C602CA02DD02EB
:10010000D002D402D8020C94AA020C94AF010C9431
:10011000D4020C94CA020C94BC020C949D020C9460
:10012000DD020C94BA010C9468010C94A3020C94A7
:10013000C2020C94D0020C94AE020C94B4020C9443
:10014000B8020C94D8020C94A6020C94DA010C9418
:10015000F6010C94A6050C9431020C9499020C94AF
:10016000C6020000090A02080B0C0D070603040171
:10017000000000000000000000000000000000007F
:10018000000000000000000000000000000011104E
:100190000F00000000000000000000000000000050
:1001A00000000000000000000000220025002800E0
:1001B0002B002E003100340002010000050108016F
:1001C0000B0100002100240027002A002D00300030
:1001D000330001010000040107010A0105050505BE
:1001E000070508080808020202020A0A08080404AF
:1001F00004040101010101010101030303030303DD
:100200000303040707070C0C0C0C0C0C0C0C02026B
:10021000020206060606060606060B0B0B0B0B0B68
:100220000B0B0102102020080810204010204080F5
:1002300002010201080402010102040810204080AA
:100240008040201008040201800402018040201038
:100250000804020108040201010204081020408081
:100260000102040810204080A60511241FBECFEF14
:10027000D1E2DEBFCDBF00E00CBF12E0A0E0B2E0F3
:10028000E0EAF0E100E00BBF02C007900D92A0325F
:10029000B107D9F724E0A0E2B2E001C01D92A93D68
:1002A000B207E1F711E0C5E3D1E000E006C0219715
:1002B0000109802FFE010E944608C433D10780E067
:1002C0000807A9F70E9478060C9421080C940000F6
:1002D0000F931F93CF93DF93FC01A685B7858D0104
:1002E000005C1F4FE8018881998101968F739927DF
:1002F000AD014E5B5F4FEA01288139818217930778
:10030000D1F3E80128813981A20FB31F6C93A68530
:10031000B785A05CBF4F11969C938E93A689B78931
:100320002C9181E090E0078C02C0880F991F0A94FD
:10033000E2F7822B8C9381E081A30488F589E02D7C
:1003400080818064808381E090E0DF91CF911F9174
:100350000F910895682F87EB94E00C946801FC01DD
:1003600081A1882329F0A489B5898C9186FFFBCFD0
:1003700011A20895FC01A485B585FD01E05CFF4F45
:10038000208131813296808191812817390779F057
:1003900080819181A80FB91F8C91208131812F5FBD
:1003A0003F4F2F7333273183208390E008958FEFE1
:1003B0009FEF0895DC011C96ED91FC911D97DF01E4
:1003C000A05CBF4F2D913C91119712968D919C91FD
:1003D00011972817390739F08D919C91E80FF91F73
:1003E000808190E008958FEF9FEF0895FC012485B0
:1003F0003585F901E05CFF4F808191813296208143
:100400003181821B930B8F739927089587EB94E0BA
:100410000E94F6018DE094E00E94F60183E693E0ED
:100420000E94F60189EB92E00C94F601FB01E05C7E
:10043000FF4F208131812F5F3F4F2F733327DB0127
:10044000AE5BBF4F4D915C912417350741F0408161
:100450005181DB01A40FB51F8C9331832083089554
:100460000895CF92DF92EF92FF920F931F93CF9355
:10047000DF936C01EB017B01E40EF51E00E010E060
:10048000CE15DF0561F06991D601ED91FC910190E7
:10049000F081E02DC6011995080F191FF1CFC80191
:1004A000DF91CF911F910F91FF90EF90DF90CF9050
:1004B0000895863308F0865390917B00282F28708A
:1004C000977F922B90937B008770806480937C0051
:1004D00080917A00806480937A0080917A0086FD12
:1004E000FCCF809178002091790090E0922B0895C4
:1004F000362F90E0FC01EE59FE4F4491FC01EE5D79
:10050000FD4F2491FC01E452FE4F9491992309F48C
:1005100068C0442309F451C050E0FA013197E13139
:10052000F10508F04AC08827EE58FF4F8F4F0C9412
:100530004608809180008F7703C0809180008F7D76
:10054000809380003AC084B58F7702C084B58F7DD8
:1005500084BD33C08091B0008F7703C08091B0001C
:100560008F7D8093B00029C0809190008F7707C065
:10057000809190008F7D03C080919000877F809351
:1005800090001BC08091A0008F7707C08091A000D1
:100590008F7D03C08091A000877F8093A0000DC055
:1005A000809120018F7707C0809120018F7D03C04B
:1005B00080912001877F80932001E92FF0E0EE0FEA
:1005C000FF1FE855FE4FA591B4919FB7F8943111E4
:1005D00004C08C912095282302C0EC912E2B2C93E3
:1005E0009FBF08953FB7F894809121029091220215
:1005F000A0912302B091240226B5A89B05C02F3FED
:1006000019F00196A11DB11D3FBFBA2FA92F982F38
:100610008827820F911DA11DB11DBC01CD0142E0B3
:10062000660F771F881F991F4A95D1F70895009785
:1006300069F0FC0101900020E9F73197AF01481BF8
:10064000590BBC0187EB94E00C94310280E090E000
:1006500008958F929F92AF92BF92EF92FF920F9365
:100660001F93CF93DF93CDB7DEB7A1970FB6F89462
:10067000DEBF0FBECDBF162F042F19A2423008F4E3
:100680000AE07E0121E2E20EF11C802E912CA12CC9
:10069000B12C612FA50194010E942408029F10191A
:1006A000112481E0E81AF1081A3014F4105D01C039
:1006B000195CF7011083122F732FCA01232B242BEF
:1006C000252B39F7C7010E941703A1960FB6F8949E
:1006D000DEBF0FBECDBFDF91CF911F910F91FF9075
:1006E000EF90BF90AF909F908F900895CF92DF9240
:1006F000EF92FF92CF93DF9397FF19C06B017C01BC
:100700008DE20E94AA01EC0166277727CB016C19C4
:100710007D098E099F094AE00E9429038C0F9D1FC5
:10072000DF91CF91FF90EF90DF90CF9008954AE056
:10073000DF91CF91FF90EF90DF90CF900C94290341
:100740001F920F920FB60F9211240BB60F922F9398
:100750003F938F939F93EF93FF932091710230917A
:10076000720280917302909174022817390731F454
:10077000809131018F7D8093310114C0E09173022B
:10078000F0917402EF5CFD4F208180917302909193
:10079000740201968F739927909374028093730269
:1007A00020933601FF91EF919F918F913F912F916F
:1007B0000F900BBE0F900FBE0F901F9018951F92B9
:1007C0000F920FB60F9211240BB60F922F933F93F7
:1007D0008F939F93EF93FF9320911B0330911C0302
:1007E00080911D0390911E032817390731F48091E1
:1007F000D1008F7D8093D10014C0E0911D03F09152
:100800001E03E552FD4F208180911D0390911E0330
:1008100001968F73992790931E0380931D03209355
:10082000D600FF91EF919F918F913F912F910F9063
:100830000BBE0F900FBE0F901F9018951F920F9236
:100840000FB60F9211240BB60F922F933F938F93F5
:100850009F93EF93FF932091C5033091C60380913E
:10086000C7039091C8032817390731F48091C90054
:100870008F7D8093C90014C0E091C703F091C80335
:10088000EB57FC4F20818091C7039091C8030196DC
:100890008F7399279093C8038093C7032093CE004A
:1008A000FF91EF919F918F913F912F910F900BBEF0
:1008B0000F900FBE0F901F9018951F920F920FB6BA
:1008C0000F9211240BB60F922F933F938F939F9308
:1008D000EF93FF9320916F04309170048091710425
:1008E000909172042817390731F48091C1008F7DEF
:1008F0008093C10014C0E0917104F0917204E15D35
:10090000FB4F2081809171049091720401968F7346
:10091000992790937204809371042093C600FF91ED
:10092000EF919F918F913F912F910F900BBE0F9060
:100930000FBE0F901F9018951F920F920FB60F9237
:1009400011240BB60F922F933F934F935F936F93A6
:100950007F938F939F93AF93BF93EF93FF93809178
:10096000300182FD06C08091360165E772E00E9489
:100970001602FF91EF91BF91AF919F918F917F915F
:100980006F915F914F913F912F910F900BBE0F9000
:100990000FBE0F901F9018951F920F920FB60F92D7
:1009A00011240BB60F922F933F934F935F936F9346
:1009B0007F938F939F93AF93BF93EF93FF93809118
:1009C000D00082FD06C08091D6006FE173E00E94E6
:1009D0001602FF91EF91BF91AF919F918F917F91FF
:1009E0006F915F914F913F912F910F900BBE0F90A0
:1009F0000FBE0F901F9018951F920F920FB60F9277
:100A000011240BB60F922F933F934F935F936F93E5
:100A10007F938F939F93AF93BF93EF93FF938091B7
:100A2000C80082FD06C08091CE0069EC73E00E9490
:100A30001602FF91EF91BF91AF919F918F917F919E
:100A40006F915F914F913F912F910F900BBE0F903F
:100A50000FBE0F901F9018951F920F920FB60F9216
:100A600011240BB60F922F933F934F935F936F9385
:100A70007F938F939F93AF93BF93EF93FF93809157
:100A8000C00082FD06C08091C60063E774E00E944A
:100A90001602FF91EF91BF91AF919F918F917F913E
:100AA0006F915F914F913F912F910F900BBE0F90DF
:100AB0000FBE0F901F9018951F920F920FB60F92B6
:100AC00011242F933F938F939F93AF93BF93809164
:100AD000290290912A02A0912B02B0912C02309110
:100AE000200223E0230F2D3720F40196A11DB11D14
:100AF00005C026E8230F0296A11DB11D20932002F8
:100B00008093290290932A02A0932B02B0932C0287
:100B10008091210290912202A0912302B09124029F
:100B20000196A11DB11D8093210290932202A093F2
:100B30002302B0932402BF91AF919F918F913F9177
:100B40002F910F900FBE0F901F901895CF92DF92AC
:100B5000EF92FF92E7EBF4E01382128288EEC82E48
:100B600083E0D82EE12CF12CC482D582E682F78274
:100B700064E072E07183608383E794E09587848703
:100B80008FE294E09787868785EC90E0918B808B4D
:100B900084EC90E0938B828B80EC90E0958B848B3F
:100BA00081EC90E0978B868B82EC90E0918F808F28
:100BB00086EC90E0938F828F44E0448F33E0358F52
:100BC00027E0268F95E0978F81E080A3EDE0F4E0A9
:100BD00013821282C482D582E682F7827183608397
:100BE000A9ECB3E0B587A487A5E8B3E0B787A687EB
:100BF000ADECB0E0B18BA08BACECB0E0B38BA28BD2
:100C0000A8ECB0E0B58BA48BA9ECB0E0B78BA68BB9
:100C1000AAECB0E0B18FA08FAEECB0E0B38FA28FA2
:100C2000448F358F268F978F80A3E3E6F3E01382FE
:100C30001282C482D582E682F78271836083AFE13B
:100C4000B3E0B587A487ABEDB2E0B787A687A5ED83
:100C5000B0E0B18BA08BA4EDB0E0B38BA28BA0ED84
:100C6000B0E0B58BA48BA1EDB0E0B78BA68BA2ED65
:100C7000B0E0B18FA08FA6EDB0E0B38FA28F448F0C
:100C8000358F268F978F80A3E9EBF2E013821282D3
:100C9000C482D582E682F7827183608365E772E061
:100CA0007587648761E372E07787668765E371E043
:100CB000718B608B64E371E0738B628B60E371E036
:100CC000758B648B61E371E0778B668B62E371E017
:100CD000718F608F66E371E0738F628F448F358F01
:100CE000268F978F80A3FF90EF90DF90CF9008958D
:100CF000789484B5826084BD84B5816084BD85B5F7
:100D0000826085BD85B5816085BD80916E00816002
:100D100080936E00109281008091810082608093A8
:100D200081008091810081608093810080918000AA
:100D30008160809380008091B10084608093B100D5
:100D40008091B00081608093B000809191008260BA
:100D500080939100809191008160809391008091B7
:100D600090008160809390008091A10082608093C8
:100D7000A1008091A10081608093A1008091A000DA
:100D800081608093A0008091210182608093210185
:100D900080912101816080932101809120018160F7
:100DA0008093200180917A00846080937A00809102
:100DB0007A00826080937A0080917A0081608093CB
:100DC0007A0080917A00806880937A001092C10046
:100DD000E091CB04F091CC0481E090E09C01009084
:100DE000D70402C0220F331F0A94E2F72083E09158
:100DF000C704F091C8041082E091C904F091CA04BC
:100E000020E120831092D804E091CD04F091CE042B
:100E100040819C010090D30402C0220F331F0A942A
:100E2000E2F7242B2083E091CD04F091CE044081A1
:100E30009C010090D40402C0220F331F0A94E2F7F1
:100E4000242B2083E091CD04F091CE0440819C01BD
:100E50000090D50402C0220F331F0A94E2F7242B1E
:100E60002083E091CD04F091CE0420810090D6043F
:100E700002C0880F991F0A94E2F78095822380832D
:100E8000E9E2F2E02491E3EEF1E08491882399F025
:100E900090E0880F991FFC01EE53FE4FA591B4918D
:100EA000FC01E855FE4F859194918FB7F894EC9131
:100EB000E22BEC938FBF2FB7F89480912902909189
:100EC0002A02A0912B02B0912C022FBF8093250201
:100ED00090932602A0932702B093280280E192E02B
:100EE0000E941703609125027091260280912702CB
:100EF000909128024AE00E9429038DE00E94AA01F5
:100F00008AE00E94AA0161E087E00E9478022FB780
:100F1000F8948091290290912A02A0912B02B0911D
:100F20002C022FBF80932D0290932E02A0932F02AC
:100F3000B09330028FB7F8944091290250912A0261
:100F400060912B0270912C028FBF80912D029091A5
:100F50002E02A0912F02B09130028896A11DB11DE2
:100F6000481759076A077B0728F360E087E00E946B
:100F700078028CE00E94590297FD0196BC0175959C
:100F80006795072E000C880B990B0E9476038DE164
:100F900092E00E94170388E00E94590297FD019693
:100FA000BC0175956795072E000C880B990B0E9464
:100FB00076038DE192E00E9417038BE00E945902B4
:100FC00097FD0196BC0175956795072E000C880B5F
:100FD000990B0E9476038DE192E00E94170389E04D
:100FE0000E94590297FD0196BC0175956795072EE1
:100FF000000C880B990B0E9476038DE00E94AA01D9
:101000008AE00E94AA010E94F202EB019AEFC92E27
:10101000D12CE12CF12C0E94F2026C1B7D0B683E5E
:101020007340C8F381E0C81AD108E108F108C8513B
:10103000DC4FC114D104E104F10469F70E940602F7
:1010400062CFF8940C944E08A1E21A2EAA1BBB1B87
:10105000FD010DC0AA1FBB1FEE1FFF1FA217B30784
:10106000E407F50720F0A21BB30BE40BF50B661F9A
:10107000771F881F991F1A9469F76095709580955E
:1010800090959B01AC01BD01CF010895EE0FFF1FAC
:10109000881F8BBF0790F691E02D1994F894FFCF2D
:1010A0000000000068013102F601BA01DA01AF0167
:1010B000737461727454696D6569733A002C200011
:00000001FF
