:100000000C9481000C94B2000C94B2000C94B200D9
:100010000C94B2000C94B2000C94B2000C94B20098
:100020000C94B2000C94B2000C94B2000C94B20088
:100030000C94B2000C94B2000C94B2000C94B20078
:100040000C94B2000C94B2000C94B2000C94B20068
:100050000C94B2000C94B2000C94B2000C94A00169
:100060000C94B2000C9476030C94A7020C94B2008A
:100070000C94B2000C94B2000C94B2000C94B20038
:100080000C94B2000C94B2000C94B2000C94B20028
:100090000C9446030C9468020C94B2000C94B200C9
:1000A0000C94B2000C94B2000C94B2000C94B20008
:1000B0000C94B2000C94B2000C94B2000C94B200F8
:1000C0000C94B2000C94B2000C94B2000C94160381
:1000D0000C9429020C94B2000C94E6020C94EA01F0
:1000E0000C94B2000C941F010C94B4000C9479048D
:1000F0000C9466010C944A010C942A010C94DD00C6
:10010000790411241FBECFEFD1E2DEBFCDBF00E0E6
:100110000CBF12E0A0E0B2E0E0EBFAE000E00BBFC1
:1001200002C007900D92A032B107D9F724E0A0E2F7
:10013000B2E001C01D92A13DB207E1F710E0C1E8B5
:10014000D0E000E006C021970109802FFE010E9447
:100150004E05C038D10780E00807A9F70E94A60322
:100160000C944B050C940000CF92DF92EF92FF921B
:100170000F931F93CF93DF936C01EB017B01E40E90
:10018000F51E00E010E0CE15DF0561F06991D601A3
:10019000ED91FC910190F081E02DC6011995080FB9
:1001A000191FF1CFC801DF91CF911F910F91FF90DF
:1001B000EF90DF90CF90089508950F931F93CF9302
:1001C000DF93FC01A685B7858D01005C1F4FE80118
:1001D0008881998101968F739927AD014E5B5F4F9E
:1001E000EA012881398182179307D1F3E801288138
:1001F0003981A20FB31F6C93A685B785A05CBF4F52
:1002000011969C938E93A689B7892C9181E090E0FA
:10021000078C02C0880F991F0A94E2F7822B8C93F7
:1002200081E081A30488F589E02D8081806480834A
:1002300081E090E0DF91CF911F910F910895FC0133
:1002400081A1882329F0A489B5898C9186FFFBCFF1
:1002500011A20895FC01A485B585FD01E05CFF4F66
:10026000208131813296808191812817390779F078
:1002700080819181A80FB91F8C91208131812F5FDE
:100280003F4F2F7333273183208390E008958FEF02
:100290009FEF0895DC011C96ED91FC911D97DF0105
:1002A000A05CBF4F2D913C91119712968D919C911E
:1002B00011972817390739F08D919C91E80FF91F94
:1002C000808190E008958FEF9FEF0895FC012485D1
:1002D0003585F901E05CFF4F808191813296208164
:1002E0003181821B930B8F739927089586EA94E0DE
:1002F0000E9466018CEF93E00E94660182E593E024
:100300000E94660188EA92E00C946601FB01E05CC1
:10031000FF4F208131812F5F3F4F2F733327DB0148
:10032000AE5BBF4F4D915C912417350741F0408182
:100330005181DB01A40FB51F8C9331832083089575
:100340001F920F920FB60F9211242F933F938F930A
:100350009F93AF93BF938091CD049091CE04A091D1
:10036000CF04B091D0043091CC0423E0230F2D377B
:1003700020F40196A11DB11D05C026E8230F0296A9
:10038000A11DB11D2093CC048093CD049093CE0485
:10039000A093CF04B093D0048091C8049091C90475
:1003A000A091CA04B091CB040196A11DB11D809308
:1003B000C8049093C904A093CA04B093CB04BF911E
:1003C000AF919F918F913F912F910F900FBE0F9002
:1003D0001F9018951F920F920FB60F9211240BB613
:1003E0000F922F933F938F939F93EF93FF932091BF
:1003F000600230916102809162029091630228173D
:10040000390731F4809131018F7D8093310114C01F
:10041000E0916202F0916302E05EFD4F20818091E5
:1004200062029091630201968F7399279093630201
:100430008093620220933601FF91EF919F918F91FB
:100440003F912F910F900BBE0F900FBE0F901F90FA
:1004500018951F920F920FB60F9211240BB60F92A0
:100460002F933F938F939F93EF93FF9320910A03D2
:1004700030910B0380910C0390910D0328173907DD
:1004800031F48091D1008F7D8093D10014C0E09130
:100490000C03F0910D03E653FD4F208180910C0376
:1004A00090910D0301968F73992790930D0380937C
:1004B0000C032093D600FF91EF919F918F913F9174
:1004C0002F910F900BBE0F900FBE0F901F9018959D
:1004D0001F920F920FB60F9211240BB60F922F930B
:1004E0003F938F939F93EF93FF932091B4033091A9
:1004F000B5038091B6039091B7032817390731F4FB
:100500008091C9008F7D8093C90014C0E091B6032B
:10051000F091B703EC58FC4F20818091B603909185
:10052000B70301968F7399279093B7038093B6030F
:100530002093CE00FF91EF919F918F913F912F914A
:100540000F900BBE0F900FBE0F901F9018951F922B
:100550000F920FB60F9211240BB60F922F933F9369
:100560008F939F93EF93FF9320915E0430915F04EC
:1005700080916004909161042817390731F48091CB
:10058000C1008F7D8093C10014C0E0916004F091A0
:100590006104E25EFB4F20818091600490916104D0
:1005A00001968F7399279093610480936004209340
:1005B000C600FF91EF919F918F913F912F910F90E6
:1005C0000BBE0F900FBE0F901F9018951F920F92A9
:1005D0000FB60F9211240BB60F922F933F934F93A8
:1005E0005F936F937F938F939F93AF93BF93EF939B
:1005F000FF938091300182FD06C08091360164E650
:1006000072E00E948601FF91EF91BF91AF919F919F
:100610008F917F916F915F914F913F912F910F90AB
:100620000BBE0F900FBE0F901F9018951F920F9248
:100630000FB60F9211240BB60F922F933F934F9347
:100640005F936F937F938F939F93AF93BF93EF933A
:10065000FF938091D00082FD06C08091D6006EE0AD
:1006600073E00E948601FF91EF91BF91AF919F913E
:100670008F917F916F915F914F913F912F910F904B
:100680000BBE0F900FBE0F901F9018951F920F92E8
:100690000FB60F9211240BB60F922F933F934F93E7
:1006A0005F936F937F938F939F93AF93BF93EF93DA
:1006B000FF938091C80082FD06C08091CE0068EB58
:1006C00073E00E948601FF91EF91BF91AF919F91DE
:1006D0008F917F916F915F914F913F912F910F90EB
:1006E0000BBE0F900FBE0F901F9018951F920F9288
:1006F0000FB60F9211240BB60F922F933F934F9387
:100700005F936F937F938F939F93AF93BF93EF9379
:10071000FF938091C00082FD06C08091C60062E612
:1007200074E00E948601FF91EF91BF91AF919F917C
:100730008F917F916F915F914F913F912F910F908A
:100740000BBE0F900FBE0F901F901895789484B534
:10075000826084BD84B5816084BD85B5826085BDBD
:1007600085B5816085BD80916E00816080936E004B
:10077000109281008091810082608093810080913D
:1007800081008160809381008091800081608093EE
:1007900080008091B10084608093B1008091B000AE
:1007A00081608093B000809191008260809391007D
:1007B0008091910081608093910080919000816090
:1007C000809390008091A10082608093A10080912D
:1007D000A10081608093A1008091A000816080933E
:1007E000A0008091210182608093210180912101EC
:1007F000816080932101809120018160809320019C
:1008000080917A00846080937A0080917A0082607F
:1008100080937A0080917A00816080937A00809141
:100820007A00806880937A001092C100E091BA0447
:10083000F091BB0481E090E09C010090C60402C0EE
:10084000220F331F0A94E2F72083E091B604F0915F
:10085000B7041082E091B804F091B90420E120833C
:100860001092C704E091BC04F091BD0440819C014A
:100870000090C20402C0220F331F0A94E2F7242B17
:100880002083E091BC04F091BD0440819C01009064
:10089000C30402C0220F331F0A94E2F7242B2083E3
:1008A000E091BC04F091BD0440819C010090C4041F
:1008B00002C0220F331F0A94E2F7242B2083E09119
:1008C000BC04F091BD0420810090C50402C0880FD3
:1008D000991F0A94E2F78095822380834FE050E0CD
:1008E00060E172E086EA94E00E94B4000E94760122
:1008F000FDCFCF92DF92EF92FF92E6EAF4E013820F
:10090000128288EEC82E83E0D82EE12CF12CC4820E
:10091000D582E682F78264E072E07183608382E6CA
:1009200094E0958784878EE194E09787868785ECAD
:1009300090E0918B808B84EC90E0938B828B80ECA9
:1009400090E0958B848B81EC90E0978B868B82EC8A
:1009500090E0918F808F86EC90E0938F828F44E0BF
:10096000448F33E0358F27E0268F95E0978F81E025
:1009700080A3ECEFF3E013821282C482D582E68278
:10098000F78271836083A8EBB3E0B587A487A4E7FF
:10099000B3E0B787A687ADECB0E0B18BA08BACEC31
:1009A000B0E0B38BA28BA8ECB0E0B58BA48BA9EC24
:1009B000B0E0B78BA68BAAECB0E0B18FA08FAEEC05
:1009C000B0E0B38FA28F448F358F268F978F80A38F
:1009D000E2E5F3E013821282C482D582E682F782D6
:1009E00071836083AEE0B3E0B587A487AAECB2E080
:1009F000B787A687A5EDB0E0B18BA08BA4EDB0E0E2
:100A0000B38BA28BA0EDB0E0B58BA48BA1EDB0E0D1
:100A1000B78BA68BA2EDB0E0B18FA08FA6EDB0E0B2
:100A2000B38FA28F448F358F268F978F80A3E8EAEC
:100A3000F2E013821282C482D582E682F782718349
:100A4000608364E672E07587648760E272E07787AE
:100A5000668765E371E0718B608B64E371E0738B93
:100A6000628B60E371E0758B648B61E371E0778B7F
:100A7000668B62E371E0718F608F66E371E0738F64
:100A8000628F448F358F268F978F80A3FF90EF90D2
:100A9000DF90CF900895F8940C945605EE0FFF1F49
:100AA000881F8BBF0790F691E02D1994F894FFCF23
:100AB00000000000DD00B40066012A014A011F01A8
:100AC0006E6F7468696E6768617070656E7321001F
:00000001FF
