:100000000C94DE000C9406010C9406010C9406017D
:100010000C9406010C9406010C9406010C94060144
:100020000C9406010C9406010C9406010C94060134
:100030000C9406010C9406010C9406010C94060124
:100040000C943A040C9406010C9403040C94C80319
:100050000C9406010C9406010C9406010C94060104
:100060000C9406010C940601000000000000000042
:100070000000000000000000000000000000000080
:10008000010101010101010101010101020202025C
:10009000020202020303030303030404040405052C
:1000A00005050506060606070707080808090909E1
:1000B0000A0A0A0B0B0B0C0C0D0D0D0E0E0F0F1078
:1000C00010111112121313141415151616171818EF
:1000D00019191A1B1B1C1D1D1E1F1F202122222344
:1000E000242526262728292A2A2B2C2D2E2F30316D
:1000F00032333435363738393A3B3C3D3E3F404168
:10010000424445464748494B4C4D4E505152545538
:100110005658595A5C5D5E606163646667696A6CD3
:100120006D6F7072737577787A7C7D7F818284863B
:1001300088898B8D8F91929496989A9C9EA0A2A468
:10014000A6A8AAACAEB0B2B4B6B8BABCBFC1C3C55B
:10015000C7CACCCED1D3D5D7DADCDFE1E3E6E8EB12
:10016000EDF0F2F5F7FAFCFF000000002400270094
:100170002A0000000007000201000003040600003E
:10018000000000000000010204081020408001026D
:1001900004081020010204081020000000002500BF
:1001A00028002B00040404040404040402020202D4
:1001B000020203030303030384049E0611241FBEEB
:1001C000CFEFD8E0DEBFCDBF11E0A0E0B1E0E2E9C3
:1001D000F0E102C005900D92AC31B107D9F721E0F2
:1001E000ACE1B1E001C01D92AF3EB207E1F710E013
:1001F000CDEDD0E004C02197FE010E943608CC3D31
:10020000D107C9F70E9437050C94AE060C94000084
:1002100090E0FC01EE58FE4F2491FC01EA57FE4F9E
:100220003491FC01EC55FE4FE491EE23B9F1222309
:1002300039F1233091F038F42130A9F0223001F562
:1002400084B58F7D12C0263091F02730A1F0243084
:10025000B9F4809180008F7D03C0809180008F77FA
:10026000809380000DC084B58F7784BD09C08091D4
:10027000B0008F7703C08091B0008F7D8093B00075
:10028000F0E0EE0FFF1FE656FE4FA591B4919FB729
:10029000F8948C91309538233C939FBF08958F92AA
:1002A0009F92AF92BF92CF92DF92EF92FF92CF9345
:1002B000DF934B01AA24BB24F82DC52ED62EE72EA2
:1002C000FF24AC2DE42F2091DD01222361F0829EDA
:1002D00040011124F92D2C9D60011124AD2D249F86
:1002E000E0011124ED2F3091E301B091E001E090A5
:1002F000DE01F090DF013B1308C09C01220F331F89
:10030000820F931F8E0D9F1D19C0880F991F880F94
:10031000991F8E0D9F1D472F552766277727EC01C4
:10032000C30FD11D222349F030E0249F7001259F87
:10033000F00C349FF00C11244F2D48832091E001E4
:10034000EC01C20FD11DF8832091E101EC01C20F35
:10035000D11DA8832091E201DC01A20FB11DEC9315
:10036000DF91CF91FF90EF90DF90CF90BF90AF9053
:100370009F908F900895CF93DF9390E0FC01EA5710
:10038000FE4F2491FC01EC55FE4F8491882361F1CE
:1003900090E0880F991FFC01E859FE4FC591D49158
:1003A000FC01E656FE4FA591B491611109C09FB7BB
:1003B000F8948881209582238883EC912E230BC0AA
:1003C000623061F49FB7F8948881322F309583238F
:1003D0008883EC912E2B2C939FBF06C08FB7F89487
:1003E000E8812E2B28838FBFDF91CF910895CF9284
:1003F000DF92EF92FF920F931F93CF93DF936C01E5
:10040000EB017B01E40EF51E00E010E0CE15DF05E8
:1004100061F06991D601ED91FC910190F081E02DA0
:10042000C6010995080F191FF1CFC801DF91CF91BF
:100430001F910F91FF90EF90DF90CF900895089556
:100440000F931F93CF93DF93FC01A685B7858D0192
:10045000005C1F4FE8018881998101968F7399276D
:10046000AD014E5B5F4FEA01288139818217930706
:10047000D1F3E80128813981A20FB31F6C93A685BF
:10048000B785A05CBF4F11969C938E93A689B789C0
:100490002C9181E090E0078C02C0880F991F0A948C
:1004A000E2F7822B8C9381E081A30488F589E02D0B
:1004B00080818064808381E090E0DF91CF911F9103
:1004C0000F910895FC0181A1882329F0A489B589A1
:1004D0008C9186FFFBCF11A20895FC01A485B58500
:1004E000FD01E05CFF4F2081318132968081918156
:1004F0002817390779F080819181A80FB91F8C9155
:10050000208131812F5F3F4F2F7333273183208329
:1005100090E008958FEF9FEF0895DC011C96ED9118
:10052000FC911D97DF01A05CBF4F2D913C9111976D
:1005300012968D919C9111972817390739F08D915A
:100540009C91E80FF91F808190E008958FEF9FEF55
:100550000895FC0124853585F901E05CFF4F808119
:100560009181329620813181821B930B8F73992761
:1005700008958DEA91E00C94A9023FB7F894809118
:10058000210190912201A0912301B091240126B56F
:10059000A89B05C02F3F19F00196A11DB11D3FBFBB
:1005A000BA2FA92F982F8827820F911DA11DB11D49
:1005B000BC01CD0142E0660F771F881F991F4A9545
:1005C000D1F708950F931F93CF93DF93CDB7DEB785
:1005D00029970FB6F894DEBF0FBECDBF8091DE0124
:1005E0009091DF01892B09F4A2C00E94BD02009105
:1005F000E4011091E5012091E6013091E701DC0171
:10060000CB01801B910BA20BB30B8C329140A10547
:10061000B10558F3F8948091D9019091DA019A8349
:100620008983E091DE01F091DF01DF011196808185
:1006300089879091D301E091E801F091E9018091DF
:10064000EA01992309F42EC09081982B9887908114
:10065000809589238F838F818C8388E08B83588555
:100660006F8149853B812C8189819A81508347FD27
:10067000252F3A952083262F39F0441F00C0000013
:100680006083000000C0F2CF38E04D91608300002D
:10069000019761F7F093E901E093E80149873B8313
:1006A0002C8338C09081982B9887908180958923DE
:1006B0008F838F818E8388E08D8358856F814985F4
:1006C0003D812E8189819A81508347FD252F00C06D
:1006D00000C0208300C000C000C000C000C0608314
:1006E0000000262F3A9541F0441F000000C000C0D2
:1006F00000C000C000C0E8CF38E04D9100C060836A
:1007000000C0019709F7F093E901E093E8014987F8
:100710003D832E839A83898378940E94BD026093DF
:10072000E4017093E5018093E6019093E701299637
:100730000FB6F894DEBF0FBECDBFDF91CF911F91F2
:100740000F910895CF92DF92EF92FF92CF93DF93B4
:100750006B017C010E94BD02EB01C114D104E104D4
:10076000F10479F00E94BD026C1B7D0B683E734062
:10077000A0F381E0C81AD108E108F108C851DC4FA4
:10078000ECCFDF91CF91FF90EF90DF90CF90089565
:100790001F920F920FB60F9211242F933F938F93B6
:1007A0009F93EF93FF9320916501309166018091B3
:1007B0006701909168012817390731F48091C100D1
:1007C0008F7D8093C10014C0E0916701F0916801B2
:1007D000EB5DFE4F20818091670190916801019649
:1007E0008F73992790936801809367012093C600C7
:1007F000FF91EF919F918F913F912F910F900FBE9D
:100800000F901F9018951F920F920FB60F92112400
:100810002F934F935F938F939F93EF93FF938091C9
:10082000C00082FD1BC02091C6008091A90190915B
:10083000AA0101968F7399274091AB015091AC01A9
:100840008417950759F0E091A901F091AA01E759A1
:10085000FE4F20839093AA018093A901FF91EF910D
:100860009F918F915F914F912F910F900FBE0F909D
:100870001F9018951F920F920FB60F9211242F936D
:100880003F938F939F93AF93BF9380911D0190915E
:100890001E01A0911F01B091200130911C0123E0A5
:1008A000230F2D3720F40196A11DB11D05C026E8A8
:1008B000230F0296A11DB11D20931C0180931D01E1
:1008C00090931E01A0931F01B093200180912101FC
:1008D00090912201A0912301B09124010196A11DC4
:1008E000B11D8093210190932201A0932301B09325
:1008F0002401BF91AF919F918F913F912F910F90C4
:100900000FBE0F901F9018951092B0011092AF017A
:1009100088EE93E0A0E0B0E08093B1019093B20143
:10092000A093B301B093B4018AE091E09093AE013B
:100930008093AD0189E691E09093BA018093B9016B
:1009400085E291E09093BC018093BB0185EC90E03F
:100950009093BE018093BD0184EC90E09093C00120
:100960008093BF0180EC90E09093C2018093C1011D
:1009700081EC90E09093C4018093C30182EC90E0FD
:100980009093C6018093C50186EC90E09093C801D6
:100990008093C70184E08093C90183E08093CA01FA
:1009A00087E08093CB0185E08093CC0181E0809348
:1009B000CD011092D6011092DD011092E401109247
:1009C000E5011092E6011092E7018093E301809324
:1009D000E0011092E10192E09093E2018093D30153
:1009E00084EB90E09093DA018093D9010E94010793
:1009F0009093DF018093DE01009761F024EBFC010E
:100A000011922A95E9F78CE390E09093D8018093B6
:100A1000D70108C01092DA011092D9011092D801C2
:100A20001092D70185E090E09093DC018093DB0188
:100A30008091D601882339F061E085E00E94BB01F6
:100A400085E00E940801E9EAF1E0E491F0E0EE0FB0
:100A5000FF1FE656FE4F859194919093E901809394
:100A6000E801EBE8F1E0E491E093EA010895CF9327
:100A7000DF9300D000D000D0CDB7DEB7789484B536
:100A8000826084BD84B5816084BD85B5826085BD8A
:100A900085B5816085BD80916E00816080936E0018
:100AA000109281008091810082608093810080910A
:100AB00081008160809381008091800081608093BB
:100AC00080008091B10084608093B1008091B0007B
:100AD00081608093B00080917A00846080937A0076
:100AE00080917A00826080937A0080917A008160A0
:100AF00080937A0080917A00806880937A001092C7
:100B0000C1008091DB019091DC0197FD07C061E09D
:100B10000E94BB018091DB010E94080181E080936B
:100B2000D6010E94E2026091DD01633321F1209140
:100B3000DE013091DF01615031F070E08FEF92E320
:100B40000E94220802C060E070E0F9014091D901E2
:100B50005091DA01CF01821B930B8417950740F463
:100B60004081469FC001479F900D11249193EECF85
:100B700083E38093DD017EEF772E4E0125E0820E28
:100B8000911C212C312C2101612C862D90E09E831B
:100B90008D832091D7013091D8018217930708F0F7
:100BA00090C0862D90E0A0E0B0E07727662740E077
:100BB00050E00E94B106220D331DAAEFB5E00E945D
:100BC000F206DC01CB019058AF4FBF4FCD01BB27E0
:100BD00097FDB095AB2F8E3F41E0940758F48F3FBF
:100BE000910518F4682F80E028C0972D981B80E0AD
:100BF0006FEF24C08C3F43E0940760F48D3F42E0E8
:100C0000940718F48E5F6FEF03C06CEF681B8FEFD3
:100C100090E014C08A3F45E0940769F08B3F44E0C0
:100C2000940728F494E0980F8FEF60E007C02AEF54
:100C3000281B822F01C080E060E09FEFE92EF12C9D
:100C4000C62ED12CA82EB12CC601A0E0B0E0BA2F40
:100C5000A92F982F88278827AA27BB27A50160E0FE
:100C600070E08C019D01042B152B262B372BC7011F
:100C7000A0E0B0E0DC0199278827AC01BD01442742
:100C800055277727D901C801842B952BA62BB72B85
:100C900089839A83AB83BC83DE011196EC91F0E0EB
:100CA000E859FF4FE491ED938A169B06B9F7498105
:100CB0005A816B817C818D819E810E944F0163945A
:100CC00064CF0E94E20268E270E080E090E00E945F
:100CD000A2034FEF341A440A540A2114310481E06C
:100CE0004806510409F050CF00E010E08091D70190
:100CF0009091D8010817190780F440E050E0BA013C
:100D0000C8010E944F010E94E20260E070E0CB0146
:100D10000E94A2030F5F1F4FE9CF68E873E180E0F4
:100D200090E00E94A20344E050E066E171E08DEAA9
:100D300091E00E94F7010E94B90223CF8091DE0169
:100D40009091DF010E9499078091DB019091DC0175
:100D500097FD03C060E00C94BB010895F8940C94D7
:100D60003C08052E97FB1EF400940E94C80657FD10
:100D700007D00E94D00607FC03D04EF40C94C8069E
:100D800050954095309521953F4F4F4F5F4F0895B7
:100D900090958095709561957F4F8F4F9F4F0895E7
:100DA000A1E21A2EAA1BBB1BFD010DC0AA1FBB1F6F
:100DB000EE1FFF1FA217B307E407F50720F0A21BE1
:100DC000B30BE40BF50B661F771F881F991F1A944E
:100DD00069F760957095809590959B01AC01BD0178
:100DE000CF010895A29FB001B39FC001A39F700DD2
:100DF000811D1124911DB29F700D811D1124911D23
:100E000008950F931F93CF93DF938230910510F4D1
:100E100082E090E0E091ED01F091EE0120E030E021
:100E2000A0E0B0E0309719F1408151810281138137
:100E300048175907C8F08417950769F4109731F0DF
:100E400012960C93129713961C9327C00093ED01F2
:100E50001093EE0122C02115310519F042175307F6
:100E600018F49A01BD01EF01DF01F801DBCF211574
:100E70003105F9F0281B390B2430310580F48A81C3
:100E80009B816115710521F0FB019383828304C06E
:100E90009093EE018093ED01FE01329644C0FE0175
:100EA000E20FF31F819391932250310939832883F4
:100EB0003AC02091EB013091EC01232B41F42091B9
:100EC0000201309103013093EC012093EB0120915A
:100ED0000001309101012115310541F42DB73EB7D4
:100EE0004091040150910501241B350BE091EB0169
:100EF000F091EC01E217F307A0F42E1B3F0B28172B
:100F0000390778F0AC014E5F5F4F2417350748F082
:100F10004E0F5F1F5093EC014093EB01819391932F
:100F200002C0E0E0F0E0CF01DF91CF911F910F917F
:100F30000895CF93DF93009709F481C0FC013297A5
:100F400013821282A091ED01B091EE01109781F40D
:100F500020813181820F931F2091EB013091EC01B0
:100F60002817390751F5F093EC01E093EB0167C0C6
:100F7000ED0120E030E0CE17DF0740F44A815B81CD
:100F80009E0141155105F1F0EA01F5CFD383C283EB
:100F900040815181840F951FC817D90759F4888162
:100FA0009981840F951F0296918380838A819B810A
:100FB000938382832115310529F4F093EE01E093A8
:100FC000ED013DC0E901FB83EA8349915991C40FCA
:100FD000D51FEC17FD0761F480819181840F951F67
:100FE0000296E90199838883828193819B838A8316
:100FF000E0E0F0E012968D919C911397009719F024
:10100000FD01DC01F7CF8D919C9111979D012E5F21
:101010003F4F820F931F2091EB013091EC01281775
:10102000390769F4309729F41092EE011092ED011E
:1010300002C013821282B093EC01A093EB01DF9106
:10104000CF910895AA1BBB1B51E107C0AA1FBB1F6C
:10105000A617B70710F0A61BB70B881F991F5A9544
:10106000A9F780959095BC01CD010895EE0FFF1F63
:101070000590F491E02D099410E0CDEDD0E004C08E
:10108000FE010E9436082196CE3DD107C9F7F8949B
:02109000FFCF90
:101092000000EF012000000000002002F701A90279
:0C10A2006D028D02620246696E6500005E
:00000001FF
