:100000000C94AC020C94D4020C94D4020C94D40240
:100010000C94D4020C94D4020C94D4020C94D40208
:100020000C94D4020C94D4020C94D4020C94D402F8
:100030000C94D4020C94D4020C94D4020C94D402E8
:100040000C94D2190C94D4020C9444190C940919F0
:100050000C94D4020C94D4020C94D4020C94D402C8
:100060000C94D4020C94D402E122D322D3226A232A
:10007000E1226A236A231123D322D3226A23432352
:100080006A236A23631A6A1A741A7C1A871A8F1AE7
:10009000971A9F1AA71AD01A0E1B201B281B301B59
:1000A000601C631C661C691C6C1C6F1C7F1C7F1C05
:1000B000721C751C781C7B1C05A84CCDB2D44EB9A3
:1000C0003836A9020C50B9918688083CA6AAAA2AFB
:1000D000BE000000803F4E414E494E495459494EA2
:1000E00046CDCCCC3D0AD7233C17B7D13877CC2BA3
:1000F000329595E6241FB14F0A000020410000C848
:100100004200401C4620BCBE4CCA1B0E5AAEC59DC8
:10011000743C6869745F666F756E643E003C686924
:10012000745F666F756E643E003C6869745F666FED
:10013000756E643E003C6869745F666F756E643E00
:10014000003C6869745F666F756E643E003C68755C
:10015000675F666F756E643E003C73686F76655FBF
:10016000666F756E643E003C73717565657A655F98
:10017000666F756E643E003C63686F6B655F666FAB
:10018000756E643E003C6361726573735F666F7584
:100190006E643E003C746F7563685F666F756E6475
:1001A0003E003C71756965745F666F756E643E00F4
:1001B0003C4E616E6F322069732072656164793ED6
:1001C000003E003C49276D207265736574003C72E7
:1001D00065616374696E675F6E65673E003C72655A
:1001E000616374696E675F706F733E003C70617429
:1001F0007465726E3E003C6665656C2D67616D6569
:100200003E003C7472616E732D67616D653E003C0B
:1002100073746F702D6C65643E003C6261636B2D7E
:100220006A6F79737469636B3E003C7269676874C6
:100230002D6A6F79737469636B3E003C66726F6EF2
:10024000742D6A6F79737469636B3E003C6C6566EC
:10025000742D6A6F79737469636B3E003C66726FCC
:100260006E747061743E003C72696768747061748A
:100270003E003C6C6566747061743E003C666F6C59
:100280006C6F77696E673E003C6E6F6C65643E0014
:100290003C7475726E313E003C6261636B313E00AE
:1002A0003C7269676874313E003C66726F6E7431EF
:1002B0003E003C6C656674313E003C6175746F6E47
:1002C0006F6D6F75733E003C68617070696E657329
:1002D000735F6F6B3E003E003C637573746F6D20FF
:1002E0007265616374696F6E206E616E6F323A2061
:1002F0000000000000240027002A00000000070082
:1003000002010000030406000000000000000000DD
:1003100000000000000000000000000000000000DD
:1003200000000000000000010101010101010101C4
:10033000010101020202020202020203030303039B
:10034000030404040405050505050606060607075B
:10035000070808080909090A0A0A0B0B0B0C0C0DFF
:100360000D0D0E0E0F0F1010111112121313141485
:100370001515161617181819191A1B1B1C1D1D1EEA
:100380001F1F2021222223242526262728292A2A26
:100390002B2C2D2E2F303132333435363738393A35
:1003A0003B3C3D3E3F4041424445464748494B4C1B
:1003B0004D4E50515254555658595A5C5D5E6061CD
:1003C00063646667696A6C6D6F7072737577787A4B
:1003D0007C7D7F8182848688898B8D8F9192949693
:1003E000989A9C9EA0A2A4A6A8AAACAEB0B2B4B69D
:1003F000B8BABCBFC1C3C5C7CACCCED1D3D5D7DA72
:10040000DCDFE1E3E6E8EBEDF0F2F5F7FAFCFF0103
:100410000204081020408001020408102001020498
:1004200008102000000000250028002B0004040410
:10043000040404040402020202020203030303038D
:10044000033C656C61707365643E003C416E73777C
:10045000657220616C726561647920676976656E8A
:10046000213E003C70726F6D70745F656E645F6FEB
:100470006B3E003C70726F6D70745F737461727468
:100480005F6F6B3E003C70726F6D70745F656E6382
:100490006F75726167655F6F6B3E003C70726F6D68
:1004A00070745F617474655F6F6B3E003C7265775A
:1004B0006172645F656E7465725F6F6B3E003C7263
:1004C00065776172645F67616D655F6F6B3E003C6D
:1004D0007265776172645F6D617463685F6F6B3EB4
:1004E000003C7265776172645F736573735F6F6BF5
:1004F0003E003C7265776172645F6B6F5F6F6B3E4D
:10050000003C7265776172645F6F6B5F6F6B3E007A
:100510003C636F72726563745F616E735F6F6B3E95
:10052000003C77726F6E675F616E735F6F6B3E004A
:100530003E00207375636365737366756C6C792018
:100540007377697463686564003C4D6F64616C69BE
:10055000747920006827132911241FBECFEFD8E03B
:10056000DEBFCDBF12E0A0E0B1E0E4E2F6E602C0FB
:1005700005900D92AC38B107D9F726E0ACE8B2E0AF
:1005800001C01D92A332B207E1F712E0CBEAD2E03C
:1005900004C02197FE010E94FF32CA3AD107C9F771
:1005A0000E949D1F0C94CC290C940000CF92DF92E6
:1005B000EF92FF920F93CF93DF932091E6052223D2
:1005C00009F455C5EC011092E6058091E205909181
:1005D000E30590938F0280938E026AE171E0CE0171
:1005E0000E946D2E892B09F04AC082EA91E09F9308
:1005F0008F938BE293E09F938F930E943F1580919E
:100600008E0290918F020F900F900F900F90009795
:1006100081F4C5E0D0E008E220E03FEF4FEF50E08A
:1006200060E070E08FEF90E00E94890E219799F7CB
:100630001EC58130910581F4C5E0D0E008E220E0DC
:100640003FEF4FEF50E060E070E08FEF90E00E94EE
:10065000890E219799F70BC5029709F008C5C5E0E7
:10066000D0E008E220E03FEF4FEF50E060E070E0C4
:100670008FEF90E00E94890E219799F7F8C460E20D
:1006800071E0CE010E946D2E892B09F0B2C084E981
:1006900091E09F938F938BE293E09F938F930E94BF
:1006A0003F150E947129E2E0CE2ED12CE12CF12CD5
:1006B000A70196010E94A02C70938D0260938C027A
:1006C0000F900F900F900F90672B09F449C00E9474
:1006D0007129A70196010E94A02C672BB9F044E173
:1006E00050E063EB70E080E090E00E94DF1644E1B0
:1006F00050E06FEF76E686E690E00E94DF1644E178
:1007000050E06AE170E080E090E070C0CCE2D1E0BF
:1007100060E07FEF80E090E00E9407182197C1F72A
:10072000CCE2D1E060E079E980E090E00E94071837
:100730002197C1F7CCE2D1E060E070E880E090E082
:100740000E9407182197C1F760E070E0CB01DF91AC
:10075000CF910F91FF90EF90DF90CF900C940718FE
:1007600080918E0290918F02009759F4C4E8D3E0F3
:100770006FEF70E080E090E00E9407182197C1F7CA
:10078000E3CF8130910559F440E06FEF85E10E949D
:10079000E81D40E06FEF85E10E94E81D5AC4029712
:1007A00009F065C442E350E06FEF7CEC80E090E03C
:1007B0000E94DF1640E050E060E070E0CB010E9454
:1007C000DF1642E350E069E07DE38DE090E00E94B7
:1007D000DF1640E050E060E070E0CB010E94DF16E1
:1007E00042E350E06FEF7CEC80E090E00E94DF1687
:1007F00030C466E271E0CE010E946D2E892B09F0B3
:10080000C4C085E891E09F938F938BE293E09F9320
:100810008F930E943F150E94712923E030E040E051
:1008200050E00E94A02C70938D0260938C020F9078
:100830000F900F900F90672B81F50E94712922E095
:1008400030E040E050E00E94A02C672BB1F04AE07D
:100850006BED70E780E790E00E94D11B4AE06BED02
:1008600070E780E790E00E94D11B40E050E060E03C
:1008700070E0CB010E94DF1610C04EE163E379E91E
:1008800080E090E00E94B60C4EE163E379E980E0FD
:1008900090E00E94B60C0E949C0D80918C02909179
:1008A0008D02019729F50E94712922E030E040E095
:1008B00050E00E94A02C672B59F00E943E1BDF9154
:1008C000CF910F91FF90EF90DF90CF900C943E1B53
:1008D000CAE0D0E008E226E63AE140E050E06FEFFF
:1008E00076E683E390E00E94890E219799F7BFC3D3
:1008F00080918E0290918F02009779F442E360E03C
:1009000073E380E090E00E94581D42E360E073E3EF
:1009100080E090E00E94581D9CC38130910589F4CD
:1009200042E350E063E176E680E090E00E94A10DB2
:1009300042E350E063E176E680E090E00E94A10DA2
:1009400088C3029709F093C365EE78EE8CE190E0DE
:100950000E94071840E050E060E070E0CB010E9488
:10096000DF1668EE7CE18AED90E00E94071840E017
:1009700050E060E070E0CB010E94DF166EE278E0AC
:100980008BE290E00E94071864C36DE271E0CE0133
:100990000E946D2E892B09F088C087E791E09F9314
:1009A0008F938BE293E09F938F930E943F150E9459
:1009B000712952E0C52ED12CE12CF12CA701960112
:1009C0000E94A02C70938D0260938C020F900F9068
:1009D0000F900F90672B41F180918E0290918F02C2
:1009E000009779F442E350E060E07FEF8FEF90E012
:1009F0000E94DF1642E350E060E07FEF8FEF90E06F
:100A0000F5CE0197029708F032C342E360E07FEF32
:100A10008FEF90E00E94B60C42E360E070E08FEF51
:100A200090E00E94B60C15C30E947129A70196019F
:100A30000E94A02C672B29F14AE050E060E07AE7A1
:100A40008CEC90E00E940E1740E050E060E070E017
:100A5000CB010E94DF1644E150E060E07AE78CECC5
:100A600090E00E940E1740E050E060E070E0CB01A3
:100A70000E94DF164EE150E060E07AE78CEC90E0F7
:100A800059C24EE16AE17AE18FEF90E00E94B60C24
:100A90004EE16AE17AE18FEF90E00E94B60C4EE100
:100AA0006AE17AE18FEF90E06FC263E371E0CE011B
:100AB0000E946D2E892B09F0D2C087E691E09F93AA
:100AC0008F938BE293E09F938F930E943F150E9438
:100AD000712942E0C42ED12CE12CF12CA701960102
:100AE0000E94A02C70938D0260938C020F900F9047
:100AF0000F900F90672B09F488C080918E0290911F
:100B00008F02009709F569E073E18DE390E00E94A0
:100B1000C01640E050E060E070E0CB010E94DF16BC
:100B200060E078E88FEF90E00E94C01640E050E06F
:100B300060E070E0CB010E94DF1669E073E18DE3B5
:100B400090E00E94C01685C28130910579F54FEF83
:100B500060E08FEF0E940A0C4FEF60E08FEF0E9481
:100B60006D0B0E949C0D4FEF60E08FEF0E940A0C0E
:100B70004FEF60E08FEF0E946D0B0E949C0D4FEFD6
:100B800060E08FEF0E940A0C4FEF60E08FEF0E9451
:100B90006D0B0E949C0D4FEF60E08FEF0E940A0CDE
:100BA0004FEF60E08FEF0E946D0B09C1029709F0D3
:100BB0005EC202E32BED39E04AE150E06FEB70E0FA
:100BC0008FEF90E00E94890E40E050E060E070E01E
:100BD000CB010E94DF1642E350E06FEF76E68FEF25
:100BE00090E00E940E1740E050E060E070E0CB0122
:100BF0000E94DF162BED39E04AE150E06FEB70E028
:100C00008FEF90E00E94890E24C20E947129A701F3
:100C100096010E94A02C672B89F040E069E98CECDA
:100C20000E940A0C43E360E080E0DF91CF910F91D6
:100C3000FF90EF90DF90CF900C946D0B43E360E05A
:100C400080E00E946D0B40E069E98CECDF91CF9170
:100C50000F91FF90EF90DF90CF900C940A0C6BE314
:100C600071E0CE010E946D2E892B09F0B1C089E59B
:100C700091E09F938F938BE293E09F938F930E94D9
:100C80003F150E94712932E0C32ED12CE12CF12CAA
:100C9000A70196010E94A02C70938D0260938C0294
:100CA0000F900F900F900F90672B09F463C0809105
:100CB0008E0290918F02009729F542E350E060E0A8
:100CC00076E68FEF90E00E940E1740E050E060E083
:100CD00070E0CB010E94DF1642E350E060E076E670
:100CE0008FEF90E00E940E1740E050E060E070E06F
:100CF000CB010E94DF1642E350E060E076E68FEF22
:100D000090E018C10197029708F0B1C142E350E0AA
:100D100066E676E68FEF90E00E940E1740E050E026
:100D200060E070E0CB010E94DF1642E350E066E62F
:100D300076E68FEF90E00E940E1740E050E060E012
:100D400070E0CB010E94DF1642E350E066E676E6F3
:100D50008FEF90E00E940E1740E050E060E070E0FE
:100D6000CB010E94DF1642E350E066E676E68FEFA5
:100D700090E0E0C00E947129A70196010E94A02C7A
:100D8000672BB9F042E350E060E079E583EB90E057
:100D90000E94A10D42E350E060E079E583EB90E032
:100DA000DF91CF910F91FF90EF90DF90CF900C9457
:100DB000A10D26E440E060E08FEF0E943D17DF9137
:100DC000CF910F91FF90EF90DF90CF900C949C0DFE
:100DD00061E471E0CE010E946D2E892B41F065E443
:100DE00071E0CE010E946D2E892B09F051C08DE477
:100DF00091E09F938F938BE293E09F938F930E9458
:100E00003F150E94712923E030E040E050E00E944D
:100E1000A02C70938D0260938C020F900F900F9016
:100E20000F90672BF1F40E94712922E030E040E03E
:100E300050E00E94A02C672B29F00E943E1B0E94CC
:100E40003E1B0FC0CAE0D0E008E226E63AE140E0EF
:100E500050E06FEF76E683E390E00E94890E2197E1
:100E600099F780918C0290918D02019739F40E943C
:100E7000712922E030E040E050E080CF80918E0286
:100E800090918F02039708F0F2C00E941014E1C005
:100E90006FE471E0CE010E946D2E892B09F07DC0B8
:100EA00081E491E09F938F938BE293E09F938F93E4
:100EB0000E943F150E94712922E0C22ED12CE12C04
:100EC000F12CA70196010E94A02C70938D026093D3
:100ED0008C020F900F900F900F90672B71F1809103
:100EE0008E0290918F02039708F0C1C042E350E058
:100EF00060E070E08FEF90E00E940E1740E050E05D
:100F000060E070E0CB010E94DF1642E350E060E059
:100F100070E08FEF90E00E940E1740E050E060E03C
:100F200070E0CB010E94DF1642E350E060E070E029
:100F30008FEF90E00E940E178CC00E947129A701CC
:100F400096010E94A02C672B99F026E440E060E017
:100F50008FEF0E943D1726E440E060E08FEFDF91C5
:100F6000CF910F91FF90EF90DF90CF900C943D17B1
:100F70004EE160E076E68FEF90E00E94B60C4EE125
:100F800066E670E08FEF90E0DF91CF910F91FF90D8
:100F9000EF90DF90CF900C94B60C63E571E0CE013A
:100FA0000E946D2E892B19F485E391E01EC06BE53C
:100FB00071E0CE010E946D2E892B19F489E291E037
:100FC00014C064E671E0CE010E946D2E892B19F4E5
:100FD0008DE191E00AC06DE671E0CE010E946D2EB8
:100FE000892B09F044C081E191E09F938F938BE2BC
:100FF00093E09F938F930E943F150E9471294EE1C9
:1010000050E060E070E08FEF90E00E940E1740E04B
:1010100050E060E070E0CB010E94DF164EE150E04E
:1010200060E070E08FEF90E00E940E1740E050E02B
:1010300060E070E0CB010E94DF164EE150E060E01E
:1010400070E08FEF90E00E940E170F900F900F90BE
:101050000F9040E050E060E070E0CB01DF91CF9175
:101060000F91FF90EF90DF90CF900C94DF16DF91FF
:10107000CF910F91FF90EF90DF90CF900895CF9296
:10108000DF92EF92FF920F931F93CF93DF936C0148
:10109000EB017B01E40EF51E00E010E0CE15DF054C
:1010A00061F06991D601ED91FC910190F081E02D04
:1010B000C6010995080F191FF1CFC801DF91CF9123
:1010C0001F910F91FF90EF90DF90CF9008950895BA
:1010D0000F931F93CF93DF938C01EB010E94712933
:1010E00022E030E040E050E00E94A02C7093EF0539
:1010F0006093EE050B30110509F48AC024F40A3020
:10110000110551F0CDC10C30110509F4D5C00D30D9
:10111000110509F45DC1C4C1C130D105D9F442E360
:1011200050E060E073E38CEC90E00E94DF160E94D8
:101130009C0D42E350E060E073E38CEC90E00E9491
:10114000DF160E949C0D42E350E060E073E38CECFC
:1011500090E07AC1C230D105F1F4672B49F048E242
:1011600065E07BE882EF90E00E94B60C0E949C0D47
:1011700047E26EE87DE08DEB90E00E94290D0E9431
:101180009C0D47E26EE87DE08DEB90E00E94290D1A
:101190000E949C0DBFC0239709F082C1672B29F1E3
:1011A0004EE150E062E07BE38DE090E00E94DF16CC
:1011B0000E949C0D4EE150E062E07BE38DE090E008
:1011C0000E94DF160E949C0D4EE150E062E07BE33E
:1011D0008DE090E00E94DF160E949C0D4EE150E0F1
:1011E00062E07BE38DE090E02FC14CE350E06FE7DD
:1011F0007FE78FE790E00E94A10D4CE350E06FE79E
:101200007FE78FE790E00E94A10D4CE350E0D9C04A
:10121000C130D105E9F4672B59F0C4E6D0E06EE0A7
:1012200070EB8BEE90E00E94C0162197C1F732C19F
:101230004FE068EA8BED0E94E81D4FE068EA8BED15
:101240000E94E81D4FE068EA8BED0E94E81D22C174
:10125000C230D10599F426E442E06BE38DE00E94B0
:101260003D1726E442E06BE38DE00E943D1726E443
:1012700042E06BE38DE00E943D170CC1239709F01B
:101280000FC14CE360EF71EB85E090E00E94581DC8
:101290004CE360EF71EB85E090E00E94581D4CE359
:1012A00060EF71EB85E090E00E94581D4CE360EF29
:1012B00071EB85E090E0ECC0C130D10589F5672B7A
:1012C000D9F44EE150E060EF7DE185E090E00E94CE
:1012D000DF160E949C0D4EE150E060EF7DE185E05D
:1012E00090E00E94DF160E949C0D4EE150E060EFFE
:1012F0007DE185E090E0A8C047E26EE87DE08DEBFF
:1013000090E00E94290D47E26EE87DE08DEB90E0D1
:101310000E94290D47E26EE87DE08DEB90E044C02D
:10132000C230D10581F5672B49F56EE87DE08DEB84
:1013300090E00E94C0166AE070E080E090E00E94B9
:10134000A0190E949C0D6EE87DE08DEB90E00E945C
:10135000C0166AE070E080E090E00E94A0190E9450
:101360009C0D6EE87DE08DEB90E00E94C0166AE077
:1013700070E080E090E00E94A0198CC08EE10E9495
:10138000DD0D8EE176C0239709F08AC0672B79F4D2
:1013900047E265E27BEE87E090E00E94290D47E29C
:1013A00065E27BEE87E090E00E94290D73C044E186
:1013B00050E06FE77FE78FE790E00E94A10D44E1E6
:1013C00050E06FE77FE78FE790E00E94A10D62C0D9
:1013D000C130D105C1F4672B89F047E250E068EED7
:1013E00077E08DE190E00E94DF160E949C0D47E2BD
:1013F00050E068EE77E08DE190E026C00E943E1B51
:101400000E943E1B47C0C230D10571F5672BF9F031
:1014100047E250E06CEB75E186EE90E00E94DF164B
:1014200040E050E060E070E0CB010E94DF1647E250
:1014300050E06CEB75E186EE90E00E94DF1640E034
:1014400050E060E070E0CB010E94DF1623C04EE167
:101450006EE279EC8CE190E00E94581D4EE16EE264
:1014600079EC8CE190E014C02397D1F4672B21F044
:1014700086E90E94DD0D0EC042E364E171E389ED6F
:1014800090E00E94581D42E364E171E389ED90E031
:101490000E94581DDF91CF911F910F910C949C0DCC
:1014A000DF91CF911F910F9108956F927F928F924C
:1014B0009F92AF92BF92CF92DF92EF92FF920F93E3
:1014C0001F93CF93DF933C01E0900906F0900A064A
:1014D00097012F5F3F4F8091070690910806821772
:1014E000930708F043C0670189E0C80ED11CC6010C
:1014F000880F991F0E943A2D5C01809005069090FC
:101500000606EC01289600E010E0E016F106A1F0D6
:10151000B80185E096E00E941C1A880F991FF4011B
:10152000E80FF91F209721F08081918199838883AA
:101530000F5F1F4F2296E9CFC4010E94D22DB092B7
:101540000606A0920506D0920806C092070684E01F
:1015500090E090930C0680930B0680910906909181
:101560000A06049690930E0680930D06E0910D06F0
:10157000F0910E06EE0FFF1F809105069091060672
:10158000E80FF91F309729F0D3018D919C91918339
:1015900080836091090670910A066F5F7F4F709398
:1015A0000A066093090685E096E00E941C1A909353
:1015B0000E0680930D06DF91CF911F910F91FF9042
:1015C000EF90DF90CF90BF90AF909F908F907F90E3
:1015D0006F90089590E0FC01E550FD4F2491FC01CF
:1015E000E15FFB4F3491FC01E35DFB4FE491EE239F
:1015F000B9F1222339F1233091F038F42130A9F0E8
:10160000223001F584B58F7D12C0263091F027304D
:10161000A1F02430B9F4809180008F7D03C08091C7
:1016200080008F77809380000DC084B58F7784BD54
:1016300009C08091B0008F7703C08091B0008F7D8A
:101640008093B000F0E0EE0FFF1FED5DFB4FA59122
:10165000B4919FB7F8948C91309538233C939FBFF9
:101660000895CF93DF9390E0FC01E15FFB4F24915D
:10167000FC01E35DFB4F8491882361F190E0880FCA
:10168000991FFC01EF50FD4FC591D491FC01ED5D18
:10169000FB4FA591B491611109C09FB7F89488815F
:1016A000209582238883EC912E230BC0623061F455
:1016B0009FB7F8948881322F309583238883EC91EB
:1016C0002E2B2C939FBF06C08FB7F894E8812E2B4A
:1016D00028838FBFDF91CF910895AF92BF92CF92B1
:1016E000DF92EF92FF920F931F93CF93DF93E82E39
:1016F000B62EA42EC091F105D091F2052997D6956A
:10170000C7952AE0842F622F0E94DF32F82E8B2D9E
:101710000E94DF32082F8E2D0E94DF32182FC12C3D
:10172000D12C8091F1059091F205C816D90650F49C
:1017300020E040E060E0C6010E9426188FEFC81A42
:10174000D80AEFCF2F2D402F612FCE010E942618EF
:10175000CC24C394D12C2A2D4B2D6E2DC6018C0F79
:101760009D1F0E9426188FEFC81AD80A8AE0C81653
:10177000D10489F72F2D402F612FCE010A960E94A8
:1017800026188091F1059091F2052F2D402F612FA1
:101790008C1B9D0B0E942618CC24C394D12C8091C5
:1017A000F1059091F2058C1B9D0B2A2D4B2D6E2D72
:1017B0008C199D090E9426188FEFC81AD80A8AE052
:1017C000C816D10461F78091F1059091F2050A974E
:1017D0002F2D402F612F8C1B9D0B0E9426180E94DD
:1017E0008C1564E170E080E090E00E94A0192197E0
:1017F00008F095CF6EE170E080E090E0DF91CF914E
:101800001F910F91FF90EF90DF90CF90BF90AF901E
:101810000C94A019AF92BF92CF92DF92EF92FF92F9
:101820000F931F93CF93DF93E82EB62EA42E2AE0BA
:10183000842F622F0E94DF32F82E8B2D0E94DF3220
:10184000082F8E2D0E94DF32182FC0E0D0E080914B
:10185000F1059091F2050997969587958C179D074C
:1018600008F46AC0C12CD12C8091F1059091F20549
:10187000C816D90650F420E040E060E0C6010E949E
:1018800026188FEFC81AD80AEFCF2F2D402F612FBF
:10189000CE010E942618CC24C394D12C2A2D4B2D86
:1018A0006E2DC6018C0F9D1F0E9426188FEFC81A3F
:1018B000D80A8AE0C816D10489F72F2D402F612F4E
:1018C000CE010A960E9426188091F1059091F205AA
:1018D0002F2D402F612F8C1B9D0B0E942618CC248E
:1018E000C394D12C8091F1059091F2058C1B9D0B36
:1018F0002A2D4B2D6E2D8C199D090E9426188FEFD5
:10190000C81AD80A8AE0C816D10461F78091F10597
:101910009091F2050A972F2D402F612F8C1B9D0B64
:101920000E9426180E948C1564E170E080E090E02F
:101930000E94A01921968BCF6EE170E080E090E0CC
:10194000DF91CF911F910F91FF90EF90DF90CF909B
:10195000BF90AF900C94A019E7EEF5E04485558553
:1019600060E070E0818992890C945B2E4F925F92C7
:101970006F927F928F929F92AF92BF92CF92DF929F
:10198000EF92FF92CF93DF934B015C01C42E0E9434
:10199000AC0CC0E0D0E04C2C512C612C712C80910F
:1019A000F1059091F20596958795C817D90730F003
:1019B000C0E0D0E0D12CE12CF12C1AC0B501A4017B
:1019C0008C0F9D1F0E944C168091F1059091F2059D
:1019D00096958795B501A4018C1B9D0B0E944C1612
:1019E0000E948C15C301B2010E94A0192196D7CF85
:1019F0008091F1059091F20596958795C817D907C2
:101A0000C8F440E050E0BA01CE010E944C1680912B
:101A1000F1059091F20540E050E0BA018C1B9D0B5E
:101A20000E944C160E948C15C701B6010E94A01995
:101A30002196DECFDF91CF91FF90EF90DF90CF9096
:101A4000BF90AF909F908F907F906F905F904F90DE
:101A500008954F925F926F927F928F929F92AF9272
:101A6000BF92CF92DF92EF92FF92CF93DF934B0121
:101A70005C01C42E0E94AC0CC0E0D0E04C2C512C78
:101A8000612C712C8091F1059091F20596958795C6
:101A9000C817D90730F0C0E0D0E0D12CE12CF12CF0
:101AA00017C0B501A401CE010E944C168091F1052A
:101AB0009091F205B501A4018C1B9D0B0E944C1660
:101AC0000E948C15C301B2010E94A0192296DACFA0
:101AD0008091F1059091F20596958795C817D907E1
:101AE000E0F440E050E0BA018C0F9D1F0E944C16BC
:101AF0008091F1059091F2059695879540E050E030
:101B0000BA018C1B9D0B0E944C160E948C15C701BC
:101B1000B6010E94A0192196DBCFDF91CF91FF90F3
:101B2000EF90DF90CF90BF90AF909F908F907F907D
:101B30006F905F904F90089560E070E0CB010C943F
:101B400007188F929F92AF92BF92CF92DF92EF923F
:101B5000FF921F93CF93DF934B015C01DDE06A019D
:101B6000550FEE08FF08C0E00E94AC0C1C2F812F1F
:101B700090E02091F1053091F2058217930730F43F
:101B8000B501A4010E944C161D5FF1CF0E948C1577
:101B9000C701B6010E94A019CF5FC33029F7D15009
:101BA00011F7DF91CF911F91FF90EF90DF90CF90D1
:101BB000BF90AF909F908F9008954F925F926F92D9
:101BC0007F928F929F92AF92BF92CF92DF92EF92CD
:101BD000FF920F931F93CF93DF93CDB7DEB72A9772
:101BE0000FB6F894DEBF0FBECDBF182F0E94AC0C0D
:101BF0001A861986C12CD12C7601CA94812F90E0C7
:101C0000A0E0B0E08D839E83AF83B8878091F1051B
:101C10009091F205A985BA85A817B90708F062C0A6
:101C20000E9471292B013C010E9471294B015C012A
:101C30000E94712969837A838B839C83C301B201DB
:101C4000A70196010E94A02C2B013C01552466247B
:101C50007724320155244424C501B401A70196011B
:101C60000E94A02CDC01CB019927AA27BB27BA2F01
:101C7000A92F982F8827482A592A6A2A7B2A6981FE
:101C80007A818B819C81A70196010E94A02C462A13
:101C900000E010E08091F1059091F20529853A85E8
:101CA000821B930B08171907B8F440E050E0BA0103
:101CB000C80101970E944C16B301A201C8010E94FD
:101CC0004C160E948C156D817E818F8198850E94B3
:101CD000A0190C5F1F4FDECF89859A8504969A87DD
:101CE000898794CF2A960FB6F894DEBF0FBECDBF7A
:101CF000DF91CF911F910F91FF90EF90DF90CF90E8
:101D0000BF90AF909F908F907F906F905F904F901B
:101D100008954F925F926F927F928F929F92AF92AF
:101D2000BF92CF92DF92EF92FF920F934B015C0133
:101D300069017A01AB01BC0180E090E00E944C1681
:101D4000B701A60181E090E00E944C16B501A40104
:101D500082E090E00E944C16B701A60183E090E07B
:101D60000E944C16B501A40184E090E00E944C163C
:101D7000B701A60185E090E00E944C16B501A401D0
:101D800086E090E00E944C16B701A60187E090E043
:101D90000E944C16B501A40188E090E00E944C1608
:101DA000B701A60189E090E00E944C16B501A4019C
:101DB0008AE090E00E944C16B701A6018BE090E00B
:101DC0000E944C16B501A4018CE090E00E944C16D4
:101DD000B701A6018DE090E00E944C16B501A40168
:101DE0008EE090E00E944C16B701A6018FE090E0D3
:101DF0000E944C16B501A40180E190E00E944C16AF
:101E0000B701A60181E190E00E944C16B501A40142
:101E100082E190E00E944C16B701A60183E190E0B8
:101E20000E944C16B501A40184E190E00E944C167A
:101E3000B701A60185E190E00E944C16B501A4010E
:101E400086E190E00E944C16B701A60187E190E080
:101E50000E944C16B501A40188E190E00E944C1646
:101E6000B701A60189E190E00E944C16B501A401DA
:101E70008AE190E00E944C16B701A6018BE190E048
:101E80000E944C16B501A4018CE190E00E944C1612
:101E9000B701A6018DE190E00E944C16B501A401A6
:101EA0008EE190E00E944C16B701A6018FE190E010
:101EB0000E944C16B501A40180E290E00E944C16ED
:101EC000B701A60181E290E00E944C16B501A40181
:101ED00082E290E00E944C16B701A60183E290E0F6
:101EE0000E944C16B501A40184E290E00E944C16B9
:101EF000B701A60185E290E00E944C16B501A4014D
:101F000086E290E00E944C16B701A60187E290E0BD
:101F10000E944C16B501A40188E290E00E944C1684
:101F2000B701A60189E290E00E944C16B501A40118
:101F30008AE290E00E944C16B701A6018BE290E085
:101F40000E944C16B501A4018CE290E00E944C1650
:101F5000B701A6018DE290E00E944C16B501A401E4
:101F60008EE290E00E944C16B701A6018FE290E04D
:101F70000E944C16B501A40180E390E00E944C162B
:101F8000B701A60181E390E00E944C16B501A401BF
:101F900082E390E00E944C16B701A60183E390E033
:101FA0000E944C16B501A40184E390E00E944C16F7
:101FB000B701A60185E390E00E944C16B501A4018B
:101FC00086E390E00E944C16B701A60187E390E0FB
:101FD0000E944C16B501A40188E390E00E944C16C3
:101FE000B701A60189E390E00E944C16B501A40157
:101FF0008AE390E00E944C16B701A6018BE390E0C3
:102000000E944C16B501A4018CE390E00E944C168E
:102010000E948C15402E512C612C712CC301B201F1
:102020000E94A01940E050E060E070E0CB010E9407
:10203000DF16B701A60180E090E00E944C16B501C2
:10204000A40181E090E00E944C16B701A60182E055
:1020500090E00E944C16B501A40183E090E00E943C
:102060004C16B701A60184E090E00E944C16B50121
:10207000A40185E090E00E944C16B701A60186E01D
:1020800090E00E944C16B501A40187E090E00E9408
:102090004C16B701A60188E090E00E944C16B501ED
:1020A000A40189E090E00E944C16B701A6018AE0E5
:1020B00090E00E944C16B501A4018BE090E00E94D4
:1020C0004C16B701A6018CE090E00E944C16B501B9
:1020D000A4018DE090E00E944C16B701A6018EE0AD
:1020E00090E00E944C16B501A4018FE090E00E94A0
:1020F0004C16B701A60180E190E00E944C16B50194
:10210000A40181E190E00E944C16B701A60182E192
:1021100090E00E944C16B501A40183E190E00E947A
:102120004C16B701A60184E190E00E944C16B5015F
:10213000A40185E190E00E944C16B701A60186E15A
:1021400090E00E944C16B501A40187E190E00E9446
:102150004C16B701A60188E190E00E944C16B5012B
:10216000A40189E190E00E944C16B701A6018AE122
:1021700090E00E944C16B501A4018BE190E00E9412
:102180004C16B701A6018CE190E00E944C16B501F7
:10219000A4018DE190E00E944C16B701A6018EE1EA
:1021A00090E00E944C16B501A4018FE190E00E94DE
:1021B0004C16B701A60180E290E00E944C16B501D2
:1021C000A40181E290E00E944C16B701A60182E2D0
:1021D00090E00E944C16B501A40183E290E00E94B9
:1021E0004C16B701A60184E290E00E944C16B5019E
:1021F000A40185E290E00E944C16B701A60186E298
:1022000090E00E944C16B501A40187E290E00E9484
:102210004C16B701A60188E290E00E944C16B50169
:10222000A40189E290E00E944C16B701A6018AE25F
:1022300090E00E944C16B501A4018BE290E00E9450
:102240004C16B701A6018CE290E00E944C16B50135
:10225000A4018DE290E00E944C16B701A6018EE227
:1022600090E00E944C16B501A4018FE290E00E941C
:102270004C16B701A60180E390E00E944C16B50110
:10228000A40181E390E00E944C16B701A60182E30D
:1022900090E00E944C16B501A40183E390E00E94F7
:1022A0004C16B701A60184E390E00E944C16B501DC
:1022B000A40185E390E00E944C16B701A60186E3D5
:1022C00090E00E944C16B501A40187E390E00E94C3
:1022D0004C16B701A60188E390E00E944C16B501A8
:1022E000A40189E390E00E944C16B701A6018AE39D
:1022F00090E00E944C16B501A4018BE390E00E948F
:102300004C16B701A6018CE390E00E944C160E9487
:102310008C15C301B2010E94A01940E050E060E0BA
:1023200070E0CB010F91FF90EF90DF90CF90BF90C6
:10233000AF909F908F907F906F905F904F900C9494
:10234000DF160F931F93CF93DF938C01EB010E9455
:10235000712922E030E040E050E00E94A02CAB0167
:10236000BC01CA015093EF054093EE0504301105FE
:1023700009F4D7C044F40230110581F0033011058F
:1023800009F475C048C20630110509F472C10CF495
:102390002EC10730110509F4DBC13DC2C130D105A2
:1023A00019F5892B79F04EE150E06EE977E185E18E
:1023B00090E00E94DF164EE150E06EE977E185E1A2
:1023C00090E025C048E26BE076ED88E190E00E9465
:1023D000B60C48E264E175E483E090E0DF91CF91D0
:1023E0001F910F910C94B60CC230D105E1F4892BEA
:1023F000A1F04EE150E067E07BEA88EA90E00E94BD
:10240000DF164EE150E067E07BEA88EA90E0DF917A
:10241000CF911F910F910C94DF164AE06AE77BED94
:102420008DE490E09FC1239709F0F5C1892B79F0E5
:1024300048E250E06EE47FEB89E190E00E94A10D5C
:1024400048E250E06EE47FEB89E190E0DEC1C8E253
:10245000D0E008E22EE43FEB49E150E063E276E3AE
:102460008AE190E00E94890E219799F7D4C1C1308A
:10247000D105F9F4892B79F04EE150E066E37CE177
:1024800087EC90E00E94DF164EE150E066E37CE1CD
:1024900087EC90E0BCCF46E36CE187EC0E94801CA7
:1024A00046E36CE187ECDF91CF911F910F910C9483
:1024B000EB1CC230D10589F4892B29F026E449E1CF
:1024C00066E080E804C026E449E063E88DEEDF9131
:1024D000CF911F910F910C943D17239709F09BC149
:1024E000892B79F042E350E065E17FE283EA90E0F6
:1024F0000E94A10D42E350E065E17FE283EA90E0B3
:1025000084C1C5E0D0E008E220E03FEF4FEF50E0AB
:1025100060E070E08FEF90E00E94890E219799F7BC
:102520007AC1C130D10509F03FC0892B79F04EE165
:1025300050E060EB75E386E790E00E940E174EE1F5
:1025400050E060EB75E386E790E064C062EC7BE10D
:102550008EEA90E00E94071864E170E080E090E06D
:102560000E94A0190E949C0D62EC7BE18EEA90E033
:102570000E94071864E170E080E090E00E94A019DA
:102580000E949C0D62EC7BE18EEA90E00E940718AD
:1025900064E170E080E090E00E94A019DF91CF91AB
:1025A0001F910F910C949C0DC230D10571F4892BB1
:1025B00029F088E20E94DD0D88E2ACC042E350E0E1
:1025C0006FE77FE78FE790E020C1239709F023C1F1
:1025D000892B39F042E350E06DEE7CE087E190E03A
:1025E00014C1DF91CF911F910F910C943E1BC1300C
:1025F000D105B1F4892B11F34EE150E06AEB7BE099
:1026000084E190E00E940E174EE150E06AEB7BE01F
:1026100084E190E0DF91CF911F910F910C940E1700
:10262000C230D10589F4892B49F04AEB6BE084E193
:102630000E94EB1C4AEB6BE084E1BFC04EE165E613
:1026400071E58DEB90E07EC0239709F0E4C0892B03
:1026500009F466C04EE150E06AEB7BE084E190E073
:102660000E94DF164EE150E06AEB7BE084E190E0EF
:10267000CECEC130D10509F047C0892BC9F047E261
:102680006BED79E083E190E00E94290D47E26BED6C
:1026900079E083E190E00E94290D47E26BED79E05B
:1026A00083E190E0DF91CF911F910F910C94290D60
:1026B0004EE150E06EE87DE08DEB90E00E94DF1689
:1026C00040E050E060E070E0CB010E94DF164EE198
:1026D00050E06EE87DE08DEB90E00E94DF1640E078
:1026E00050E060E070E0CB010E94DF164EE150E068
:1026F0006EE87DE08DEB90E00E94DF1640E050E058
:1027000060E070E0CB0183CEC230D10581F4892B2B
:1027100039F08EE1DF91CF911F910F910C94DD0D77
:1027200042E350E06DEE7EE486E590E06EC02397D4
:1027300009F071C0892B09F454CF4EE168EE75E1C0
:1027400082EA90E0DF91CF911F910F910C94581D78
:10275000C130D10521F5892B59F04AE06BE073EEC9
:102760008CE690E0DF91CF911F910F910C94D11BDB
:102770004EE150E06EE87DE08DEB90E00E94DF16C8
:102780004EE150E06EE87DE08DEB90E00E94DF16B8
:102790004EE150E063EE7EE08AEA90E038CEC2304F
:1027A000D10589F4892B09F48ECE4BE061EB83EEE1
:1027B0000E94EB1C4AE761E089E1DF91CF911F9114
:1027C0000F910C94801C239731F5892B81F0C5E083
:1027D000D0E008E223EE3EE04AEA50E063E071E632
:1027E00083E190E00E94890E219799F714C04AE096
:1027F00050E06DEE7EE486E590E00E94A10D4AE097
:1028000050E06FE87CE287E290E0DF91CF911F918A
:102810000F910C94A10DDF91CF911F910F9108950D
:102820002F923F924F925F926F927F928F929F92E0
:10283000AF92BF92CF92DF92EF92FF920F931F93CE
:10284000CF93DF9300D000D000D0CDB7DEB7412CBE
:10285000512C32017EEF272E4E0125E0820E911C75
:10286000312CA32CB12C2091F1053091F205A21648
:10287000B30608F091C0832D90E0A0E0B0E0772788
:10288000662740E050E00E94A02C240D351DAAEFE1
:10289000B5E00E942B2DDC01CB019058AF4FBF4F0C
:1028A000CD01BB2797FDB095AB2F8E3F41E094073C
:1028B00058F48F3F910518F4682F80E028C0922DBE
:1028C000981B80E06FEF24C08C3F53E0950760F4C5
:1028D0008D3F42E0940718F48E5F6FEF03C06CEFFA
:1028E000681B8FEF90E014C08A3F55E0950769F0B0
:1028F0008B3F44E0940728F494E0980F8FEF60E05A
:1029000007C05AEF581B852F01C080E060E09FEFA1
:102910009D831E82E62EF12CC82ED12CC701A0E08B
:10292000B0E0BA2FA92F982F88278827AA27BB277E
:10293000A60160E070E08C019D01042B152B262B75
:10294000372B4D815E81CA01A0E0B0E0DC01992700
:102950008827AC01BD01442755277727D901C80135
:10296000842B952BA62BB72B89839A83AB83BC83AF
:10297000DE011196EC91F0E0E15FFC4FE491ED9304
:102980008A169B06B9F749815A816B817C81C50102
:102990000E944C16339465CF0E948C156AE070E05B
:1029A00080E090E00E94A0195FEF551A650A750A51
:1029B0004114510481E06806710409F051CF269654
:1029C0000FB6F894DEBF0FBECDBFDF91CF911F9140
:1029D0000F91FF90EF90DF90CF90BF90AF909F90BE
:1029E0008F907F906F905F904F903F902F900895C1
:1029F0000F931F93CF93DF9300E010E0FC016491ED
:102A0000EC012196662341F08BE293E00E946C1862
:102A1000080F191FCE01F2CFC801DF91CF911F918E
:102A20000F9108950F931F93CF93DF930E94F81493
:102A30008C016DE08BE293E00E946C18EC016AE07F
:102A40008BE293E00E946C18C00FD11F8C0F9D1F6A
:102A5000DF91CF911F910F910895009769F0FC01CC
:102A600001900020E9F73197AF01481B590BBC01D9
:102A70008BE293E00C943F0880E090E00895EF92A1
:102A8000FF920F931F93CF93DF93CDB7DEB7C0585C
:102A9000D1090FB6F894DEBF0FBECDBF40E850E0BD
:102AA000C557DF4F68817981CB58D0408E010F5FC9
:102AB0001F4FC8010E94CF29C158DF4F1882CF573E
:102AC000D040F80101900020E9F77F01F801019062
:102AD0000020E9F7B8016E1B7F0B60587F4F9E0105
:102AE00023573F4FA801C7010E947D2EC058DF4FDA
:102AF0001882C058D040C7010E942D15C058DF4F22
:102B00000FB6F894DEBF0FBECDBFDF91CF911F91FE
:102B10000F91FF90EF9008950F931F93CF93DF9342
:102B2000CDB7DEB729970FB6F894DEBF0FBECDBF85
:102B30008091F8059091F905892B09F4A2C00E94B3
:102B40007B190091FE051091FF0520910006309140
:102B50000106DC01CB01801B910BA20BB30B8C3265
:102B60009140A105B10558F3F8948091F305909137
:102B7000F4059A838983E091F805F091F905DF0166
:102B80001196808189879091EB05E0910206F09182
:102B9000030680910406992309F42EC09081982B96
:102BA00098879081809589238F838F818C8388E09B
:102BB0008B8358856F8149853B812C8189819A81DE
:102BC000508347FD252F3A952083262F39F0441F47
:102BD00000C000006083000000C0F2CF38E04D91DB
:102BE00060830000019761F7F0930306E09302060B
:102BF00049873B832C8338C09081982B988790819C
:102C0000809589238F838F818E8388E08D8358857B
:102C10006F8149853D812E8189819A81508347FD4D
:102C2000252F00C000C0208300C000C000C000C02D
:102C300000C060830000262F3A9541F0441F000039
:102C400000C000C000C000C000C0E8CF38E04D9117
:102C500000C0608300C0019709F7F0930306E0937A
:102C6000020649873D832E839A83898378940E9444
:102C70007B196093FE057093FF0580930006909387
:102C8000010629960FB6F894DEBF0FBECDBFDF91C7
:102C9000CF911F910F9108958F929F92AF92BF9203
:102CA000CF92DF92EF92FF92CF93DF932091F105C5
:102CB0003091F2058217930708F057C04B01AA2400
:102CC000BB24F82DC52ED62EE72EFF24AC2DE42FE5
:102CD0002091F705222361F0829E40011124F92DF5
:102CE0002C9D60011124AD2D249FE0011124ED2FB6
:102CF0003091FD05B091FA05E090F805F090F905E6
:102D00003B1308C09C01220F331F820F931F8E0DAF
:102D10009F1D19C0880F991F880F991F8E0D9F1D29
:102D2000472F552766277727EC01C30FD11D222394
:102D300049F030E0249F7001259FF00C349FF00C87
:102D400011244F2D48832091FA05EC01C20FD11DAB
:102D5000F8832091FB05EC01C20FD11DA8832091BF
:102D6000FC05DC01A20FB11DEC93DF91CF91FF9028
:102D7000EF90DF90CF90BF90AF909F908F9008958D
:102D8000CF92DF92EF92FF92CF936B017C01C0E074
:102D90008C2F90E02091F1053091F2058217930776
:102DA00040F4B701A6010E944C160E948C15CD5F1D
:102DB000EFCFCF91FF90EF90DF90CF9008958F925B
:102DC0009F92AF92BF92CF92DF92EF92FF92CF93FA
:102DD0004B015C01C0E06A01550FEE08FF088C2F23
:102DE00090E02091F1053091F2058217930760F48D
:102DF000B501A4010E944C160E948C15C701B601B2
:102E00000E94A019CF5FEBCFCF91FF90EF90DF90A2
:102E1000CF90BF90AF909F908F9008958F929F9288
:102E2000AF92BF92CF92DF92EF92FF92CF934B017E
:102E30005C01C0E06A01550FEE08FF088C2F90E09E
:102E40002091F1053091F2058217930760F4B501E6
:102E5000A4010E944C160E948C15C701B6010E9465
:102E6000A019CD5FEBCFCF91FF90EF90DF90CF9087
:102E7000BF90AF909F908F9008952F923F924F9266
:102E80005F926F927F928F929F92AF92BF92CF92FA
:102E9000DF92EF92FF920F931F93CF93DF93CDB703
:102EA000DEB72E970FB6F894DEBF0FBECDBF1E86DD
:102EB0001D86E82EF12C00E010E0E982FA820B83F7
:102EC0001C83E62EF12C00E010E0ED82FE820F83E1
:102ED0001887E42EF12C00E010E0E986FA860B87D3
:102EE0001C87822E912CA12CB12C8091F105909100
:102EF000F2050D851E850817190708F06FC000E060
:102F000010E018010F5F1F4F8091F1059091F205BD
:102F10002816390608F055C06D857E85600F711F33
:102F2000072E000C880B990B0E94802B0E94BE2F4D
:102F300020E030E04EEF52E40E94DF2B20E030E052
:102F400040E053E40E94AA2E20E030E04FE753E433
:102F50000E94162F2B013C0169817A818B819C8113
:102F60000E94802BA30192010E94DF2B0E948F2FD1
:102F7000C62ED12CE12CF12C7601DD24CC246D81E0
:102F80007E818F8198850E94802BA30192010E94EF
:102F9000DF2B0E948F2FD62A69857A858B859C85A9
:102FA0000E94802BA30192010E94DF2B0E948F2F91
:102FB000D701C601862BAC01BD01C1010E944C1690
:102FC000A0CF0E948C15C501B4010E94A0190D85E7
:102FD0001E850F5F1F4F1E870D8787CF2E960FB65A
:102FE000F894DEBF0FBECDBFDF91CF911F910F913F
:102FF000FF90EF90DF90CF90BF90AF909F908F9019
:103000007F906F905F904F903F902F900895CF9258
:10301000DF92EF92FF92CF936B017C01C0E08C2F87
:1030200090E02091F1053091F2058217930740F46A
:10303000B701A6010E944C160E948C15CF5FEFCFFE
:10304000CF91FF90EF90DF90CF900895E091F10540
:10305000F091F2058E179F07F0F53091F7053323B5
:1030600061F0639FB0011124672F349FA0011124E8
:10307000452F329F90011124232F3091FD0550914F
:10308000FA05E091F805F091F905351308C0DC0167
:10309000AA0FBB1F8A0F9B1F8E0F9F1F0AC0880F8E
:1030A000991F880F991F8E0F9F1FFC01E30FF11DC1
:1030B00010823091FA05FC01E30FF11D608330911D
:1030C000FB05FC01E30FF11D40833091FC05FC0181
:1030D000E30FF11D208308950F931F93CF93DF9388
:1030E000FC01A685B7858D01005C1F4FE801888132
:1030F000998101968F739927AD014E5B5F4FEA016D
:103100002881398182179307D1F3E8012881398119
:10311000A20FB31F6C93A685B785A05CBF4F119615
:103120009C938E93A689B7892C9181E090E0078CBF
:1031300002C0880F991F0A94E2F7822B8C9381E0DA
:1031400081A30488F589E02D80818064808381E0FB
:1031500090E0DF91CF911F910F910895FC0181A123
:10316000882329F0A489B5898C9186FFFBCF11A211
:103170000895FC01A485B585FD01E05CFF4F208129
:1031800031813296808191812817390779F08081C9
:103190009181A80FB91F8C91208131812F5F3F4F02
:1031A0002F7333273183208390E008958FEF9FEFB3
:1031B0000895DC011C96ED91FC911D97DF01A05C48
:1031C000BF4F2D913C91119712968D919C91119723
:1031D0002817390739F08D919C91E80FF91F8081EC
:1031E00090E008958FEF9FEF0895FC0124853585C9
:1031F000F901E05CFF4F808191813296208131811D
:10320000821B930B8F73992708958BE293E00C94A4
:10321000F5181F920F920FB60F9211242F933F9320
:103220008F939F93EF93FF932091E3023091E402F9
:103230008091E5029091E6022817390731F48091D8
:10324000C1008F7D8093C10014C0E091E502F09130
:10325000E602ED55FD4F20818091E5029091E60256
:1032600001968F7399279093E6028093E50220934D
:10327000C600FF91EF919F918F913F912F910F90F9
:103280000FBE0F901F9018951F920F920FB60F92BE
:1032900011242F934F935F938F939F93EF93FF93FB
:1032A0008091C00082FD1BC02091C6008091270341
:1032B0009091280301968F7399274091290350918B
:1032C0002A038417950759F0E0912703F09128030A
:1032D000E951FD4F20839093280380932703FF91AA
:1032E000EF919F918F915F914F912F910F900FBE12
:1032F0000F901F9018953FB7F89480911706909102
:103300001806A0911906B0911A0626B5A89B05C00B
:103310002F3F19F00196A11DB11D3FBFBA2FA92F54
:10332000982F8827820F911DA11DB11DBC01CD01D1
:1033300042E0660F771F881F991F4A95D1F70895BD
:10334000CF92DF92EF92FF92CF93DF936B017C01DC
:103350000E947B19EB01C114D104E104F10479F05E
:103360000E947B196C1B7D0B683E7340A0F381E0CB
:10337000C81AD108E108F108C851DC4FECCFDF9141
:10338000CF91FF90EF90DF90CF9008952FB7F894F2
:10339000609113067091140680911506909116069F
:1033A0002FBF08951F920F920FB60F9211242F93E3
:1033B0003F938F939F93AF93BF9380911306909108
:1033C0001406A0911506B09116063091120623E05E
:1033D000230F2D3720F40196A11DB11D05C026E84D
:1033E000230F0296A11DB11D209312068093130690
:1033F00090931406A0931506B093160680911706B5
:1034000090911806A0911906B0911A060196A11D77
:10341000B11D8093170690931806A0931906B093D8
:103420001A06BF91AF919F918F913F912F910F906D
:103430000FBE0F901F901895FC0122813381868169
:103440009781A901481B590B6417750710F0821B5F
:10345000930B860F971F08950F931F93CF93DF93BE
:10346000EC010C811D810115110559F00150110964
:10347000B801CE010E941C1A998788871D830C838E
:10348000F0CF88819981DF91CF911F910F910C949A
:10349000D22DCF93DF932091E605222309F4EBC0D0
:1034A0001092E605C091E205D091E305D093110694
:1034B000C09310068E30910508F0DDC0FC01EE5B74
:1034C000FF4F0C94FF3280E090E00E941B1C80E0D4
:1034D00090E006C081E090E00E941B1C81E090E03B
:1034E000DF91CF910C94271C82E090E00E94571C42
:1034F000BE0182E090E007C083E090E00E94571C8C
:10350000BE0183E090E0DF91CF910C94A11184E0A3
:1035100090E00E94571CBE0184E090E0F4CF85E06B
:1035200090E00E94571CBE0185E090E0ECCF86E061
:1035300090E00E94571CBE0186E090E0E4CF87E057
:1035400090E00E94571CBE0187E090E0DCCF8BE446
:1035500094E00E94F81442E350E060E076E68FEFDA
:1035600090E00E940E1740E050E060E070E0CB0178
:103570000E94DF1642E350E060E076E68FEF90E0D5
:103580000E940E1740E050E060E070E0CB010E9426
:10359000DF1642E350E060E076E68FEF90E033C064
:1035A00081E494E00E94F81448E250E069E970E098
:1035B000CB010E940E1742E350E060E070E0CB01C7
:1035C0000E94DF1648E250E069E970E0CB010E94FA
:1035D0000E1742E350E060E070E0CB010E94DF167E
:1035E00048E250E069E970E0CB010E940E1740E02C
:1035F00050E060E070E0CB010E94DF1648E250E04E
:1036000069E970E0CB010E940E1740E050E060E0F5
:1036100070E0CB01DF91CF910C94DF168AE090E04F
:103620000E94571C0E94C6196093E7057093E80535
:103630008093E9059093EA05BE018AE090E017C007
:103640008BE090E00E94571CBE018BE090E00FC021
:103650008CE090E00E94571CBE018CE090E007C017
:103660008DE090E00E94571CBE018DE090E0DF915C
:10367000CF910C946808DF91CF9108954F925F929B
:103680006F927F928F929F92AF92BF92CF92DF9272
:10369000EF92FF92CF93DF9300D000D000D0CDB750
:1036A000DEB70E94AC0C88E290E09E838D83812C73
:1036B000912C54018A940E9471292B013C010E9493
:1036C000712969837A838B839C830E947129A50168
:1036D00094010E94A02C6B017C01DD24EE24FF24C8
:1036E0007601DD24CC2469817A818B819C81A501BE
:1036F00094010E94A02CDC01CB019927AA27BB27AB
:10370000BA2FA92F982F8827C82AD92AEA2AFB2A54
:10371000C301B201A50194010E94A02CC62A4090C9
:10372000F1055090F205612C712C41145104610493
:10373000710441F00E947129A30192010E94A02C02
:103740002B013C01B701A601C2010E944C160E9448
:103750008C1562E370E080E090E00E94A0198D81FA
:103760009E8101979E838D83892B09F0A4CF62E30C
:1037700070E080E090E026960FB6F894DEBF0FBEB2
:10378000CDBFDF91CF91FF90EF90DF90CF90BF90B2
:10379000AF909F908F907F906F905F904F900C9420
:1037A000A0194F925F926F927F928F929F92AF92E9
:1037B000BF92CF92DF92EF92FF92CF93DF932B01D4
:1037C0003C01842E0E94AC0CC2E3D0E0912CA12CD1
:1037D000B12CC090F105D090F205E12CF12CC11470
:1037E000D104E104F10441F00E947129A70196017E
:1037F0000E94A02C6B017C01B301A201C6010E94B2
:103800004C160E948C15C501B4010E94A019219785
:1038100001F7C501B401DF91CF91FF90EF90DF90E8
:10382000CF90BF90AF909F908F907F906F905F9060
:103830004F900C94A019009719F0019721F008956A
:1038400080E195E002C081E295E00C94F814892BA8
:10385000C9F042E350E060E07FEF80E090E00E943A
:103860000E1742E350E067E073EE8DE490E00E94B3
:103870000E1742E350E060E07FEF80E090E00E94AE
:103880000E170EC04AE060E070E08FEF90E00E94FB
:10389000D11B4AE060E070E08FEF90E00E94D11B06
:1038A00040E050E060E070E0CB010C94DF1602973E
:1038B0008C30910520F5805B9F4FFC010C94FF320A
:1038C00081E095E01AC082EF94E017C081EE94E0A9
:1038D00014C08FEC94E011C08EEB94E00EC08CEA23
:1038E00094E00BC08BE994E008C085E894E005C043
:1038F00083E794E002C083E694E00C94F814089502
:10390000AF92BF92CF92DF92EF92FF920F931F93ED
:10391000CF93DF93C82EB62EA42EC091F105D0917F
:10392000F2052B972AE0842F622F0E94DF32D82ED7
:103930008B2D0E94DF32E82E8C2D0E94DF32F82E74
:103940001C161D06C4F500E010E08091F105909171
:10395000F2050817190748F420E040E060E0C801CC
:103960000E9426180F5F1F4FF0CF2D2D4E2D6F2D6B
:10397000CE010E94261801E010E02A2D4B2D6C2D5F
:10398000C8018C0F9D1F0E9426180F5F1F4F0A3021
:10399000110599F72D2D4E2D6F2DCE010A960E94FF
:1039A00026180E948C1564E170E080E090E00E948F
:1039B000A0192197C5CF6EE170E080E090E0DF9123
:1039C000CF911F910F91FF90EF90DF90CF90BF901C
:1039D000AF900C94A019AF92BF92CF92DF92EF926A
:1039E000FF920F931F93CF93DF93C82EB62EA42E72
:1039F0002AE0842F622F0E94DF32D82E8B2D0E9466
:103A0000DF32E82E8C2D0E94DF32F82EC0E0D0E0AD
:103A10008091F1059091F2050B97C817D907C0F571
:103A200000E010E08091F1059091F2050817190768
:103A300048F420E040E060E0C8010E9426180F5FD3
:103A40001F4FF0CF2D2D4E2D6F2DCE010E94261829
:103A500001E010E02A2D4B2D6C2DC8018C0F9D1F0D
:103A60000E9426180F5F1F4F0A30110599F72D2D60
:103A70004E2D6F2DCE010A960E9426180E948C159D
:103A800064E170E080E090E00E94A0192196C0CF30
:103A90006EE170E080E090E0DF91CF911F910F9197
:103AA000FF90EF90DF90CF90BF90AF900C94A01953
:103AB0002F923F924F925F926F927F928F929F923E
:103AC000AF92BF92CF92DF92EF92FF920F931F932C
:103AD000CF93DF931F92CDB7DEB72B013C01C42EED
:103AE0002DB63EB60E94AC0C2091F1053091F20546
:103AF000C901880F991F4DB75EB7481B590B0FB608
:103B0000F8945EBF0FBE4DBF8DB79EB701964C01B6
:103B100040E0842F90E08217930728F01982D12C7F
:103B2000E12CF12C38C0880F991FF401E80FF91F20
:103B3000118210824E5FEDCF0091F1051091F205D8
:103B400001501109A016B10650F50E947129980183
:103B500040E050E00E94A02CDC01CB018C01000F62
:103B6000111F080D191DF801208131812130310507
:103B700019F3B301A2010E944C1641E050E0F80194
:103B80005183408359815E5F59830E948C15C70120
:103B9000B6010E94A0199981A92EB12CCDCF0FB6E4
:103BA000F8943EBE0FBE2DBE0F90DF91CF911F91B6
:103BB0000F91FF90EF90DF90CF90BF90AF909F90CC
:103BC0008F907F906F905F904F903F902F900895CF
:103BD0002F923F924F925F926F927F928F929F921D
:103BE000AF92BF92CF92DF92EF92FF920F931F930B
:103BF000CF93DF93CDB7DEB76A970FB6F894DEBFE9
:103C00000FBECDBF212C312C082F10E020E030E07A
:103C10000D871E872F87388B862F90E0A0E0B0E0BD
:103C2000898B9A8BAB8BBC8B042F10E020E030E0AB
:103C30000D8B1E8B2F8B388FB101032C000C880B42
:103C4000990B0E94802B20E030E040E85BE30E946B
:103C5000DF2B6B017C016D857E858F8598890E94A5
:103C6000802B69837A838B839C839B01AC01C70182
:103C7000B6010E94DF2B4B015C0169897A898B892F
:103C80009C890E94802B6D837E838F8398879B0104
:103C9000AC01C701B6010E94DF2B2B013C016D89ED
:103CA0007E898F89988D0E94802B69877A878B8780
:103CB0009C879B01AC01C701B6010E94DF2B6B0101
:103CC0007C0100E010E08091F1059091F205081769
:103CD0001907B0F4C701B6010E948F2F6A8FC30184
:103CE000B2010E948F2F698FC501B4010E948F2FEE
:103CF0002A8D498DC8010E9426180F5F1F4FE3CF00
:103D00000E948C151FEF211A310A211421E032067E
:103D100009F092CF22242A94312CB101032C000CFB
:103D2000880B990B0E94802B20E030E040E85BE399
:103D30000E94DF2B6B017C019B01AC0169817A81C0
:103D40008B819C810E94DF2B4B015C01A7019601B6
:103D50006D817E818F8198850E94DF2B2B013C0134
:103D6000A701960169857A858B859C850E94DF2B4A
:103D70006B017C0100E010E08091F1059091F2056B
:103D800008171907B0F4C701B6010E948F2F698B7D
:103D9000C301B2010E948F2F6D87C501B4010E943B
:103DA0008F2F29894D85C8010E9426180F5F1F4F4C
:103DB000E3CF0E948C1532E0231A31088FEF2816CA
:103DC000380609F0AACF6A960FB6F894DEBF0FBE88
:103DD000CDBFDF91CF911F910F91FF90EF90DF90BA
:103DE000CF90BF90AF909F908F907F906F905F909B
:103DF0004F903F902F9008958F929F92AF92BF92D5
:103E0000CF92DF92EF92FF920F931F93CF93DF93A6
:103E1000CDB7DEB7A1970FB6F894DEBF0FBECDBF0A
:103E20002091E605222309F475C06C011092E60585
:103E3000909351048093500489E495E00E94F81413
:103E40000D2C000CEE08FF08F7FE32C06DE28BE28D
:103E500093E00E946C18F094E094D094C094C11C3C
:103E6000D11CE11CF11C19A28E010F5D1F4F3AE01D
:103E7000832E912CA12CB12CC701B601A501940170
:103E80000E94092D8C2D9AE0299F80191124015040
:103E900011098A3014F4805D01C0895CF8018083C7
:103EA00069017A01232B242B252B31F7C80128C067
:103EB0001C2D7D2DC70119A29E012F5D3F4F790159
:103EC0002AE0822E912CA12CB12C612FA501940106
:103ED0000E94092D8AE0289F1019112491E0E91A07
:103EE000F1081A3014F4105D01C0195CF701108359
:103EF000122F732FCA01232B242B252B31F7C70137
:103F00000E942D1582E395E00E94F81480E395E06D
:103F10000E941215A1960FB6F894DEBF0FBECDBF5A
:103F2000DF91CF911F910F91FF90EF90DF90CF9095
:103F3000BF90AF909F908F900895CF93DF93CDB7B0
:103F4000DEB72C970FB6F894DEBF0FBECDBF7894C6
:103F500084B5826084BD84B5816084BD85B582608E
:103F600085BD85B5816085BD80916E00816080933F
:103F70006E001092810080918100826080938100A8
:103F800080918100816080938100809180008160B8
:103F9000809380008091B10084608093B100809113
:103FA000B00081608093B00080917A00846080933B
:103FB0007A0080917A00826080937A0080917A0002
:103FC000816080937A0080917A00806880937A0083
:103FD0001092C1004BE253E0E0913F03F0914003A7
:103FE00081E090E09C0100904B0302C0220F331F40
:103FF0000A94E2F72083E0913B03F0913C031082A6
:10400000E0913D03F0913E0320E1208310924C03A8
:10401000E0914103F091420360819C0100904703CD
:1040200002C0220F331F0A94E2F7262B2083E0916F
:104030004103F091420360819C010090480302C05B
:10404000220F331F0A94E2F7262B2083E0914103CD
:10405000F091420360819C010090490302C0220F4D
:10406000331F0A94E2F7262B2083E0914103F0915D
:104070004203208100904A0302C0880F991F0A94CE
:10408000E2F780958223808380EB91E09F938F936A
:104090005F934F930E943F158BE293E00E94AE180E
:1040A0008091F5059091F6050F900F900F900F906D
:1040B00097FD07C061E00E94310B8091F5050E94D9
:1040C000EA0A81E08093F0050E948C156091F70563
:1040D000653621F12091F8053091F905615031F0F4
:1040E00070E08FEF94E60E94EB3202C060E070E077
:1040F000F9014091F3055091F405CF01821B930B18
:104100008417950740F44081469FC001479F900D5A
:1041100011249193EECF85E68093F7051C861B86CC
:1041200081E090E09A87898782E090E098878F838A
:1041300083E090E09E838D8384E090E09C838B837A
:1041400085E090E09A838983CE010B960E94550A00
:10415000CE0109960E94550ACE0107960E94550A83
:10416000CE0105960E94550ACE0103960E94550A7B
:10417000CE0101960E94550A10929C0210929D0257
:1041800010929E0210929F020E94C6190E94C619A8
:104190000E94C6190E949C0D552453948CE4282E2D
:1041A00082E0382E9CE5692E92E0792E22E7A22E3D
:1041B00022E0B22E3CE7832E32E0932E0E94C619F5
:1041C0008BE293E00E94F518181619060CF07EC0D9
:1041D0008BE293E00E94B918182F80914E041813B7
:1041E0005CC01092E5055092E605E0914F04F0E0C6
:1041F000E35BFB4F15828091500490915104813014
:10420000910581F08230910579F1892B09F045C043
:1042100065E771E082E594E00E94DE29BC0186EB4F
:1042200094E01FC065E771E082E594E00E94DE291A
:10423000BC0186EB94E00E94762E65E771E080E099
:1042400090E00E94DE29BC018AE195E00E94762E72
:1042500065E771E080E090E00E94DE29BC018EE716
:1042600095E00E94762E19C065E771E082E594E042
:104270000E94DE29BC0186EB94E00E94762E65E761
:1042800071E080E090E00E94DE290E94C8290E942F
:10429000882F7093E3056093E2058091E5058823FC
:1042A00069F080914F04E82FF0E0E35BFB4F15834A
:1042B0008F5F843609F483E680934F0480914D0428
:1042C000181304C010924F045092E5055092E40573
:1042D00086EB94E09093A2028093A1025092A002F8
:1042E00067E771E00E946D2E892B19F480E090E061
:1042F0000AC062E871E086EB94E00E946D2E892B83
:1043000029F481E090E00E94FC1EDFC56DE871E0B9
:1043100086EB94E00E946D2E892B19F482E090E0E8
:10432000F2CF68E971E086EB94E00E946D2E892B54
:1043300071F58091E605882309F4C7C51092E6055A
:104340001092A00283EC91E00E94F81481EC91E0BD
:104350000E9412150E94C61960939C0270939D02E0
:1043600080939E0290939F026B017C0124EFC20E0A
:1043700021E0D21EE11CF11C0E94C6196C157D05BE
:104380008E059F05C8F3E0E0F0E009959EC56EE953
:1043900071E086EB94E00E946D2E892B19F480E089
:1043A00090E00AC064EA71E086EB94E00E946D2E12
:1043B000892B29F481E090E00E94491A86C56CEAB5
:1043C00071E086EB94E00E946D2E892B19F482E057
:1043D00090E0F2CF62EB71E086EB94E00E946D2EEC
:1043E000892B19F483E090E0E7CF68EB71E086EB6E
:1043F00094E00E946D2E892B19F484E090E0DCCFCC
:104400006FEB71E086EB94E00E946D2E892B19F41E
:1044100085E090E0D1CF65EC71E086EB94E00E94FE
:104420006D2E892B19F486E090E0C6CF6BEC71E01D
:1044300086EB94E00E946D2E892B19F487E090E0C2
:10444000BBCF61ED71E086EB94E00E946D2E892B6D
:1044500019F488E090E0B0CF69ED71E086EB94E06C
:104460000E946D2E892B19F489E090E0A5CF6FEDA5
:1044700071E086EB94E00E946D2E892B19F48AE09E
:1044800090E09ACF66EE71E086EB94E00E946D2E8C
:10449000892B19F48BE090E08FCF6DEE71E086EB05
:1044A00094E00E946D2E892B19F48CE090E084CF6B
:1044B00063EF71E086EB94E00E946D2E892B19F476
:1044C0008DE090E079CF69EF71E086EB94E00E9497
:1044D0006D2E892B19F484E799E60AC065E471E032
:1044E00086EB94E00E946D2E892B29F486EB94E0F4
:1044F0000E94D602EAC464E072E086EB94E00E9477
:104500006D2E892B19F483E793E7F2CF6EE072E00A
:1045100086EB94E00E946D2E892B19F485E696E7D0
:10452000E7CF66E172E086EB94E00E946D2E892B66
:1045300019F488E693E6DCCF6FE172E086EB94E055
:104540000E946D2E892B19F485E69BE6D1CF69E296
:1045500072E086EB94E00E946D2E892BA9F5809184
:10456000E605882309F4B1C41092E6058EEC91E0CB
:104570009F938F938BE293E09F938F930E943F15BD
:104580000091E2051091E3050E9471290F900F90B0
:104590000F900F900730110508F097C4F801EC5CFC
:1045A000FF4F0C94FF3226E440E060E08FEF0E9462
:1045B0003D1740E050E060E070E0CB010E94DF1664
:1045C00084C44EE150E061C061E372E086EB94E0A8
:1045D0000E946D2E892B09F084C08091E605882306
:1045E00009F473C41092E6058DED91E09F938F93CB
:1045F0008BE293E09F938F930E943F150091E20519
:104600001091E3050E9471290F900F900F900F9069
:104610000730110508F059C4F801E55CFF4F0C9410
:10462000FF326FEF76E68FEF90E00E94071868EC9C
:1046300070E080E090E00E94A01960E070E0CB01A3
:104640000E9407186FEF76E68FEF90E00E94071840
:1046500068EC70E080E090E00E94A01960E070E0FB
:10466000CB010E9407186FEF76E68FEF90E00E9473
:10467000071868EC70E080E090E00E94A01960E00C
:1046800070E0CB01F7C044E150E060E070E08FEFF4
:1046900090E00E940E1740E050E060E070E0CB0137
:1046A0000E94DF164EE150E060E070E08FEF90E096
:1046B0000E940E1740E050E060E070E0CB010E94E5
:1046C000DF164EE150E060E070E08FEF90E00E9476
:1046D0000E176FCF6FEF70E080E090E00E94C01681
:1046E000F4C36AE171E086EB94E00E946D2E892BA1
:1046F00009F4FCCE66E271E086EB94E00E946D2E38
:10470000892B09F4F3CE60E271E086EB94E00E941D
:104710006D2E892B09F4EACE63E371E086EB94E019
:104720000E946D2E892B09F4E1CE61E471E086EBE5
:1047300094E00E946D2E892B09F4D8CE6DE271E0D1
:1047400086EB94E00E946D2E892B09F4CFCE6BE3AB
:1047500071E086EB94E00E946D2E892B09F4C6CEA1
:104760006FE471E086EB94E00E946D2E892B09F4D2
:10477000BDCE69E372E086EB94E00E946D2E892B3A
:1047800009F4B4CE6EE372E086EB94E00E946D2EE5
:10479000892B09F4ABCE63E472E086EB94E00E94CF
:1047A0006D2E892B09F4A2CE68E472E086EB94E0CA
:1047B0000E946D2E892B09F499CE6DE472E086EB90
:1047C00094E00E946D2E892B09F077C08091E60558
:1047D000882309F47AC31092E6051092A0028AE1B8
:1047E00095E090939B0280939A028EE795E09093D8
:1047F00099028093980288ED92E00E94F8148AE171
:1048000095E00E942D1586E592E00E942D1580917D
:104810009802909199020E942D1586ED92E00E94D7
:10482000121567E572E080919802909199020E94BA
:10483000DE298C017C01EF2871F067E572E080E0F1
:1048400090E00E94DE297C010097A9F3BC01C80119
:104850000E94622EF0CFE0909A02F0909B0269E5F0
:1048600072E0C7010E946D2E892B39F4B801110F37
:10487000880B990B0E94071828C361E672E0C701F4
:104880000E946D2E892B49F4B801110F880B990BEA
:1048900042E350E00E940E1718C367E672E0C701BA
:1048A0000E946D2E892B09F010C3B801110F880BDF
:1048B000990B42E30E94B60C08C36EE672E086EBE9
:1048C00094E00E946D2E892B09F04CC08091E60582
:1048D000882309F4FAC21092E6051092A00287EC30
:1048E00092E09F938F938BE293E09F938F930E942C
:1048F0003F15609165037091660380916703909105
:1049000068030E94C01668E873E180E090E00E94AE
:10491000A0190E949C0D60915D0370915E038091CF
:104920005F039091600348E250E00E940E1768E830
:1049300073E180E090E00E94A0190E949C0D6091BC
:10494000610370916203809163039091640348E274
:1049500050E00E940E1768E873E180E090E00E944A
:10496000A019E3C068E772E086EB94E00E946D2E28
:10497000892B61F48091E605882309F4A6C2109280
:10498000E6051092A0028AEB92E013C06EE572E099
:1049900086EB94E00E946D2E892BE1F48091E60570
:1049A000882309F492C21092E6051092A00282EBCD
:1049B00092E09F938F938BE293E09F938F930E945B
:1049C0003F15609171037091720380917303909110
:1049D00074033BC161E772E086EB94E00E946D2EA8
:1049E000892BE1F48091E605882309F46EC21092C8
:1049F000E6051092A00289EA92E09F938F938BE2E2
:104A000093E09F938F930E943F156091690370918B
:104A10006A0380916B0390916C0317C164E772E0A5
:104A200086EB94E00E946D2E892BE1F48091E605DF
:104A3000882309F44AC21092E6051092A00280EA87
:104A400092E09F938F938BE293E09F938F930E94CA
:104A50003F156091610370916203809163039091AF
:104A60006403F3C067E772E086EB94E00E946D2E6A
:104A7000892BE1F48091E605882309F426C210927F
:104A8000E6051092A00288E992E09F938F938BE253
:104A900093E09F938F930E943F1560916D037091F7
:104AA0006E0380916F0390917003CFC063EC71E04F
:104AB00086EB94E00E946D2E892BE1F48091E6054F
:104AC000882309F402C21092E6051092A00280E940
:104AD00092E09F938F938BE293E09F938F930E943A
:104AE0003F15609165037091660380916703909113
:104AF0006803CAC169EC71E086EB94E00E946D2EF8
:104B0000892BB1F48091E605882309F4DEC1109267
:104B1000E6051092A00288E892E09F938F938BE2C3
:104B200093E09F938F930E943F150E949C0DC9C1F3
:104B30006CE372E086EB94E00E946D2E892BD1F439
:104B40008091E605882309F4C0C11092E605109211
:104B5000A0029F928F928BE293E09F938F930E948B
:104B60003F15609165037091660380916703909192
:104B700068036BC06AE772E086EB94E00E946D2EDA
:104B8000892BD1F48091E605882309F49EC1109207
:104B9000E6051092A002BF92AF928BE293E09F9342
:104BA0008F930E943F1560915D0370915E03809129
:104BB0005F039091600349C06CE172E086EB94E082
:104BC0000E946D2E892B01F58091E605882309F45A
:104BD0007CC11092E6051092A00287E692E09F93B6
:104BE0008F938BE293E09F938F930E943F15609188
:104BF000590370915A0380915B0390915C034EE1DD
:104C000050E00E940E175DC16DE772E086EB94E004
:104C10000E946D2E892BE1F48091E605882309F42A
:104C200054C11092E6051092A0027F926F928BE21F
:104C300093E09F938F930E943F156091550370916D
:104C4000560380915703909158030E94C01639C1B2
:104C500060E872E086EB94E00E946D2E892BD1F41F
:104C60008091E605882309F430C11092E605109280
:104C7000A0023F922F928BE293E09F938F930E942A
:104C80003F156091690370916A0380916B03909165
:104C90006C03FAC062E872E086EB94E00E946D2E2D
:104CA000892BE1F48091E605882309F40EC1109266
:104CB000E6051092A0028BE392E09F938F938BE224
:104CC00093E09F938F930E943F15609159037091D9
:104CD0005A0380915B0390915C03D6C067ED71E04D
:104CE00086EB94E00E946D2E892BD1F48091E6052D
:104CF000882309F4EAC01092E6058AE292E09F93C5
:104D00008F938BE293E09F938F930E943F15609166
:104D10006103709162038091630390916403B4C056
:104D200064E872E086EB94E00E946D2E892BE1F43A
:104D30008091E605882309F4C8C01092E605109218
:104D4000A0028AE192E09F938F938BE293E09F937E
:104D50008F930E943F15609171037091720380914F
:104D600073039091740390C066E872E086EB94E060
:104D70000E946D2E892B09F041C08091E6058823A1
:104D800009F4A3C01092E6050E94C619609394022C
:104D90007093950280939602909397021092A002CE
:104DA0008FE092E09F938F938BE293E09F938F939A
:104DB0000E943F1560916D0370916E0380916F03A7
:104DC000909170030E9407180F900F900F900F9012
:104DD0000E94C619009194021091950220919602AA
:104DE00030919702045D1E4F2F4F3F4F60177107A0
:104DF0008207930768F30E949C0D67C063E771E028
:104E000086EB94E00E946D2E892BE1F48091E605FB
:104E1000882309F45AC01092E6051092A00282E09D
:104E200092E09F938F938BE293E09F938F930E94E6
:104E30003F1560916D0370916E0380916F039091A7
:104E4000700322C068E872E086EB94E00E946D2E49
:104E5000892BE9F48091E6058823B9F11092E605E3
:104E60001092A00286EF91E09F938F938BE293E0E4
:104E70009F938F930E943F1560914D0370914E0355
:104E800080914F03909150030E9407181AC06FE25F
:104E900072E086EB94E00E946D2E892BB1F4809134
:104EA000E605882391F01092E6051092A0028CEEA0
:104EB00091E09F938F938BE293E09F938F930E9457
:104EC0003F150F900F900F900F900E94051976C913
:104ED000EF92FF920F931F93CF93DF93CDB7DEB77F
:104EE0002B970FB6F894DEBF0FBECDBF10922E03E6
:104EF00010922D0388EE93E0A0E0B0E080932F03A2
:104F000090933003A0933103B09332038EE091E08D
:104F100090932C0380932B0387EE92E090933803B9
:104F20008093370383EA92E090933A0380933903A6
:104F300085EC90E090933C0380933B0384EC90E0FD
:104F400090933E0380933D0380EC90E09093400368
:104F500080933F0381EC90E0909342038093410360
:104F600082EC90E0909344038093430386EC90E0BE
:104F7000909346038093450384E08093470383E046
:104F80008093480387E08093490385E080934A0338
:104F900081E080934B031E821D8238E0E32EF12CCA
:104FA000FC82EB8280E190E00E943A2D9A83898313
:104FB00004E010E018870F831A87098710920A0609
:104FC00010920906F0920806E092070680E190E050
:104FD0000E943A2D909306068093050610930C06C6
:104FE00000930B0610930E0600930D0600E010E0F0
:104FF0008D819E810817190780F4E980FA80B80135
:10500000CE0101960E941C1A880F991F8E0D9F1DBC
:105010000E94550A0F5F1F4FEBCFCE0101960E94F1
:105020002C1A1092F0051092F7051092FE051092BE
:10503000FF05109200061092010681E08093FD05A5
:105040008093FA051092FB0592E09093FC05809303
:10505000EB0584EB90E09093F4058093F3050E94B8
:105060003A2D9093F9058093F805009761F024EBB1
:10507000FC0111922A95E9F78CE390E09093F205F8
:105080008093F10508C01092F4051092F305109278
:10509000F2051092F10584E090E09093F60580937C
:1050A000F5058091F005882339F061E084E00E94E5
:1050B000310B84E00E94EA0AE1E3F4E0E491F0E0DD
:1050C000EE0FFF1FED5DFB4F8591949190930306CA
:1050D00080930206E3E1F4E0E491E09304068CE3BC
:1050E00080934D048EE380934E0410924F041092EF
:1050F0005104109250041092B60410921A051092A6
:105100007E051092E3051092E2051092E4051092DC
:10511000E5051092E6058EE0809376038FE080939C
:10512000770380E18093780381E18093790382E1C2
:1051300080937A038FEF96E6AFEFB0E08093710330
:1051400090937203A0937303B093740380E090E094
:10515000AFEFB0E080936D0390936E03A0936F0365
:10516000B093700380E09FEFA0E0B0E0809369030C
:1051700090936A03A0936B03B0936C038FEF90E05E
:10518000A0E0B0E08093650390936603A09367036B
:10519000B093680380E09FEFAFEFB0E080936103CE
:1051A00090936203A0936303B093640380E096E658
:1051B000A6E6B0E080935D0390935E03A0935F0347
:1051C000B09360038FEF9FEFA6E6B0E080935903A2
:1051D00090935A03A0935B03B0935C0380E096E640
:1051E000AFEFB0E08093550390935603A09357031D
:1051F000B09358038CEC90E0A6E6B0E080934D03AA
:1052000090934E03A0934F03B09350032B960FB689
:10521000F894DEBF0FBECDBFDF91CF911F910F91EC
:10522000FF90EF9008958091F8059091F9050E9404
:10523000D22D8091F5059091F60597FD03C060E0B1
:105240000E94310B85E096E00C942C1A8F929F926D
:10525000AF92BF92CF92DF92EF92FF92CF93DF9304
:10526000EC01688179818A819B81611571058105D5
:10527000910521F464E279ED8BE597E02DE133EFC0
:1052800041E050E00E94A02C49015A019B01AC0171
:10529000A7EAB1E40E94BF2C6B017C01ACEEB4EF35
:1052A000A50194010E94CD2CDC01CB018C0D9D1D2C
:1052B000AE1DBF1DB7FF03C00197A109B048888389
:1052C0009983AA83BB83BC01CD019F77DF91CF91E6
:1052D000FF90EF90DF90CF90BF90AF909F908F9016
:1052E00008958F929F92AF92BF92CF92DF92EF92EA
:1052F000FF926091000170910101809102019091F3
:105300000301611571058105910521F464E279EDD0
:105310008BE597E02DE133EF41E050E00E94A02CB7
:1053200049015A019B01AC01A7EAB1E40E94BF2CDC
:105330006B017C01ACEEB4EFA50194010E94CD2C71
:10534000DC01CB018C0D9D1DAE1DBF1DB7FF03C041
:105350000197A109B0488093000190930101A093A7
:105360000201B0930301BC01CD019F77FF90EF9044
:10537000DF90CF90BF90AF909F908F9008956093F3
:10538000000170930101809302019093030108953D
:10539000662777270C940A2AF8940C940533FB01AE
:1053A000DC014150504048F005900D920020C9F7B3
:1053B00001C01D9241505040E0F708954BE156E086
:1053C0000E94E3290895FA01A191B081009719F490
:1053D0001097E1F0CD01DC01CD010D90002011F41A
:1053E000C00113C0FB012191222319F02015D9F728
:1053F000F3CFFB012191201519F41E92119606C0DE
:105400002223C1F70D900020A1F7D001FA01A1934A
:10541000B0830895A0E0B0E0E0E1FAE20C94D82C6B
:10542000EC016B016115710519F0FB01918380831B
:105430007E01FFEFEF1AFF0A0881802F90E00E94A3
:10544000582B892B11F0E701F3CF0D3239F47E018F
:1054500082E0E80EF11C098111E008C00B3229F44A
:105460007E0192E0E90EF11C098110E0E70121972D
:1054700043E050E06EED70E0CE010E94612B892B7D
:10548000C1F4239645E050E069ED70E0CE010E9442
:10549000612B892B09F42596C114D10419F0F6016A
:1054A000D183C0831111F6C060E070E080E89FE70F
:1054B000FAC043E050E066ED70E0CE010E94612B3F
:1054C000892B59F4C114D10409F4E9C0F2E0EF0EBC
:1054D000F11CF601F182E082E2C020E030E0A90197
:1054E000C0E0D0E0F70180EDA82EA00E89E08A157B
:1054F00030F1912F9260B92E812F887012FF04C075
:10550000811124C0219622C081112197A5E0B0E02D
:105510000E94BF2CDC01CB01880F991FAA1FBB1F63
:105520009C01AD012A0D311D411D511D283989E90C
:105530003807480789E1580748F0166006C09EEF13
:10554000A9120AC013FD40C01860B12E8FEFE81AEF
:10555000F80A00811B2DC6CF802F8F7D8534A1F5E1
:1055600080818D3211F4106106C08B3221F03196AA
:1055700061E070E004C08181329662E070E08053A7
:105580008A3018F0E61BF70B1FC060E070E060384F
:105590009CE079075CF4DB01AA0FBB1FAA0FBB1FBD
:1055A0006A0F7B1F660F771F680F711D3196DF0131
:1055B00011978C9180538A3050F314FF03C071957A
:1055C00061957109C60FD71F11FF08C0C114D1041E
:1055D00029F0CF010197F60191838083CA01B901B7
:1055E0000E947E2B212F2370233019F04B015C0188
:1055F00006C04B015C01B7FAB094B7F8B09420E054
:1056000030E0A901C501B4010E94792B882309F477
:105610003EC0D7FF06C0D195C195D10905EF10E076
:1056200002C00DE011E06801F8E1CF1AD10890E264
:10563000E92EF12CCE15DF0574F0F8012591359196
:1056400045915491C501B4010E94DF2B4B015C01CF
:10565000CE19DF09EFCF04501109F594E7940C152A
:105660001D0541F78A2D880F8B2D881F8F3F49F02C
:1056700020E030E0A901C501B4010E94792B81111D
:1056800006C082E290E090931E0680931D06C5013D
:10569000B40109C060E070E080E89FEF04C060E002
:1056A00070E080EC9FE7CDB7DEB7ECE00C94F42C13
:1056B00091110C944C2C803219F089508550C8F708
:1056C0000895FB01DC014150504088F08D918134F8
:1056D0001CF08B350CF4805E659161341CF06B35E9
:1056E0000CF4605E861B611171F3990B0895881BA1
:1056F000FCCF0E94BB2B08F481E00895E89409C018
:1057000097FB3EF490958095709561957F4F8F4FF4
:105710009F4F9923A9F0F92F96E9BB279395F6950A
:10572000879577956795B795F111F8CFFAF4BB0F88
:1057300011F460FF1BC06F5F7F4F8F4F9F4F16C0EC
:10574000882311F096E911C0772321F09EE8872F76
:10575000762F05C0662371F096E8862F70E060E032
:105760002AF09A95660F771F881FDAF7880F9695AB
:10577000879597F90895990F0008550FAA0BE0E84F
:10578000FEEF16161706E807F907C0F01216130603
:10579000E407F50798F0621B730B840B950B39F443
:1057A0000A2661F0232B242B252B21F408950A26A9
:1057B00009F4A140A6958FEF811D811D08950E94D7
:1057C000F22B0C94662C0E94582C38F00E945F2C0F
:1057D00020F0952311F00C944F2C0C94552C11248F
:1057E0000C949A2C0E94772C70F3959FC1F3950F1F
:1057F00050E0551F629FF001729FBB27F00DB11D55
:10580000639FAA27F00DB11DAA1F649F6627B00DE4
:10581000A11D661F829F2227B00DA11D621F739FCD
:10582000B00DA11D621F839FA00D611D221F749FDB
:105830003327A00D611D231F849F600D211D822F22
:10584000762F6A2F11249F5750409AF0F1F0882349
:105850004AF0EE0FFF1FBB1F661F771F881F915076
:105860005040A9F79E3F510580F00C944F2C0C94AA
:105870009A2C5F3FE4F3983ED4F38695779567952D
:10588000B795F795E7959F5FC1F7FE2B880F911DA0
:105890009695879597F9089599278827089597F9F8
:1058A0009F6780E870E060E008959FEF80EC0895C6
:1058B00000240A94161617061806090608950024EF
:1058C0000A9412161306140605060895092E039469
:1058D000000C11F4882352F0BB0F40F4BF2B11F4DD
:1058E00060FF04C06F5F7F4F8F4F9F4F089557FD3C
:1058F0009058440F551F59F05F3F71F04795880F3E
:1059000097FB991F61F09F3F79F0879508951216D4
:1059100013061406551FF2CF4695F1DF08C0161680
:1059200017061806991FF1CF869571056105089431
:105930000895E894BB2766277727CB0197F9089548
:10594000052E97FB1EF400940E94B72C57FD07D03C
:105950000E94092D07FC03D04EF40C94B72C5095EF
:105960004095309521953F4F4F4F5F4F089590954B
:105970008095709561957F4F8F4F9F4F08950E943E
:105980002B2DA59F900DB49F900DA49F800D911D70
:1059900011240895B7FF0C94BF2C0E94BF2C821BCA
:1059A000930B08952F923F924F925F926F927F9246
:1059B0008F929F92AF92BF92CF92DF92EF92FF921F
:1059C0000F931F93CF93DF93CDB7DEB7CA1BDB0BCB
:1059D0000FB6F894DEBF0FBECDBF09942A88398870
:1059E00048885F846E847D848C849B84AA84B98477
:1059F000C884DF80EE80FD800C811B81AA81B98183
:105A0000CE0FD11D0FB6F894DEBF0FBECDBFED0196
:105A10000895A1E21A2EAA1BBB1BFD010DC0AA1FEF
:105A2000BB1FEE1FFF1FA217B307E407F50720F007
:105A3000A21BB30BE40BF50B661F771F881F991F82
:105A40001A9469F760957095809590959B01AC01CB
:105A5000BD01CF010895A29FB001B39FC001A39FD4
:105A6000700D811D1124911DB29F700D811D112497
:105A7000911D08950F931F93CF93DF93823091056B
:105A800010F482E090E0E0912106F091220620E0FF
:105A900030E0A0E0B0E0309719F1408151810281FF
:105AA000138148175907C8F08417950769F41097B0
:105AB00031F012960C93129713961C9327C0009303
:105AC00021061093220622C02115310519F0421734
:105AD000530718F49A01BD01EF01DF01F801DBCF94
:105AE00021153105F9F0281B390B2430310580F4DC
:105AF0008A819B816115710521F0FB01938382836B
:105B000004C09093220680932106FE01329644C081
:105B1000FE01E20FF31F81939193225031093983E3
:105B200028833AC020911F0630912006232B41F490
:105B300020910601309107013093200620931F0623
:105B400020910401309105012115310541F42DB753
:105B50003EB74091080150910901241B350BE0919B
:105B60001F06F0912006E217F307A0F42E1B3F0B4F
:105B70002817390778F0AC014E5F5F4F24173507BF
:105B800048F04E0F5F1F5093200640931F068193ED
:105B9000919302C0E0E0F0E0CF01DF91CF911F913F
:105BA0000F910895CF93DF93009709F481C0FC0112
:105BB000329713821282A0912106B091220610978B
:105BC00081F420813181820F931F20911F06309133
:105BD00020062817390751F5F0932006E0931F0699
:105BE00067C0ED0120E030E0CE17DF0740F44A81C6
:105BF0005B819E0141155105F1F0EA01F5CFD38398
:105C0000C28340815181840F951FC817D90759F469
:105C100088819981840F951F0296918380838A8160
:105C20009B81938382832115310529F4F093220609
:105C3000E09321063DC0E901FB83EA834991599134
:105C4000C40FD51FEC17FD0761F480819181840F8B
:105C5000951F0296E90199838883828193819B83B2
:105C60008A83E0E0F0E012968D919C911397009763
:105C700019F0FD01DC01F7CF8D919C9111979D01E9
:105C80002E5F3F4F820F931F20911F0630912006F9
:105C90002817390769F4309729F4109222061092D8
:105CA000210602C013821282B0932006A0931F0621
:105CB000DF91CF910895DC0101C06D9341505040B8
:105CC000E0F70895FB01DC010D900020E9F7119742
:105CD00001900D920020E1F70895FB01DC018D9108
:105CE000019080190110D9F3990B0895FB01DC0193
:105CF00001900D920020E1F70895AEE0B0E0E3E8F6
:105D0000FEE20C94E02C8C01FA0186E08C831A836D
:105D1000098377FF02C060E070E8CB0101979E83A2
:105D20008D83A901BF01CE0101960E94C62F4D812E
:105D30005E8157FD0AC02F813885421753070CF446
:105D40009A01F801E20FF31F10822E96E4E00C9402
:105D5000FC2C5058BB27AA270E94C12E0C94662CFD
:105D60000E94582C38F00E945F2C20F039F49F3F9D
:105D700019F426F40C94552C0EF4E095E7FB0C94E2
:105D80004F2CE92F0E94772C58F3BA17620773073C
:105D90008407950720F079F4A6F50C94992C0EF45D
:105DA000E0950B2EBA2FA02D0B01B90190010C012B
:105DB000CA01A0011124FF27591B99F0593F50F443
:105DC000503E68F11A16F040A22F232F342F44279B
:105DD000585FF3CF469537952795A795F040539593
:105DE000C9F77EF41F16BA0B620B730B840BBAF063
:105DF0009150A1F0FF0FBB1F661F771F881FC2F7CE
:105E00000EC0BA0F621F731F841F48F487957795E1
:105E10006795B795F7959E3F08F0B0CF9395880F9B
:105E200008F09927EE0F9795879508950E942A2FDD
:105E30000C94662C0E945F2C58F00E94582C40F065
:105E400029F45F3F29F00C944F2C51110C949A2C9B
:105E50000C94552C0E94772C68F39923B1F35523A9
:105E600091F3951B550BBB27AA276217730784076D
:105E700038F09F5F5F4F220F331F441FAA1FA9F303
:105E800035D00E2E3AF0E0E832D091505040E695F1
:105E9000001CCAF72BD0FE2F29D0660F771F881F52
:105EA000BB1F261737074807AB07B0E809F0BB0B45
:105EB000802DBF01FF2793585F4F3AF09E3F510559
:105EC00078F00C944F2C0C949A2C5F3FE4F3983E9E
:105ED000D4F3869577956795B795F7959F5FC9F742
:105EE000880F911D9695879597F90895E1E0660FC3
:105EF000771F881FBB1F621773078407BA0720F03C
:105F0000621B730B840BBA0BEE1F88F7E0950895A4
:105F10000E948F2F6894B1110C949A2C08950E94BE
:105F20007F2C88F09F5798F0B92F9927B751B0F080
:105F3000E1F0660F771F881F991F1AF0BA95C9F70D
:105F400014C0B13091F00E94992CB1E008950C94E6
:105F5000992C672F782F8827B85F39F0B93FCCF399
:105F6000869577956795B395D9F73EF4909580958A
:105F7000709561957F4F8F4F9F4F08959F930E941B
:105F800059320F9007FCEE5F0C948232ABE0B0E028
:105F9000ECECFFE20C94D22C6C017B018A01FC0139
:105FA00017821682838181FFCCC1CE0101963C010C
:105FB000F6019381F70193FD859193FF81917F0114
:105FC000882309F4BAC1853239F493FD859193FF92
:105FD00081917F01853229F4B60190E00E94BD31A4
:105FE000E7CF912C212C312CFFE1F315D8F08B3227
:105FF00079F038F4803279F08332A1F4232D2061D6
:106000001DC08D3261F0803369F4232D216016C0EC
:10601000832D8260382EE32DE4603E2E2AC0F32DBE
:10602000F8601DC037FC2DC020ED280F2A3040F04D
:106030008E32B9F436FC81C1232D2064322E19C072
:1060400036FE06C08AE0989E200D1124922E11C0C3
:10605000EAE02E9E200D1124222EF32DF0623F2E19
:1060600008C08C3621F4832D8068382E02C0883613
:1060700041F4F70193FD859193FF81917F01811197
:10608000B3CF982F9F7D9554933028F40C5F1F4F0A
:106090009FE399830DC0833631F0833771F08335E8
:1060A00009F059C021C0F801808189830E5F1F4F1C
:1060B00088248394912C530113C02801F2E04F0EE1
:1060C000511CF801A080B18036FE03C0692D70E03C
:1060D00002C06FEF7FEFC5010E94B2314C01820117
:1060E000F32DFF773F2E16C0280122E0420E511CEF
:1060F000F801A080B18036FE03C0692D70E002C0B7
:106100006FEF7FEFC5010E94A7314C01F32DF068BE
:106110003F2E820133FC1BC0822D90E08816990629
:10612000B0F4B60180E290E00E94BD312A94F4CF31
:10613000F50137FC859137FE81915F01B60190E052
:106140000E94BD3121102A9421E0821A9108811405
:10615000910471F7E8C0843611F0893641F5F801F1
:1061600037FE07C060817181828193810C5F1F4F70
:1061700008C060817181072E000C880B990B0E5F9F
:106180001F4FF32DFF763F2E97FF09C09095809506
:10619000709561957F4F8F4F9F4FF0683F2E2AE09B
:1061A00030E0A3010E94F931882E861845C085375A
:1061B00031F4232D2F7EB22E2AE030E025C0932D1E
:1061C000997FB92E8F36C1F018F4883579F0B5C0B3
:1061D000803719F0883721F0B0C0E92FE061BE2E7A
:1061E000B4FE0DC0FB2DF460BF2E09C034FE0AC002
:1061F000292F2660B22E06C028E030E005C020E13D
:1062000030E002C020E132E0F801B7FE07C0608153
:106210007181828193810C5F1F4F06C06081718103
:1062200080E090E00E5F1F4FA3010E94F931882E9D
:106230008618FB2DFF773F2E36FE0DC0232D2E7FB7
:10624000A22E891458F434FE0BC032FC09C0832DF1
:106250008E7EA82E05C0B82CA32C03C0B82C01C07C
:10626000B92CA4FE0FC0FE01E80DF11D8081803322
:1062700021F49A2D997EA92E09C0A2FE06C0B394DE
:10628000B39404C08A2D867809F0B394A3FC11C09E
:10629000A0FE06C0B21488F4280C922C9B180EC0E5
:1062A000B21460F4B60180E290E00E94BD31B39474
:1062B000F7CFB21418F42B1802C0982C212CA4FE8E
:1062C00010C0B60180E390E00E94BD31A2FE17C06D
:1062D000A1FC03C088E790E002C088E590E0B60129
:1062E0000CC08A2D867859F0A1FE02C08BE201C055
:1062F00080E2A7FC8DE2B60190E00E94BD318914D6
:1063000038F4B60180E390E00E94BD319A94F7CF53
:106310008A94F301E80DF11D8081B60190E00E949E
:10632000BD318110F5CF222009F442CEB60180E2C2
:1063300090E00E94BD312A94F6CFF60186819781C4
:1063400002C08FEF9FEF2B96E2E10C94EE2CFC0144
:106350000590615070400110D8F7809590958E0F90
:106360009F1F0895FC016150704001900110D8F703
:10637000809590958E0F9F1F08950F931F93CF9335
:10638000DF93FB01238121FD03C08FEF9FEF2CC022
:1063900022FF16C046815781248135814217530759
:1063A00044F4A081B1819D012F5F3F4F3183208351
:1063B0008C93268137812F5F3F4F3783268314C00C
:1063C0008B01EC01FB010084F185E02D0995892BFF
:1063D000E1F6D80116968D919C9117970196179624
:1063E0009C938E931697CE01DF91CF911F910F91C1
:1063F0000895FA01AA27283051F1203181F1E8945B
:106400006F936E7F6E5F7F4F8F4F9F4FAF4FB1E0A7
:106410003ED0B4E03CD0670F781F891F9A1FA11DA2
:10642000680F791F8A1F911DA11D6A0F711D811DA3
:10643000911DA11D20D009F468943F912AE0269F68
:1064400011243019305D3193DEF6CF010895462FC7
:106450004770405D4193B3E00FD0C9F7F6CF462FA8
:106460004F70405D4A3318F0495D31FD4052419311
:1064700002D0A9F7EACFB4E0A695979587957795CE
:106480006795BA95C9F700976105710508959B0155
:10649000AC010A2E06945795479537952795BA95DE
:1064A000C9F7620F731F841F951FA01D08950C94D8
:1064B000552C0E947F2CD8F3E894E0E0BB279F572F
:1064C000F0F02AED3FE049EC06C0EE0FBB0F661F6F
:1064D000771F881F28F0B23A62077307840728F0F5
:1064E000B25A620B730B840BE3959A9572F780385E
:1064F00030F49A95BB0F661F771F881FD2F790481C
:106500000C949832EF93E0FF07C0A2EA2AED3FE037
:1065100049EC5FEB0E94C12E0E94662C0F90039401
:1065200001FC9058E8EBF0E00C94A4329F3F31F06E
:10653000915020F4879577956795B795880F911DB1
:106540009695879597F908959F938F937F936F936F
:10655000FF93EF939B01AC010E94DF2BEF91FF9122
:106560000E94B8322F913F914F915F910C94DF2B95
:10657000DF93CF931F930F93FF92EF92DF927B01F4
:106580008C01689406C0DA2EEF010E94F22BFE0106
:10659000E894A5912591359145915591A6F3EF0188
:1065A0000E94C12EFE019701A801DA9469F7DF90DD
:1065B000EF90FF900F911F91CF91DF910895991B5C
:1065C00079E004C0991F961708F0961B881F7A95EA
:1065D000C9F780950895AA1BBB1B51E107C0AA1FEC
:1065E000BB1FA617B70710F0A61BB70B881F991F74
:1065F0005A95A9F780959095BC01CD010895EE0FAD
:10660000FF1F0590F491E02D099412E0CBEAD2E04F
:1066100004C0FE010E94FF322196CC3AD107C9F78F
:04662000F894FFCF1C
:1066240001000000000023062000000000006C1898
:106634003F08F518B918D918AE1871756965740052
:10664400746F756368006361726573730063686F68
:106654006B650073717565657A650073686F76653F
:1066640000687567006D6F6F6465786369740068AE
:106674006974006869746C6566740068697466722C
:106684006F6E74006869747269676874006869740D
:106694006261636B002C007377697463684D6F6487
:1066A40030007377697463684D6F64310073776980
:1066B4007463684D6F643200726573657400777239
:1066C4006F6E6700636F72726563740063656C65F7
:1066D4006200636F6E736F0073747365737300731A
:1066E400746D617400737467616D007374656E74A6
:1066F40000616C726561647900656C61707300702F
:106704007261747465007072656E636F0070727389
:106714007461007072656E64006D6F6F64616E64A5
:10672400677279006D6F6F646861707079006D6F66
:106734006F64736164006D6F6F6473757270006D64
:106744006F6F647363617265006E65677265616320
:1067540000706F73726561630068697466006869CC
:106764007472006869746C006869746200726561AF
:106774006374686973002C200020737461626C6513
:106784000020776970650020626C696E6B00686830
:10679400006672007269006261006C7000667000CD
:0C67A400770078007A0071006B6B000039
:00000001FF
