:100000000C94B1000C94D9000C94D9000C946B02A0
:100010000C9414030C94F0020C94D9000C94D900A5
:100020000C94D9000C94D9000C94D9000C94D900EC
:100030000C94D9000C94D9000C94D9000C94D900DC
:100040000C9438030C94D9000C94D9000C94D9006A
:100050000C94D9000C94D9000C94D9000C94D900BC
:100060000C94D9000C94D900000000002300260055
:10007000290000000000240027002A0000C201001F
:100080000100110011000C0000E100000A00250031
:1000900025002100009600001900390039003600C3
:1000A000127A00001F0046004600440080700000E5
:1000B00022004D004D004A00004B00003600750044
:1000C00075007200403800004A009C009C009900B6
:1000D000802500007200EC00EC00E900C012000076
:1000E000E900DA01DA01D70160090000D701B6039F
:1000F000B603B303B0040000B3036E076E076B07CB
:10010000580200006E07DC0EDC0ED80E2C01000039
:10011000DC0EC11DC11DBE1D000000002500280011
:100120002B00040404040404040402020202020278
:1001300003030303030301020408102040800102AB
:10014000040810200102040810200000000700022B
:1001500001000003040600000000000000002C0560
:10016000CB0511241FBECFEFD8E0DEBFCDBF11E01D
:10017000A0E0B1E0ECEBFCE002C005900D92A031F4
:10018000B107D9F721E0A0E1B1E001C01D92A93784
:10019000B207E1F710E0C0EBD0E004C02197FE0108
:1001A0000E944B06CF3AD107C9F70E9482030C94F4
:1001B000FE050C94000090E0FC01E65BFE4F2491EC
:1001C000FC01EA5CFE4F3491FC01EE5DFE4FE491D0
:1001D000EE23B1F1222339F1233091F038F42130AC
:1001E000A9F0223001F584B58F7D12C0263091F040
:1001F0002730A1F02430B9F4809180008F7D03C0B6
:10020000809180008F77809380000DC084B58F77B8
:1002100084BD09C08091B0008F7703C08091B00089
:100220008F7D8093B000F0E0EE0FFF1FE85EFE4F81
:10023000A591B4918FB7F894EC91E32BEC938FBF19
:100240000895DC015196ED91FC9152979081509662
:100250008C91809589238083089520915B01309152
:100260005C012817390781F490915A018091590156
:10027000981751F0E0915A01F0E0E75EFE4F80815F
:10028000082E000C990B08958FEF9FEF0895209191
:100290005B0130915C012817390739F48FB7F89466
:1002A0001092590110925A018FBF089520915B015D
:1002B00030915C012817390771F480915901209120
:1002C0005A0190E0805C9F4F821B910960E470E0CE
:1002D0000E940106089580E090E0089520915B015E
:1002E00030915C0128173907B9F490915A01809137
:1002F0005901981789F0E0915A01F0E0E75EFE4F4E
:10030000808120915A0130E02F5F3F4F2F733327B8
:1003100020935A0190E008958FEF9FEF089520E019
:1003200001972FEF8F3F9207D9F708950895CF9245
:10033000DF92EF92FF920F931F93CF93DF936C01A5
:10034000EB017B01E40EF51E00E010E0CE15DF05A9
:1003500061F06991D601ED91FC910190F081E02D61
:10036000C6010995080F191FF1CFC801DF91CF9180
:100370001F910F91FF90EF90DF90CF9008953FB7BE
:10038000F8948091150190911601A0911701B091F8
:10039000180126B5A89B05C02F3F19F00196A11D95
:1003A000B11D3FBFBA2FA92F982F8827820F911D0B
:1003B000A11DB11DBC01CD0142E0660F771F881F52
:1003C000991F4A95D1F70895009769F0FC010190B3
:1003D0000020E9F73197AF01481B590BBC018DE5AF
:1003E00091E00C94970180E090E00895DF92EF9205
:1003F000FF920F931F93CF93DF93EC01298D3A8DDA
:100400002115310529F481E090E09B838A835AC04D
:10041000162FDFB6F8948B8D81FD4DC0CE010E9462
:100420002101898D9A8D05960E948F018B8D98E010
:10043000E92EF12C01E081FF1AC0812F802321F0E9
:10044000CE010E94210106C0E989FA89908188893C
:10045000892B8083898D9A8D0E948F01000F81E006
:10046000E81AF10851F7CE010E9421011CC0812F2A
:10047000802339F0E989FA8990818889892B8083E2
:1004800003C0CE010E942101898D9A8D0E948F01A7
:10049000000F81E0E81AF10851F7E989FA899081A3
:1004A0008889892B8083DFBE898D9A8D0E948F0178
:1004B00021E030E007C0E989FA8990818889892B99
:1004C0008083AFCFC901DF91CF911F910F91FF9032
:1004D000EF90DF9008951F920F920FB60F921124A4
:1004E000EF92FF920F931F932F933F934F935F933E
:1004F0006F937F938F939F93AF93BF93CF93DF932C
:10050000EF93FF93C0915B01D0915C01209709F4B8
:1005100050C09B8DEE85FF858D8591FF04C0908135
:10052000892329F446C09081892309F042C08B8930
:100530009C890E948F0188E0E82EF12C10E001E0F8
:100540008D899E890E948F01EE85FF8590818D8522
:10055000892311F0102B03C0802F80951823000FE2
:1005600081E0E81AF10861F78F89988D0E948F0168
:100570008B8D81FD10958091590120915A0190E059
:1005800001968F73992730E08217930779F0E091F5
:100590005901F0E0E75EFE4F10838091590190E031
:1005A00001968F7399278093590103C08B8D8160C9
:1005B0008B8FFF91EF91DF91CF91BF91AF919F9181
:1005C0008F917F916F915F914F913F912F911F91EB
:1005D0000F91FF90EF900F900FBE0F901F90189506
:1005E0001F920F920FB60F9211242F933F934F93A8
:1005F0005F936F937F938F939F93AF93BF93EF938B
:10060000FF930E946B02FF91EF91BF91AF919F9179
:100610008F917F916F915F914F913F912F910F90AB
:100620000FBE0F901F9018951F920F920FB60F924A
:1006300011242F933F934F935F936F937F938F93E7
:100640009F93AF93BF93EF93FF930E946B02FF9131
:10065000EF91BF91AF919F918F917F916F915F913A
:100660004F913F912F910F900FBE0F901F901895B3
:100670001F920F920FB60F9211242F933F938F93D7
:100680009F93AF93BF938091110190911201A0911C
:100690001301B09114013091100123E0230F2D3785
:1006A00020F40196A11DB11D05C026E8230F029676
:1006B000A11DB11D2093100180931101909312018F
:1006C000A0931301B093140180911501909116012C
:1006D000A0911701B09118010196A11DB11D809341
:1006E000150190931601A0931701B0931801BF91C3
:1006F000AF919F918F913F912F910F900FBE0F90CF
:100700001F901895CF93DF93CDB7DEB7A1970FB6A3
:10071000F894DEBF0FBECDBF789484B5826084BDEF
:1007200084B5816084BD85B5826085BD85B58160F5
:1007300085BD80916E00816080936E001092810073
:10074000809181008260809381008091810081602E
:1007500080938100809180008160809380008091EF
:10076000B10084608093B1008091B000816080937B
:10077000B00080917A00846080937A0080917A0042
:10078000826080937A0080917A00816080937A0001
:1007900080917A00806880937A001092C100109254
:1007A00077011092760110927501109274011092E7
:1007B00073011092720110927101109270018CE716
:1007C00090E020E030E0FC014591559165917491F5
:1007D000403C52416105710559F54CE0429FC00112
:1007E000439F900D1124FC01E058FF4F2591349157
:1007F0003093710120937001FC01EE57FF4F25915A
:1008000034913093730120937201FC01EC57FF4F38
:10081000259134913093750120937401FC01EA57BE
:10082000FF4F85919491909377018093760107C053
:100830002F5F3F4F0C962D30310509F0C4CF8091CA
:10084000740190917501892B09F448C020916901C8
:100850002631F0F540916800283058F031E02E3014
:1008600008F430E091E0892F01C0880F3A95EAF74B
:1008700001C084E0842B80936800283038F02E304B
:1008800040F0263148F4ECE6F0E008C0EDE6F0E098
:1008900005C0EBE6F0E002C0E0E0F0E03081283097
:1008A00030F491E001C0990F2A95EAF70EC0422F6B
:1008B00050E02E3018F44850510902C04E505109F2
:1008C00091E001C0990F4A95EAF7892F832B808325
:1008D00080917601909177010E948F0180915B0158
:1008E00090915C018D55914091F0809178018E7FBF
:1008F000809378018FB7F8941092590110925A01A1
:100900002DE531E030935C0120935B018FBF8DE5D5
:1009100091E00E9447013AE0832E912CA12CB12C4A
:1009200000E010E040E4342E30927C0080917A00A8
:10093000806480937A0080917A0086FDFCCF80915C
:1009400078002091790090E0922B97FD0196959583
:1009500087956C01092E000CEE08FF0897FF2DC04B
:100960006DE28DE591E00E94F601442455243201A8
:100970004C185D086E087F0819A29E012F5D3F4F3D
:100980007901C301B201A50194010E941506842DCD
:100990009AE0299F80191124E1E0EE1AF1088A30CB
:1009A00014F4805D01C0895CF701808329013A015C
:1009B000232B242B252B29F723C05C2C7D2DC7014D
:1009C00019A29E012F5D3F4F7901652DA50194016C
:1009D0000E941506852D9AE0299F80191124E1E0D7
:1009E000EE1AF1088A3014F4805D01C0895CF701C9
:1009F0008083522E732FCA01232B242B252B29F7FA
:100A0000C7010E94E4016AE08DE591E00E94F601D1
:100A10000E94BF017B0188EC482E512C612C712C67
:100A20000E94BF016E197F09683E7340C8F321E040
:100A3000421A51086108710838E1E31A3CEFF30AE1
:100A4000411451046104710459F70115110509F4A9
:100A50006BCF0E94000068CFCF93DF9310926001AC
:100A600010925F0188EE93E0A0E0B0E08093610116
:100A700090936201A0936301B093640184E091E0DC
:100A800090935E0180935D0110927101109270014C
:100A900010927301109272011092750110927401FC
:100AA0001092770110927601809178018E7F8D7F70
:100AB00080937801EEE3F1E02491EAE2F1E08491A1
:100AC000882399F090E0880F991FFC01EE58FF4FA2
:100AD000A591B491FC01E85EFE4F859194918FB78A
:100AE000F894EC91E22BEC938FBF88E00E94DB003E
:100AF000EEE3F1E0E491E0936D01EAE2F1E0E491EC
:100B0000F0E0EE0FFF1FE85EFE4F85919491909309
:100B10006F0180936E01E2E4F1E02491EEE2F1E0F6
:100B200084918823C1F090E0880F991FFC01EE5852
:100B3000FF4FC591D491FC01E85EFE4FA591B491A1
:100B40009FB7F8948881E22FE0958E2388838C915B
:100B5000E823EC939FBF8091780181FD03C08CE076
:100B60000E94DB008CE080936901E2E4F1E0E49113
:100B7000E0936A01EEE2F1E0E491F0E0EE0FFF1F96
:100B8000E859FF4F8591949190936C0180936B018C
:100B9000DF91CF91089584E091E090935E0180937E
:100BA0005D0120916901263140F5283028F02E3072
:100BB00030F0ECE6F0E005C0EDE6F0E002C0EBE678
:100BC000F0E03081283038F481E090E001C0880FF7
:100BD0002A95EAF70FC0422F50E02E3018F4485003
:100BE000510902C04E50510981E090E001C0880FC8
:100BF0004A95EAF78095832380830895F8940C94AE
:100C0000510697FB072E16F4009407D077FD09D004
:100C10000E94370607FC05D03EF4909581959F4FC2
:100C20000895709561957F4F0895A1E21A2EAA1B31
:100C3000BB1BFD010DC0AA1FBB1FEE1FFF1FA2178C
:100C4000B307E407F50720F0A21BB30BE40BF50B89
:100C5000661F771F881F991F1A9469F76095709512
:100C6000809590959B01AC01BD01CF010895AA1B11
:100C7000BB1B51E107C0AA1FBB1FA617B70710F087
:100C8000A61BB70B881F991F5A95A9F780959095B9
:100C9000BC01CD010895EE0FFF1F0590F491E02DEA
:100CA000099410E0C0EBD0E004C0FE010E944B06A6
:0C0CB0002196C13BD107C9F7F894FFCF93
:100CBC0000000000F601970156016E012D0147015D
:00000001FF
