:100000000C9485020C9454050C9423050C94F20472
:100010000C94C1040C9490040C945F040C942E0472
:100020000C94FD030C94B6020C94B6020C94B60228
:100030000C94B6020C94B6020C94B6020C94B60260
:100040000C94B6020C94B6020C94B6020C94B60250
:100050000C94B6020C94B6020C94B6020C94B6053D
:100060000C94B6020C944B0D0C947C0C0C94B602C0
:100070000C94B6020C94B6020C94B6020C94B60220
:100080000C94B6020C94B6020C94B6020C94B60210
:100090000C941B0D0C943D0C0C94B6020C94B602FF
:1000A0000C94B6020C94B6020C94B6020C94B602F0
:1000B0000C94B6020C94B6020C94B6020C94B602E0
:1000C0000C94B6020C94B6020C94B6020C94EB0C91
:1000D0000C94FE0B0C94B6020C94BB0C0C94BF0B4E
:1000E0000C94B602E422E722EA22ED22F022F32267
:1000F000F622F922FC22FF222C232F233223352340
:1001000038233B233E234123442347234A234D23C3
:100110005023532356238323862389238C238F2321
:100120009223952398239B239E23A123A423A723D3
:10013000AA23AD23DA23DD23E023E323E623E92307
:10014000EC23EF23F223F523F823FB23FE230124E2
:1001500004243124342437243A243D2440244324E5
:10016000462449244C244F245224552458245B24EB
:100170007203750368036C03AC0379037D03830387
:1001800087038B03910395039903AC039F03A30398
:10019000A7030C944A230C9401240C948C230C94F4
:1001A00035230C94F9220C94F3220C94A4230C9480
:1001B00073280C943B030C94E3230C942F030C94AE
:1001C000ED220C94A1230C9491030C9499030C94AC
:1001D0005B240C94F2230C9429030C943D240C947E
:1001E00037240C94FF220C94FC220C94AD230C9425
:1001F00014070C94B9020C94EC230C9458240C941E
:1002000052240C9435030C9468030C94F6220C943D
:10021000EF230C9446240C94E0230C9486230C9436
:1002200072030C9495030C943E230C944C240C9470
:10023000E4220C9492230C948F230C94E9230C94C5
:100240007D030C94E6230C94EA220C9455240C9420
:10025000FE230C949E230C94E7220C9475030C94BB
:10026000F8230C94A3030C949B230C944D230C941F
:1002700083030C944F240C9450230C94AC030C94E3
:10028000F0220C9434240C942C230C94FB230C9417
:1002900087030C9498230C9495280C946C030C946D
:1002A00038230C948B030C9495230C9489230C9481
:1002B000C7060C9483230C9447230C94AA230C9414
:1002C00004240C943A240C949F030C9444230C941F
:1002D00031240C94DA230C9441230C94A7230C941E
:1002E000DD230C9441030C94F5230C943B230C94D4
:1002F00050070C9479030C9443240C94A7030C949A
:1003000009070C9434070C9456230C9453230C9433
:1003100040240C9449240C9432230C942F230C94E5
:1003200023033C6865693E00200020002C20002C3F
:1003300020004241434B736F6E6172002C20002CF1
:1003400020005249474854736F6E6172002C2000A0
:100350002C200046524F4E54736F6E6172002C2059
:10036000002C20004C454654736F6E6172004F5252
:100370004445524544210020002C20002C20002020
:100380004241434B34002C20002C20005249474866
:100390005434002C20002C200046524F4E54340080
:1003A0002C20002C20004C45465434002042454669
:1003B0004F524520534F525421003B20003B200018
:1003C0003B2000202D2D2D3E205343414E53204EE7
:1003D0004F524D414C4921002C20002C20002C2054
:1003E000002D2D3E200000002000230026002900C3
:1003F0002C002F003200000100000301060109015A
:1004000000002100240027002A002D0030003300C6
:1004100001010000040107010A010000090A0208A5
:100420000B0C0D0706030401000000000000000093
:1004300000000000000000000000000000000000BC
:1004400000000000000011100F000000000000007C
:10045000000000000000000000000000000000009C
:1004600001021020200808102040102040800201C6
:1004700002010804020101020408102040808040AB
:1004800020100804020180040201804020100804AA
:100490000201080402010102040810204080010248
:1004A00004081020408000002200250028002B00B6
:1004B0002E003100340002010000050108010B018B
:1004C00005050505070508080808020202020A0AD0
:1004D00008080404040401010101010101010303EE
:1004E000030303030303040707070C0C0C0C0C0C99
:1004F0000C0C0202020206060606060606060B0B96
:100500000B0B0B0B0B0B9528732811241FBECFEF81
:10051000D1E2DEBFCDBF00E00CBF13E0A0E0B2E04F
:10052000ECE7F0E600E00BBF02C007900D92A634A6
:10053000B107D9F72CE0A6E4B3E001C01D92AC3AB4
:10054000B207E1F712E0C4E8D2E000E006C021976C
:100550000109802FFE010E942430C338D10780E0BA
:100560000807A9F70E94950D0C94F92C0C94000033
:100570000895CF92DF92EF92FF920F931F93CF9344
:10058000DF936C01EB017B01E40EF51E00E010E04F
:10059000CE15DF0561F06991D601ED91FC910190D6
:1005A000F081E02DC6011995080F191FF1CFC80180
:1005B000DF91CF911F910F91FF90EF90DF90CF903F
:1005C0000895DC01ED91FD918081ED91FD91908187
:1005D000ED91FD916C9163708E2309F064609F230F
:1005E00009F06860EEEFF2E0E60FF11D65956595A4
:1005F0006D936D917D918D919D91099423C01AC049
:1006000012C016C010C01EC009C014C013C006C05E
:1006100019C009C00DC007C00DC014C062507040A1
:10062000804090400BC0615070408040904006C0B8
:100630006E5F01C06F5F7F4F8F4F9F4F9E938E9372
:100640007E936E93089580915103909152030C9480
:10065000E10280914F03909150030C94E10280914C
:100660004D0390914E030C94E10280914B039091C5
:100670004C030C94E1028091490390914A030C943D
:10068000E10280914703909148030C94E102362FD8
:1006900090E0FC01E65EFB4F4491FC01E05AFB4F09
:1006A0002491FC01E054FB4F9491992309F468C014
:1006B000442309F451C050E0FA013197E131F105CA
:1006C00008F04AC08827E854FF4F8F4F0C9424301D
:1006D000809180008F7703C0809180008F7D809310
:1006E00080003AC084B58F7702C084B58F7D84BD09
:1006F00033C08091B0008F7703C08091B0008F7DB0
:100700008093B00029C0809190008F7707C08091BE
:1007100090008F7D03C080919000877F8093900030
:100720001BC08091A0008F7707C08091A0008F7DB3
:1007300003C08091A000877F8093A0000DC08091AE
:1007400020018F7707C0809120018F7D03C08091A9
:100750002001877F80932001E92FF0E0EE0FFF1F3B
:10076000EA55FB4FA591B4919FB7F894311104C09D
:100770008C912095282302C0EC912E2B2C939FBFA7
:100780000895CF93DF9390E0FC01E05AFB4F249152
:10079000FC01E054FB4F8491882361F190E0880FC5
:1007A000991FFC01E050FC4FC591D491FC01EA5522
:1007B000FB4FA591B491611109C09FB7F89488814E
:1007C000209582238883EC912E230BC0623061F444
:1007D0009FB7F8948881322F309583238883EC91DA
:1007E0002E2B2C939FBF06C08FB7F894E8812E2B39
:1007F00028838FBFDF91CF9108951F920F920FB67C
:100800000F9211240BB60F922F933F934F935F9348
:100810006F937F938F939F93AF93BF93EF93FF93C8
:1008200080916A0390916B03892B29F0E0916A0310
:10083000F0916B031995FF91EF91BF91AF919F914B
:100840008F917F916F915F914F913F912F910F9079
:100850000BBE0F900FBE0F901F9018951F920F9216
:100860000FB60F9211240BB60F922F933F934F9315
:100870005F936F937F938F939F93AF93BF93EF9308
:10088000FF938091680390916903892B29F0E0918F
:100890006803F09169031995FF91EF91BF91AF91B2
:1008A0009F918F917F916F915F914F913F912F9188
:1008B0000F900BBE0F900FBE0F901F9018951F92B8
:1008C0000F920FB60F9211240BB60F922F933F93F6
:1008D0004F935F936F937F938F939F93AF93BF9348
:1008E000EF93FF9380915E0390915F03892B29F032
:1008F000E0915E03F0915F031995FF91EF91BF9135
:10090000AF919F918F917F916F915F914F913F91A7
:100910002F910F900BBE0F900FBE0F901F90189548
:100920001F920F920FB60F9211240BB60F922F93B6
:100930003F934F935F936F937F938F939F93AF9367
:10094000BF93EF93FF9380915C0390915D03892B9C
:1009500029F0E0915C03F0915D031995FF91EF910F
:10096000BF91AF919F918F917F916F915F914F91C7
:100970003F912F910F900BBE0F900FBE0F901F90C5
:1009800018951F920F920FB60F9211240BB60F926B
:100990002F933F934F935F936F937F938F939F9387
:1009A000AF93BF93EF93FF9380916603909167039A
:1009B000892B29F0E0916603F09167031995FF9167
:1009C000EF91BF91AF919F918F917F916F915F91C7
:1009D0004F913F912F910F900BBE0F900FBE0F9034
:1009E0001F9018951F920F920FB60F9211240BB6FD
:1009F0000F922F933F934F935F936F937F938F93B8
:100A00009F93AF93BF93EF93FF9380916403909173
:100A10006503892B29F0E0916403F0916503199532
:100A2000FF91EF91BF91AF919F918F917F916F91C6
:100A30005F914F913F912F910F900BBE0F900FBE82
:100A40000F901F9018951F920F920FB60F921124BE
:100A50000BB60F922F933F934F935F936F937F93B8
:100A60008F939F93AF93BF93EF93FF938091620314
:100A700090916303892B29F0E0916203F091630365
:100A80001995FF91EF91BF91AF919F918F917F91B8
:100A90006F915F914F913F912F910F900BBE0F90EF
:100AA0000FBE0F901F9018951F920F920FB60F92C6
:100AB00011240BB60F922F933F934F935F936F9335
:100AC0007F938F939F93AF93BF93EF93FF93809107
:100AD000600390916103892B29F0E0916003F0910C
:100AE00061031995FF91EF91BF91AF919F918F9104
:100AF0007F916F915F914F913F912F910F900BBE1E
:100B00000F900FBE0F901F9018953FB7F8948091EB
:100B1000580390915903A0915A03B0915B0326B5F5
:100B2000A89B05C02F3F19F00196A11DB11D3FBF25
:100B3000BA2FA92F982F8827820F911DA11DB11DB3
:100B4000BC01CD0142E0660F771F881F991F4A95AF
:100B5000D1F708952FB7F89460915403709155031D
:100B600080915603909157032FBF08951F920F92C3
:100B70000FB60F9211242F933F938F939F93AF93B0
:100B8000BF938091540390915503A0915603B09167
:100B900057033091530323E0230F2D3720F40196A0
:100BA000A11DB11D05C026E8230F0296A11DB11D90
:100BB000209353038093540390935503A0935603BB
:100BC000B09357038091580390915903A0915A0311
:100BD000B0915B030196A11DB11D809358039093C2
:100BE0005903A0935A03B0935B03BF91AF919F91B8
:100BF0008F913F912F910F900FBE0F901F901895DE
:100C0000CF93DF936DE082EF95E00E94C706EC0181
:100C10006AE082EF95E00E94C7068C0F9D1FDF916E
:100C2000CF9108950F931F93CF93DF9300E010E0CF
:100C3000FC016491EC012196662341F082EF95E07E
:100C40000E94C706080F191FCE01F2CFC801DF911D
:100C5000CF911F910F910895CF93DF930E941206B9
:100C6000EC010E9400068C0F9D1FDF91CF9108952B
:100C7000009769F0FC0101900020E9F73197AF017E
:100C8000481B590BBC0182EF95E00C94B90280E03F
:100C900090E008958F929F92AF92BF92EF92FF9251
:100CA0000F931F93CF93DF93CDB7DEB7A1970FB606
:100CB000F894DEBF0FBECDBF162F042F19A242300D
:100CC00008F40AE07E0121E2E20EF11C802E912C54
:100CD000A12CB12C612FA50194010E94202E029F0E
:100CE0001019112481E0E81AF1081A3014F4105D8B
:100CF00001C0195CF7011083122F732FCA01232B37
:100D0000242B252B39F7C7010E943806A1960FB670
:100D1000F894DEBF0FBECDBFDF91CF911F910F9131
:100D2000FF90EF90BF90AF909F908F900895CF92DB
:100D3000DF92EF92FF92CF93DF936C01990FEE0851
:100D4000FF08F7FE19C06DE282EF95E00E94C7062A
:100D5000EC0166277727CB016C197D098E099F0965
:100D60004AE00E944A068C0F9D1FDF91CF91FF90B1
:100D7000EF90DF90CF9008954AE0C701B601DF9170
:100D8000CF91FF90EF90DF90CF900C944A060F9395
:100D90001F93CF93DF93FC01A685B7858D01005C7F
:100DA0001F4FE8018881998101968F739927AD01C2
:100DB0004E5B5F4FEA012881398182179307D1F397
:100DC000E80128813981A20FB31F6C93A685B785EE
:100DD000A05CBF4F11969C938E93A689B7892C91E6
:100DE00081E090E0078C02C0880F991F0A94E2F717
:100DF000822B8C9381E081A30488F589E02D80818A
:100E00008064808381E090E0DF91CF911F910F910A
:100E10000895FC0181A1882329F0A489B5898C91CA
:100E200086FFFBCF11A20895FC01A485B585FD01C5
:100E3000E05CFF4F208131813296808191812817BB
:100E4000390779F080819181A80FB91F8C91208199
:100E500031812F5F3F4F2F7333273183208390E001
:100E600008958FEF9FEF0895DC011C96ED91FC91A2
:100E70001D97DF01A05CBF4F2D913C9111971296F9
:100E80008D919C9111972817390739F08D919C917C
:100E9000E80FF91F808190E008958FEF9FEF08958C
:100EA000FC0124853585F901E05CFF4F808191814B
:100EB000329620813181821B930B8F73992708957D
:100EC00082EF95E00E94500788E495E00E94500769
:100ED0008EE994E00E94500784EF93E00C94500751
:100EE000CF93DF930E949706EC010E9400068C0FBF
:100EF0009D1FDF91CF9108950C943806CF93DF9317
:100F00000E943806EC010E9400068C0F9D1FDF91A5
:100F1000CF9108958F929F92AF92BF92CF92DF921E
:100F2000EF92FF92CF93DF936B017C019B01AC01A9
:100F30000E940B30882319F087E393E027C0460115
:100F40005701E894B7F82FEF3FEF4FE75FE7C50190
:100F5000B4010E940B3081110DC02FEF3FEF4FE71E
:100F60005FE7C501B4010E94FC2C18161CF48BE34A
:100F700093E00CC02FEF3FEF4FE75FE4C701B601EE
:100F80000E940630181674F48FE393E0DF91CF913E
:100F9000FF90EF90DF90CF90BF90AF909F908F9099
:100FA0000C9438062FEF3FEF4FE75FECC701B60117
:100FB0000E94FC2C87FDE8CF20E030E0A901C701AA
:100FC000B6010E94FC2C87FF0BC06DE282EF95E01A
:100FD0000E94C706EC01F7FAF094F7F8F09402C00B
:100FE000C0E0D0E02AE037ED43EA5BE3C701B60199
:100FF0000E94642F4B015C010E94D72F6B017C0182
:101000000E94012D9B01AC01C501B4010E94632F18
:101010004B015C014AE0C701B6010E944A06C80FB5
:10102000D91F83E493E00E943806C80FD91F20E03F
:1010300030E040E251E4C501B4010E94622D4B0151
:101040005C010E94D02F6B017C01CB010E949706AE
:10105000C80FD91FB601DD0C880B990B0E94032D18
:101060009B01AC01C501B4010E94632F20E030E078
:1010700040E251E40E94622D0E94D02FCB010E94D9
:1010800097068C0F9D1FDF91CF91FF90EF90DF901F
:10109000CF90BF90AF909F908F9008952F923F92E6
:1010A0004F925F926F927F928F929F92AF92BF9278
:1010B000CF92DF92EF92FF920F931F93CF93DF9324
:1010C00000D01F92CDB7DEB76C017A8369838C01A3
:1010D0000E5F1F4FEE24E394F12C89819A81E8166C
:1010E000F9060CF040C0F80120803180B101032CDA
:1010F000000C880B990B0E94032D2B013C01C701AA
:1011000001979C838B835801EB81FC81F7FD1CC008
:10111000F501929082905F01B401092C000C880BBC
:10112000990B0E94032D9B01AC01C301B2010E94E7
:10113000FC2C87FF09C0F501938282828B819C8100
:1011400001979C838B83E0CFEB81FC813196EE0F7E
:10115000FF1FEC0DFD1D31822082FFEFEF1AFF0A09
:101160000E5F1F4FBACFC6010F900F900F900F90D8
:10117000DF91CF911F910F91FF90EF90DF90CF9073
:10118000BF90AF909F908F907F906F905F904F90A7
:101190003F902F9008951092E2071092E107E1E04E
:1011A000F0E0F0936007E0935F0762E070E0709317
:1011B0006A076093690743E050E0509374074093D7
:1011C000730724E030E030937E0720937D07809101
:1011D000590790915A07883091052CF410926207B4
:1011E000109261077DC0DC011897139728F4F093E3
:1011F0006207E093610774C0FC013B97389728F4BD
:1012000070936207609361076BC0BC016351710901
:101210006830710528F4509362074093610760C0FD
:10122000AC014B5151094A30510528F43093620703
:101230002093610755C09C012552310923313105A6
:1012400018F485E090E048C09C0128533109293109
:10125000310518F486E090E03FC09C01215531092A
:101260002431310518F487E090E036C09C01255602
:1012700031092431310518F488E090E02DC09C013B
:10128000295731092431310518F489E090E024C050
:101290009C012D5831092431310518F48AE090E081
:1012A0001BC09C01215A31092931310518F48BE00A
:1012B00090E012C09C012A5B31092F30310518F4EF
:1012C0008CE090E009C0895C9109C29718F48DE028
:1012D00090E002C08EE090E09093620780936107F7
:1012E0008091630790916407883091052CF41092E7
:1012F0006C0710926B0779C09C012850310923308C
:10130000310518F481E090E06CC09C012B5031094C
:101310002830310518F482E090E063C09C0123512D
:1013200031092830310518F483E090E05AC09C015F
:101330002B5131092A30310518F484E090E051C076
:101340009C01255231092331310518F485E090E0E4
:1013500048C09C01285331092931310518F486E031
:1013600090E03FC09C01215531092431310518F42A
:1013700087E090E036C09C012556310924313105C3
:1013800018F488E090E02DC09C01295731092431E0
:10139000310518F489E090E024C09C012D583109F2
:1013A0002431310518F48AE090E01BC09C01215AD9
:1013B00031092931310518F48BE090E012C09C010D
:1013C0002A5B31092F30310518F48CE090E009C018
:1013D000895C9109C29718F48DE090E002C08EE01C
:1013E00090E090936C0780936B0780916D079091CC
:1013F0006E07883091052CF41092760710927507CD
:1014000079C09C01285031092330310518F481E05E
:1014100090E06CC09C012B5031092830310518F444
:1014200082E090E063C09C012351310928303105EE
:1014300018F483E090E05AC09C012B5131092A3006
:10144000310518F484E090E051C09C012552310927
:101450002331310518F485E090E048C09C01285301
:1014600031092931310518F486E090E03FC09C0134
:10147000215531092431310518F487E090E036C058
:101480009C01255631092431310518F488E090E09B
:101490002DC09C01295731092431310518F489E008
:1014A00090E024C09C012D5831092431310518F4F5
:1014B0008AE090E01BC09C01215A31092931310595
:1014C00018F48BE090E012C09C012A5B31092F30A8
:1014D000310518F48CE090E009C0895C9109C2974D
:1014E00018F48DE090E002C08EE090E090937607D3
:1014F00080937507809177079091780788309105E0
:101500004CF41092800710927F07E4E5F7E080E04A
:1015100090E07AC09C01285031092330310518F43D
:1015200081E090E069C09C012B50310928303105E1
:1015300018F482E090E060C09C012351310928300A
:10154000310518F483E090E057C09C012B5131091C
:101550002A30310518F484E090E04EC09C012552F9
:1015600031092331310518F485E090E045C09C0134
:10157000285331092931310518F486E090E03CC048
:101580009C01215531092431310518F487E090E0A0
:1015900033C09C01255631092431310518F488E007
:1015A00090E02AC09C01295731092431310518F4F3
:1015B00089E090E021C09C012D583109243131058A
:1015C00018F48AE090E018C09C01215A31092931B1
:1015D000310518F48BE090E00FC09C012A5B3109C3
:1015E0002F30310518F48CE090E006C0895C910939
:1015F000C29738F48DE090E09093800780937F0746
:1016000084CF8EE090E0F8CF25853685232B09F432
:1016100001963A9627E0EC37F207B1F79093E2078C
:101620008093E1070895CF92DF92EF92FF92CF93DC
:10163000DF93FC01DC0180E090E00196AD014E5F9C
:101640005F4FEA019C012330310539F4DA01833020
:10165000910599F78281938141C069917991ED90CB
:10166000FC901197E616F70619F02F5F3F4FEBCF6E
:1016700040815181A281B3814A175B0769F121E062
:10168000052E000C660B770B6D010B2E000CEE087F
:10169000FF084C155D056E057F0529F0213029F006
:1016A0006A017B0102C032E001C031E08481958192
:1016B000A817B90711F42F5F01C021E0092E000C13
:1016C000AA0BBB0BC816D906EA06FB0639F032177F
:1016D00029F0D701C60102C022E0D2CFDF91CF911D
:1016E000FF90EF90DF90CF9008950F931F9361E0EC
:1016F000809158070E9447030E94AA056093ED0756
:101700007093EE078093EF079093F0070E94AA056D
:101710000091ED071091EE072091EF073091F0074F
:101720000F5F1F4F2F4F3F4F6017710782079307BF
:1017300068F360E0809158071F910F910C94470364
:10174000863308F0865390917B00282F2870977F6E
:10175000922B90937B008770806480937C008091B3
:101760007A00806480937A0080917A0086FDFCCFB5
:10177000809178002091790090E0922B08951F923B
:101780000F920FB60F9211240BB60F922F933F9327
:101790008F939F93EF93FF932091AC033091AD0310
:1017A0008091AE039091AF032817390731F48091EF
:1017B00031018F7D8093310114C0E091AE03F0912F
:1017C000AF03E459FC4F20818091AE039091AF03A9
:1017D00001968F7399279093AF038093AE03209364
:1017E0003601FF91EF919F918F913F912F910F9033
:1017F0000BBE0F900FBE0F901F9018951F920F9267
:101800000FB60F9211240BB60F922F933F938F9325
:101810009F93EF93FF93209156043091570480914A
:101820005804909159042817390731F48091D10058
:101830008F7D8093D10014C0E0915804F091590439
:10184000EA5EFB4F208180915804909159040196E3
:101850008F73992790935904809358042093D6004E
:10186000FF91EF919F918F913F912F910F900BBE20
:101870000F900FBE0F901F9018951F920F920FB6EA
:101880000F9211240BB60F922F933F938F939F9338
:10189000EF93FF932091000530910105809102059F
:1018A000909103052817390731F48091C9008F7D85
:1018B0008093C90014C0E0910205F0910305E05443
:1018C000FB4F2081809102059091030501968F7353
:1018D000992790930305809302052093CE00FF91F2
:1018E000EF919F918F913F912F910F900BBE0F9091
:1018F0000FBE0F901F9018951F920F920FB60F9268
:1019000011240BB60F922F933F938F939F93EF93D6
:10191000FF932091AA053091AB058091AC05909181
:10192000AD052817390731F48091C1008F7D809370
:10193000C10014C0E091AC05F091AD05E659FA4F35
:1019400020818091AC059091AD0501968F73992708
:101950009093AD058093AC052093C600FF91EF9165
:101960009F918F913F912F910F900BBE0F900FBEC3
:101970000F901F9018951F920F920FB60F9211247F
:101980000BB60F922F933F934F935F936F937F9379
:101990008F939F93AF93BF93EF93FF938091300109
:1019A00082FD06C08091360160EB73E00E947B0DE2
:1019B000FF91EF91BF91AF919F918F917F916F9127
:1019C0005F914F913F912F910F900BBE0F900FBEE3
:1019D0000F901F9018951F920F920FB60F9211241F
:1019E0000BB60F922F933F934F935F936F937F9319
:1019F0008F939F93AF93BF93EF93FF938091D0000A
:101A000082FD06C08091D6006AE574E00E947B0DDD
:101A1000FF91EF91BF91AF919F918F917F916F91C6
:101A20005F914F913F912F910F900BBE0F900FBE82
:101A30000F901F9018951F920F920FB60F921124BE
:101A40000BB60F922F933F934F935F936F937F93B8
:101A50008F939F93AF93BF93EF93FF938091C800B1
:101A600082FD06C08091CE0064E075E00E947B0D8F
:101A7000FF91EF91BF91AF919F918F917F916F9166
:101A80005F914F913F912F910F900BBE0F900FBE22
:101A90000F901F9018951F920F920FB60F9211245E
:101AA0000BB60F922F933F934F935F936F937F9358
:101AB0008F939F93AF93BF93EF93FF938091C00059
:101AC00082FD06C08091C6006EEA75E00E947B0D23
:101AD000FF91EF91BF91AF919F918F917F916F9106
:101AE0005F914F913F912F910F900BBE0F900FBEC2
:101AF0000F901F901895FB01E05CFF4F2081318112
:101B00002F5F3F4F2F733327DB01AE5BBF4F4D91EC
:101B10005C912417350741F040815181DB01A40F0E
:101B2000B51F8C93318320830895CF93DF93CDB776
:101B3000DEB761970FB6F894DEBF0FBECDBF7894C5
:101B400084B5826084BD84B5816084BD85B58260C2
:101B500085BD85B5816085BD80916E008160809373
:101B60006E001092810080918100826080938100DC
:101B700080918100816080938100809180008160EC
:101B8000809380008091B10084608093B100809147
:101B9000B00081608093B00080919100826080935A
:101BA00091008091910081608093910080919000DC
:101BB0008160809390008091A10082608093A10059
:101BC0008091A10081608093A1008091A00081603C
:101BD0008093A000809121018260809321018091F7
:101BE0002101816080932101809120018160809397
:101BF000200180917A00846080937A0080917A003D
:101C0000826080937A0080917A00816080937A006C
:101C100080917A00806880937A001092C100E091F0
:101C20000606F091070681E090E09C010090120604
:101C300002C0220F331F0A94E2F72083E0910206CC
:101C4000F09103061082E0910406F091050620E170
:101C5000208310921306E0910806F0910906408156
:101C60009C0100900E0602C0220F331F0A94E2F777
:101C7000242B2083E0910806F091090640819C0105
:101C800000900F0602C0220F331F0A94E2F7242BA4
:101C90002083E0910806F091090640819C010090A4
:101CA000100602C0220F331F0A94E2F7242B208370
:101CB000E0910806F091090620810090110602C00B
:101CC000880F991F0A94E2F780958223808382E22D
:101CD00093E00E942C06809144079091450797FD60
:101CE00008C061E00E94C10360E0809144070E9447
:101CF000470381E080933F07809147079091480711
:101D0000892B09F4A2C00E94850500914D0710910E
:101D10004E0720914F0730915007DC01CB01801B0B
:101D2000910BA20BB30B8C329140A105B10558F376
:101D3000F89480914207909143079A878987E091B0
:101D40004707F0914807DF0111968081898B9091B8
:101D50003C07E0915107F091520780915307992376
:101D600009F42EC09081982B988B908180958923BF
:101D70008F878F858C8788E08B8758896F85498905
:101D80003B852C8589859A85508347FD252F3A957B
:101D90002083262F39F0441F00C00000608300001C
:101DA00000C0F2CF38E04D9160830000019761F7E9
:101DB000F0935207E0935107498B3B872C8738C03B
:101DC0009081982B988B9081809589238F878F8520
:101DD0008E8788E08D8758896F8549893D852E8556
:101DE00089859A85508347FD252F00C000C0208338
:101DF00000C000C000C000C000C060830000262FEB
:101E00003A9541F0441F000000C000C000C000C06F
:101E100000C0E8CF38E04D9100C0608300C001975A
:101E200009F7F0935207E0935107498B3D872E87BE
:101E30009A87898778940E94850560934D077093EF
:101E40004E0780934F079093500760914607693C77
:101E500021F12091470730914807615031F070E03F
:101E60008FEF98EC0E94103002C060E070E0F90142
:101E70004091420750914307CF01821B930B841777
:101E8000950740F44081469FC001479F900D112463
:101E90009193EECF89EC809346070E94AA05109299
:101EA0004603E0919006F091910612A613A614A69F
:101EB00015A616A617A610AA11AA12AA13AA14AA42
:101EC00015AA0E94AA05609370067093710680930C
:101ED0007206909373068091900690919106FC0192
:101EE000EE5BFF4F108211821282138234961082B1
:101EF000118212821382349610821182128213820E
:101F000010923D0610923E0610923F061092400637
:101F10001092410610924206109243061092440617
:101F200010924506109246061092470610924806F7
:101F300088E28093140681E080934E06AAE08A2E00
:101F400099249394AA24A394B12C17E0212E312C28
:101F500002E0602E712C85E0482E512C80914603C2
:101F600081110C94BD1F0E94AA056093E90770932C
:101F7000EA078093EB079093EC070E94750B809122
:101F800054070E94A00B97FD019695958795909315
:101F9000780780937707809155070E94A00B97FDE3
:101FA00001969595879590935A078093590780914C
:101FB00056070E94A00B97FD0196959587959093E3
:101FC000640780936307809157070E94A00B97FDD9
:101FD00001969595879590936E0780936D0781EE96
:101FE00093E00E9412068091590790915A070E942F
:101FF00097068EED93E00E94120680916307909100
:1020000064070E9497068BED93E00E941206809170
:102010006D0790916E070E94970688ED93E00E94ED
:10202000120680917707909178070E9470070E94AE
:10203000CB088091E1079091E2078230910511F47D
:102040000C94091E44F40097A9F0019711F40C9424
:1020500094190C948F248330910511F40C94251F4E
:10206000049711F00C948F241092DE071092DD0774
:102070000C948F2484E090E09093DE078093DD073A
:102080004091590750915A07609163077091640716
:1020900020916D0730916E078091770790917807B6
:1020A000461757070CF4D4C3421753070CF4AEC2BB
:1020B000481759070CF45EC0621773070CF45AC036
:1020C000681779070CF456C0281739070CF452C06A
:1020D0005093AC074093AB0740915F075091600766
:1020E0005093B2074093B107409161075091620746
:1020F0005093B4074093B3077093B6076093B50746
:102100004091690750916A075093BC074093BB0701
:1021100040916B0750916C075093BE074093BD07E9
:102120003093C0072093BF07209173073091740745
:102130003093C6072093C507209175073091760725
:102140003093C8072093C7079093CA078093C907A5
:1021500080917D0790917E079093D0078093CF0761
:1021600080917F07909180079093D2078093D10749
:102170000C948F24481759070CF45EC0621773073C
:102180000CF45AC0681779070CF456C028173907A1
:102190000CF052C05093AC074093AB0740915F07DF
:1021A000509160075093B2074093B1074091610787
:1021B000509162075093B4074093B3077093B607EA
:1021C0006093B5074091690750916A075093BC0727
:1021D0004093BB0740916B0750916C075093BE072B
:1021E0004093BD079093C0078093BF0780917D0700
:1021F00090917E079093C6078093C50780917F07D3
:10220000909180079093C8078093C7073093CA07BF
:102210002093C90780917307909174079093D0071A
:102220008093CF0780917507909176079093D2079E
:102230008093D1070C948F24481759070CF45EC083
:10224000621773070CF05AC0681779070CF456C070
:10225000281739070CF452C05093AC074093AB07D2
:1022600040915F07509160075093B2074093B107C8
:1022700040916107509162075093B4074093B307B0
:102280009093B6078093B50780917D0790917E0764
:102290009093BC078093BB0780917F079091800744
:1022A0009093BE078093BD073093C0072093BF076C
:1022B00080917307909174079093C6078093C50728
:1022C00080917507909176079093C8078093C70710
:1022D0007093CA076093C9078091690790916A0754
:1022E0009093D0078093CF0780916B0790916C07F4
:1022F0009093D2078093D1070C948F2448175907E5
:102300000CF45EC0621773070CF45AC068177907A3
:102310000CF056C0281739070CF052C05093AC0788
:102320004093AB0740915F07509160075093B2070D
:102330004093B10740916107509162075093B407F1
:102340004093B3079093B6078093B50780917D07BC
:1023500090917E079093BC078093BB0780917F0785
:10236000909180079093BE078093BD077093C0073C
:102370006093BF078091690790916A079093C607A1
:102380008093C50780916B0790916C079093C80765
:102390008093C7073093CA072093C90780917307BA
:1023A000909174079093D0078093CF078091750721
:1023B000909176079093D2078093D1070C948F2445
:1023C000481759070CF45EC0621773070CF05AC027
:1023D000681779070CF056C0281739070CF452C05B
:1023E0005093AC074093AB0740915F075091600753
:1023F0005093B2074093B107409161075091620733
:102400005093B4074093B3073093B6072093B507B2
:1024100020917307309174073093BC072093BB075A
:1024200020917507309176073093BE072093BD0742
:102430009093C0078093BF0780917D0790917E079E
:102440009093C6078093C50780917F07909180077E
:102450009093C8078093C7077093CA076093C90712
:102460008091690790916A079093D0078093CF0776
:1024700080916B0790916C079093D2078093D1075E
:102480000C948F24481759070CF45EC06217730729
:102490000CF05AC0681779070CF056C02817390796
:1024A0000CF052C05093AC074093AB0740915F07CC
:1024B000509160075093B2074093B1074091610774
:1024C000509162075093B4074093B3079093B607B7
:1024D0008093B50780917D0790917E079093BC070C
:1024E0008093BB0780917F07909180079093BE07F0
:1024F0008093BD073093C0072093BF078091730777
:10250000909174079093C6078093C50780917507D3
:10251000909176079093C8078093C7077093CA0776
:102520006093C9078091690790916A079093D007DB
:102530008093CF0780916B0790916C079093D2079F
:102540008093D1070C948F24481759070CF01AC1B7
:10255000621773070CF016C1681779070CF012C1E7
:10256000281739070CF00EC19093AC078093AB0786
:1025700080917D0790917E079093B2078093B10779
:1025800080917F07909180079093B4078093B30761
:102590005093B6074093B50780915F07909160070D
:1025A0009093BC078093BB0780916107909162076D
:1025B0009093BE078093BD073093C0072093BF0759
:1025C00080917307909174079093C6078093C50715
:1025D00080917507909176079093C8078093C707FD
:1025E0007093CA076093C9078091690790916A0741
:1025F0009093D0078093CF0780916B0790916C07E1
:102600009093D2078093D1070C948F2448175907D1
:102610000CF456C0621773070CF052C068177907A4
:102620000CF04EC0281739070CF44AC03093AC07A1
:102630002093AB07E0917307F0917407F093B20712
:10264000E093B10760917507709176077093B407B6
:102650006093B3075093B6074093B50740915F0767
:10266000509160075093BC074093BB0740916107AE
:10267000509162075093BE074093BD079093C007E7
:102680008093BF0780917D0790917E079093C60746
:102690008093C50780917F07909180079093C8072A
:1026A0008093C7073093CA072093C907F093D007D8
:1026B000E093CF077093D2076093D1070C948F24D7
:1026C000481759070CF48CC1621773070CF088C1C6
:1026D000681779070CF484C1281739070CF480C1F6
:1026E0003093AC072093AB072091730730917407A8
:1026F0003093B2072093B107209175073091760788
:102700003093B4072093B3075093B6074093B507AF
:1027100020915F07309160073093BC072093BB077F
:1027200020916107309162073093BE072093BD0767
:102730007093C0076093BF072091690730916A07C3
:102740003093C6072093C50720916B0730916C0723
:102750003093C8072093C7079093CA078093C9078F
:1027600080917D0790917E079093D0078093CF074B
:1027700080917F07909180079093D2078093D10733
:102780000C948F244817590714F00C948F24621767
:10279000730714F40C948F246817790714F00C94C1
:1027A0008F242817390714F00C948F249093AC07CA
:1027B0008093AB0780917D0790917E079093B2073D
:1027C0008093B10780917F07909180079093B40721
:1027D0008093B3075093B6074093B50780915F0786
:1027E000909160079093BC078093BB07809161072D
:1027F000909162079093BE078093BD077093C007C6
:102800006093BF078091690790916A079093C6070C
:102810008093C50780916B0790916C079093C807D0
:102820008093C7073093CA072093C9078091730725
:10283000909174079093D0078093CF07809175078C
:10284000909176079093D2078093D1070C948F24B0
:10285000421753070CF48CC1481759070CF45EC09B
:10286000621773070CF45AC0681779070CF456C046
:10287000281739070CF052C07093AC076093AB0770
:102880006091690770916A077093B2076093B1070E
:1028900060916B0770916C077093B4076093B307F6
:1028A0005093B6074093B50740915F07509160077A
:1028B0005093BC074093BB0740916107509162075A
:1028C0005093BE074093BD079093C0078093BF0706
:1028D00080917D0790917E079093C6078093C507EE
:1028E00080917F07909180079093C8078093C707D6
:1028F0003093CA072093C90780917307909174079A
:102900009093D0078093CF078091750790917607B9
:102910009093D2078093D1070C948F2448175907BE
:102920000CF488C1621773070CF484C16817790727
:102930000CF480C1281739070CF47CC17093AC07E4
:102940006093AB076091690770916A077093B20753
:102950006093B10760916B0770916C077093B40737
:102960006093B3075093B6074093B50740915F0754
:10297000509160075093BC074093BB07409161079B
:10298000509162075093BE074093BD073093C00734
:102990002093BF0720917307309174073093C607C7
:1029A0002093C50720917507309176073093C807AB
:1029B0002093C7079093CA078093C90780917D072A
:1029C00090917E079093D0078093CF0780917F07E7
:1029D000909180079093D2078093D1070C948F2415
:1029E000481759070CF05EC0621773070CF05AC005
:1029F000681779070CF056C0281739070CF052C039
:102A00009093AC078093AB0780917D0790917E07F0
:102A10009093B2078093B10780917F0790918007D0
:102A20009093B4078093B3073093B6072093B5070C
:102A300080917307909174079093BC078093BB07B4
:102A400080917507909176079093BE078093BD079C
:102A50005093C0074093BF0780915F079091600734
:102A60009093C6078093C507809161079091620794
:102A70009093C8078093C7077093CA076093C907EC
:102A80008091690790916A079093D0078093CF0750
:102A900080916B0790916C079093D2078093D10738
:102AA0000C948F244817590714F00C948F24621744
:102AB000730714F00C948F246817790714F00C94A2
:102AC0008F242817390714F40C948F243093AC0703
:102AD0002093AB0720917307309174073093B207AE
:102AE0002093B10720917507309176073093B40792
:102AF0002093B3079093B6078093B50780917D0725
:102B000090917E079093BC078093BB0780917F07CD
:102B1000909180079093BE078093BD075093C007A4
:102B20004093BF0780915F07909160079093C6071D
:102B30008093C50780916107909162079093C807C1
:102B40008093C7077093CA076093C907809169078C
:102B500090916A079093D0078093CF0780916B077D
:102B600090916C079093D2078093D1070C948F2497
:102B7000481759070CF426C1621773070CF022C1DD
:102B8000681779070CF41EC1281739070CF41AC10D
:102B90003093AC072093AB072091730730917407F3
:102BA0003093B2072093B1072091750730917607D3
:102BB0003093B4072093B3077093B6076093B507BB
:102BC0002091690730916A073093BC072093BB07B7
:102BD00020916B0730916C073093BE072093BD079F
:102BE0005093C0074093BF0720915F073091600763
:102BF0003093C6072093C507209161073091620783
:102C00003093C8072093C7079093CA078093C907DA
:102C100080917D0790917E079093D0078093CF0796
:102C200080917F07909180079093D2078093D1077E
:102C30000C948F24481759070CF05EC06217730775
:102C40000CF45AC0681779070CF056C028173907DA
:102C50000CF052C09093AC078093AB0780917D0736
:102C600090917E079093B2078093B10780917F0780
:102C7000909180079093B4078093B3077093B60741
:102C80006093B5078091690790916A079093BC079C
:102C90008093BB0780916B0790916C079093BE0760
:102CA0008093BD075093C0074093BF0780915F0793
:102CB000909160079093C6078093C5078091610744
:102CC000909162079093C8078093C7073093CA0713
:102CD0002093C90780917307909174079093D00750
:102CE0008093CF0780917507909176079093D207D4
:102CF0008093D1070C948F244817590714F00C9433
:102D00008F246217730714F40C948F2468177907C3
:102D100014F40C948F242817390714F00C948F2482
:102D20007093AC076093AB076091690770916A0775
:102D30007093B2076093B10760916B0770916C0755
:102D40007093B4076093B3079093B6078093B50769
:102D500080917D0790917E079093BC078093BB077D
:102D600080917F07909180079093BE078093BD0765
:102D70005093C0074093BF0780915F079091600711
:102D80009093C6078093C507809161079091620771
:102D90009093C8078093C7073093CA072093C90749
:102DA00080917307909174079093D0078093CF0719
:102DB00080917507909176079093D2078093D10701
:102DC0000C948F24481759070CF45EC062177307E0
:102DD0000CF45AC0681779070CF456C02817390745
:102DE0000CF452C07093AC076093AB076091690715
:102DF00070916A077093B2076093B10760916B0797
:102E000070916C077093B4076093B3073093B60763
:102E10002093B50720917307309174073093BC0756
:102E20002093BB0720917507309176073093BE073A
:102E30002093BD075093C0074093BF0720915F07C1
:102E4000309160073093C6072093C5072091610732
:102E5000309162073093C8072093C7079093CA0741
:102E60008093C90780917D0790917E079093D0074A
:102E70008093CF0780917F07909180079093D2072E
:102E80008093D1070C948F24481759070CF05EC02B
:102E9000621773070CF05AC0681779070CF056C018
:102EA000281739070CF052C09093AC078093AB07FA
:102EB00080917D0790917E079093B2078093B10730
:102EC00080917F07909180079093B4078093B30718
:102ED0003093B6072093B5078091730790917407DC
:102EE0009093BC078093BB078091750790917607FC
:102EF0009093BE078093BD077093C0076093BF0790
:102F00008091690790916A079093C6078093C507DF
:102F100080916B0790916C079093C8078093C707C7
:102F20005093CA074093C90780915F07909160074B
:102F30009093D0078093CF078091610790916207AB
:102F40009093D2078093D1070C948F244817590788
:102F50000CF05EC0621773070CF05AC0681779074F
:102F60000CF056C0281739070CF452C03093AC0748
:102F70002093AB0720917307309174073093B20709
:102F80002093B10720917507309176073093B407ED
:102F90002093B3079093B6078093B50780917D0780
:102FA00090917E079093BC078093BB0780917F0729
:102FB000909180079093BE078093BD077093C007E0
:102FC0006093BF078091690790916A079093C60745
:102FD0008093C50780916B0790916C079093C80709
:102FE0008093C7075093CA074093C90780915F0732
:102FF000909160079093D0078093CF0780916107ED
:10300000909162079093D2078093D1070C948F24FC
:10301000481759070CF05EC0621773070CF45AC0CA
:10302000681779070CF056C0281739070CF052C002
:103030009093AC078093AB0780917D0790917E07BA
:103040009093B2078093B10780917F07909180079A
:103050009093B4078093B3077093B6076093B50756
:103060008091690790916A079093BC078093BB0792
:1030700080916B0790916C079093BE078093BD077A
:103080003093C0072093BF07809173079091740716
:103090009093C6078093C507809175079091760736
:1030A0009093C8078093C7075093CA074093C907F6
:1030B00080915F07909160079093D0078093CF072E
:1030C00080916107909162079093D2078093D10716
:1030D0000C948F24481759070CF05EC062177307D1
:1030E0000CF05AC0681779070CF456C02817390736
:1030F0000CF452C03093AC072093AB0720917307B8
:10310000309174073093B2072093B107209175076F
:10311000309176073093B4072093B3077093B607C6
:103120006093B5072091690730916A073093BC0717
:103130002093BB0720916B0730916C073093BE073B
:103140002093BD079093C0078093BF0780917D07B0
:1031500090917E079093C6078093C50780917F0763
:10316000909180079093C8078093C7075093CA0730
:103170004093C90780915F07909160079093D007B3
:103180008093CF0780916107909162079093D20757
:103190008093D1070C948F24481759070CF05EC018
:1031A000621773070CF45AC0681779070CF456C0FD
:1031B000281739070CF452C07093AC076093AB0723
:1031C0006091690770916A077093B2076093B107C5
:1031D00060916B0770916C077093B4076093B307AD
:1031E0003093B6072093B507209173073091740789
:1031F0003093BC072093BB07209175073091760769
:103200003093BE072093BD079093C0078093BF07FC
:1032100080917D0790917E079093C6078093C507A4
:1032200080917F07909180079093C8078093C7078C
:103230005093CA074093C90780915F079091600738
:103240009093D0078093CF07809161079091620798
:103250009093D2078093D1070C948F244817590775
:1032600014F00C948F246217730714F40C948F24B9
:103270006817790714F40C948F242817390714F071
:103280000C948F247093AC076093AB07609169072F
:1032900070916A077093B2076093B10760916B07F2
:1032A00070916C077093B4076093B3079093B6075F
:1032B0008093B50780917D0790917E079093BC071E
:1032C0008093BB0780917F07909180079093BE0702
:1032D0008093BD073093C0072093BF078091730789
:1032E000909174079093C6078093C50780917507E6
:1032F000909176079093C8078093C7075093CA07A9
:103300004093C90780915F07909160079093D00721
:103310008093CF0780916107909162079093D207C5
:103320008093D1070C948F2420916107309162071C
:1033300080916B0790916C072115310509F021C12F
:10334000009711F40C948F24E0917507F0917607A3
:10335000309711F40C948F24A0917F07B0918007CF
:10336000109711F40C948F2423E030E03093DE07A3
:103370002093DD07409163075091640720916D070A
:1033800030916E076091770770917807E090690738
:10339000F0906A070091730710917407C0907D0741
:1033A000D0907E07421753070CF44BC046175707BF
:1033B0000CF443C05093AC074093AB07F092B207B4
:1033C000E092B1079093B4078093B30726173707AD
:1033D000D4F43093B6072093B5071093BC0700933D
:1033E000BB07F093BE07E093BD077093C0076093DF
:1033F000BF07D092C607C092C507B093C807A09375
:10340000C7070C948F247093B6076093B507D092CA
:10341000BC07C092BB07B093BE07A093BD07309313
:10342000C0072093BF071093C6070093C507F0930A
:10343000C807E093C7070C948F24241735070CF4B2
:1034400075C0261737070CF443C03093AC072093A0
:10345000AB071093B2070093B107F093B407E09362
:10346000B30746175707D4F45093B6074093B507F0
:10347000F092BC07E092BB079093BE078093BD0714
:103480007093C0076093BF07D092C607C092C5076C
:10349000B093C807A093C7070C948F247093B60706
:1034A0006093B507D092BC07C092BB07B093BE072C
:1034B000A093BD075093C0074093BF07F092C60783
:1034C000E092C5079093C8078093C7070C948F2498
:1034D0006417750714F40C94AE24421753075CF577
:1034E0007093AC076093AB07D092B207C092B1075C
:1034F000B093B407A093B3073093B6072093B507F2
:103500001093BC070093BB07F093BE07E093BD0781
:103510005093C0074093BF07F092C607E092C507DB
:103520009093C8078093C7070C948F246217730782
:1035300014F40C9456267093AC076093AB07D092AA
:10354000B207C092B107B093B407A093B3075093EA
:10355000B6074093B507F092BC07E092BB07909383
:10356000BE078093BD073093C0072093BF07109319
:10357000C6070093C507F093C807E093C7070C94EC
:103580008F244091750750917607009709F418C170
:103590004115510509F02BC2A0917F07B09180071A
:1035A000109709F424C243E050E05093DE074093A3
:1035B000DD076091590770915A0740916307509158
:1035C0006407E0917707F0917807E0905F07F0904B
:1035D00060070091690710916A07C0907D07D0903D
:1035E0007E07641775070CF44BC06E177F070CF449
:1035F00043C07093AC076093AB07F092B207E092C0
:10360000B1073093B4072093B3074E175F07D4F484
:103610005093B6074093B5071093BC070093BB07C0
:103620009093BE078093BD07F093C007E093BF0758
:10363000D092C607C092C507B093C807A093C7072A
:103640000C948F24F093B607E093B507D092BC0793
:10365000C092BB07B093BE07A093BD075093C007AD
:103660004093BF071093C6070093C5079093C80700
:103670008093C7070C948F24461757070CF475C026
:103680004E175F070CF443C05093AC074093AB0751
:103690001093B2070093B1079093B4078093B307D8
:1036A0006E177F07D4F47093B6076093B507F09256
:1036B000BC07E092BB073093BE072093BD07F09391
:1036C000C007E093BF07D092C607C092C507B0936A
:1036D000C807A093C7070C948F24F093B607E09314
:1036E000B507D092BC07C092BB07B093BE07A093AA
:1036F000BD077093C0076093BF07F092C607E092C2
:10370000C5073093C8072093C7070C948F24E6178A
:10371000F70714F40C941825641775075CF5F093FB
:10372000AC07E093AB07D092B207C092B107B09359
:10373000B407A093B3075093B6074093B50710930F
:10374000BC070093BB079093BE078093BD0770939F
:10375000C0076093BF07F092C607E092C507309399
:10376000C8072093C7070C948F24E417F50714F4B7
:103770000C94A726F093AC07E093AB07D092B20766
:10378000C092B107B093B407A093B3077093B60784
:103790006093B507F092BC07E092BB073093BE0779
:1037A0002093BD075093C0074093BF071093C607EF
:1037B0000093C5079093C8078093C7070C948F2484
:1037C0004115510511F40C948F24A0917F07B091FD
:1037D0008007109711F40C948F2483E090E090936D
:1037E000DE078093DD076091590770915A07809139
:1037F0006D0790916E07E0917707F0917807E09060
:103800005F07F09060070091730710917407C090F4
:103810007D07D0907E07681779070CF44BC06E17B0
:103820007F070CF443C07093AC076093AB07F09232
:10383000B207E092B1073093B4072093B3078E1715
:103840009F07D4F49093B6078093B5071093BC07F5
:103850000093BB075093BE074093BD07F093C0078A
:10386000E093BF07D092C607C092C507B093C807C0
:10387000A093C7070C948F24F093B607E093B50785
:10388000D092BC07C092BB07B093BE07A093BD0700
:103890009093C0078093BF071093C6070093C50796
:1038A0005093C8074093C7070C948F248617970737
:1038B0000CF473C08E179F070CF442C09093AC07B2
:1038C0008093AB071093B2070093B1075093B407EE
:1038D0004093B3076E177F07D4F47093B6076093D5
:1038E000B507F092BC07E092BB073093BE07209368
:1038F000BD07F093C007E093BF07D092C607C09200
:10390000C507B093C807A093C7070C948F24F09302
:10391000B607E093B507D092BC07C092BB07B0933F
:10392000BE07A093BD077093C0076093BF07F092D6
:10393000C607E092C5073093C8072093C707EFC7B3
:10394000E617F70714F40C9482256817790754F5E5
:10395000F093AC07E093AB07D092B207C092B107E7
:10396000B093B407A093B3079093B6078093B507BD
:103970001093BC070093BB075093BE074093BD074D
:103980007093C0076093BF07F092C607E092C50727
:103990003093C8072093C707C2C7E817F90714F484
:1039A0000C94F826F093AC07E093AB07D092B207E3
:1039B000C092B107B093B407A093B3077093B60752
:1039C0006093B507F092BC07E092BB073093BE0747
:1039D0002093BD079093C0078093BF071093C6073D
:1039E0000093C5075093C8074093C70798C7411570
:1039F000510509F494C760917F0770918007672B88
:103A000009F08DC763E070E07093DE076093DD0717
:103A1000E0915907F0915A0760916307709164072C
:103A2000A0916D07B0916E07E0905F07F09060077E
:103A30000091690710916A07C0907307D0907407CE
:103A4000E617F7070CF449C0EA17FB070CF441C06E
:103A5000F093AC07E093AB07F092B207E092B107A6
:103A60003093B4072093B3076A177B07CCF47093A5
:103A7000B6076093B5071093BC070093BB079093FC
:103A8000BE078093BD07B093C007A093BF07D09235
:103A9000C607C092C5075093C8074093C7073FC7E2
:103AA000B093B607A093B507D092BC07C092BB07EE
:103AB0005093BE074093BD077093C0076093BF0744
:103AC0001093C6070093C5079093C8078093C70754
:103AD00026C76E177F070CF472C06A177B070CF4B9
:103AE00041C07093AC076093AB071093B20700938B
:103AF000B1079093B4078093B307EA17FB07CCF4A0
:103B0000F093B607E093B507F092BC07E092BB07CD
:103B10003093BE072093BD07B093C007A093BF07A3
:103B2000D092C607C092C5075093C8074093C707F5
:103B3000F6C6B093B607A093B507D092BC07C09263
:103B4000BB075093BE074093BD07F093C007E093B7
:103B5000BF07F092C607E092C5073093C8072093CD
:103B6000C707DDC6AE17BF0714F40C94EC25E617A3
:103B7000F70754F5B093AC07A093AB07D092B20708
:103B8000C092B1075093B4074093B3077093B60740
:103B90006093B5071093BC070093BB079093BE07D3
:103BA0008093BD07F093C007E093BF07F092C6076C
:103BB000E092C5073093C8072093C707B0C6A61781
:103BC000B70714F40C944927B093AC07A093AB0744
:103BD000D092B207C092B1075093B4074093B30795
:103BE000F093B607E093B507F092BC07E092BB07ED
:103BF0003093BE072093BD077093C0076093BF0743
:103C00001093C6070093C5079093C8078093C70712
:103C100086C6209161073091620740916B075091F1
:103C20006C0780917507909176072115310509F091
:103C30004BC0452B29F5892B09F471C680917F076C
:103C400090918007009709F46AC69092E807B092B5
:103C5000DE07A092DD072091770730917807309337
:103C6000AC072093AB0720917D0730917E073093FE
:103C7000B2072093B1079093B4078093B3074FC660
:103C8000009709F049C020917F07309180072115E6
:103C9000310509F441C0B092DE07A092DD078091A2
:103CA0007707909178079093AC078093AB0780914A
:103CB0007D0790917E079093B2078093B107309370
:103CC000B4072093B3072BC6452B09F09BC0009780
:103CD00009F045C040917F0750918007411551057B
:103CE000F1F1B092DE07A092DD079092E707809194
:103CF0007707909178079093B6078093B5078091E6
:103D00007D0790917E079093BC078093BB075093EB
:103D1000BE074093BD0703C6009709F400C6209173
:103D20007F0730918007232B09F0F9C5B092DE0799
:103D3000A092DD0720916D0730916E073093AC079C
:103D40002093AB0720917307309174073093B2072B
:103D50002093B1079093B4078093B307E0C5009711
:103D600009F4DDC540917F0750918007452B09F08C
:103D7000D6C57092DE076092DD07409159075091D9
:103D80005A0760916D0770916E07E0915F07F0919F
:103D90006007A0917307B091740764177507CCF0A2
:103DA0005093AC074093AB07F093B207E093B10791
:103DB0003093B4072093B3077093B6076093B507A9
:103DC000B093BC07A093BB079093BE078093BD0739
:103DD000A6C57093AC076093AB07B093B207A093EE
:103DE000B1079093B4078093B3075093B6074093FD
:103DF000B507F093BC07E093BB073093BE07209351
:103E0000BD078DC5892B09F08AC580917F079091E8
:103E10008007892B09F083C5B092DE07A092DD07E9
:103E20008091590790915A079093AC078093AB0704
:103E300080915F07909160079093B2078093B107DC
:103E40003093B4072093B3076AC5B092DE07A092FF
:103E5000DD07809161079091620720916B07309197
:103E60006C07009709F063C0809175079091760701
:103E700021153105E9F50097E1F420917F07309194
:103E8000800721153105A9F0809177079091780777
:103E90009093AC078093AB0780917D0790917E074C
:103EA0009093B2078093B1073093B4072093B30780
:103EB00036C5009709F433C520917F0730918007FC
:103EC000232B09F02CC520916D0730916E0730939C
:103ED000AC072093AB0720917307309174073093A0
:103EE000B2072093B1079093B4078093B30717C527
:103EF000892B09F014C580917F0790918007892B49
:103F000009F00DC580916307909164079093AC0709
:103F10008093AB078091690790916A079093B207ED
:103F20008093B1073093B4072093B307F8C4232BD1
:103F300009F0F5C42091750730917607232B09F01D
:103F4000EEC420917F0730918007232B09F0E7C44E
:103F50002091590730915A073093AC072093AB0753
:103F600020915F07309160073093B2072093B1072B
:103F70009093B4078093B307D2C407E018E00E947F
:103F8000AA056093E9077093EA078093EB07909383
:103F9000EC070E94750B809154070E94A00B97FDBF
:103FA00001969595879590930608809305088091D2
:103FB00055070E94A00B97FD0196959587959093C4
:103FC00000088093FF07809156070E94A00B97FD81
:103FD00001969595879590930208809301088091AA
:103FE00057070E94A00B97FD019695958795909392
:103FF0000408809303082091FF0730910008D8013E
:104000002D933D938D012091010830910208159662
:104010003C932E9314971B969C938E931A978091A2
:1040200005089091060851969C938E935097EDE069
:10403000F8E0EA17FB0709F0A2CF63E070E087E041
:1040400098E00E944E089093F8078093F70763E08A
:1040500070E08DE098E00E944E089093FA078093FC
:10406000F90763E070E083E198E00E944E089093C6
:10407000FC078093FB0763E070E089E198E00E9411
:104080004E088C019093FE078093FD078091F707FF
:104090009091F8070E94130B90935A078093590749
:1040A0008091F9079091FA070E94130B909364078F
:1040B000809363078091FB079091FC070E94130B8C
:1040C00090936E0780936D07C8010E94130B909325
:1040D0007807809377070E94CB08809159079091C9
:1040E0005A079A83898380916307909164079C8320
:1040F0008B8380916D0790916E079E838D83809155
:1041000077079091780798878F8364E070E0CE01FD
:1041100001960E944E088093F5079093F6079C0144
:10412000E4E5F7E010E094E5E92E97E0F92E80E071
:1041300090E0D9014D915C91D70115966D917C91DC
:10414000169746175707D9F556A745A7111118C056
:1041500017964D915D916D917C911A9747A750AB41
:1041600061AB72AB1B964D915C911C9754AB43AB0A
:104170001D964D915C911E9756AB45AB11E01FC04B
:10418000889ED001899EB00D1124AC5AB84F179665
:104190004D915D916D917C911A9747A750AB61ABA2
:1041A00072AB1B968D919C911C9794AB83AB1D9623
:1041B0008D919C911E9796AB85AB10E008C001963F
:1041C000BAE0EB0EF11C8430910509F0B2CF3A96BB
:1041D0002E5F3F4F8CE797E08E179F0709F0A3CF24
:1041E0008091890790918A072091930730919407D5
:1041F00040919D0750919E078217930741F48417C1
:10420000950729F07092E0076092DF071FC08417BE
:10421000950731F48217930781F023E030E008C05E
:104220008217930799F02417350761F424E030E0F2
:104230003093E0072093DF0709C05092E0074092D7
:10424000DF0704C0B092E007A092DF072091E107EA
:104250003091E2072430310529F41092AA07109218
:10426000A90755C0121613062CF0232B41F404970E
:10427000039728F0B092AA07A092A90748C080919E
:104280008707909188078430910529F47092AA07D6
:104290006092A9073CC08230910519F483E090E058
:1042A0002DC08130910599F48091910790919207EA
:1042B000029711F580918B0790918C0720918107CF
:1042C00030918207821B930B0597B4F4E7CF0397D5
:1042D000F1F480919107909192070297A1F4809157
:1042E0008B0790918C072091810730918207821B68
:1042F000930B059744F4D2CF84E090E09093AA0703
:104300008093A90704C03092AA072092A90783ECE2
:1043100093E00E942C068091FF07909100080E9474
:10432000970680EC93E00E9412068091010890911C
:1043300002080E9497068DEB93E00E94120680917E
:104340000308909104080E9497068AEB93E00E946C
:10435000120680910508909106080E9470078CEA69
:1043600093E00E942C0686EA93E00E942C0680913E
:104370000708909108080E94970683EA93E00E943C
:1043800012068091090890910A080E94970680EA17
:1043900093E00E94120680910B0890910C080E94F5
:1043A000700789E993E00E942C0680910D08909196
:1043B0000E080E94970686E993E00E9412068091FB
:1043C0000F08909110080E94970683E993E00E94DD
:1043D000120680911108909112080E9470078CE8D3
:1043E00093E00E942C0680911308909114080E947B
:1043F000970689E893E00E94120680911508909133
:1044000016080E94970686E893E00E941206E09143
:10441000FB07F091FC07848195810E9470078FE76C
:1044200093E00E942C068091190890911A080E942E
:1044300097068CE793E00E94120680911B089091EA
:104440001C080E94970689E793E00E94120680915B
:104450001D0890911E080E94970687E793E00E942E
:104460002C068EE693E00E942C0684E693E00E94E0
:104470002C06E091F707F091F807808191810E9466
:10448000970681E693E00E941206E091F707F0910B
:10449000F807828193810E9497068EE593E00E943F
:1044A0001206E091F707F091F807848195810E9448
:1044B000700783E593E00E942C06E091F907F091E4
:1044C000FA07808191810E94970680E593E00E941F
:1044D0001206E091F907F091FA07828193810E9418
:1044E00097068DE493E00E941206E091F907F0919F
:1044F000FA07848195810E94700782E493E00E940C
:104500002C06E091FB07F091FC07808191810E94CD
:1045100097068FE393E00E941206E091FB07F0916B
:10452000FC07828193810E9497068CE393E00E94AE
:104530001206E091FB07F091FC07848195810E94AF
:10454000700782E393E00E942C06E091FD07F09152
:10455000FE07808191810E9497068FE293E00E947E
:104560001206E091FD07F091FE07828193810E947F
:1045700097068CE293E00E941206E091FD07F0910D
:10458000FE07848195810E9497068AE293E00E944B
:104590002C0686E192E00E947C078091E1079091D1
:1045A000E2070E94700788E292E00E947C07E09197
:1045B000A907F091AA07EA30F10528F58827EE58F7
:1045C000FF4F8F4F0C94243084E392E01AC080E4B4
:1045D00092E017C087E492E014C080E592E011C039
:1045E0008AE592E00EC083E692E00BC083E792E09A
:1045F00008C083E892E005C08DE892E002C08EE931
:1046000092E00E947E078FEA92E00E947E078091EE
:10461000590790915A070E94970685EC92E00E94F4
:104620007C0760915B0770915C0780915D079091BA
:104630005E070E948A0785EC92E00E947C07E09169
:104640006107F0916207EF30F105A0F58827E45883
:10465000FF4F8F4F0C94243088EC92E029C080EDFE
:1046600092E026C085ED92E023C08BED92E020C061
:1046700080EE92E01DC08CEE92E01AC087EE92E0D0
:1046800017C081E093E014C082EF92E011C08BEF7D
:1046900092E00EC084E193E00BC085E093E008C097
:1046A0008EE093E005C088E193E002C08CE193E0E6
:1046B0000E947E0780E293E00E947C07809163075E
:1046C000909164070E94970685EC92E00E947C0717
:1046D0006091650770916607809167079091680700
:1046E0000E948A0785EC92E00E947C07E0916B07AC
:1046F000F0916C07EF30F105A0F58827E557FF4FE3
:104700008F4F0C94243088EC92E029C080ED92E029
:1047100026C085ED92E023C08BED92E020C080EEB4
:1047200092E01DC08CEE92E01AC087EE92E017C0B6
:1047300081E093E014C082EF92E011C08BEF92E031
:104740000EC084E193E00BC085E093E008C08EE0EA
:1047500093E005C088E193E002C08CE193E00E9401
:104760007E0780E293E00E947C0780916D07909124
:104770006E070E94970685EC92E00E947C0760918C
:104780006F077091700780917107909172070E9476
:104790008A0785EC92E00E947C07E0917507F09112
:1047A0007607EF30F105A0F58827E656FF4F8F4FCB
:1047B0000C94243088EC92E029C080ED92E026C071
:1047C00085ED92E023C08BED92E020C080EE92E078
:1047D0001DC08CEE92E01AC087EE92E017C081E017
:1047E00093E014C082EF92E011C08BEF92E00EC014
:1047F00084E193E00BC085E093E008C08EE093E095
:1048000005C088E193E002C08CE193E00E947E073E
:1048100080E293E00E947C0780917707909178076F
:104820000E94970685EC92E00E947C0760917907D0
:1048300070917A0780917B0790917C070E948A078C
:1048400085EC92E00E947C07E0917F07F091800761
:10485000EF30F105A0F58827E755FF4F8F4F0C94F7
:10486000243088EC92E029C080ED92E026C085EDEE
:1048700092E023C08BED92E020C080EE92E01DC05C
:104880008CEE92E01AC087EE92E017C081E093E0D0
:1048900014C082EF92E011C08BEF92E00EC084E171
:1048A00093E00BC085E093E008C08EE093E005C084
:1048B00088E193E002C08CE193E00E947E0780E2F1
:1048C00093E00E947C0785E293E00E947E0780913E
:1048D0008107909182070E94970685EC92E00E94E2
:1048E0007C0780918B0790918C070E94970685EC3E
:1048F00092E00E947C0780919507909196070E9414
:10490000970685EC92E00E947C0780919F0790912A
:10491000A0070E94700788E293E00E942C060E9484
:1049200085058B018AEFC82ED12CE12CF12C0E9439
:104930008505601B710B683E7340C8F3A1E0CA1A7D
:10494000D108E108F10808511C4FC114D104E10459
:10495000F10469F70E9460070C94AE0F42175307E9
:104960000CF441C05093AC074093AB07F092B207F0
:10497000E092B1079093B4078093B30726173707E7
:10498000CCF43093B6072093B5071093BC0700937F
:10499000BB07F093BE07E093BD077093C007609319
:1049A000BF07D092C607C092C507B093C807A093AF
:1049B000C707B5CF7093B6076093B507D092BC0711
:1049C000C092BB07B093BE07A093BD073093C0074A
:1049D0002093BF071093C6070093C507F093C8073D
:1049E000E093C7079CCF3093AC072093AB0710939D
:1049F000B2070093B107F093B407E093B307509365
:104A0000B6074093B507F092BC07E092BB079093BE
:104A1000BE078093BD077093C0076093BF07D09215
:104A2000C607C092C507B093C807A093C70777CF42
:104A3000641775070CF441C07093AC076093AB0723
:104A4000F092B207E092B1073093B4072093B30716
:104A50004E175F07CCF45093B6074093B5071093F9
:104A6000BC070093BB079093BE078093BD07F093EC
:104A7000C007E093BF07D092C607C092C507B093A6
:104A8000C807A093C7074BCFF093B607E093B507CD
:104A9000D092BC07C092BB07B093BE07A093BD07DE
:104AA0005093C0074093BF071093C6070093C507F4
:104AB0009093C8078093C70732CF5093AC074093B9
:104AC000AB071093B2070093B1079093B40780939C
:104AD000B3077093B6076093B507F092BC07E092F6
:104AE000BB073093BE072093BD07F093C007E09348
:104AF000BF07D092C607C092C507B093C807A0935E
:104B0000C7070DCF681779070CF441C07093AC0745
:104B10006093AB07F092B207E092B1073093B4070D
:104B20002093B3078E179F07CCF49093B60780931A
:104B3000B5071093BC070093BB075093BE07409383
:104B4000BD07F093C007E093BF07D092C607C0929D
:104B5000C507B093C807A093C707E1CEF093B60787
:104B6000E093B507D092BC07C092BB07B093BE07D5
:104B7000A093BD079093C0078093BF071093C6070B
:104B80000093C5075093C8074093C707C8CE9093BA
:104B9000AC078093AB071093B2070093B107509313
:104BA000B4074093B3077093B6076093B507F092CC
:104BB000BC07E092BB073093BE072093BD07F0937C
:104BC000C007E093BF07D092C607C092C507B09355
:104BD000C807A093C707A3CEE617F7070CF441C098
:104BE000F093AC07E093AB07F092B207E092B10705
:104BF0003093B4072093B3076A177B07CCF4709304
:104C0000B6076093B5071093BC070093BB0790935A
:104C1000BE078093BD07B093C007A093BF07D09293
:104C2000C607C092C5075093C8074093C70777CE01
:104C3000B093B607A093B507D092BC07C092BB074C
:104C40005093BE074093BD077093C0076093BF07A2
:104C50001093C6070093C5079093C8078093C707B2
:104C60005ECE7093AC076093AB071093B2070093CE
:104C7000B1079093B4078093B307F093B607E0931E
:104C8000B507F092BC07E092BB073093BE072093B4
:104C9000BD07B093C007A093BF07D092C607C092CC
:104CA000C5075093C8074093C70739CE4617570723
:104CB0000CF058CE241735072CF13093AC07209315
:104CC000AB071093B2070093B107F093B407E093DA
:104CD000B3075093B6074093B507F092BC07E09234
:104CE000BB079093BE078093BD077093C007609386
:104CF000BF07D092C607C092C507B093C807A0935C
:104D0000C7070DCE7093AC076093AB07D092B20784
:104D1000C092B107B093B407A093B3075093B607FE
:104D20004093B507F092BC07E092BB079093BE0793
:104D30008093BD073093C0072093BF071093C60729
:104D40000093C507F093C807E093C707E8CD6E1737
:104D50007F070CF071CE461757072CF15093AC0724
:104D60004093AB071093B2070093B1079093B40739
:104D70008093B3077093B6076093B507F092BC07B2
:104D8000E092BB073093BE072093BD07F093C007A6
:104D9000E093BF07D092C607C092C507B093C8077B
:104DA000A093C707BCCDF093AC07E093AB07D092BC
:104DB000B207C092B107B093B407A093B307709342
:104DC000B6076093B507F092BC07E092BB0730933B
:104DD000BE072093BD075093C0074093BF071093B1
:104DE000C6070093C5079093C8078093C70797CD60
:104DF0006E177F070CF08ACE861797072CF19093D9
:104E0000AC078093AB071093B2070093B1075093A0
:104E1000B4074093B3077093B6076093B507F09259
:104E2000BC07E092BB073093BE072093BD07F09309
:104E3000C007E093BF07D092C607C092C507B093E2
:104E4000C807A093C7076BCDF093AC07E093AB07FF
:104E5000D092B207C092B107B093B407A093B30742
:104E60007093B6076093B507F092BC07E092BB075A
:104E70003093BE072093BD079093C0078093BF0770
:104E80001093C6070093C5075093C8074093C70700
:104E900046CDEA17FB070CF0A3CE6E177F072CF167
:104EA0007093AC076093AB071093B2070093B10700
:104EB0009093B4078093B307F093B607E093B507D8
:104EC000F092BC07E092BB073093BE072093BD076A
:104ED000B093C007A093BF07D092C607C092C50782
:104EE0005093C8074093C7071ACDB093AC07A0935F
:104EF000AB07D092B207C092B1075093B40740936A
:104F0000B307F093B607E093B507F092BC07E092C1
:104F1000BB073093BE072093BD077093C007609313
:104F2000BF071093C6070093C5079093C8078093E7
:104F3000C707F5CC823109F466C0B8F4823069F154
:104F4000833009F073C070934A03609349038BE385
:104F500093E090935F0380935E0380916A00837F68
:104F6000846080936A00ED9A5FC0843141F1C8F19A
:104F7000853109F05BC070934C0360934B0385E36C
:104F800093E09093610380936003809169008C7F2C
:104F9000816080936900E89A47C0709348036093EA
:104FA000470381E493E090935D0380935C038091D9
:104FB0006A008C7F816080936A00EC9A35C07093A0
:104FC0004E0360934D038FE293E0909363038093CD
:104FD000620380916900837F846080936900E99A0D
:104FE00023C07093500360934F0389E293E0909342
:104FF000650380936403809169008F7C8061809356
:105000006900EA9A11C0709352036093510383E2DE
:1050100093E09093670380936603809169008F7398
:10502000806480936900EB9A81E0089580E00895A0
:105030000F931F93CF93DF93EC01062F142F62E0A1
:10504000802F0E94C10362E0812F0E94C103802F44
:1050500090E0FC01E054FB4FE491F0E0EE0FFF1F05
:10506000EA51FC4FA591B491B983A883FC01E05AA1
:10507000FB4F24912C83812F90E0FC01E054FB4FE7
:10508000E491F0E0EE0FFF1FEA51FC4F459154917F
:105090005B834A83FC01E05AFB4F94919D831F82FE
:1050A000188619861A86EAE3FFE13197F1F7EC9149
:1050B000E22331E009F430E0DA01EC91E92309F070
:1050C00032603E83BE01802F0E949A278B87BE01EB
:1050D000812F0E949A279B85890F8B87DF91CF9123
:1050E0001F910F91089580914707909148070E9462
:1050F000DA2E809144079091450797FD03C060E048
:105100000C94C1030895CF93DF93EC0160E0888194
:105110000E944703C98161E08C2F0E94C10360E0B7
:105120008C2FDF91CF910C944703CF92DF92EF92B7
:10513000FF920F931F93CF93DF931092F505109278
:10514000F40598EEC92E93E0D92EE12CF12CC092F3
:10515000F605D092F705E092F805F092F9054AE0DD
:1051600052E05093F3054093F2058EEA95E0909358
:10517000FF058093FE058AE695E0909301068093F3
:10518000000685EC90E0909303068093020684EC81
:1051900090E0909305068093040680EC90E0909355
:1051A00007068093060681EC90E0909309068093B1
:1051B000080682EC90E090930B0680930A0686EC3A
:1051C00090E090930D0680930C0684E080930E0689
:1051D00023E020930F06D7E0D093100695E090933C
:1051E0001106C1E0C093120610924B0510924A05B9
:1051F000C0924C05D0924D05E0924E05F0924F05BD
:10520000509349054093480564E075E07093550557
:105210006093540560EC74E07093570560935605F5
:105220006DEC70E070935905609358056CEC70E07C
:1052300070935B0560935A0568EC70E070935D05B0
:1052400060935C0569EC70E070935F0560935E05A8
:105250006AEC70E070936105609360056EEC70E03D
:1052600070936305609362058093640520936505E0
:10527000D093660590936705C09368051092A104CA
:105280001092A004C092A204D092A304E092A404BD
:10529000F092A50450939F0440939E046AE574E045
:1052A0007093AB046093AA0466E174E07093AD045C
:1052B0006093AC0465ED70E07093AF046093AE044E
:1052C00064ED70E07093B1046093B00460ED70E041
:1052D0007093B3046093B20461ED70E07093B50411
:1052E0006093B40462ED70E07093B7046093B60409
:1052F00066ED70E07093B9046093B8048093BA04CB
:105300002093BB04D093BC049093BD04C093BE040F
:105310001092F7031092F603C092F803D092F903AB
:10532000E092FA03F092FB035093F5034093F403E9
:1053300040EB53E050930104409300044CE653E0EB
:10534000509303044093020445E351E05093050455
:105350004093040444E351E050930704409306044F
:1053600040E351E0509309044093080441E351E0C5
:1053700050930B0440930A0442E351E050930D0410
:1053800040930C0446E351E050930F0440930E0405
:105390008093100420931104D0931204909313046B
:1053A000C093140419E01093A60C26E02093A70CD8
:1053B0000BE00093A40C9093A50C9AE09093A20CA0
:1053C0008093A30C45E164E186E99CE00E941828E3
:1053D00043E162E18AE89CE00E94182842E063E031
:1053E0008EE79CE00E94182886EA9CE09093730C5C
:1053F0008093720C84EA9CE09093750C8093740CFB
:1054000082EA9CE09093770C8093760C86E99CE08E
:105410009093790C8093780C8AE89CE090937B0CB5
:1054200080937A0C8EE79CE090937D0C80937C0CAB
:1054300086EA9CE00E94EC2C8091720C9091730C97
:105440000E9483288091740C9091750C0E94EC2C22
:105450008091740C9091750C0E9483288091760C39
:105460009091770C0E94EC2C8091760C9091770CA7
:105470000E94832810923A0C10923B0C10923C0C24
:1054800010923D0C10923E0C10923F0C1092400C6A
:105490001092410C1092420C1092430C1092440C4A
:1054A0001092450C1092520C1092530C1092540C06
:1054B0001092550C1092560C1092570C1092580CDA
:1054C0001092590C10925A0C10925B0C10925C0CBA
:1054D00010925D0C1092FE0B1092FF0B1092000CBC
:1054E0001092010C1092020C1092030C1092040CFA
:1054F0001092050C1092060C1092070C1092080CDA
:105500001092090C10920A0C10920B0C10920C0CB9
:1055100010920D0C10920E0C10920F0C1092100C99
:105520001092110C1092120C1092130C1092140C79
:105530001092150C1092F90B1092F80B1092FB0BB5
:105540001092FA0B1092FD0B1092FC0B1092160C9D
:105550001092170C1092180C1092190C10921A0C31
:1055600010921B0C10921C0C10921D0C10921E0C11
:1055700010921F0C1092200C1092210C1092220CF1
:105580001092230C1092240C1092250C1092260CD1
:105590001092270C1092280C1092290C10922A0CB1
:1055A00010922B0C10922C0C10922D0C1092620C5D
:1055B0001092630C1092640C1092650C1092660CA1
:1055C0001092670C1092680C1092690C10926A0C81
:1055D00010926B0C10926C0C10926D0C10925E0C71
:1055E00010925F0C1092600C1092610C10926E0C75
:1055F00010926F0C1092700C1092710C83E393E375
:10560000A3E3BFE380932E0C90932F0CA093300C58
:10561000B093310C8DEC9CECACE4BFE38093320C86
:105620009093330CA093340CB093350C1092360C3D
:105630001092370C1092380C1092390C1092E0072F
:105640001092DF071092E2071092E10781E090E0EC
:105650009093E4078093E3078CE08093540788E0FD
:10566000809355070093560710935707D093580718
:1056700061E087E00E94C103C093E5071092E6074E
:1056800010923F071092460710924D0710924E0756
:1056900010924F0710925007C0934C07C0934907D0
:1056A00010924A0782E080934B07C0933C0784EB3B
:1056B00090E090934307809342070E94422E90937C
:1056C000480780934707009761F024EBFC01119293
:1056D0002A95E9F78CE390E0909341078093400787
:1056E00008C010924307109242071092410710928F
:1056F000400785E390E090934507809344078091AD
:105700003F07882341F061E085E30E94C10360E028
:1057100085E30E944703E5EFF4E0E491F0E0EE0F4B
:10572000FF1FEA55FB4F8591949190935207809308
:105730005107E5E9F4E0E491E093530788EF9BE03B
:10574000909391068093900684E597E0909393065A
:10575000809392068CE397E090939506809394064D
:1057600010921D0710921C0710921D0610921E0623
:1057700010921F0610922006109221061092220607
:1057800010922306109224061092250610922606E7
:10579000109227061092280680E090E0A0EFB1E476
:1057A0008093150690931606A0931706B0931806DB
:1057B00080E090E0A0E7BFE38093190690931A067B
:1057C000A0931B06B0931C06109235061092360665
:1057D000109237061092380610923D0610923E063F
:1057E00010923F0610924006109241061092420617
:1057F00010924306109244061092450610924606F7
:1058000010924706109248061092490610924A06D6
:1058100010924B0610924C0681E08093590610922C
:105820004F06109251061092530610925406109291
:10583000550610924E06109250068093580610920C
:105840005C0680935D0610925B06109256061092DD
:105850005706109228071092290710922A071092D3
:105860002B0710922C0710922D0710922E071092E2
:105870002F071092300710923107109232071092C2
:10588000330782E393E09093350780933407909336
:1058900037078093360710928C0610928D0610926F
:1058A0008E0610928F06109278061092790610924A
:1058B0007A0610927B0610925F0610925E06109296
:1058C00039071092380710923B0710923A0710924E
:1058D0004D0686E38093710B87E38093720B88E318
:1058E0008093730B89E38093740B8AE38093750B29
:1058F0008BE38093700B1092590B10925B0B1092FC
:105900005A0B10925D0B10925C0B10925E0B109272
:105910005F0B1092600B1092610B1092670B10924C
:10592000660B10926C0B10926D0B10926E0B109216
:105930006F0B1092620B1092630B1092640B10921B
:10594000650B8CE380931F088EE3809320081092F0
:10595000210881E090E09093230880932208109220
:10596000EC081092B40910927C0A1092460B109227
:10597000470B1092480B1092490B10924A0B109251
:105980004B0B10924C0B10924D0B10924E0B109231
:105990004F0B1092500B1092510B1092450B10921E
:1059A000440B82E390E0A0E0B0E08093520B909330
:1059B000530BA093540BB093550B1092560B1092AF
:1059C000570B1092580BDF91CF911F910F91FF90C1
:1059D000EF90DF90CF900895CF93DF93EC0161E0DB
:1059E00088810E94C10361E08981DF91CF910C948D
:1059F000C103F8940C942C300E943E2D08F481E0F1
:105A00000895E89409C097FB3EF4909580957095B1
:105A100061957F4F8F4F9F4F9923A9F0F92F96E9FA
:105A2000BB279395F695879577956795B795F1116F
:105A3000F8CFFAF4BB0F11F460FF1BC06F5F7F4F0C
:105A40008F4F9F4F16C0882311F096E911C077231E
:105A500021F09EE8872F762F05C0662371F096E827
:105A6000862F70E060E02AF09A95660F771F881FF6
:105A7000DAF7880F9695879597F90895990F00089A
:105A8000550FAA0BE0E8FEEF16161706E807F90710
:105A9000C0F012161306E407F50798F0621B730BAB
:105AA000840B950B39F40A2661F0232B242B252B2C
:105AB00021F408950A2609F4A140A6958FEF811DCF
:105AC000811D08950E94752D0C94E62D0E94D82DFD
:105AD00038F00E94DF2D20F0952311F00C94CF2D8B
:105AE0000C94D52D11240C941A2E0E94F72D70F3CE
:105AF000959FC1F3950F50E0551F629FF001729F73
:105B0000BB27F00DB11D639FAA27F00DB11DAA1F81
:105B1000649F6627B00DA11D661F829F2227B00DCE
:105B2000A11D621F739FB00DA11D621F839FA00D59
:105B3000611D221F749F3327A00D611D231F849FA9
:105B4000600D211D822F762F6A2F11249F57504000
:105B50009AF0F1F088234AF0EE0FFF1FBB1F661F7B
:105B6000771F881F91505040A9F79E3F510580F044
:105B70000C94CF2D0C941A2E5F3FE4F3983ED4F38F
:105B8000869577956795B795F795E7959F5FC1F7E8
:105B9000FE2B880F911D9695879597F9089597F993
:105BA0009F6780E870E060E008959FEF80EC0895C3
:105BB00000240A94161617061806090608950024EC
:105BC0000A9412161306140605060895092E039466
:105BD000000C11F4882352F0BB0F40F4BF2B11F4DA
:105BE00060FF04C06F5F7F4F8F4F9F4F089557FD39
:105BF0009058440F551F59F05F3F71F04795880F3B
:105C000097FB991F61F09F3F79F0879508951216D1
:105C100013061406551FF2CF4695F1DF08C016167D
:105C200017061806991FF1CF86957105610508942E
:105C30000895E894BB2766277727CB0197F9089545
:105C4000A1E21A2EAA1BBB1BFD010DC0AA1FBB1F80
:105C5000EE1FFF1FA217B307E407F50720F0A21BF2
:105C6000B30BE40BF50B661F771F881F991F1A945F
:105C700069F760957095809590959B01AC01BD0189
:105C8000CF0108950F931F93CF93DF938230910537
:105C900010F482E090E0E091AA0CF091AB0C20E0CF
:105CA00030E0A0E0B0E0309719F1408151810281ED
:105CB000138148175907C8F08417950769F410979E
:105CC00031F012960C93129713961C9327C00093F1
:105CD000AA0C1093AB0C22C02115310519F0421704
:105CE000530718F49A01BD01EF01DF01F801DBCF82
:105CF00021153105F9F0281B390B2430310580F4CA
:105D00008A819B816115710521F0FB019383828358
:105D100004C09093AB0C8093AA0CFE01329644C051
:105D2000FE01E20FF31F81939193225031093983D1
:105D300028833AC02091A80C3091A90C232B41F460
:105D400020910202309103023093A90C2093A80CF9
:105D500020910002309101022115310541F42DB747
:105D60003EB74091040250910502241B350BE0918F
:105D7000A80CF091A90CE217F307A0F42E1B3F0B1F
:105D80002817390778F0AC014E5F5F4F24173507AD
:105D900048F04E0F5F1F5093A90C4093A80C8193BD
:105DA000919302C0E0E0F0E0CF01DF91CF911F912D
:105DB0000F910895CF93DF93009709F481C0FC0100
:105DC000329713821282A091AA0CB091AB0C10975B
:105DD00081F420813181820F931F2091A80C309192
:105DE000A90C2817390751F5F093A90CE093A80CDA
:105DF00067C0ED0120E030E0CE17DF0740F44A81B4
:105E00005B819E0141155105F1F0EA01F5CFD38385
:105E1000C28340815181840F951FC817D90759F457
:105E200088819981840F951F0296918380838A814E
:105E30009B81938382832115310529F4F093AB0C68
:105E4000E093AA0C3DC0E901FB83EA834991599193
:105E5000C40FD51FEC17FD0761F480819181840F79
:105E6000951F0296E90199838883828193819B83A0
:105E70008A83E0E0F0E012968D919C911397009751
:105E800019F0FD01DC01F7CF8D919C9111979D01D7
:105E90002E5F3F4F820F931F2091A80C3091A90CC9
:105EA0002817390769F4309729F41092AB0C109237
:105EB000AA0C02C013821282B093A90CA093A80C62
:105EC000DF91CF9108955058BB27AA270E947B2FBE
:105ED0000C94E62D0E94D82D38F00E94DF2D20F082
:105EE00039F49F3F19F426F40C94D52D0EF4E09567
:105EF000E7FB0C94CF2DE92F0E94F72D58F3BA172A
:105F0000620773078407950720F079F4A6F50C94CF
:105F1000192E0EF4E0950B2EBA2FA02D0B01B9010E
:105F200090010C01CA01A0011124FF27591B99F00F
:105F3000593F50F4503E68F11A16F040A22F232F1B
:105F4000342F4427585FF3CF469537952795A7956B
:105F5000F0405395C9F77EF41F16BA0B620B730B12
:105F6000840BBAF09150A1F0FF0FBB1F661F771F83
:105F7000881FC2F70EC0BA0F621F731F841F48F438
:105F8000879577956795B795F7959E3F08F0B0CFC1
:105F90009395880F08F09927EE0F979587950895A8
:105FA0000E94D72F6894B1110C941A2E08950E9464
:105FB000FF2D88F09F5798F0B92F9927B751B0F06F
:105FC000E1F0660F771F881F991F1AF0BA95C9F77D
:105FD00014C0B13091F00E94192EB1E008950C94D4
:105FE000192E672F782F8827B85F39F0B93FCCF387
:105FF000869577956795B395D9F73EF490958095FA
:10600000709561957F4F8F4F9F4F08950E943E2D51
:1060100008F48FEF08950E943E2D880B990B089588
:10602000AA1BBB1B51E107C0AA1FBB1FA617B707BE
:1060300010F0A61BB70B881F991F5A95A9F78095DA
:106040009095BC01CD010895EE0FFF1F881F8BBFF7
:106050000790F691E02D199412E0C4E8D2E000E038
:1060600006C0802FFE010E9424302196011DC538F4
:0C607000D10780E00807A9F7F894FFCFE3
:10607C000000AC0C200000000000C706B90250075D
:10608C001407340709076E756D65726F20636F6EA8
:10609C0074617474692120005041545445524E204F
:1060AC003D3D2000626C6F636B65645F70617400D2
:1060BC006E6F5F706174007061745F6261636B001E
:1060CC007061745F66726F6E74007061745F6C6582
:1060DC006674007061745F66726F6E746C65667462
:1060EC005F31007061745F66726F6E746C6566749C
:1060FC005F32007061745F726967687400706174FC
:10610C005F66726F6E7472696768745F310070617C
:10611C00745F66726F6E7472696768745F32002B9D
:10612C002B2B2B46494E414C452043555252205364
:10613C0043414E53002C2000636F6E7461637400F6
:10614C00766572795F636C6F7365006E6561720062
:10615C006D656469756D00766572795F67726561EE
:10616C007400766572795F62696700737570657229
:10617C005F62696700766572795F6661720073753C
:10618C007065725F666172006D6178006572720095
:10619C003B3B3B20004F52444552454420534F5209
:1061AC0054004E6F6E65006E616E00696E66006F16
:0661BC007666002E0000D3
:00000001FF
