:100000000C9435000C945D000C945D000C945D0024
:100010000C945D000C945D000C945D000C945D00EC
:100020000C945D000C945D000C945D000C945D00DC
:100030000C945D000C945D000C945D000C945D00CC
:100040000C9425010C945D000C94AA010C946F0192
:100050000C945D000C945D000C945D000C945D00AC
:100060000C945D000C945D00870211241FBECFEF3D
:10007000D8E0DEBFCDBF11E0A0E0B1E0EAE9F5E0F5
:1000800002C005900D92AA32B107D9F721E0AAE289
:10009000B1E001C01D92AD3DB207E1F710E0C5E34C
:1000A000D0E004C02197FE010E94C502C433D107ED
:1000B000C9F70E94E1010C94C2020C940000CF9297
:1000C000DF92EF92FF920F931F93CF93DF936C0118
:1000D000EB017B01E40EF51E00E010E0CE15DF051C
:1000E00061F06991D601ED91FC910190F081E02DD4
:1000F000C6010995080F191FF1CFC801DF91CF91F3
:100100001F910F91FF90EF90DF90CF900895089589
:100110000F931F93CF93DF93FC01A685B7858D01C5
:10012000005C1F4FE8018881998101968F739927A0
:10013000AD014E5B5F4FEA01288139818217930739
:10014000D1F3E80128813981A20FB31F6C93A685F2
:10015000B785A05CBF4F11969C938E93A689B789F3
:100160002C9181E090E0078C02C0880F991F0A94BF
:10017000E2F7822B8C9381E081A30488F589E02D3E
:1001800080818064808381E090E0DF91CF911F9136
:100190000F910895FC0181A1882329F0A489B589D4
:1001A0008C9186FFFBCF11A20895FC01A485B58533
:1001B000FD01E05CFF4F2081318132968081918189
:1001C0002817390779F080819181A80FB91F8C9188
:1001D000208131812F5F3F4F2F733327318320835D
:1001E00090E008958FEF9FEF0895DC011C96ED914C
:1001F000FC911D97DF01A05CBF4F2D913C911197A1
:1002000012968D919C9111972817390739F08D918D
:100210009C91E80FF91F808190E008958FEF9FEF88
:100220000895FC0124853585F901E05CFF4F80814C
:100230009181329620813181821B930B8F73992794
:10024000089582EB91E00C9411011F920F920FB66A
:100250000F9211242F933F938F939F93AF93BF934C
:100260008091D9019091DA01A091DB01B091DC017C
:100270003091D80123E0230F2D3720F40196A11DE2
:10028000B11D05C026E8230F0296A11DB11D2093C4
:10029000D8018093D9019093DA01A093DB01B09348
:1002A000DC018091D4019091D501A091D601B0914B
:1002B000D7010196A11DB11D8093D4019093D50162
:1002C000A093D601B093D701BF91AF919F918F9129
:1002D0003F912F910F900FBE0F901F9018951F9276
:1002E0000F920FB60F9211242F933F938F939F93EA
:1002F000EF93FF9320916A0130916B0180916C0123
:1003000090916D012817390731F48091C1008F7DDC
:100310008093C10014C0E0916C01F0916D01E65D25
:10032000FE4F208180916C0190916D0101968F7339
:10033000992790936D0180936C012093C600FF91E3
:10034000EF919F918F913F912F910F900FBE0F9042
:100350001F9018951F920F920FB60F9211242F9392
:100360004F935F938F939F93EF93FF938091C00080
:1003700082FD1BC02091C6008091AE019091AF011B
:1003800001968F7399274091B0015091B101841764
:10039000950759F0E091AE01F091AF01E259FE4F9F
:1003A00020839093AF018093AE01FF91EF919F91D5
:1003B0008F915F914F912F910F900FBE0F901F90D3
:1003C0001895789484B5826084BD84B5816084BDBD
:1003D00085B5826085BD85B5816085BD80916E00E3
:1003E000816080936E001092810080918100826014
:1003F0008093810080918100816080938100809151
:1004000080008160809380008091B100846080933F
:10041000B1008091B00081608093B00080917A003B
:10042000846080937A0080917A00826080937A0061
:1004300080917A00816080937A0080917A00806850
:1004400080937A001092C100E091C601F091C7013B
:1004500081E090E09C010090D20102C0220F331F86
:100460000A94E2F72083E091C201F091C301108267
:10047000E091C401F091C50120E120831092D301E5
:10048000E091C801F091C90140819C010090CE012A
:1004900002C0220F331F0A94E2F7242B2083E0913D
:1004A000C801F091C90140819C010090CF0102C0B8
:1004B000220F331F0A94E2F7242B2083E091C80116
:1004C000F091C90140819C010090D00102C0220F2F
:1004D000331F0A94E2F7242B2083E091C801F091A6
:1004E000C90120810090D10102C0880F991F0A9490
:1004F000E2F780958223808348E150E060E171E07B
:1005000082EB91E00E945F000E942101FDCFE2EBAF
:10051000F1E01382128288EE93E0A0E0B0E08483E1
:100520009583A683B78384E091E0918380838EE6F0
:1005300091E0958784878AE291E09787868785ECAA
:1005400090E0918B808B84EC90E0938B828B80EC9D
:1005500090E0958B848B81EC90E0978B868B82EC7E
:1005600090E0918F808F86EC90E0938F828F84E073
:10057000848F83E0858F87E0868F85E0878F81E099
:1005800080A30895F8940C94CB02EE0FFF1F059002
:0A059000F491E02D0994F894FFCFD8
:10059A000000000088005F001101D500F500CA00C4
:1005AA006E6F7468696E672068617070656E73201B
:0A05BA00696E204E616E6F31000083
:00000001FF
